{
	"compilerInput": "{\"language\":\"Solidity\",\"sources\":{\"Nyke-lending-protocol/contracts/CErc20Immutable.sol\":{\"content\":\"// SPDX-License-Identifier: BSD-3-Clause\\r\\npragma solidity ^0.8.10;\\r\\n\\r\\nimport \\\"./CErc20.sol\\\";\\r\\n\\r\\n/**\\r\\n * @title Compound's CErc20Immutable Contract\\r\\n * @notice CTokens which wrap an EIP-20 underlying and are immutable\\r\\n * @author Compound\\r\\n */\\r\\ncontract CErc20Immutable is CErc20 {\\r\\n    /**\\r\\n     * @notice Construct a new money market\\r\\n     * @param underlying_ The address of the underlying asset\\r\\n     * @param comptroller_ The address of the Comptroller\\r\\n     * @param interestRateModel_ The address of the interest rate model\\r\\n     * @param initialExchangeRateMantissa_ The initial exchange rate, scaled by 1e18\\r\\n     * @param name_ ERC-20 name of this token\\r\\n     * @param symbol_ ERC-20 symbol of this token\\r\\n     * @param decimals_ ERC-20 decimal precision of this token\\r\\n     * @param admin_ Address of the administrator of this token\\r\\n     */\\r\\n    constructor(address underlying_,\\r\\n                ComptrollerInterface comptroller_,\\r\\n                InterestRateModel interestRateModel_,\\r\\n                uint initialExchangeRateMantissa_,\\r\\n                string memory name_,\\r\\n                string memory symbol_,\\r\\n                uint8 decimals_,\\r\\n                address payable admin_) {\\r\\n        // Creator of the contract is admin during initialization\\r\\n        admin = payable(msg.sender);\\r\\n\\r\\n        // Initialize the market\\r\\n        initialize(underlying_, comptroller_, interestRateModel_, initialExchangeRateMantissa_, name_, symbol_, decimals_);\\r\\n\\r\\n        // Set the proper admin now that initialization is done\\r\\n        admin = admin_;\\r\\n    }\\r\\n}\\r\\n\"},\"Nyke-lending-protocol/contracts/CErc20.sol\":{\"content\":\"// SPDX-License-Identifier: BSD-3-Clause\\r\\npragma solidity ^0.8.10;\\r\\n\\r\\nimport \\\"./CToken.sol\\\";\\r\\n\\r\\ninterface CompLike {\\r\\n    function delegate(address delegatee) external;\\r\\n}\\r\\n\\r\\n/**\\r\\n * @title Compound's CErc20 Contract\\r\\n * @notice CTokens which wrap an EIP-20 underlying\\r\\n * @author Compound\\r\\n */\\r\\ncontract CErc20 is CToken, CErc20Interface {\\r\\n    /**\\r\\n     * @notice Initialize the new money market\\r\\n     * @param underlying_ The address of the underlying asset\\r\\n     * @param comptroller_ The address of the Comptroller\\r\\n     * @param interestRateModel_ The address of the interest rate model\\r\\n     * @param initialExchangeRateMantissa_ The initial exchange rate, scaled by 1e18\\r\\n     * @param name_ ERC-20 name of this token\\r\\n     * @param symbol_ ERC-20 symbol of this token\\r\\n     * @param decimals_ ERC-20 decimal precision of this token\\r\\n     */\\r\\n    function initialize(address underlying_,\\r\\n                        ComptrollerInterface comptroller_,\\r\\n                        InterestRateModel interestRateModel_,\\r\\n                        uint initialExchangeRateMantissa_,\\r\\n                        string memory name_,\\r\\n                        string memory symbol_,\\r\\n                        uint8 decimals_) public {\\r\\n        // CToken initialize does the bulk of the work\\r\\n        super.initialize(comptroller_, interestRateModel_, initialExchangeRateMantissa_, name_, symbol_, decimals_);\\r\\n\\r\\n        // Set underlying and sanity check it\\r\\n        underlying = underlying_;\\r\\n        EIP20Interface(underlying).totalSupply();\\r\\n    }\\r\\n\\r\\n    /*** User Interface ***/\\r\\n\\r\\n    /**\\r\\n     * @notice Sender supplies assets into the market and receives cTokens in exchange\\r\\n     * @dev Accrues interest whether or not the operation succeeds, unless reverted\\r\\n     * @param mintAmount The amount of the underlying asset to supply\\r\\n     * @return uint 0=success, otherwise a failure (see ErrorReporter.sol for details)\\r\\n     */\\r\\n    function mint(uint mintAmount) override external returns (uint) {\\r\\n        mintInternal(mintAmount);\\r\\n        return NO_ERROR;\\r\\n    }\\r\\n\\r\\n    /**\\r\\n     * @notice Sender redeems cTokens in exchange for the underlying asset\\r\\n     * @dev Accrues interest whether or not the operation succeeds, unless reverted\\r\\n     * @param redeemTokens The number of cTokens to redeem into underlying\\r\\n     * @return uint 0=success, otherwise a failure (see ErrorReporter.sol for details)\\r\\n     */\\r\\n    function redeem(uint redeemTokens) override external returns (uint) {\\r\\n        redeemInternal(redeemTokens);\\r\\n        return NO_ERROR;\\r\\n    }\\r\\n\\r\\n    /**\\r\\n     * @notice Sender redeems cTokens in exchange for a specified amount of underlying asset\\r\\n     * @dev Accrues interest whether or not the operation succeeds, unless reverted\\r\\n     * @param redeemAmount The amount of underlying to redeem\\r\\n     * @return uint 0=success, otherwise a failure (see ErrorReporter.sol for details)\\r\\n     */\\r\\n    function redeemUnderlying(uint redeemAmount) override external returns (uint) {\\r\\n        redeemUnderlyingInternal(redeemAmount);\\r\\n        return NO_ERROR;\\r\\n    }\\r\\n\\r\\n    /**\\r\\n      * @notice Sender borrows assets from the protocol to their own address\\r\\n      * @param borrowAmount The amount of the underlying asset to borrow\\r\\n      * @return uint 0=success, otherwise a failure (see ErrorReporter.sol for details)\\r\\n      */\\r\\n    function borrow(uint borrowAmount) override external returns (uint) {\\r\\n        borrowInternal(borrowAmount);\\r\\n        return NO_ERROR;\\r\\n    }\\r\\n\\r\\n    /**\\r\\n     * @notice Sender repays their own borrow\\r\\n     * @param repayAmount The amount to repay, or -1 for the full outstanding amount\\r\\n     * @return uint 0=success, otherwise a failure (see ErrorReporter.sol for details)\\r\\n     */\\r\\n    function repayBorrow(uint repayAmount) override external returns (uint) {\\r\\n        repayBorrowInternal(repayAmount);\\r\\n        return NO_ERROR;\\r\\n    }\\r\\n\\r\\n    /**\\r\\n     * @notice Sender repays a borrow belonging to borrower\\r\\n     * @param borrower the account with the debt being payed off\\r\\n     * @param repayAmount The amount to repay, or -1 for the full outstanding amount\\r\\n     * @return uint 0=success, otherwise a failure (see ErrorReporter.sol for details)\\r\\n     */\\r\\n    function repayBorrowBehalf(address borrower, uint repayAmount) override external returns (uint) {\\r\\n        repayBorrowBehalfInternal(borrower, repayAmount);\\r\\n        return NO_ERROR;\\r\\n    }\\r\\n\\r\\n    /**\\r\\n     * @notice The sender liquidates the borrowers collateral.\\r\\n     *  The collateral seized is transferred to the liquidator.\\r\\n     * @param borrower The borrower of this cToken to be liquidated\\r\\n     * @param repayAmount The amount of the underlying borrowed asset to repay\\r\\n     * @param cTokenCollateral The market in which to seize collateral from the borrower\\r\\n     * @return uint 0=success, otherwise a failure (see ErrorReporter.sol for details)\\r\\n     */\\r\\n    function liquidateBorrow(address borrower, uint repayAmount, CTokenInterface cTokenCollateral) override external returns (uint) {\\r\\n        liquidateBorrowInternal(borrower, repayAmount, cTokenCollateral);\\r\\n        return NO_ERROR;\\r\\n    }\\r\\n\\r\\n    /**\\r\\n     * @notice A public function to sweep accidental ERC-20 transfers to this contract. Tokens are sent to admin (timelock)\\r\\n     * @param token The address of the ERC-20 token to sweep\\r\\n     */\\r\\n    function sweepToken(EIP20NonStandardInterface token) override external {\\r\\n        require(msg.sender == admin, \\\"CErc20::sweepToken: only admin can sweep tokens\\\");\\r\\n        require(address(token) != underlying, \\\"CErc20::sweepToken: can not sweep underlying token\\\");\\r\\n        uint256 balance = token.balanceOf(address(this));\\r\\n        token.transfer(admin, balance);\\r\\n    }\\r\\n\\r\\n    /**\\r\\n     * @notice The sender adds to reserves.\\r\\n     * @param addAmount The amount fo underlying token to add as reserves\\r\\n     * @return uint 0=success, otherwise a failure (see ErrorReporter.sol for details)\\r\\n     */\\r\\n    function _addReserves(uint addAmount) override external returns (uint) {\\r\\n        return _addReservesInternal(addAmount);\\r\\n    }\\r\\n\\r\\n    /*** Safe Token ***/\\r\\n\\r\\n    /**\\r\\n     * @notice Gets balance of this contract in terms of the underlying\\r\\n     * @dev This excludes the value of the current message, if any\\r\\n     * @return The quantity of underlying tokens owned by this contract\\r\\n     */\\r\\n    function getCashPrior() virtual override internal view returns (uint) {\\r\\n        EIP20Interface token = EIP20Interface(underlying);\\r\\n        return token.balanceOf(address(this));\\r\\n    }\\r\\n\\r\\n    /**\\r\\n     * @dev Similar to EIP20 transfer, except it handles a False result from `transferFrom` and reverts in that case.\\r\\n     *      This will revert due to insufficient balance or insufficient allowance.\\r\\n     *      This function returns the actual amount received,\\r\\n     *      which may be less than `amount` if there is a fee attached to the transfer.\\r\\n     *\\r\\n     *      Note: This wrapper safely handles non-standard ERC-20 tokens that do not return a value.\\r\\n     *            See here: https://medium.com/coinmonks/missing-return-value-bug-at-least-130-tokens-affected-d67bf08521ca\\r\\n     */\\r\\n    function doTransferIn(address from, uint amount) virtual override internal returns (uint) {\\r\\n        // Read from storage once\\r\\n        address underlying_ = underlying;\\r\\n        EIP20NonStandardInterface token = EIP20NonStandardInterface(underlying_);\\r\\n        uint balanceBefore = EIP20Interface(underlying_).balanceOf(address(this));\\r\\n        token.transferFrom(from, address(this), amount);\\r\\n\\r\\n        bool success;\\r\\n        assembly {\\r\\n            switch returndatasize()\\r\\n                case 0 {                       // This is a non-standard ERC-20\\r\\n                    success := not(0)          // set success to true\\r\\n                }\\r\\n                case 32 {                      // This is a compliant ERC-20\\r\\n                    returndatacopy(0, 0, 32)\\r\\n                    success := mload(0)        // Set `success = returndata` of override external call\\r\\n                }\\r\\n                default {                      // This is an excessively non-compliant ERC-20, revert.\\r\\n                    revert(0, 0)\\r\\n                }\\r\\n        }\\r\\n        require(success, \\\"TOKEN_TRANSFER_IN_FAILED\\\");\\r\\n\\r\\n        // Calculate the amount that was *actually* transferred\\r\\n        uint balanceAfter = EIP20Interface(underlying_).balanceOf(address(this));\\r\\n        return balanceAfter - balanceBefore;   // underflow already checked above, just subtract\\r\\n    }\\r\\n\\r\\n    /**\\r\\n     * @dev Similar to EIP20 transfer, except it handles a False success from `transfer` and returns an explanatory\\r\\n     *      error code rather than reverting. If caller has not called checked protocol's balance, this may revert due to\\r\\n     *      insufficient cash held in this contract. If caller has checked protocol's balance prior to this call, and verified\\r\\n     *      it is >= amount, this should not revert in normal conditions.\\r\\n     *\\r\\n     *      Note: This wrapper safely handles non-standard ERC-20 tokens that do not return a value.\\r\\n     *            See here: https://medium.com/coinmonks/missing-return-value-bug-at-least-130-tokens-affected-d67bf08521ca\\r\\n     */\\r\\n    function doTransferOut(address payable to, uint amount) virtual override internal {\\r\\n        EIP20NonStandardInterface token = EIP20NonStandardInterface(underlying);\\r\\n        token.transfer(to, amount);\\r\\n\\r\\n        bool success;\\r\\n        assembly {\\r\\n            switch returndatasize()\\r\\n                case 0 {                      // This is a non-standard ERC-20\\r\\n                    success := not(0)          // set success to true\\r\\n                }\\r\\n                case 32 {                     // This is a compliant ERC-20\\r\\n                    returndatacopy(0, 0, 32)\\r\\n                    success := mload(0)        // Set `success = returndata` of override external call\\r\\n                }\\r\\n                default {                     // This is an excessively non-compliant ERC-20, revert.\\r\\n                    revert(0, 0)\\r\\n                }\\r\\n        }\\r\\n        require(success, \\\"TOKEN_TRANSFER_OUT_FAILED\\\");\\r\\n    }\\r\\n\\r\\n    /**\\r\\n    * @notice Admin call to delegate the votes of the COMP-like underlying\\r\\n    * @param compLikeDelegatee The address to delegate votes to\\r\\n    * @dev CTokens whose underlying are not CompLike should revert here\\r\\n    */\\r\\n    function _delegateCompLikeTo(address compLikeDelegatee) external {\\r\\n        require(msg.sender == admin, \\\"only the admin may set the comp-like delegate\\\");\\r\\n        CompLike(underlying).delegate(compLikeDelegatee);\\r\\n    }\\r\\n}\\r\\n\"},\"Nyke-lending-protocol/contracts/CToken.sol\":{\"content\":\"// SPDX-License-Identifier: BSD-3-Clause\\r\\npragma solidity ^0.8.10;\\r\\n\\r\\nimport \\\"./ComptrollerInterface.sol\\\";\\r\\nimport \\\"./CTokenInterfaces.sol\\\";\\r\\nimport \\\"./ErrorReporter.sol\\\";\\r\\nimport \\\"./EIP20Interface.sol\\\";\\r\\nimport \\\"./InterestRateModel.sol\\\";\\r\\nimport \\\"./ExponentialNoError.sol\\\";\\r\\n\\r\\n/**\\r\\n * @title Compound's CToken Contract\\r\\n * @notice Abstract base for CTokens\\r\\n * @author Compound\\r\\n */\\r\\nabstract contract CToken is\\r\\n    CTokenInterface,\\r\\n    ExponentialNoError,\\r\\n    TokenErrorReporter\\r\\n{\\r\\n    /**\\r\\n     * @notice Initialize the money market\\r\\n     * @param comptroller_ The address of the Comptroller\\r\\n     * @param interestRateModel_ The address of the interest rate model\\r\\n     * @param initialExchangeRateMantissa_ The initial exchange rate, scaled by 1e18\\r\\n     * @param name_ EIP-20 name of this token\\r\\n     * @param symbol_ EIP-20 symbol of this token\\r\\n     * @param decimals_ EIP-20 decimal precision of this token\\r\\n     */\\r\\n    function initialize(\\r\\n        ComptrollerInterface comptroller_,\\r\\n        InterestRateModel interestRateModel_,\\r\\n        uint256 initialExchangeRateMantissa_,\\r\\n        string memory name_,\\r\\n        string memory symbol_,\\r\\n        uint8 decimals_\\r\\n    ) public {\\r\\n        require(msg.sender == admin, \\\"only admin may initialize the market\\\");\\r\\n        require(\\r\\n            accrualBlockNumber == 0 && borrowIndex == 0,\\r\\n            \\\"market may only be initialized once\\\"\\r\\n        );\\r\\n\\r\\n        // Set initial exchange rate\\r\\n        initialExchangeRateMantissa = initialExchangeRateMantissa_;\\r\\n        require(\\r\\n            initialExchangeRateMantissa > 0,\\r\\n            \\\"initial exchange rate must be greater than zero.\\\"\\r\\n        );\\r\\n\\r\\n        // Set the comptroller\\r\\n        uint256 err = _setComptroller(comptroller_);\\r\\n        require(err == NO_ERROR, \\\"setting comptroller failed\\\");\\r\\n\\r\\n        // Initialize block number and borrow index (block number mocks depend on comptroller being set)\\r\\n        accrualBlockNumber = getBlockNumber();\\r\\n        borrowIndex = mantissaOne;\\r\\n\\r\\n        // Set the interest rate model (depends on block number / borrow index)\\r\\n        err = _setInterestRateModelFresh(interestRateModel_);\\r\\n        require(err == NO_ERROR, \\\"setting interest rate model failed\\\");\\r\\n\\r\\n        name = name_;\\r\\n        symbol = symbol_;\\r\\n        decimals = decimals_;\\r\\n\\r\\n        // The counter starts true to prevent changing it from zero to non-zero (i.e. smaller cost/refund)\\r\\n        _notEntered = true;\\r\\n    }\\r\\n\\r\\n    /**\\r\\n     * @notice Transfer `tokens` tokens from `src` to `dst` by `spender`\\r\\n     * @dev Called by both `transfer` and `transferFrom` internally\\r\\n     * @param spender The address of the account performing the transfer\\r\\n     * @param src The address of the source account\\r\\n     * @param dst The address of the destination account\\r\\n     * @param tokens The number of tokens to transfer\\r\\n     * @return 0 if the transfer succeeded, else revert\\r\\n     */\\r\\n    function transferTokens(\\r\\n        address spender,\\r\\n        address src,\\r\\n        address dst,\\r\\n        uint256 tokens\\r\\n    ) internal returns (uint256) {\\r\\n        /* Fail if transfer not allowed */\\r\\n        uint256 allowed = comptroller.transferAllowed(\\r\\n            address(this),\\r\\n            src,\\r\\n            dst,\\r\\n            tokens\\r\\n        );\\r\\n        if (allowed != 0) {\\r\\n            revert TransferComptrollerRejection(allowed);\\r\\n        }\\r\\n\\r\\n        /* Do not allow self-transfers */\\r\\n        if (src == dst) {\\r\\n            revert TransferNotAllowed();\\r\\n        }\\r\\n\\r\\n        /* Get the allowance, infinite for the account owner */\\r\\n        uint256 startingAllowance = 0;\\r\\n        if (spender == src) {\\r\\n            startingAllowance = type(uint256).max;\\r\\n        } else {\\r\\n            startingAllowance = transferAllowances[src][spender];\\r\\n        }\\r\\n\\r\\n        /* Do the calculations, checking for {under,over}flow */\\r\\n        uint256 allowanceNew = startingAllowance - tokens;\\r\\n        uint256 srcTokensNew = accountTokens[src] - tokens;\\r\\n        uint256 dstTokensNew = accountTokens[dst] + tokens;\\r\\n\\r\\n        /////////////////////////\\r\\n        // EFFECTS & INTERACTIONS\\r\\n        // (No safe failures beyond this point)\\r\\n\\r\\n        accountTokens[src] = srcTokensNew;\\r\\n        accountTokens[dst] = dstTokensNew;\\r\\n\\r\\n        /* Eat some of the allowance (if necessary) */\\r\\n        if (startingAllowance != type(uint256).max) {\\r\\n            transferAllowances[src][spender] = allowanceNew;\\r\\n        }\\r\\n\\r\\n        /* We emit a Transfer event */\\r\\n        emit Transfer(src, dst, tokens);\\r\\n\\r\\n        // unused function\\r\\n        // comptroller.transferVerify(address(this), src, dst, tokens);\\r\\n\\r\\n        return NO_ERROR;\\r\\n    }\\r\\n\\r\\n    /**\\r\\n     * @notice Transfer `amount` tokens from `msg.sender` to `dst`\\r\\n     * @param dst The address of the destination account\\r\\n     * @param amount The number of tokens to transfer\\r\\n     * @return Whether or not the transfer succeeded\\r\\n     */\\r\\n    function transfer(address dst, uint256 amount)\\r\\n        external\\r\\n        override\\r\\n        nonReentrant\\r\\n        returns (bool)\\r\\n    {\\r\\n        return transferTokens(msg.sender, msg.sender, dst, amount) == NO_ERROR;\\r\\n    }\\r\\n\\r\\n    /**\\r\\n     * @notice Transfer `amount` tokens from `src` to `dst`\\r\\n     * @param src The address of the source account\\r\\n     * @param dst The address of the destination account\\r\\n     * @param amount The number of tokens to transfer\\r\\n     * @return Whether or not the transfer succeeded\\r\\n     */\\r\\n    function transferFrom(\\r\\n        address src,\\r\\n        address dst,\\r\\n        uint256 amount\\r\\n    ) external override nonReentrant returns (bool) {\\r\\n        return transferTokens(msg.sender, src, dst, amount) == NO_ERROR;\\r\\n    }\\r\\n\\r\\n    /**\\r\\n     * @notice Approve `spender` to transfer up to `amount` from `src`\\r\\n     * @dev This will overwrite the approval amount for `spender`\\r\\n     *  and is subject to issues noted [here](https://eips.ethereum.org/EIPS/eip-20#approve)\\r\\n     * @param spender The address of the account which may transfer tokens\\r\\n     * @param amount The number of tokens that are approved (uint256.max means infinite)\\r\\n     * @return Whether or not the approval succeeded\\r\\n     */\\r\\n    function approve(address spender, uint256 amount)\\r\\n        external\\r\\n        override\\r\\n        returns (bool)\\r\\n    {\\r\\n        address src = msg.sender;\\r\\n        transferAllowances[src][spender] = amount;\\r\\n        emit Approval(src, spender, amount);\\r\\n        return true;\\r\\n    }\\r\\n\\r\\n    /**\\r\\n     * @notice Get the current allowance from `owner` for `spender`\\r\\n     * @param owner The address of the account which owns the tokens to be spent\\r\\n     * @param spender The address of the account which may transfer tokens\\r\\n     * @return The number of tokens allowed to be spent (-1 means infinite)\\r\\n     */\\r\\n    function allowance(address owner, address spender)\\r\\n        external\\r\\n        view\\r\\n        override\\r\\n        returns (uint256)\\r\\n    {\\r\\n        return transferAllowances[owner][spender];\\r\\n    }\\r\\n\\r\\n    /**\\r\\n     * @notice Get the token balance of the `owner`\\r\\n     * @param owner The address of the account to query\\r\\n     * @return The number of tokens owned by `owner`\\r\\n     */\\r\\n    function balanceOf(address owner) external view override returns (uint256) {\\r\\n        return accountTokens[owner];\\r\\n    }\\r\\n\\r\\n    /**\\r\\n     * @notice Get the underlying balance of the `owner`\\r\\n     * @dev This also accrues interest in a transaction\\r\\n     * @param owner The address of the account to query\\r\\n     * @return The amount of underlying owned by `owner`\\r\\n     */\\r\\n    function balanceOfUnderlying(address owner)\\r\\n        external\\r\\n        override\\r\\n        returns (uint256)\\r\\n    {\\r\\n        Exp memory exchangeRate = Exp({mantissa: exchangeRateCurrent()});\\r\\n        return mul_ScalarTruncate(exchangeRate, accountTokens[owner]);\\r\\n    }\\r\\n\\r\\n    /**\\r\\n     * @notice Get a snapshot of the account's balances, and the cached exchange rate\\r\\n     * @dev This is used by comptroller to more efficiently perform liquidity checks.\\r\\n     * @param account Address of the account to snapshot\\r\\n     * @return (possible error, token balance, borrow balance, exchange rate mantissa)\\r\\n     */\\r\\n    function getAccountSnapshot(address account)\\r\\n        external\\r\\n        view\\r\\n        override\\r\\n        returns (\\r\\n            uint256,\\r\\n            uint256,\\r\\n            uint256,\\r\\n            uint256\\r\\n        )\\r\\n    {\\r\\n        return (\\r\\n            NO_ERROR,\\r\\n            accountTokens[account],\\r\\n            borrowBalanceStoredInternal(account),\\r\\n            exchangeRateStoredInternal()\\r\\n        );\\r\\n    }\\r\\n\\r\\n    /**\\r\\n     * @dev Function to simply retrieve block number\\r\\n     *  This exists mainly for inheriting test contracts to stub this result.\\r\\n     */\\r\\n    function getBlockNumber() internal view virtual returns (uint256) {\\r\\n        return block.timestamp;\\r\\n    }\\r\\n\\r\\n    /**\\r\\n     * @notice Returns the current per-block borrow interest rate for this cToken\\r\\n     * @return The borrow interest rate per block, scaled by 1e18\\r\\n     */\\r\\n    function borrowRatePerBlock() external view override returns (uint256) {\\r\\n        return\\r\\n            interestRateModel.getBorrowRate(\\r\\n                getCashPrior(),\\r\\n                totalBorrows,\\r\\n                totalReserves\\r\\n            );\\r\\n    }\\r\\n\\r\\n    /**\\r\\n     * @notice Returns the current per-block supply interest rate for this cToken\\r\\n     * @return The supply interest rate per block, scaled by 1e18\\r\\n     */\\r\\n    function supplyRatePerBlock() external view override returns (uint256) {\\r\\n        return\\r\\n            interestRateModel.getSupplyRate(\\r\\n                getCashPrior(),\\r\\n                totalBorrows,\\r\\n                totalReserves,\\r\\n                reserveFactorMantissa\\r\\n            );\\r\\n    }\\r\\n\\r\\n    /**\\r\\n     * @notice Returns the current total borrows plus accrued interest\\r\\n     * @return The total borrows with interest\\r\\n     */\\r\\n    function totalBorrowsCurrent()\\r\\n        external\\r\\n        override\\r\\n        nonReentrant\\r\\n        returns (uint256)\\r\\n    {\\r\\n        accrueInterest();\\r\\n        return totalBorrows;\\r\\n    }\\r\\n\\r\\n    /**\\r\\n     * @notice Accrue interest to updated borrowIndex and then calculate account's borrow balance using the updated borrowIndex\\r\\n     * @param account The address whose balance should be calculated after updating borrowIndex\\r\\n     * @return The calculated balance\\r\\n     */\\r\\n    function borrowBalanceCurrent(address account)\\r\\n        external\\r\\n        override\\r\\n        nonReentrant\\r\\n        returns (uint256)\\r\\n    {\\r\\n        accrueInterest();\\r\\n        return borrowBalanceStored(account);\\r\\n    }\\r\\n\\r\\n    /**\\r\\n     * @notice Return the borrow balance of account based on stored data\\r\\n     * @param account The address whose balance should be calculated\\r\\n     * @return The calculated balance\\r\\n     */\\r\\n    function borrowBalanceStored(address account)\\r\\n        public\\r\\n        view\\r\\n        override\\r\\n        returns (uint256)\\r\\n    {\\r\\n        return borrowBalanceStoredInternal(account);\\r\\n    }\\r\\n\\r\\n    /**\\r\\n     * @notice Return the borrow balance of account based on stored data\\r\\n     * @param account The address whose balance should be calculated\\r\\n     * @return (error code, the calculated balance or 0 if error code is non-zero)\\r\\n     */\\r\\n    function borrowBalanceStoredInternal(address account)\\r\\n        internal\\r\\n        view\\r\\n        returns (uint256)\\r\\n    {\\r\\n        /* Get borrowBalance and borrowIndex */\\r\\n        BorrowSnapshot storage borrowSnapshot = accountBorrows[account];\\r\\n\\r\\n        /* If borrowBalance = 0 then borrowIndex is likely also 0.\\r\\n         * Rather than failing the calculation with a division by 0, we immediately return 0 in this case.\\r\\n         */\\r\\n        if (borrowSnapshot.principal == 0) {\\r\\n            return 0;\\r\\n        }\\r\\n\\r\\n        /* Calculate new borrow balance using the interest index:\\r\\n         *  recentBorrowBalance = borrower.borrowBalance * market.borrowIndex / borrower.borrowIndex\\r\\n         */\\r\\n        uint256 principalTimesIndex = borrowSnapshot.principal * borrowIndex;\\r\\n        return principalTimesIndex / borrowSnapshot.interestIndex;\\r\\n    }\\r\\n\\r\\n    /**\\r\\n     * @notice Accrue interest then return the up-to-date exchange rate\\r\\n     * @return Calculated exchange rate scaled by 1e18\\r\\n     */\\r\\n    function exchangeRateCurrent()\\r\\n        public\\r\\n        override\\r\\n        nonReentrant\\r\\n        returns (uint256)\\r\\n    {\\r\\n        accrueInterest();\\r\\n        return exchangeRateStored();\\r\\n    }\\r\\n\\r\\n    /**\\r\\n     * @notice Calculates the exchange rate from the underlying to the CToken\\r\\n     * @dev This function does not accrue interest before calculating the exchange rate\\r\\n     * @return Calculated exchange rate scaled by 1e18\\r\\n     */\\r\\n    function exchangeRateStored() public view override returns (uint256) {\\r\\n        return exchangeRateStoredInternal();\\r\\n    }\\r\\n\\r\\n    /**\\r\\n     * @notice Calculates the exchange rate from the underlying to the CToken\\r\\n     * @dev This function does not accrue interest before calculating the exchange rate\\r\\n     * @return calculated exchange rate scaled by 1e18\\r\\n     */\\r\\n    function exchangeRateStoredInternal()\\r\\n        internal\\r\\n        view\\r\\n        virtual\\r\\n        returns (uint256)\\r\\n    {\\r\\n        uint256 _totalSupply = totalSupply;\\r\\n        if (_totalSupply == 0) {\\r\\n            /*\\r\\n             * If there are no tokens minted:\\r\\n             *  exchangeRate = initialExchangeRate\\r\\n             */\\r\\n            return initialExchangeRateMantissa;\\r\\n        } else {\\r\\n            /*\\r\\n             * Otherwise:\\r\\n             *  exchangeRate = (totalCash + totalBorrows - totalReserves) / totalSupply\\r\\n             */\\r\\n            uint256 totalCash = getCashPrior();\\r\\n            uint256 cashPlusBorrowsMinusReserves = totalCash +\\r\\n                totalBorrows -\\r\\n                totalReserves;\\r\\n            uint256 exchangeRate = (cashPlusBorrowsMinusReserves * expScale) /\\r\\n                _totalSupply;\\r\\n\\r\\n            return exchangeRate;\\r\\n        }\\r\\n    }\\r\\n\\r\\n    /**\\r\\n     * @notice Get cash balance of this cToken in the underlying asset\\r\\n     * @return The quantity of underlying asset owned by this contract\\r\\n     */\\r\\n    function getCash() external view override returns (uint256) {\\r\\n        return getCashPrior();\\r\\n    }\\r\\n\\r\\n    /**\\r\\n     * @notice Applies accrued interest to total borrows and reserves\\r\\n     * @dev This calculates interest accrued from the last checkpointed block\\r\\n     *   up to the current block and writes new checkpoint to storage.\\r\\n     */\\r\\n    function accrueInterest() public virtual override returns (uint256) {\\r\\n        /* Remember the initial block number */\\r\\n        uint256 currentBlockNumber = getBlockNumber();\\r\\n        uint256 accrualBlockNumberPrior = accrualBlockNumber;\\r\\n\\r\\n        /* Short-circuit accumulating 0 interest */\\r\\n        if (accrualBlockNumberPrior == currentBlockNumber) {\\r\\n            return NO_ERROR;\\r\\n        }\\r\\n\\r\\n        /* Read the previous values out of storage */\\r\\n        uint256 cashPrior = getCashPrior();\\r\\n        uint256 borrowsPrior = totalBorrows;\\r\\n        uint256 reservesPrior = totalReserves;\\r\\n        uint256 borrowIndexPrior = borrowIndex;\\r\\n\\r\\n        /* Calculate the current borrow interest rate */\\r\\n        uint256 borrowRateMantissa = interestRateModel.getBorrowRate(\\r\\n            cashPrior,\\r\\n            borrowsPrior,\\r\\n            reservesPrior\\r\\n        );\\r\\n        require(\\r\\n            borrowRateMantissa <= borrowRateMaxMantissa,\\r\\n            \\\"borrow rate is absurdly high\\\"\\r\\n        );\\r\\n\\r\\n        /* Calculate the number of blocks elapsed since the last accrual */\\r\\n        uint256 blockDelta = currentBlockNumber - accrualBlockNumberPrior;\\r\\n\\r\\n        /*\\r\\n         * Calculate the interest accumulated into borrows and reserves and the new index:\\r\\n         *  simpleInterestFactor = borrowRate * blockDelta\\r\\n         *  interestAccumulated = simpleInterestFactor * totalBorrows\\r\\n         *  totalBorrowsNew = interestAccumulated + totalBorrows\\r\\n         *  totalReservesNew = interestAccumulated * reserveFactor + totalReserves\\r\\n         *  borrowIndexNew = simpleInterestFactor * borrowIndex + borrowIndex\\r\\n         */\\r\\n\\r\\n        Exp memory simpleInterestFactor = mul_(\\r\\n            Exp({mantissa: borrowRateMantissa}),\\r\\n            blockDelta\\r\\n        );\\r\\n        uint256 interestAccumulated = mul_ScalarTruncate(\\r\\n            simpleInterestFactor,\\r\\n            borrowsPrior\\r\\n        );\\r\\n        uint256 totalBorrowsNew = interestAccumulated + borrowsPrior;\\r\\n        uint256 totalReservesNew = mul_ScalarTruncateAddUInt(\\r\\n            Exp({mantissa: reserveFactorMantissa}),\\r\\n            interestAccumulated,\\r\\n            reservesPrior\\r\\n        );\\r\\n        uint256 borrowIndexNew = mul_ScalarTruncateAddUInt(\\r\\n            simpleInterestFactor,\\r\\n            borrowIndexPrior,\\r\\n            borrowIndexPrior\\r\\n        );\\r\\n\\r\\n        /////////////////////////\\r\\n        // EFFECTS & INTERACTIONS\\r\\n        // (No safe failures beyond this point)\\r\\n\\r\\n        /* We write the previously calculated values into storage */\\r\\n        accrualBlockNumber = currentBlockNumber;\\r\\n        borrowIndex = borrowIndexNew;\\r\\n        totalBorrows = totalBorrowsNew;\\r\\n        totalReserves = totalReservesNew;\\r\\n\\r\\n        /* We emit an AccrueInterest event */\\r\\n        emit AccrueInterest(\\r\\n            cashPrior,\\r\\n            interestAccumulated,\\r\\n            borrowIndexNew,\\r\\n            totalBorrowsNew\\r\\n        );\\r\\n\\r\\n        return NO_ERROR;\\r\\n    }\\r\\n\\r\\n    /**\\r\\n     * @notice Sender supplies assets into the market and receives cTokens in exchange\\r\\n     * @dev Accrues interest whether or not the operation succeeds, unless reverted\\r\\n     * @param mintAmount The amount of the underlying asset to supply\\r\\n     */\\r\\n    function mintInternal(uint256 mintAmount) internal nonReentrant {\\r\\n        accrueInterest();\\r\\n        // mintFresh emits the actual Mint event if successful and logs on errors, so we don't need to\\r\\n        mintFresh(msg.sender, mintAmount);\\r\\n    }\\r\\n\\r\\n    /**\\r\\n     * @notice User supplies assets into the market and receives cTokens in exchange\\r\\n     * @dev Assumes interest has already been accrued up to the current block\\r\\n     * @param minter The address of the account which is supplying the assets\\r\\n     * @param mintAmount The amount of the underlying asset to supply\\r\\n     */\\r\\n    function mintFresh(address minter, uint256 mintAmount) internal {\\r\\n        /* Fail if mint not allowed */\\r\\n        uint256 allowed = comptroller.mintAllowed(\\r\\n            address(this),\\r\\n            minter,\\r\\n            mintAmount\\r\\n        );\\r\\n        if (allowed != 0) {\\r\\n            revert MintComptrollerRejection(allowed);\\r\\n        }\\r\\n\\r\\n        /* Verify market's block number equals current block number */\\r\\n        if (accrualBlockNumber != getBlockNumber()) {\\r\\n            revert MintFreshnessCheck();\\r\\n        }\\r\\n\\r\\n        Exp memory exchangeRate = Exp({mantissa: exchangeRateStoredInternal()});\\r\\n\\r\\n        /////////////////////////\\r\\n        // EFFECTS & INTERACTIONS\\r\\n        // (No safe failures beyond this point)\\r\\n\\r\\n        /*\\r\\n         *  We call `doTransferIn` for the minter and the mintAmount.\\r\\n         *  Note: The cToken must handle variations between ERC-20 and ETH underlying.\\r\\n         *  `doTransferIn` reverts if anything goes wrong, since we can't be sure if\\r\\n         *  side-effects occurred. The function returns the amount actually transferred,\\r\\n         *  in case of a fee. On success, the cToken holds an additional `actualMintAmount`\\r\\n         *  of cash.\\r\\n         */\\r\\n        uint256 actualMintAmount = doTransferIn(minter, mintAmount);\\r\\n\\r\\n        /*\\r\\n         * We get the current exchange rate and calculate the number of cTokens to be minted:\\r\\n         *  mintTokens = actualMintAmount / exchangeRate\\r\\n         */\\r\\n\\r\\n        uint256 mintTokens = div_(actualMintAmount, exchangeRate);\\r\\n\\r\\n        /*\\r\\n         * We calculate the new total supply of cTokens and minter token balance, checking for overflow:\\r\\n         *  totalSupplyNew = totalSupply + mintTokens\\r\\n         *  accountTokensNew = accountTokens[minter] + mintTokens\\r\\n         * And write them into storage\\r\\n         */\\r\\n        totalSupply = totalSupply + mintTokens;\\r\\n        accountTokens[minter] = accountTokens[minter] + mintTokens;\\r\\n\\r\\n        /* We emit a Mint event, and a Transfer event */\\r\\n        emit Mint(minter, actualMintAmount, mintTokens);\\r\\n        emit Transfer(address(this), minter, mintTokens);\\r\\n\\r\\n        /* We call the defense hook */\\r\\n        comptroller.mintVerify(address(this), minter, actualMintAmount, mintTokens);\\r\\n    }\\r\\n\\r\\n    /**\\r\\n     * @notice Sender redeems cTokens in exchange for the underlying asset\\r\\n     * @dev Accrues interest whether or not the operation succeeds, unless reverted\\r\\n     * @param redeemTokens The number of cTokens to redeem into underlying\\r\\n     */\\r\\n    function redeemInternal(uint256 redeemTokens) internal nonReentrant {\\r\\n        accrueInterest();\\r\\n        // redeemFresh emits redeem-specific logs on errors, so we don't need to\\r\\n        redeemFresh(payable(msg.sender), redeemTokens, 0);\\r\\n    }\\r\\n\\r\\n    /**\\r\\n     * @notice Sender redeems cTokens in exchange for a specified amount of underlying asset\\r\\n     * @dev Accrues interest whether or not the operation succeeds, unless reverted\\r\\n     * @param redeemAmount The amount of underlying to receive from redeeming cTokens\\r\\n     */\\r\\n    function redeemUnderlyingInternal(uint256 redeemAmount)\\r\\n        internal\\r\\n        nonReentrant\\r\\n    {\\r\\n        accrueInterest();\\r\\n        // redeemFresh emits redeem-specific logs on errors, so we don't need to\\r\\n        redeemFresh(payable(msg.sender), 0, redeemAmount);\\r\\n    }\\r\\n\\r\\n    /**\\r\\n     * @notice User redeems cTokens in exchange for the underlying asset\\r\\n     * @dev Assumes interest has already been accrued up to the current block\\r\\n     * @param redeemer The address of the account which is redeeming the tokens\\r\\n     * @param redeemTokensIn The number of cTokens to redeem into underlying (only one of redeemTokensIn or redeemAmountIn may be non-zero)\\r\\n     * @param redeemAmountIn The number of underlying tokens to receive from redeeming cTokens (only one of redeemTokensIn or redeemAmountIn may be non-zero)\\r\\n     */\\r\\n    function redeemFresh(\\r\\n        address payable redeemer,\\r\\n        uint256 redeemTokensIn,\\r\\n        uint256 redeemAmountIn\\r\\n    ) internal {\\r\\n        require(\\r\\n            redeemTokensIn == 0 || redeemAmountIn == 0,\\r\\n            \\\"one of redeemTokensIn or redeemAmountIn must be zero\\\"\\r\\n        );\\r\\n\\r\\n        /* exchangeRate = invoke Exchange Rate Stored() */\\r\\n        Exp memory exchangeRate = Exp({mantissa: exchangeRateStoredInternal()});\\r\\n\\r\\n        uint256 redeemTokens;\\r\\n        uint256 redeemAmount;\\r\\n        /* If redeemTokensIn > 0: */\\r\\n        if (redeemTokensIn > 0) {\\r\\n            /*\\r\\n             * We calculate the exchange rate and the amount of underlying to be redeemed:\\r\\n             *  redeemTokens = redeemTokensIn\\r\\n             *  redeemAmount = redeemTokensIn x exchangeRateCurrent\\r\\n             */\\r\\n            redeemTokens = redeemTokensIn;\\r\\n            redeemAmount = mul_ScalarTruncate(exchangeRate, redeemTokensIn);\\r\\n        } else {\\r\\n            /*\\r\\n             * We get the current exchange rate and calculate the amount to be redeemed:\\r\\n             *  redeemTokens = redeemAmountIn / exchangeRate\\r\\n             *  redeemAmount = redeemAmountIn\\r\\n             */\\r\\n            redeemTokens = div_(redeemAmountIn, exchangeRate);\\r\\n            redeemAmount = redeemAmountIn;\\r\\n        }\\r\\n\\r\\n        /* Fail if redeem not allowed */\\r\\n        uint256 allowed = comptroller.redeemAllowed(\\r\\n            address(this),\\r\\n            redeemer,\\r\\n            redeemTokens\\r\\n        );\\r\\n        if (allowed != 0) {\\r\\n            revert RedeemComptrollerRejection(allowed);\\r\\n        }\\r\\n\\r\\n        /* Verify market's block number equals current block number */\\r\\n        if (accrualBlockNumber != getBlockNumber()) {\\r\\n            revert RedeemFreshnessCheck();\\r\\n        }\\r\\n\\r\\n        /* Fail gracefully if protocol has insufficient cash */\\r\\n        if (getCashPrior() < redeemAmount) {\\r\\n            revert RedeemTransferOutNotPossible();\\r\\n        }\\r\\n\\r\\n        /////////////////////////\\r\\n        // EFFECTS & INTERACTIONS\\r\\n        // (No safe failures beyond this point)\\r\\n\\r\\n        /*\\r\\n         * We write the previously calculated values into storage.\\r\\n         *  Note: Avoid token reentrancy attacks by writing reduced supply before external transfer.\\r\\n         */\\r\\n        totalSupply = totalSupply - redeemTokens;\\r\\n        accountTokens[redeemer] = accountTokens[redeemer] - redeemTokens;\\r\\n\\r\\n        /*\\r\\n         * We invoke doTransferOut for the redeemer and the redeemAmount.\\r\\n         *  Note: The cToken must handle variations between ERC-20 and ETH underlying.\\r\\n         *  On success, the cToken has redeemAmount less of cash.\\r\\n         *  doTransferOut reverts if anything goes wrong, since we can't be sure if side effects occurred.\\r\\n         */\\r\\n        doTransferOut(redeemer, redeemAmount);\\r\\n\\r\\n        /* We emit a Transfer event, and a Redeem event */\\r\\n        emit Transfer(redeemer, address(this), redeemTokens);\\r\\n        emit Redeem(redeemer, redeemAmount, redeemTokens);\\r\\n\\r\\n        /* We call the defense hook */\\r\\n        comptroller.redeemVerify(\\r\\n            address(this),\\r\\n            redeemer,\\r\\n            redeemAmount,\\r\\n            redeemTokens\\r\\n        );\\r\\n    }\\r\\n\\r\\n    /**\\r\\n     * @notice Sender borrows assets from the protocol to their own address\\r\\n     * @param borrowAmount The amount of the underlying asset to borrow\\r\\n     */\\r\\n    function borrowInternal(uint256 borrowAmount) internal nonReentrant {\\r\\n        accrueInterest();\\r\\n        // borrowFresh emits borrow-specific logs on errors, so we don't need to\\r\\n        borrowFresh(payable(msg.sender), borrowAmount);\\r\\n    }\\r\\n\\r\\n    /**\\r\\n     * @notice Users borrow assets from the protocol to their own address\\r\\n     * @param borrowAmount The amount of the underlying asset to borrow\\r\\n     */\\r\\n    function borrowFresh(address payable borrower, uint256 borrowAmount)\\r\\n        internal\\r\\n    {\\r\\n        /* Fail if borrow not allowed */\\r\\n        uint256 allowed = comptroller.borrowAllowed(\\r\\n            address(this),\\r\\n            borrower,\\r\\n            borrowAmount\\r\\n        );\\r\\n        if (allowed != 0) {\\r\\n            revert BorrowComptrollerRejection(allowed);\\r\\n        }\\r\\n\\r\\n        /* Verify market's block number equals current block number */\\r\\n        if (accrualBlockNumber != getBlockNumber()) {\\r\\n            revert BorrowFreshnessCheck();\\r\\n        }\\r\\n\\r\\n        /* Fail gracefully if protocol has insufficient underlying cash */\\r\\n        if (getCashPrior() < borrowAmount) {\\r\\n            revert BorrowCashNotAvailable();\\r\\n        }\\r\\n\\r\\n        /*\\r\\n         * We calculate the new borrower and total borrow balances, failing on overflow:\\r\\n         *  accountBorrowNew = accountBorrow + borrowAmount\\r\\n         *  totalBorrowsNew = totalBorrows + borrowAmount\\r\\n         */\\r\\n        uint256 accountBorrowsPrev = borrowBalanceStoredInternal(borrower);\\r\\n        uint256 accountBorrowsNew = accountBorrowsPrev + borrowAmount;\\r\\n        uint256 totalBorrowsNew = totalBorrows + borrowAmount;\\r\\n\\r\\n        /////////////////////////\\r\\n        // EFFECTS & INTERACTIONS\\r\\n        // (No safe failures beyond this point)\\r\\n\\r\\n        /*\\r\\n         * We write the previously calculated values into storage.\\r\\n         *  Note: Avoid token reentrancy attacks by writing increased borrow before external transfer.\\r\\n        `*/\\r\\n        accountBorrows[borrower].principal = accountBorrowsNew;\\r\\n        accountBorrows[borrower].interestIndex = borrowIndex;\\r\\n        totalBorrows = totalBorrowsNew;\\r\\n\\r\\n        /*\\r\\n         * We invoke doTransferOut for the borrower and the borrowAmount.\\r\\n         *  Note: The cToken must handle variations between ERC-20 and ETH underlying.\\r\\n         *  On success, the cToken borrowAmount less of cash.\\r\\n         *  doTransferOut reverts if anything goes wrong, since we can't be sure if side effects occurred.\\r\\n         */\\r\\n        doTransferOut(borrower, borrowAmount);\\r\\n\\r\\n        /* We emit a Borrow event */\\r\\n        emit Borrow(borrower, borrowAmount, accountBorrowsNew, totalBorrowsNew);\\r\\n    }\\r\\n\\r\\n    /**\\r\\n     * @notice Sender repays their own borrow\\r\\n     * @param repayAmount The amount to repay, or -1 for the full outstanding amount\\r\\n     */\\r\\n    function repayBorrowInternal(uint256 repayAmount) internal nonReentrant {\\r\\n        accrueInterest();\\r\\n        // repayBorrowFresh emits repay-borrow-specific logs on errors, so we don't need to\\r\\n        repayBorrowFresh(msg.sender, msg.sender, repayAmount);\\r\\n    }\\r\\n\\r\\n    /**\\r\\n     * @notice Sender repays a borrow belonging to borrower\\r\\n     * @param borrower the account with the debt being payed off\\r\\n     * @param repayAmount The amount to repay, or -1 for the full outstanding amount\\r\\n     */\\r\\n    function repayBorrowBehalfInternal(address borrower, uint256 repayAmount)\\r\\n        internal\\r\\n        nonReentrant\\r\\n    {\\r\\n        accrueInterest();\\r\\n        // repayBorrowFresh emits repay-borrow-specific logs on errors, so we don't need to\\r\\n        repayBorrowFresh(msg.sender, borrower, repayAmount);\\r\\n    }\\r\\n\\r\\n    /**\\r\\n     * @notice Borrows are repaid by another user (possibly the borrower).\\r\\n     * @param payer the account paying off the borrow\\r\\n     * @param borrower the account with the debt being payed off\\r\\n     * @param repayAmount the amount of underlying tokens being returned, or -1 for the full outstanding amount\\r\\n     * @return (uint) the actual repayment amount.\\r\\n     */\\r\\n    function repayBorrowFresh(\\r\\n        address payer,\\r\\n        address borrower,\\r\\n        uint256 repayAmount\\r\\n    ) internal returns (uint256) {\\r\\n        /* Fail if repayBorrow not allowed */\\r\\n        uint256 allowed = comptroller.repayBorrowAllowed(\\r\\n            address(this),\\r\\n            payer,\\r\\n            borrower,\\r\\n            repayAmount\\r\\n        );\\r\\n        if (allowed != 0) {\\r\\n            revert RepayBorrowComptrollerRejection(allowed);\\r\\n        }\\r\\n\\r\\n        /* Verify market's block number equals current block number */\\r\\n        if (accrualBlockNumber != getBlockNumber()) {\\r\\n            revert RepayBorrowFreshnessCheck();\\r\\n        }\\r\\n\\r\\n        /* We fetch the amount the borrower owes, with accumulated interest */\\r\\n        uint256 accountBorrowsPrev = borrowBalanceStoredInternal(borrower);\\r\\n\\r\\n        /* If repayAmount == -1, repayAmount = accountBorrows */\\r\\n        uint256 repayAmountFinal = repayAmount == type(uint256).max\\r\\n            ? accountBorrowsPrev\\r\\n            : repayAmount;\\r\\n\\r\\n        /////////////////////////\\r\\n        // EFFECTS & INTERACTIONS\\r\\n        // (No safe failures beyond this point)\\r\\n\\r\\n        /*\\r\\n         * We call doTransferIn for the payer and the repayAmount\\r\\n         *  Note: The cToken must handle variations between ERC-20 and ETH underlying.\\r\\n         *  On success, the cToken holds an additional repayAmount of cash.\\r\\n         *  doTransferIn reverts if anything goes wrong, since we can't be sure if side effects occurred.\\r\\n         *   it returns the amount actually transferred, in case of a fee.\\r\\n         */\\r\\n        uint256 actualRepayAmount = doTransferIn(payer, repayAmountFinal);\\r\\n\\r\\n        /*\\r\\n         * We calculate the new borrower and total borrow balances, failing on underflow:\\r\\n         *  accountBorrowsNew = accountBorrows - actualRepayAmount\\r\\n         *  totalBorrowsNew = totalBorrows - actualRepayAmount\\r\\n         */\\r\\n        uint256 accountBorrowsNew = accountBorrowsPrev - actualRepayAmount;\\r\\n        uint256 totalBorrowsNew = totalBorrows - actualRepayAmount;\\r\\n\\r\\n        /* We write the previously calculated values into storage */\\r\\n        accountBorrows[borrower].principal = accountBorrowsNew;\\r\\n        accountBorrows[borrower].interestIndex = borrowIndex;\\r\\n        totalBorrows = totalBorrowsNew;\\r\\n\\r\\n        /* We emit a RepayBorrow event */\\r\\n        emit RepayBorrow(\\r\\n            payer,\\r\\n            borrower,\\r\\n            actualRepayAmount,\\r\\n            accountBorrowsNew,\\r\\n            totalBorrowsNew\\r\\n        );\\r\\n\\r\\n        return actualRepayAmount;\\r\\n    }\\r\\n\\r\\n    /**\\r\\n     * @notice The sender liquidates the borrowers collateral.\\r\\n     *  The collateral seized is transferred to the liquidator.\\r\\n     * @param borrower The borrower of this cToken to be liquidated\\r\\n     * @param cTokenCollateral The market in which to seize collateral from the borrower\\r\\n     * @param repayAmount The amount of the underlying borrowed asset to repay\\r\\n     */\\r\\n    function liquidateBorrowInternal(\\r\\n        address borrower,\\r\\n        uint256 repayAmount,\\r\\n        CTokenInterface cTokenCollateral\\r\\n    ) internal nonReentrant {\\r\\n        accrueInterest();\\r\\n\\r\\n        uint256 error = cTokenCollateral.accrueInterest();\\r\\n        if (error != NO_ERROR) {\\r\\n            // accrueInterest emits logs on errors, but we still want to log the fact that an attempted liquidation failed\\r\\n            revert LiquidateAccrueCollateralInterestFailed(error);\\r\\n        }\\r\\n\\r\\n        // liquidateBorrowFresh emits borrow-specific logs on errors, so we don't need to\\r\\n        liquidateBorrowFresh(\\r\\n            msg.sender,\\r\\n            borrower,\\r\\n            repayAmount,\\r\\n            cTokenCollateral\\r\\n        );\\r\\n    }\\r\\n\\r\\n    /**\\r\\n     * @notice The liquidator liquidates the borrowers collateral.\\r\\n     *  The collateral seized is transferred to the liquidator.\\r\\n     * @param borrower The borrower of this cToken to be liquidated\\r\\n     * @param liquidator The address repaying the borrow and seizing collateral\\r\\n     * @param cTokenCollateral The market in which to seize collateral from the borrower\\r\\n     * @param repayAmount The amount of the underlying borrowed asset to repay\\r\\n     */\\r\\n    function liquidateBorrowFresh(\\r\\n        address liquidator,\\r\\n        address borrower,\\r\\n        uint256 repayAmount,\\r\\n        CTokenInterface cTokenCollateral\\r\\n    ) internal {\\r\\n        /* Fail if liquidate not allowed */\\r\\n        uint256 allowed = comptroller.liquidateBorrowAllowed(\\r\\n            address(this),\\r\\n            address(cTokenCollateral),\\r\\n            liquidator,\\r\\n            borrower,\\r\\n            repayAmount\\r\\n        );\\r\\n        if (allowed != 0) {\\r\\n            revert LiquidateComptrollerRejection(allowed);\\r\\n        }\\r\\n\\r\\n        /* Verify market's block number equals current block number */\\r\\n        if (accrualBlockNumber != getBlockNumber()) {\\r\\n            revert LiquidateFreshnessCheck();\\r\\n        }\\r\\n\\r\\n        /* Verify cTokenCollateral market's block number equals current block number */\\r\\n        if (cTokenCollateral.accrualBlockNumber() != getBlockNumber()) {\\r\\n            revert LiquidateCollateralFreshnessCheck();\\r\\n        }\\r\\n\\r\\n        /* Fail if borrower = liquidator */\\r\\n        if (borrower == liquidator) {\\r\\n            revert LiquidateLiquidatorIsBorrower();\\r\\n        }\\r\\n\\r\\n        /* Fail if repayAmount = 0 */\\r\\n        if (repayAmount == 0) {\\r\\n            revert LiquidateCloseAmountIsZero();\\r\\n        }\\r\\n\\r\\n        /* Fail if repayAmount = -1 */\\r\\n        if (repayAmount == type(uint256).max) {\\r\\n            revert LiquidateCloseAmountIsUintMax();\\r\\n        }\\r\\n\\r\\n        /* Fail if repayBorrow fails */\\r\\n        uint256 actualRepayAmount = repayBorrowFresh(\\r\\n            liquidator,\\r\\n            borrower,\\r\\n            repayAmount\\r\\n        );\\r\\n\\r\\n        /////////////////////////\\r\\n        // EFFECTS & INTERACTIONS\\r\\n        // (No safe failures beyond this point)\\r\\n\\r\\n        /* We calculate the number of collateral tokens that will be seized */\\r\\n        (uint256 amountSeizeError, uint256 seizeTokens) = comptroller\\r\\n            .liquidateCalculateSeizeTokens(\\r\\n                address(this),\\r\\n                address(cTokenCollateral),\\r\\n                actualRepayAmount\\r\\n            );\\r\\n        require(\\r\\n            amountSeizeError == NO_ERROR,\\r\\n            \\\"LIQUIDATE_COMPTROLLER_CALCULATE_AMOUNT_SEIZE_FAILED\\\"\\r\\n        );\\r\\n\\r\\n        /* Revert if borrower collateral token balance < seizeTokens */\\r\\n        require(\\r\\n            cTokenCollateral.balanceOf(borrower) >= seizeTokens,\\r\\n            \\\"LIQUIDATE_SEIZE_TOO_MUCH\\\"\\r\\n        );\\r\\n\\r\\n        // If this is also the collateral, run seizeInternal to avoid re-entrancy, otherwise make an external call\\r\\n        if (address(cTokenCollateral) == address(this)) {\\r\\n            seizeInternal(address(this), liquidator, borrower, seizeTokens);\\r\\n        } else {\\r\\n            require(\\r\\n                cTokenCollateral.seize(liquidator, borrower, seizeTokens) ==\\r\\n                    NO_ERROR,\\r\\n                \\\"token seizure failed\\\"\\r\\n            );\\r\\n        }\\r\\n\\r\\n        /* We emit a LiquidateBorrow event */\\r\\n        emit LiquidateBorrow(\\r\\n            liquidator,\\r\\n            borrower,\\r\\n            actualRepayAmount,\\r\\n            address(cTokenCollateral),\\r\\n            seizeTokens\\r\\n        );\\r\\n    }\\r\\n\\r\\n    /**\\r\\n     * @notice Transfers collateral tokens (this market) to the liquidator.\\r\\n     * @dev Will fail unless called by another cToken during the process of liquidation.\\r\\n     *  Its absolutely critical to use msg.sender as the borrowed cToken and not a parameter.\\r\\n     * @param liquidator The account receiving seized collateral\\r\\n     * @param borrower The account having collateral seized\\r\\n     * @param seizeTokens The number of cTokens to seize\\r\\n     * @return uint 0=success, otherwise a failure (see ErrorReporter.sol for details)\\r\\n     */\\r\\n    function seize(\\r\\n        address liquidator,\\r\\n        address borrower,\\r\\n        uint256 seizeTokens\\r\\n    ) external override nonReentrant returns (uint256) {\\r\\n        seizeInternal(msg.sender, liquidator, borrower, seizeTokens);\\r\\n\\r\\n        return NO_ERROR;\\r\\n    }\\r\\n\\r\\n    /**\\r\\n     * @notice Transfers collateral tokens (this market) to the liquidator.\\r\\n     * @dev Called only during an in-kind liquidation, or by liquidateBorrow during the liquidation of another CToken.\\r\\n     *  Its absolutely critical to use msg.sender as the seizer cToken and not a parameter.\\r\\n     * @param seizerToken The contract seizing the collateral (i.e. borrowed cToken)\\r\\n     * @param liquidator The account receiving seized collateral\\r\\n     * @param borrower The account having collateral seized\\r\\n     * @param seizeTokens The number of cTokens to seize\\r\\n     */\\r\\n    function seizeInternal(\\r\\n        address seizerToken,\\r\\n        address liquidator,\\r\\n        address borrower,\\r\\n        uint256 seizeTokens\\r\\n    ) internal {\\r\\n        /* Fail if seize not allowed */\\r\\n        uint256 allowed = comptroller.seizeAllowed(\\r\\n            address(this),\\r\\n            seizerToken,\\r\\n            liquidator,\\r\\n            borrower,\\r\\n            seizeTokens\\r\\n        );\\r\\n        if (allowed != 0) {\\r\\n            revert LiquidateSeizeComptrollerRejection(allowed);\\r\\n        }\\r\\n\\r\\n        /* Fail if borrower = liquidator */\\r\\n        if (borrower == liquidator) {\\r\\n            revert LiquidateSeizeLiquidatorIsBorrower();\\r\\n        }\\r\\n\\r\\n        /*\\r\\n         * We calculate the new borrower and liquidator token balances, failing on underflow/overflow:\\r\\n         *  borrowerTokensNew = accountTokens[borrower] - seizeTokens\\r\\n         *  liquidatorTokensNew = accountTokens[liquidator] + seizeTokens\\r\\n         */\\r\\n        uint256 protocolSeizeTokens = mul_(\\r\\n            seizeTokens,\\r\\n            Exp({mantissa: protocolSeizeShareMantissa})\\r\\n        );\\r\\n        uint256 liquidatorSeizeTokens = seizeTokens - protocolSeizeTokens;\\r\\n        Exp memory exchangeRate = Exp({mantissa: exchangeRateStoredInternal()});\\r\\n        uint256 protocolSeizeAmount = mul_ScalarTruncate(\\r\\n            exchangeRate,\\r\\n            protocolSeizeTokens\\r\\n        );\\r\\n        uint256 totalReservesNew = totalReserves + protocolSeizeAmount;\\r\\n\\r\\n        /////////////////////////\\r\\n        // EFFECTS & INTERACTIONS\\r\\n        // (No safe failures beyond this point)\\r\\n\\r\\n        /* We write the calculated values into storage */\\r\\n        totalReserves = totalReservesNew;\\r\\n        totalSupply = totalSupply - protocolSeizeTokens;\\r\\n        accountTokens[borrower] = accountTokens[borrower] - seizeTokens;\\r\\n        accountTokens[liquidator] =\\r\\n            accountTokens[liquidator] +\\r\\n            liquidatorSeizeTokens;\\r\\n\\r\\n        /* Emit a Transfer event */\\r\\n        emit Transfer(borrower, liquidator, liquidatorSeizeTokens);\\r\\n        emit Transfer(borrower, address(this), protocolSeizeTokens);\\r\\n        emit ReservesAdded(\\r\\n            address(this),\\r\\n            protocolSeizeAmount,\\r\\n            totalReservesNew\\r\\n        );\\r\\n    }\\r\\n\\r\\n    /*** Admin Functions ***/\\r\\n\\r\\n    /**\\r\\n     * @notice Begins transfer of admin rights. The newPendingAdmin must call `_acceptAdmin` to finalize the transfer.\\r\\n     * @dev Admin function to begin change of admin. The newPendingAdmin must call `_acceptAdmin` to finalize the transfer.\\r\\n     * @param newPendingAdmin New pending admin.\\r\\n     * @return uint 0=success, otherwise a failure (see ErrorReporter.sol for details)\\r\\n     */\\r\\n    function _setPendingAdmin(address payable newPendingAdmin)\\r\\n        external\\r\\n        override\\r\\n        returns (uint256)\\r\\n    {\\r\\n        // Check caller = admin\\r\\n        if (msg.sender != admin) {\\r\\n            revert SetPendingAdminOwnerCheck();\\r\\n        }\\r\\n\\r\\n        // Save current value, if any, for inclusion in log\\r\\n        address oldPendingAdmin = pendingAdmin;\\r\\n\\r\\n        // Store pendingAdmin with value newPendingAdmin\\r\\n        pendingAdmin = newPendingAdmin;\\r\\n\\r\\n        // Emit NewPendingAdmin(oldPendingAdmin, newPendingAdmin)\\r\\n        emit NewPendingAdmin(oldPendingAdmin, newPendingAdmin);\\r\\n\\r\\n        return NO_ERROR;\\r\\n    }\\r\\n\\r\\n    /**\\r\\n     * @notice Accepts transfer of admin rights. msg.sender must be pendingAdmin\\r\\n     * @dev Admin function for pending admin to accept role and update admin\\r\\n     * @return uint 0=success, otherwise a failure (see ErrorReporter.sol for details)\\r\\n     */\\r\\n    function _acceptAdmin() external override returns (uint256) {\\r\\n        // Check caller is pendingAdmin and pendingAdmin  address(0)\\r\\n        if (msg.sender != pendingAdmin || msg.sender == address(0)) {\\r\\n            revert AcceptAdminPendingAdminCheck();\\r\\n        }\\r\\n\\r\\n        // Save current values for inclusion in log\\r\\n        address oldAdmin = admin;\\r\\n        address oldPendingAdmin = pendingAdmin;\\r\\n\\r\\n        // Store admin with value pendingAdmin\\r\\n        admin = pendingAdmin;\\r\\n\\r\\n        // Clear the pending value\\r\\n        pendingAdmin = payable(address(0));\\r\\n\\r\\n        emit NewAdmin(oldAdmin, admin);\\r\\n        emit NewPendingAdmin(oldPendingAdmin, pendingAdmin);\\r\\n\\r\\n        return NO_ERROR;\\r\\n    }\\r\\n\\r\\n    /**\\r\\n     * @notice Sets a new comptroller for the market\\r\\n     * @dev Admin function to set a new comptroller\\r\\n     * @return uint 0=success, otherwise a failure (see ErrorReporter.sol for details)\\r\\n     */\\r\\n    function _setComptroller(ComptrollerInterface newComptroller)\\r\\n        public\\r\\n        override\\r\\n        returns (uint256)\\r\\n    {\\r\\n        // Check caller is admin\\r\\n        if (msg.sender != admin) {\\r\\n            revert SetComptrollerOwnerCheck();\\r\\n        }\\r\\n\\r\\n        ComptrollerInterface oldComptroller = comptroller;\\r\\n        // Ensure invoke comptroller.isComptroller() returns true\\r\\n        require(newComptroller.isComptroller(), \\\"marker method returned false\\\");\\r\\n\\r\\n        // Set market's comptroller to newComptroller\\r\\n        comptroller = newComptroller;\\r\\n\\r\\n        // Emit NewComptroller(oldComptroller, newComptroller)\\r\\n        emit NewComptroller(oldComptroller, newComptroller);\\r\\n\\r\\n        return NO_ERROR;\\r\\n    }\\r\\n\\r\\n    /**\\r\\n     * @notice accrues interest and sets a new reserve factor for the protocol using _setReserveFactorFresh\\r\\n     * @dev Admin function to accrue interest and set a new reserve factor\\r\\n     * @return uint 0=success, otherwise a failure (see ErrorReporter.sol for details)\\r\\n     */\\r\\n    function _setReserveFactor(uint256 newReserveFactorMantissa)\\r\\n        external\\r\\n        override\\r\\n        nonReentrant\\r\\n        returns (uint256)\\r\\n    {\\r\\n        accrueInterest();\\r\\n        // _setReserveFactorFresh emits reserve-factor-specific logs on errors, so we don't need to.\\r\\n        return _setReserveFactorFresh(newReserveFactorMantissa);\\r\\n    }\\r\\n\\r\\n    /**\\r\\n     * @notice Sets a new reserve factor for the protocol (*requires fresh interest accrual)\\r\\n     * @dev Admin function to set a new reserve factor\\r\\n     * @return uint 0=success, otherwise a failure (see ErrorReporter.sol for details)\\r\\n     */\\r\\n    function _setReserveFactorFresh(uint256 newReserveFactorMantissa)\\r\\n        internal\\r\\n        returns (uint256)\\r\\n    {\\r\\n        // Check caller is admin\\r\\n        if (msg.sender != admin) {\\r\\n            revert SetReserveFactorAdminCheck();\\r\\n        }\\r\\n\\r\\n        // Verify market's block number equals current block number\\r\\n        if (accrualBlockNumber != getBlockNumber()) {\\r\\n            revert SetReserveFactorFreshCheck();\\r\\n        }\\r\\n\\r\\n        // Check newReserveFactor  maxReserveFactor\\r\\n        if (newReserveFactorMantissa > reserveFactorMaxMantissa) {\\r\\n            revert SetReserveFactorBoundsCheck();\\r\\n        }\\r\\n\\r\\n        uint256 oldReserveFactorMantissa = reserveFactorMantissa;\\r\\n        reserveFactorMantissa = newReserveFactorMantissa;\\r\\n\\r\\n        emit NewReserveFactor(\\r\\n            oldReserveFactorMantissa,\\r\\n            newReserveFactorMantissa\\r\\n        );\\r\\n\\r\\n        return NO_ERROR;\\r\\n    }\\r\\n\\r\\n    /**\\r\\n     * @notice Accrues interest and reduces reserves by transferring from msg.sender\\r\\n     * @param addAmount Amount of addition to reserves\\r\\n     * @return uint 0=success, otherwise a failure (see ErrorReporter.sol for details)\\r\\n     */\\r\\n    function _addReservesInternal(uint256 addAmount)\\r\\n        internal\\r\\n        nonReentrant\\r\\n        returns (uint256)\\r\\n    {\\r\\n        accrueInterest();\\r\\n\\r\\n        // _addReservesFresh emits reserve-addition-specific logs on errors, so we don't need to.\\r\\n        _addReservesFresh(addAmount);\\r\\n        return NO_ERROR;\\r\\n    }\\r\\n\\r\\n    /**\\r\\n     * @notice Add reserves by transferring from caller\\r\\n     * @dev Requires fresh interest accrual\\r\\n     * @param addAmount Amount of addition to reserves\\r\\n     * @return (uint, uint) An error code (0=success, otherwise a failure (see ErrorReporter.sol for details)) and the actual amount added, net token fees\\r\\n     */\\r\\n    function _addReservesFresh(uint256 addAmount)\\r\\n        internal\\r\\n        returns (uint256, uint256)\\r\\n    {\\r\\n        // totalReserves + actualAddAmount\\r\\n        uint256 totalReservesNew;\\r\\n        uint256 actualAddAmount;\\r\\n\\r\\n        // We fail gracefully unless market's block number equals current block number\\r\\n        if (accrualBlockNumber != getBlockNumber()) {\\r\\n            revert AddReservesFactorFreshCheck(actualAddAmount);\\r\\n        }\\r\\n\\r\\n        /////////////////////////\\r\\n        // EFFECTS & INTERACTIONS\\r\\n        // (No safe failures beyond this point)\\r\\n\\r\\n        /*\\r\\n         * We call doTransferIn for the caller and the addAmount\\r\\n         *  Note: The cToken must handle variations between ERC-20 and ETH underlying.\\r\\n         *  On success, the cToken holds an additional addAmount of cash.\\r\\n         *  doTransferIn reverts if anything goes wrong, since we can't be sure if side effects occurred.\\r\\n         *  it returns the amount actually transferred, in case of a fee.\\r\\n         */\\r\\n\\r\\n        actualAddAmount = doTransferIn(msg.sender, addAmount);\\r\\n\\r\\n        totalReservesNew = totalReserves + actualAddAmount;\\r\\n\\r\\n        // Store reserves[n+1] = reserves[n] + actualAddAmount\\r\\n        totalReserves = totalReservesNew;\\r\\n\\r\\n        /* Emit NewReserves(admin, actualAddAmount, reserves[n+1]) */\\r\\n        emit ReservesAdded(msg.sender, actualAddAmount, totalReservesNew);\\r\\n\\r\\n        /* Return (NO_ERROR, actualAddAmount) */\\r\\n        return (NO_ERROR, actualAddAmount);\\r\\n    }\\r\\n\\r\\n    /**\\r\\n     * @notice Accrues interest and reduces reserves by transferring to admin\\r\\n     * @param reduceAmount Amount of reduction to reserves\\r\\n     * @return uint 0=success, otherwise a failure (see ErrorReporter.sol for details)\\r\\n     */\\r\\n    function _reduceReserves(uint256 reduceAmount)\\r\\n        external\\r\\n        override\\r\\n        nonReentrant\\r\\n        returns (uint256)\\r\\n    {\\r\\n        accrueInterest();\\r\\n        // _reduceReservesFresh emits reserve-reduction-specific logs on errors, so we don't need to.\\r\\n        return _reduceReservesFresh(reduceAmount);\\r\\n    }\\r\\n\\r\\n    /**\\r\\n     * @notice Reduces reserves by transferring to admin\\r\\n     * @dev Requires fresh interest accrual\\r\\n     * @param reduceAmount Amount of reduction to reserves\\r\\n     * @return uint 0=success, otherwise a failure (see ErrorReporter.sol for details)\\r\\n     */\\r\\n    function _reduceReservesFresh(uint256 reduceAmount)\\r\\n        internal\\r\\n        returns (uint256)\\r\\n    {\\r\\n        // totalReserves - reduceAmount\\r\\n        uint256 totalReservesNew;\\r\\n\\r\\n        // Check caller is admin\\r\\n        if (msg.sender != admin) {\\r\\n            revert ReduceReservesAdminCheck();\\r\\n        }\\r\\n\\r\\n        // We fail gracefully unless market's block number equals current block number\\r\\n        if (accrualBlockNumber != getBlockNumber()) {\\r\\n            revert ReduceReservesFreshCheck();\\r\\n        }\\r\\n\\r\\n        // Fail gracefully if protocol has insufficient underlying cash\\r\\n        if (getCashPrior() < reduceAmount) {\\r\\n            revert ReduceReservesCashNotAvailable();\\r\\n        }\\r\\n\\r\\n        // Check reduceAmount  reserves[n] (totalReserves)\\r\\n        if (reduceAmount > totalReserves) {\\r\\n            revert ReduceReservesCashValidation();\\r\\n        }\\r\\n\\r\\n        /////////////////////////\\r\\n        // EFFECTS & INTERACTIONS\\r\\n        // (No safe failures beyond this point)\\r\\n\\r\\n        totalReservesNew = totalReserves - reduceAmount;\\r\\n\\r\\n        // Store reserves[n+1] = reserves[n] - reduceAmount\\r\\n        totalReserves = totalReservesNew;\\r\\n\\r\\n        // doTransferOut reverts if anything goes wrong, since we can't be sure if side effects occurred.\\r\\n        doTransferOut(admin, reduceAmount);\\r\\n\\r\\n        emit ReservesReduced(admin, reduceAmount, totalReservesNew);\\r\\n\\r\\n        return NO_ERROR;\\r\\n    }\\r\\n\\r\\n    /**\\r\\n     * @notice accrues interest and updates the interest rate model using _setInterestRateModelFresh\\r\\n     * @dev Admin function to accrue interest and update the interest rate model\\r\\n     * @param newInterestRateModel the new interest rate model to use\\r\\n     * @return uint 0=success, otherwise a failure (see ErrorReporter.sol for details)\\r\\n     */\\r\\n    function _setInterestRateModel(InterestRateModel newInterestRateModel)\\r\\n        public\\r\\n        override\\r\\n        returns (uint256)\\r\\n    {\\r\\n        accrueInterest();\\r\\n        // _setInterestRateModelFresh emits interest-rate-model-update-specific logs on errors, so we don't need to.\\r\\n        return _setInterestRateModelFresh(newInterestRateModel);\\r\\n    }\\r\\n\\r\\n    /**\\r\\n     * @notice updates the interest rate model (*requires fresh interest accrual)\\r\\n     * @dev Admin function to update the interest rate model\\r\\n     * @param newInterestRateModel the new interest rate model to use\\r\\n     * @return uint 0=success, otherwise a failure (see ErrorReporter.sol for details)\\r\\n     */\\r\\n    function _setInterestRateModelFresh(InterestRateModel newInterestRateModel)\\r\\n        internal\\r\\n        returns (uint256)\\r\\n    {\\r\\n        // Used to store old model for use in the event that is emitted on success\\r\\n        InterestRateModel oldInterestRateModel;\\r\\n\\r\\n        // Check caller is admin\\r\\n        if (msg.sender != admin) {\\r\\n            revert SetInterestRateModelOwnerCheck();\\r\\n        }\\r\\n\\r\\n        // We fail gracefully unless market's block number equals current block number\\r\\n        if (accrualBlockNumber != getBlockNumber()) {\\r\\n            revert SetInterestRateModelFreshCheck();\\r\\n        }\\r\\n\\r\\n        // Track the market's current interest rate model\\r\\n        oldInterestRateModel = interestRateModel;\\r\\n\\r\\n        // Ensure invoke newInterestRateModel.isInterestRateModel() returns true\\r\\n        require(\\r\\n            newInterestRateModel.isInterestRateModel(),\\r\\n            \\\"marker method returned false\\\"\\r\\n        );\\r\\n\\r\\n        // Set the interest rate model to newInterestRateModel\\r\\n        interestRateModel = newInterestRateModel;\\r\\n\\r\\n        // Emit NewMarketInterestRateModel(oldInterestRateModel, newInterestRateModel)\\r\\n        emit NewMarketInterestRateModel(\\r\\n            oldInterestRateModel,\\r\\n            newInterestRateModel\\r\\n        );\\r\\n\\r\\n        return NO_ERROR;\\r\\n    }\\r\\n\\r\\n    /*** Safe Token ***/\\r\\n\\r\\n    /**\\r\\n     * @notice Gets balance of this contract in terms of the underlying\\r\\n     * @dev This excludes the value of the current message, if any\\r\\n     * @return The quantity of underlying owned by this contract\\r\\n     */\\r\\n    function getCashPrior() internal view virtual returns (uint256);\\r\\n\\r\\n    /**\\r\\n     * @dev Performs a transfer in, reverting upon failure. Returns the amount actually transferred to the protocol, in case of a fee.\\r\\n     *  This may revert due to insufficient balance or insufficient allowance.\\r\\n     */\\r\\n    function doTransferIn(address from, uint256 amount)\\r\\n        internal\\r\\n        virtual\\r\\n        returns (uint256);\\r\\n\\r\\n    /**\\r\\n     * @dev Performs a transfer out, ideally returning an explanatory error code upon failure rather than reverting.\\r\\n     *  If caller has not called checked protocol's balance, may revert due to insufficient cash held in the contract.\\r\\n     *  If caller has checked protocol's balance, and verified it is >= amount, this should not revert in normal conditions.\\r\\n     */\\r\\n    function doTransferOut(address payable to, uint256 amount) internal virtual;\\r\\n\\r\\n    /*** Reentrancy Guard ***/\\r\\n\\r\\n    /**\\r\\n     * @dev Prevents a contract from calling itself, directly or indirectly.\\r\\n     */\\r\\n    modifier nonReentrant() {\\r\\n        require(_notEntered, \\\"re-entered\\\");\\r\\n        _notEntered = false;\\r\\n        _;\\r\\n        _notEntered = true; // get a gas-refund post-Istanbul\\r\\n    }\\r\\n}\\r\\n\"},\"Nyke-lending-protocol/contracts/ExponentialNoError.sol\":{\"content\":\"// SPDX-License-Identifier: BSD-3-Clause\\r\\npragma solidity ^0.8.10;\\r\\n\\r\\n/**\\r\\n * @title Exponential module for storing fixed-precision decimals\\r\\n * @author Compound\\r\\n * @notice Exp is a struct which stores decimals with a fixed precision of 18 decimal places.\\r\\n *         Thus, if we wanted to store the 5.1, mantissa would store 5.1e18. That is:\\r\\n *         `Exp({mantissa: 5100000000000000000})`.\\r\\n */\\r\\ncontract ExponentialNoError {\\r\\n    uint constant expScale = 1e18;\\r\\n    uint constant doubleScale = 1e36;\\r\\n    uint constant halfExpScale = expScale/2;\\r\\n    uint constant mantissaOne = expScale;\\r\\n\\r\\n    struct Exp {\\r\\n        uint mantissa;\\r\\n    }\\r\\n\\r\\n    struct Double {\\r\\n        uint mantissa;\\r\\n    }\\r\\n\\r\\n    /**\\r\\n     * @dev Truncates the given exp to a whole number value.\\r\\n     *      For example, truncate(Exp{mantissa: 15 * expScale}) = 15\\r\\n     */\\r\\n    function truncate(Exp memory exp) pure internal returns (uint) {\\r\\n        // Note: We are not using careful math here as we're performing a division that cannot fail\\r\\n        return exp.mantissa / expScale;\\r\\n    }\\r\\n\\r\\n    /**\\r\\n     * @dev Multiply an Exp by a scalar, then truncate to return an unsigned integer.\\r\\n     */\\r\\n    function mul_ScalarTruncate(Exp memory a, uint scalar) pure internal returns (uint) {\\r\\n        Exp memory product = mul_(a, scalar);\\r\\n        return truncate(product);\\r\\n    }\\r\\n\\r\\n    /**\\r\\n     * @dev Multiply an Exp by a scalar, truncate, then add an to an unsigned integer, returning an unsigned integer.\\r\\n     */\\r\\n    function mul_ScalarTruncateAddUInt(Exp memory a, uint scalar, uint addend) pure internal returns (uint) {\\r\\n        Exp memory product = mul_(a, scalar);\\r\\n        return add_(truncate(product), addend);\\r\\n    }\\r\\n\\r\\n    /**\\r\\n     * @dev Checks if first Exp is less than second Exp.\\r\\n     */\\r\\n    function lessThanExp(Exp memory left, Exp memory right) pure internal returns (bool) {\\r\\n        return left.mantissa < right.mantissa;\\r\\n    }\\r\\n\\r\\n    /**\\r\\n     * @dev Checks if left Exp <= right Exp.\\r\\n     */\\r\\n    function lessThanOrEqualExp(Exp memory left, Exp memory right) pure internal returns (bool) {\\r\\n        return left.mantissa <= right.mantissa;\\r\\n    }\\r\\n\\r\\n    /**\\r\\n     * @dev Checks if left Exp > right Exp.\\r\\n     */\\r\\n    function greaterThanExp(Exp memory left, Exp memory right) pure internal returns (bool) {\\r\\n        return left.mantissa > right.mantissa;\\r\\n    }\\r\\n\\r\\n    /**\\r\\n     * @dev returns true if Exp is exactly zero\\r\\n     */\\r\\n    function isZeroExp(Exp memory value) pure internal returns (bool) {\\r\\n        return value.mantissa == 0;\\r\\n    }\\r\\n\\r\\n    function safe224(uint n, string memory errorMessage) pure internal returns (uint224) {\\r\\n        require(n < 2**224, errorMessage);\\r\\n        return uint224(n);\\r\\n    }\\r\\n\\r\\n    function safe32(uint n, string memory errorMessage) pure internal returns (uint32) {\\r\\n        require(n < 2**32, errorMessage);\\r\\n        return uint32(n);\\r\\n    }\\r\\n\\r\\n    function add_(Exp memory a, Exp memory b) pure internal returns (Exp memory) {\\r\\n        return Exp({mantissa: add_(a.mantissa, b.mantissa)});\\r\\n    }\\r\\n\\r\\n    function add_(Double memory a, Double memory b) pure internal returns (Double memory) {\\r\\n        return Double({mantissa: add_(a.mantissa, b.mantissa)});\\r\\n    }\\r\\n\\r\\n    function add_(uint a, uint b) pure internal returns (uint) {\\r\\n        return a + b;\\r\\n    }\\r\\n\\r\\n    function sub_(Exp memory a, Exp memory b) pure internal returns (Exp memory) {\\r\\n        return Exp({mantissa: sub_(a.mantissa, b.mantissa)});\\r\\n    }\\r\\n\\r\\n    function sub_(Double memory a, Double memory b) pure internal returns (Double memory) {\\r\\n        return Double({mantissa: sub_(a.mantissa, b.mantissa)});\\r\\n    }\\r\\n\\r\\n    function sub_(uint a, uint b) pure internal returns (uint) {\\r\\n        return a - b;\\r\\n    }\\r\\n\\r\\n    function mul_(Exp memory a, Exp memory b) pure internal returns (Exp memory) {\\r\\n        return Exp({mantissa: mul_(a.mantissa, b.mantissa) / expScale});\\r\\n    }\\r\\n\\r\\n    function mul_(Exp memory a, uint b) pure internal returns (Exp memory) {\\r\\n        return Exp({mantissa: mul_(a.mantissa, b)});\\r\\n    }\\r\\n\\r\\n    function mul_(uint a, Exp memory b) pure internal returns (uint) {\\r\\n        return mul_(a, b.mantissa) / expScale;\\r\\n    }\\r\\n\\r\\n    function mul_(Double memory a, Double memory b) pure internal returns (Double memory) {\\r\\n        return Double({mantissa: mul_(a.mantissa, b.mantissa) / doubleScale});\\r\\n    }\\r\\n\\r\\n    function mul_(Double memory a, uint b) pure internal returns (Double memory) {\\r\\n        return Double({mantissa: mul_(a.mantissa, b)});\\r\\n    }\\r\\n\\r\\n    function mul_(uint a, Double memory b) pure internal returns (uint) {\\r\\n        return mul_(a, b.mantissa) / doubleScale;\\r\\n    }\\r\\n\\r\\n    function mul_(uint a, uint b) pure internal returns (uint) {\\r\\n        return a * b;\\r\\n    }\\r\\n\\r\\n    function div_(Exp memory a, Exp memory b) pure internal returns (Exp memory) {\\r\\n        return Exp({mantissa: div_(mul_(a.mantissa, expScale), b.mantissa)});\\r\\n    }\\r\\n\\r\\n    function div_(Exp memory a, uint b) pure internal returns (Exp memory) {\\r\\n        return Exp({mantissa: div_(a.mantissa, b)});\\r\\n    }\\r\\n\\r\\n    function div_(uint a, Exp memory b) pure internal returns (uint) {\\r\\n        return div_(mul_(a, expScale), b.mantissa);\\r\\n    }\\r\\n\\r\\n    function div_(Double memory a, Double memory b) pure internal returns (Double memory) {\\r\\n        return Double({mantissa: div_(mul_(a.mantissa, doubleScale), b.mantissa)});\\r\\n    }\\r\\n\\r\\n    function div_(Double memory a, uint b) pure internal returns (Double memory) {\\r\\n        return Double({mantissa: div_(a.mantissa, b)});\\r\\n    }\\r\\n\\r\\n    function div_(uint a, Double memory b) pure internal returns (uint) {\\r\\n        return div_(mul_(a, doubleScale), b.mantissa);\\r\\n    }\\r\\n\\r\\n    function div_(uint a, uint b) pure internal returns (uint) {\\r\\n        return a / b;\\r\\n    }\\r\\n\\r\\n    function fraction(uint a, uint b) pure internal returns (Double memory) {\\r\\n        return Double({mantissa: div_(mul_(a, doubleScale), b)});\\r\\n    }\\r\\n}\\r\\n\"},\"Nyke-lending-protocol/contracts/InterestRateModel.sol\":{\"content\":\"// SPDX-License-Identifier: BSD-3-Clause\\r\\npragma solidity ^0.8.10;\\r\\n\\r\\n/**\\r\\n  * @title Compound's InterestRateModel Interface\\r\\n  * @author Compound\\r\\n  */\\r\\nabstract contract InterestRateModel {\\r\\n    /// @notice Indicator that this is an InterestRateModel contract (for inspection)\\r\\n    bool public constant isInterestRateModel = true;\\r\\n\\r\\n    /**\\r\\n      * @notice Calculates the current borrow interest rate per block\\r\\n      * @param cash The total amount of cash the market has\\r\\n      * @param borrows The total amount of borrows the market has outstanding\\r\\n      * @param reserves The total amount of reserves the market has\\r\\n      * @return The borrow rate per block (as a percentage, and scaled by 1e18)\\r\\n      */\\r\\n    function getBorrowRate(uint cash, uint borrows, uint reserves) virtual external view returns (uint);\\r\\n\\r\\n    /**\\r\\n      * @notice Calculates the current supply interest rate per block\\r\\n      * @param cash The total amount of cash the market has\\r\\n      * @param borrows The total amount of borrows the market has outstanding\\r\\n      * @param reserves The total amount of reserves the market has\\r\\n      * @param reserveFactorMantissa The current reserve factor the market has\\r\\n      * @return The supply rate per block (as a percentage, and scaled by 1e18)\\r\\n      */\\r\\n    function getSupplyRate(uint cash, uint borrows, uint reserves, uint reserveFactorMantissa) virtual external view returns (uint);\\r\\n}\\r\\n\"},\"Nyke-lending-protocol/contracts/EIP20Interface.sol\":{\"content\":\"// SPDX-License-Identifier: BSD-3-Clause\\r\\npragma solidity ^0.8.10;\\r\\n\\r\\n/**\\r\\n * @title ERC 20 Token Standard Interface\\r\\n *  https://eips.ethereum.org/EIPS/eip-20\\r\\n */\\r\\ninterface EIP20Interface {\\r\\n    function name() external view returns (string memory);\\r\\n    function symbol() external view returns (string memory);\\r\\n    function decimals() external view returns (uint8);\\r\\n\\r\\n    /**\\r\\n      * @notice Get the total number of tokens in circulation\\r\\n      * @return The supply of tokens\\r\\n      */\\r\\n    function totalSupply() external view returns (uint256);\\r\\n\\r\\n    /**\\r\\n     * @notice Gets the balance of the specified address\\r\\n     * @param owner The address from which the balance will be retrieved\\r\\n     * @return balance The balance\\r\\n     */\\r\\n    function balanceOf(address owner) external view returns (uint256 balance);\\r\\n\\r\\n    /**\\r\\n      * @notice Transfer `amount` tokens from `msg.sender` to `dst`\\r\\n      * @param dst The address of the destination account\\r\\n      * @param amount The number of tokens to transfer\\r\\n      * @return success Whether or not the transfer succeeded\\r\\n      */\\r\\n    function transfer(address dst, uint256 amount) external returns (bool success);\\r\\n\\r\\n    /**\\r\\n      * @notice Transfer `amount` tokens from `src` to `dst`\\r\\n      * @param src The address of the source account\\r\\n      * @param dst The address of the destination account\\r\\n      * @param amount The number of tokens to transfer\\r\\n      * @return success Whether or not the transfer succeeded\\r\\n      */\\r\\n    function transferFrom(address src, address dst, uint256 amount) external returns (bool success);\\r\\n\\r\\n    /**\\r\\n      * @notice Approve `spender` to transfer up to `amount` from `src`\\r\\n      * @dev This will overwrite the approval amount for `spender`\\r\\n      *  and is subject to issues noted [here](https://eips.ethereum.org/EIPS/eip-20#approve)\\r\\n      * @param spender The address of the account which may transfer tokens\\r\\n      * @param amount The number of tokens that are approved (-1 means infinite)\\r\\n      * @return success Whether or not the approval succeeded\\r\\n      */\\r\\n    function approve(address spender, uint256 amount) external returns (bool success);\\r\\n\\r\\n    /**\\r\\n      * @notice Get the current allowance from `owner` for `spender`\\r\\n      * @param owner The address of the account which owns the tokens to be spent\\r\\n      * @param spender The address of the account which may transfer tokens\\r\\n      * @return remaining The number of tokens allowed to be spent (-1 means infinite)\\r\\n      */\\r\\n    function allowance(address owner, address spender) external view returns (uint256 remaining);\\r\\n\\r\\n    event Transfer(address indexed from, address indexed to, uint256 amount);\\r\\n    event Approval(address indexed owner, address indexed spender, uint256 amount);\\r\\n}\\r\\n\"},\"Nyke-lending-protocol/contracts/ErrorReporter.sol\":{\"content\":\"// SPDX-License-Identifier: BSD-3-Clause\\r\\npragma solidity ^0.8.10;\\r\\n\\r\\ncontract ComptrollerErrorReporter {\\r\\n    enum Error {\\r\\n        NO_ERROR,\\r\\n        UNAUTHORIZED,\\r\\n        COMPTROLLER_MISMATCH,\\r\\n        INSUFFICIENT_SHORTFALL,\\r\\n        INSUFFICIENT_LIQUIDITY,\\r\\n        INVALID_CLOSE_FACTOR,\\r\\n        INVALID_COLLATERAL_FACTOR,\\r\\n        INVALID_LIQUIDATION_INCENTIVE,\\r\\n        MARKET_NOT_ENTERED, // no longer possible\\r\\n        MARKET_NOT_LISTED,\\r\\n        MARKET_ALREADY_LISTED,\\r\\n        MATH_ERROR,\\r\\n        NONZERO_BORROW_BALANCE,\\r\\n        PRICE_ERROR,\\r\\n        REJECTION,\\r\\n        SNAPSHOT_ERROR,\\r\\n        TOO_MANY_ASSETS,\\r\\n        TOO_MUCH_REPAY\\r\\n    }\\r\\n\\r\\n    enum FailureInfo {\\r\\n        ACCEPT_ADMIN_PENDING_ADMIN_CHECK,\\r\\n        ACCEPT_PENDING_IMPLEMENTATION_ADDRESS_CHECK,\\r\\n        EXIT_MARKET_BALANCE_OWED,\\r\\n        EXIT_MARKET_REJECTION,\\r\\n        SET_CLOSE_FACTOR_OWNER_CHECK,\\r\\n        SET_CLOSE_FACTOR_VALIDATION,\\r\\n        SET_COLLATERAL_FACTOR_OWNER_CHECK,\\r\\n        SET_COLLATERAL_FACTOR_NO_EXISTS,\\r\\n        SET_COLLATERAL_FACTOR_VALIDATION,\\r\\n        SET_COLLATERAL_FACTOR_WITHOUT_PRICE,\\r\\n        SET_IMPLEMENTATION_OWNER_CHECK,\\r\\n        SET_LIQUIDATION_INCENTIVE_OWNER_CHECK,\\r\\n        SET_LIQUIDATION_INCENTIVE_VALIDATION,\\r\\n        SET_MAX_ASSETS_OWNER_CHECK,\\r\\n        SET_PENDING_ADMIN_OWNER_CHECK,\\r\\n        SET_PENDING_IMPLEMENTATION_OWNER_CHECK,\\r\\n        SET_PRICE_ORACLE_OWNER_CHECK,\\r\\n        SUPPORT_MARKET_EXISTS,\\r\\n        SUPPORT_MARKET_OWNER_CHECK,\\r\\n        SET_PAUSE_GUARDIAN_OWNER_CHECK\\r\\n    }\\r\\n\\r\\n    /**\\r\\n      * @dev `error` corresponds to enum Error; `info` corresponds to enum FailureInfo, and `detail` is an arbitrary\\r\\n      * contract-specific code that enables us to report opaque error codes from upgradeable contracts.\\r\\n      **/\\r\\n    event Failure(uint error, uint info, uint detail);\\r\\n\\r\\n    /**\\r\\n      * @dev use this when reporting a known error from the money market or a non-upgradeable collaborator\\r\\n      */\\r\\n    function fail(Error err, FailureInfo info) internal returns (uint) {\\r\\n        emit Failure(uint(err), uint(info), 0);\\r\\n\\r\\n        return uint(err);\\r\\n    }\\r\\n\\r\\n    /**\\r\\n      * @dev use this when reporting an opaque error from an upgradeable collaborator contract\\r\\n      */\\r\\n    function failOpaque(Error err, FailureInfo info, uint opaqueError) internal returns (uint) {\\r\\n        emit Failure(uint(err), uint(info), opaqueError);\\r\\n\\r\\n        return uint(err);\\r\\n    }\\r\\n}\\r\\n\\r\\ncontract TokenErrorReporter {\\r\\n    uint public constant NO_ERROR = 0; // support legacy return codes\\r\\n\\r\\n    error TransferComptrollerRejection(uint256 errorCode);\\r\\n    error TransferNotAllowed();\\r\\n    error TransferNotEnough();\\r\\n    error TransferTooMuch();\\r\\n\\r\\n    error MintComptrollerRejection(uint256 errorCode);\\r\\n    error MintFreshnessCheck();\\r\\n\\r\\n    error RedeemComptrollerRejection(uint256 errorCode);\\r\\n    error RedeemFreshnessCheck();\\r\\n    error RedeemTransferOutNotPossible();\\r\\n\\r\\n    error BorrowComptrollerRejection(uint256 errorCode);\\r\\n    error BorrowFreshnessCheck();\\r\\n    error BorrowCashNotAvailable();\\r\\n\\r\\n    error RepayBorrowComptrollerRejection(uint256 errorCode);\\r\\n    error RepayBorrowFreshnessCheck();\\r\\n\\r\\n    error LiquidateComptrollerRejection(uint256 errorCode);\\r\\n    error LiquidateFreshnessCheck();\\r\\n    error LiquidateCollateralFreshnessCheck();\\r\\n    error LiquidateAccrueBorrowInterestFailed(uint256 errorCode);\\r\\n    error LiquidateAccrueCollateralInterestFailed(uint256 errorCode);\\r\\n    error LiquidateLiquidatorIsBorrower();\\r\\n    error LiquidateCloseAmountIsZero();\\r\\n    error LiquidateCloseAmountIsUintMax();\\r\\n    error LiquidateRepayBorrowFreshFailed(uint256 errorCode);\\r\\n\\r\\n    error LiquidateSeizeComptrollerRejection(uint256 errorCode);\\r\\n    error LiquidateSeizeLiquidatorIsBorrower();\\r\\n\\r\\n    error AcceptAdminPendingAdminCheck();\\r\\n\\r\\n    error SetComptrollerOwnerCheck();\\r\\n    error SetPendingAdminOwnerCheck();\\r\\n\\r\\n    error SetReserveFactorAdminCheck();\\r\\n    error SetReserveFactorFreshCheck();\\r\\n    error SetReserveFactorBoundsCheck();\\r\\n\\r\\n    error AddReservesFactorFreshCheck(uint256 actualAddAmount);\\r\\n\\r\\n    error ReduceReservesAdminCheck();\\r\\n    error ReduceReservesFreshCheck();\\r\\n    error ReduceReservesCashNotAvailable();\\r\\n    error ReduceReservesCashValidation();\\r\\n\\r\\n    error SetInterestRateModelOwnerCheck();\\r\\n    error SetInterestRateModelFreshCheck();\\r\\n}\\r\\n\"},\"Nyke-lending-protocol/contracts/CTokenInterfaces.sol\":{\"content\":\"// SPDX-License-Identifier: BSD-3-Clause\\r\\npragma solidity ^0.8.10;\\r\\n\\r\\nimport \\\"./ComptrollerInterface.sol\\\";\\r\\nimport \\\"./InterestRateModel.sol\\\";\\r\\nimport \\\"./EIP20NonStandardInterface.sol\\\";\\r\\nimport \\\"./ErrorReporter.sol\\\";\\r\\n\\r\\ncontract CTokenStorage {\\r\\n    /**\\r\\n     * @dev Guard variable for re-entrancy checks\\r\\n     */\\r\\n    bool internal _notEntered;\\r\\n\\r\\n    /**\\r\\n     * @notice EIP-20 token name for this token\\r\\n     */\\r\\n    string public name;\\r\\n\\r\\n    /**\\r\\n     * @notice EIP-20 token symbol for this token\\r\\n     */\\r\\n    string public symbol;\\r\\n\\r\\n    /**\\r\\n     * @notice EIP-20 token decimals for this token\\r\\n     */\\r\\n    uint8 public decimals;\\r\\n\\r\\n    // Maximum borrow rate that can ever be applied (.00004% / block)\\r\\n    uint internal constant borrowRateMaxMantissa = 0.00004e16;\\r\\n\\r\\n    // Maximum fraction of interest that can be set aside for reserves\\r\\n    uint internal constant reserveFactorMaxMantissa = 1e18;\\r\\n\\r\\n    /**\\r\\n     * @notice Administrator for this contract\\r\\n     */\\r\\n    address payable public admin;\\r\\n\\r\\n    /**\\r\\n     * @notice Pending administrator for this contract\\r\\n     */\\r\\n    address payable public pendingAdmin;\\r\\n\\r\\n    /**\\r\\n     * @notice Contract which oversees inter-cToken operations\\r\\n     */\\r\\n    ComptrollerInterface public comptroller;\\r\\n\\r\\n    /**\\r\\n     * @notice Model which tells what the current interest rate should be\\r\\n     */\\r\\n    InterestRateModel public interestRateModel;\\r\\n\\r\\n    // Initial exchange rate used when minting the first CTokens (used when totalSupply = 0)\\r\\n    uint internal initialExchangeRateMantissa;\\r\\n\\r\\n    /**\\r\\n     * @notice Fraction of interest currently set aside for reserves\\r\\n     */\\r\\n    uint public reserveFactorMantissa;\\r\\n\\r\\n    /**\\r\\n     * @notice Block number that interest was last accrued at\\r\\n     */\\r\\n    uint public accrualBlockNumber;\\r\\n\\r\\n    /**\\r\\n     * @notice Accumulator of the total earned interest rate since the opening of the market\\r\\n     */\\r\\n    uint public borrowIndex;\\r\\n\\r\\n    /**\\r\\n     * @notice Total amount of outstanding borrows of the underlying in this market\\r\\n     */\\r\\n    uint public totalBorrows;\\r\\n\\r\\n    /**\\r\\n     * @notice Total amount of reserves of the underlying held in this market\\r\\n     */\\r\\n    uint public totalReserves;\\r\\n\\r\\n    /**\\r\\n     * @notice Total number of tokens in circulation\\r\\n     */\\r\\n    uint public totalSupply;\\r\\n\\r\\n    // Official record of token balances for each account\\r\\n    mapping (address => uint) internal accountTokens;\\r\\n\\r\\n    // Approved token transfer amounts on behalf of others\\r\\n    mapping (address => mapping (address => uint)) internal transferAllowances;\\r\\n\\r\\n    /**\\r\\n     * @notice Container for borrow balance information\\r\\n     * @member principal Total balance (with accrued interest), after applying the most recent balance-changing action\\r\\n     * @member interestIndex Global borrowIndex as of the most recent balance-changing action\\r\\n     */\\r\\n    struct BorrowSnapshot {\\r\\n        uint principal;\\r\\n        uint interestIndex;\\r\\n    }\\r\\n\\r\\n    // Mapping of account addresses to outstanding borrow balances\\r\\n    mapping(address => BorrowSnapshot) internal accountBorrows;\\r\\n\\r\\n    /**\\r\\n     * @notice Share of seized collateral that is added to reserves\\r\\n     */\\r\\n    uint public constant protocolSeizeShareMantissa = 2.8e16; //2.8%\\r\\n}\\r\\n\\r\\nabstract contract CTokenInterface is CTokenStorage {\\r\\n    /**\\r\\n     * @notice Indicator that this is a CToken contract (for inspection)\\r\\n     */\\r\\n    bool public constant isCToken = true;\\r\\n\\r\\n\\r\\n    /*** Market Events ***/\\r\\n\\r\\n    /**\\r\\n     * @notice Event emitted when interest is accrued\\r\\n     */\\r\\n    event AccrueInterest(uint cashPrior, uint interestAccumulated, uint borrowIndex, uint totalBorrows);\\r\\n\\r\\n    /**\\r\\n     * @notice Event emitted when tokens are minted\\r\\n     */\\r\\n    event Mint(address minter, uint mintAmount, uint mintTokens);\\r\\n\\r\\n    /**\\r\\n     * @notice Event emitted when tokens are redeemed\\r\\n     */\\r\\n    event Redeem(address redeemer, uint redeemAmount, uint redeemTokens);\\r\\n\\r\\n    /**\\r\\n     * @notice Event emitted when underlying is borrowed\\r\\n     */\\r\\n    event Borrow(address borrower, uint borrowAmount, uint accountBorrows, uint totalBorrows);\\r\\n\\r\\n    /**\\r\\n     * @notice Event emitted when a borrow is repaid\\r\\n     */\\r\\n    event RepayBorrow(address payer, address borrower, uint repayAmount, uint accountBorrows, uint totalBorrows);\\r\\n\\r\\n    /**\\r\\n     * @notice Event emitted when a borrow is liquidated\\r\\n     */\\r\\n    event LiquidateBorrow(address liquidator, address borrower, uint repayAmount, address cTokenCollateral, uint seizeTokens);\\r\\n\\r\\n\\r\\n    /*** Admin Events ***/\\r\\n\\r\\n    /**\\r\\n     * @notice Event emitted when pendingAdmin is changed\\r\\n     */\\r\\n    event NewPendingAdmin(address oldPendingAdmin, address newPendingAdmin);\\r\\n\\r\\n    /**\\r\\n     * @notice Event emitted when pendingAdmin is accepted, which means admin is updated\\r\\n     */\\r\\n    event NewAdmin(address oldAdmin, address newAdmin);\\r\\n\\r\\n    /**\\r\\n     * @notice Event emitted when comptroller is changed\\r\\n     */\\r\\n    event NewComptroller(ComptrollerInterface oldComptroller, ComptrollerInterface newComptroller);\\r\\n\\r\\n    /**\\r\\n     * @notice Event emitted when interestRateModel is changed\\r\\n     */\\r\\n    event NewMarketInterestRateModel(InterestRateModel oldInterestRateModel, InterestRateModel newInterestRateModel);\\r\\n\\r\\n    /**\\r\\n     * @notice Event emitted when the reserve factor is changed\\r\\n     */\\r\\n    event NewReserveFactor(uint oldReserveFactorMantissa, uint newReserveFactorMantissa);\\r\\n\\r\\n    /**\\r\\n     * @notice Event emitted when the reserves are added\\r\\n     */\\r\\n    event ReservesAdded(address benefactor, uint addAmount, uint newTotalReserves);\\r\\n\\r\\n    /**\\r\\n     * @notice Event emitted when the reserves are reduced\\r\\n     */\\r\\n    event ReservesReduced(address admin, uint reduceAmount, uint newTotalReserves);\\r\\n\\r\\n    /**\\r\\n     * @notice EIP20 Transfer event\\r\\n     */\\r\\n    event Transfer(address indexed from, address indexed to, uint amount);\\r\\n\\r\\n    /**\\r\\n     * @notice EIP20 Approval event\\r\\n     */\\r\\n    event Approval(address indexed owner, address indexed spender, uint amount);\\r\\n\\r\\n\\r\\n    /*** User Interface ***/\\r\\n\\r\\n    function transfer(address dst, uint amount) virtual external returns (bool);\\r\\n    function transferFrom(address src, address dst, uint amount) virtual external returns (bool);\\r\\n    function approve(address spender, uint amount) virtual external returns (bool);\\r\\n    function allowance(address owner, address spender) virtual external view returns (uint);\\r\\n    function balanceOf(address owner) virtual external view returns (uint);\\r\\n    function balanceOfUnderlying(address owner) virtual external returns (uint);\\r\\n    function getAccountSnapshot(address account) virtual external view returns (uint, uint, uint, uint);\\r\\n    function borrowRatePerBlock() virtual external view returns (uint);\\r\\n    function supplyRatePerBlock() virtual external view returns (uint);\\r\\n    function totalBorrowsCurrent() virtual external returns (uint);\\r\\n    function borrowBalanceCurrent(address account) virtual external returns (uint);\\r\\n    function borrowBalanceStored(address account) virtual external view returns (uint);\\r\\n    function exchangeRateCurrent() virtual external returns (uint);\\r\\n    function exchangeRateStored() virtual external view returns (uint);\\r\\n    function getCash() virtual external view returns (uint);\\r\\n    function accrueInterest() virtual external returns (uint);\\r\\n    function seize(address liquidator, address borrower, uint seizeTokens) virtual external returns (uint);\\r\\n\\r\\n\\r\\n    /*** Admin Functions ***/\\r\\n\\r\\n    function _setPendingAdmin(address payable newPendingAdmin) virtual external returns (uint);\\r\\n    function _acceptAdmin() virtual external returns (uint);\\r\\n    function _setComptroller(ComptrollerInterface newComptroller) virtual external returns (uint);\\r\\n    function _setReserveFactor(uint newReserveFactorMantissa) virtual external returns (uint);\\r\\n    function _reduceReserves(uint reduceAmount) virtual external returns (uint);\\r\\n    function _setInterestRateModel(InterestRateModel newInterestRateModel) virtual external returns (uint);\\r\\n}\\r\\n\\r\\ncontract CErc20Storage {\\r\\n    /**\\r\\n     * @notice Underlying asset for this CToken\\r\\n     */\\r\\n    address public underlying;\\r\\n}\\r\\n\\r\\nabstract contract CErc20Interface is CErc20Storage {\\r\\n\\r\\n    /*** User Interface ***/\\r\\n\\r\\n    function mint(uint mintAmount) virtual external returns (uint);\\r\\n    function redeem(uint redeemTokens) virtual external returns (uint);\\r\\n    function redeemUnderlying(uint redeemAmount) virtual external returns (uint);\\r\\n    function borrow(uint borrowAmount) virtual external returns (uint);\\r\\n    function repayBorrow(uint repayAmount) virtual external returns (uint);\\r\\n    function repayBorrowBehalf(address borrower, uint repayAmount) virtual external returns (uint);\\r\\n    function liquidateBorrow(address borrower, uint repayAmount, CTokenInterface cTokenCollateral) virtual external returns (uint);\\r\\n    function sweepToken(EIP20NonStandardInterface token) virtual external;\\r\\n\\r\\n\\r\\n    /*** Admin Functions ***/\\r\\n\\r\\n    function _addReserves(uint addAmount) virtual external returns (uint);\\r\\n}\\r\\n\\r\\ncontract CDelegationStorage {\\r\\n    /**\\r\\n     * @notice Implementation address for this contract\\r\\n     */\\r\\n    address public implementation;\\r\\n}\\r\\n\\r\\nabstract contract CDelegatorInterface is CDelegationStorage {\\r\\n    /**\\r\\n     * @notice Emitted when implementation is changed\\r\\n     */\\r\\n    event NewImplementation(address oldImplementation, address newImplementation);\\r\\n\\r\\n    /**\\r\\n     * @notice Called by the admin to update the implementation of the delegator\\r\\n     * @param implementation_ The address of the new implementation for delegation\\r\\n     * @param allowResign Flag to indicate whether to call _resignImplementation on the old implementation\\r\\n     * @param becomeImplementationData The encoded bytes data to be passed to _becomeImplementation\\r\\n     */\\r\\n    function _setImplementation(address implementation_, bool allowResign, bytes memory becomeImplementationData) virtual external;\\r\\n}\\r\\n\\r\\nabstract contract CDelegateInterface is CDelegationStorage {\\r\\n    /**\\r\\n     * @notice Called by the delegator on a delegate to initialize it for duty\\r\\n     * @dev Should revert if any issues arise which make it unfit for delegation\\r\\n     * @param data The encoded bytes data for any initialization\\r\\n     */\\r\\n    function _becomeImplementation(bytes memory data) virtual external;\\r\\n\\r\\n    /**\\r\\n     * @notice Called by the delegator on a delegate to forfeit its responsibility\\r\\n     */\\r\\n    function _resignImplementation() virtual external;\\r\\n}\\r\\n\"},\"Nyke-lending-protocol/contracts/ComptrollerInterface.sol\":{\"content\":\"// SPDX-License-Identifier: BSD-3-Clause\\r\\npragma solidity ^0.8.10;\\r\\n\\r\\nabstract contract ComptrollerInterface {\\r\\n    /// @notice Indicator that this is a Comptroller contract (for inspection)\\r\\n    bool public constant isComptroller = true;\\r\\n\\r\\n    /*** Assets You Are In ***/\\r\\n\\r\\n    function enterMarkets(address[] calldata cTokens) virtual external returns (uint[] memory);\\r\\n    function exitMarket(address cToken) virtual external returns (uint);\\r\\n\\r\\n    /*** Policy Hooks ***/\\r\\n\\r\\n    function mintAllowed(address cToken, address minter, uint mintAmount) virtual external returns (uint);\\r\\n    function mintVerify(address cToken, address minter, uint mintAmount, uint mintTokens) virtual external;\\r\\n\\r\\n    function redeemAllowed(address cToken, address redeemer, uint redeemTokens) virtual external returns (uint);\\r\\n    function redeemVerify(address cToken, address redeemer, uint redeemAmount, uint redeemTokens) virtual external;\\r\\n\\r\\n    function borrowAllowed(address cToken, address borrower, uint borrowAmount) virtual external returns (uint);\\r\\n    function borrowVerify(address cToken, address borrower, uint borrowAmount) virtual external;\\r\\n\\r\\n    function repayBorrowAllowed(\\r\\n        address cToken,\\r\\n        address payer,\\r\\n        address borrower,\\r\\n        uint repayAmount) virtual external returns (uint);\\r\\n    function repayBorrowVerify(\\r\\n        address cToken,\\r\\n        address payer,\\r\\n        address borrower,\\r\\n        uint repayAmount,\\r\\n        uint borrowerIndex) virtual external;\\r\\n\\r\\n    function liquidateBorrowAllowed(\\r\\n        address cTokenBorrowed,\\r\\n        address cTokenCollateral,\\r\\n        address liquidator,\\r\\n        address borrower,\\r\\n        uint repayAmount) virtual external returns (uint);\\r\\n    function liquidateBorrowVerify(\\r\\n        address cTokenBorrowed,\\r\\n        address cTokenCollateral,\\r\\n        address liquidator,\\r\\n        address borrower,\\r\\n        uint repayAmount,\\r\\n        uint seizeTokens) virtual external;\\r\\n\\r\\n    function seizeAllowed(\\r\\n        address cTokenCollateral,\\r\\n        address cTokenBorrowed,\\r\\n        address liquidator,\\r\\n        address borrower,\\r\\n        uint seizeTokens) virtual external returns (uint);\\r\\n    function seizeVerify(\\r\\n        address cTokenCollateral,\\r\\n        address cTokenBorrowed,\\r\\n        address liquidator,\\r\\n        address borrower,\\r\\n        uint seizeTokens) virtual external;\\r\\n\\r\\n    function transferAllowed(address cToken, address src, address dst, uint transferTokens) virtual external returns (uint);\\r\\n    function transferVerify(address cToken, address src, address dst, uint transferTokens) virtual external;\\r\\n\\r\\n    /*** Liquidity/Liquidation Calculations ***/\\r\\n\\r\\n    function liquidateCalculateSeizeTokens(\\r\\n        address cTokenBorrowed,\\r\\n        address cTokenCollateral,\\r\\n        uint repayAmount) virtual external view returns (uint, uint);\\r\\n}\\r\\n\"},\"Nyke-lending-protocol/contracts/EIP20NonStandardInterface.sol\":{\"content\":\"// SPDX-License-Identifier: BSD-3-Clause\\r\\npragma solidity ^0.8.10;\\r\\n\\r\\n/**\\r\\n * @title EIP20NonStandardInterface\\r\\n * @dev Version of ERC20 with no return values for `transfer` and `transferFrom`\\r\\n *  See https://medium.com/coinmonks/missing-return-value-bug-at-least-130-tokens-affected-d67bf08521ca\\r\\n */\\r\\ninterface EIP20NonStandardInterface {\\r\\n\\r\\n    /**\\r\\n     * @notice Get the total number of tokens in circulation\\r\\n     * @return The supply of tokens\\r\\n     */\\r\\n    function totalSupply() external view returns (uint256);\\r\\n\\r\\n    /**\\r\\n     * @notice Gets the balance of the specified address\\r\\n     * @param owner The address from which the balance will be retrieved\\r\\n     * @return balance The balance\\r\\n     */\\r\\n    function balanceOf(address owner) external view returns (uint256 balance);\\r\\n\\r\\n    ///\\r\\n    /// !!!!!!!!!!!!!!\\r\\n    /// !!! NOTICE !!! `transfer` does not return a value, in violation of the ERC-20 specification\\r\\n    /// !!!!!!!!!!!!!!\\r\\n    ///\\r\\n\\r\\n    /**\\r\\n      * @notice Transfer `amount` tokens from `msg.sender` to `dst`\\r\\n      * @param dst The address of the destination account\\r\\n      * @param amount The number of tokens to transfer\\r\\n      */\\r\\n    function transfer(address dst, uint256 amount) external;\\r\\n\\r\\n    ///\\r\\n    /// !!!!!!!!!!!!!!\\r\\n    /// !!! NOTICE !!! `transferFrom` does not return a value, in violation of the ERC-20 specification\\r\\n    /// !!!!!!!!!!!!!!\\r\\n    ///\\r\\n\\r\\n    /**\\r\\n      * @notice Transfer `amount` tokens from `src` to `dst`\\r\\n      * @param src The address of the source account\\r\\n      * @param dst The address of the destination account\\r\\n      * @param amount The number of tokens to transfer\\r\\n      */\\r\\n    function transferFrom(address src, address dst, uint256 amount) external;\\r\\n\\r\\n    /**\\r\\n      * @notice Approve `spender` to transfer up to `amount` from `src`\\r\\n      * @dev This will overwrite the approval amount for `spender`\\r\\n      *  and is subject to issues noted [here](https://eips.ethereum.org/EIPS/eip-20#approve)\\r\\n      * @param spender The address of the account which may transfer tokens\\r\\n      * @param amount The number of tokens that are approved\\r\\n      * @return success Whether or not the approval succeeded\\r\\n      */\\r\\n    function approve(address spender, uint256 amount) external returns (bool success);\\r\\n\\r\\n    /**\\r\\n      * @notice Get the current allowance from `owner` for `spender`\\r\\n      * @param owner The address of the account which owns the tokens to be spent\\r\\n      * @param spender The address of the account which may transfer tokens\\r\\n      * @return remaining The number of tokens allowed to be spent\\r\\n      */\\r\\n    function allowance(address owner, address spender) external view returns (uint256 remaining);\\r\\n\\r\\n    event Transfer(address indexed from, address indexed to, uint256 amount);\\r\\n    event Approval(address indexed owner, address indexed spender, uint256 amount);\\r\\n}\\r\\n\"}},\"settings\":{\"optimizer\":{\"enabled\":true,\"runs\":200},\"outputSelection\":{\"*\":{\"\":[\"ast\"],\"*\":[\"abi\",\"metadata\",\"devdoc\",\"userdoc\",\"storageLayout\",\"evm.legacyAssembly\",\"evm.bytecode\",\"evm.deployedBytecode\",\"evm.methodIdentifiers\",\"evm.gasEstimates\",\"evm.assembly\"]}},\"remappings\":[]}}",
	"name": "CErc20Immutable",
	"bytecode": {
		"linkReferences": {},
		"object": "60806040523480156200001157600080fd5b50604051620043bd380380620043bd83398101604081905262000034916200081a565b60038054610100600160a81b03191633610100021790556200005c8888888888888862000090565b600380546001600160a01b0390921661010002610100600160a81b0319909216919091179055506200097d95505050505050565b620000ab8686868686866200013560201b62000e591760201c565b601180546001600160a01b0319166001600160a01b038916908117909155604080516318160ddd60e01b815290516318160ddd916004808201926020929091908290030181865afa15801562000105573d6000803e3d6000fd5b505050506040513d601f19601f820116820180604052508101906200012b9190620008fb565b5050505050505050565b60035461010090046001600160a01b03163314620001a65760405162461bcd60e51b8152602060048201526024808201527f6f6e6c792061646d696e206d617920696e697469616c697a6520746865206d616044820152631c9ad95d60e21b60648201526084015b60405180910390fd5b600954158015620001b75750600a54155b620002115760405162461bcd60e51b815260206004820152602360248201527f6d61726b6574206d6179206f6e6c7920626520696e697469616c697a6564206f6044820152626e636560e81b60648201526084016200019d565b6007849055836200027e5760405162461bcd60e51b815260206004820152603060248201527f696e697469616c2065786368616e67652072617465206d75737420626520677260448201526f32b0ba32b9103a3430b7103d32b9379760811b60648201526084016200019d565b60006200028b87620003a7565b90508015620002dd5760405162461bcd60e51b815260206004820152601a60248201527f73657474696e6720636f6d7074726f6c6c6572206661696c656400000000000060448201526064016200019d565b42600955670de0b6b3a7640000600a55620002f886620004ff565b90508015620003555760405162461bcd60e51b815260206004820152602260248201527f73657474696e6720696e7465726573742072617465206d6f64656c206661696c604482015261195960f21b60648201526084016200019d565b83516200036a9060019060208701906200067c565b508251620003809060029060208601906200067c565b50506003805460ff90921660ff199283161790556000805490911660011790555050505050565b60035460009061010090046001600160a01b03163314620003db5760405163d219dc1f60e01b815260040160405180910390fd5b60055460408051623f1ee960e11b815290516001600160a01b0392831692851691627e3dd29160048083019260209291908290030181865afa15801562000426573d6000803e3d6000fd5b505050506040513d601f19601f820116820180604052508101906200044c919062000915565b6200049a5760405162461bcd60e51b815260206004820152601c60248201527f6d61726b6572206d6574686f642072657475726e65642066616c73650000000060448201526064016200019d565b600580546001600160a01b0319166001600160a01b0385811691821790925560408051928416835260208301919091527f7ac369dbd14fa5ea3f473ed67cc9d598964a77501540ba6751eb0b3decf5870d91015b60405180910390a150600092915050565b600354600090819061010090046001600160a01b03163314620005355760405163407fded560e01b815260040160405180910390fd5b42600954146200055857604051630be2a5cb60e11b815260040160405180910390fd5b600660009054906101000a90046001600160a01b03169050826001600160a01b0316632191f92a6040518163ffffffff1660e01b8152600401602060405180830381865afa158015620005af573d6000803e3d6000fd5b505050506040513d601f19601f82011682018060405250810190620005d5919062000915565b620006235760405162461bcd60e51b815260206004820152601c60248201527f6d61726b6572206d6574686f642072657475726e65642066616c73650000000060448201526064016200019d565b600680546001600160a01b0319166001600160a01b0385811691821790925560408051928416835260208301919091527fedffc32e068c7c95dfd4bdfd5c4d939a084d6b11c4199eac8436ed234d72f9269101620004ee565b8280546200068a9062000940565b90600052602060002090601f016020900481019282620006ae5760008555620006f9565b82601f10620006c957805160ff1916838001178555620006f9565b82800160010185558215620006f9579182015b82811115620006f9578251825591602001919060010190620006dc565b50620007079291506200070b565b5090565b5b808211156200070757600081556001016200070c565b6001600160a01b03811681146200073857600080fd5b50565b634e487b7160e01b600052604160045260246000fd5b600082601f8301126200076357600080fd5b81516001600160401b03808211156200078057620007806200073b565b604051601f8301601f19908116603f01168101908282118183101715620007ab57620007ab6200073b565b81604052838152602092508683858801011115620007c857600080fd5b600091505b83821015620007ec5785820183015181830184015290820190620007cd565b83821115620007fe5760008385830101525b9695505050505050565b8051620008158162000722565b919050565b600080600080600080600080610100898b0312156200083857600080fd5b8851620008458162000722565b60208a0151909850620008588162000722565b60408a01519097506200086b8162000722565b60608a015160808b015191975095506001600160401b03808211156200089057600080fd5b6200089e8c838d0162000751565b955060a08b0151915080821115620008b557600080fd5b50620008c48b828c0162000751565b93505060c089015160ff81168114620008dc57600080fd5b9150620008ec60e08a0162000808565b90509295985092959890939650565b6000602082840312156200090e57600080fd5b5051919050565b6000602082840312156200092857600080fd5b815180151581146200093957600080fd5b9392505050565b600181811c908216806200095557607f821691505b602082108114156200097757634e487b7160e01b600052602260045260246000fd5b50919050565b613a30806200098d6000396000f3fe608060405234801561001057600080fd5b506004361061030c5760003560e01c80637f1e06be1161019d578063bd6d894d116100e9578063f2b3abbd116100a2578063f851a4401161007c578063f851a440146106a8578063f8f9da28146106c0578063fca7820b146106c8578063fe9c44ae146106db57600080fd5b8063f2b3abbd1461066f578063f3fdb15a14610682578063f5e3c4621461069557600080fd5b8063bd6d894d146105cd578063c37f68e2146105d5578063c5ebeaec14610608578063db006a751461061b578063dd62ed3e1461062e578063e9c714f21461066757600080fd5b8063a0712d6811610156578063aa5af0fd11610130578063aa5af0fd14610596578063ae9d70b01461059f578063b2a02ff1146105a7578063b71d1a0c146105ba57600080fd5b8063a0712d6814610568578063a6afed951461057b578063a9059cbb1461058357600080fd5b80637f1e06be1461050b578063852a12e31461051e5780638f840ddd1461053157806395d89b411461053a57806395dd91931461054257806399d8c1b41461055557600080fd5b80633af9e6691161025c578063601a0bf1116102155780636c540baf116101ef5780636c540baf146104be5780636f307dc3146104c757806370a08231146104da57806373acee981461050357600080fd5b8063601a0bf1146104955780636752e702146104a857806369ab3250146104b657600080fd5b80633af9e669146104385780633b1d21a21461044b5780633e941010146104535780634576b5db1461046657806347bd3718146104795780635fe3b5671461048257600080fd5b8063182df0f5116102c957806323b872dd116102a357806323b872dd146103c85780632608f818146103db57806326782247146103ee578063313ce5671461041957600080fd5b8063182df0f5146103985780631a31d465146103a05780631be19560146103b557600080fd5b806306fdde0314610311578063095ea7b31461032f5780630e75270214610352578063173b99041461037357806317bfdfbc1461037c57806318160ddd1461038f575b600080fd5b6103196106e3565b60405161032691906134b5565b60405180910390f35b61034261033d366004613522565b610771565b6040519015158152602001610326565b61036561036036600461354e565b6107df565b604051908152602001610326565b61036560085481565b61036561038a366004613567565b6107f2565b610365600d5481565b61036561084e565b6103b36103ae36600461363d565b61085d565b005b6103b36103c3366004613567565b6108f2565b6103426103d63660046136f3565b610abe565b6103656103e9366004613522565b610b0e565b600454610401906001600160a01b031681565b6040516001600160a01b039091168152602001610326565b6003546104269060ff1681565b60405160ff9091168152602001610326565b610365610446366004613567565b610b23565b610365610b69565b61036561046136600461354e565b610b73565b610365610474366004613567565b610b84565b610365600b5481565b600554610401906001600160a01b031681565b6103656104a336600461354e565b610cd6565b610365666379da05b6000081565b610365600081565b61036560095481565b601154610401906001600160a01b031681565b6103656104e8366004613567565b6001600160a01b03166000908152600e602052604090205490565b610365610d15565b6103b3610519366004613567565b610d5f565b61036561052c36600461354e565b610e36565b610365600c5481565b610319610e41565b610365610550366004613567565b610e4e565b6103b3610563366004613734565b610e59565b61036561057636600461354e565b6110b4565b6103656110bf565b610342610591366004613522565b6112ac565b610365600a5481565b6103656112fb565b6103656105b53660046136f3565b611393565b6103656105c8366004613567565b6113e2565b61036561146f565b6105e86105e3366004613567565b6114bf565b604080519485526020850193909352918301526060820152608001610326565b61036561061636600461354e565b611500565b61036561062936600461354e565b61150b565b61036561063c3660046137d6565b6001600160a01b039182166000908152600f6020908152604080832093909416825291909152205490565b610365611516565b61036561067d366004613567565b61161d565b600654610401906001600160a01b031681565b6103656106a336600461380f565b611631565b6003546104019061010090046001600160a01b031681565b610365611648565b6103656106d636600461354e565b61169b565b610342600181565b600180546106f090613851565b80601f016020809104026020016040519081016040528092919081815260200182805461071c90613851565b80156107695780601f1061073e57610100808354040283529160200191610769565b820191906000526020600020905b81548152906001019060200180831161074c57829003601f168201915b505050505081565b336000818152600f602090815260408083206001600160a01b03871680855292528083208590555191929182907f8c5be1e5ebec7d5bd14f71427d1e84f3dd0314c0f7b2291e5b200ac8c7c3b925906107cd9087815260200190565b60405180910390a35060019392505050565b60006107ea826116da565b506000919050565b6000805460ff1661081e5760405162461bcd60e51b81526004016108159061388c565b60405180910390fd5b6000805460ff191690556108306110bf565b5061083a82610e4e565b90506000805460ff19166001179055919050565b600061085861172b565b905090565b61086b868686868686610e59565b601180546001600160a01b0319166001600160a01b038916908117909155604080516318160ddd60e01b815290516318160ddd916004808201926020929091908290030181865afa1580156108c4573d6000803e3d6000fd5b505050506040513d601f19601f820116820180604052508101906108e891906138b0565b5050505050505050565b60035461010090046001600160a01b031633146109695760405162461bcd60e51b815260206004820152602f60248201527f4345726332303a3a7377656570546f6b656e3a206f6e6c792061646d696e206360448201526e616e20737765657020746f6b656e7360881b6064820152608401610815565b6011546001600160a01b03828116911614156109e25760405162461bcd60e51b815260206004820152603260248201527f4345726332303a3a7377656570546f6b656e3a2063616e206e6f74207377656560448201527138103ab73232b9363cb4b733903a37b5b2b760711b6064820152608401610815565b6040516370a0823160e01b81523060048201526000906001600160a01b038316906370a0823190602401602060405180830381865afa158015610a29573d6000803e3d6000fd5b505050506040513d601f19601f82011682018060405250810190610a4d91906138b0565b60035460405163a9059cbb60e01b81526001600160a01b03610100909204821660048201526024810183905291925083169063a9059cbb90604401600060405180830381600087803b158015610aa257600080fd5b505af1158015610ab6573d6000803e3d6000fd5b505050505050565b6000805460ff16610ae15760405162461bcd60e51b81526004016108159061388c565b6000805460ff19168155610af733868686611795565b1490506000805460ff191660011790559392505050565b6000610b1a83836119c3565b50600092915050565b6000806040518060200160405280610b3961146f565b90526001600160a01b0384166000908152600e6020526040902054909150610b62908290611a15565b9392505050565b6000610858611a35565b6000610b7e82611aaa565b92915050565b60035460009061010090046001600160a01b03163314610bb75760405163d219dc1f60e01b815260040160405180910390fd5b60055460408051623f1ee960e11b815290516001600160a01b0392831692851691627e3dd29160048083019260209291908290030181865afa158015610c01573d6000803e3d6000fd5b505050506040513d601f19601f82011682018060405250810190610c2591906138c9565b610c715760405162461bcd60e51b815260206004820152601c60248201527f6d61726b6572206d6574686f642072657475726e65642066616c7365000000006044820152606401610815565b600580546001600160a01b0319166001600160a01b0385811691821790925560408051928416835260208301919091527f7ac369dbd14fa5ea3f473ed67cc9d598964a77501540ba6751eb0b3decf5870d91015b60405180910390a150600092915050565b6000805460ff16610cf95760405162461bcd60e51b81526004016108159061388c565b6000805460ff19169055610d0b6110bf565b5061083a82611b01565b6000805460ff16610d385760405162461bcd60e51b81526004016108159061388c565b6000805460ff19169055610d4a6110bf565b5050600b546000805460ff1916600117905590565b60035461010090046001600160a01b03163314610dd45760405162461bcd60e51b815260206004820152602d60248201527f6f6e6c79207468652061646d696e206d6179207365742074686520636f6d702d60448201526c6c696b652064656c656761746560981b6064820152608401610815565b6011546040516317066a5760e21b81526001600160a01b03838116600483015290911690635c19a95c90602401600060405180830381600087803b158015610e1b57600080fd5b505af1158015610e2f573d6000803e3d6000fd5b5050505050565b60006107ea82611c1c565b600280546106f090613851565b6000610b7e82611c6d565b60035461010090046001600160a01b03163314610ec45760405162461bcd60e51b8152602060048201526024808201527f6f6e6c792061646d696e206d617920696e697469616c697a6520746865206d616044820152631c9ad95d60e21b6064820152608401610815565b600954158015610ed45750600a54155b610f2c5760405162461bcd60e51b815260206004820152602360248201527f6d61726b6574206d6179206f6e6c7920626520696e697469616c697a6564206f6044820152626e636560e81b6064820152608401610815565b600784905583610f975760405162461bcd60e51b815260206004820152603060248201527f696e697469616c2065786368616e67652072617465206d75737420626520677260448201526f32b0ba32b9103a3430b7103d32b9379760811b6064820152608401610815565b6000610fa287610b84565b90508015610ff25760405162461bcd60e51b815260206004820152601a60248201527f73657474696e6720636f6d7074726f6c6c6572206661696c65640000000000006044820152606401610815565b42600955670de0b6b3a7640000600a5561100b86611cb7565b905080156110665760405162461bcd60e51b815260206004820152602260248201527f73657474696e6720696e7465726573742072617465206d6f64656c206661696c604482015261195960f21b6064820152608401610815565b8351611079906001906020870190613425565b50825161108d906002906020860190613425565b50506003805460ff90921660ff199283161790556000805490911660011790555050505050565b60006107ea82611e2c565b6009546000904290808214156110d85760009250505090565b60006110e2611a35565b600b54600c54600a546006546040516315f2405360e01b81526004810186905260248101859052604481018490529495509293919290916000916001600160a01b0316906315f2405390606401602060405180830381865afa15801561114c573d6000803e3d6000fd5b505050506040513d601f19601f8201168201806040525081019061117091906138b0565b9050645d21dba0008111156111c75760405162461bcd60e51b815260206004820152601c60248201527f626f72726f772072617465206973206162737572646c792068696768000000006044820152606401610815565b60006111d38789613901565b905060006111ef60405180602001604052808581525083611e6b565b905060006111fd8288611a15565b9050600061120b8883613918565b9050600061122a6040518060200160405280600854815250848a611e9c565b9050600061123985898a611e9c565b60098e9055600a819055600b849055600c839055604080518d815260208101879052908101829052606081018590529091507f4dec04e750ca11537cabcd8a9eab06494de08da3735bc8871cd41250e190bc049060800160405180910390a160009d505050505050505050505050505090565b6000805460ff166112cf5760405162461bcd60e51b81526004016108159061388c565b6000805460ff191681556112e533808686611795565b1490506000805460ff1916600117905592915050565b6006546000906001600160a01b031663b8168816611317611a35565b600b54600c546008546040516001600160e01b031960e087901b16815260048101949094526024840192909252604483015260648201526084015b602060405180830381865afa15801561136f573d6000803e3d6000fd5b505050506040513d601f19601f8201168201806040525081019061085891906138b0565b6000805460ff166113b65760405162461bcd60e51b81526004016108159061388c565b6000805460ff191690556113cc33858585611ebd565b50600080805460ff191660011790559392505050565b60035460009061010090046001600160a01b0316331461141557604051635cb56c2b60e01b815260040160405180910390fd5b600480546001600160a01b038481166001600160a01b031983168117909355604080519190921680825260208201939093527fca4f2f25d0898edd99413412fb94012f9e54ec8142f9b093e7720646a95b16a99101610cc5565b6000805460ff166114925760405162461bcd60e51b81526004016108159061388c565b6000805460ff191690556114a46110bf565b506114ad61084e565b90506000805460ff1916600117905590565b6001600160a01b0381166000908152600e602052604081205481908190819081906114e987611c6d565b6114f161172b565b93509350935093509193509193565b60006107ea82612136565b60006107ea82612175565b6004546000906001600160a01b031633141580611531575033155b1561154f57604051631ba24f2960e21b815260040160405180910390fd5b60038054600480546001600160a01b03808216610100818102610100600160a81b0319871617968790556001600160a01b031990931690935560408051948390048216808652929095041660208401529290917ff9ffabca9c8276e99321725bcb43fb076a6c66a54b7f21c4e8146d8519b417dc910160405180910390a1600454604080516001600160a01b03808516825290921660208301527fca4f2f25d0898edd99413412fb94012f9e54ec8142f9b093e7720646a95b16a9910160405180910390a160009250505090565b60006116276110bf565b50610b7e82611cb7565b600061163e8484846121b6565b5060009392505050565b6006546000906001600160a01b03166315f24053611664611a35565b600b54600c546040516001600160e01b031960e086901b168152600481019390935260248301919091526044820152606401611352565b6000805460ff166116be5760405162461bcd60e51b81526004016108159061388c565b6000805460ff191690556116d06110bf565b5061083a82612294565b60005460ff166116fc5760405162461bcd60e51b81526004016108159061388c565b6000805460ff1916905561170e6110bf565b5061171a333383612350565b50506000805460ff19166001179055565b600d546000908061173e57505060075490565b6000611748611a35565b90506000600c54600b548361175d9190613918565b6117679190613901565b905060008361177e670de0b6b3a764000084613930565b611788919061394f565b95945050505050565b5090565b6005546040516317b9b84b60e31b81523060048201526001600160a01b038581166024830152848116604483015260648201849052600092839291169063bdcdc258906084016020604051808303816000875af11580156117fa573d6000803e3d6000fd5b505050506040513d601f19601f8201168201806040525081019061181e91906138b0565b905080156118425760405163089d427760e11b815260048101829052602401610815565b836001600160a01b0316856001600160a01b0316141561187557604051638cd22d1960e01b815260040160405180910390fd5b6000856001600160a01b0316876001600160a01b0316141561189a57506000196118c2565b506001600160a01b038086166000908152600f60209081526040808320938a16835292905220545b60006118ce8583613901565b6001600160a01b0388166000908152600e6020526040812054919250906118f6908790613901565b6001600160a01b0388166000908152600e60205260408120549192509061191e908890613918565b6001600160a01b03808b166000908152600e6020526040808220869055918b1681522081905590506000198414611978576001600160a01b03808a166000908152600f60209081526040808320938e168352929052208390555b876001600160a01b0316896001600160a01b03166000805160206139db833981519152896040516119ab91815260200190565b60405180910390a35060009998505050505050505050565b60005460ff166119e55760405162461bcd60e51b81526004016108159061388c565b6000805460ff191690556119f76110bf565b50611a03338383612350565b50506000805460ff1916600117905550565b600080611a228484611e6b565b9050611a2d816124f9565b949350505050565b6011546040516370a0823160e01b81523060048201526000916001600160a01b03169081906370a0823190602401602060405180830381865afa158015611a80573d6000803e3d6000fd5b505050506040513d601f19601f82011682018060405250810190611aa491906138b0565b91505090565b6000805460ff16611acd5760405162461bcd60e51b81526004016108159061388c565b6000805460ff19169055611adf6110bf565b50611ae982612511565b5050600090506000805460ff19166001179055919050565b600354600090819061010090046001600160a01b03163314611b3657604051630f7e5e6d60e41b815260040160405180910390fd5b4260095414611b5857604051630dff50cb60e41b815260040160405180910390fd5b82611b61611a35565b1015611b8057604051633345e99960e01b815260040160405180910390fd5b600c54831115611ba3576040516378d2980560e11b815260040160405180910390fd5b82600c54611bb19190613901565b600c819055600354909150611bd49061010090046001600160a01b0316846125a5565b7f3bad0c59cf2f06e7314077049f48a93578cd16f5ef92329f1dab1420a99c177e600360019054906101000a90046001600160a01b03168483604051610cc593929190613971565b60005460ff16611c3e5760405162461bcd60e51b81526004016108159061388c565b6000805460ff19169055611c506110bf565b50611c5d3360008361268f565b506000805460ff19166001179055565b6001600160a01b03811660009081526010602052604081208054611c945750600092915050565b600a548154600091611ca591613930565b9050816001015481611a2d919061394f565b600354600090819061010090046001600160a01b03163314611cec5760405163407fded560e01b815260040160405180910390fd5b4260095414611d0e57604051630be2a5cb60e11b815260040160405180910390fd5b600660009054906101000a90046001600160a01b03169050826001600160a01b0316632191f92a6040518163ffffffff1660e01b8152600401602060405180830381865afa158015611d64573d6000803e3d6000fd5b505050506040513d601f19601f82011682018060405250810190611d8891906138c9565b611dd45760405162461bcd60e51b815260206004820152601c60248201527f6d61726b6572206d6574686f642072657475726e65642066616c7365000000006044820152606401610815565b600680546001600160a01b0319166001600160a01b0385811691821790925560408051928416835260208301919091527fedffc32e068c7c95dfd4bdfd5c4d939a084d6b11c4199eac8436ed234d72f9269101610cc5565b60005460ff16611e4e5760405162461bcd60e51b81526004016108159061388c565b6000805460ff19169055611e606110bf565b50611c5d338261296c565b6040805160208101909152600081526040518060200160405280611e93856000015185612b95565b90529392505050565b600080611ea98585611e6b565b9050611788611eb7826124f9565b84612ba1565b60055460405163d02f735160e01b81523060048201526001600160a01b0386811660248301528581166044830152848116606483015260848201849052600092169063d02f73519060a4016020604051808303816000875af1158015611f27573d6000803e3d6000fd5b505050506040513d601f19601f82011682018060405250810190611f4b91906138b0565b90508015611f6f576040516363e00e3360e11b815260048101829052602401610815565b836001600160a01b0316836001600160a01b03161415611fa257604051633a94626760e11b815260040160405180910390fd5b6000611fc3836040518060200160405280666379da05b60000815250612bad565b90506000611fd18285613901565b905060006040518060200160405280611fe861172b565b905290506000611ff88285611a15565b9050600081600c5461200a9190613918565b600c819055600d54909150612020908690613901565b600d556001600160a01b0388166000908152600e6020526040902054612047908890613901565b6001600160a01b03808a166000908152600e602052604080822093909355908b1681522054612077908590613918565b6001600160a01b03808b166000818152600e602052604090819020939093559151908a16906000805160206139db833981519152906120b99088815260200190565b60405180910390a360405185815230906001600160a01b038a16906000805160206139db8339815191529060200160405180910390a37fa91e67c5ea634cd43a12c5a482724b03de01e85ca68702a53d0c2f45cb7c1dc530838360405161212293929190613971565b60405180910390a150505050505050505050565b60005460ff166121585760405162461bcd60e51b81526004016108159061388c565b6000805460ff1916905561216a6110bf565b50611c5d3382612bd0565b60005460ff166121975760405162461bcd60e51b81526004016108159061388c565b6000805460ff191690556121a96110bf565b50611c5d3382600061268f565b60005460ff166121d85760405162461bcd60e51b81526004016108159061388c565b6000805460ff191690556121ea6110bf565b506000816001600160a01b031663a6afed956040518163ffffffff1660e01b81526004016020604051808303816000875af115801561222d573d6000803e3d6000fd5b505050506040513d601f19601f8201168201806040525081019061225191906138b0565b9050801561227557604051633eea49b760e11b815260048101829052602401610815565b61228133858585612d6f565b50506000805460ff191660011790555050565b60035460009061010090046001600160a01b031633146122c757604051631205b57b60e11b815260040160405180910390fd5b42600954146122e957604051637dfca6b760e11b815260040160405180910390fd5b670de0b6b3a76400008211156123125760405163717220f360e11b815260040160405180910390fd5b600880549083905560408051828152602081018590527faaa68312e2ea9d50e16af5068410ab56e1a1fd06037b1a35664812c30f8214609101610cc5565b600554604051631200453160e11b81523060048201526001600160a01b03858116602483015284811660448301526064820184905260009283929116906324008a62906084016020604051808303816000875af11580156123b5573d6000803e3d6000fd5b505050506040513d601f19601f820116820180604052508101906123d991906138b0565b905080156123fd57604051638c81362d60e01b815260048101829052602401610815565b426009541461241f5760405163c9021e2f60e01b815260040160405180910390fd5b600061242a85611c6d565b90506000600019851461243d578461243f565b815b9050600061244d8883613229565b9050600061245b8285613901565b9050600082600b5461246d9190613901565b6001600160a01b038a8116600081815260106020908152604091829020878155600a54600190910155600b8590558151938f168452830191909152810185905260608101849052608081018290529091507f1a2a22cb034d26d1854bdc6666a5b91fe25efbbb5dcad3b0355478d6f5c362a19060a00160405180910390a1509098975050505050505050565b8051600090610b7e90670de0b6b3a76400009061394f565b6000808080426009541461253b576040516338acf79960e01b815260048101829052602401610815565b6125453386613229565b905080600c546125559190613918565b915081600c819055507fa91e67c5ea634cd43a12c5a482724b03de01e85ca68702a53d0c2f45cb7c1dc533828460405161259193929190613971565b60405180910390a160009590945092505050565b60115460405163a9059cbb60e01b81526001600160a01b0384811660048301526024820184905290911690819063a9059cbb90604401600060405180830381600087803b1580156125f557600080fd5b505af1158015612609573d6000803e3d6000fd5b5050505060003d60008114612625576020811461262f57600080fd5b600019915061263b565b60206000803e60005191505b50806126895760405162461bcd60e51b815260206004820152601960248201527f544f4b454e5f5452414e534645525f4f55545f4641494c4544000000000000006044820152606401610815565b50505050565b81158061269a575080155b6127035760405162461bcd60e51b815260206004820152603460248201527f6f6e65206f662072656465656d546f6b656e73496e206f722072656465656d416044820152736d6f756e74496e206d757374206265207a65726f60601b6064820152608401610815565b6000604051806020016040528061271861172b565b905290506000808415612739578491506127328386611a15565b9050612749565b6127438484613400565b91508390505b60055460405163eabe7d9160e01b81526000916001600160a01b03169063eabe7d919061277e9030908b908890600401613992565b6020604051808303816000875af115801561279d573d6000803e3d6000fd5b505050506040513d601f19601f820116820180604052508101906127c191906138b0565b905080156127e55760405163480f424760e01b815260048101829052602401610815565b4260095414612807576040516397b5cfcd60e01b815260040160405180910390fd5b81612810611a35565b101561282f576040516391240a1b60e01b815260040160405180910390fd5b82600d5461283d9190613901565b600d556001600160a01b0387166000908152600e6020526040902054612864908490613901565b6001600160a01b0388166000908152600e602052604090205561288787836125a5565b60405183815230906001600160a01b038916906000805160206139db8339815191529060200160405180910390a37fe5b754fb1abb7f01b499791d0b820ae3b6af3424ac1c59768edb53f4ec31a9298783856040516128e893929190613971565b60405180910390a16005546040516351dff98960e01b81523060048201526001600160a01b0389811660248301526044820185905260648201869052909116906351dff98990608401600060405180830381600087803b15801561294b57600080fd5b505af115801561295f573d6000803e3d6000fd5b5050505050505050505050565b600554604051634ef4c3e160e01b81526000916001600160a01b031690634ef4c3e1906129a190309087908790600401613992565b6020604051808303816000875af11580156129c0573d6000803e3d6000fd5b505050506040513d601f19601f820116820180604052508101906129e491906138b0565b90508015612a08576040516349abd4fd60e01b815260048101829052602401610815565b4260095414612a2a576040516338d8859760e01b815260040160405180910390fd5b60006040518060200160405280612a3f61172b565b905290506000612a4f8585613229565b90506000612a5d8284613400565b905080600d54612a6d9190613918565b600d556001600160a01b0386166000908152600e6020526040902054612a94908290613918565b6001600160a01b0387166000908152600e60205260409081902091909155517f4c209b5fc8ad50758f13e2e1088ba56a560dff690a1c6fef26394f4c03821c4f90612ae490889085908590613971565b60405180910390a16040518181526001600160a01b0387169030906000805160206139db8339815191529060200160405180910390a36005546040516341c728b960e01b81523060048201526001600160a01b0388811660248301526044820185905260648201849052909116906341c728b990608401600060405180830381600087803b158015612b7557600080fd5b505af1158015612b89573d6000803e3d6000fd5b50505050505050505050565b6000610b628284613930565b6000610b628284613918565b6000670de0b6b3a7640000612bc6848460000151612b95565b610b62919061394f565b60055460405163368f515360e21b81526000916001600160a01b03169063da3d454c90612c0590309087908790600401613992565b6020604051808303816000875af1158015612c24573d6000803e3d6000fd5b505050506040513d601f19601f82011682018060405250810190612c4891906138b0565b90508015612c6c5760405163918db40f60e01b815260048101829052602401610815565b4260095414612c8e57604051630e8d8c6160e21b815260040160405180910390fd5b81612c97611a35565b1015612cb6576040516348c2588160e01b815260040160405180910390fd5b6000612cc184611c6d565b90506000612ccf8483613918565b9050600084600b54612ce19190613918565b6001600160a01b0387166000908152601060205260409020838155600a54600190910155600b8190559050612d1686866125a5565b604080516001600160a01b038816815260208101879052908101839052606081018290527f13ed6866d4e1ee6da46f845c46d7e54120883d75c5ea9a2dacc1c4ca8984ab809060800160405180910390a1505050505050565b600554604051632fe3f38f60e11b81523060048201526001600160a01b03838116602483015286811660448301528581166064830152608482018590526000921690635fc7e71e9060a4016020604051808303816000875af1158015612dd9573d6000803e3d6000fd5b505050506040513d601f19601f82011682018060405250810190612dfd91906138b0565b90508015612e2157604051630a14d17960e11b815260048101829052602401610815565b4260095414612e43576040516380965b1b60e01b815260040160405180910390fd5b42826001600160a01b0316636c540baf6040518163ffffffff1660e01b8152600401602060405180830381865afa158015612e82573d6000803e3d6000fd5b505050506040513d601f19601f82011682018060405250810190612ea691906138b0565b14612ec457604051631046f38d60e31b815260040160405180910390fd5b846001600160a01b0316846001600160a01b03161415612ef757604051631bd1a62160e21b815260040160405180910390fd5b82612f155760405163d29da7ef60e01b815260040160405180910390fd5b600019831415612f3857604051635982c5bb60e11b815260040160405180910390fd5b6000612f45868686612350565b60055460405163c488847b60e01b815291925060009182916001600160a01b03169063c488847b90612f7f90309089908890600401613992565b6040805180830381865afa158015612f9b573d6000803e3d6000fd5b505050506040513d601f19601f82011682018060405250810190612fbf91906139b6565b915091506000821461302f5760405162461bcd60e51b815260206004820152603360248201527f4c49515549444154455f434f4d5054524f4c4c45525f43414c43554c4154455f604482015272105353d5539517d4d152569157d19052531151606a1b6064820152608401610815565b6040516370a0823160e01b81526001600160a01b0388811660048301528291908716906370a0823190602401602060405180830381865afa158015613078573d6000803e3d6000fd5b505050506040513d601f19601f8201168201806040525081019061309c91906138b0565b10156130ea5760405162461bcd60e51b815260206004820152601860248201527f4c49515549444154455f5345495a455f544f4f5f4d55434800000000000000006044820152606401610815565b6001600160a01b03851630141561310c5761310730898984611ebd565b6131c6565b60405163b2a02ff160e01b81526000906001600160a01b0387169063b2a02ff19061313f908c908c908790600401613992565b6020604051808303816000875af115801561315e573d6000803e3d6000fd5b505050506040513d601f19601f8201168201806040525081019061318291906138b0565b146131c65760405162461bcd60e51b81526020600482015260146024820152731d1bdad95b881cd95a5e9d5c994819985a5b195960621b6044820152606401610815565b604080516001600160a01b038a811682528981166020830152818301869052871660608201526080810183905290517f298637f684da70674f26509b10f07ec2fbc77a335ab1e7d6215a4b2484d8bb529181900360a00190a15050505050505050565b6011546040516370a0823160e01b81523060048201526000916001600160a01b0316908190839082906370a0823190602401602060405180830381865afa158015613278573d6000803e3d6000fd5b505050506040513d601f19601f8201168201806040525081019061329c91906138b0565b6040516323b872dd60e01b81529091506001600160a01b038316906323b872dd906132cf90899030908a90600401613992565b600060405180830381600087803b1580156132e957600080fd5b505af11580156132fd573d6000803e3d6000fd5b5050505060003d60008114613319576020811461332357600080fd5b600019915061332f565b60206000803e60005191505b508061337d5760405162461bcd60e51b815260206004820152601860248201527f544f4b454e5f5452414e534645525f494e5f4641494c454400000000000000006044820152606401610815565b6040516370a0823160e01b81523060048201526000906001600160a01b038616906370a0823190602401602060405180830381865afa1580156133c4573d6000803e3d6000fd5b505050506040513d601f19601f820116820180604052508101906133e891906138b0565b90506133f48382613901565b98975050505050505050565b6000610b6261341784670de0b6b3a7640000612b95565b83516000610b62828461394f565b82805461343190613851565b90600052602060002090601f0160209004810192826134535760008555613499565b82601f1061346c57805160ff1916838001178555613499565b82800160010185558215613499579182015b8281111561349957825182559160200191906001019061347e565b506117919291505b8082111561179157600081556001016134a1565b600060208083528351808285015260005b818110156134e2578581018301518582016040015282016134c6565b818111156134f4576000604083870101525b50601f01601f1916929092016040019392505050565b6001600160a01b038116811461351f57600080fd5b50565b6000806040838503121561353557600080fd5b82356135408161350a565b946020939093013593505050565b60006020828403121561356057600080fd5b5035919050565b60006020828403121561357957600080fd5b8135610b628161350a565b634e487b7160e01b600052604160045260246000fd5b600082601f8301126135ab57600080fd5b813567ffffffffffffffff808211156135c6576135c6613584565b604051601f8301601f19908116603f011681019082821181831017156135ee576135ee613584565b8160405283815286602085880101111561360757600080fd5b836020870160208301376000602085830101528094505050505092915050565b803560ff8116811461363857600080fd5b919050565b600080600080600080600060e0888a03121561365857600080fd5b87356136638161350a565b965060208801356136738161350a565b955060408801356136838161350a565b945060608801359350608088013567ffffffffffffffff808211156136a757600080fd5b6136b38b838c0161359a565b945060a08a01359150808211156136c957600080fd5b506136d68a828b0161359a565b9250506136e560c08901613627565b905092959891949750929550565b60008060006060848603121561370857600080fd5b83356137138161350a565b925060208401356137238161350a565b929592945050506040919091013590565b60008060008060008060c0878903121561374d57600080fd5b86356137588161350a565b955060208701356137688161350a565b945060408701359350606087013567ffffffffffffffff8082111561378c57600080fd5b6137988a838b0161359a565b945060808901359150808211156137ae57600080fd5b506137bb89828a0161359a565b9250506137ca60a08801613627565b90509295509295509295565b600080604083850312156137e957600080fd5b82356137f48161350a565b915060208301356138048161350a565b809150509250929050565b60008060006060848603121561382457600080fd5b833561382f8161350a565b92506020840135915060408401356138468161350a565b809150509250925092565b600181811c9082168061386557607f821691505b6020821081141561388657634e487b7160e01b600052602260045260246000fd5b50919050565b6020808252600a90820152691c994b595b9d195c995960b21b604082015260600190565b6000602082840312156138c257600080fd5b5051919050565b6000602082840312156138db57600080fd5b81518015158114610b6257600080fd5b634e487b7160e01b600052601160045260246000fd5b600082821015613913576139136138eb565b500390565b6000821982111561392b5761392b6138eb565b500190565b600081600019048311821515161561394a5761394a6138eb565b500290565b60008261396c57634e487b7160e01b600052601260045260246000fd5b500490565b6001600160a01b039390931683526020830191909152604082015260600190565b6001600160a01b039384168152919092166020820152604081019190915260600190565b600080604083850312156139c957600080fd5b50508051602090910151909290915056feddf252ad1be2c89b69c2b068fc378daa952ba7f163c4a11628f55a4df523b3efa2646970667358221220ce926571c28f011f5d216445c529432078afcdb1757e138c7b79980cad0557ec64736f6c634300080a0033",
		"opcodes": "PUSH1 0x80 PUSH1 0x40 MSTORE CALLVALUE DUP1 ISZERO PUSH3 0x11 JUMPI PUSH1 0x0 DUP1 REVERT JUMPDEST POP PUSH1 0x40 MLOAD PUSH3 0x43BD CODESIZE SUB DUP1 PUSH3 0x43BD DUP4 CODECOPY DUP2 ADD PUSH1 0x40 DUP2 SWAP1 MSTORE PUSH3 0x34 SWAP2 PUSH3 0x81A JUMP JUMPDEST PUSH1 0x3 DUP1 SLOAD PUSH2 0x100 PUSH1 0x1 PUSH1 0xA8 SHL SUB NOT AND CALLER PUSH2 0x100 MUL OR SWAP1 SSTORE PUSH3 0x5C DUP9 DUP9 DUP9 DUP9 DUP9 DUP9 DUP9 PUSH3 0x90 JUMP JUMPDEST PUSH1 0x3 DUP1 SLOAD PUSH1 0x1 PUSH1 0x1 PUSH1 0xA0 SHL SUB SWAP1 SWAP3 AND PUSH2 0x100 MUL PUSH2 0x100 PUSH1 0x1 PUSH1 0xA8 SHL SUB NOT SWAP1 SWAP3 AND SWAP2 SWAP1 SWAP2 OR SWAP1 SSTORE POP PUSH3 0x97D SWAP6 POP POP POP POP POP POP JUMP JUMPDEST PUSH3 0xAB DUP7 DUP7 DUP7 DUP7 DUP7 DUP7 PUSH3 0x135 PUSH1 0x20 SHL PUSH3 0xE59 OR PUSH1 0x20 SHR JUMP JUMPDEST PUSH1 0x11 DUP1 SLOAD PUSH1 0x1 PUSH1 0x1 PUSH1 0xA0 SHL SUB NOT AND PUSH1 0x1 PUSH1 0x1 PUSH1 0xA0 SHL SUB DUP10 AND SWAP1 DUP2 OR SWAP1 SWAP2 SSTORE PUSH1 0x40 DUP1 MLOAD PUSH4 0x18160DDD PUSH1 0xE0 SHL DUP2 MSTORE SWAP1 MLOAD PUSH4 0x18160DDD SWAP2 PUSH1 0x4 DUP1 DUP3 ADD SWAP3 PUSH1 0x20 SWAP3 SWAP1 SWAP2 SWAP1 DUP3 SWAP1 SUB ADD DUP2 DUP7 GAS STATICCALL ISZERO DUP1 ISZERO PUSH3 0x105 JUMPI RETURNDATASIZE PUSH1 0x0 DUP1 RETURNDATACOPY RETURNDATASIZE PUSH1 0x0 REVERT JUMPDEST POP POP POP POP PUSH1 0x40 MLOAD RETURNDATASIZE PUSH1 0x1F NOT PUSH1 0x1F DUP3 ADD AND DUP3 ADD DUP1 PUSH1 0x40 MSTORE POP DUP2 ADD SWAP1 PUSH3 0x12B SWAP2 SWAP1 PUSH3 0x8FB JUMP JUMPDEST POP POP POP POP POP POP POP POP JUMP JUMPDEST PUSH1 0x3 SLOAD PUSH2 0x100 SWAP1 DIV PUSH1 0x1 PUSH1 0x1 PUSH1 0xA0 SHL SUB AND CALLER EQ PUSH3 0x1A6 JUMPI PUSH1 0x40 MLOAD PUSH3 0x461BCD PUSH1 0xE5 SHL DUP2 MSTORE PUSH1 0x20 PUSH1 0x4 DUP3 ADD MSTORE PUSH1 0x24 DUP1 DUP3 ADD MSTORE PUSH32 0x6F6E6C792061646D696E206D617920696E697469616C697A6520746865206D61 PUSH1 0x44 DUP3 ADD MSTORE PUSH4 0x1C9AD95D PUSH1 0xE2 SHL PUSH1 0x64 DUP3 ADD MSTORE PUSH1 0x84 ADD JUMPDEST PUSH1 0x40 MLOAD DUP1 SWAP2 SUB SWAP1 REVERT JUMPDEST PUSH1 0x9 SLOAD ISZERO DUP1 ISZERO PUSH3 0x1B7 JUMPI POP PUSH1 0xA SLOAD ISZERO JUMPDEST PUSH3 0x211 JUMPI PUSH1 0x40 MLOAD PUSH3 0x461BCD PUSH1 0xE5 SHL DUP2 MSTORE PUSH1 0x20 PUSH1 0x4 DUP3 ADD MSTORE PUSH1 0x23 PUSH1 0x24 DUP3 ADD MSTORE PUSH32 0x6D61726B6574206D6179206F6E6C7920626520696E697469616C697A6564206F PUSH1 0x44 DUP3 ADD MSTORE PUSH3 0x6E6365 PUSH1 0xE8 SHL PUSH1 0x64 DUP3 ADD MSTORE PUSH1 0x84 ADD PUSH3 0x19D JUMP JUMPDEST PUSH1 0x7 DUP5 SWAP1 SSTORE DUP4 PUSH3 0x27E JUMPI PUSH1 0x40 MLOAD PUSH3 0x461BCD PUSH1 0xE5 SHL DUP2 MSTORE PUSH1 0x20 PUSH1 0x4 DUP3 ADD MSTORE PUSH1 0x30 PUSH1 0x24 DUP3 ADD MSTORE PUSH32 0x696E697469616C2065786368616E67652072617465206D757374206265206772 PUSH1 0x44 DUP3 ADD MSTORE PUSH16 0x32B0BA32B9103A3430B7103D32B93797 PUSH1 0x81 SHL PUSH1 0x64 DUP3 ADD MSTORE PUSH1 0x84 ADD PUSH3 0x19D JUMP JUMPDEST PUSH1 0x0 PUSH3 0x28B DUP8 PUSH3 0x3A7 JUMP JUMPDEST SWAP1 POP DUP1 ISZERO PUSH3 0x2DD JUMPI PUSH1 0x40 MLOAD PUSH3 0x461BCD PUSH1 0xE5 SHL DUP2 MSTORE PUSH1 0x20 PUSH1 0x4 DUP3 ADD MSTORE PUSH1 0x1A PUSH1 0x24 DUP3 ADD MSTORE PUSH32 0x73657474696E6720636F6D7074726F6C6C6572206661696C6564000000000000 PUSH1 0x44 DUP3 ADD MSTORE PUSH1 0x64 ADD PUSH3 0x19D JUMP JUMPDEST TIMESTAMP PUSH1 0x9 SSTORE PUSH8 0xDE0B6B3A7640000 PUSH1 0xA SSTORE PUSH3 0x2F8 DUP7 PUSH3 0x4FF JUMP JUMPDEST SWAP1 POP DUP1 ISZERO PUSH3 0x355 JUMPI PUSH1 0x40 MLOAD PUSH3 0x461BCD PUSH1 0xE5 SHL DUP2 MSTORE PUSH1 0x20 PUSH1 0x4 DUP3 ADD MSTORE PUSH1 0x22 PUSH1 0x24 DUP3 ADD MSTORE PUSH32 0x73657474696E6720696E7465726573742072617465206D6F64656C206661696C PUSH1 0x44 DUP3 ADD MSTORE PUSH2 0x1959 PUSH1 0xF2 SHL PUSH1 0x64 DUP3 ADD MSTORE PUSH1 0x84 ADD PUSH3 0x19D JUMP JUMPDEST DUP4 MLOAD PUSH3 0x36A SWAP1 PUSH1 0x1 SWAP1 PUSH1 0x20 DUP8 ADD SWAP1 PUSH3 0x67C JUMP JUMPDEST POP DUP3 MLOAD PUSH3 0x380 SWAP1 PUSH1 0x2 SWAP1 PUSH1 0x20 DUP7 ADD SWAP1 PUSH3 0x67C JUMP JUMPDEST POP POP PUSH1 0x3 DUP1 SLOAD PUSH1 0xFF SWAP1 SWAP3 AND PUSH1 0xFF NOT SWAP3 DUP4 AND OR SWAP1 SSTORE PUSH1 0x0 DUP1 SLOAD SWAP1 SWAP2 AND PUSH1 0x1 OR SWAP1 SSTORE POP POP POP POP POP JUMP JUMPDEST PUSH1 0x3 SLOAD PUSH1 0x0 SWAP1 PUSH2 0x100 SWAP1 DIV PUSH1 0x1 PUSH1 0x1 PUSH1 0xA0 SHL SUB AND CALLER EQ PUSH3 0x3DB JUMPI PUSH1 0x40 MLOAD PUSH4 0xD219DC1F PUSH1 0xE0 SHL DUP2 MSTORE PUSH1 0x4 ADD PUSH1 0x40 MLOAD DUP1 SWAP2 SUB SWAP1 REVERT JUMPDEST PUSH1 0x5 SLOAD PUSH1 0x40 DUP1 MLOAD PUSH3 0x3F1EE9 PUSH1 0xE1 SHL DUP2 MSTORE SWAP1 MLOAD PUSH1 0x1 PUSH1 0x1 PUSH1 0xA0 SHL SUB SWAP3 DUP4 AND SWAP3 DUP6 AND SWAP2 PUSH3 0x7E3DD2 SWAP2 PUSH1 0x4 DUP1 DUP4 ADD SWAP3 PUSH1 0x20 SWAP3 SWAP2 SWAP1 DUP3 SWAP1 SUB ADD DUP2 DUP7 GAS STATICCALL ISZERO DUP1 ISZERO PUSH3 0x426 JUMPI RETURNDATASIZE PUSH1 0x0 DUP1 RETURNDATACOPY RETURNDATASIZE PUSH1 0x0 REVERT JUMPDEST POP POP POP POP PUSH1 0x40 MLOAD RETURNDATASIZE PUSH1 0x1F NOT PUSH1 0x1F DUP3 ADD AND DUP3 ADD DUP1 PUSH1 0x40 MSTORE POP DUP2 ADD SWAP1 PUSH3 0x44C SWAP2 SWAP1 PUSH3 0x915 JUMP JUMPDEST PUSH3 0x49A JUMPI PUSH1 0x40 MLOAD PUSH3 0x461BCD PUSH1 0xE5 SHL DUP2 MSTORE PUSH1 0x20 PUSH1 0x4 DUP3 ADD MSTORE PUSH1 0x1C PUSH1 0x24 DUP3 ADD MSTORE PUSH32 0x6D61726B6572206D6574686F642072657475726E65642066616C736500000000 PUSH1 0x44 DUP3 ADD MSTORE PUSH1 0x64 ADD PUSH3 0x19D JUMP JUMPDEST PUSH1 0x5 DUP1 SLOAD PUSH1 0x1 PUSH1 0x1 PUSH1 0xA0 SHL SUB NOT AND PUSH1 0x1 PUSH1 0x1 PUSH1 0xA0 SHL SUB DUP6 DUP2 AND SWAP2 DUP3 OR SWAP1 SWAP3 SSTORE PUSH1 0x40 DUP1 MLOAD SWAP3 DUP5 AND DUP4 MSTORE PUSH1 0x20 DUP4 ADD SWAP2 SWAP1 SWAP2 MSTORE PUSH32 0x7AC369DBD14FA5EA3F473ED67CC9D598964A77501540BA6751EB0B3DECF5870D SWAP2 ADD JUMPDEST PUSH1 0x40 MLOAD DUP1 SWAP2 SUB SWAP1 LOG1 POP PUSH1 0x0 SWAP3 SWAP2 POP POP JUMP JUMPDEST PUSH1 0x3 SLOAD PUSH1 0x0 SWAP1 DUP2 SWAP1 PUSH2 0x100 SWAP1 DIV PUSH1 0x1 PUSH1 0x1 PUSH1 0xA0 SHL SUB AND CALLER EQ PUSH3 0x535 JUMPI PUSH1 0x40 MLOAD PUSH4 0x407FDED5 PUSH1 0xE0 SHL DUP2 MSTORE PUSH1 0x4 ADD PUSH1 0x40 MLOAD DUP1 SWAP2 SUB SWAP1 REVERT JUMPDEST TIMESTAMP PUSH1 0x9 SLOAD EQ PUSH3 0x558 JUMPI PUSH1 0x40 MLOAD PUSH4 0xBE2A5CB PUSH1 0xE1 SHL DUP2 MSTORE PUSH1 0x4 ADD PUSH1 0x40 MLOAD DUP1 SWAP2 SUB SWAP1 REVERT JUMPDEST PUSH1 0x6 PUSH1 0x0 SWAP1 SLOAD SWAP1 PUSH2 0x100 EXP SWAP1 DIV PUSH1 0x1 PUSH1 0x1 PUSH1 0xA0 SHL SUB AND SWAP1 POP DUP3 PUSH1 0x1 PUSH1 0x1 PUSH1 0xA0 SHL SUB AND PUSH4 0x2191F92A PUSH1 0x40 MLOAD DUP2 PUSH4 0xFFFFFFFF AND PUSH1 0xE0 SHL DUP2 MSTORE PUSH1 0x4 ADD PUSH1 0x20 PUSH1 0x40 MLOAD DUP1 DUP4 SUB DUP2 DUP7 GAS STATICCALL ISZERO DUP1 ISZERO PUSH3 0x5AF JUMPI RETURNDATASIZE PUSH1 0x0 DUP1 RETURNDATACOPY RETURNDATASIZE PUSH1 0x0 REVERT JUMPDEST POP POP POP POP PUSH1 0x40 MLOAD RETURNDATASIZE PUSH1 0x1F NOT PUSH1 0x1F DUP3 ADD AND DUP3 ADD DUP1 PUSH1 0x40 MSTORE POP DUP2 ADD SWAP1 PUSH3 0x5D5 SWAP2 SWAP1 PUSH3 0x915 JUMP JUMPDEST PUSH3 0x623 JUMPI PUSH1 0x40 MLOAD PUSH3 0x461BCD PUSH1 0xE5 SHL DUP2 MSTORE PUSH1 0x20 PUSH1 0x4 DUP3 ADD MSTORE PUSH1 0x1C PUSH1 0x24 DUP3 ADD MSTORE PUSH32 0x6D61726B6572206D6574686F642072657475726E65642066616C736500000000 PUSH1 0x44 DUP3 ADD MSTORE PUSH1 0x64 ADD PUSH3 0x19D JUMP JUMPDEST PUSH1 0x6 DUP1 SLOAD PUSH1 0x1 PUSH1 0x1 PUSH1 0xA0 SHL SUB NOT AND PUSH1 0x1 PUSH1 0x1 PUSH1 0xA0 SHL SUB DUP6 DUP2 AND SWAP2 DUP3 OR SWAP1 SWAP3 SSTORE PUSH1 0x40 DUP1 MLOAD SWAP3 DUP5 AND DUP4 MSTORE PUSH1 0x20 DUP4 ADD SWAP2 SWAP1 SWAP2 MSTORE PUSH32 0xEDFFC32E068C7C95DFD4BDFD5C4D939A084D6B11C4199EAC8436ED234D72F926 SWAP2 ADD PUSH3 0x4EE JUMP JUMPDEST DUP3 DUP1 SLOAD PUSH3 0x68A SWAP1 PUSH3 0x940 JUMP JUMPDEST SWAP1 PUSH1 0x0 MSTORE PUSH1 0x20 PUSH1 0x0 KECCAK256 SWAP1 PUSH1 0x1F ADD PUSH1 0x20 SWAP1 DIV DUP2 ADD SWAP3 DUP3 PUSH3 0x6AE JUMPI PUSH1 0x0 DUP6 SSTORE PUSH3 0x6F9 JUMP JUMPDEST DUP3 PUSH1 0x1F LT PUSH3 0x6C9 JUMPI DUP1 MLOAD PUSH1 0xFF NOT AND DUP4 DUP1 ADD OR DUP6 SSTORE PUSH3 0x6F9 JUMP JUMPDEST DUP3 DUP1 ADD PUSH1 0x1 ADD DUP6 SSTORE DUP3 ISZERO PUSH3 0x6F9 JUMPI SWAP2 DUP3 ADD JUMPDEST DUP3 DUP2 GT ISZERO PUSH3 0x6F9 JUMPI DUP3 MLOAD DUP3 SSTORE SWAP2 PUSH1 0x20 ADD SWAP2 SWAP1 PUSH1 0x1 ADD SWAP1 PUSH3 0x6DC JUMP JUMPDEST POP PUSH3 0x707 SWAP3 SWAP2 POP PUSH3 0x70B JUMP JUMPDEST POP SWAP1 JUMP JUMPDEST JUMPDEST DUP1 DUP3 GT ISZERO PUSH3 0x707 JUMPI PUSH1 0x0 DUP2 SSTORE PUSH1 0x1 ADD PUSH3 0x70C JUMP JUMPDEST PUSH1 0x1 PUSH1 0x1 PUSH1 0xA0 SHL SUB DUP2 AND DUP2 EQ PUSH3 0x738 JUMPI PUSH1 0x0 DUP1 REVERT JUMPDEST POP JUMP JUMPDEST PUSH4 0x4E487B71 PUSH1 0xE0 SHL PUSH1 0x0 MSTORE PUSH1 0x41 PUSH1 0x4 MSTORE PUSH1 0x24 PUSH1 0x0 REVERT JUMPDEST PUSH1 0x0 DUP3 PUSH1 0x1F DUP4 ADD SLT PUSH3 0x763 JUMPI PUSH1 0x0 DUP1 REVERT JUMPDEST DUP2 MLOAD PUSH1 0x1 PUSH1 0x1 PUSH1 0x40 SHL SUB DUP1 DUP3 GT ISZERO PUSH3 0x780 JUMPI PUSH3 0x780 PUSH3 0x73B JUMP JUMPDEST PUSH1 0x40 MLOAD PUSH1 0x1F DUP4 ADD PUSH1 0x1F NOT SWAP1 DUP2 AND PUSH1 0x3F ADD AND DUP2 ADD SWAP1 DUP3 DUP3 GT DUP2 DUP4 LT OR ISZERO PUSH3 0x7AB JUMPI PUSH3 0x7AB PUSH3 0x73B JUMP JUMPDEST DUP2 PUSH1 0x40 MSTORE DUP4 DUP2 MSTORE PUSH1 0x20 SWAP3 POP DUP7 DUP4 DUP6 DUP9 ADD ADD GT ISZERO PUSH3 0x7C8 JUMPI PUSH1 0x0 DUP1 REVERT JUMPDEST PUSH1 0x0 SWAP2 POP JUMPDEST DUP4 DUP3 LT ISZERO PUSH3 0x7EC JUMPI DUP6 DUP3 ADD DUP4 ADD MLOAD DUP2 DUP4 ADD DUP5 ADD MSTORE SWAP1 DUP3 ADD SWAP1 PUSH3 0x7CD JUMP JUMPDEST DUP4 DUP3 GT ISZERO PUSH3 0x7FE JUMPI PUSH1 0x0 DUP4 DUP6 DUP4 ADD ADD MSTORE JUMPDEST SWAP7 SWAP6 POP POP POP POP POP POP JUMP JUMPDEST DUP1 MLOAD PUSH3 0x815 DUP2 PUSH3 0x722 JUMP JUMPDEST SWAP2 SWAP1 POP JUMP JUMPDEST PUSH1 0x0 DUP1 PUSH1 0x0 DUP1 PUSH1 0x0 DUP1 PUSH1 0x0 DUP1 PUSH2 0x100 DUP10 DUP12 SUB SLT ISZERO PUSH3 0x838 JUMPI PUSH1 0x0 DUP1 REVERT JUMPDEST DUP9 MLOAD PUSH3 0x845 DUP2 PUSH3 0x722 JUMP JUMPDEST PUSH1 0x20 DUP11 ADD MLOAD SWAP1 SWAP9 POP PUSH3 0x858 DUP2 PUSH3 0x722 JUMP JUMPDEST PUSH1 0x40 DUP11 ADD MLOAD SWAP1 SWAP8 POP PUSH3 0x86B DUP2 PUSH3 0x722 JUMP JUMPDEST PUSH1 0x60 DUP11 ADD MLOAD PUSH1 0x80 DUP12 ADD MLOAD SWAP2 SWAP8 POP SWAP6 POP PUSH1 0x1 PUSH1 0x1 PUSH1 0x40 SHL SUB DUP1 DUP3 GT ISZERO PUSH3 0x890 JUMPI PUSH1 0x0 DUP1 REVERT JUMPDEST PUSH3 0x89E DUP13 DUP4 DUP14 ADD PUSH3 0x751 JUMP JUMPDEST SWAP6 POP PUSH1 0xA0 DUP12 ADD MLOAD SWAP2 POP DUP1 DUP3 GT ISZERO PUSH3 0x8B5 JUMPI PUSH1 0x0 DUP1 REVERT JUMPDEST POP PUSH3 0x8C4 DUP12 DUP3 DUP13 ADD PUSH3 0x751 JUMP JUMPDEST SWAP4 POP POP PUSH1 0xC0 DUP10 ADD MLOAD PUSH1 0xFF DUP2 AND DUP2 EQ PUSH3 0x8DC JUMPI PUSH1 0x0 DUP1 REVERT JUMPDEST SWAP2 POP PUSH3 0x8EC PUSH1 0xE0 DUP11 ADD PUSH3 0x808 JUMP JUMPDEST SWAP1 POP SWAP3 SWAP6 SWAP9 POP SWAP3 SWAP6 SWAP9 SWAP1 SWAP4 SWAP7 POP JUMP JUMPDEST PUSH1 0x0 PUSH1 0x20 DUP3 DUP5 SUB SLT ISZERO PUSH3 0x90E JUMPI PUSH1 0x0 DUP1 REVERT JUMPDEST POP MLOAD SWAP2 SWAP1 POP JUMP JUMPDEST PUSH1 0x0 PUSH1 0x20 DUP3 DUP5 SUB SLT ISZERO PUSH3 0x928 JUMPI PUSH1 0x0 DUP1 REVERT JUMPDEST DUP2 MLOAD DUP1 ISZERO ISZERO DUP2 EQ PUSH3 0x939 JUMPI PUSH1 0x0 DUP1 REVERT JUMPDEST SWAP4 SWAP3 POP POP POP JUMP JUMPDEST PUSH1 0x1 DUP2 DUP2 SHR SWAP1 DUP3 AND DUP1 PUSH3 0x955 JUMPI PUSH1 0x7F DUP3 AND SWAP2 POP JUMPDEST PUSH1 0x20 DUP3 LT DUP2 EQ ISZERO PUSH3 0x977 JUMPI PUSH4 0x4E487B71 PUSH1 0xE0 SHL PUSH1 0x0 MSTORE PUSH1 0x22 PUSH1 0x4 MSTORE PUSH1 0x24 PUSH1 0x0 REVERT JUMPDEST POP SWAP2 SWAP1 POP JUMP JUMPDEST PUSH2 0x3A30 DUP1 PUSH3 0x98D PUSH1 0x0 CODECOPY PUSH1 0x0 RETURN INVALID PUSH1 0x80 PUSH1 0x40 MSTORE CALLVALUE DUP1 ISZERO PUSH2 0x10 JUMPI PUSH1 0x0 DUP1 REVERT JUMPDEST POP PUSH1 0x4 CALLDATASIZE LT PUSH2 0x30C JUMPI PUSH1 0x0 CALLDATALOAD PUSH1 0xE0 SHR DUP1 PUSH4 0x7F1E06BE GT PUSH2 0x19D JUMPI DUP1 PUSH4 0xBD6D894D GT PUSH2 0xE9 JUMPI DUP1 PUSH4 0xF2B3ABBD GT PUSH2 0xA2 JUMPI DUP1 PUSH4 0xF851A440 GT PUSH2 0x7C JUMPI DUP1 PUSH4 0xF851A440 EQ PUSH2 0x6A8 JUMPI DUP1 PUSH4 0xF8F9DA28 EQ PUSH2 0x6C0 JUMPI DUP1 PUSH4 0xFCA7820B EQ PUSH2 0x6C8 JUMPI DUP1 PUSH4 0xFE9C44AE EQ PUSH2 0x6DB JUMPI PUSH1 0x0 DUP1 REVERT JUMPDEST DUP1 PUSH4 0xF2B3ABBD EQ PUSH2 0x66F JUMPI DUP1 PUSH4 0xF3FDB15A EQ PUSH2 0x682 JUMPI DUP1 PUSH4 0xF5E3C462 EQ PUSH2 0x695 JUMPI PUSH1 0x0 DUP1 REVERT JUMPDEST DUP1 PUSH4 0xBD6D894D EQ PUSH2 0x5CD JUMPI DUP1 PUSH4 0xC37F68E2 EQ PUSH2 0x5D5 JUMPI DUP1 PUSH4 0xC5EBEAEC EQ PUSH2 0x608 JUMPI DUP1 PUSH4 0xDB006A75 EQ PUSH2 0x61B JUMPI DUP1 PUSH4 0xDD62ED3E EQ PUSH2 0x62E JUMPI DUP1 PUSH4 0xE9C714F2 EQ PUSH2 0x667 JUMPI PUSH1 0x0 DUP1 REVERT JUMPDEST DUP1 PUSH4 0xA0712D68 GT PUSH2 0x156 JUMPI DUP1 PUSH4 0xAA5AF0FD GT PUSH2 0x130 JUMPI DUP1 PUSH4 0xAA5AF0FD EQ PUSH2 0x596 JUMPI DUP1 PUSH4 0xAE9D70B0 EQ PUSH2 0x59F JUMPI DUP1 PUSH4 0xB2A02FF1 EQ PUSH2 0x5A7 JUMPI DUP1 PUSH4 0xB71D1A0C EQ PUSH2 0x5BA JUMPI PUSH1 0x0 DUP1 REVERT JUMPDEST DUP1 PUSH4 0xA0712D68 EQ PUSH2 0x568 JUMPI DUP1 PUSH4 0xA6AFED95 EQ PUSH2 0x57B JUMPI DUP1 PUSH4 0xA9059CBB EQ PUSH2 0x583 JUMPI PUSH1 0x0 DUP1 REVERT JUMPDEST DUP1 PUSH4 0x7F1E06BE EQ PUSH2 0x50B JUMPI DUP1 PUSH4 0x852A12E3 EQ PUSH2 0x51E JUMPI DUP1 PUSH4 0x8F840DDD EQ PUSH2 0x531 JUMPI DUP1 PUSH4 0x95D89B41 EQ PUSH2 0x53A JUMPI DUP1 PUSH4 0x95DD9193 EQ PUSH2 0x542 JUMPI DUP1 PUSH4 0x99D8C1B4 EQ PUSH2 0x555 JUMPI PUSH1 0x0 DUP1 REVERT JUMPDEST DUP1 PUSH4 0x3AF9E669 GT PUSH2 0x25C JUMPI DUP1 PUSH4 0x601A0BF1 GT PUSH2 0x215 JUMPI DUP1 PUSH4 0x6C540BAF GT PUSH2 0x1EF JUMPI DUP1 PUSH4 0x6C540BAF EQ PUSH2 0x4BE JUMPI DUP1 PUSH4 0x6F307DC3 EQ PUSH2 0x4C7 JUMPI DUP1 PUSH4 0x70A08231 EQ PUSH2 0x4DA JUMPI DUP1 PUSH4 0x73ACEE98 EQ PUSH2 0x503 JUMPI PUSH1 0x0 DUP1 REVERT JUMPDEST DUP1 PUSH4 0x601A0BF1 EQ PUSH2 0x495 JUMPI DUP1 PUSH4 0x6752E702 EQ PUSH2 0x4A8 JUMPI DUP1 PUSH4 0x69AB3250 EQ PUSH2 0x4B6 JUMPI PUSH1 0x0 DUP1 REVERT JUMPDEST DUP1 PUSH4 0x3AF9E669 EQ PUSH2 0x438 JUMPI DUP1 PUSH4 0x3B1D21A2 EQ PUSH2 0x44B JUMPI DUP1 PUSH4 0x3E941010 EQ PUSH2 0x453 JUMPI DUP1 PUSH4 0x4576B5DB EQ PUSH2 0x466 JUMPI DUP1 PUSH4 0x47BD3718 EQ PUSH2 0x479 JUMPI DUP1 PUSH4 0x5FE3B567 EQ PUSH2 0x482 JUMPI PUSH1 0x0 DUP1 REVERT JUMPDEST DUP1 PUSH4 0x182DF0F5 GT PUSH2 0x2C9 JUMPI DUP1 PUSH4 0x23B872DD GT PUSH2 0x2A3 JUMPI DUP1 PUSH4 0x23B872DD EQ PUSH2 0x3C8 JUMPI DUP1 PUSH4 0x2608F818 EQ PUSH2 0x3DB JUMPI DUP1 PUSH4 0x26782247 EQ PUSH2 0x3EE JUMPI DUP1 PUSH4 0x313CE567 EQ PUSH2 0x419 JUMPI PUSH1 0x0 DUP1 REVERT JUMPDEST DUP1 PUSH4 0x182DF0F5 EQ PUSH2 0x398 JUMPI DUP1 PUSH4 0x1A31D465 EQ PUSH2 0x3A0 JUMPI DUP1 PUSH4 0x1BE19560 EQ PUSH2 0x3B5 JUMPI PUSH1 0x0 DUP1 REVERT JUMPDEST DUP1 PUSH4 0x6FDDE03 EQ PUSH2 0x311 JUMPI DUP1 PUSH4 0x95EA7B3 EQ PUSH2 0x32F JUMPI DUP1 PUSH4 0xE752702 EQ PUSH2 0x352 JUMPI DUP1 PUSH4 0x173B9904 EQ PUSH2 0x373 JUMPI DUP1 PUSH4 0x17BFDFBC EQ PUSH2 0x37C JUMPI DUP1 PUSH4 0x18160DDD EQ PUSH2 0x38F JUMPI JUMPDEST PUSH1 0x0 DUP1 REVERT JUMPDEST PUSH2 0x319 PUSH2 0x6E3 JUMP JUMPDEST PUSH1 0x40 MLOAD PUSH2 0x326 SWAP2 SWAP1 PUSH2 0x34B5 JUMP JUMPDEST PUSH1 0x40 MLOAD DUP1 SWAP2 SUB SWAP1 RETURN JUMPDEST PUSH2 0x342 PUSH2 0x33D CALLDATASIZE PUSH1 0x4 PUSH2 0x3522 JUMP JUMPDEST PUSH2 0x771 JUMP JUMPDEST PUSH1 0x40 MLOAD SWAP1 ISZERO ISZERO DUP2 MSTORE PUSH1 0x20 ADD PUSH2 0x326 JUMP JUMPDEST PUSH2 0x365 PUSH2 0x360 CALLDATASIZE PUSH1 0x4 PUSH2 0x354E JUMP JUMPDEST PUSH2 0x7DF JUMP JUMPDEST PUSH1 0x40 MLOAD SWAP1 DUP2 MSTORE PUSH1 0x20 ADD PUSH2 0x326 JUMP JUMPDEST PUSH2 0x365 PUSH1 0x8 SLOAD DUP2 JUMP JUMPDEST PUSH2 0x365 PUSH2 0x38A CALLDATASIZE PUSH1 0x4 PUSH2 0x3567 JUMP JUMPDEST PUSH2 0x7F2 JUMP JUMPDEST PUSH2 0x365 PUSH1 0xD SLOAD DUP2 JUMP JUMPDEST PUSH2 0x365 PUSH2 0x84E JUMP JUMPDEST PUSH2 0x3B3 PUSH2 0x3AE CALLDATASIZE PUSH1 0x4 PUSH2 0x363D JUMP JUMPDEST PUSH2 0x85D JUMP JUMPDEST STOP JUMPDEST PUSH2 0x3B3 PUSH2 0x3C3 CALLDATASIZE PUSH1 0x4 PUSH2 0x3567 JUMP JUMPDEST PUSH2 0x8F2 JUMP JUMPDEST PUSH2 0x342 PUSH2 0x3D6 CALLDATASIZE PUSH1 0x4 PUSH2 0x36F3 JUMP JUMPDEST PUSH2 0xABE JUMP JUMPDEST PUSH2 0x365 PUSH2 0x3E9 CALLDATASIZE PUSH1 0x4 PUSH2 0x3522 JUMP JUMPDEST PUSH2 0xB0E JUMP JUMPDEST PUSH1 0x4 SLOAD PUSH2 0x401 SWAP1 PUSH1 0x1 PUSH1 0x1 PUSH1 0xA0 SHL SUB AND DUP2 JUMP JUMPDEST PUSH1 0x40 MLOAD PUSH1 0x1 PUSH1 0x1 PUSH1 0xA0 SHL SUB SWAP1 SWAP2 AND DUP2 MSTORE PUSH1 0x20 ADD PUSH2 0x326 JUMP JUMPDEST PUSH1 0x3 SLOAD PUSH2 0x426 SWAP1 PUSH1 0xFF AND DUP2 JUMP JUMPDEST PUSH1 0x40 MLOAD PUSH1 0xFF SWAP1 SWAP2 AND DUP2 MSTORE PUSH1 0x20 ADD PUSH2 0x326 JUMP JUMPDEST PUSH2 0x365 PUSH2 0x446 CALLDATASIZE PUSH1 0x4 PUSH2 0x3567 JUMP JUMPDEST PUSH2 0xB23 JUMP JUMPDEST PUSH2 0x365 PUSH2 0xB69 JUMP JUMPDEST PUSH2 0x365 PUSH2 0x461 CALLDATASIZE PUSH1 0x4 PUSH2 0x354E JUMP JUMPDEST PUSH2 0xB73 JUMP JUMPDEST PUSH2 0x365 PUSH2 0x474 CALLDATASIZE PUSH1 0x4 PUSH2 0x3567 JUMP JUMPDEST PUSH2 0xB84 JUMP JUMPDEST PUSH2 0x365 PUSH1 0xB SLOAD DUP2 JUMP JUMPDEST PUSH1 0x5 SLOAD PUSH2 0x401 SWAP1 PUSH1 0x1 PUSH1 0x1 PUSH1 0xA0 SHL SUB AND DUP2 JUMP JUMPDEST PUSH2 0x365 PUSH2 0x4A3 CALLDATASIZE PUSH1 0x4 PUSH2 0x354E JUMP JUMPDEST PUSH2 0xCD6 JUMP JUMPDEST PUSH2 0x365 PUSH7 0x6379DA05B60000 DUP2 JUMP JUMPDEST PUSH2 0x365 PUSH1 0x0 DUP2 JUMP JUMPDEST PUSH2 0x365 PUSH1 0x9 SLOAD DUP2 JUMP JUMPDEST PUSH1 0x11 SLOAD PUSH2 0x401 SWAP1 PUSH1 0x1 PUSH1 0x1 PUSH1 0xA0 SHL SUB AND DUP2 JUMP JUMPDEST PUSH2 0x365 PUSH2 0x4E8 CALLDATASIZE PUSH1 0x4 PUSH2 0x3567 JUMP JUMPDEST PUSH1 0x1 PUSH1 0x1 PUSH1 0xA0 SHL SUB AND PUSH1 0x0 SWAP1 DUP2 MSTORE PUSH1 0xE PUSH1 0x20 MSTORE PUSH1 0x40 SWAP1 KECCAK256 SLOAD SWAP1 JUMP JUMPDEST PUSH2 0x365 PUSH2 0xD15 JUMP JUMPDEST PUSH2 0x3B3 PUSH2 0x519 CALLDATASIZE PUSH1 0x4 PUSH2 0x3567 JUMP JUMPDEST PUSH2 0xD5F JUMP JUMPDEST PUSH2 0x365 PUSH2 0x52C CALLDATASIZE PUSH1 0x4 PUSH2 0x354E JUMP JUMPDEST PUSH2 0xE36 JUMP JUMPDEST PUSH2 0x365 PUSH1 0xC SLOAD DUP2 JUMP JUMPDEST PUSH2 0x319 PUSH2 0xE41 JUMP JUMPDEST PUSH2 0x365 PUSH2 0x550 CALLDATASIZE PUSH1 0x4 PUSH2 0x3567 JUMP JUMPDEST PUSH2 0xE4E JUMP JUMPDEST PUSH2 0x3B3 PUSH2 0x563 CALLDATASIZE PUSH1 0x4 PUSH2 0x3734 JUMP JUMPDEST PUSH2 0xE59 JUMP JUMPDEST PUSH2 0x365 PUSH2 0x576 CALLDATASIZE PUSH1 0x4 PUSH2 0x354E JUMP JUMPDEST PUSH2 0x10B4 JUMP JUMPDEST PUSH2 0x365 PUSH2 0x10BF JUMP JUMPDEST PUSH2 0x342 PUSH2 0x591 CALLDATASIZE PUSH1 0x4 PUSH2 0x3522 JUMP JUMPDEST PUSH2 0x12AC JUMP JUMPDEST PUSH2 0x365 PUSH1 0xA SLOAD DUP2 JUMP JUMPDEST PUSH2 0x365 PUSH2 0x12FB JUMP JUMPDEST PUSH2 0x365 PUSH2 0x5B5 CALLDATASIZE PUSH1 0x4 PUSH2 0x36F3 JUMP JUMPDEST PUSH2 0x1393 JUMP JUMPDEST PUSH2 0x365 PUSH2 0x5C8 CALLDATASIZE PUSH1 0x4 PUSH2 0x3567 JUMP JUMPDEST PUSH2 0x13E2 JUMP JUMPDEST PUSH2 0x365 PUSH2 0x146F JUMP JUMPDEST PUSH2 0x5E8 PUSH2 0x5E3 CALLDATASIZE PUSH1 0x4 PUSH2 0x3567 JUMP JUMPDEST PUSH2 0x14BF JUMP JUMPDEST PUSH1 0x40 DUP1 MLOAD SWAP5 DUP6 MSTORE PUSH1 0x20 DUP6 ADD SWAP4 SWAP1 SWAP4 MSTORE SWAP2 DUP4 ADD MSTORE PUSH1 0x60 DUP3 ADD MSTORE PUSH1 0x80 ADD PUSH2 0x326 JUMP JUMPDEST PUSH2 0x365 PUSH2 0x616 CALLDATASIZE PUSH1 0x4 PUSH2 0x354E JUMP JUMPDEST PUSH2 0x1500 JUMP JUMPDEST PUSH2 0x365 PUSH2 0x629 CALLDATASIZE PUSH1 0x4 PUSH2 0x354E JUMP JUMPDEST PUSH2 0x150B JUMP JUMPDEST PUSH2 0x365 PUSH2 0x63C CALLDATASIZE PUSH1 0x4 PUSH2 0x37D6 JUMP JUMPDEST PUSH1 0x1 PUSH1 0x1 PUSH1 0xA0 SHL SUB SWAP2 DUP3 AND PUSH1 0x0 SWAP1 DUP2 MSTORE PUSH1 0xF PUSH1 0x20 SWAP1 DUP2 MSTORE PUSH1 0x40 DUP1 DUP4 KECCAK256 SWAP4 SWAP1 SWAP5 AND DUP3 MSTORE SWAP2 SWAP1 SWAP2 MSTORE KECCAK256 SLOAD SWAP1 JUMP JUMPDEST PUSH2 0x365 PUSH2 0x1516 JUMP JUMPDEST PUSH2 0x365 PUSH2 0x67D CALLDATASIZE PUSH1 0x4 PUSH2 0x3567 JUMP JUMPDEST PUSH2 0x161D JUMP JUMPDEST PUSH1 0x6 SLOAD PUSH2 0x401 SWAP1 PUSH1 0x1 PUSH1 0x1 PUSH1 0xA0 SHL SUB AND DUP2 JUMP JUMPDEST PUSH2 0x365 PUSH2 0x6A3 CALLDATASIZE PUSH1 0x4 PUSH2 0x380F JUMP JUMPDEST PUSH2 0x1631 JUMP JUMPDEST PUSH1 0x3 SLOAD PUSH2 0x401 SWAP1 PUSH2 0x100 SWAP1 DIV PUSH1 0x1 PUSH1 0x1 PUSH1 0xA0 SHL SUB AND DUP2 JUMP JUMPDEST PUSH2 0x365 PUSH2 0x1648 JUMP JUMPDEST PUSH2 0x365 PUSH2 0x6D6 CALLDATASIZE PUSH1 0x4 PUSH2 0x354E JUMP JUMPDEST PUSH2 0x169B JUMP JUMPDEST PUSH2 0x342 PUSH1 0x1 DUP2 JUMP JUMPDEST PUSH1 0x1 DUP1 SLOAD PUSH2 0x6F0 SWAP1 PUSH2 0x3851 JUMP JUMPDEST DUP1 PUSH1 0x1F ADD PUSH1 0x20 DUP1 SWAP2 DIV MUL PUSH1 0x20 ADD PUSH1 0x40 MLOAD SWAP1 DUP2 ADD PUSH1 0x40 MSTORE DUP1 SWAP3 SWAP2 SWAP1 DUP2 DUP2 MSTORE PUSH1 0x20 ADD DUP3 DUP1 SLOAD PUSH2 0x71C SWAP1 PUSH2 0x3851 JUMP JUMPDEST DUP1 ISZERO PUSH2 0x769 JUMPI DUP1 PUSH1 0x1F LT PUSH2 0x73E JUMPI PUSH2 0x100 DUP1 DUP4 SLOAD DIV MUL DUP4 MSTORE SWAP2 PUSH1 0x20 ADD SWAP2 PUSH2 0x769 JUMP JUMPDEST DUP3 ADD SWAP2 SWAP1 PUSH1 0x0 MSTORE PUSH1 0x20 PUSH1 0x0 KECCAK256 SWAP1 JUMPDEST DUP2 SLOAD DUP2 MSTORE SWAP1 PUSH1 0x1 ADD SWAP1 PUSH1 0x20 ADD DUP1 DUP4 GT PUSH2 0x74C JUMPI DUP3 SWAP1 SUB PUSH1 0x1F AND DUP3 ADD SWAP2 JUMPDEST POP POP POP POP POP DUP2 JUMP JUMPDEST CALLER PUSH1 0x0 DUP2 DUP2 MSTORE PUSH1 0xF PUSH1 0x20 SWAP1 DUP2 MSTORE PUSH1 0x40 DUP1 DUP4 KECCAK256 PUSH1 0x1 PUSH1 0x1 PUSH1 0xA0 SHL SUB DUP8 AND DUP1 DUP6 MSTORE SWAP3 MSTORE DUP1 DUP4 KECCAK256 DUP6 SWAP1 SSTORE MLOAD SWAP2 SWAP3 SWAP2 DUP3 SWAP1 PUSH32 0x8C5BE1E5EBEC7D5BD14F71427D1E84F3DD0314C0F7B2291E5B200AC8C7C3B925 SWAP1 PUSH2 0x7CD SWAP1 DUP8 DUP2 MSTORE PUSH1 0x20 ADD SWAP1 JUMP JUMPDEST PUSH1 0x40 MLOAD DUP1 SWAP2 SUB SWAP1 LOG3 POP PUSH1 0x1 SWAP4 SWAP3 POP POP POP JUMP JUMPDEST PUSH1 0x0 PUSH2 0x7EA DUP3 PUSH2 0x16DA JUMP JUMPDEST POP PUSH1 0x0 SWAP2 SWAP1 POP JUMP JUMPDEST PUSH1 0x0 DUP1 SLOAD PUSH1 0xFF AND PUSH2 0x81E JUMPI PUSH1 0x40 MLOAD PUSH3 0x461BCD PUSH1 0xE5 SHL DUP2 MSTORE PUSH1 0x4 ADD PUSH2 0x815 SWAP1 PUSH2 0x388C JUMP JUMPDEST PUSH1 0x40 MLOAD DUP1 SWAP2 SUB SWAP1 REVERT JUMPDEST PUSH1 0x0 DUP1 SLOAD PUSH1 0xFF NOT AND SWAP1 SSTORE PUSH2 0x830 PUSH2 0x10BF JUMP JUMPDEST POP PUSH2 0x83A DUP3 PUSH2 0xE4E JUMP JUMPDEST SWAP1 POP PUSH1 0x0 DUP1 SLOAD PUSH1 0xFF NOT AND PUSH1 0x1 OR SWAP1 SSTORE SWAP2 SWAP1 POP JUMP JUMPDEST PUSH1 0x0 PUSH2 0x858 PUSH2 0x172B JUMP JUMPDEST SWAP1 POP SWAP1 JUMP JUMPDEST PUSH2 0x86B DUP7 DUP7 DUP7 DUP7 DUP7 DUP7 PUSH2 0xE59 JUMP JUMPDEST PUSH1 0x11 DUP1 SLOAD PUSH1 0x1 PUSH1 0x1 PUSH1 0xA0 SHL SUB NOT AND PUSH1 0x1 PUSH1 0x1 PUSH1 0xA0 SHL SUB DUP10 AND SWAP1 DUP2 OR SWAP1 SWAP2 SSTORE PUSH1 0x40 DUP1 MLOAD PUSH4 0x18160DDD PUSH1 0xE0 SHL DUP2 MSTORE SWAP1 MLOAD PUSH4 0x18160DDD SWAP2 PUSH1 0x4 DUP1 DUP3 ADD SWAP3 PUSH1 0x20 SWAP3 SWAP1 SWAP2 SWAP1 DUP3 SWAP1 SUB ADD DUP2 DUP7 GAS STATICCALL ISZERO DUP1 ISZERO PUSH2 0x8C4 JUMPI RETURNDATASIZE PUSH1 0x0 DUP1 RETURNDATACOPY RETURNDATASIZE PUSH1 0x0 REVERT JUMPDEST POP POP POP POP PUSH1 0x40 MLOAD RETURNDATASIZE PUSH1 0x1F NOT PUSH1 0x1F DUP3 ADD AND DUP3 ADD DUP1 PUSH1 0x40 MSTORE POP DUP2 ADD SWAP1 PUSH2 0x8E8 SWAP2 SWAP1 PUSH2 0x38B0 JUMP JUMPDEST POP POP POP POP POP POP POP POP JUMP JUMPDEST PUSH1 0x3 SLOAD PUSH2 0x100 SWAP1 DIV PUSH1 0x1 PUSH1 0x1 PUSH1 0xA0 SHL SUB AND CALLER EQ PUSH2 0x969 JUMPI PUSH1 0x40 MLOAD PUSH3 0x461BCD PUSH1 0xE5 SHL DUP2 MSTORE PUSH1 0x20 PUSH1 0x4 DUP3 ADD MSTORE PUSH1 0x2F PUSH1 0x24 DUP3 ADD MSTORE PUSH32 0x4345726332303A3A7377656570546F6B656E3A206F6E6C792061646D696E2063 PUSH1 0x44 DUP3 ADD MSTORE PUSH15 0x616E20737765657020746F6B656E73 PUSH1 0x88 SHL PUSH1 0x64 DUP3 ADD MSTORE PUSH1 0x84 ADD PUSH2 0x815 JUMP JUMPDEST PUSH1 0x11 SLOAD PUSH1 0x1 PUSH1 0x1 PUSH1 0xA0 SHL SUB DUP3 DUP2 AND SWAP2 AND EQ ISZERO PUSH2 0x9E2 JUMPI PUSH1 0x40 MLOAD PUSH3 0x461BCD PUSH1 0xE5 SHL DUP2 MSTORE PUSH1 0x20 PUSH1 0x4 DUP3 ADD MSTORE PUSH1 0x32 PUSH1 0x24 DUP3 ADD MSTORE PUSH32 0x4345726332303A3A7377656570546F6B656E3A2063616E206E6F742073776565 PUSH1 0x44 DUP3 ADD MSTORE PUSH18 0x38103AB73232B9363CB4B733903A37B5B2B7 PUSH1 0x71 SHL PUSH1 0x64 DUP3 ADD MSTORE PUSH1 0x84 ADD PUSH2 0x815 JUMP JUMPDEST PUSH1 0x40 MLOAD PUSH4 0x70A08231 PUSH1 0xE0 SHL DUP2 MSTORE ADDRESS PUSH1 0x4 DUP3 ADD MSTORE PUSH1 0x0 SWAP1 PUSH1 0x1 PUSH1 0x1 PUSH1 0xA0 SHL SUB DUP4 AND SWAP1 PUSH4 0x70A08231 SWAP1 PUSH1 0x24 ADD PUSH1 0x20 PUSH1 0x40 MLOAD DUP1 DUP4 SUB DUP2 DUP7 GAS STATICCALL ISZERO DUP1 ISZERO PUSH2 0xA29 JUMPI RETURNDATASIZE PUSH1 0x0 DUP1 RETURNDATACOPY RETURNDATASIZE PUSH1 0x0 REVERT JUMPDEST POP POP POP POP PUSH1 0x40 MLOAD RETURNDATASIZE PUSH1 0x1F NOT PUSH1 0x1F DUP3 ADD AND DUP3 ADD DUP1 PUSH1 0x40 MSTORE POP DUP2 ADD SWAP1 PUSH2 0xA4D SWAP2 SWAP1 PUSH2 0x38B0 JUMP JUMPDEST PUSH1 0x3 SLOAD PUSH1 0x40 MLOAD PUSH4 0xA9059CBB PUSH1 0xE0 SHL DUP2 MSTORE PUSH1 0x1 PUSH1 0x1 PUSH1 0xA0 SHL SUB PUSH2 0x100 SWAP1 SWAP3 DIV DUP3 AND PUSH1 0x4 DUP3 ADD MSTORE PUSH1 0x24 DUP2 ADD DUP4 SWAP1 MSTORE SWAP2 SWAP3 POP DUP4 AND SWAP1 PUSH4 0xA9059CBB SWAP1 PUSH1 0x44 ADD PUSH1 0x0 PUSH1 0x40 MLOAD DUP1 DUP4 SUB DUP2 PUSH1 0x0 DUP8 DUP1 EXTCODESIZE ISZERO DUP1 ISZERO PUSH2 0xAA2 JUMPI PUSH1 0x0 DUP1 REVERT JUMPDEST POP GAS CALL ISZERO DUP1 ISZERO PUSH2 0xAB6 JUMPI RETURNDATASIZE PUSH1 0x0 DUP1 RETURNDATACOPY RETURNDATASIZE PUSH1 0x0 REVERT JUMPDEST POP POP POP POP POP POP JUMP JUMPDEST PUSH1 0x0 DUP1 SLOAD PUSH1 0xFF AND PUSH2 0xAE1 JUMPI PUSH1 0x40 MLOAD PUSH3 0x461BCD PUSH1 0xE5 SHL DUP2 MSTORE PUSH1 0x4 ADD PUSH2 0x815 SWAP1 PUSH2 0x388C JUMP JUMPDEST PUSH1 0x0 DUP1 SLOAD PUSH1 0xFF NOT AND DUP2 SSTORE PUSH2 0xAF7 CALLER DUP7 DUP7 DUP7 PUSH2 0x1795 JUMP JUMPDEST EQ SWAP1 POP PUSH1 0x0 DUP1 SLOAD PUSH1 0xFF NOT AND PUSH1 0x1 OR SWAP1 SSTORE SWAP4 SWAP3 POP POP POP JUMP JUMPDEST PUSH1 0x0 PUSH2 0xB1A DUP4 DUP4 PUSH2 0x19C3 JUMP JUMPDEST POP PUSH1 0x0 SWAP3 SWAP2 POP POP JUMP JUMPDEST PUSH1 0x0 DUP1 PUSH1 0x40 MLOAD DUP1 PUSH1 0x20 ADD PUSH1 0x40 MSTORE DUP1 PUSH2 0xB39 PUSH2 0x146F JUMP JUMPDEST SWAP1 MSTORE PUSH1 0x1 PUSH1 0x1 PUSH1 0xA0 SHL SUB DUP5 AND PUSH1 0x0 SWAP1 DUP2 MSTORE PUSH1 0xE PUSH1 0x20 MSTORE PUSH1 0x40 SWAP1 KECCAK256 SLOAD SWAP1 SWAP2 POP PUSH2 0xB62 SWAP1 DUP3 SWAP1 PUSH2 0x1A15 JUMP JUMPDEST SWAP4 SWAP3 POP POP POP JUMP JUMPDEST PUSH1 0x0 PUSH2 0x858 PUSH2 0x1A35 JUMP JUMPDEST PUSH1 0x0 PUSH2 0xB7E DUP3 PUSH2 0x1AAA JUMP JUMPDEST SWAP3 SWAP2 POP POP JUMP JUMPDEST PUSH1 0x3 SLOAD PUSH1 0x0 SWAP1 PUSH2 0x100 SWAP1 DIV PUSH1 0x1 PUSH1 0x1 PUSH1 0xA0 SHL SUB AND CALLER EQ PUSH2 0xBB7 JUMPI PUSH1 0x40 MLOAD PUSH4 0xD219DC1F PUSH1 0xE0 SHL DUP2 MSTORE PUSH1 0x4 ADD PUSH1 0x40 MLOAD DUP1 SWAP2 SUB SWAP1 REVERT JUMPDEST PUSH1 0x5 SLOAD PUSH1 0x40 DUP1 MLOAD PUSH3 0x3F1EE9 PUSH1 0xE1 SHL DUP2 MSTORE SWAP1 MLOAD PUSH1 0x1 PUSH1 0x1 PUSH1 0xA0 SHL SUB SWAP3 DUP4 AND SWAP3 DUP6 AND SWAP2 PUSH3 0x7E3DD2 SWAP2 PUSH1 0x4 DUP1 DUP4 ADD SWAP3 PUSH1 0x20 SWAP3 SWAP2 SWAP1 DUP3 SWAP1 SUB ADD DUP2 DUP7 GAS STATICCALL ISZERO DUP1 ISZERO PUSH2 0xC01 JUMPI RETURNDATASIZE PUSH1 0x0 DUP1 RETURNDATACOPY RETURNDATASIZE PUSH1 0x0 REVERT JUMPDEST POP POP POP POP PUSH1 0x40 MLOAD RETURNDATASIZE PUSH1 0x1F NOT PUSH1 0x1F DUP3 ADD AND DUP3 ADD DUP1 PUSH1 0x40 MSTORE POP DUP2 ADD SWAP1 PUSH2 0xC25 SWAP2 SWAP1 PUSH2 0x38C9 JUMP JUMPDEST PUSH2 0xC71 JUMPI PUSH1 0x40 MLOAD PUSH3 0x461BCD PUSH1 0xE5 SHL DUP2 MSTORE PUSH1 0x20 PUSH1 0x4 DUP3 ADD MSTORE PUSH1 0x1C PUSH1 0x24 DUP3 ADD MSTORE PUSH32 0x6D61726B6572206D6574686F642072657475726E65642066616C736500000000 PUSH1 0x44 DUP3 ADD MSTORE PUSH1 0x64 ADD PUSH2 0x815 JUMP JUMPDEST PUSH1 0x5 DUP1 SLOAD PUSH1 0x1 PUSH1 0x1 PUSH1 0xA0 SHL SUB NOT AND PUSH1 0x1 PUSH1 0x1 PUSH1 0xA0 SHL SUB DUP6 DUP2 AND SWAP2 DUP3 OR SWAP1 SWAP3 SSTORE PUSH1 0x40 DUP1 MLOAD SWAP3 DUP5 AND DUP4 MSTORE PUSH1 0x20 DUP4 ADD SWAP2 SWAP1 SWAP2 MSTORE PUSH32 0x7AC369DBD14FA5EA3F473ED67CC9D598964A77501540BA6751EB0B3DECF5870D SWAP2 ADD JUMPDEST PUSH1 0x40 MLOAD DUP1 SWAP2 SUB SWAP1 LOG1 POP PUSH1 0x0 SWAP3 SWAP2 POP POP JUMP JUMPDEST PUSH1 0x0 DUP1 SLOAD PUSH1 0xFF AND PUSH2 0xCF9 JUMPI PUSH1 0x40 MLOAD PUSH3 0x461BCD PUSH1 0xE5 SHL DUP2 MSTORE PUSH1 0x4 ADD PUSH2 0x815 SWAP1 PUSH2 0x388C JUMP JUMPDEST PUSH1 0x0 DUP1 SLOAD PUSH1 0xFF NOT AND SWAP1 SSTORE PUSH2 0xD0B PUSH2 0x10BF JUMP JUMPDEST POP PUSH2 0x83A DUP3 PUSH2 0x1B01 JUMP JUMPDEST PUSH1 0x0 DUP1 SLOAD PUSH1 0xFF AND PUSH2 0xD38 JUMPI PUSH1 0x40 MLOAD PUSH3 0x461BCD PUSH1 0xE5 SHL DUP2 MSTORE PUSH1 0x4 ADD PUSH2 0x815 SWAP1 PUSH2 0x388C JUMP JUMPDEST PUSH1 0x0 DUP1 SLOAD PUSH1 0xFF NOT AND SWAP1 SSTORE PUSH2 0xD4A PUSH2 0x10BF JUMP JUMPDEST POP POP PUSH1 0xB SLOAD PUSH1 0x0 DUP1 SLOAD PUSH1 0xFF NOT AND PUSH1 0x1 OR SWAP1 SSTORE SWAP1 JUMP JUMPDEST PUSH1 0x3 SLOAD PUSH2 0x100 SWAP1 DIV PUSH1 0x1 PUSH1 0x1 PUSH1 0xA0 SHL SUB AND CALLER EQ PUSH2 0xDD4 JUMPI PUSH1 0x40 MLOAD PUSH3 0x461BCD PUSH1 0xE5 SHL DUP2 MSTORE PUSH1 0x20 PUSH1 0x4 DUP3 ADD MSTORE PUSH1 0x2D PUSH1 0x24 DUP3 ADD MSTORE PUSH32 0x6F6E6C79207468652061646D696E206D6179207365742074686520636F6D702D PUSH1 0x44 DUP3 ADD MSTORE PUSH13 0x6C696B652064656C6567617465 PUSH1 0x98 SHL PUSH1 0x64 DUP3 ADD MSTORE PUSH1 0x84 ADD PUSH2 0x815 JUMP JUMPDEST PUSH1 0x11 SLOAD PUSH1 0x40 MLOAD PUSH4 0x17066A57 PUSH1 0xE2 SHL DUP2 MSTORE PUSH1 0x1 PUSH1 0x1 PUSH1 0xA0 SHL SUB DUP4 DUP2 AND PUSH1 0x4 DUP4 ADD MSTORE SWAP1 SWAP2 AND SWAP1 PUSH4 0x5C19A95C SWAP1 PUSH1 0x24 ADD PUSH1 0x0 PUSH1 0x40 MLOAD DUP1 DUP4 SUB DUP2 PUSH1 0x0 DUP8 DUP1 EXTCODESIZE ISZERO DUP1 ISZERO PUSH2 0xE1B JUMPI PUSH1 0x0 DUP1 REVERT JUMPDEST POP GAS CALL ISZERO DUP1 ISZERO PUSH2 0xE2F JUMPI RETURNDATASIZE PUSH1 0x0 DUP1 RETURNDATACOPY RETURNDATASIZE PUSH1 0x0 REVERT JUMPDEST POP POP POP POP POP JUMP JUMPDEST PUSH1 0x0 PUSH2 0x7EA DUP3 PUSH2 0x1C1C JUMP JUMPDEST PUSH1 0x2 DUP1 SLOAD PUSH2 0x6F0 SWAP1 PUSH2 0x3851 JUMP JUMPDEST PUSH1 0x0 PUSH2 0xB7E DUP3 PUSH2 0x1C6D JUMP JUMPDEST PUSH1 0x3 SLOAD PUSH2 0x100 SWAP1 DIV PUSH1 0x1 PUSH1 0x1 PUSH1 0xA0 SHL SUB AND CALLER EQ PUSH2 0xEC4 JUMPI PUSH1 0x40 MLOAD PUSH3 0x461BCD PUSH1 0xE5 SHL DUP2 MSTORE PUSH1 0x20 PUSH1 0x4 DUP3 ADD MSTORE PUSH1 0x24 DUP1 DUP3 ADD MSTORE PUSH32 0x6F6E6C792061646D696E206D617920696E697469616C697A6520746865206D61 PUSH1 0x44 DUP3 ADD MSTORE PUSH4 0x1C9AD95D PUSH1 0xE2 SHL PUSH1 0x64 DUP3 ADD MSTORE PUSH1 0x84 ADD PUSH2 0x815 JUMP JUMPDEST PUSH1 0x9 SLOAD ISZERO DUP1 ISZERO PUSH2 0xED4 JUMPI POP PUSH1 0xA SLOAD ISZERO JUMPDEST PUSH2 0xF2C JUMPI PUSH1 0x40 MLOAD PUSH3 0x461BCD PUSH1 0xE5 SHL DUP2 MSTORE PUSH1 0x20 PUSH1 0x4 DUP3 ADD MSTORE PUSH1 0x23 PUSH1 0x24 DUP3 ADD MSTORE PUSH32 0x6D61726B6574206D6179206F6E6C7920626520696E697469616C697A6564206F PUSH1 0x44 DUP3 ADD MSTORE PUSH3 0x6E6365 PUSH1 0xE8 SHL PUSH1 0x64 DUP3 ADD MSTORE PUSH1 0x84 ADD PUSH2 0x815 JUMP JUMPDEST PUSH1 0x7 DUP5 SWAP1 SSTORE DUP4 PUSH2 0xF97 JUMPI PUSH1 0x40 MLOAD PUSH3 0x461BCD PUSH1 0xE5 SHL DUP2 MSTORE PUSH1 0x20 PUSH1 0x4 DUP3 ADD MSTORE PUSH1 0x30 PUSH1 0x24 DUP3 ADD MSTORE PUSH32 0x696E697469616C2065786368616E67652072617465206D757374206265206772 PUSH1 0x44 DUP3 ADD MSTORE PUSH16 0x32B0BA32B9103A3430B7103D32B93797 PUSH1 0x81 SHL PUSH1 0x64 DUP3 ADD MSTORE PUSH1 0x84 ADD PUSH2 0x815 JUMP JUMPDEST PUSH1 0x0 PUSH2 0xFA2 DUP8 PUSH2 0xB84 JUMP JUMPDEST SWAP1 POP DUP1 ISZERO PUSH2 0xFF2 JUMPI PUSH1 0x40 MLOAD PUSH3 0x461BCD PUSH1 0xE5 SHL DUP2 MSTORE PUSH1 0x20 PUSH1 0x4 DUP3 ADD MSTORE PUSH1 0x1A PUSH1 0x24 DUP3 ADD MSTORE PUSH32 0x73657474696E6720636F6D7074726F6C6C6572206661696C6564000000000000 PUSH1 0x44 DUP3 ADD MSTORE PUSH1 0x64 ADD PUSH2 0x815 JUMP JUMPDEST TIMESTAMP PUSH1 0x9 SSTORE PUSH8 0xDE0B6B3A7640000 PUSH1 0xA SSTORE PUSH2 0x100B DUP7 PUSH2 0x1CB7 JUMP JUMPDEST SWAP1 POP DUP1 ISZERO PUSH2 0x1066 JUMPI PUSH1 0x40 MLOAD PUSH3 0x461BCD PUSH1 0xE5 SHL DUP2 MSTORE PUSH1 0x20 PUSH1 0x4 DUP3 ADD MSTORE PUSH1 0x22 PUSH1 0x24 DUP3 ADD MSTORE PUSH32 0x73657474696E6720696E7465726573742072617465206D6F64656C206661696C PUSH1 0x44 DUP3 ADD MSTORE PUSH2 0x1959 PUSH1 0xF2 SHL PUSH1 0x64 DUP3 ADD MSTORE PUSH1 0x84 ADD PUSH2 0x815 JUMP JUMPDEST DUP4 MLOAD PUSH2 0x1079 SWAP1 PUSH1 0x1 SWAP1 PUSH1 0x20 DUP8 ADD SWAP1 PUSH2 0x3425 JUMP JUMPDEST POP DUP3 MLOAD PUSH2 0x108D SWAP1 PUSH1 0x2 SWAP1 PUSH1 0x20 DUP7 ADD SWAP1 PUSH2 0x3425 JUMP JUMPDEST POP POP PUSH1 0x3 DUP1 SLOAD PUSH1 0xFF SWAP1 SWAP3 AND PUSH1 0xFF NOT SWAP3 DUP4 AND OR SWAP1 SSTORE PUSH1 0x0 DUP1 SLOAD SWAP1 SWAP2 AND PUSH1 0x1 OR SWAP1 SSTORE POP POP POP POP POP JUMP JUMPDEST PUSH1 0x0 PUSH2 0x7EA DUP3 PUSH2 0x1E2C JUMP JUMPDEST PUSH1 0x9 SLOAD PUSH1 0x0 SWAP1 TIMESTAMP SWAP1 DUP1 DUP3 EQ ISZERO PUSH2 0x10D8 JUMPI PUSH1 0x0 SWAP3 POP POP POP SWAP1 JUMP JUMPDEST PUSH1 0x0 PUSH2 0x10E2 PUSH2 0x1A35 JUMP JUMPDEST PUSH1 0xB SLOAD PUSH1 0xC SLOAD PUSH1 0xA SLOAD PUSH1 0x6 SLOAD PUSH1 0x40 MLOAD PUSH4 0x15F24053 PUSH1 0xE0 SHL DUP2 MSTORE PUSH1 0x4 DUP2 ADD DUP7 SWAP1 MSTORE PUSH1 0x24 DUP2 ADD DUP6 SWAP1 MSTORE PUSH1 0x44 DUP2 ADD DUP5 SWAP1 MSTORE SWAP5 SWAP6 POP SWAP3 SWAP4 SWAP2 SWAP3 SWAP1 SWAP2 PUSH1 0x0 SWAP2 PUSH1 0x1 PUSH1 0x1 PUSH1 0xA0 SHL SUB AND SWAP1 PUSH4 0x15F24053 SWAP1 PUSH1 0x64 ADD PUSH1 0x20 PUSH1 0x40 MLOAD DUP1 DUP4 SUB DUP2 DUP7 GAS STATICCALL ISZERO DUP1 ISZERO PUSH2 0x114C JUMPI RETURNDATASIZE PUSH1 0x0 DUP1 RETURNDATACOPY RETURNDATASIZE PUSH1 0x0 REVERT JUMPDEST POP POP POP POP PUSH1 0x40 MLOAD RETURNDATASIZE PUSH1 0x1F NOT PUSH1 0x1F DUP3 ADD AND DUP3 ADD DUP1 PUSH1 0x40 MSTORE POP DUP2 ADD SWAP1 PUSH2 0x1170 SWAP2 SWAP1 PUSH2 0x38B0 JUMP JUMPDEST SWAP1 POP PUSH5 0x5D21DBA000 DUP2 GT ISZERO PUSH2 0x11C7 JUMPI PUSH1 0x40 MLOAD PUSH3 0x461BCD PUSH1 0xE5 SHL DUP2 MSTORE PUSH1 0x20 PUSH1 0x4 DUP3 ADD MSTORE PUSH1 0x1C PUSH1 0x24 DUP3 ADD MSTORE PUSH32 0x626F72726F772072617465206973206162737572646C79206869676800000000 PUSH1 0x44 DUP3 ADD MSTORE PUSH1 0x64 ADD PUSH2 0x815 JUMP JUMPDEST PUSH1 0x0 PUSH2 0x11D3 DUP8 DUP10 PUSH2 0x3901 JUMP JUMPDEST SWAP1 POP PUSH1 0x0 PUSH2 0x11EF PUSH1 0x40 MLOAD DUP1 PUSH1 0x20 ADD PUSH1 0x40 MSTORE DUP1 DUP6 DUP2 MSTORE POP DUP4 PUSH2 0x1E6B JUMP JUMPDEST SWAP1 POP PUSH1 0x0 PUSH2 0x11FD DUP3 DUP9 PUSH2 0x1A15 JUMP JUMPDEST SWAP1 POP PUSH1 0x0 PUSH2 0x120B DUP9 DUP4 PUSH2 0x3918 JUMP JUMPDEST SWAP1 POP PUSH1 0x0 PUSH2 0x122A PUSH1 0x40 MLOAD DUP1 PUSH1 0x20 ADD PUSH1 0x40 MSTORE DUP1 PUSH1 0x8 SLOAD DUP2 MSTORE POP DUP5 DUP11 PUSH2 0x1E9C JUMP JUMPDEST SWAP1 POP PUSH1 0x0 PUSH2 0x1239 DUP6 DUP10 DUP11 PUSH2 0x1E9C JUMP JUMPDEST PUSH1 0x9 DUP15 SWAP1 SSTORE PUSH1 0xA DUP2 SWAP1 SSTORE PUSH1 0xB DUP5 SWAP1 SSTORE PUSH1 0xC DUP4 SWAP1 SSTORE PUSH1 0x40 DUP1 MLOAD DUP14 DUP2 MSTORE PUSH1 0x20 DUP2 ADD DUP8 SWAP1 MSTORE SWAP1 DUP2 ADD DUP3 SWAP1 MSTORE PUSH1 0x60 DUP2 ADD DUP6 SWAP1 MSTORE SWAP1 SWAP2 POP PUSH32 0x4DEC04E750CA11537CABCD8A9EAB06494DE08DA3735BC8871CD41250E190BC04 SWAP1 PUSH1 0x80 ADD PUSH1 0x40 MLOAD DUP1 SWAP2 SUB SWAP1 LOG1 PUSH1 0x0 SWAP14 POP POP POP POP POP POP POP POP POP POP POP POP POP POP SWAP1 JUMP JUMPDEST PUSH1 0x0 DUP1 SLOAD PUSH1 0xFF AND PUSH2 0x12CF JUMPI PUSH1 0x40 MLOAD PUSH3 0x461BCD PUSH1 0xE5 SHL DUP2 MSTORE PUSH1 0x4 ADD PUSH2 0x815 SWAP1 PUSH2 0x388C JUMP JUMPDEST PUSH1 0x0 DUP1 SLOAD PUSH1 0xFF NOT AND DUP2 SSTORE PUSH2 0x12E5 CALLER DUP1 DUP7 DUP7 PUSH2 0x1795 JUMP JUMPDEST EQ SWAP1 POP PUSH1 0x0 DUP1 SLOAD PUSH1 0xFF NOT AND PUSH1 0x1 OR SWAP1 SSTORE SWAP3 SWAP2 POP POP JUMP JUMPDEST PUSH1 0x6 SLOAD PUSH1 0x0 SWAP1 PUSH1 0x1 PUSH1 0x1 PUSH1 0xA0 SHL SUB AND PUSH4 0xB8168816 PUSH2 0x1317 PUSH2 0x1A35 JUMP JUMPDEST PUSH1 0xB SLOAD PUSH1 0xC SLOAD PUSH1 0x8 SLOAD PUSH1 0x40 MLOAD PUSH1 0x1 PUSH1 0x1 PUSH1 0xE0 SHL SUB NOT PUSH1 0xE0 DUP8 SWAP1 SHL AND DUP2 MSTORE PUSH1 0x4 DUP2 ADD SWAP5 SWAP1 SWAP5 MSTORE PUSH1 0x24 DUP5 ADD SWAP3 SWAP1 SWAP3 MSTORE PUSH1 0x44 DUP4 ADD MSTORE PUSH1 0x64 DUP3 ADD MSTORE PUSH1 0x84 ADD JUMPDEST PUSH1 0x20 PUSH1 0x40 MLOAD DUP1 DUP4 SUB DUP2 DUP7 GAS STATICCALL ISZERO DUP1 ISZERO PUSH2 0x136F JUMPI RETURNDATASIZE PUSH1 0x0 DUP1 RETURNDATACOPY RETURNDATASIZE PUSH1 0x0 REVERT JUMPDEST POP POP POP POP PUSH1 0x40 MLOAD RETURNDATASIZE PUSH1 0x1F NOT PUSH1 0x1F DUP3 ADD AND DUP3 ADD DUP1 PUSH1 0x40 MSTORE POP DUP2 ADD SWAP1 PUSH2 0x858 SWAP2 SWAP1 PUSH2 0x38B0 JUMP JUMPDEST PUSH1 0x0 DUP1 SLOAD PUSH1 0xFF AND PUSH2 0x13B6 JUMPI PUSH1 0x40 MLOAD PUSH3 0x461BCD PUSH1 0xE5 SHL DUP2 MSTORE PUSH1 0x4 ADD PUSH2 0x815 SWAP1 PUSH2 0x388C JUMP JUMPDEST PUSH1 0x0 DUP1 SLOAD PUSH1 0xFF NOT AND SWAP1 SSTORE PUSH2 0x13CC CALLER DUP6 DUP6 DUP6 PUSH2 0x1EBD JUMP JUMPDEST POP PUSH1 0x0 DUP1 DUP1 SLOAD PUSH1 0xFF NOT AND PUSH1 0x1 OR SWAP1 SSTORE SWAP4 SWAP3 POP POP POP JUMP JUMPDEST PUSH1 0x3 SLOAD PUSH1 0x0 SWAP1 PUSH2 0x100 SWAP1 DIV PUSH1 0x1 PUSH1 0x1 PUSH1 0xA0 SHL SUB AND CALLER EQ PUSH2 0x1415 JUMPI PUSH1 0x40 MLOAD PUSH4 0x5CB56C2B PUSH1 0xE0 SHL DUP2 MSTORE PUSH1 0x4 ADD PUSH1 0x40 MLOAD DUP1 SWAP2 SUB SWAP1 REVERT JUMPDEST PUSH1 0x4 DUP1 SLOAD PUSH1 0x1 PUSH1 0x1 PUSH1 0xA0 SHL SUB DUP5 DUP2 AND PUSH1 0x1 PUSH1 0x1 PUSH1 0xA0 SHL SUB NOT DUP4 AND DUP2 OR SWAP1 SWAP4 SSTORE PUSH1 0x40 DUP1 MLOAD SWAP2 SWAP1 SWAP3 AND DUP1 DUP3 MSTORE PUSH1 0x20 DUP3 ADD SWAP4 SWAP1 SWAP4 MSTORE PUSH32 0xCA4F2F25D0898EDD99413412FB94012F9E54EC8142F9B093E7720646A95B16A9 SWAP2 ADD PUSH2 0xCC5 JUMP JUMPDEST PUSH1 0x0 DUP1 SLOAD PUSH1 0xFF AND PUSH2 0x1492 JUMPI PUSH1 0x40 MLOAD PUSH3 0x461BCD PUSH1 0xE5 SHL DUP2 MSTORE PUSH1 0x4 ADD PUSH2 0x815 SWAP1 PUSH2 0x388C JUMP JUMPDEST PUSH1 0x0 DUP1 SLOAD PUSH1 0xFF NOT AND SWAP1 SSTORE PUSH2 0x14A4 PUSH2 0x10BF JUMP JUMPDEST POP PUSH2 0x14AD PUSH2 0x84E JUMP JUMPDEST SWAP1 POP PUSH1 0x0 DUP1 SLOAD PUSH1 0xFF NOT AND PUSH1 0x1 OR SWAP1 SSTORE SWAP1 JUMP JUMPDEST PUSH1 0x1 PUSH1 0x1 PUSH1 0xA0 SHL SUB DUP2 AND PUSH1 0x0 SWAP1 DUP2 MSTORE PUSH1 0xE PUSH1 0x20 MSTORE PUSH1 0x40 DUP2 KECCAK256 SLOAD DUP2 SWAP1 DUP2 SWAP1 DUP2 SWAP1 DUP2 SWAP1 PUSH2 0x14E9 DUP8 PUSH2 0x1C6D JUMP JUMPDEST PUSH2 0x14F1 PUSH2 0x172B JUMP JUMPDEST SWAP4 POP SWAP4 POP SWAP4 POP SWAP4 POP SWAP2 SWAP4 POP SWAP2 SWAP4 JUMP JUMPDEST PUSH1 0x0 PUSH2 0x7EA DUP3 PUSH2 0x2136 JUMP JUMPDEST PUSH1 0x0 PUSH2 0x7EA DUP3 PUSH2 0x2175 JUMP JUMPDEST PUSH1 0x4 SLOAD PUSH1 0x0 SWAP1 PUSH1 0x1 PUSH1 0x1 PUSH1 0xA0 SHL SUB AND CALLER EQ ISZERO DUP1 PUSH2 0x1531 JUMPI POP CALLER ISZERO JUMPDEST ISZERO PUSH2 0x154F JUMPI PUSH1 0x40 MLOAD PUSH4 0x1BA24F29 PUSH1 0xE2 SHL DUP2 MSTORE PUSH1 0x4 ADD PUSH1 0x40 MLOAD DUP1 SWAP2 SUB SWAP1 REVERT JUMPDEST PUSH1 0x3 DUP1 SLOAD PUSH1 0x4 DUP1 SLOAD PUSH1 0x1 PUSH1 0x1 PUSH1 0xA0 SHL SUB DUP1 DUP3 AND PUSH2 0x100 DUP2 DUP2 MUL PUSH2 0x100 PUSH1 0x1 PUSH1 0xA8 SHL SUB NOT DUP8 AND OR SWAP7 DUP8 SWAP1 SSTORE PUSH1 0x1 PUSH1 0x1 PUSH1 0xA0 SHL SUB NOT SWAP1 SWAP4 AND SWAP1 SWAP4 SSTORE PUSH1 0x40 DUP1 MLOAD SWAP5 DUP4 SWAP1 DIV DUP3 AND DUP1 DUP7 MSTORE SWAP3 SWAP1 SWAP6 DIV AND PUSH1 0x20 DUP5 ADD MSTORE SWAP3 SWAP1 SWAP2 PUSH32 0xF9FFABCA9C8276E99321725BCB43FB076A6C66A54B7F21C4E8146D8519B417DC SWAP2 ADD PUSH1 0x40 MLOAD DUP1 SWAP2 SUB SWAP1 LOG1 PUSH1 0x4 SLOAD PUSH1 0x40 DUP1 MLOAD PUSH1 0x1 PUSH1 0x1 PUSH1 0xA0 SHL SUB DUP1 DUP6 AND DUP3 MSTORE SWAP1 SWAP3 AND PUSH1 0x20 DUP4 ADD MSTORE PUSH32 0xCA4F2F25D0898EDD99413412FB94012F9E54EC8142F9B093E7720646A95B16A9 SWAP2 ADD PUSH1 0x40 MLOAD DUP1 SWAP2 SUB SWAP1 LOG1 PUSH1 0x0 SWAP3 POP POP POP SWAP1 JUMP JUMPDEST PUSH1 0x0 PUSH2 0x1627 PUSH2 0x10BF JUMP JUMPDEST POP PUSH2 0xB7E DUP3 PUSH2 0x1CB7 JUMP JUMPDEST PUSH1 0x0 PUSH2 0x163E DUP5 DUP5 DUP5 PUSH2 0x21B6 JUMP JUMPDEST POP PUSH1 0x0 SWAP4 SWAP3 POP POP POP JUMP JUMPDEST PUSH1 0x6 SLOAD PUSH1 0x0 SWAP1 PUSH1 0x1 PUSH1 0x1 PUSH1 0xA0 SHL SUB AND PUSH4 0x15F24053 PUSH2 0x1664 PUSH2 0x1A35 JUMP JUMPDEST PUSH1 0xB SLOAD PUSH1 0xC SLOAD PUSH1 0x40 MLOAD PUSH1 0x1 PUSH1 0x1 PUSH1 0xE0 SHL SUB NOT PUSH1 0xE0 DUP7 SWAP1 SHL AND DUP2 MSTORE PUSH1 0x4 DUP2 ADD SWAP4 SWAP1 SWAP4 MSTORE PUSH1 0x24 DUP4 ADD SWAP2 SWAP1 SWAP2 MSTORE PUSH1 0x44 DUP3 ADD MSTORE PUSH1 0x64 ADD PUSH2 0x1352 JUMP JUMPDEST PUSH1 0x0 DUP1 SLOAD PUSH1 0xFF AND PUSH2 0x16BE JUMPI PUSH1 0x40 MLOAD PUSH3 0x461BCD PUSH1 0xE5 SHL DUP2 MSTORE PUSH1 0x4 ADD PUSH2 0x815 SWAP1 PUSH2 0x388C JUMP JUMPDEST PUSH1 0x0 DUP1 SLOAD PUSH1 0xFF NOT AND SWAP1 SSTORE PUSH2 0x16D0 PUSH2 0x10BF JUMP JUMPDEST POP PUSH2 0x83A DUP3 PUSH2 0x2294 JUMP JUMPDEST PUSH1 0x0 SLOAD PUSH1 0xFF AND PUSH2 0x16FC JUMPI PUSH1 0x40 MLOAD PUSH3 0x461BCD PUSH1 0xE5 SHL DUP2 MSTORE PUSH1 0x4 ADD PUSH2 0x815 SWAP1 PUSH2 0x388C JUMP JUMPDEST PUSH1 0x0 DUP1 SLOAD PUSH1 0xFF NOT AND SWAP1 SSTORE PUSH2 0x170E PUSH2 0x10BF JUMP JUMPDEST POP PUSH2 0x171A CALLER CALLER DUP4 PUSH2 0x2350 JUMP JUMPDEST POP POP PUSH1 0x0 DUP1 SLOAD PUSH1 0xFF NOT AND PUSH1 0x1 OR SWAP1 SSTORE JUMP JUMPDEST PUSH1 0xD SLOAD PUSH1 0x0 SWAP1 DUP1 PUSH2 0x173E JUMPI POP POP PUSH1 0x7 SLOAD SWAP1 JUMP JUMPDEST PUSH1 0x0 PUSH2 0x1748 PUSH2 0x1A35 JUMP JUMPDEST SWAP1 POP PUSH1 0x0 PUSH1 0xC SLOAD PUSH1 0xB SLOAD DUP4 PUSH2 0x175D SWAP2 SWAP1 PUSH2 0x3918 JUMP JUMPDEST PUSH2 0x1767 SWAP2 SWAP1 PUSH2 0x3901 JUMP JUMPDEST SWAP1 POP PUSH1 0x0 DUP4 PUSH2 0x177E PUSH8 0xDE0B6B3A7640000 DUP5 PUSH2 0x3930 JUMP JUMPDEST PUSH2 0x1788 SWAP2 SWAP1 PUSH2 0x394F JUMP JUMPDEST SWAP6 SWAP5 POP POP POP POP POP JUMP JUMPDEST POP SWAP1 JUMP JUMPDEST PUSH1 0x5 SLOAD PUSH1 0x40 MLOAD PUSH4 0x17B9B84B PUSH1 0xE3 SHL DUP2 MSTORE ADDRESS PUSH1 0x4 DUP3 ADD MSTORE PUSH1 0x1 PUSH1 0x1 PUSH1 0xA0 SHL SUB DUP6 DUP2 AND PUSH1 0x24 DUP4 ADD MSTORE DUP5 DUP2 AND PUSH1 0x44 DUP4 ADD MSTORE PUSH1 0x64 DUP3 ADD DUP5 SWAP1 MSTORE PUSH1 0x0 SWAP3 DUP4 SWAP3 SWAP2 AND SWAP1 PUSH4 0xBDCDC258 SWAP1 PUSH1 0x84 ADD PUSH1 0x20 PUSH1 0x40 MLOAD DUP1 DUP4 SUB DUP2 PUSH1 0x0 DUP8 GAS CALL ISZERO DUP1 ISZERO PUSH2 0x17FA JUMPI RETURNDATASIZE PUSH1 0x0 DUP1 RETURNDATACOPY RETURNDATASIZE PUSH1 0x0 REVERT JUMPDEST POP POP POP POP PUSH1 0x40 MLOAD RETURNDATASIZE PUSH1 0x1F NOT PUSH1 0x1F DUP3 ADD AND DUP3 ADD DUP1 PUSH1 0x40 MSTORE POP DUP2 ADD SWAP1 PUSH2 0x181E SWAP2 SWAP1 PUSH2 0x38B0 JUMP JUMPDEST SWAP1 POP DUP1 ISZERO PUSH2 0x1842 JUMPI PUSH1 0x40 MLOAD PUSH4 0x89D4277 PUSH1 0xE1 SHL DUP2 MSTORE PUSH1 0x4 DUP2 ADD DUP3 SWAP1 MSTORE PUSH1 0x24 ADD PUSH2 0x815 JUMP JUMPDEST DUP4 PUSH1 0x1 PUSH1 0x1 PUSH1 0xA0 SHL SUB AND DUP6 PUSH1 0x1 PUSH1 0x1 PUSH1 0xA0 SHL SUB AND EQ ISZERO PUSH2 0x1875 JUMPI PUSH1 0x40 MLOAD PUSH4 0x8CD22D19 PUSH1 0xE0 SHL DUP2 MSTORE PUSH1 0x4 ADD PUSH1 0x40 MLOAD DUP1 SWAP2 SUB SWAP1 REVERT JUMPDEST PUSH1 0x0 DUP6 PUSH1 0x1 PUSH1 0x1 PUSH1 0xA0 SHL SUB AND DUP8 PUSH1 0x1 PUSH1 0x1 PUSH1 0xA0 SHL SUB AND EQ ISZERO PUSH2 0x189A JUMPI POP PUSH1 0x0 NOT PUSH2 0x18C2 JUMP JUMPDEST POP PUSH1 0x1 PUSH1 0x1 PUSH1 0xA0 SHL SUB DUP1 DUP7 AND PUSH1 0x0 SWAP1 DUP2 MSTORE PUSH1 0xF PUSH1 0x20 SWAP1 DUP2 MSTORE PUSH1 0x40 DUP1 DUP4 KECCAK256 SWAP4 DUP11 AND DUP4 MSTORE SWAP3 SWAP1 MSTORE KECCAK256 SLOAD JUMPDEST PUSH1 0x0 PUSH2 0x18CE DUP6 DUP4 PUSH2 0x3901 JUMP JUMPDEST PUSH1 0x1 PUSH1 0x1 PUSH1 0xA0 SHL SUB DUP9 AND PUSH1 0x0 SWAP1 DUP2 MSTORE PUSH1 0xE PUSH1 0x20 MSTORE PUSH1 0x40 DUP2 KECCAK256 SLOAD SWAP2 SWAP3 POP SWAP1 PUSH2 0x18F6 SWAP1 DUP8 SWAP1 PUSH2 0x3901 JUMP JUMPDEST PUSH1 0x1 PUSH1 0x1 PUSH1 0xA0 SHL SUB DUP9 AND PUSH1 0x0 SWAP1 DUP2 MSTORE PUSH1 0xE PUSH1 0x20 MSTORE PUSH1 0x40 DUP2 KECCAK256 SLOAD SWAP2 SWAP3 POP SWAP1 PUSH2 0x191E SWAP1 DUP9 SWAP1 PUSH2 0x3918 JUMP JUMPDEST PUSH1 0x1 PUSH1 0x1 PUSH1 0xA0 SHL SUB DUP1 DUP12 AND PUSH1 0x0 SWAP1 DUP2 MSTORE PUSH1 0xE PUSH1 0x20 MSTORE PUSH1 0x40 DUP1 DUP3 KECCAK256 DUP7 SWAP1 SSTORE SWAP2 DUP12 AND DUP2 MSTORE KECCAK256 DUP2 SWAP1 SSTORE SWAP1 POP PUSH1 0x0 NOT DUP5 EQ PUSH2 0x1978 JUMPI PUSH1 0x1 PUSH1 0x1 PUSH1 0xA0 SHL SUB DUP1 DUP11 AND PUSH1 0x0 SWAP1 DUP2 MSTORE PUSH1 0xF PUSH1 0x20 SWAP1 DUP2 MSTORE PUSH1 0x40 DUP1 DUP4 KECCAK256 SWAP4 DUP15 AND DUP4 MSTORE SWAP3 SWAP1 MSTORE KECCAK256 DUP4 SWAP1 SSTORE JUMPDEST DUP8 PUSH1 0x1 PUSH1 0x1 PUSH1 0xA0 SHL SUB AND DUP10 PUSH1 0x1 PUSH1 0x1 PUSH1 0xA0 SHL SUB AND PUSH1 0x0 DUP1 MLOAD PUSH1 0x20 PUSH2 0x39DB DUP4 CODECOPY DUP2 MLOAD SWAP2 MSTORE DUP10 PUSH1 0x40 MLOAD PUSH2 0x19AB SWAP2 DUP2 MSTORE PUSH1 0x20 ADD SWAP1 JUMP JUMPDEST PUSH1 0x40 MLOAD DUP1 SWAP2 SUB SWAP1 LOG3 POP PUSH1 0x0 SWAP10 SWAP9 POP POP POP POP POP POP POP POP POP JUMP JUMPDEST PUSH1 0x0 SLOAD PUSH1 0xFF AND PUSH2 0x19E5 JUMPI PUSH1 0x40 MLOAD PUSH3 0x461BCD PUSH1 0xE5 SHL DUP2 MSTORE PUSH1 0x4 ADD PUSH2 0x815 SWAP1 PUSH2 0x388C JUMP JUMPDEST PUSH1 0x0 DUP1 SLOAD PUSH1 0xFF NOT AND SWAP1 SSTORE PUSH2 0x19F7 PUSH2 0x10BF JUMP JUMPDEST POP PUSH2 0x1A03 CALLER DUP4 DUP4 PUSH2 0x2350 JUMP JUMPDEST POP POP PUSH1 0x0 DUP1 SLOAD PUSH1 0xFF NOT AND PUSH1 0x1 OR SWAP1 SSTORE POP JUMP JUMPDEST PUSH1 0x0 DUP1 PUSH2 0x1A22 DUP5 DUP5 PUSH2 0x1E6B JUMP JUMPDEST SWAP1 POP PUSH2 0x1A2D DUP2 PUSH2 0x24F9 JUMP JUMPDEST SWAP5 SWAP4 POP POP POP POP JUMP JUMPDEST PUSH1 0x11 SLOAD PUSH1 0x40 MLOAD PUSH4 0x70A08231 PUSH1 0xE0 SHL DUP2 MSTORE ADDRESS PUSH1 0x4 DUP3 ADD MSTORE PUSH1 0x0 SWAP2 PUSH1 0x1 PUSH1 0x1 PUSH1 0xA0 SHL SUB AND SWAP1 DUP2 SWAP1 PUSH4 0x70A08231 SWAP1 PUSH1 0x24 ADD PUSH1 0x20 PUSH1 0x40 MLOAD DUP1 DUP4 SUB DUP2 DUP7 GAS STATICCALL ISZERO DUP1 ISZERO PUSH2 0x1A80 JUMPI RETURNDATASIZE PUSH1 0x0 DUP1 RETURNDATACOPY RETURNDATASIZE PUSH1 0x0 REVERT JUMPDEST POP POP POP POP PUSH1 0x40 MLOAD RETURNDATASIZE PUSH1 0x1F NOT PUSH1 0x1F DUP3 ADD AND DUP3 ADD DUP1 PUSH1 0x40 MSTORE POP DUP2 ADD SWAP1 PUSH2 0x1AA4 SWAP2 SWAP1 PUSH2 0x38B0 JUMP JUMPDEST SWAP2 POP POP SWAP1 JUMP JUMPDEST PUSH1 0x0 DUP1 SLOAD PUSH1 0xFF AND PUSH2 0x1ACD JUMPI PUSH1 0x40 MLOAD PUSH3 0x461BCD PUSH1 0xE5 SHL DUP2 MSTORE PUSH1 0x4 ADD PUSH2 0x815 SWAP1 PUSH2 0x388C JUMP JUMPDEST PUSH1 0x0 DUP1 SLOAD PUSH1 0xFF NOT AND SWAP1 SSTORE PUSH2 0x1ADF PUSH2 0x10BF JUMP JUMPDEST POP PUSH2 0x1AE9 DUP3 PUSH2 0x2511 JUMP JUMPDEST POP POP PUSH1 0x0 SWAP1 POP PUSH1 0x0 DUP1 SLOAD PUSH1 0xFF NOT AND PUSH1 0x1 OR SWAP1 SSTORE SWAP2 SWAP1 POP JUMP JUMPDEST PUSH1 0x3 SLOAD PUSH1 0x0 SWAP1 DUP2 SWAP1 PUSH2 0x100 SWAP1 DIV PUSH1 0x1 PUSH1 0x1 PUSH1 0xA0 SHL SUB AND CALLER EQ PUSH2 0x1B36 JUMPI PUSH1 0x40 MLOAD PUSH4 0xF7E5E6D PUSH1 0xE4 SHL DUP2 MSTORE PUSH1 0x4 ADD PUSH1 0x40 MLOAD DUP1 SWAP2 SUB SWAP1 REVERT JUMPDEST TIMESTAMP PUSH1 0x9 SLOAD EQ PUSH2 0x1B58 JUMPI PUSH1 0x40 MLOAD PUSH4 0xDFF50CB PUSH1 0xE4 SHL DUP2 MSTORE PUSH1 0x4 ADD PUSH1 0x40 MLOAD DUP1 SWAP2 SUB SWAP1 REVERT JUMPDEST DUP3 PUSH2 0x1B61 PUSH2 0x1A35 JUMP JUMPDEST LT ISZERO PUSH2 0x1B80 JUMPI PUSH1 0x40 MLOAD PUSH4 0x3345E999 PUSH1 0xE0 SHL DUP2 MSTORE PUSH1 0x4 ADD PUSH1 0x40 MLOAD DUP1 SWAP2 SUB SWAP1 REVERT JUMPDEST PUSH1 0xC SLOAD DUP4 GT ISZERO PUSH2 0x1BA3 JUMPI PUSH1 0x40 MLOAD PUSH4 0x78D29805 PUSH1 0xE1 SHL DUP2 MSTORE PUSH1 0x4 ADD PUSH1 0x40 MLOAD DUP1 SWAP2 SUB SWAP1 REVERT JUMPDEST DUP3 PUSH1 0xC SLOAD PUSH2 0x1BB1 SWAP2 SWAP1 PUSH2 0x3901 JUMP JUMPDEST PUSH1 0xC DUP2 SWAP1 SSTORE PUSH1 0x3 SLOAD SWAP1 SWAP2 POP PUSH2 0x1BD4 SWAP1 PUSH2 0x100 SWAP1 DIV PUSH1 0x1 PUSH1 0x1 PUSH1 0xA0 SHL SUB AND DUP5 PUSH2 0x25A5 JUMP JUMPDEST PUSH32 0x3BAD0C59CF2F06E7314077049F48A93578CD16F5EF92329F1DAB1420A99C177E PUSH1 0x3 PUSH1 0x1 SWAP1 SLOAD SWAP1 PUSH2 0x100 EXP SWAP1 DIV PUSH1 0x1 PUSH1 0x1 PUSH1 0xA0 SHL SUB AND DUP5 DUP4 PUSH1 0x40 MLOAD PUSH2 0xCC5 SWAP4 SWAP3 SWAP2 SWAP1 PUSH2 0x3971 JUMP JUMPDEST PUSH1 0x0 SLOAD PUSH1 0xFF AND PUSH2 0x1C3E JUMPI PUSH1 0x40 MLOAD PUSH3 0x461BCD PUSH1 0xE5 SHL DUP2 MSTORE PUSH1 0x4 ADD PUSH2 0x815 SWAP1 PUSH2 0x388C JUMP JUMPDEST PUSH1 0x0 DUP1 SLOAD PUSH1 0xFF NOT AND SWAP1 SSTORE PUSH2 0x1C50 PUSH2 0x10BF JUMP JUMPDEST POP PUSH2 0x1C5D CALLER PUSH1 0x0 DUP4 PUSH2 0x268F JUMP JUMPDEST POP PUSH1 0x0 DUP1 SLOAD PUSH1 0xFF NOT AND PUSH1 0x1 OR SWAP1 SSTORE JUMP JUMPDEST PUSH1 0x1 PUSH1 0x1 PUSH1 0xA0 SHL SUB DUP2 AND PUSH1 0x0 SWAP1 DUP2 MSTORE PUSH1 0x10 PUSH1 0x20 MSTORE PUSH1 0x40 DUP2 KECCAK256 DUP1 SLOAD PUSH2 0x1C94 JUMPI POP PUSH1 0x0 SWAP3 SWAP2 POP POP JUMP JUMPDEST PUSH1 0xA SLOAD DUP2 SLOAD PUSH1 0x0 SWAP2 PUSH2 0x1CA5 SWAP2 PUSH2 0x3930 JUMP JUMPDEST SWAP1 POP DUP2 PUSH1 0x1 ADD SLOAD DUP2 PUSH2 0x1A2D SWAP2 SWAP1 PUSH2 0x394F JUMP JUMPDEST PUSH1 0x3 SLOAD PUSH1 0x0 SWAP1 DUP2 SWAP1 PUSH2 0x100 SWAP1 DIV PUSH1 0x1 PUSH1 0x1 PUSH1 0xA0 SHL SUB AND CALLER EQ PUSH2 0x1CEC JUMPI PUSH1 0x40 MLOAD PUSH4 0x407FDED5 PUSH1 0xE0 SHL DUP2 MSTORE PUSH1 0x4 ADD PUSH1 0x40 MLOAD DUP1 SWAP2 SUB SWAP1 REVERT JUMPDEST TIMESTAMP PUSH1 0x9 SLOAD EQ PUSH2 0x1D0E JUMPI PUSH1 0x40 MLOAD PUSH4 0xBE2A5CB PUSH1 0xE1 SHL DUP2 MSTORE PUSH1 0x4 ADD PUSH1 0x40 MLOAD DUP1 SWAP2 SUB SWAP1 REVERT JUMPDEST PUSH1 0x6 PUSH1 0x0 SWAP1 SLOAD SWAP1 PUSH2 0x100 EXP SWAP1 DIV PUSH1 0x1 PUSH1 0x1 PUSH1 0xA0 SHL SUB AND SWAP1 POP DUP3 PUSH1 0x1 PUSH1 0x1 PUSH1 0xA0 SHL SUB AND PUSH4 0x2191F92A PUSH1 0x40 MLOAD DUP2 PUSH4 0xFFFFFFFF AND PUSH1 0xE0 SHL DUP2 MSTORE PUSH1 0x4 ADD PUSH1 0x20 PUSH1 0x40 MLOAD DUP1 DUP4 SUB DUP2 DUP7 GAS STATICCALL ISZERO DUP1 ISZERO PUSH2 0x1D64 JUMPI RETURNDATASIZE PUSH1 0x0 DUP1 RETURNDATACOPY RETURNDATASIZE PUSH1 0x0 REVERT JUMPDEST POP POP POP POP PUSH1 0x40 MLOAD RETURNDATASIZE PUSH1 0x1F NOT PUSH1 0x1F DUP3 ADD AND DUP3 ADD DUP1 PUSH1 0x40 MSTORE POP DUP2 ADD SWAP1 PUSH2 0x1D88 SWAP2 SWAP1 PUSH2 0x38C9 JUMP JUMPDEST PUSH2 0x1DD4 JUMPI PUSH1 0x40 MLOAD PUSH3 0x461BCD PUSH1 0xE5 SHL DUP2 MSTORE PUSH1 0x20 PUSH1 0x4 DUP3 ADD MSTORE PUSH1 0x1C PUSH1 0x24 DUP3 ADD MSTORE PUSH32 0x6D61726B6572206D6574686F642072657475726E65642066616C736500000000 PUSH1 0x44 DUP3 ADD MSTORE PUSH1 0x64 ADD PUSH2 0x815 JUMP JUMPDEST PUSH1 0x6 DUP1 SLOAD PUSH1 0x1 PUSH1 0x1 PUSH1 0xA0 SHL SUB NOT AND PUSH1 0x1 PUSH1 0x1 PUSH1 0xA0 SHL SUB DUP6 DUP2 AND SWAP2 DUP3 OR SWAP1 SWAP3 SSTORE PUSH1 0x40 DUP1 MLOAD SWAP3 DUP5 AND DUP4 MSTORE PUSH1 0x20 DUP4 ADD SWAP2 SWAP1 SWAP2 MSTORE PUSH32 0xEDFFC32E068C7C95DFD4BDFD5C4D939A084D6B11C4199EAC8436ED234D72F926 SWAP2 ADD PUSH2 0xCC5 JUMP JUMPDEST PUSH1 0x0 SLOAD PUSH1 0xFF AND PUSH2 0x1E4E JUMPI PUSH1 0x40 MLOAD PUSH3 0x461BCD PUSH1 0xE5 SHL DUP2 MSTORE PUSH1 0x4 ADD PUSH2 0x815 SWAP1 PUSH2 0x388C JUMP JUMPDEST PUSH1 0x0 DUP1 SLOAD PUSH1 0xFF NOT AND SWAP1 SSTORE PUSH2 0x1E60 PUSH2 0x10BF JUMP JUMPDEST POP PUSH2 0x1C5D CALLER DUP3 PUSH2 0x296C JUMP JUMPDEST PUSH1 0x40 DUP1 MLOAD PUSH1 0x20 DUP2 ADD SWAP1 SWAP2 MSTORE PUSH1 0x0 DUP2 MSTORE PUSH1 0x40 MLOAD DUP1 PUSH1 0x20 ADD PUSH1 0x40 MSTORE DUP1 PUSH2 0x1E93 DUP6 PUSH1 0x0 ADD MLOAD DUP6 PUSH2 0x2B95 JUMP JUMPDEST SWAP1 MSTORE SWAP4 SWAP3 POP POP POP JUMP JUMPDEST PUSH1 0x0 DUP1 PUSH2 0x1EA9 DUP6 DUP6 PUSH2 0x1E6B JUMP JUMPDEST SWAP1 POP PUSH2 0x1788 PUSH2 0x1EB7 DUP3 PUSH2 0x24F9 JUMP JUMPDEST DUP5 PUSH2 0x2BA1 JUMP JUMPDEST PUSH1 0x5 SLOAD PUSH1 0x40 MLOAD PUSH4 0xD02F7351 PUSH1 0xE0 SHL DUP2 MSTORE ADDRESS PUSH1 0x4 DUP3 ADD MSTORE PUSH1 0x1 PUSH1 0x1 PUSH1 0xA0 SHL SUB DUP7 DUP2 AND PUSH1 0x24 DUP4 ADD MSTORE DUP6 DUP2 AND PUSH1 0x44 DUP4 ADD MSTORE DUP5 DUP2 AND PUSH1 0x64 DUP4 ADD MSTORE PUSH1 0x84 DUP3 ADD DUP5 SWAP1 MSTORE PUSH1 0x0 SWAP3 AND SWAP1 PUSH4 0xD02F7351 SWAP1 PUSH1 0xA4 ADD PUSH1 0x20 PUSH1 0x40 MLOAD DUP1 DUP4 SUB DUP2 PUSH1 0x0 DUP8 GAS CALL ISZERO DUP1 ISZERO PUSH2 0x1F27 JUMPI RETURNDATASIZE PUSH1 0x0 DUP1 RETURNDATACOPY RETURNDATASIZE PUSH1 0x0 REVERT JUMPDEST POP POP POP POP PUSH1 0x40 MLOAD RETURNDATASIZE PUSH1 0x1F NOT PUSH1 0x1F DUP3 ADD AND DUP3 ADD DUP1 PUSH1 0x40 MSTORE POP DUP2 ADD SWAP1 PUSH2 0x1F4B SWAP2 SWAP1 PUSH2 0x38B0 JUMP JUMPDEST SWAP1 POP DUP1 ISZERO PUSH2 0x1F6F JUMPI PUSH1 0x40 MLOAD PUSH4 0x63E00E33 PUSH1 0xE1 SHL DUP2 MSTORE PUSH1 0x4 DUP2 ADD DUP3 SWAP1 MSTORE PUSH1 0x24 ADD PUSH2 0x815 JUMP JUMPDEST DUP4 PUSH1 0x1 PUSH1 0x1 PUSH1 0xA0 SHL SUB AND DUP4 PUSH1 0x1 PUSH1 0x1 PUSH1 0xA0 SHL SUB AND EQ ISZERO PUSH2 0x1FA2 JUMPI PUSH1 0x40 MLOAD PUSH4 0x3A946267 PUSH1 0xE1 SHL DUP2 MSTORE PUSH1 0x4 ADD PUSH1 0x40 MLOAD DUP1 SWAP2 SUB SWAP1 REVERT JUMPDEST PUSH1 0x0 PUSH2 0x1FC3 DUP4 PUSH1 0x40 MLOAD DUP1 PUSH1 0x20 ADD PUSH1 0x40 MSTORE DUP1 PUSH7 0x6379DA05B60000 DUP2 MSTORE POP PUSH2 0x2BAD JUMP JUMPDEST SWAP1 POP PUSH1 0x0 PUSH2 0x1FD1 DUP3 DUP6 PUSH2 0x3901 JUMP JUMPDEST SWAP1 POP PUSH1 0x0 PUSH1 0x40 MLOAD DUP1 PUSH1 0x20 ADD PUSH1 0x40 MSTORE DUP1 PUSH2 0x1FE8 PUSH2 0x172B JUMP JUMPDEST SWAP1 MSTORE SWAP1 POP PUSH1 0x0 PUSH2 0x1FF8 DUP3 DUP6 PUSH2 0x1A15 JUMP JUMPDEST SWAP1 POP PUSH1 0x0 DUP2 PUSH1 0xC SLOAD PUSH2 0x200A SWAP2 SWAP1 PUSH2 0x3918 JUMP JUMPDEST PUSH1 0xC DUP2 SWAP1 SSTORE PUSH1 0xD SLOAD SWAP1 SWAP2 POP PUSH2 0x2020 SWAP1 DUP7 SWAP1 PUSH2 0x3901 JUMP JUMPDEST PUSH1 0xD SSTORE PUSH1 0x1 PUSH1 0x1 PUSH1 0xA0 SHL SUB DUP9 AND PUSH1 0x0 SWAP1 DUP2 MSTORE PUSH1 0xE PUSH1 0x20 MSTORE PUSH1 0x40 SWAP1 KECCAK256 SLOAD PUSH2 0x2047 SWAP1 DUP9 SWAP1 PUSH2 0x3901 JUMP JUMPDEST PUSH1 0x1 PUSH1 0x1 PUSH1 0xA0 SHL SUB DUP1 DUP11 AND PUSH1 0x0 SWAP1 DUP2 MSTORE PUSH1 0xE PUSH1 0x20 MSTORE PUSH1 0x40 DUP1 DUP3 KECCAK256 SWAP4 SWAP1 SWAP4 SSTORE SWAP1 DUP12 AND DUP2 MSTORE KECCAK256 SLOAD PUSH2 0x2077 SWAP1 DUP6 SWAP1 PUSH2 0x3918 JUMP JUMPDEST PUSH1 0x1 PUSH1 0x1 PUSH1 0xA0 SHL SUB DUP1 DUP12 AND PUSH1 0x0 DUP2 DUP2 MSTORE PUSH1 0xE PUSH1 0x20 MSTORE PUSH1 0x40 SWAP1 DUP2 SWAP1 KECCAK256 SWAP4 SWAP1 SWAP4 SSTORE SWAP2 MLOAD SWAP1 DUP11 AND SWAP1 PUSH1 0x0 DUP1 MLOAD PUSH1 0x20 PUSH2 0x39DB DUP4 CODECOPY DUP2 MLOAD SWAP2 MSTORE SWAP1 PUSH2 0x20B9 SWAP1 DUP9 DUP2 MSTORE PUSH1 0x20 ADD SWAP1 JUMP JUMPDEST PUSH1 0x40 MLOAD DUP1 SWAP2 SUB SWAP1 LOG3 PUSH1 0x40 MLOAD DUP6 DUP2 MSTORE ADDRESS SWAP1 PUSH1 0x1 PUSH1 0x1 PUSH1 0xA0 SHL SUB DUP11 AND SWAP1 PUSH1 0x0 DUP1 MLOAD PUSH1 0x20 PUSH2 0x39DB DUP4 CODECOPY DUP2 MLOAD SWAP2 MSTORE SWAP1 PUSH1 0x20 ADD PUSH1 0x40 MLOAD DUP1 SWAP2 SUB SWAP1 LOG3 PUSH32 0xA91E67C5EA634CD43A12C5A482724B03DE01E85CA68702A53D0C2F45CB7C1DC5 ADDRESS DUP4 DUP4 PUSH1 0x40 MLOAD PUSH2 0x2122 SWAP4 SWAP3 SWAP2 SWAP1 PUSH2 0x3971 JUMP JUMPDEST PUSH1 0x40 MLOAD DUP1 SWAP2 SUB SWAP1 LOG1 POP POP POP POP POP POP POP POP POP POP JUMP JUMPDEST PUSH1 0x0 SLOAD PUSH1 0xFF AND PUSH2 0x2158 JUMPI PUSH1 0x40 MLOAD PUSH3 0x461BCD PUSH1 0xE5 SHL DUP2 MSTORE PUSH1 0x4 ADD PUSH2 0x815 SWAP1 PUSH2 0x388C JUMP JUMPDEST PUSH1 0x0 DUP1 SLOAD PUSH1 0xFF NOT AND SWAP1 SSTORE PUSH2 0x216A PUSH2 0x10BF JUMP JUMPDEST POP PUSH2 0x1C5D CALLER DUP3 PUSH2 0x2BD0 JUMP JUMPDEST PUSH1 0x0 SLOAD PUSH1 0xFF AND PUSH2 0x2197 JUMPI PUSH1 0x40 MLOAD PUSH3 0x461BCD PUSH1 0xE5 SHL DUP2 MSTORE PUSH1 0x4 ADD PUSH2 0x815 SWAP1 PUSH2 0x388C JUMP JUMPDEST PUSH1 0x0 DUP1 SLOAD PUSH1 0xFF NOT AND SWAP1 SSTORE PUSH2 0x21A9 PUSH2 0x10BF JUMP JUMPDEST POP PUSH2 0x1C5D CALLER DUP3 PUSH1 0x0 PUSH2 0x268F JUMP JUMPDEST PUSH1 0x0 SLOAD PUSH1 0xFF AND PUSH2 0x21D8 JUMPI PUSH1 0x40 MLOAD PUSH3 0x461BCD PUSH1 0xE5 SHL DUP2 MSTORE PUSH1 0x4 ADD PUSH2 0x815 SWAP1 PUSH2 0x388C JUMP JUMPDEST PUSH1 0x0 DUP1 SLOAD PUSH1 0xFF NOT AND SWAP1 SSTORE PUSH2 0x21EA PUSH2 0x10BF JUMP JUMPDEST POP PUSH1 0x0 DUP2 PUSH1 0x1 PUSH1 0x1 PUSH1 0xA0 SHL SUB AND PUSH4 0xA6AFED95 PUSH1 0x40 MLOAD DUP2 PUSH4 0xFFFFFFFF AND PUSH1 0xE0 SHL DUP2 MSTORE PUSH1 0x4 ADD PUSH1 0x20 PUSH1 0x40 MLOAD DUP1 DUP4 SUB DUP2 PUSH1 0x0 DUP8 GAS CALL ISZERO DUP1 ISZERO PUSH2 0x222D JUMPI RETURNDATASIZE PUSH1 0x0 DUP1 RETURNDATACOPY RETURNDATASIZE PUSH1 0x0 REVERT JUMPDEST POP POP POP POP PUSH1 0x40 MLOAD RETURNDATASIZE PUSH1 0x1F NOT PUSH1 0x1F DUP3 ADD AND DUP3 ADD DUP1 PUSH1 0x40 MSTORE POP DUP2 ADD SWAP1 PUSH2 0x2251 SWAP2 SWAP1 PUSH2 0x38B0 JUMP JUMPDEST SWAP1 POP DUP1 ISZERO PUSH2 0x2275 JUMPI PUSH1 0x40 MLOAD PUSH4 0x3EEA49B7 PUSH1 0xE1 SHL DUP2 MSTORE PUSH1 0x4 DUP2 ADD DUP3 SWAP1 MSTORE PUSH1 0x24 ADD PUSH2 0x815 JUMP JUMPDEST PUSH2 0x2281 CALLER DUP6 DUP6 DUP6 PUSH2 0x2D6F JUMP JUMPDEST POP POP PUSH1 0x0 DUP1 SLOAD PUSH1 0xFF NOT AND PUSH1 0x1 OR SWAP1 SSTORE POP POP JUMP JUMPDEST PUSH1 0x3 SLOAD PUSH1 0x0 SWAP1 PUSH2 0x100 SWAP1 DIV PUSH1 0x1 PUSH1 0x1 PUSH1 0xA0 SHL SUB AND CALLER EQ PUSH2 0x22C7 JUMPI PUSH1 0x40 MLOAD PUSH4 0x1205B57B PUSH1 0xE1 SHL DUP2 MSTORE PUSH1 0x4 ADD PUSH1 0x40 MLOAD DUP1 SWAP2 SUB SWAP1 REVERT JUMPDEST TIMESTAMP PUSH1 0x9 SLOAD EQ PUSH2 0x22E9 JUMPI PUSH1 0x40 MLOAD PUSH4 0x7DFCA6B7 PUSH1 0xE1 SHL DUP2 MSTORE PUSH1 0x4 ADD PUSH1 0x40 MLOAD DUP1 SWAP2 SUB SWAP1 REVERT JUMPDEST PUSH8 0xDE0B6B3A7640000 DUP3 GT ISZERO PUSH2 0x2312 JUMPI PUSH1 0x40 MLOAD PUSH4 0x717220F3 PUSH1 0xE1 SHL DUP2 MSTORE PUSH1 0x4 ADD PUSH1 0x40 MLOAD DUP1 SWAP2 SUB SWAP1 REVERT JUMPDEST PUSH1 0x8 DUP1 SLOAD SWAP1 DUP4 SWAP1 SSTORE PUSH1 0x40 DUP1 MLOAD DUP3 DUP2 MSTORE PUSH1 0x20 DUP2 ADD DUP6 SWAP1 MSTORE PUSH32 0xAAA68312E2EA9D50E16AF5068410AB56E1A1FD06037B1A35664812C30F821460 SWAP2 ADD PUSH2 0xCC5 JUMP JUMPDEST PUSH1 0x5 SLOAD PUSH1 0x40 MLOAD PUSH4 0x12004531 PUSH1 0xE1 SHL DUP2 MSTORE ADDRESS PUSH1 0x4 DUP3 ADD MSTORE PUSH1 0x1 PUSH1 0x1 PUSH1 0xA0 SHL SUB DUP6 DUP2 AND PUSH1 0x24 DUP4 ADD MSTORE DUP5 DUP2 AND PUSH1 0x44 DUP4 ADD MSTORE PUSH1 0x64 DUP3 ADD DUP5 SWAP1 MSTORE PUSH1 0x0 SWAP3 DUP4 SWAP3 SWAP2 AND SWAP1 PUSH4 0x24008A62 SWAP1 PUSH1 0x84 ADD PUSH1 0x20 PUSH1 0x40 MLOAD DUP1 DUP4 SUB DUP2 PUSH1 0x0 DUP8 GAS CALL ISZERO DUP1 ISZERO PUSH2 0x23B5 JUMPI RETURNDATASIZE PUSH1 0x0 DUP1 RETURNDATACOPY RETURNDATASIZE PUSH1 0x0 REVERT JUMPDEST POP POP POP POP PUSH1 0x40 MLOAD RETURNDATASIZE PUSH1 0x1F NOT PUSH1 0x1F DUP3 ADD AND DUP3 ADD DUP1 PUSH1 0x40 MSTORE POP DUP2 ADD SWAP1 PUSH2 0x23D9 SWAP2 SWAP1 PUSH2 0x38B0 JUMP JUMPDEST SWAP1 POP DUP1 ISZERO PUSH2 0x23FD JUMPI PUSH1 0x40 MLOAD PUSH4 0x8C81362D PUSH1 0xE0 SHL DUP2 MSTORE PUSH1 0x4 DUP2 ADD DUP3 SWAP1 MSTORE PUSH1 0x24 ADD PUSH2 0x815 JUMP JUMPDEST TIMESTAMP PUSH1 0x9 SLOAD EQ PUSH2 0x241F JUMPI PUSH1 0x40 MLOAD PUSH4 0xC9021E2F PUSH1 0xE0 SHL DUP2 MSTORE PUSH1 0x4 ADD PUSH1 0x40 MLOAD DUP1 SWAP2 SUB SWAP1 REVERT JUMPDEST PUSH1 0x0 PUSH2 0x242A DUP6 PUSH2 0x1C6D JUMP JUMPDEST SWAP1 POP PUSH1 0x0 PUSH1 0x0 NOT DUP6 EQ PUSH2 0x243D JUMPI DUP5 PUSH2 0x243F JUMP JUMPDEST DUP2 JUMPDEST SWAP1 POP PUSH1 0x0 PUSH2 0x244D DUP9 DUP4 PUSH2 0x3229 JUMP JUMPDEST SWAP1 POP PUSH1 0x0 PUSH2 0x245B DUP3 DUP6 PUSH2 0x3901 JUMP JUMPDEST SWAP1 POP PUSH1 0x0 DUP3 PUSH1 0xB SLOAD PUSH2 0x246D SWAP2 SWAP1 PUSH2 0x3901 JUMP JUMPDEST PUSH1 0x1 PUSH1 0x1 PUSH1 0xA0 SHL SUB DUP11 DUP2 AND PUSH1 0x0 DUP2 DUP2 MSTORE PUSH1 0x10 PUSH1 0x20 SWAP1 DUP2 MSTORE PUSH1 0x40 SWAP2 DUP3 SWAP1 KECCAK256 DUP8 DUP2 SSTORE PUSH1 0xA SLOAD PUSH1 0x1 SWAP1 SWAP2 ADD SSTORE PUSH1 0xB DUP6 SWAP1 SSTORE DUP2 MLOAD SWAP4 DUP16 AND DUP5 MSTORE DUP4 ADD SWAP2 SWAP1 SWAP2 MSTORE DUP2 ADD DUP6 SWAP1 MSTORE PUSH1 0x60 DUP2 ADD DUP5 SWAP1 MSTORE PUSH1 0x80 DUP2 ADD DUP3 SWAP1 MSTORE SWAP1 SWAP2 POP PUSH32 0x1A2A22CB034D26D1854BDC6666A5B91FE25EFBBB5DCAD3B0355478D6F5C362A1 SWAP1 PUSH1 0xA0 ADD PUSH1 0x40 MLOAD DUP1 SWAP2 SUB SWAP1 LOG1 POP SWAP1 SWAP9 SWAP8 POP POP POP POP POP POP POP POP JUMP JUMPDEST DUP1 MLOAD PUSH1 0x0 SWAP1 PUSH2 0xB7E SWAP1 PUSH8 0xDE0B6B3A7640000 SWAP1 PUSH2 0x394F JUMP JUMPDEST PUSH1 0x0 DUP1 DUP1 DUP1 TIMESTAMP PUSH1 0x9 SLOAD EQ PUSH2 0x253B JUMPI PUSH1 0x40 MLOAD PUSH4 0x38ACF799 PUSH1 0xE0 SHL DUP2 MSTORE PUSH1 0x4 DUP2 ADD DUP3 SWAP1 MSTORE PUSH1 0x24 ADD PUSH2 0x815 JUMP JUMPDEST PUSH2 0x2545 CALLER DUP7 PUSH2 0x3229 JUMP JUMPDEST SWAP1 POP DUP1 PUSH1 0xC SLOAD PUSH2 0x2555 SWAP2 SWAP1 PUSH2 0x3918 JUMP JUMPDEST SWAP2 POP DUP2 PUSH1 0xC DUP2 SWAP1 SSTORE POP PUSH32 0xA91E67C5EA634CD43A12C5A482724B03DE01E85CA68702A53D0C2F45CB7C1DC5 CALLER DUP3 DUP5 PUSH1 0x40 MLOAD PUSH2 0x2591 SWAP4 SWAP3 SWAP2 SWAP1 PUSH2 0x3971 JUMP JUMPDEST PUSH1 0x40 MLOAD DUP1 SWAP2 SUB SWAP1 LOG1 PUSH1 0x0 SWAP6 SWAP1 SWAP5 POP SWAP3 POP POP POP JUMP JUMPDEST PUSH1 0x11 SLOAD PUSH1 0x40 MLOAD PUSH4 0xA9059CBB PUSH1 0xE0 SHL DUP2 MSTORE PUSH1 0x1 PUSH1 0x1 PUSH1 0xA0 SHL SUB DUP5 DUP2 AND PUSH1 0x4 DUP4 ADD MSTORE PUSH1 0x24 DUP3 ADD DUP5 SWAP1 MSTORE SWAP1 SWAP2 AND SWAP1 DUP2 SWAP1 PUSH4 0xA9059CBB SWAP1 PUSH1 0x44 ADD PUSH1 0x0 PUSH1 0x40 MLOAD DUP1 DUP4 SUB DUP2 PUSH1 0x0 DUP8 DUP1 EXTCODESIZE ISZERO DUP1 ISZERO PUSH2 0x25F5 JUMPI PUSH1 0x0 DUP1 REVERT JUMPDEST POP GAS CALL ISZERO DUP1 ISZERO PUSH2 0x2609 JUMPI RETURNDATASIZE PUSH1 0x0 DUP1 RETURNDATACOPY RETURNDATASIZE PUSH1 0x0 REVERT JUMPDEST POP POP POP POP PUSH1 0x0 RETURNDATASIZE PUSH1 0x0 DUP2 EQ PUSH2 0x2625 JUMPI PUSH1 0x20 DUP2 EQ PUSH2 0x262F JUMPI PUSH1 0x0 DUP1 REVERT JUMPDEST PUSH1 0x0 NOT SWAP2 POP PUSH2 0x263B JUMP JUMPDEST PUSH1 0x20 PUSH1 0x0 DUP1 RETURNDATACOPY PUSH1 0x0 MLOAD SWAP2 POP JUMPDEST POP DUP1 PUSH2 0x2689 JUMPI PUSH1 0x40 MLOAD PUSH3 0x461BCD PUSH1 0xE5 SHL DUP2 MSTORE PUSH1 0x20 PUSH1 0x4 DUP3 ADD MSTORE PUSH1 0x19 PUSH1 0x24 DUP3 ADD MSTORE PUSH32 0x544F4B454E5F5452414E534645525F4F55545F4641494C454400000000000000 PUSH1 0x44 DUP3 ADD MSTORE PUSH1 0x64 ADD PUSH2 0x815 JUMP JUMPDEST POP POP POP POP JUMP JUMPDEST DUP2 ISZERO DUP1 PUSH2 0x269A JUMPI POP DUP1 ISZERO JUMPDEST PUSH2 0x2703 JUMPI PUSH1 0x40 MLOAD PUSH3 0x461BCD PUSH1 0xE5 SHL DUP2 MSTORE PUSH1 0x20 PUSH1 0x4 DUP3 ADD MSTORE PUSH1 0x34 PUSH1 0x24 DUP3 ADD MSTORE PUSH32 0x6F6E65206F662072656465656D546F6B656E73496E206F722072656465656D41 PUSH1 0x44 DUP3 ADD MSTORE PUSH20 0x6D6F756E74496E206D757374206265207A65726F PUSH1 0x60 SHL PUSH1 0x64 DUP3 ADD MSTORE PUSH1 0x84 ADD PUSH2 0x815 JUMP JUMPDEST PUSH1 0x0 PUSH1 0x40 MLOAD DUP1 PUSH1 0x20 ADD PUSH1 0x40 MSTORE DUP1 PUSH2 0x2718 PUSH2 0x172B JUMP JUMPDEST SWAP1 MSTORE SWAP1 POP PUSH1 0x0 DUP1 DUP5 ISZERO PUSH2 0x2739 JUMPI DUP5 SWAP2 POP PUSH2 0x2732 DUP4 DUP7 PUSH2 0x1A15 JUMP JUMPDEST SWAP1 POP PUSH2 0x2749 JUMP JUMPDEST PUSH2 0x2743 DUP5 DUP5 PUSH2 0x3400 JUMP JUMPDEST SWAP2 POP DUP4 SWAP1 POP JUMPDEST PUSH1 0x5 SLOAD PUSH1 0x40 MLOAD PUSH4 0xEABE7D91 PUSH1 0xE0 SHL DUP2 MSTORE PUSH1 0x0 SWAP2 PUSH1 0x1 PUSH1 0x1 PUSH1 0xA0 SHL SUB AND SWAP1 PUSH4 0xEABE7D91 SWAP1 PUSH2 0x277E SWAP1 ADDRESS SWAP1 DUP12 SWAP1 DUP9 SWAP1 PUSH1 0x4 ADD PUSH2 0x3992 JUMP JUMPDEST PUSH1 0x20 PUSH1 0x40 MLOAD DUP1 DUP4 SUB DUP2 PUSH1 0x0 DUP8 GAS CALL ISZERO DUP1 ISZERO PUSH2 0x279D JUMPI RETURNDATASIZE PUSH1 0x0 DUP1 RETURNDATACOPY RETURNDATASIZE PUSH1 0x0 REVERT JUMPDEST POP POP POP POP PUSH1 0x40 MLOAD RETURNDATASIZE PUSH1 0x1F NOT PUSH1 0x1F DUP3 ADD AND DUP3 ADD DUP1 PUSH1 0x40 MSTORE POP DUP2 ADD SWAP1 PUSH2 0x27C1 SWAP2 SWAP1 PUSH2 0x38B0 JUMP JUMPDEST SWAP1 POP DUP1 ISZERO PUSH2 0x27E5 JUMPI PUSH1 0x40 MLOAD PUSH4 0x480F4247 PUSH1 0xE0 SHL DUP2 MSTORE PUSH1 0x4 DUP2 ADD DUP3 SWAP1 MSTORE PUSH1 0x24 ADD PUSH2 0x815 JUMP JUMPDEST TIMESTAMP PUSH1 0x9 SLOAD EQ PUSH2 0x2807 JUMPI PUSH1 0x40 MLOAD PUSH4 0x97B5CFCD PUSH1 0xE0 SHL DUP2 MSTORE PUSH1 0x4 ADD PUSH1 0x40 MLOAD DUP1 SWAP2 SUB SWAP1 REVERT JUMPDEST DUP2 PUSH2 0x2810 PUSH2 0x1A35 JUMP JUMPDEST LT ISZERO PUSH2 0x282F JUMPI PUSH1 0x40 MLOAD PUSH4 0x91240A1B PUSH1 0xE0 SHL DUP2 MSTORE PUSH1 0x4 ADD PUSH1 0x40 MLOAD DUP1 SWAP2 SUB SWAP1 REVERT JUMPDEST DUP3 PUSH1 0xD SLOAD PUSH2 0x283D SWAP2 SWAP1 PUSH2 0x3901 JUMP JUMPDEST PUSH1 0xD SSTORE PUSH1 0x1 PUSH1 0x1 PUSH1 0xA0 SHL SUB DUP8 AND PUSH1 0x0 SWAP1 DUP2 MSTORE PUSH1 0xE PUSH1 0x20 MSTORE PUSH1 0x40 SWAP1 KECCAK256 SLOAD PUSH2 0x2864 SWAP1 DUP5 SWAP1 PUSH2 0x3901 JUMP JUMPDEST PUSH1 0x1 PUSH1 0x1 PUSH1 0xA0 SHL SUB DUP9 AND PUSH1 0x0 SWAP1 DUP2 MSTORE PUSH1 0xE PUSH1 0x20 MSTORE PUSH1 0x40 SWAP1 KECCAK256 SSTORE PUSH2 0x2887 DUP8 DUP4 PUSH2 0x25A5 JUMP JUMPDEST PUSH1 0x40 MLOAD DUP4 DUP2 MSTORE ADDRESS SWAP1 PUSH1 0x1 PUSH1 0x1 PUSH1 0xA0 SHL SUB DUP10 AND SWAP1 PUSH1 0x0 DUP1 MLOAD PUSH1 0x20 PUSH2 0x39DB DUP4 CODECOPY DUP2 MLOAD SWAP2 MSTORE SWAP1 PUSH1 0x20 ADD PUSH1 0x40 MLOAD DUP1 SWAP2 SUB SWAP1 LOG3 PUSH32 0xE5B754FB1ABB7F01B499791D0B820AE3B6AF3424AC1C59768EDB53F4EC31A929 DUP8 DUP4 DUP6 PUSH1 0x40 MLOAD PUSH2 0x28E8 SWAP4 SWAP3 SWAP2 SWAP1 PUSH2 0x3971 JUMP JUMPDEST PUSH1 0x40 MLOAD DUP1 SWAP2 SUB SWAP1 LOG1 PUSH1 0x5 SLOAD PUSH1 0x40 MLOAD PUSH4 0x51DFF989 PUSH1 0xE0 SHL DUP2 MSTORE ADDRESS PUSH1 0x4 DUP3 ADD MSTORE PUSH1 0x1 PUSH1 0x1 PUSH1 0xA0 SHL SUB DUP10 DUP2 AND PUSH1 0x24 DUP4 ADD MSTORE PUSH1 0x44 DUP3 ADD DUP6 SWAP1 MSTORE PUSH1 0x64 DUP3 ADD DUP7 SWAP1 MSTORE SWAP1 SWAP2 AND SWAP1 PUSH4 0x51DFF989 SWAP1 PUSH1 0x84 ADD PUSH1 0x0 PUSH1 0x40 MLOAD DUP1 DUP4 SUB DUP2 PUSH1 0x0 DUP8 DUP1 EXTCODESIZE ISZERO DUP1 ISZERO PUSH2 0x294B JUMPI PUSH1 0x0 DUP1 REVERT JUMPDEST POP GAS CALL ISZERO DUP1 ISZERO PUSH2 0x295F JUMPI RETURNDATASIZE PUSH1 0x0 DUP1 RETURNDATACOPY RETURNDATASIZE PUSH1 0x0 REVERT JUMPDEST POP POP POP POP POP POP POP POP POP POP POP JUMP JUMPDEST PUSH1 0x5 SLOAD PUSH1 0x40 MLOAD PUSH4 0x4EF4C3E1 PUSH1 0xE0 SHL DUP2 MSTORE PUSH1 0x0 SWAP2 PUSH1 0x1 PUSH1 0x1 PUSH1 0xA0 SHL SUB AND SWAP1 PUSH4 0x4EF4C3E1 SWAP1 PUSH2 0x29A1 SWAP1 ADDRESS SWAP1 DUP8 SWAP1 DUP8 SWAP1 PUSH1 0x4 ADD PUSH2 0x3992 JUMP JUMPDEST PUSH1 0x20 PUSH1 0x40 MLOAD DUP1 DUP4 SUB DUP2 PUSH1 0x0 DUP8 GAS CALL ISZERO DUP1 ISZERO PUSH2 0x29C0 JUMPI RETURNDATASIZE PUSH1 0x0 DUP1 RETURNDATACOPY RETURNDATASIZE PUSH1 0x0 REVERT JUMPDEST POP POP POP POP PUSH1 0x40 MLOAD RETURNDATASIZE PUSH1 0x1F NOT PUSH1 0x1F DUP3 ADD AND DUP3 ADD DUP1 PUSH1 0x40 MSTORE POP DUP2 ADD SWAP1 PUSH2 0x29E4 SWAP2 SWAP1 PUSH2 0x38B0 JUMP JUMPDEST SWAP1 POP DUP1 ISZERO PUSH2 0x2A08 JUMPI PUSH1 0x40 MLOAD PUSH4 0x49ABD4FD PUSH1 0xE0 SHL DUP2 MSTORE PUSH1 0x4 DUP2 ADD DUP3 SWAP1 MSTORE PUSH1 0x24 ADD PUSH2 0x815 JUMP JUMPDEST TIMESTAMP PUSH1 0x9 SLOAD EQ PUSH2 0x2A2A JUMPI PUSH1 0x40 MLOAD PUSH4 0x38D88597 PUSH1 0xE0 SHL DUP2 MSTORE PUSH1 0x4 ADD PUSH1 0x40 MLOAD DUP1 SWAP2 SUB SWAP1 REVERT JUMPDEST PUSH1 0x0 PUSH1 0x40 MLOAD DUP1 PUSH1 0x20 ADD PUSH1 0x40 MSTORE DUP1 PUSH2 0x2A3F PUSH2 0x172B JUMP JUMPDEST SWAP1 MSTORE SWAP1 POP PUSH1 0x0 PUSH2 0x2A4F DUP6 DUP6 PUSH2 0x3229 JUMP JUMPDEST SWAP1 POP PUSH1 0x0 PUSH2 0x2A5D DUP3 DUP5 PUSH2 0x3400 JUMP JUMPDEST SWAP1 POP DUP1 PUSH1 0xD SLOAD PUSH2 0x2A6D SWAP2 SWAP1 PUSH2 0x3918 JUMP JUMPDEST PUSH1 0xD SSTORE PUSH1 0x1 PUSH1 0x1 PUSH1 0xA0 SHL SUB DUP7 AND PUSH1 0x0 SWAP1 DUP2 MSTORE PUSH1 0xE PUSH1 0x20 MSTORE PUSH1 0x40 SWAP1 KECCAK256 SLOAD PUSH2 0x2A94 SWAP1 DUP3 SWAP1 PUSH2 0x3918 JUMP JUMPDEST PUSH1 0x1 PUSH1 0x1 PUSH1 0xA0 SHL SUB DUP8 AND PUSH1 0x0 SWAP1 DUP2 MSTORE PUSH1 0xE PUSH1 0x20 MSTORE PUSH1 0x40 SWAP1 DUP2 SWAP1 KECCAK256 SWAP2 SWAP1 SWAP2 SSTORE MLOAD PUSH32 0x4C209B5FC8AD50758F13E2E1088BA56A560DFF690A1C6FEF26394F4C03821C4F SWAP1 PUSH2 0x2AE4 SWAP1 DUP9 SWAP1 DUP6 SWAP1 DUP6 SWAP1 PUSH2 0x3971 JUMP JUMPDEST PUSH1 0x40 MLOAD DUP1 SWAP2 SUB SWAP1 LOG1 PUSH1 0x40 MLOAD DUP2 DUP2 MSTORE PUSH1 0x1 PUSH1 0x1 PUSH1 0xA0 SHL SUB DUP8 AND SWAP1 ADDRESS SWAP1 PUSH1 0x0 DUP1 MLOAD PUSH1 0x20 PUSH2 0x39DB DUP4 CODECOPY DUP2 MLOAD SWAP2 MSTORE SWAP1 PUSH1 0x20 ADD PUSH1 0x40 MLOAD DUP1 SWAP2 SUB SWAP1 LOG3 PUSH1 0x5 SLOAD PUSH1 0x40 MLOAD PUSH4 0x41C728B9 PUSH1 0xE0 SHL DUP2 MSTORE ADDRESS PUSH1 0x4 DUP3 ADD MSTORE PUSH1 0x1 PUSH1 0x1 PUSH1 0xA0 SHL SUB DUP9 DUP2 AND PUSH1 0x24 DUP4 ADD MSTORE PUSH1 0x44 DUP3 ADD DUP6 SWAP1 MSTORE PUSH1 0x64 DUP3 ADD DUP5 SWAP1 MSTORE SWAP1 SWAP2 AND SWAP1 PUSH4 0x41C728B9 SWAP1 PUSH1 0x84 ADD PUSH1 0x0 PUSH1 0x40 MLOAD DUP1 DUP4 SUB DUP2 PUSH1 0x0 DUP8 DUP1 EXTCODESIZE ISZERO DUP1 ISZERO PUSH2 0x2B75 JUMPI PUSH1 0x0 DUP1 REVERT JUMPDEST POP GAS CALL ISZERO DUP1 ISZERO PUSH2 0x2B89 JUMPI RETURNDATASIZE PUSH1 0x0 DUP1 RETURNDATACOPY RETURNDATASIZE PUSH1 0x0 REVERT JUMPDEST POP POP POP POP POP POP POP POP POP POP JUMP JUMPDEST PUSH1 0x0 PUSH2 0xB62 DUP3 DUP5 PUSH2 0x3930 JUMP JUMPDEST PUSH1 0x0 PUSH2 0xB62 DUP3 DUP5 PUSH2 0x3918 JUMP JUMPDEST PUSH1 0x0 PUSH8 0xDE0B6B3A7640000 PUSH2 0x2BC6 DUP5 DUP5 PUSH1 0x0 ADD MLOAD PUSH2 0x2B95 JUMP JUMPDEST PUSH2 0xB62 SWAP2 SWAP1 PUSH2 0x394F JUMP JUMPDEST PUSH1 0x5 SLOAD PUSH1 0x40 MLOAD PUSH4 0x368F5153 PUSH1 0xE2 SHL DUP2 MSTORE PUSH1 0x0 SWAP2 PUSH1 0x1 PUSH1 0x1 PUSH1 0xA0 SHL SUB AND SWAP1 PUSH4 0xDA3D454C SWAP1 PUSH2 0x2C05 SWAP1 ADDRESS SWAP1 DUP8 SWAP1 DUP8 SWAP1 PUSH1 0x4 ADD PUSH2 0x3992 JUMP JUMPDEST PUSH1 0x20 PUSH1 0x40 MLOAD DUP1 DUP4 SUB DUP2 PUSH1 0x0 DUP8 GAS CALL ISZERO DUP1 ISZERO PUSH2 0x2C24 JUMPI RETURNDATASIZE PUSH1 0x0 DUP1 RETURNDATACOPY RETURNDATASIZE PUSH1 0x0 REVERT JUMPDEST POP POP POP POP PUSH1 0x40 MLOAD RETURNDATASIZE PUSH1 0x1F NOT PUSH1 0x1F DUP3 ADD AND DUP3 ADD DUP1 PUSH1 0x40 MSTORE POP DUP2 ADD SWAP1 PUSH2 0x2C48 SWAP2 SWAP1 PUSH2 0x38B0 JUMP JUMPDEST SWAP1 POP DUP1 ISZERO PUSH2 0x2C6C JUMPI PUSH1 0x40 MLOAD PUSH4 0x918DB40F PUSH1 0xE0 SHL DUP2 MSTORE PUSH1 0x4 DUP2 ADD DUP3 SWAP1 MSTORE PUSH1 0x24 ADD PUSH2 0x815 JUMP JUMPDEST TIMESTAMP PUSH1 0x9 SLOAD EQ PUSH2 0x2C8E JUMPI PUSH1 0x40 MLOAD PUSH4 0xE8D8C61 PUSH1 0xE2 SHL DUP2 MSTORE PUSH1 0x4 ADD PUSH1 0x40 MLOAD DUP1 SWAP2 SUB SWAP1 REVERT JUMPDEST DUP2 PUSH2 0x2C97 PUSH2 0x1A35 JUMP JUMPDEST LT ISZERO PUSH2 0x2CB6 JUMPI PUSH1 0x40 MLOAD PUSH4 0x48C25881 PUSH1 0xE0 SHL DUP2 MSTORE PUSH1 0x4 ADD PUSH1 0x40 MLOAD DUP1 SWAP2 SUB SWAP1 REVERT JUMPDEST PUSH1 0x0 PUSH2 0x2CC1 DUP5 PUSH2 0x1C6D JUMP JUMPDEST SWAP1 POP PUSH1 0x0 PUSH2 0x2CCF DUP5 DUP4 PUSH2 0x3918 JUMP JUMPDEST SWAP1 POP PUSH1 0x0 DUP5 PUSH1 0xB SLOAD PUSH2 0x2CE1 SWAP2 SWAP1 PUSH2 0x3918 JUMP JUMPDEST PUSH1 0x1 PUSH1 0x1 PUSH1 0xA0 SHL SUB DUP8 AND PUSH1 0x0 SWAP1 DUP2 MSTORE PUSH1 0x10 PUSH1 0x20 MSTORE PUSH1 0x40 SWAP1 KECCAK256 DUP4 DUP2 SSTORE PUSH1 0xA SLOAD PUSH1 0x1 SWAP1 SWAP2 ADD SSTORE PUSH1 0xB DUP2 SWAP1 SSTORE SWAP1 POP PUSH2 0x2D16 DUP7 DUP7 PUSH2 0x25A5 JUMP JUMPDEST PUSH1 0x40 DUP1 MLOAD PUSH1 0x1 PUSH1 0x1 PUSH1 0xA0 SHL SUB DUP9 AND DUP2 MSTORE PUSH1 0x20 DUP2 ADD DUP8 SWAP1 MSTORE SWAP1 DUP2 ADD DUP4 SWAP1 MSTORE PUSH1 0x60 DUP2 ADD DUP3 SWAP1 MSTORE PUSH32 0x13ED6866D4E1EE6DA46F845C46D7E54120883D75C5EA9A2DACC1C4CA8984AB80 SWAP1 PUSH1 0x80 ADD PUSH1 0x40 MLOAD DUP1 SWAP2 SUB SWAP1 LOG1 POP POP POP POP POP POP JUMP JUMPDEST PUSH1 0x5 SLOAD PUSH1 0x40 MLOAD PUSH4 0x2FE3F38F PUSH1 0xE1 SHL DUP2 MSTORE ADDRESS PUSH1 0x4 DUP3 ADD MSTORE PUSH1 0x1 PUSH1 0x1 PUSH1 0xA0 SHL SUB DUP4 DUP2 AND PUSH1 0x24 DUP4 ADD MSTORE DUP7 DUP2 AND PUSH1 0x44 DUP4 ADD MSTORE DUP6 DUP2 AND PUSH1 0x64 DUP4 ADD MSTORE PUSH1 0x84 DUP3 ADD DUP6 SWAP1 MSTORE PUSH1 0x0 SWAP3 AND SWAP1 PUSH4 0x5FC7E71E SWAP1 PUSH1 0xA4 ADD PUSH1 0x20 PUSH1 0x40 MLOAD DUP1 DUP4 SUB DUP2 PUSH1 0x0 DUP8 GAS CALL ISZERO DUP1 ISZERO PUSH2 0x2DD9 JUMPI RETURNDATASIZE PUSH1 0x0 DUP1 RETURNDATACOPY RETURNDATASIZE PUSH1 0x0 REVERT JUMPDEST POP POP POP POP PUSH1 0x40 MLOAD RETURNDATASIZE PUSH1 0x1F NOT PUSH1 0x1F DUP3 ADD AND DUP3 ADD DUP1 PUSH1 0x40 MSTORE POP DUP2 ADD SWAP1 PUSH2 0x2DFD SWAP2 SWAP1 PUSH2 0x38B0 JUMP JUMPDEST SWAP1 POP DUP1 ISZERO PUSH2 0x2E21 JUMPI PUSH1 0x40 MLOAD PUSH4 0xA14D179 PUSH1 0xE1 SHL DUP2 MSTORE PUSH1 0x4 DUP2 ADD DUP3 SWAP1 MSTORE PUSH1 0x24 ADD PUSH2 0x815 JUMP JUMPDEST TIMESTAMP PUSH1 0x9 SLOAD EQ PUSH2 0x2E43 JUMPI PUSH1 0x40 MLOAD PUSH4 0x80965B1B PUSH1 0xE0 SHL DUP2 MSTORE PUSH1 0x4 ADD PUSH1 0x40 MLOAD DUP1 SWAP2 SUB SWAP1 REVERT JUMPDEST TIMESTAMP DUP3 PUSH1 0x1 PUSH1 0x1 PUSH1 0xA0 SHL SUB AND PUSH4 0x6C540BAF PUSH1 0x40 MLOAD DUP2 PUSH4 0xFFFFFFFF AND PUSH1 0xE0 SHL DUP2 MSTORE PUSH1 0x4 ADD PUSH1 0x20 PUSH1 0x40 MLOAD DUP1 DUP4 SUB DUP2 DUP7 GAS STATICCALL ISZERO DUP1 ISZERO PUSH2 0x2E82 JUMPI RETURNDATASIZE PUSH1 0x0 DUP1 RETURNDATACOPY RETURNDATASIZE PUSH1 0x0 REVERT JUMPDEST POP POP POP POP PUSH1 0x40 MLOAD RETURNDATASIZE PUSH1 0x1F NOT PUSH1 0x1F DUP3 ADD AND DUP3 ADD DUP1 PUSH1 0x40 MSTORE POP DUP2 ADD SWAP1 PUSH2 0x2EA6 SWAP2 SWAP1 PUSH2 0x38B0 JUMP JUMPDEST EQ PUSH2 0x2EC4 JUMPI PUSH1 0x40 MLOAD PUSH4 0x1046F38D PUSH1 0xE3 SHL DUP2 MSTORE PUSH1 0x4 ADD PUSH1 0x40 MLOAD DUP1 SWAP2 SUB SWAP1 REVERT JUMPDEST DUP5 PUSH1 0x1 PUSH1 0x1 PUSH1 0xA0 SHL SUB AND DUP5 PUSH1 0x1 PUSH1 0x1 PUSH1 0xA0 SHL SUB AND EQ ISZERO PUSH2 0x2EF7 JUMPI PUSH1 0x40 MLOAD PUSH4 0x1BD1A621 PUSH1 0xE2 SHL DUP2 MSTORE PUSH1 0x4 ADD PUSH1 0x40 MLOAD DUP1 SWAP2 SUB SWAP1 REVERT JUMPDEST DUP3 PUSH2 0x2F15 JUMPI PUSH1 0x40 MLOAD PUSH4 0xD29DA7EF PUSH1 0xE0 SHL DUP2 MSTORE PUSH1 0x4 ADD PUSH1 0x40 MLOAD DUP1 SWAP2 SUB SWAP1 REVERT JUMPDEST PUSH1 0x0 NOT DUP4 EQ ISZERO PUSH2 0x2F38 JUMPI PUSH1 0x40 MLOAD PUSH4 0x5982C5BB PUSH1 0xE1 SHL DUP2 MSTORE PUSH1 0x4 ADD PUSH1 0x40 MLOAD DUP1 SWAP2 SUB SWAP1 REVERT JUMPDEST PUSH1 0x0 PUSH2 0x2F45 DUP7 DUP7 DUP7 PUSH2 0x2350 JUMP JUMPDEST PUSH1 0x5 SLOAD PUSH1 0x40 MLOAD PUSH4 0xC488847B PUSH1 0xE0 SHL DUP2 MSTORE SWAP2 SWAP3 POP PUSH1 0x0 SWAP2 DUP3 SWAP2 PUSH1 0x1 PUSH1 0x1 PUSH1 0xA0 SHL SUB AND SWAP1 PUSH4 0xC488847B SWAP1 PUSH2 0x2F7F SWAP1 ADDRESS SWAP1 DUP10 SWAP1 DUP9 SWAP1 PUSH1 0x4 ADD PUSH2 0x3992 JUMP JUMPDEST PUSH1 0x40 DUP1 MLOAD DUP1 DUP4 SUB DUP2 DUP7 GAS STATICCALL ISZERO DUP1 ISZERO PUSH2 0x2F9B JUMPI RETURNDATASIZE PUSH1 0x0 DUP1 RETURNDATACOPY RETURNDATASIZE PUSH1 0x0 REVERT JUMPDEST POP POP POP POP PUSH1 0x40 MLOAD RETURNDATASIZE PUSH1 0x1F NOT PUSH1 0x1F DUP3 ADD AND DUP3 ADD DUP1 PUSH1 0x40 MSTORE POP DUP2 ADD SWAP1 PUSH2 0x2FBF SWAP2 SWAP1 PUSH2 0x39B6 JUMP JUMPDEST SWAP2 POP SWAP2 POP PUSH1 0x0 DUP3 EQ PUSH2 0x302F JUMPI PUSH1 0x40 MLOAD PUSH3 0x461BCD PUSH1 0xE5 SHL DUP2 MSTORE PUSH1 0x20 PUSH1 0x4 DUP3 ADD MSTORE PUSH1 0x33 PUSH1 0x24 DUP3 ADD MSTORE PUSH32 0x4C49515549444154455F434F4D5054524F4C4C45525F43414C43554C4154455F PUSH1 0x44 DUP3 ADD MSTORE PUSH19 0x105353D5539517D4D152569157D19052531151 PUSH1 0x6A SHL PUSH1 0x64 DUP3 ADD MSTORE PUSH1 0x84 ADD PUSH2 0x815 JUMP JUMPDEST PUSH1 0x40 MLOAD PUSH4 0x70A08231 PUSH1 0xE0 SHL DUP2 MSTORE PUSH1 0x1 PUSH1 0x1 PUSH1 0xA0 SHL SUB DUP9 DUP2 AND PUSH1 0x4 DUP4 ADD MSTORE DUP3 SWAP2 SWAP1 DUP8 AND SWAP1 PUSH4 0x70A08231 SWAP1 PUSH1 0x24 ADD PUSH1 0x20 PUSH1 0x40 MLOAD DUP1 DUP4 SUB DUP2 DUP7 GAS STATICCALL ISZERO DUP1 ISZERO PUSH2 0x3078 JUMPI RETURNDATASIZE PUSH1 0x0 DUP1 RETURNDATACOPY RETURNDATASIZE PUSH1 0x0 REVERT JUMPDEST POP POP POP POP PUSH1 0x40 MLOAD RETURNDATASIZE PUSH1 0x1F NOT PUSH1 0x1F DUP3 ADD AND DUP3 ADD DUP1 PUSH1 0x40 MSTORE POP DUP2 ADD SWAP1 PUSH2 0x309C SWAP2 SWAP1 PUSH2 0x38B0 JUMP JUMPDEST LT ISZERO PUSH2 0x30EA JUMPI PUSH1 0x40 MLOAD PUSH3 0x461BCD PUSH1 0xE5 SHL DUP2 MSTORE PUSH1 0x20 PUSH1 0x4 DUP3 ADD MSTORE PUSH1 0x18 PUSH1 0x24 DUP3 ADD MSTORE PUSH32 0x4C49515549444154455F5345495A455F544F4F5F4D5543480000000000000000 PUSH1 0x44 DUP3 ADD MSTORE PUSH1 0x64 ADD PUSH2 0x815 JUMP JUMPDEST PUSH1 0x1 PUSH1 0x1 PUSH1 0xA0 SHL SUB DUP6 AND ADDRESS EQ ISZERO PUSH2 0x310C JUMPI PUSH2 0x3107 ADDRESS DUP10 DUP10 DUP5 PUSH2 0x1EBD JUMP JUMPDEST PUSH2 0x31C6 JUMP JUMPDEST PUSH1 0x40 MLOAD PUSH4 0xB2A02FF1 PUSH1 0xE0 SHL DUP2 MSTORE PUSH1 0x0 SWAP1 PUSH1 0x1 PUSH1 0x1 PUSH1 0xA0 SHL SUB DUP8 AND SWAP1 PUSH4 0xB2A02FF1 SWAP1 PUSH2 0x313F SWAP1 DUP13 SWAP1 DUP13 SWAP1 DUP8 SWAP1 PUSH1 0x4 ADD PUSH2 0x3992 JUMP JUMPDEST PUSH1 0x20 PUSH1 0x40 MLOAD DUP1 DUP4 SUB DUP2 PUSH1 0x0 DUP8 GAS CALL ISZERO DUP1 ISZERO PUSH2 0x315E JUMPI RETURNDATASIZE PUSH1 0x0 DUP1 RETURNDATACOPY RETURNDATASIZE PUSH1 0x0 REVERT JUMPDEST POP POP POP POP PUSH1 0x40 MLOAD RETURNDATASIZE PUSH1 0x1F NOT PUSH1 0x1F DUP3 ADD AND DUP3 ADD DUP1 PUSH1 0x40 MSTORE POP DUP2 ADD SWAP1 PUSH2 0x3182 SWAP2 SWAP1 PUSH2 0x38B0 JUMP JUMPDEST EQ PUSH2 0x31C6 JUMPI PUSH1 0x40 MLOAD PUSH3 0x461BCD PUSH1 0xE5 SHL DUP2 MSTORE PUSH1 0x20 PUSH1 0x4 DUP3 ADD MSTORE PUSH1 0x14 PUSH1 0x24 DUP3 ADD MSTORE PUSH20 0x1D1BDAD95B881CD95A5E9D5C994819985A5B1959 PUSH1 0x62 SHL PUSH1 0x44 DUP3 ADD MSTORE PUSH1 0x64 ADD PUSH2 0x815 JUMP JUMPDEST PUSH1 0x40 DUP1 MLOAD PUSH1 0x1 PUSH1 0x1 PUSH1 0xA0 SHL SUB DUP11 DUP2 AND DUP3 MSTORE DUP10 DUP2 AND PUSH1 0x20 DUP4 ADD MSTORE DUP2 DUP4 ADD DUP7 SWAP1 MSTORE DUP8 AND PUSH1 0x60 DUP3 ADD MSTORE PUSH1 0x80 DUP2 ADD DUP4 SWAP1 MSTORE SWAP1 MLOAD PUSH32 0x298637F684DA70674F26509B10F07EC2FBC77A335AB1E7D6215A4B2484D8BB52 SWAP2 DUP2 SWAP1 SUB PUSH1 0xA0 ADD SWAP1 LOG1 POP POP POP POP POP POP POP POP JUMP JUMPDEST PUSH1 0x11 SLOAD PUSH1 0x40 MLOAD PUSH4 0x70A08231 PUSH1 0xE0 SHL DUP2 MSTORE ADDRESS PUSH1 0x4 DUP3 ADD MSTORE PUSH1 0x0 SWAP2 PUSH1 0x1 PUSH1 0x1 PUSH1 0xA0 SHL SUB AND SWAP1 DUP2 SWAP1 DUP4 SWAP1 DUP3 SWAP1 PUSH4 0x70A08231 SWAP1 PUSH1 0x24 ADD PUSH1 0x20 PUSH1 0x40 MLOAD DUP1 DUP4 SUB DUP2 DUP7 GAS STATICCALL ISZERO DUP1 ISZERO PUSH2 0x3278 JUMPI RETURNDATASIZE PUSH1 0x0 DUP1 RETURNDATACOPY RETURNDATASIZE PUSH1 0x0 REVERT JUMPDEST POP POP POP POP PUSH1 0x40 MLOAD RETURNDATASIZE PUSH1 0x1F NOT PUSH1 0x1F DUP3 ADD AND DUP3 ADD DUP1 PUSH1 0x40 MSTORE POP DUP2 ADD SWAP1 PUSH2 0x329C SWAP2 SWAP1 PUSH2 0x38B0 JUMP JUMPDEST PUSH1 0x40 MLOAD PUSH4 0x23B872DD PUSH1 0xE0 SHL DUP2 MSTORE SWAP1 SWAP2 POP PUSH1 0x1 PUSH1 0x1 PUSH1 0xA0 SHL SUB DUP4 AND SWAP1 PUSH4 0x23B872DD SWAP1 PUSH2 0x32CF SWAP1 DUP10 SWAP1 ADDRESS SWAP1 DUP11 SWAP1 PUSH1 0x4 ADD PUSH2 0x3992 JUMP JUMPDEST PUSH1 0x0 PUSH1 0x40 MLOAD DUP1 DUP4 SUB DUP2 PUSH1 0x0 DUP8 DUP1 EXTCODESIZE ISZERO DUP1 ISZERO PUSH2 0x32E9 JUMPI PUSH1 0x0 DUP1 REVERT JUMPDEST POP GAS CALL ISZERO DUP1 ISZERO PUSH2 0x32FD JUMPI RETURNDATASIZE PUSH1 0x0 DUP1 RETURNDATACOPY RETURNDATASIZE PUSH1 0x0 REVERT JUMPDEST POP POP POP POP PUSH1 0x0 RETURNDATASIZE PUSH1 0x0 DUP2 EQ PUSH2 0x3319 JUMPI PUSH1 0x20 DUP2 EQ PUSH2 0x3323 JUMPI PUSH1 0x0 DUP1 REVERT JUMPDEST PUSH1 0x0 NOT SWAP2 POP PUSH2 0x332F JUMP JUMPDEST PUSH1 0x20 PUSH1 0x0 DUP1 RETURNDATACOPY PUSH1 0x0 MLOAD SWAP2 POP JUMPDEST POP DUP1 PUSH2 0x337D JUMPI PUSH1 0x40 MLOAD PUSH3 0x461BCD PUSH1 0xE5 SHL DUP2 MSTORE PUSH1 0x20 PUSH1 0x4 DUP3 ADD MSTORE PUSH1 0x18 PUSH1 0x24 DUP3 ADD MSTORE PUSH32 0x544F4B454E5F5452414E534645525F494E5F4641494C45440000000000000000 PUSH1 0x44 DUP3 ADD MSTORE PUSH1 0x64 ADD PUSH2 0x815 JUMP JUMPDEST PUSH1 0x40 MLOAD PUSH4 0x70A08231 PUSH1 0xE0 SHL DUP2 MSTORE ADDRESS PUSH1 0x4 DUP3 ADD MSTORE PUSH1 0x0 SWAP1 PUSH1 0x1 PUSH1 0x1 PUSH1 0xA0 SHL SUB DUP7 AND SWAP1 PUSH4 0x70A08231 SWAP1 PUSH1 0x24 ADD PUSH1 0x20 PUSH1 0x40 MLOAD DUP1 DUP4 SUB DUP2 DUP7 GAS STATICCALL ISZERO DUP1 ISZERO PUSH2 0x33C4 JUMPI RETURNDATASIZE PUSH1 0x0 DUP1 RETURNDATACOPY RETURNDATASIZE PUSH1 0x0 REVERT JUMPDEST POP POP POP POP PUSH1 0x40 MLOAD RETURNDATASIZE PUSH1 0x1F NOT PUSH1 0x1F DUP3 ADD AND DUP3 ADD DUP1 PUSH1 0x40 MSTORE POP DUP2 ADD SWAP1 PUSH2 0x33E8 SWAP2 SWAP1 PUSH2 0x38B0 JUMP JUMPDEST SWAP1 POP PUSH2 0x33F4 DUP4 DUP3 PUSH2 0x3901 JUMP JUMPDEST SWAP9 SWAP8 POP POP POP POP POP POP POP POP JUMP JUMPDEST PUSH1 0x0 PUSH2 0xB62 PUSH2 0x3417 DUP5 PUSH8 0xDE0B6B3A7640000 PUSH2 0x2B95 JUMP JUMPDEST DUP4 MLOAD PUSH1 0x0 PUSH2 0xB62 DUP3 DUP5 PUSH2 0x394F JUMP JUMPDEST DUP3 DUP1 SLOAD PUSH2 0x3431 SWAP1 PUSH2 0x3851 JUMP JUMPDEST SWAP1 PUSH1 0x0 MSTORE PUSH1 0x20 PUSH1 0x0 KECCAK256 SWAP1 PUSH1 0x1F ADD PUSH1 0x20 SWAP1 DIV DUP2 ADD SWAP3 DUP3 PUSH2 0x3453 JUMPI PUSH1 0x0 DUP6 SSTORE PUSH2 0x3499 JUMP JUMPDEST DUP3 PUSH1 0x1F LT PUSH2 0x346C JUMPI DUP1 MLOAD PUSH1 0xFF NOT AND DUP4 DUP1 ADD OR DUP6 SSTORE PUSH2 0x3499 JUMP JUMPDEST DUP3 DUP1 ADD PUSH1 0x1 ADD DUP6 SSTORE DUP3 ISZERO PUSH2 0x3499 JUMPI SWAP2 DUP3 ADD JUMPDEST DUP3 DUP2 GT ISZERO PUSH2 0x3499 JUMPI DUP3 MLOAD DUP3 SSTORE SWAP2 PUSH1 0x20 ADD SWAP2 SWAP1 PUSH1 0x1 ADD SWAP1 PUSH2 0x347E JUMP JUMPDEST POP PUSH2 0x1791 SWAP3 SWAP2 POP JUMPDEST DUP1 DUP3 GT ISZERO PUSH2 0x1791 JUMPI PUSH1 0x0 DUP2 SSTORE PUSH1 0x1 ADD PUSH2 0x34A1 JUMP JUMPDEST PUSH1 0x0 PUSH1 0x20 DUP1 DUP4 MSTORE DUP4 MLOAD DUP1 DUP3 DUP6 ADD MSTORE PUSH1 0x0 JUMPDEST DUP2 DUP2 LT ISZERO PUSH2 0x34E2 JUMPI DUP6 DUP2 ADD DUP4 ADD MLOAD DUP6 DUP3 ADD PUSH1 0x40 ADD MSTORE DUP3 ADD PUSH2 0x34C6 JUMP JUMPDEST DUP2 DUP2 GT ISZERO PUSH2 0x34F4 JUMPI PUSH1 0x0 PUSH1 0x40 DUP4 DUP8 ADD ADD MSTORE JUMPDEST POP PUSH1 0x1F ADD PUSH1 0x1F NOT AND SWAP3 SWAP1 SWAP3 ADD PUSH1 0x40 ADD SWAP4 SWAP3 POP POP POP JUMP JUMPDEST PUSH1 0x1 PUSH1 0x1 PUSH1 0xA0 SHL SUB DUP2 AND DUP2 EQ PUSH2 0x351F JUMPI PUSH1 0x0 DUP1 REVERT JUMPDEST POP JUMP JUMPDEST PUSH1 0x0 DUP1 PUSH1 0x40 DUP4 DUP6 SUB SLT ISZERO PUSH2 0x3535 JUMPI PUSH1 0x0 DUP1 REVERT JUMPDEST DUP3 CALLDATALOAD PUSH2 0x3540 DUP2 PUSH2 0x350A JUMP JUMPDEST SWAP5 PUSH1 0x20 SWAP4 SWAP1 SWAP4 ADD CALLDATALOAD SWAP4 POP POP POP JUMP JUMPDEST PUSH1 0x0 PUSH1 0x20 DUP3 DUP5 SUB SLT ISZERO PUSH2 0x3560 JUMPI PUSH1 0x0 DUP1 REVERT JUMPDEST POP CALLDATALOAD SWAP2 SWAP1 POP JUMP JUMPDEST PUSH1 0x0 PUSH1 0x20 DUP3 DUP5 SUB SLT ISZERO PUSH2 0x3579 JUMPI PUSH1 0x0 DUP1 REVERT JUMPDEST DUP2 CALLDATALOAD PUSH2 0xB62 DUP2 PUSH2 0x350A JUMP JUMPDEST PUSH4 0x4E487B71 PUSH1 0xE0 SHL PUSH1 0x0 MSTORE PUSH1 0x41 PUSH1 0x4 MSTORE PUSH1 0x24 PUSH1 0x0 REVERT JUMPDEST PUSH1 0x0 DUP3 PUSH1 0x1F DUP4 ADD SLT PUSH2 0x35AB JUMPI PUSH1 0x0 DUP1 REVERT JUMPDEST DUP2 CALLDATALOAD PUSH8 0xFFFFFFFFFFFFFFFF DUP1 DUP3 GT ISZERO PUSH2 0x35C6 JUMPI PUSH2 0x35C6 PUSH2 0x3584 JUMP JUMPDEST PUSH1 0x40 MLOAD PUSH1 0x1F DUP4 ADD PUSH1 0x1F NOT SWAP1 DUP2 AND PUSH1 0x3F ADD AND DUP2 ADD SWAP1 DUP3 DUP3 GT DUP2 DUP4 LT OR ISZERO PUSH2 0x35EE JUMPI PUSH2 0x35EE PUSH2 0x3584 JUMP JUMPDEST DUP2 PUSH1 0x40 MSTORE DUP4 DUP2 MSTORE DUP7 PUSH1 0x20 DUP6 DUP9 ADD ADD GT ISZERO PUSH2 0x3607 JUMPI PUSH1 0x0 DUP1 REVERT JUMPDEST DUP4 PUSH1 0x20 DUP8 ADD PUSH1 0x20 DUP4 ADD CALLDATACOPY PUSH1 0x0 PUSH1 0x20 DUP6 DUP4 ADD ADD MSTORE DUP1 SWAP5 POP POP POP POP POP SWAP3 SWAP2 POP POP JUMP JUMPDEST DUP1 CALLDATALOAD PUSH1 0xFF DUP2 AND DUP2 EQ PUSH2 0x3638 JUMPI PUSH1 0x0 DUP1 REVERT JUMPDEST SWAP2 SWAP1 POP JUMP JUMPDEST PUSH1 0x0 DUP1 PUSH1 0x0 DUP1 PUSH1 0x0 DUP1 PUSH1 0x0 PUSH1 0xE0 DUP9 DUP11 SUB SLT ISZERO PUSH2 0x3658 JUMPI PUSH1 0x0 DUP1 REVERT JUMPDEST DUP8 CALLDATALOAD PUSH2 0x3663 DUP2 PUSH2 0x350A JUMP JUMPDEST SWAP7 POP PUSH1 0x20 DUP9 ADD CALLDATALOAD PUSH2 0x3673 DUP2 PUSH2 0x350A JUMP JUMPDEST SWAP6 POP PUSH1 0x40 DUP9 ADD CALLDATALOAD PUSH2 0x3683 DUP2 PUSH2 0x350A JUMP JUMPDEST SWAP5 POP PUSH1 0x60 DUP9 ADD CALLDATALOAD SWAP4 POP PUSH1 0x80 DUP9 ADD CALLDATALOAD PUSH8 0xFFFFFFFFFFFFFFFF DUP1 DUP3 GT ISZERO PUSH2 0x36A7 JUMPI PUSH1 0x0 DUP1 REVERT JUMPDEST PUSH2 0x36B3 DUP12 DUP4 DUP13 ADD PUSH2 0x359A JUMP JUMPDEST SWAP5 POP PUSH1 0xA0 DUP11 ADD CALLDATALOAD SWAP2 POP DUP1 DUP3 GT ISZERO PUSH2 0x36C9 JUMPI PUSH1 0x0 DUP1 REVERT JUMPDEST POP PUSH2 0x36D6 DUP11 DUP3 DUP12 ADD PUSH2 0x359A JUMP JUMPDEST SWAP3 POP POP PUSH2 0x36E5 PUSH1 0xC0 DUP10 ADD PUSH2 0x3627 JUMP JUMPDEST SWAP1 POP SWAP3 SWAP6 SWAP9 SWAP2 SWAP5 SWAP8 POP SWAP3 SWAP6 POP JUMP JUMPDEST PUSH1 0x0 DUP1 PUSH1 0x0 PUSH1 0x60 DUP5 DUP7 SUB SLT ISZERO PUSH2 0x3708 JUMPI PUSH1 0x0 DUP1 REVERT JUMPDEST DUP4 CALLDATALOAD PUSH2 0x3713 DUP2 PUSH2 0x350A JUMP JUMPDEST SWAP3 POP PUSH1 0x20 DUP5 ADD CALLDATALOAD PUSH2 0x3723 DUP2 PUSH2 0x350A JUMP JUMPDEST SWAP3 SWAP6 SWAP3 SWAP5 POP POP POP PUSH1 0x40 SWAP2 SWAP1 SWAP2 ADD CALLDATALOAD SWAP1 JUMP JUMPDEST PUSH1 0x0 DUP1 PUSH1 0x0 DUP1 PUSH1 0x0 DUP1 PUSH1 0xC0 DUP8 DUP10 SUB SLT ISZERO PUSH2 0x374D JUMPI PUSH1 0x0 DUP1 REVERT JUMPDEST DUP7 CALLDATALOAD PUSH2 0x3758 DUP2 PUSH2 0x350A JUMP JUMPDEST SWAP6 POP PUSH1 0x20 DUP8 ADD CALLDATALOAD PUSH2 0x3768 DUP2 PUSH2 0x350A JUMP JUMPDEST SWAP5 POP PUSH1 0x40 DUP8 ADD CALLDATALOAD SWAP4 POP PUSH1 0x60 DUP8 ADD CALLDATALOAD PUSH8 0xFFFFFFFFFFFFFFFF DUP1 DUP3 GT ISZERO PUSH2 0x378C JUMPI PUSH1 0x0 DUP1 REVERT JUMPDEST PUSH2 0x3798 DUP11 DUP4 DUP12 ADD PUSH2 0x359A JUMP JUMPDEST SWAP5 POP PUSH1 0x80 DUP10 ADD CALLDATALOAD SWAP2 POP DUP1 DUP3 GT ISZERO PUSH2 0x37AE JUMPI PUSH1 0x0 DUP1 REVERT JUMPDEST POP PUSH2 0x37BB DUP10 DUP3 DUP11 ADD PUSH2 0x359A JUMP JUMPDEST SWAP3 POP POP PUSH2 0x37CA PUSH1 0xA0 DUP9 ADD PUSH2 0x3627 JUMP JUMPDEST SWAP1 POP SWAP3 SWAP6 POP SWAP3 SWAP6 POP SWAP3 SWAP6 JUMP JUMPDEST PUSH1 0x0 DUP1 PUSH1 0x40 DUP4 DUP6 SUB SLT ISZERO PUSH2 0x37E9 JUMPI PUSH1 0x0 DUP1 REVERT JUMPDEST DUP3 CALLDATALOAD PUSH2 0x37F4 DUP2 PUSH2 0x350A JUMP JUMPDEST SWAP2 POP PUSH1 0x20 DUP4 ADD CALLDATALOAD PUSH2 0x3804 DUP2 PUSH2 0x350A JUMP JUMPDEST DUP1 SWAP2 POP POP SWAP3 POP SWAP3 SWAP1 POP JUMP JUMPDEST PUSH1 0x0 DUP1 PUSH1 0x0 PUSH1 0x60 DUP5 DUP7 SUB SLT ISZERO PUSH2 0x3824 JUMPI PUSH1 0x0 DUP1 REVERT JUMPDEST DUP4 CALLDATALOAD PUSH2 0x382F DUP2 PUSH2 0x350A JUMP JUMPDEST SWAP3 POP PUSH1 0x20 DUP5 ADD CALLDATALOAD SWAP2 POP PUSH1 0x40 DUP5 ADD CALLDATALOAD PUSH2 0x3846 DUP2 PUSH2 0x350A JUMP JUMPDEST DUP1 SWAP2 POP POP SWAP3 POP SWAP3 POP SWAP3 JUMP JUMPDEST PUSH1 0x1 DUP2 DUP2 SHR SWAP1 DUP3 AND DUP1 PUSH2 0x3865 JUMPI PUSH1 0x7F DUP3 AND SWAP2 POP JUMPDEST PUSH1 0x20 DUP3 LT DUP2 EQ ISZERO PUSH2 0x3886 JUMPI PUSH4 0x4E487B71 PUSH1 0xE0 SHL PUSH1 0x0 MSTORE PUSH1 0x22 PUSH1 0x4 MSTORE PUSH1 0x24 PUSH1 0x0 REVERT JUMPDEST POP SWAP2 SWAP1 POP JUMP JUMPDEST PUSH1 0x20 DUP1 DUP3 MSTORE PUSH1 0xA SWAP1 DUP3 ADD MSTORE PUSH10 0x1C994B595B9D195C9959 PUSH1 0xB2 SHL PUSH1 0x40 DUP3 ADD MSTORE PUSH1 0x60 ADD SWAP1 JUMP JUMPDEST PUSH1 0x0 PUSH1 0x20 DUP3 DUP5 SUB SLT ISZERO PUSH2 0x38C2 JUMPI PUSH1 0x0 DUP1 REVERT JUMPDEST POP MLOAD SWAP2 SWAP1 POP JUMP JUMPDEST PUSH1 0x0 PUSH1 0x20 DUP3 DUP5 SUB SLT ISZERO PUSH2 0x38DB JUMPI PUSH1 0x0 DUP1 REVERT JUMPDEST DUP2 MLOAD DUP1 ISZERO ISZERO DUP2 EQ PUSH2 0xB62 JUMPI PUSH1 0x0 DUP1 REVERT JUMPDEST PUSH4 0x4E487B71 PUSH1 0xE0 SHL PUSH1 0x0 MSTORE PUSH1 0x11 PUSH1 0x4 MSTORE PUSH1 0x24 PUSH1 0x0 REVERT JUMPDEST PUSH1 0x0 DUP3 DUP3 LT ISZERO PUSH2 0x3913 JUMPI PUSH2 0x3913 PUSH2 0x38EB JUMP JUMPDEST POP SUB SWAP1 JUMP JUMPDEST PUSH1 0x0 DUP3 NOT DUP3 GT ISZERO PUSH2 0x392B JUMPI PUSH2 0x392B PUSH2 0x38EB JUMP JUMPDEST POP ADD SWAP1 JUMP JUMPDEST PUSH1 0x0 DUP2 PUSH1 0x0 NOT DIV DUP4 GT DUP3 ISZERO ISZERO AND ISZERO PUSH2 0x394A JUMPI PUSH2 0x394A PUSH2 0x38EB JUMP JUMPDEST POP MUL SWAP1 JUMP JUMPDEST PUSH1 0x0 DUP3 PUSH2 0x396C JUMPI PUSH4 0x4E487B71 PUSH1 0xE0 SHL PUSH1 0x0 MSTORE PUSH1 0x12 PUSH1 0x4 MSTORE PUSH1 0x24 PUSH1 0x0 REVERT JUMPDEST POP DIV SWAP1 JUMP JUMPDEST PUSH1 0x1 PUSH1 0x1 PUSH1 0xA0 SHL SUB SWAP4 SWAP1 SWAP4 AND DUP4 MSTORE PUSH1 0x20 DUP4 ADD SWAP2 SWAP1 SWAP2 MSTORE PUSH1 0x40 DUP3 ADD MSTORE PUSH1 0x60 ADD SWAP1 JUMP JUMPDEST PUSH1 0x1 PUSH1 0x1 PUSH1 0xA0 SHL SUB SWAP4 DUP5 AND DUP2 MSTORE SWAP2 SWAP1 SWAP3 AND PUSH1 0x20 DUP3 ADD MSTORE PUSH1 0x40 DUP2 ADD SWAP2 SWAP1 SWAP2 MSTORE PUSH1 0x60 ADD SWAP1 JUMP JUMPDEST PUSH1 0x0 DUP1 PUSH1 0x40 DUP4 DUP6 SUB SLT ISZERO PUSH2 0x39C9 JUMPI PUSH1 0x0 DUP1 REVERT JUMPDEST POP POP DUP1 MLOAD PUSH1 0x20 SWAP1 SWAP2 ADD MLOAD SWAP1 SWAP3 SWAP1 SWAP2 POP JUMP INVALID 0xDD CALLCODE MSTORE 0xAD SHL 0xE2 0xC8 SWAP12 PUSH10 0xC2B068FC378DAA952BA7 CALL PUSH4 0xC4A11628 CREATE2 GAS 0x4D CREATE2 0x23 0xB3 0xEF LOG2 PUSH5 0x6970667358 0x22 SLT KECCAK256 0xCE SWAP3 PUSH6 0x71C28F011F5D 0x21 PUSH5 0x45C5294320 PUSH25 0xAFCDB1757E138C7B79980CAD0557EC64736F6C634300080A00 CALLER "
	},
	"abi": [
		{
			"inputs": [],
			"name": "_acceptAdmin",
			"outputs": [
				{
					"internalType": "uint256",
					"name": "",
					"type": "uint256"
				}
			],
			"stateMutability": "nonpayable",
			"type": "function"
		},
		{
			"inputs": [
				{
					"internalType": "uint256",
					"name": "addAmount",
					"type": "uint256"
				}
			],
			"name": "_addReserves",
			"outputs": [
				{
					"internalType": "uint256",
					"name": "",
					"type": "uint256"
				}
			],
			"stateMutability": "nonpayable",
			"type": "function"
		},
		{
			"inputs": [
				{
					"internalType": "address",
					"name": "compLikeDelegatee",
					"type": "address"
				}
			],
			"name": "_delegateCompLikeTo",
			"outputs": [],
			"stateMutability": "nonpayable",
			"type": "function"
		},
		{
			"inputs": [
				{
					"internalType": "uint256",
					"name": "reduceAmount",
					"type": "uint256"
				}
			],
			"name": "_reduceReserves",
			"outputs": [
				{
					"internalType": "uint256",
					"name": "",
					"type": "uint256"
				}
			],
			"stateMutability": "nonpayable",
			"type": "function"
		},
		{
			"inputs": [
				{
					"internalType": "contract ComptrollerInterface",
					"name": "newComptroller",
					"type": "address"
				}
			],
			"name": "_setComptroller",
			"outputs": [
				{
					"internalType": "uint256",
					"name": "",
					"type": "uint256"
				}
			],
			"stateMutability": "nonpayable",
			"type": "function"
		},
		{
			"inputs": [
				{
					"internalType": "contract InterestRateModel",
					"name": "newInterestRateModel",
					"type": "address"
				}
			],
			"name": "_setInterestRateModel",
			"outputs": [
				{
					"internalType": "uint256",
					"name": "",
					"type": "uint256"
				}
			],
			"stateMutability": "nonpayable",
			"type": "function"
		},
		{
			"inputs": [
				{
					"internalType": "address payable",
					"name": "newPendingAdmin",
					"type": "address"
				}
			],
			"name": "_setPendingAdmin",
			"outputs": [
				{
					"internalType": "uint256",
					"name": "",
					"type": "uint256"
				}
			],
			"stateMutability": "nonpayable",
			"type": "function"
		},
		{
			"inputs": [
				{
					"internalType": "uint256",
					"name": "newReserveFactorMantissa",
					"type": "uint256"
				}
			],
			"name": "_setReserveFactor",
			"outputs": [
				{
					"internalType": "uint256",
					"name": "",
					"type": "uint256"
				}
			],
			"stateMutability": "nonpayable",
			"type": "function"
		},
		{
			"inputs": [
				{
					"internalType": "address",
					"name": "underlying_",
					"type": "address"
				},
				{
					"internalType": "contract ComptrollerInterface",
					"name": "comptroller_",
					"type": "address"
				},
				{
					"internalType": "contract InterestRateModel",
					"name": "interestRateModel_",
					"type": "address"
				},
				{
					"internalType": "uint256",
					"name": "initialExchangeRateMantissa_",
					"type": "uint256"
				},
				{
					"internalType": "string",
					"name": "name_",
					"type": "string"
				},
				{
					"internalType": "string",
					"name": "symbol_",
					"type": "string"
				},
				{
					"internalType": "uint8",
					"name": "decimals_",
					"type": "uint8"
				},
				{
					"internalType": "address payable",
					"name": "admin_",
					"type": "address"
				}
			],
			"stateMutability": "nonpayable",
			"type": "constructor"
		},
		{
			"inputs": [],
			"name": "AcceptAdminPendingAdminCheck",
			"type": "error"
		},
		{
			"inputs": [],
			"name": "accrueInterest",
			"outputs": [
				{
					"internalType": "uint256",
					"name": "",
					"type": "uint256"
				}
			],
			"stateMutability": "nonpayable",
			"type": "function"
		},
		{
			"inputs": [
				{
					"internalType": "uint256",
					"name": "actualAddAmount",
					"type": "uint256"
				}
			],
			"name": "AddReservesFactorFreshCheck",
			"type": "error"
		},
		{
			"inputs": [],
			"name": "BorrowCashNotAvailable",
			"type": "error"
		},
		{
			"inputs": [
				{
					"internalType": "uint256",
					"name": "errorCode",
					"type": "uint256"
				}
			],
			"name": "BorrowComptrollerRejection",
			"type": "error"
		},
		{
			"inputs": [],
			"name": "BorrowFreshnessCheck",
			"type": "error"
		},
		{
			"inputs": [
				{
					"internalType": "uint256",
					"name": "errorCode",
					"type": "uint256"
				}
			],
			"name": "LiquidateAccrueBorrowInterestFailed",
			"type": "error"
		},
		{
			"inputs": [
				{
					"internalType": "uint256",
					"name": "errorCode",
					"type": "uint256"
				}
			],
			"name": "LiquidateAccrueCollateralInterestFailed",
			"type": "error"
		},
		{
			"inputs": [],
			"name": "LiquidateCloseAmountIsUintMax",
			"type": "error"
		},
		{
			"inputs": [],
			"name": "LiquidateCloseAmountIsZero",
			"type": "error"
		},
		{
			"inputs": [],
			"name": "LiquidateCollateralFreshnessCheck",
			"type": "error"
		},
		{
			"inputs": [
				{
					"internalType": "uint256",
					"name": "errorCode",
					"type": "uint256"
				}
			],
			"name": "LiquidateComptrollerRejection",
			"type": "error"
		},
		{
			"inputs": [],
			"name": "LiquidateFreshnessCheck",
			"type": "error"
		},
		{
			"inputs": [],
			"name": "LiquidateLiquidatorIsBorrower",
			"type": "error"
		},
		{
			"inputs": [
				{
					"internalType": "uint256",
					"name": "errorCode",
					"type": "uint256"
				}
			],
			"name": "LiquidateRepayBorrowFreshFailed",
			"type": "error"
		},
		{
			"inputs": [
				{
					"internalType": "uint256",
					"name": "errorCode",
					"type": "uint256"
				}
			],
			"name": "LiquidateSeizeComptrollerRejection",
			"type": "error"
		},
		{
			"inputs": [],
			"name": "LiquidateSeizeLiquidatorIsBorrower",
			"type": "error"
		},
		{
			"inputs": [
				{
					"internalType": "uint256",
					"name": "errorCode",
					"type": "uint256"
				}
			],
			"name": "MintComptrollerRejection",
			"type": "error"
		},
		{
			"inputs": [],
			"name": "MintFreshnessCheck",
			"type": "error"
		},
		{
			"inputs": [
				{
					"internalType": "uint256",
					"name": "errorCode",
					"type": "uint256"
				}
			],
			"name": "RedeemComptrollerRejection",
			"type": "error"
		},
		{
			"inputs": [],
			"name": "RedeemFreshnessCheck",
			"type": "error"
		},
		{
			"inputs": [],
			"name": "RedeemTransferOutNotPossible",
			"type": "error"
		},
		{
			"inputs": [],
			"name": "ReduceReservesAdminCheck",
			"type": "error"
		},
		{
			"inputs": [],
			"name": "ReduceReservesCashNotAvailable",
			"type": "error"
		},
		{
			"inputs": [],
			"name": "ReduceReservesCashValidation",
			"type": "error"
		},
		{
			"inputs": [],
			"name": "ReduceReservesFreshCheck",
			"type": "error"
		},
		{
			"inputs": [
				{
					"internalType": "uint256",
					"name": "errorCode",
					"type": "uint256"
				}
			],
			"name": "RepayBorrowComptrollerRejection",
			"type": "error"
		},
		{
			"inputs": [],
			"name": "RepayBorrowFreshnessCheck",
			"type": "error"
		},
		{
			"inputs": [],
			"name": "SetComptrollerOwnerCheck",
			"type": "error"
		},
		{
			"inputs": [],
			"name": "SetInterestRateModelFreshCheck",
			"type": "error"
		},
		{
			"inputs": [],
			"name": "SetInterestRateModelOwnerCheck",
			"type": "error"
		},
		{
			"inputs": [],
			"name": "SetPendingAdminOwnerCheck",
			"type": "error"
		},
		{
			"inputs": [],
			"name": "SetReserveFactorAdminCheck",
			"type": "error"
		},
		{
			"inputs": [],
			"name": "SetReserveFactorBoundsCheck",
			"type": "error"
		},
		{
			"inputs": [],
			"name": "SetReserveFactorFreshCheck",
			"type": "error"
		},
		{
			"inputs": [
				{
					"internalType": "uint256",
					"name": "errorCode",
					"type": "uint256"
				}
			],
			"name": "TransferComptrollerRejection",
			"type": "error"
		},
		{
			"inputs": [],
			"name": "TransferNotAllowed",
			"type": "error"
		},
		{
			"inputs": [],
			"name": "TransferNotEnough",
			"type": "error"
		},
		{
			"inputs": [],
			"name": "TransferTooMuch",
			"type": "error"
		},
		{
			"anonymous": false,
			"inputs": [
				{
					"indexed": false,
					"internalType": "uint256",
					"name": "cashPrior",
					"type": "uint256"
				},
				{
					"indexed": false,
					"internalType": "uint256",
					"name": "interestAccumulated",
					"type": "uint256"
				},
				{
					"indexed": false,
					"internalType": "uint256",
					"name": "borrowIndex",
					"type": "uint256"
				},
				{
					"indexed": false,
					"internalType": "uint256",
					"name": "totalBorrows",
					"type": "uint256"
				}
			],
			"name": "AccrueInterest",
			"type": "event"
		},
		{
			"anonymous": false,
			"inputs": [
				{
					"indexed": true,
					"internalType": "address",
					"name": "owner",
					"type": "address"
				},
				{
					"indexed": true,
					"internalType": "address",
					"name": "spender",
					"type": "address"
				},
				{
					"indexed": false,
					"internalType": "uint256",
					"name": "amount",
					"type": "uint256"
				}
			],
			"name": "Approval",
			"type": "event"
		},
		{
			"inputs": [
				{
					"internalType": "address",
					"name": "spender",
					"type": "address"
				},
				{
					"internalType": "uint256",
					"name": "amount",
					"type": "uint256"
				}
			],
			"name": "approve",
			"outputs": [
				{
					"internalType": "bool",
					"name": "",
					"type": "bool"
				}
			],
			"stateMutability": "nonpayable",
			"type": "function"
		},
		{
			"inputs": [
				{
					"internalType": "address",
					"name": "owner",
					"type": "address"
				}
			],
			"name": "balanceOfUnderlying",
			"outputs": [
				{
					"internalType": "uint256",
					"name": "",
					"type": "uint256"
				}
			],
			"stateMutability": "nonpayable",
			"type": "function"
		},
		{
			"inputs": [
				{
					"internalType": "uint256",
					"name": "borrowAmount",
					"type": "uint256"
				}
			],
			"name": "borrow",
			"outputs": [
				{
					"internalType": "uint256",
					"name": "",
					"type": "uint256"
				}
			],
			"stateMutability": "nonpayable",
			"type": "function"
		},
		{
			"anonymous": false,
			"inputs": [
				{
					"indexed": false,
					"internalType": "address",
					"name": "borrower",
					"type": "address"
				},
				{
					"indexed": false,
					"internalType": "uint256",
					"name": "borrowAmount",
					"type": "uint256"
				},
				{
					"indexed": false,
					"internalType": "uint256",
					"name": "accountBorrows",
					"type": "uint256"
				},
				{
					"indexed": false,
					"internalType": "uint256",
					"name": "totalBorrows",
					"type": "uint256"
				}
			],
			"name": "Borrow",
			"type": "event"
		},
		{
			"inputs": [
				{
					"internalType": "address",
					"name": "account",
					"type": "address"
				}
			],
			"name": "borrowBalanceCurrent",
			"outputs": [
				{
					"internalType": "uint256",
					"name": "",
					"type": "uint256"
				}
			],
			"stateMutability": "nonpayable",
			"type": "function"
		},
		{
			"inputs": [],
			"name": "exchangeRateCurrent",
			"outputs": [
				{
					"internalType": "uint256",
					"name": "",
					"type": "uint256"
				}
			],
			"stateMutability": "nonpayable",
			"type": "function"
		},
		{
			"inputs": [
				{
					"internalType": "address",
					"name": "underlying_",
					"type": "address"
				},
				{
					"internalType": "contract ComptrollerInterface",
					"name": "comptroller_",
					"type": "address"
				},
				{
					"internalType": "contract InterestRateModel",
					"name": "interestRateModel_",
					"type": "address"
				},
				{
					"internalType": "uint256",
					"name": "initialExchangeRateMantissa_",
					"type": "uint256"
				},
				{
					"internalType": "string",
					"name": "name_",
					"type": "string"
				},
				{
					"internalType": "string",
					"name": "symbol_",
					"type": "string"
				},
				{
					"internalType": "uint8",
					"name": "decimals_",
					"type": "uint8"
				}
			],
			"name": "initialize",
			"outputs": [],
			"stateMutability": "nonpayable",
			"type": "function"
		},
		{
			"inputs": [
				{
					"internalType": "contract ComptrollerInterface",
					"name": "comptroller_",
					"type": "address"
				},
				{
					"internalType": "contract InterestRateModel",
					"name": "interestRateModel_",
					"type": "address"
				},
				{
					"internalType": "uint256",
					"name": "initialExchangeRateMantissa_",
					"type": "uint256"
				},
				{
					"internalType": "string",
					"name": "name_",
					"type": "string"
				},
				{
					"internalType": "string",
					"name": "symbol_",
					"type": "string"
				},
				{
					"internalType": "uint8",
					"name": "decimals_",
					"type": "uint8"
				}
			],
			"name": "initialize",
			"outputs": [],
			"stateMutability": "nonpayable",
			"type": "function"
		},
		{
			"inputs": [
				{
					"internalType": "address",
					"name": "borrower",
					"type": "address"
				},
				{
					"internalType": "uint256",
					"name": "repayAmount",
					"type": "uint256"
				},
				{
					"internalType": "contract CTokenInterface",
					"name": "cTokenCollateral",
					"type": "address"
				}
			],
			"name": "liquidateBorrow",
			"outputs": [
				{
					"internalType": "uint256",
					"name": "",
					"type": "uint256"
				}
			],
			"stateMutability": "nonpayable",
			"type": "function"
		},
		{
			"anonymous": false,
			"inputs": [
				{
					"indexed": false,
					"internalType": "address",
					"name": "liquidator",
					"type": "address"
				},
				{
					"indexed": false,
					"internalType": "address",
					"name": "borrower",
					"type": "address"
				},
				{
					"indexed": false,
					"internalType": "uint256",
					"name": "repayAmount",
					"type": "uint256"
				},
				{
					"indexed": false,
					"internalType": "address",
					"name": "cTokenCollateral",
					"type": "address"
				},
				{
					"indexed": false,
					"internalType": "uint256",
					"name": "seizeTokens",
					"type": "uint256"
				}
			],
			"name": "LiquidateBorrow",
			"type": "event"
		},
		{
			"inputs": [
				{
					"internalType": "uint256",
					"name": "mintAmount",
					"type": "uint256"
				}
			],
			"name": "mint",
			"outputs": [
				{
					"internalType": "uint256",
					"name": "",
					"type": "uint256"
				}
			],
			"stateMutability": "nonpayable",
			"type": "function"
		},
		{
			"anonymous": false,
			"inputs": [
				{
					"indexed": false,
					"internalType": "address",
					"name": "minter",
					"type": "address"
				},
				{
					"indexed": false,
					"internalType": "uint256",
					"name": "mintAmount",
					"type": "uint256"
				},
				{
					"indexed": false,
					"internalType": "uint256",
					"name": "mintTokens",
					"type": "uint256"
				}
			],
			"name": "Mint",
			"type": "event"
		},
		{
			"anonymous": false,
			"inputs": [
				{
					"indexed": false,
					"internalType": "address",
					"name": "oldAdmin",
					"type": "address"
				},
				{
					"indexed": false,
					"internalType": "address",
					"name": "newAdmin",
					"type": "address"
				}
			],
			"name": "NewAdmin",
			"type": "event"
		},
		{
			"anonymous": false,
			"inputs": [
				{
					"indexed": false,
					"internalType": "contract ComptrollerInterface",
					"name": "oldComptroller",
					"type": "address"
				},
				{
					"indexed": false,
					"internalType": "contract ComptrollerInterface",
					"name": "newComptroller",
					"type": "address"
				}
			],
			"name": "NewComptroller",
			"type": "event"
		},
		{
			"anonymous": false,
			"inputs": [
				{
					"indexed": false,
					"internalType": "contract InterestRateModel",
					"name": "oldInterestRateModel",
					"type": "address"
				},
				{
					"indexed": false,
					"internalType": "contract InterestRateModel",
					"name": "newInterestRateModel",
					"type": "address"
				}
			],
			"name": "NewMarketInterestRateModel",
			"type": "event"
		},
		{
			"anonymous": false,
			"inputs": [
				{
					"indexed": false,
					"internalType": "address",
					"name": "oldPendingAdmin",
					"type": "address"
				},
				{
					"indexed": false,
					"internalType": "address",
					"name": "newPendingAdmin",
					"type": "address"
				}
			],
			"name": "NewPendingAdmin",
			"type": "event"
		},
		{
			"anonymous": false,
			"inputs": [
				{
					"indexed": false,
					"internalType": "uint256",
					"name": "oldReserveFactorMantissa",
					"type": "uint256"
				},
				{
					"indexed": false,
					"internalType": "uint256",
					"name": "newReserveFactorMantissa",
					"type": "uint256"
				}
			],
			"name": "NewReserveFactor",
			"type": "event"
		},
		{
			"inputs": [
				{
					"internalType": "uint256",
					"name": "redeemTokens",
					"type": "uint256"
				}
			],
			"name": "redeem",
			"outputs": [
				{
					"internalType": "uint256",
					"name": "",
					"type": "uint256"
				}
			],
			"stateMutability": "nonpayable",
			"type": "function"
		},
		{
			"anonymous": false,
			"inputs": [
				{
					"indexed": false,
					"internalType": "address",
					"name": "redeemer",
					"type": "address"
				},
				{
					"indexed": false,
					"internalType": "uint256",
					"name": "redeemAmount",
					"type": "uint256"
				},
				{
					"indexed": false,
					"internalType": "uint256",
					"name": "redeemTokens",
					"type": "uint256"
				}
			],
			"name": "Redeem",
			"type": "event"
		},
		{
			"inputs": [
				{
					"internalType": "uint256",
					"name": "redeemAmount",
					"type": "uint256"
				}
			],
			"name": "redeemUnderlying",
			"outputs": [
				{
					"internalType": "uint256",
					"name": "",
					"type": "uint256"
				}
			],
			"stateMutability": "nonpayable",
			"type": "function"
		},
		{
			"inputs": [
				{
					"internalType": "uint256",
					"name": "repayAmount",
					"type": "uint256"
				}
			],
			"name": "repayBorrow",
			"outputs": [
				{
					"internalType": "uint256",
					"name": "",
					"type": "uint256"
				}
			],
			"stateMutability": "nonpayable",
			"type": "function"
		},
		{
			"anonymous": false,
			"inputs": [
				{
					"indexed": false,
					"internalType": "address",
					"name": "payer",
					"type": "address"
				},
				{
					"indexed": false,
					"internalType": "address",
					"name": "borrower",
					"type": "address"
				},
				{
					"indexed": false,
					"internalType": "uint256",
					"name": "repayAmount",
					"type": "uint256"
				},
				{
					"indexed": false,
					"internalType": "uint256",
					"name": "accountBorrows",
					"type": "uint256"
				},
				{
					"indexed": false,
					"internalType": "uint256",
					"name": "totalBorrows",
					"type": "uint256"
				}
			],
			"name": "RepayBorrow",
			"type": "event"
		},
		{
			"inputs": [
				{
					"internalType": "address",
					"name": "borrower",
					"type": "address"
				},
				{
					"internalType": "uint256",
					"name": "repayAmount",
					"type": "uint256"
				}
			],
			"name": "repayBorrowBehalf",
			"outputs": [
				{
					"internalType": "uint256",
					"name": "",
					"type": "uint256"
				}
			],
			"stateMutability": "nonpayable",
			"type": "function"
		},
		{
			"anonymous": false,
			"inputs": [
				{
					"indexed": false,
					"internalType": "address",
					"name": "benefactor",
					"type": "address"
				},
				{
					"indexed": false,
					"internalType": "uint256",
					"name": "addAmount",
					"type": "uint256"
				},
				{
					"indexed": false,
					"internalType": "uint256",
					"name": "newTotalReserves",
					"type": "uint256"
				}
			],
			"name": "ReservesAdded",
			"type": "event"
		},
		{
			"anonymous": false,
			"inputs": [
				{
					"indexed": false,
					"internalType": "address",
					"name": "admin",
					"type": "address"
				},
				{
					"indexed": false,
					"internalType": "uint256",
					"name": "reduceAmount",
					"type": "uint256"
				},
				{
					"indexed": false,
					"internalType": "uint256",
					"name": "newTotalReserves",
					"type": "uint256"
				}
			],
			"name": "ReservesReduced",
			"type": "event"
		},
		{
			"inputs": [
				{
					"internalType": "address",
					"name": "liquidator",
					"type": "address"
				},
				{
					"internalType": "address",
					"name": "borrower",
					"type": "address"
				},
				{
					"internalType": "uint256",
					"name": "seizeTokens",
					"type": "uint256"
				}
			],
			"name": "seize",
			"outputs": [
				{
					"internalType": "uint256",
					"name": "",
					"type": "uint256"
				}
			],
			"stateMutability": "nonpayable",
			"type": "function"
		},
		{
			"inputs": [
				{
					"internalType": "contract EIP20NonStandardInterface",
					"name": "token",
					"type": "address"
				}
			],
			"name": "sweepToken",
			"outputs": [],
			"stateMutability": "nonpayable",
			"type": "function"
		},
		{
			"inputs": [],
			"name": "totalBorrowsCurrent",
			"outputs": [
				{
					"internalType": "uint256",
					"name": "",
					"type": "uint256"
				}
			],
			"stateMutability": "nonpayable",
			"type": "function"
		},
		{
			"inputs": [
				{
					"internalType": "address",
					"name": "dst",
					"type": "address"
				},
				{
					"internalType": "uint256",
					"name": "amount",
					"type": "uint256"
				}
			],
			"name": "transfer",
			"outputs": [
				{
					"internalType": "bool",
					"name": "",
					"type": "bool"
				}
			],
			"stateMutability": "nonpayable",
			"type": "function"
		},
		{
			"anonymous": false,
			"inputs": [
				{
					"indexed": true,
					"internalType": "address",
					"name": "from",
					"type": "address"
				},
				{
					"indexed": true,
					"internalType": "address",
					"name": "to",
					"type": "address"
				},
				{
					"indexed": false,
					"internalType": "uint256",
					"name": "amount",
					"type": "uint256"
				}
			],
			"name": "Transfer",
			"type": "event"
		},
		{
			"inputs": [
				{
					"internalType": "address",
					"name": "src",
					"type": "address"
				},
				{
					"internalType": "address",
					"name": "dst",
					"type": "address"
				},
				{
					"internalType": "uint256",
					"name": "amount",
					"type": "uint256"
				}
			],
			"name": "transferFrom",
			"outputs": [
				{
					"internalType": "bool",
					"name": "",
					"type": "bool"
				}
			],
			"stateMutability": "nonpayable",
			"type": "function"
		},
		{
			"inputs": [],
			"name": "accrualBlockNumber",
			"outputs": [
				{
					"internalType": "uint256",
					"name": "",
					"type": "uint256"
				}
			],
			"stateMutability": "view",
			"type": "function"
		},
		{
			"inputs": [],
			"name": "admin",
			"outputs": [
				{
					"internalType": "address payable",
					"name": "",
					"type": "address"
				}
			],
			"stateMutability": "view",
			"type": "function"
		},
		{
			"inputs": [
				{
					"internalType": "address",
					"name": "owner",
					"type": "address"
				},
				{
					"internalType": "address",
					"name": "spender",
					"type": "address"
				}
			],
			"name": "allowance",
			"outputs": [
				{
					"internalType": "uint256",
					"name": "",
					"type": "uint256"
				}
			],
			"stateMutability": "view",
			"type": "function"
		},
		{
			"inputs": [
				{
					"internalType": "address",
					"name": "owner",
					"type": "address"
				}
			],
			"name": "balanceOf",
			"outputs": [
				{
					"internalType": "uint256",
					"name": "",
					"type": "uint256"
				}
			],
			"stateMutability": "view",
			"type": "function"
		},
		{
			"inputs": [
				{
					"internalType": "address",
					"name": "account",
					"type": "address"
				}
			],
			"name": "borrowBalanceStored",
			"outputs": [
				{
					"internalType": "uint256",
					"name": "",
					"type": "uint256"
				}
			],
			"stateMutability": "view",
			"type": "function"
		},
		{
			"inputs": [],
			"name": "borrowIndex",
			"outputs": [
				{
					"internalType": "uint256",
					"name": "",
					"type": "uint256"
				}
			],
			"stateMutability": "view",
			"type": "function"
		},
		{
			"inputs": [],
			"name": "borrowRatePerBlock",
			"outputs": [
				{
					"internalType": "uint256",
					"name": "",
					"type": "uint256"
				}
			],
			"stateMutability": "view",
			"type": "function"
		},
		{
			"inputs": [],
			"name": "comptroller",
			"outputs": [
				{
					"internalType": "contract ComptrollerInterface",
					"name": "",
					"type": "address"
				}
			],
			"stateMutability": "view",
			"type": "function"
		},
		{
			"inputs": [],
			"name": "decimals",
			"outputs": [
				{
					"internalType": "uint8",
					"name": "",
					"type": "uint8"
				}
			],
			"stateMutability": "view",
			"type": "function"
		},
		{
			"inputs": [],
			"name": "exchangeRateStored",
			"outputs": [
				{
					"internalType": "uint256",
					"name": "",
					"type": "uint256"
				}
			],
			"stateMutability": "view",
			"type": "function"
		},
		{
			"inputs": [
				{
					"internalType": "address",
					"name": "account",
					"type": "address"
				}
			],
			"name": "getAccountSnapshot",
			"outputs": [
				{
					"internalType": "uint256",
					"name": "",
					"type": "uint256"
				},
				{
					"internalType": "uint256",
					"name": "",
					"type": "uint256"
				},
				{
					"internalType": "uint256",
					"name": "",
					"type": "uint256"
				},
				{
					"internalType": "uint256",
					"name": "",
					"type": "uint256"
				}
			],
			"stateMutability": "view",
			"type": "function"
		},
		{
			"inputs": [],
			"name": "getCash",
			"outputs": [
				{
					"internalType": "uint256",
					"name": "",
					"type": "uint256"
				}
			],
			"stateMutability": "view",
			"type": "function"
		},
		{
			"inputs": [],
			"name": "interestRateModel",
			"outputs": [
				{
					"internalType": "contract InterestRateModel",
					"name": "",
					"type": "address"
				}
			],
			"stateMutability": "view",
			"type": "function"
		},
		{
			"inputs": [],
			"name": "isCToken",
			"outputs": [
				{
					"internalType": "bool",
					"name": "",
					"type": "bool"
				}
			],
			"stateMutability": "view",
			"type": "function"
		},
		{
			"inputs": [],
			"name": "name",
			"outputs": [
				{
					"internalType": "string",
					"name": "",
					"type": "string"
				}
			],
			"stateMutability": "view",
			"type": "function"
		},
		{
			"inputs": [],
			"name": "NO_ERROR",
			"outputs": [
				{
					"internalType": "uint256",
					"name": "",
					"type": "uint256"
				}
			],
			"stateMutability": "view",
			"type": "function"
		},
		{
			"inputs": [],
			"name": "pendingAdmin",
			"outputs": [
				{
					"internalType": "address payable",
					"name": "",
					"type": "address"
				}
			],
			"stateMutability": "view",
			"type": "function"
		},
		{
			"inputs": [],
			"name": "protocolSeizeShareMantissa",
			"outputs": [
				{
					"internalType": "uint256",
					"name": "",
					"type": "uint256"
				}
			],
			"stateMutability": "view",
			"type": "function"
		},
		{
			"inputs": [],
			"name": "reserveFactorMantissa",
			"outputs": [
				{
					"internalType": "uint256",
					"name": "",
					"type": "uint256"
				}
			],
			"stateMutability": "view",
			"type": "function"
		},
		{
			"inputs": [],
			"name": "supplyRatePerBlock",
			"outputs": [
				{
					"internalType": "uint256",
					"name": "",
					"type": "uint256"
				}
			],
			"stateMutability": "view",
			"type": "function"
		},
		{
			"inputs": [],
			"name": "symbol",
			"outputs": [
				{
					"internalType": "string",
					"name": "",
					"type": "string"
				}
			],
			"stateMutability": "view",
			"type": "function"
		},
		{
			"inputs": [],
			"name": "totalBorrows",
			"outputs": [
				{
					"internalType": "uint256",
					"name": "",
					"type": "uint256"
				}
			],
			"stateMutability": "view",
			"type": "function"
		},
		{
			"inputs": [],
			"name": "totalReserves",
			"outputs": [
				{
					"internalType": "uint256",
					"name": "",
					"type": "uint256"
				}
			],
			"stateMutability": "view",
			"type": "function"
		},
		{
			"inputs": [],
			"name": "totalSupply",
			"outputs": [
				{
					"internalType": "uint256",
					"name": "",
					"type": "uint256"
				}
			],
			"stateMutability": "view",
			"type": "function"
		},
		{
			"inputs": [],
			"name": "underlying",
			"outputs": [
				{
					"internalType": "address",
					"name": "",
					"type": "address"
				}
			],
			"stateMutability": "view",
			"type": "function"
		}
	],
	"storageLayout": {
		"storage": [
			{
				"astId": 2641,
				"contract": "Nyke-lending-protocol/contracts/CErc20Immutable.sol:CErc20Immutable",
				"label": "_notEntered",
				"offset": 0,
				"slot": "0",
				"type": "t_bool"
			},
			{
				"astId": 2644,
				"contract": "Nyke-lending-protocol/contracts/CErc20Immutable.sol:CErc20Immutable",
				"label": "name",
				"offset": 0,
				"slot": "1",
				"type": "t_string_storage"
			},
			{
				"astId": 2647,
				"contract": "Nyke-lending-protocol/contracts/CErc20Immutable.sol:CErc20Immutable",
				"label": "symbol",
				"offset": 0,
				"slot": "2",
				"type": "t_string_storage"
			},
			{
				"astId": 2650,
				"contract": "Nyke-lending-protocol/contracts/CErc20Immutable.sol:CErc20Immutable",
				"label": "decimals",
				"offset": 0,
				"slot": "3",
				"type": "t_uint8"
			},
			{
				"astId": 2659,
				"contract": "Nyke-lending-protocol/contracts/CErc20Immutable.sol:CErc20Immutable",
				"label": "admin",
				"offset": 1,
				"slot": "3",
				"type": "t_address_payable"
			},
			{
				"astId": 2662,
				"contract": "Nyke-lending-protocol/contracts/CErc20Immutable.sol:CErc20Immutable",
				"label": "pendingAdmin",
				"offset": 0,
				"slot": "4",
				"type": "t_address_payable"
			},
			{
				"astId": 2666,
				"contract": "Nyke-lending-protocol/contracts/CErc20Immutable.sol:CErc20Immutable",
				"label": "comptroller",
				"offset": 0,
				"slot": "5",
				"type": "t_contract(ComptrollerInterface)3351"
			},
			{
				"astId": 2670,
				"contract": "Nyke-lending-protocol/contracts/CErc20Immutable.sol:CErc20Immutable",
				"label": "interestRateModel",
				"offset": 0,
				"slot": "6",
				"type": "t_contract(InterestRateModel)4397"
			},
			{
				"astId": 2672,
				"contract": "Nyke-lending-protocol/contracts/CErc20Immutable.sol:CErc20Immutable",
				"label": "initialExchangeRateMantissa",
				"offset": 0,
				"slot": "7",
				"type": "t_uint256"
			},
			{
				"astId": 2675,
				"contract": "Nyke-lending-protocol/contracts/CErc20Immutable.sol:CErc20Immutable",
				"label": "reserveFactorMantissa",
				"offset": 0,
				"slot": "8",
				"type": "t_uint256"
			},
			{
				"astId": 2678,
				"contract": "Nyke-lending-protocol/contracts/CErc20Immutable.sol:CErc20Immutable",
				"label": "accrualBlockNumber",
				"offset": 0,
				"slot": "9",
				"type": "t_uint256"
			},
			{
				"astId": 2681,
				"contract": "Nyke-lending-protocol/contracts/CErc20Immutable.sol:CErc20Immutable",
				"label": "borrowIndex",
				"offset": 0,
				"slot": "10",
				"type": "t_uint256"
			},
			{
				"astId": 2684,
				"contract": "Nyke-lending-protocol/contracts/CErc20Immutable.sol:CErc20Immutable",
				"label": "totalBorrows",
				"offset": 0,
				"slot": "11",
				"type": "t_uint256"
			},
			{
				"astId": 2687,
				"contract": "Nyke-lending-protocol/contracts/CErc20Immutable.sol:CErc20Immutable",
				"label": "totalReserves",
				"offset": 0,
				"slot": "12",
				"type": "t_uint256"
			},
			{
				"astId": 2690,
				"contract": "Nyke-lending-protocol/contracts/CErc20Immutable.sol:CErc20Immutable",
				"label": "totalSupply",
				"offset": 0,
				"slot": "13",
				"type": "t_uint256"
			},
			{
				"astId": 2694,
				"contract": "Nyke-lending-protocol/contracts/CErc20Immutable.sol:CErc20Immutable",
				"label": "accountTokens",
				"offset": 0,
				"slot": "14",
				"type": "t_mapping(t_address,t_uint256)"
			},
			{
				"astId": 2700,
				"contract": "Nyke-lending-protocol/contracts/CErc20Immutable.sol:CErc20Immutable",
				"label": "transferAllowances",
				"offset": 0,
				"slot": "15",
				"type": "t_mapping(t_address,t_mapping(t_address,t_uint256))"
			},
			{
				"astId": 2710,
				"contract": "Nyke-lending-protocol/contracts/CErc20Immutable.sol:CErc20Immutable",
				"label": "accountBorrows",
				"offset": 0,
				"slot": "16",
				"type": "t_mapping(t_address,t_struct(BorrowSnapshot)2705_storage)"
			},
			{
				"astId": 3033,
				"contract": "Nyke-lending-protocol/contracts/CErc20Immutable.sol:CErc20Immutable",
				"label": "underlying",
				"offset": 0,
				"slot": "17",
				"type": "t_address"
			}
		],
		"types": {
			"t_address": {
				"encoding": "inplace",
				"label": "address",
				"numberOfBytes": "20"
			},
			"t_address_payable": {
				"encoding": "inplace",
				"label": "address payable",
				"numberOfBytes": "20"
			},
			"t_bool": {
				"encoding": "inplace",
				"label": "bool",
				"numberOfBytes": "1"
			},
			"t_contract(ComptrollerInterface)3351": {
				"encoding": "inplace",
				"label": "contract ComptrollerInterface",
				"numberOfBytes": "20"
			},
			"t_contract(InterestRateModel)4397": {
				"encoding": "inplace",
				"label": "contract InterestRateModel",
				"numberOfBytes": "20"
			},
			"t_mapping(t_address,t_mapping(t_address,t_uint256))": {
				"encoding": "mapping",
				"key": "t_address",
				"label": "mapping(address => mapping(address => uint256))",
				"numberOfBytes": "32",
				"value": "t_mapping(t_address,t_uint256)"
			},
			"t_mapping(t_address,t_struct(BorrowSnapshot)2705_storage)": {
				"encoding": "mapping",
				"key": "t_address",
				"label": "mapping(address => struct CTokenStorage.BorrowSnapshot)",
				"numberOfBytes": "32",
				"value": "t_struct(BorrowSnapshot)2705_storage"
			},
			"t_mapping(t_address,t_uint256)": {
				"encoding": "mapping",
				"key": "t_address",
				"label": "mapping(address => uint256)",
				"numberOfBytes": "32",
				"value": "t_uint256"
			},
			"t_string_storage": {
				"encoding": "bytes",
				"label": "string",
				"numberOfBytes": "32"
			},
			"t_struct(BorrowSnapshot)2705_storage": {
				"encoding": "inplace",
				"label": "struct CTokenStorage.BorrowSnapshot",
				"members": [
					{
						"astId": 2702,
						"contract": "Nyke-lending-protocol/contracts/CErc20Immutable.sol:CErc20Immutable",
						"label": "principal",
						"offset": 0,
						"slot": "0",
						"type": "t_uint256"
					},
					{
						"astId": 2704,
						"contract": "Nyke-lending-protocol/contracts/CErc20Immutable.sol:CErc20Immutable",
						"label": "interestIndex",
						"offset": 0,
						"slot": "1",
						"type": "t_uint256"
					}
				],
				"numberOfBytes": "64"
			},
			"t_uint256": {
				"encoding": "inplace",
				"label": "uint256",
				"numberOfBytes": "32"
			},
			"t_uint8": {
				"encoding": "inplace",
				"label": "uint8",
				"numberOfBytes": "1"
			}
		}
	},
	"web3Deploy": "var underlying_ = /* var of type address here */ ;\nvar comptroller_ = /* var of type address here */ ;\nvar interestRateModel_ = /* var of type address here */ ;\nvar initialExchangeRateMantissa_ = /* var of type uint256 here */ ;\nvar name_ = /* var of type string here */ ;\nvar symbol_ = /* var of type string here */ ;\nvar decimals_ = /* var of type uint8 here */ ;\nvar admin_ = /* var of type address here */ ;\nvar cerc20immutableContract = new web3.eth.Contract([{\"inputs\":[{\"internalType\":\"address\",\"name\":\"underlying_\",\"type\":\"address\"},{\"internalType\":\"contract ComptrollerInterface\",\"name\":\"comptroller_\",\"type\":\"address\"},{\"internalType\":\"contract InterestRateModel\",\"name\":\"interestRateModel_\",\"type\":\"address\"},{\"internalType\":\"uint256\",\"name\":\"initialExchangeRateMantissa_\",\"type\":\"uint256\"},{\"internalType\":\"string\",\"name\":\"name_\",\"type\":\"string\"},{\"internalType\":\"string\",\"name\":\"symbol_\",\"type\":\"string\"},{\"internalType\":\"uint8\",\"name\":\"decimals_\",\"type\":\"uint8\"},{\"internalType\":\"address payable\",\"name\":\"admin_\",\"type\":\"address\"}],\"stateMutability\":\"nonpayable\",\"type\":\"constructor\"},{\"inputs\":[],\"name\":\"AcceptAdminPendingAdminCheck\",\"type\":\"error\"},{\"inputs\":[{\"internalType\":\"uint256\",\"name\":\"actualAddAmount\",\"type\":\"uint256\"}],\"name\":\"AddReservesFactorFreshCheck\",\"type\":\"error\"},{\"inputs\":[],\"name\":\"BorrowCashNotAvailable\",\"type\":\"error\"},{\"inputs\":[{\"internalType\":\"uint256\",\"name\":\"errorCode\",\"type\":\"uint256\"}],\"name\":\"BorrowComptrollerRejection\",\"type\":\"error\"},{\"inputs\":[],\"name\":\"BorrowFreshnessCheck\",\"type\":\"error\"},{\"inputs\":[{\"internalType\":\"uint256\",\"name\":\"errorCode\",\"type\":\"uint256\"}],\"name\":\"LiquidateAccrueBorrowInterestFailed\",\"type\":\"error\"},{\"inputs\":[{\"internalType\":\"uint256\",\"name\":\"errorCode\",\"type\":\"uint256\"}],\"name\":\"LiquidateAccrueCollateralInterestFailed\",\"type\":\"error\"},{\"inputs\":[],\"name\":\"LiquidateCloseAmountIsUintMax\",\"type\":\"error\"},{\"inputs\":[],\"name\":\"LiquidateCloseAmountIsZero\",\"type\":\"error\"},{\"inputs\":[],\"name\":\"LiquidateCollateralFreshnessCheck\",\"type\":\"error\"},{\"inputs\":[{\"internalType\":\"uint256\",\"name\":\"errorCode\",\"type\":\"uint256\"}],\"name\":\"LiquidateComptrollerRejection\",\"type\":\"error\"},{\"inputs\":[],\"name\":\"LiquidateFreshnessCheck\",\"type\":\"error\"},{\"inputs\":[],\"name\":\"LiquidateLiquidatorIsBorrower\",\"type\":\"error\"},{\"inputs\":[{\"internalType\":\"uint256\",\"name\":\"errorCode\",\"type\":\"uint256\"}],\"name\":\"LiquidateRepayBorrowFreshFailed\",\"type\":\"error\"},{\"inputs\":[{\"internalType\":\"uint256\",\"name\":\"errorCode\",\"type\":\"uint256\"}],\"name\":\"LiquidateSeizeComptrollerRejection\",\"type\":\"error\"},{\"inputs\":[],\"name\":\"LiquidateSeizeLiquidatorIsBorrower\",\"type\":\"error\"},{\"inputs\":[{\"internalType\":\"uint256\",\"name\":\"errorCode\",\"type\":\"uint256\"}],\"name\":\"MintComptrollerRejection\",\"type\":\"error\"},{\"inputs\":[],\"name\":\"MintFreshnessCheck\",\"type\":\"error\"},{\"inputs\":[{\"internalType\":\"uint256\",\"name\":\"errorCode\",\"type\":\"uint256\"}],\"name\":\"RedeemComptrollerRejection\",\"type\":\"error\"},{\"inputs\":[],\"name\":\"RedeemFreshnessCheck\",\"type\":\"error\"},{\"inputs\":[],\"name\":\"RedeemTransferOutNotPossible\",\"type\":\"error\"},{\"inputs\":[],\"name\":\"ReduceReservesAdminCheck\",\"type\":\"error\"},{\"inputs\":[],\"name\":\"ReduceReservesCashNotAvailable\",\"type\":\"error\"},{\"inputs\":[],\"name\":\"ReduceReservesCashValidation\",\"type\":\"error\"},{\"inputs\":[],\"name\":\"ReduceReservesFreshCheck\",\"type\":\"error\"},{\"inputs\":[{\"internalType\":\"uint256\",\"name\":\"errorCode\",\"type\":\"uint256\"}],\"name\":\"RepayBorrowComptrollerRejection\",\"type\":\"error\"},{\"inputs\":[],\"name\":\"RepayBorrowFreshnessCheck\",\"type\":\"error\"},{\"inputs\":[],\"name\":\"SetComptrollerOwnerCheck\",\"type\":\"error\"},{\"inputs\":[],\"name\":\"SetInterestRateModelFreshCheck\",\"type\":\"error\"},{\"inputs\":[],\"name\":\"SetInterestRateModelOwnerCheck\",\"type\":\"error\"},{\"inputs\":[],\"name\":\"SetPendingAdminOwnerCheck\",\"type\":\"error\"},{\"inputs\":[],\"name\":\"SetReserveFactorAdminCheck\",\"type\":\"error\"},{\"inputs\":[],\"name\":\"SetReserveFactorBoundsCheck\",\"type\":\"error\"},{\"inputs\":[],\"name\":\"SetReserveFactorFreshCheck\",\"type\":\"error\"},{\"inputs\":[{\"internalType\":\"uint256\",\"name\":\"errorCode\",\"type\":\"uint256\"}],\"name\":\"TransferComptrollerRejection\",\"type\":\"error\"},{\"inputs\":[],\"name\":\"TransferNotAllowed\",\"type\":\"error\"},{\"inputs\":[],\"name\":\"TransferNotEnough\",\"type\":\"error\"},{\"inputs\":[],\"name\":\"TransferTooMuch\",\"type\":\"error\"},{\"anonymous\":false,\"inputs\":[{\"indexed\":false,\"internalType\":\"uint256\",\"name\":\"cashPrior\",\"type\":\"uint256\"},{\"indexed\":false,\"internalType\":\"uint256\",\"name\":\"interestAccumulated\",\"type\":\"uint256\"},{\"indexed\":false,\"internalType\":\"uint256\",\"name\":\"borrowIndex\",\"type\":\"uint256\"},{\"indexed\":false,\"internalType\":\"uint256\",\"name\":\"totalBorrows\",\"type\":\"uint256\"}],\"name\":\"AccrueInterest\",\"type\":\"event\"},{\"anonymous\":false,\"inputs\":[{\"indexed\":true,\"internalType\":\"address\",\"name\":\"owner\",\"type\":\"address\"},{\"indexed\":true,\"internalType\":\"address\",\"name\":\"spender\",\"type\":\"address\"},{\"indexed\":false,\"internalType\":\"uint256\",\"name\":\"amount\",\"type\":\"uint256\"}],\"name\":\"Approval\",\"type\":\"event\"},{\"anonymous\":false,\"inputs\":[{\"indexed\":false,\"internalType\":\"address\",\"name\":\"borrower\",\"type\":\"address\"},{\"indexed\":false,\"internalType\":\"uint256\",\"name\":\"borrowAmount\",\"type\":\"uint256\"},{\"indexed\":false,\"internalType\":\"uint256\",\"name\":\"accountBorrows\",\"type\":\"uint256\"},{\"indexed\":false,\"internalType\":\"uint256\",\"name\":\"totalBorrows\",\"type\":\"uint256\"}],\"name\":\"Borrow\",\"type\":\"event\"},{\"anonymous\":false,\"inputs\":[{\"indexed\":false,\"internalType\":\"address\",\"name\":\"liquidator\",\"type\":\"address\"},{\"indexed\":false,\"internalType\":\"address\",\"name\":\"borrower\",\"type\":\"address\"},{\"indexed\":false,\"internalType\":\"uint256\",\"name\":\"repayAmount\",\"type\":\"uint256\"},{\"indexed\":false,\"internalType\":\"address\",\"name\":\"cTokenCollateral\",\"type\":\"address\"},{\"indexed\":false,\"internalType\":\"uint256\",\"name\":\"seizeTokens\",\"type\":\"uint256\"}],\"name\":\"LiquidateBorrow\",\"type\":\"event\"},{\"anonymous\":false,\"inputs\":[{\"indexed\":false,\"internalType\":\"address\",\"name\":\"minter\",\"type\":\"address\"},{\"indexed\":false,\"internalType\":\"uint256\",\"name\":\"mintAmount\",\"type\":\"uint256\"},{\"indexed\":false,\"internalType\":\"uint256\",\"name\":\"mintTokens\",\"type\":\"uint256\"}],\"name\":\"Mint\",\"type\":\"event\"},{\"anonymous\":false,\"inputs\":[{\"indexed\":false,\"internalType\":\"address\",\"name\":\"oldAdmin\",\"type\":\"address\"},{\"indexed\":false,\"internalType\":\"address\",\"name\":\"newAdmin\",\"type\":\"address\"}],\"name\":\"NewAdmin\",\"type\":\"event\"},{\"anonymous\":false,\"inputs\":[{\"indexed\":false,\"internalType\":\"contract ComptrollerInterface\",\"name\":\"oldComptroller\",\"type\":\"address\"},{\"indexed\":false,\"internalType\":\"contract ComptrollerInterface\",\"name\":\"newComptroller\",\"type\":\"address\"}],\"name\":\"NewComptroller\",\"type\":\"event\"},{\"anonymous\":false,\"inputs\":[{\"indexed\":false,\"internalType\":\"contract InterestRateModel\",\"name\":\"oldInterestRateModel\",\"type\":\"address\"},{\"indexed\":false,\"internalType\":\"contract InterestRateModel\",\"name\":\"newInterestRateModel\",\"type\":\"address\"}],\"name\":\"NewMarketInterestRateModel\",\"type\":\"event\"},{\"anonymous\":false,\"inputs\":[{\"indexed\":false,\"internalType\":\"address\",\"name\":\"oldPendingAdmin\",\"type\":\"address\"},{\"indexed\":false,\"internalType\":\"address\",\"name\":\"newPendingAdmin\",\"type\":\"address\"}],\"name\":\"NewPendingAdmin\",\"type\":\"event\"},{\"anonymous\":false,\"inputs\":[{\"indexed\":false,\"internalType\":\"uint256\",\"name\":\"oldReserveFactorMantissa\",\"type\":\"uint256\"},{\"indexed\":false,\"internalType\":\"uint256\",\"name\":\"newReserveFactorMantissa\",\"type\":\"uint256\"}],\"name\":\"NewReserveFactor\",\"type\":\"event\"},{\"anonymous\":false,\"inputs\":[{\"indexed\":false,\"internalType\":\"address\",\"name\":\"redeemer\",\"type\":\"address\"},{\"indexed\":false,\"internalType\":\"uint256\",\"name\":\"redeemAmount\",\"type\":\"uint256\"},{\"indexed\":false,\"internalType\":\"uint256\",\"name\":\"redeemTokens\",\"type\":\"uint256\"}],\"name\":\"Redeem\",\"type\":\"event\"},{\"anonymous\":false,\"inputs\":[{\"indexed\":false,\"internalType\":\"address\",\"name\":\"payer\",\"type\":\"address\"},{\"indexed\":false,\"internalType\":\"address\",\"name\":\"borrower\",\"type\":\"address\"},{\"indexed\":false,\"internalType\":\"uint256\",\"name\":\"repayAmount\",\"type\":\"uint256\"},{\"indexed\":false,\"internalType\":\"uint256\",\"name\":\"accountBorrows\",\"type\":\"uint256\"},{\"indexed\":false,\"internalType\":\"uint256\",\"name\":\"totalBorrows\",\"type\":\"uint256\"}],\"name\":\"RepayBorrow\",\"type\":\"event\"},{\"anonymous\":false,\"inputs\":[{\"indexed\":false,\"internalType\":\"address\",\"name\":\"benefactor\",\"type\":\"address\"},{\"indexed\":false,\"internalType\":\"uint256\",\"name\":\"addAmount\",\"type\":\"uint256\"},{\"indexed\":false,\"internalType\":\"uint256\",\"name\":\"newTotalReserves\",\"type\":\"uint256\"}],\"name\":\"ReservesAdded\",\"type\":\"event\"},{\"anonymous\":false,\"inputs\":[{\"indexed\":false,\"internalType\":\"address\",\"name\":\"admin\",\"type\":\"address\"},{\"indexed\":false,\"internalType\":\"uint256\",\"name\":\"reduceAmount\",\"type\":\"uint256\"},{\"indexed\":false,\"internalType\":\"uint256\",\"name\":\"newTotalReserves\",\"type\":\"uint256\"}],\"name\":\"ReservesReduced\",\"type\":\"event\"},{\"anonymous\":false,\"inputs\":[{\"indexed\":true,\"internalType\":\"address\",\"name\":\"from\",\"type\":\"address\"},{\"indexed\":true,\"internalType\":\"address\",\"name\":\"to\",\"type\":\"address\"},{\"indexed\":false,\"internalType\":\"uint256\",\"name\":\"amount\",\"type\":\"uint256\"}],\"name\":\"Transfer\",\"type\":\"event\"},{\"inputs\":[],\"name\":\"NO_ERROR\",\"outputs\":[{\"internalType\":\"uint256\",\"name\":\"\",\"type\":\"uint256\"}],\"stateMutability\":\"view\",\"type\":\"function\"},{\"inputs\":[],\"name\":\"_acceptAdmin\",\"outputs\":[{\"internalType\":\"uint256\",\"name\":\"\",\"type\":\"uint256\"}],\"stateMutability\":\"nonpayable\",\"type\":\"function\"},{\"inputs\":[{\"internalType\":\"uint256\",\"name\":\"addAmount\",\"type\":\"uint256\"}],\"name\":\"_addReserves\",\"outputs\":[{\"internalType\":\"uint256\",\"name\":\"\",\"type\":\"uint256\"}],\"stateMutability\":\"nonpayable\",\"type\":\"function\"},{\"inputs\":[{\"internalType\":\"address\",\"name\":\"compLikeDelegatee\",\"type\":\"address\"}],\"name\":\"_delegateCompLikeTo\",\"outputs\":[],\"stateMutability\":\"nonpayable\",\"type\":\"function\"},{\"inputs\":[{\"internalType\":\"uint256\",\"name\":\"reduceAmount\",\"type\":\"uint256\"}],\"name\":\"_reduceReserves\",\"outputs\":[{\"internalType\":\"uint256\",\"name\":\"\",\"type\":\"uint256\"}],\"stateMutability\":\"nonpayable\",\"type\":\"function\"},{\"inputs\":[{\"internalType\":\"contract ComptrollerInterface\",\"name\":\"newComptroller\",\"type\":\"address\"}],\"name\":\"_setComptroller\",\"outputs\":[{\"internalType\":\"uint256\",\"name\":\"\",\"type\":\"uint256\"}],\"stateMutability\":\"nonpayable\",\"type\":\"function\"},{\"inputs\":[{\"internalType\":\"contract InterestRateModel\",\"name\":\"newInterestRateModel\",\"type\":\"address\"}],\"name\":\"_setInterestRateModel\",\"outputs\":[{\"internalType\":\"uint256\",\"name\":\"\",\"type\":\"uint256\"}],\"stateMutability\":\"nonpayable\",\"type\":\"function\"},{\"inputs\":[{\"internalType\":\"address payable\",\"name\":\"newPendingAdmin\",\"type\":\"address\"}],\"name\":\"_setPendingAdmin\",\"outputs\":[{\"internalType\":\"uint256\",\"name\":\"\",\"type\":\"uint256\"}],\"stateMutability\":\"nonpayable\",\"type\":\"function\"},{\"inputs\":[{\"internalType\":\"uint256\",\"name\":\"newReserveFactorMantissa\",\"type\":\"uint256\"}],\"name\":\"_setReserveFactor\",\"outputs\":[{\"internalType\":\"uint256\",\"name\":\"\",\"type\":\"uint256\"}],\"stateMutability\":\"nonpayable\",\"type\":\"function\"},{\"inputs\":[],\"name\":\"accrualBlockNumber\",\"outputs\":[{\"internalType\":\"uint256\",\"name\":\"\",\"type\":\"uint256\"}],\"stateMutability\":\"view\",\"type\":\"function\"},{\"inputs\":[],\"name\":\"accrueInterest\",\"outputs\":[{\"internalType\":\"uint256\",\"name\":\"\",\"type\":\"uint256\"}],\"stateMutability\":\"nonpayable\",\"type\":\"function\"},{\"inputs\":[],\"name\":\"admin\",\"outputs\":[{\"internalType\":\"address payable\",\"name\":\"\",\"type\":\"address\"}],\"stateMutability\":\"view\",\"type\":\"function\"},{\"inputs\":[{\"internalType\":\"address\",\"name\":\"owner\",\"type\":\"address\"},{\"internalType\":\"address\",\"name\":\"spender\",\"type\":\"address\"}],\"name\":\"allowance\",\"outputs\":[{\"internalType\":\"uint256\",\"name\":\"\",\"type\":\"uint256\"}],\"stateMutability\":\"view\",\"type\":\"function\"},{\"inputs\":[{\"internalType\":\"address\",\"name\":\"spender\",\"type\":\"address\"},{\"internalType\":\"uint256\",\"name\":\"amount\",\"type\":\"uint256\"}],\"name\":\"approve\",\"outputs\":[{\"internalType\":\"bool\",\"name\":\"\",\"type\":\"bool\"}],\"stateMutability\":\"nonpayable\",\"type\":\"function\"},{\"inputs\":[{\"internalType\":\"address\",\"name\":\"owner\",\"type\":\"address\"}],\"name\":\"balanceOf\",\"outputs\":[{\"internalType\":\"uint256\",\"name\":\"\",\"type\":\"uint256\"}],\"stateMutability\":\"view\",\"type\":\"function\"},{\"inputs\":[{\"internalType\":\"address\",\"name\":\"owner\",\"type\":\"address\"}],\"name\":\"balanceOfUnderlying\",\"outputs\":[{\"internalType\":\"uint256\",\"name\":\"\",\"type\":\"uint256\"}],\"stateMutability\":\"nonpayable\",\"type\":\"function\"},{\"inputs\":[{\"internalType\":\"uint256\",\"name\":\"borrowAmount\",\"type\":\"uint256\"}],\"name\":\"borrow\",\"outputs\":[{\"internalType\":\"uint256\",\"name\":\"\",\"type\":\"uint256\"}],\"stateMutability\":\"nonpayable\",\"type\":\"function\"},{\"inputs\":[{\"internalType\":\"address\",\"name\":\"account\",\"type\":\"address\"}],\"name\":\"borrowBalanceCurrent\",\"outputs\":[{\"internalType\":\"uint256\",\"name\":\"\",\"type\":\"uint256\"}],\"stateMutability\":\"nonpayable\",\"type\":\"function\"},{\"inputs\":[{\"internalType\":\"address\",\"name\":\"account\",\"type\":\"address\"}],\"name\":\"borrowBalanceStored\",\"outputs\":[{\"internalType\":\"uint256\",\"name\":\"\",\"type\":\"uint256\"}],\"stateMutability\":\"view\",\"type\":\"function\"},{\"inputs\":[],\"name\":\"borrowIndex\",\"outputs\":[{\"internalType\":\"uint256\",\"name\":\"\",\"type\":\"uint256\"}],\"stateMutability\":\"view\",\"type\":\"function\"},{\"inputs\":[],\"name\":\"borrowRatePerBlock\",\"outputs\":[{\"internalType\":\"uint256\",\"name\":\"\",\"type\":\"uint256\"}],\"stateMutability\":\"view\",\"type\":\"function\"},{\"inputs\":[],\"name\":\"comptroller\",\"outputs\":[{\"internalType\":\"contract ComptrollerInterface\",\"name\":\"\",\"type\":\"address\"}],\"stateMutability\":\"view\",\"type\":\"function\"},{\"inputs\":[],\"name\":\"decimals\",\"outputs\":[{\"internalType\":\"uint8\",\"name\":\"\",\"type\":\"uint8\"}],\"stateMutability\":\"view\",\"type\":\"function\"},{\"inputs\":[],\"name\":\"exchangeRateCurrent\",\"outputs\":[{\"internalType\":\"uint256\",\"name\":\"\",\"type\":\"uint256\"}],\"stateMutability\":\"nonpayable\",\"type\":\"function\"},{\"inputs\":[],\"name\":\"exchangeRateStored\",\"outputs\":[{\"internalType\":\"uint256\",\"name\":\"\",\"type\":\"uint256\"}],\"stateMutability\":\"view\",\"type\":\"function\"},{\"inputs\":[{\"internalType\":\"address\",\"name\":\"account\",\"type\":\"address\"}],\"name\":\"getAccountSnapshot\",\"outputs\":[{\"internalType\":\"uint256\",\"name\":\"\",\"type\":\"uint256\"},{\"internalType\":\"uint256\",\"name\":\"\",\"type\":\"uint256\"},{\"internalType\":\"uint256\",\"name\":\"\",\"type\":\"uint256\"},{\"internalType\":\"uint256\",\"name\":\"\",\"type\":\"uint256\"}],\"stateMutability\":\"view\",\"type\":\"function\"},{\"inputs\":[],\"name\":\"getCash\",\"outputs\":[{\"internalType\":\"uint256\",\"name\":\"\",\"type\":\"uint256\"}],\"stateMutability\":\"view\",\"type\":\"function\"},{\"inputs\":[{\"internalType\":\"address\",\"name\":\"underlying_\",\"type\":\"address\"},{\"internalType\":\"contract ComptrollerInterface\",\"name\":\"comptroller_\",\"type\":\"address\"},{\"internalType\":\"contract InterestRateModel\",\"name\":\"interestRateModel_\",\"type\":\"address\"},{\"internalType\":\"uint256\",\"name\":\"initialExchangeRateMantissa_\",\"type\":\"uint256\"},{\"internalType\":\"string\",\"name\":\"name_\",\"type\":\"string\"},{\"internalType\":\"string\",\"name\":\"symbol_\",\"type\":\"string\"},{\"internalType\":\"uint8\",\"name\":\"decimals_\",\"type\":\"uint8\"}],\"name\":\"initialize\",\"outputs\":[],\"stateMutability\":\"nonpayable\",\"type\":\"function\"},{\"inputs\":[{\"internalType\":\"contract ComptrollerInterface\",\"name\":\"comptroller_\",\"type\":\"address\"},{\"internalType\":\"contract InterestRateModel\",\"name\":\"interestRateModel_\",\"type\":\"address\"},{\"internalType\":\"uint256\",\"name\":\"initialExchangeRateMantissa_\",\"type\":\"uint256\"},{\"internalType\":\"string\",\"name\":\"name_\",\"type\":\"string\"},{\"internalType\":\"string\",\"name\":\"symbol_\",\"type\":\"string\"},{\"internalType\":\"uint8\",\"name\":\"decimals_\",\"type\":\"uint8\"}],\"name\":\"initialize\",\"outputs\":[],\"stateMutability\":\"nonpayable\",\"type\":\"function\"},{\"inputs\":[],\"name\":\"interestRateModel\",\"outputs\":[{\"internalType\":\"contract InterestRateModel\",\"name\":\"\",\"type\":\"address\"}],\"stateMutability\":\"view\",\"type\":\"function\"},{\"inputs\":[],\"name\":\"isCToken\",\"outputs\":[{\"internalType\":\"bool\",\"name\":\"\",\"type\":\"bool\"}],\"stateMutability\":\"view\",\"type\":\"function\"},{\"inputs\":[{\"internalType\":\"address\",\"name\":\"borrower\",\"type\":\"address\"},{\"internalType\":\"uint256\",\"name\":\"repayAmount\",\"type\":\"uint256\"},{\"internalType\":\"contract CTokenInterface\",\"name\":\"cTokenCollateral\",\"type\":\"address\"}],\"name\":\"liquidateBorrow\",\"outputs\":[{\"internalType\":\"uint256\",\"name\":\"\",\"type\":\"uint256\"}],\"stateMutability\":\"nonpayable\",\"type\":\"function\"},{\"inputs\":[{\"internalType\":\"uint256\",\"name\":\"mintAmount\",\"type\":\"uint256\"}],\"name\":\"mint\",\"outputs\":[{\"internalType\":\"uint256\",\"name\":\"\",\"type\":\"uint256\"}],\"stateMutability\":\"nonpayable\",\"type\":\"function\"},{\"inputs\":[],\"name\":\"name\",\"outputs\":[{\"internalType\":\"string\",\"name\":\"\",\"type\":\"string\"}],\"stateMutability\":\"view\",\"type\":\"function\"},{\"inputs\":[],\"name\":\"pendingAdmin\",\"outputs\":[{\"internalType\":\"address payable\",\"name\":\"\",\"type\":\"address\"}],\"stateMutability\":\"view\",\"type\":\"function\"},{\"inputs\":[],\"name\":\"protocolSeizeShareMantissa\",\"outputs\":[{\"internalType\":\"uint256\",\"name\":\"\",\"type\":\"uint256\"}],\"stateMutability\":\"view\",\"type\":\"function\"},{\"inputs\":[{\"internalType\":\"uint256\",\"name\":\"redeemTokens\",\"type\":\"uint256\"}],\"name\":\"redeem\",\"outputs\":[{\"internalType\":\"uint256\",\"name\":\"\",\"type\":\"uint256\"}],\"stateMutability\":\"nonpayable\",\"type\":\"function\"},{\"inputs\":[{\"internalType\":\"uint256\",\"name\":\"redeemAmount\",\"type\":\"uint256\"}],\"name\":\"redeemUnderlying\",\"outputs\":[{\"internalType\":\"uint256\",\"name\":\"\",\"type\":\"uint256\"}],\"stateMutability\":\"nonpayable\",\"type\":\"function\"},{\"inputs\":[{\"internalType\":\"uint256\",\"name\":\"repayAmount\",\"type\":\"uint256\"}],\"name\":\"repayBorrow\",\"outputs\":[{\"internalType\":\"uint256\",\"name\":\"\",\"type\":\"uint256\"}],\"stateMutability\":\"nonpayable\",\"type\":\"function\"},{\"inputs\":[{\"internalType\":\"address\",\"name\":\"borrower\",\"type\":\"address\"},{\"internalType\":\"uint256\",\"name\":\"repayAmount\",\"type\":\"uint256\"}],\"name\":\"repayBorrowBehalf\",\"outputs\":[{\"internalType\":\"uint256\",\"name\":\"\",\"type\":\"uint256\"}],\"stateMutability\":\"nonpayable\",\"type\":\"function\"},{\"inputs\":[],\"name\":\"reserveFactorMantissa\",\"outputs\":[{\"internalType\":\"uint256\",\"name\":\"\",\"type\":\"uint256\"}],\"stateMutability\":\"view\",\"type\":\"function\"},{\"inputs\":[{\"internalType\":\"address\",\"name\":\"liquidator\",\"type\":\"address\"},{\"internalType\":\"address\",\"name\":\"borrower\",\"type\":\"address\"},{\"internalType\":\"uint256\",\"name\":\"seizeTokens\",\"type\":\"uint256\"}],\"name\":\"seize\",\"outputs\":[{\"internalType\":\"uint256\",\"name\":\"\",\"type\":\"uint256\"}],\"stateMutability\":\"nonpayable\",\"type\":\"function\"},{\"inputs\":[],\"name\":\"supplyRatePerBlock\",\"outputs\":[{\"internalType\":\"uint256\",\"name\":\"\",\"type\":\"uint256\"}],\"stateMutability\":\"view\",\"type\":\"function\"},{\"inputs\":[{\"internalType\":\"contract EIP20NonStandardInterface\",\"name\":\"token\",\"type\":\"address\"}],\"name\":\"sweepToken\",\"outputs\":[],\"stateMutability\":\"nonpayable\",\"type\":\"function\"},{\"inputs\":[],\"name\":\"symbol\",\"outputs\":[{\"internalType\":\"string\",\"name\":\"\",\"type\":\"string\"}],\"stateMutability\":\"view\",\"type\":\"function\"},{\"inputs\":[],\"name\":\"totalBorrows\",\"outputs\":[{\"internalType\":\"uint256\",\"name\":\"\",\"type\":\"uint256\"}],\"stateMutability\":\"view\",\"type\":\"function\"},{\"inputs\":[],\"name\":\"totalBorrowsCurrent\",\"outputs\":[{\"internalType\":\"uint256\",\"name\":\"\",\"type\":\"uint256\"}],\"stateMutability\":\"nonpayable\",\"type\":\"function\"},{\"inputs\":[],\"name\":\"totalReserves\",\"outputs\":[{\"internalType\":\"uint256\",\"name\":\"\",\"type\":\"uint256\"}],\"stateMutability\":\"view\",\"type\":\"function\"},{\"inputs\":[],\"name\":\"totalSupply\",\"outputs\":[{\"internalType\":\"uint256\",\"name\":\"\",\"type\":\"uint256\"}],\"stateMutability\":\"view\",\"type\":\"function\"},{\"inputs\":[{\"internalType\":\"address\",\"name\":\"dst\",\"type\":\"address\"},{\"internalType\":\"uint256\",\"name\":\"amount\",\"type\":\"uint256\"}],\"name\":\"transfer\",\"outputs\":[{\"internalType\":\"bool\",\"name\":\"\",\"type\":\"bool\"}],\"stateMutability\":\"nonpayable\",\"type\":\"function\"},{\"inputs\":[{\"internalType\":\"address\",\"name\":\"src\",\"type\":\"address\"},{\"internalType\":\"address\",\"name\":\"dst\",\"type\":\"address\"},{\"internalType\":\"uint256\",\"name\":\"amount\",\"type\":\"uint256\"}],\"name\":\"transferFrom\",\"outputs\":[{\"internalType\":\"bool\",\"name\":\"\",\"type\":\"bool\"}],\"stateMutability\":\"nonpayable\",\"type\":\"function\"},{\"inputs\":[],\"name\":\"underlying\",\"outputs\":[{\"internalType\":\"address\",\"name\":\"\",\"type\":\"address\"}],\"stateMutability\":\"view\",\"type\":\"function\"}]);\nvar cerc20immutable = cerc20immutableContract.deploy({\n     data: '0x60806040523480156200001157600080fd5b50604051620043bd380380620043bd83398101604081905262000034916200081a565b60038054610100600160a81b03191633610100021790556200005c8888888888888862000090565b600380546001600160a01b0390921661010002610100600160a81b0319909216919091179055506200097d95505050505050565b620000ab8686868686866200013560201b62000e591760201c565b601180546001600160a01b0319166001600160a01b038916908117909155604080516318160ddd60e01b815290516318160ddd916004808201926020929091908290030181865afa15801562000105573d6000803e3d6000fd5b505050506040513d601f19601f820116820180604052508101906200012b9190620008fb565b5050505050505050565b60035461010090046001600160a01b03163314620001a65760405162461bcd60e51b8152602060048201526024808201527f6f6e6c792061646d696e206d617920696e697469616c697a6520746865206d616044820152631c9ad95d60e21b60648201526084015b60405180910390fd5b600954158015620001b75750600a54155b620002115760405162461bcd60e51b815260206004820152602360248201527f6d61726b6574206d6179206f6e6c7920626520696e697469616c697a6564206f6044820152626e636560e81b60648201526084016200019d565b6007849055836200027e5760405162461bcd60e51b815260206004820152603060248201527f696e697469616c2065786368616e67652072617465206d75737420626520677260448201526f32b0ba32b9103a3430b7103d32b9379760811b60648201526084016200019d565b60006200028b87620003a7565b90508015620002dd5760405162461bcd60e51b815260206004820152601a60248201527f73657474696e6720636f6d7074726f6c6c6572206661696c656400000000000060448201526064016200019d565b42600955670de0b6b3a7640000600a55620002f886620004ff565b90508015620003555760405162461bcd60e51b815260206004820152602260248201527f73657474696e6720696e7465726573742072617465206d6f64656c206661696c604482015261195960f21b60648201526084016200019d565b83516200036a9060019060208701906200067c565b508251620003809060029060208601906200067c565b50506003805460ff90921660ff199283161790556000805490911660011790555050505050565b60035460009061010090046001600160a01b03163314620003db5760405163d219dc1f60e01b815260040160405180910390fd5b60055460408051623f1ee960e11b815290516001600160a01b0392831692851691627e3dd29160048083019260209291908290030181865afa15801562000426573d6000803e3d6000fd5b505050506040513d601f19601f820116820180604052508101906200044c919062000915565b6200049a5760405162461bcd60e51b815260206004820152601c60248201527f6d61726b6572206d6574686f642072657475726e65642066616c73650000000060448201526064016200019d565b600580546001600160a01b0319166001600160a01b0385811691821790925560408051928416835260208301919091527f7ac369dbd14fa5ea3f473ed67cc9d598964a77501540ba6751eb0b3decf5870d91015b60405180910390a150600092915050565b600354600090819061010090046001600160a01b03163314620005355760405163407fded560e01b815260040160405180910390fd5b42600954146200055857604051630be2a5cb60e11b815260040160405180910390fd5b600660009054906101000a90046001600160a01b03169050826001600160a01b0316632191f92a6040518163ffffffff1660e01b8152600401602060405180830381865afa158015620005af573d6000803e3d6000fd5b505050506040513d601f19601f82011682018060405250810190620005d5919062000915565b620006235760405162461bcd60e51b815260206004820152601c60248201527f6d61726b6572206d6574686f642072657475726e65642066616c73650000000060448201526064016200019d565b600680546001600160a01b0319166001600160a01b0385811691821790925560408051928416835260208301919091527fedffc32e068c7c95dfd4bdfd5c4d939a084d6b11c4199eac8436ed234d72f9269101620004ee565b8280546200068a9062000940565b90600052602060002090601f016020900481019282620006ae5760008555620006f9565b82601f10620006c957805160ff1916838001178555620006f9565b82800160010185558215620006f9579182015b82811115620006f9578251825591602001919060010190620006dc565b50620007079291506200070b565b5090565b5b808211156200070757600081556001016200070c565b6001600160a01b03811681146200073857600080fd5b50565b634e487b7160e01b600052604160045260246000fd5b600082601f8301126200076357600080fd5b81516001600160401b03808211156200078057620007806200073b565b604051601f8301601f19908116603f01168101908282118183101715620007ab57620007ab6200073b565b81604052838152602092508683858801011115620007c857600080fd5b600091505b83821015620007ec5785820183015181830184015290820190620007cd565b83821115620007fe5760008385830101525b9695505050505050565b8051620008158162000722565b919050565b600080600080600080600080610100898b0312156200083857600080fd5b8851620008458162000722565b60208a0151909850620008588162000722565b60408a01519097506200086b8162000722565b60608a015160808b015191975095506001600160401b03808211156200089057600080fd5b6200089e8c838d0162000751565b955060a08b0151915080821115620008b557600080fd5b50620008c48b828c0162000751565b93505060c089015160ff81168114620008dc57600080fd5b9150620008ec60e08a0162000808565b90509295985092959890939650565b6000602082840312156200090e57600080fd5b5051919050565b6000602082840312156200092857600080fd5b815180151581146200093957600080fd5b9392505050565b600181811c908216806200095557607f821691505b602082108114156200097757634e487b7160e01b600052602260045260246000fd5b50919050565b613a30806200098d6000396000f3fe608060405234801561001057600080fd5b506004361061030c5760003560e01c80637f1e06be1161019d578063bd6d894d116100e9578063f2b3abbd116100a2578063f851a4401161007c578063f851a440146106a8578063f8f9da28146106c0578063fca7820b146106c8578063fe9c44ae146106db57600080fd5b8063f2b3abbd1461066f578063f3fdb15a14610682578063f5e3c4621461069557600080fd5b8063bd6d894d146105cd578063c37f68e2146105d5578063c5ebeaec14610608578063db006a751461061b578063dd62ed3e1461062e578063e9c714f21461066757600080fd5b8063a0712d6811610156578063aa5af0fd11610130578063aa5af0fd14610596578063ae9d70b01461059f578063b2a02ff1146105a7578063b71d1a0c146105ba57600080fd5b8063a0712d6814610568578063a6afed951461057b578063a9059cbb1461058357600080fd5b80637f1e06be1461050b578063852a12e31461051e5780638f840ddd1461053157806395d89b411461053a57806395dd91931461054257806399d8c1b41461055557600080fd5b80633af9e6691161025c578063601a0bf1116102155780636c540baf116101ef5780636c540baf146104be5780636f307dc3146104c757806370a08231146104da57806373acee981461050357600080fd5b8063601a0bf1146104955780636752e702146104a857806369ab3250146104b657600080fd5b80633af9e669146104385780633b1d21a21461044b5780633e941010146104535780634576b5db1461046657806347bd3718146104795780635fe3b5671461048257600080fd5b8063182df0f5116102c957806323b872dd116102a357806323b872dd146103c85780632608f818146103db57806326782247146103ee578063313ce5671461041957600080fd5b8063182df0f5146103985780631a31d465146103a05780631be19560146103b557600080fd5b806306fdde0314610311578063095ea7b31461032f5780630e75270214610352578063173b99041461037357806317bfdfbc1461037c57806318160ddd1461038f575b600080fd5b6103196106e3565b60405161032691906134b5565b60405180910390f35b61034261033d366004613522565b610771565b6040519015158152602001610326565b61036561036036600461354e565b6107df565b604051908152602001610326565b61036560085481565b61036561038a366004613567565b6107f2565b610365600d5481565b61036561084e565b6103b36103ae36600461363d565b61085d565b005b6103b36103c3366004613567565b6108f2565b6103426103d63660046136f3565b610abe565b6103656103e9366004613522565b610b0e565b600454610401906001600160a01b031681565b6040516001600160a01b039091168152602001610326565b6003546104269060ff1681565b60405160ff9091168152602001610326565b610365610446366004613567565b610b23565b610365610b69565b61036561046136600461354e565b610b73565b610365610474366004613567565b610b84565b610365600b5481565b600554610401906001600160a01b031681565b6103656104a336600461354e565b610cd6565b610365666379da05b6000081565b610365600081565b61036560095481565b601154610401906001600160a01b031681565b6103656104e8366004613567565b6001600160a01b03166000908152600e602052604090205490565b610365610d15565b6103b3610519366004613567565b610d5f565b61036561052c36600461354e565b610e36565b610365600c5481565b610319610e41565b610365610550366004613567565b610e4e565b6103b3610563366004613734565b610e59565b61036561057636600461354e565b6110b4565b6103656110bf565b610342610591366004613522565b6112ac565b610365600a5481565b6103656112fb565b6103656105b53660046136f3565b611393565b6103656105c8366004613567565b6113e2565b61036561146f565b6105e86105e3366004613567565b6114bf565b604080519485526020850193909352918301526060820152608001610326565b61036561061636600461354e565b611500565b61036561062936600461354e565b61150b565b61036561063c3660046137d6565b6001600160a01b039182166000908152600f6020908152604080832093909416825291909152205490565b610365611516565b61036561067d366004613567565b61161d565b600654610401906001600160a01b031681565b6103656106a336600461380f565b611631565b6003546104019061010090046001600160a01b031681565b610365611648565b6103656106d636600461354e565b61169b565b610342600181565b600180546106f090613851565b80601f016020809104026020016040519081016040528092919081815260200182805461071c90613851565b80156107695780601f1061073e57610100808354040283529160200191610769565b820191906000526020600020905b81548152906001019060200180831161074c57829003601f168201915b505050505081565b336000818152600f602090815260408083206001600160a01b03871680855292528083208590555191929182907f8c5be1e5ebec7d5bd14f71427d1e84f3dd0314c0f7b2291e5b200ac8c7c3b925906107cd9087815260200190565b60405180910390a35060019392505050565b60006107ea826116da565b506000919050565b6000805460ff1661081e5760405162461bcd60e51b81526004016108159061388c565b60405180910390fd5b6000805460ff191690556108306110bf565b5061083a82610e4e565b90506000805460ff19166001179055919050565b600061085861172b565b905090565b61086b868686868686610e59565b601180546001600160a01b0319166001600160a01b038916908117909155604080516318160ddd60e01b815290516318160ddd916004808201926020929091908290030181865afa1580156108c4573d6000803e3d6000fd5b505050506040513d601f19601f820116820180604052508101906108e891906138b0565b5050505050505050565b60035461010090046001600160a01b031633146109695760405162461bcd60e51b815260206004820152602f60248201527f4345726332303a3a7377656570546f6b656e3a206f6e6c792061646d696e206360448201526e616e20737765657020746f6b656e7360881b6064820152608401610815565b6011546001600160a01b03828116911614156109e25760405162461bcd60e51b815260206004820152603260248201527f4345726332303a3a7377656570546f6b656e3a2063616e206e6f74207377656560448201527138103ab73232b9363cb4b733903a37b5b2b760711b6064820152608401610815565b6040516370a0823160e01b81523060048201526000906001600160a01b038316906370a0823190602401602060405180830381865afa158015610a29573d6000803e3d6000fd5b505050506040513d601f19601f82011682018060405250810190610a4d91906138b0565b60035460405163a9059cbb60e01b81526001600160a01b03610100909204821660048201526024810183905291925083169063a9059cbb90604401600060405180830381600087803b158015610aa257600080fd5b505af1158015610ab6573d6000803e3d6000fd5b505050505050565b6000805460ff16610ae15760405162461bcd60e51b81526004016108159061388c565b6000805460ff19168155610af733868686611795565b1490506000805460ff191660011790559392505050565b6000610b1a83836119c3565b50600092915050565b6000806040518060200160405280610b3961146f565b90526001600160a01b0384166000908152600e6020526040902054909150610b62908290611a15565b9392505050565b6000610858611a35565b6000610b7e82611aaa565b92915050565b60035460009061010090046001600160a01b03163314610bb75760405163d219dc1f60e01b815260040160405180910390fd5b60055460408051623f1ee960e11b815290516001600160a01b0392831692851691627e3dd29160048083019260209291908290030181865afa158015610c01573d6000803e3d6000fd5b505050506040513d601f19601f82011682018060405250810190610c2591906138c9565b610c715760405162461bcd60e51b815260206004820152601c60248201527f6d61726b6572206d6574686f642072657475726e65642066616c7365000000006044820152606401610815565b600580546001600160a01b0319166001600160a01b0385811691821790925560408051928416835260208301919091527f7ac369dbd14fa5ea3f473ed67cc9d598964a77501540ba6751eb0b3decf5870d91015b60405180910390a150600092915050565b6000805460ff16610cf95760405162461bcd60e51b81526004016108159061388c565b6000805460ff19169055610d0b6110bf565b5061083a82611b01565b6000805460ff16610d385760405162461bcd60e51b81526004016108159061388c565b6000805460ff19169055610d4a6110bf565b5050600b546000805460ff1916600117905590565b60035461010090046001600160a01b03163314610dd45760405162461bcd60e51b815260206004820152602d60248201527f6f6e6c79207468652061646d696e206d6179207365742074686520636f6d702d60448201526c6c696b652064656c656761746560981b6064820152608401610815565b6011546040516317066a5760e21b81526001600160a01b03838116600483015290911690635c19a95c90602401600060405180830381600087803b158015610e1b57600080fd5b505af1158015610e2f573d6000803e3d6000fd5b5050505050565b60006107ea82611c1c565b600280546106f090613851565b6000610b7e82611c6d565b60035461010090046001600160a01b03163314610ec45760405162461bcd60e51b8152602060048201526024808201527f6f6e6c792061646d696e206d617920696e697469616c697a6520746865206d616044820152631c9ad95d60e21b6064820152608401610815565b600954158015610ed45750600a54155b610f2c5760405162461bcd60e51b815260206004820152602360248201527f6d61726b6574206d6179206f6e6c7920626520696e697469616c697a6564206f6044820152626e636560e81b6064820152608401610815565b600784905583610f975760405162461bcd60e51b815260206004820152603060248201527f696e697469616c2065786368616e67652072617465206d75737420626520677260448201526f32b0ba32b9103a3430b7103d32b9379760811b6064820152608401610815565b6000610fa287610b84565b90508015610ff25760405162461bcd60e51b815260206004820152601a60248201527f73657474696e6720636f6d7074726f6c6c6572206661696c65640000000000006044820152606401610815565b42600955670de0b6b3a7640000600a5561100b86611cb7565b905080156110665760405162461bcd60e51b815260206004820152602260248201527f73657474696e6720696e7465726573742072617465206d6f64656c206661696c604482015261195960f21b6064820152608401610815565b8351611079906001906020870190613425565b50825161108d906002906020860190613425565b50506003805460ff90921660ff199283161790556000805490911660011790555050505050565b60006107ea82611e2c565b6009546000904290808214156110d85760009250505090565b60006110e2611a35565b600b54600c54600a546006546040516315f2405360e01b81526004810186905260248101859052604481018490529495509293919290916000916001600160a01b0316906315f2405390606401602060405180830381865afa15801561114c573d6000803e3d6000fd5b505050506040513d601f19601f8201168201806040525081019061117091906138b0565b9050645d21dba0008111156111c75760405162461bcd60e51b815260206004820152601c60248201527f626f72726f772072617465206973206162737572646c792068696768000000006044820152606401610815565b60006111d38789613901565b905060006111ef60405180602001604052808581525083611e6b565b905060006111fd8288611a15565b9050600061120b8883613918565b9050600061122a6040518060200160405280600854815250848a611e9c565b9050600061123985898a611e9c565b60098e9055600a819055600b849055600c839055604080518d815260208101879052908101829052606081018590529091507f4dec04e750ca11537cabcd8a9eab06494de08da3735bc8871cd41250e190bc049060800160405180910390a160009d505050505050505050505050505090565b6000805460ff166112cf5760405162461bcd60e51b81526004016108159061388c565b6000805460ff191681556112e533808686611795565b1490506000805460ff1916600117905592915050565b6006546000906001600160a01b031663b8168816611317611a35565b600b54600c546008546040516001600160e01b031960e087901b16815260048101949094526024840192909252604483015260648201526084015b602060405180830381865afa15801561136f573d6000803e3d6000fd5b505050506040513d601f19601f8201168201806040525081019061085891906138b0565b6000805460ff166113b65760405162461bcd60e51b81526004016108159061388c565b6000805460ff191690556113cc33858585611ebd565b50600080805460ff191660011790559392505050565b60035460009061010090046001600160a01b0316331461141557604051635cb56c2b60e01b815260040160405180910390fd5b600480546001600160a01b038481166001600160a01b031983168117909355604080519190921680825260208201939093527fca4f2f25d0898edd99413412fb94012f9e54ec8142f9b093e7720646a95b16a99101610cc5565b6000805460ff166114925760405162461bcd60e51b81526004016108159061388c565b6000805460ff191690556114a46110bf565b506114ad61084e565b90506000805460ff1916600117905590565b6001600160a01b0381166000908152600e602052604081205481908190819081906114e987611c6d565b6114f161172b565b93509350935093509193509193565b60006107ea82612136565b60006107ea82612175565b6004546000906001600160a01b031633141580611531575033155b1561154f57604051631ba24f2960e21b815260040160405180910390fd5b60038054600480546001600160a01b03808216610100818102610100600160a81b0319871617968790556001600160a01b031990931690935560408051948390048216808652929095041660208401529290917ff9ffabca9c8276e99321725bcb43fb076a6c66a54b7f21c4e8146d8519b417dc910160405180910390a1600454604080516001600160a01b03808516825290921660208301527fca4f2f25d0898edd99413412fb94012f9e54ec8142f9b093e7720646a95b16a9910160405180910390a160009250505090565b60006116276110bf565b50610b7e82611cb7565b600061163e8484846121b6565b5060009392505050565b6006546000906001600160a01b03166315f24053611664611a35565b600b54600c546040516001600160e01b031960e086901b168152600481019390935260248301919091526044820152606401611352565b6000805460ff166116be5760405162461bcd60e51b81526004016108159061388c565b6000805460ff191690556116d06110bf565b5061083a82612294565b60005460ff166116fc5760405162461bcd60e51b81526004016108159061388c565b6000805460ff1916905561170e6110bf565b5061171a333383612350565b50506000805460ff19166001179055565b600d546000908061173e57505060075490565b6000611748611a35565b90506000600c54600b548361175d9190613918565b6117679190613901565b905060008361177e670de0b6b3a764000084613930565b611788919061394f565b95945050505050565b5090565b6005546040516317b9b84b60e31b81523060048201526001600160a01b038581166024830152848116604483015260648201849052600092839291169063bdcdc258906084016020604051808303816000875af11580156117fa573d6000803e3d6000fd5b505050506040513d601f19601f8201168201806040525081019061181e91906138b0565b905080156118425760405163089d427760e11b815260048101829052602401610815565b836001600160a01b0316856001600160a01b0316141561187557604051638cd22d1960e01b815260040160405180910390fd5b6000856001600160a01b0316876001600160a01b0316141561189a57506000196118c2565b506001600160a01b038086166000908152600f60209081526040808320938a16835292905220545b60006118ce8583613901565b6001600160a01b0388166000908152600e6020526040812054919250906118f6908790613901565b6001600160a01b0388166000908152600e60205260408120549192509061191e908890613918565b6001600160a01b03808b166000908152600e6020526040808220869055918b1681522081905590506000198414611978576001600160a01b03808a166000908152600f60209081526040808320938e168352929052208390555b876001600160a01b0316896001600160a01b03166000805160206139db833981519152896040516119ab91815260200190565b60405180910390a35060009998505050505050505050565b60005460ff166119e55760405162461bcd60e51b81526004016108159061388c565b6000805460ff191690556119f76110bf565b50611a03338383612350565b50506000805460ff1916600117905550565b600080611a228484611e6b565b9050611a2d816124f9565b949350505050565b6011546040516370a0823160e01b81523060048201526000916001600160a01b03169081906370a0823190602401602060405180830381865afa158015611a80573d6000803e3d6000fd5b505050506040513d601f19601f82011682018060405250810190611aa491906138b0565b91505090565b6000805460ff16611acd5760405162461bcd60e51b81526004016108159061388c565b6000805460ff19169055611adf6110bf565b50611ae982612511565b5050600090506000805460ff19166001179055919050565b600354600090819061010090046001600160a01b03163314611b3657604051630f7e5e6d60e41b815260040160405180910390fd5b4260095414611b5857604051630dff50cb60e41b815260040160405180910390fd5b82611b61611a35565b1015611b8057604051633345e99960e01b815260040160405180910390fd5b600c54831115611ba3576040516378d2980560e11b815260040160405180910390fd5b82600c54611bb19190613901565b600c819055600354909150611bd49061010090046001600160a01b0316846125a5565b7f3bad0c59cf2f06e7314077049f48a93578cd16f5ef92329f1dab1420a99c177e600360019054906101000a90046001600160a01b03168483604051610cc593929190613971565b60005460ff16611c3e5760405162461bcd60e51b81526004016108159061388c565b6000805460ff19169055611c506110bf565b50611c5d3360008361268f565b506000805460ff19166001179055565b6001600160a01b03811660009081526010602052604081208054611c945750600092915050565b600a548154600091611ca591613930565b9050816001015481611a2d919061394f565b600354600090819061010090046001600160a01b03163314611cec5760405163407fded560e01b815260040160405180910390fd5b4260095414611d0e57604051630be2a5cb60e11b815260040160405180910390fd5b600660009054906101000a90046001600160a01b03169050826001600160a01b0316632191f92a6040518163ffffffff1660e01b8152600401602060405180830381865afa158015611d64573d6000803e3d6000fd5b505050506040513d601f19601f82011682018060405250810190611d8891906138c9565b611dd45760405162461bcd60e51b815260206004820152601c60248201527f6d61726b6572206d6574686f642072657475726e65642066616c7365000000006044820152606401610815565b600680546001600160a01b0319166001600160a01b0385811691821790925560408051928416835260208301919091527fedffc32e068c7c95dfd4bdfd5c4d939a084d6b11c4199eac8436ed234d72f9269101610cc5565b60005460ff16611e4e5760405162461bcd60e51b81526004016108159061388c565b6000805460ff19169055611e606110bf565b50611c5d338261296c565b6040805160208101909152600081526040518060200160405280611e93856000015185612b95565b90529392505050565b600080611ea98585611e6b565b9050611788611eb7826124f9565b84612ba1565b60055460405163d02f735160e01b81523060048201526001600160a01b0386811660248301528581166044830152848116606483015260848201849052600092169063d02f73519060a4016020604051808303816000875af1158015611f27573d6000803e3d6000fd5b505050506040513d601f19601f82011682018060405250810190611f4b91906138b0565b90508015611f6f576040516363e00e3360e11b815260048101829052602401610815565b836001600160a01b0316836001600160a01b03161415611fa257604051633a94626760e11b815260040160405180910390fd5b6000611fc3836040518060200160405280666379da05b60000815250612bad565b90506000611fd18285613901565b905060006040518060200160405280611fe861172b565b905290506000611ff88285611a15565b9050600081600c5461200a9190613918565b600c819055600d54909150612020908690613901565b600d556001600160a01b0388166000908152600e6020526040902054612047908890613901565b6001600160a01b03808a166000908152600e602052604080822093909355908b1681522054612077908590613918565b6001600160a01b03808b166000818152600e602052604090819020939093559151908a16906000805160206139db833981519152906120b99088815260200190565b60405180910390a360405185815230906001600160a01b038a16906000805160206139db8339815191529060200160405180910390a37fa91e67c5ea634cd43a12c5a482724b03de01e85ca68702a53d0c2f45cb7c1dc530838360405161212293929190613971565b60405180910390a150505050505050505050565b60005460ff166121585760405162461bcd60e51b81526004016108159061388c565b6000805460ff1916905561216a6110bf565b50611c5d3382612bd0565b60005460ff166121975760405162461bcd60e51b81526004016108159061388c565b6000805460ff191690556121a96110bf565b50611c5d3382600061268f565b60005460ff166121d85760405162461bcd60e51b81526004016108159061388c565b6000805460ff191690556121ea6110bf565b506000816001600160a01b031663a6afed956040518163ffffffff1660e01b81526004016020604051808303816000875af115801561222d573d6000803e3d6000fd5b505050506040513d601f19601f8201168201806040525081019061225191906138b0565b9050801561227557604051633eea49b760e11b815260048101829052602401610815565b61228133858585612d6f565b50506000805460ff191660011790555050565b60035460009061010090046001600160a01b031633146122c757604051631205b57b60e11b815260040160405180910390fd5b42600954146122e957604051637dfca6b760e11b815260040160405180910390fd5b670de0b6b3a76400008211156123125760405163717220f360e11b815260040160405180910390fd5b600880549083905560408051828152602081018590527faaa68312e2ea9d50e16af5068410ab56e1a1fd06037b1a35664812c30f8214609101610cc5565b600554604051631200453160e11b81523060048201526001600160a01b03858116602483015284811660448301526064820184905260009283929116906324008a62906084016020604051808303816000875af11580156123b5573d6000803e3d6000fd5b505050506040513d601f19601f820116820180604052508101906123d991906138b0565b905080156123fd57604051638c81362d60e01b815260048101829052602401610815565b426009541461241f5760405163c9021e2f60e01b815260040160405180910390fd5b600061242a85611c6d565b90506000600019851461243d578461243f565b815b9050600061244d8883613229565b9050600061245b8285613901565b9050600082600b5461246d9190613901565b6001600160a01b038a8116600081815260106020908152604091829020878155600a54600190910155600b8590558151938f168452830191909152810185905260608101849052608081018290529091507f1a2a22cb034d26d1854bdc6666a5b91fe25efbbb5dcad3b0355478d6f5c362a19060a00160405180910390a1509098975050505050505050565b8051600090610b7e90670de0b6b3a76400009061394f565b6000808080426009541461253b576040516338acf79960e01b815260048101829052602401610815565b6125453386613229565b905080600c546125559190613918565b915081600c819055507fa91e67c5ea634cd43a12c5a482724b03de01e85ca68702a53d0c2f45cb7c1dc533828460405161259193929190613971565b60405180910390a160009590945092505050565b60115460405163a9059cbb60e01b81526001600160a01b0384811660048301526024820184905290911690819063a9059cbb90604401600060405180830381600087803b1580156125f557600080fd5b505af1158015612609573d6000803e3d6000fd5b5050505060003d60008114612625576020811461262f57600080fd5b600019915061263b565b60206000803e60005191505b50806126895760405162461bcd60e51b815260206004820152601960248201527f544f4b454e5f5452414e534645525f4f55545f4641494c4544000000000000006044820152606401610815565b50505050565b81158061269a575080155b6127035760405162461bcd60e51b815260206004820152603460248201527f6f6e65206f662072656465656d546f6b656e73496e206f722072656465656d416044820152736d6f756e74496e206d757374206265207a65726f60601b6064820152608401610815565b6000604051806020016040528061271861172b565b905290506000808415612739578491506127328386611a15565b9050612749565b6127438484613400565b91508390505b60055460405163eabe7d9160e01b81526000916001600160a01b03169063eabe7d919061277e9030908b908890600401613992565b6020604051808303816000875af115801561279d573d6000803e3d6000fd5b505050506040513d601f19601f820116820180604052508101906127c191906138b0565b905080156127e55760405163480f424760e01b815260048101829052602401610815565b4260095414612807576040516397b5cfcd60e01b815260040160405180910390fd5b81612810611a35565b101561282f576040516391240a1b60e01b815260040160405180910390fd5b82600d5461283d9190613901565b600d556001600160a01b0387166000908152600e6020526040902054612864908490613901565b6001600160a01b0388166000908152600e602052604090205561288787836125a5565b60405183815230906001600160a01b038916906000805160206139db8339815191529060200160405180910390a37fe5b754fb1abb7f01b499791d0b820ae3b6af3424ac1c59768edb53f4ec31a9298783856040516128e893929190613971565b60405180910390a16005546040516351dff98960e01b81523060048201526001600160a01b0389811660248301526044820185905260648201869052909116906351dff98990608401600060405180830381600087803b15801561294b57600080fd5b505af115801561295f573d6000803e3d6000fd5b5050505050505050505050565b600554604051634ef4c3e160e01b81526000916001600160a01b031690634ef4c3e1906129a190309087908790600401613992565b6020604051808303816000875af11580156129c0573d6000803e3d6000fd5b505050506040513d601f19601f820116820180604052508101906129e491906138b0565b90508015612a08576040516349abd4fd60e01b815260048101829052602401610815565b4260095414612a2a576040516338d8859760e01b815260040160405180910390fd5b60006040518060200160405280612a3f61172b565b905290506000612a4f8585613229565b90506000612a5d8284613400565b905080600d54612a6d9190613918565b600d556001600160a01b0386166000908152600e6020526040902054612a94908290613918565b6001600160a01b0387166000908152600e60205260409081902091909155517f4c209b5fc8ad50758f13e2e1088ba56a560dff690a1c6fef26394f4c03821c4f90612ae490889085908590613971565b60405180910390a16040518181526001600160a01b0387169030906000805160206139db8339815191529060200160405180910390a36005546040516341c728b960e01b81523060048201526001600160a01b0388811660248301526044820185905260648201849052909116906341c728b990608401600060405180830381600087803b158015612b7557600080fd5b505af1158015612b89573d6000803e3d6000fd5b50505050505050505050565b6000610b628284613930565b6000610b628284613918565b6000670de0b6b3a7640000612bc6848460000151612b95565b610b62919061394f565b60055460405163368f515360e21b81526000916001600160a01b03169063da3d454c90612c0590309087908790600401613992565b6020604051808303816000875af1158015612c24573d6000803e3d6000fd5b505050506040513d601f19601f82011682018060405250810190612c4891906138b0565b90508015612c6c5760405163918db40f60e01b815260048101829052602401610815565b4260095414612c8e57604051630e8d8c6160e21b815260040160405180910390fd5b81612c97611a35565b1015612cb6576040516348c2588160e01b815260040160405180910390fd5b6000612cc184611c6d565b90506000612ccf8483613918565b9050600084600b54612ce19190613918565b6001600160a01b0387166000908152601060205260409020838155600a54600190910155600b8190559050612d1686866125a5565b604080516001600160a01b038816815260208101879052908101839052606081018290527f13ed6866d4e1ee6da46f845c46d7e54120883d75c5ea9a2dacc1c4ca8984ab809060800160405180910390a1505050505050565b600554604051632fe3f38f60e11b81523060048201526001600160a01b03838116602483015286811660448301528581166064830152608482018590526000921690635fc7e71e9060a4016020604051808303816000875af1158015612dd9573d6000803e3d6000fd5b505050506040513d601f19601f82011682018060405250810190612dfd91906138b0565b90508015612e2157604051630a14d17960e11b815260048101829052602401610815565b4260095414612e43576040516380965b1b60e01b815260040160405180910390fd5b42826001600160a01b0316636c540baf6040518163ffffffff1660e01b8152600401602060405180830381865afa158015612e82573d6000803e3d6000fd5b505050506040513d601f19601f82011682018060405250810190612ea691906138b0565b14612ec457604051631046f38d60e31b815260040160405180910390fd5b846001600160a01b0316846001600160a01b03161415612ef757604051631bd1a62160e21b815260040160405180910390fd5b82612f155760405163d29da7ef60e01b815260040160405180910390fd5b600019831415612f3857604051635982c5bb60e11b815260040160405180910390fd5b6000612f45868686612350565b60055460405163c488847b60e01b815291925060009182916001600160a01b03169063c488847b90612f7f90309089908890600401613992565b6040805180830381865afa158015612f9b573d6000803e3d6000fd5b505050506040513d601f19601f82011682018060405250810190612fbf91906139b6565b915091506000821461302f5760405162461bcd60e51b815260206004820152603360248201527f4c49515549444154455f434f4d5054524f4c4c45525f43414c43554c4154455f604482015272105353d5539517d4d152569157d19052531151606a1b6064820152608401610815565b6040516370a0823160e01b81526001600160a01b0388811660048301528291908716906370a0823190602401602060405180830381865afa158015613078573d6000803e3d6000fd5b505050506040513d601f19601f8201168201806040525081019061309c91906138b0565b10156130ea5760405162461bcd60e51b815260206004820152601860248201527f4c49515549444154455f5345495a455f544f4f5f4d55434800000000000000006044820152606401610815565b6001600160a01b03851630141561310c5761310730898984611ebd565b6131c6565b60405163b2a02ff160e01b81526000906001600160a01b0387169063b2a02ff19061313f908c908c908790600401613992565b6020604051808303816000875af115801561315e573d6000803e3d6000fd5b505050506040513d601f19601f8201168201806040525081019061318291906138b0565b146131c65760405162461bcd60e51b81526020600482015260146024820152731d1bdad95b881cd95a5e9d5c994819985a5b195960621b6044820152606401610815565b604080516001600160a01b038a811682528981166020830152818301869052871660608201526080810183905290517f298637f684da70674f26509b10f07ec2fbc77a335ab1e7d6215a4b2484d8bb529181900360a00190a15050505050505050565b6011546040516370a0823160e01b81523060048201526000916001600160a01b0316908190839082906370a0823190602401602060405180830381865afa158015613278573d6000803e3d6000fd5b505050506040513d601f19601f8201168201806040525081019061329c91906138b0565b6040516323b872dd60e01b81529091506001600160a01b038316906323b872dd906132cf90899030908a90600401613992565b600060405180830381600087803b1580156132e957600080fd5b505af11580156132fd573d6000803e3d6000fd5b5050505060003d60008114613319576020811461332357600080fd5b600019915061332f565b60206000803e60005191505b508061337d5760405162461bcd60e51b815260206004820152601860248201527f544f4b454e5f5452414e534645525f494e5f4641494c454400000000000000006044820152606401610815565b6040516370a0823160e01b81523060048201526000906001600160a01b038616906370a0823190602401602060405180830381865afa1580156133c4573d6000803e3d6000fd5b505050506040513d601f19601f820116820180604052508101906133e891906138b0565b90506133f48382613901565b98975050505050505050565b6000610b6261341784670de0b6b3a7640000612b95565b83516000610b62828461394f565b82805461343190613851565b90600052602060002090601f0160209004810192826134535760008555613499565b82601f1061346c57805160ff1916838001178555613499565b82800160010185558215613499579182015b8281111561349957825182559160200191906001019061347e565b506117919291505b8082111561179157600081556001016134a1565b600060208083528351808285015260005b818110156134e2578581018301518582016040015282016134c6565b818111156134f4576000604083870101525b50601f01601f1916929092016040019392505050565b6001600160a01b038116811461351f57600080fd5b50565b6000806040838503121561353557600080fd5b82356135408161350a565b946020939093013593505050565b60006020828403121561356057600080fd5b5035919050565b60006020828403121561357957600080fd5b8135610b628161350a565b634e487b7160e01b600052604160045260246000fd5b600082601f8301126135ab57600080fd5b813567ffffffffffffffff808211156135c6576135c6613584565b604051601f8301601f19908116603f011681019082821181831017156135ee576135ee613584565b8160405283815286602085880101111561360757600080fd5b836020870160208301376000602085830101528094505050505092915050565b803560ff8116811461363857600080fd5b919050565b600080600080600080600060e0888a03121561365857600080fd5b87356136638161350a565b965060208801356136738161350a565b955060408801356136838161350a565b945060608801359350608088013567ffffffffffffffff808211156136a757600080fd5b6136b38b838c0161359a565b945060a08a01359150808211156136c957600080fd5b506136d68a828b0161359a565b9250506136e560c08901613627565b905092959891949750929550565b60008060006060848603121561370857600080fd5b83356137138161350a565b925060208401356137238161350a565b929592945050506040919091013590565b60008060008060008060c0878903121561374d57600080fd5b86356137588161350a565b955060208701356137688161350a565b945060408701359350606087013567ffffffffffffffff8082111561378c57600080fd5b6137988a838b0161359a565b945060808901359150808211156137ae57600080fd5b506137bb89828a0161359a565b9250506137ca60a08801613627565b90509295509295509295565b600080604083850312156137e957600080fd5b82356137f48161350a565b915060208301356138048161350a565b809150509250929050565b60008060006060848603121561382457600080fd5b833561382f8161350a565b92506020840135915060408401356138468161350a565b809150509250925092565b600181811c9082168061386557607f821691505b6020821081141561388657634e487b7160e01b600052602260045260246000fd5b50919050565b6020808252600a90820152691c994b595b9d195c995960b21b604082015260600190565b6000602082840312156138c257600080fd5b5051919050565b6000602082840312156138db57600080fd5b81518015158114610b6257600080fd5b634e487b7160e01b600052601160045260246000fd5b600082821015613913576139136138eb565b500390565b6000821982111561392b5761392b6138eb565b500190565b600081600019048311821515161561394a5761394a6138eb565b500290565b60008261396c57634e487b7160e01b600052601260045260246000fd5b500490565b6001600160a01b039390931683526020830191909152604082015260600190565b6001600160a01b039384168152919092166020820152604081019190915260600190565b600080604083850312156139c957600080fd5b50508051602090910151909290915056feddf252ad1be2c89b69c2b068fc378daa952ba7f163c4a11628f55a4df523b3efa2646970667358221220ce926571c28f011f5d216445c529432078afcdb1757e138c7b79980cad0557ec64736f6c634300080a0033', \n     arguments: [\n          underlying_,\n          comptroller_,\n          interestRateModel_,\n          initialExchangeRateMantissa_,\n          name_,\n          symbol_,\n          decimals_,\n          admin_,\n     ]\n}).send({\n     from: web3.eth.accounts[0], \n     gas: '4700000'\n   }, function (e, contract){\n    console.log(e, contract);\n    if (typeof contract.address !== 'undefined') {\n         console.log('Contract mined! address: ' + contract.address + ' transactionHash: ' + contract.transactionHash);\n    }\n })",
	"functionHashes": {
		"26782247": "pendingAdmin()",
		"69ab3250": "NO_ERROR()",
		"e9c714f2": "_acceptAdmin()",
		"3e941010": "_addReserves(uint256)",
		"7f1e06be": "_delegateCompLikeTo(address)",
		"601a0bf1": "_reduceReserves(uint256)",
		"4576b5db": "_setComptroller(address)",
		"f2b3abbd": "_setInterestRateModel(address)",
		"b71d1a0c": "_setPendingAdmin(address)",
		"fca7820b": "_setReserveFactor(uint256)",
		"6c540baf": "accrualBlockNumber()",
		"a6afed95": "accrueInterest()",
		"f851a440": "admin()",
		"dd62ed3e": "allowance(address,address)",
		"095ea7b3": "approve(address,uint256)",
		"70a08231": "balanceOf(address)",
		"3af9e669": "balanceOfUnderlying(address)",
		"c5ebeaec": "borrow(uint256)",
		"17bfdfbc": "borrowBalanceCurrent(address)",
		"95dd9193": "borrowBalanceStored(address)",
		"aa5af0fd": "borrowIndex()",
		"f8f9da28": "borrowRatePerBlock()",
		"5fe3b567": "comptroller()",
		"313ce567": "decimals()",
		"bd6d894d": "exchangeRateCurrent()",
		"182df0f5": "exchangeRateStored()",
		"c37f68e2": "getAccountSnapshot(address)",
		"3b1d21a2": "getCash()",
		"1a31d465": "initialize(address,address,address,uint256,string,string,uint8)",
		"99d8c1b4": "initialize(address,address,uint256,string,string,uint8)",
		"f3fdb15a": "interestRateModel()",
		"fe9c44ae": "isCToken()",
		"f5e3c462": "liquidateBorrow(address,uint256,address)",
		"a0712d68": "mint(uint256)",
		"06fdde03": "name()",
		"6752e702": "protocolSeizeShareMantissa()",
		"db006a75": "redeem(uint256)",
		"852a12e3": "redeemUnderlying(uint256)",
		"0e752702": "repayBorrow(uint256)",
		"2608f818": "repayBorrowBehalf(address,uint256)",
		"173b9904": "reserveFactorMantissa()",
		"b2a02ff1": "seize(address,address,uint256)",
		"ae9d70b0": "supplyRatePerBlock()",
		"1be19560": "sweepToken(address)",
		"95d89b41": "symbol()",
		"47bd3718": "totalBorrows()",
		"73acee98": "totalBorrowsCurrent()",
		"8f840ddd": "totalReserves()",
		"18160ddd": "totalSupply()",
		"a9059cbb": "transfer(address,uint256)",
		"23b872dd": "transferFrom(address,address,uint256)",
		"6f307dc3": "underlying()"
	},
	"gasEstimates": {
		"Creation": {
			"codeDepositCost": "2979200",
			"executionCost": "infinite",
			"totalCost": "infinite"
		},
		"External": {
			"NO_ERROR()": "307",
			"_acceptAdmin()": "55886",
			"_addReserves(uint256)": "infinite",
			"_delegateCompLikeTo(address)": "infinite",
			"_reduceReserves(uint256)": "infinite",
			"_setComptroller(address)": "infinite",
			"_setInterestRateModel(address)": "infinite",
			"_setPendingAdmin(address)": "28279",
			"_setReserveFactor(uint256)": "infinite",
			"accrualBlockNumber()": "2362",
			"accrueInterest()": "infinite",
			"admin()": "2414",
			"allowance(address,address)": "infinite",
			"approve(address,uint256)": "24567",
			"balanceOf(address)": "2642",
			"balanceOfUnderlying(address)": "infinite",
			"borrow(uint256)": "infinite",
			"borrowBalanceCurrent(address)": "infinite",
			"borrowBalanceStored(address)": "9226",
			"borrowIndex()": "2362",
			"borrowRatePerBlock()": "infinite",
			"comptroller()": "2493",
			"decimals()": "2447",
			"exchangeRateCurrent()": "infinite",
			"exchangeRateStored()": "infinite",
			"getAccountSnapshot(address)": "infinite",
			"getCash()": "infinite",
			"initialize(address,address,address,uint256,string,string,uint8)": "infinite",
			"initialize(address,address,uint256,string,string,uint8)": "infinite",
			"interestRateModel()": "2426",
			"isCToken()": "333",
			"liquidateBorrow(address,uint256,address)": "infinite",
			"mint(uint256)": "infinite",
			"name()": "infinite",
			"pendingAdmin()": "2449",
			"protocolSeizeShareMantissa()": "285",
			"redeem(uint256)": "infinite",
			"redeemUnderlying(uint256)": "infinite",
			"repayBorrow(uint256)": "infinite",
			"repayBorrowBehalf(address,uint256)": "infinite",
			"reserveFactorMantissa()": "2408",
			"seize(address,address,uint256)": "infinite",
			"supplyRatePerBlock()": "infinite",
			"sweepToken(address)": "infinite",
			"symbol()": "infinite",
			"totalBorrows()": "2429",
			"totalBorrowsCurrent()": "infinite",
			"totalReserves()": "2385",
			"totalSupply()": "2452",
			"transfer(address,uint256)": "infinite",
			"transferFrom(address,address,uint256)": "infinite",
			"underlying()": "2426"
		}
	},
	"devdoc": {
		"author": "Compound",
		"kind": "dev",
		"methods": {
			"_acceptAdmin()": {
				"details": "Admin function for pending admin to accept role and update admin",
				"returns": {
					"_0": "uint 0=success, otherwise a failure (see ErrorReporter.sol for details)"
				}
			},
			"_addReserves(uint256)": {
				"params": {
					"addAmount": "The amount fo underlying token to add as reserves"
				},
				"returns": {
					"_0": "uint 0=success, otherwise a failure (see ErrorReporter.sol for details)"
				}
			},
			"_delegateCompLikeTo(address)": {
				"details": "CTokens whose underlying are not CompLike should revert here",
				"params": {
					"compLikeDelegatee": "The address to delegate votes to"
				}
			},
			"_reduceReserves(uint256)": {
				"params": {
					"reduceAmount": "Amount of reduction to reserves"
				},
				"returns": {
					"_0": "uint 0=success, otherwise a failure (see ErrorReporter.sol for details)"
				}
			},
			"_setComptroller(address)": {
				"details": "Admin function to set a new comptroller",
				"returns": {
					"_0": "uint 0=success, otherwise a failure (see ErrorReporter.sol for details)"
				}
			},
			"_setInterestRateModel(address)": {
				"details": "Admin function to accrue interest and update the interest rate model",
				"params": {
					"newInterestRateModel": "the new interest rate model to use"
				},
				"returns": {
					"_0": "uint 0=success, otherwise a failure (see ErrorReporter.sol for details)"
				}
			},
			"_setPendingAdmin(address)": {
				"details": "Admin function to begin change of admin. The newPendingAdmin must call `_acceptAdmin` to finalize the transfer.",
				"params": {
					"newPendingAdmin": "New pending admin."
				},
				"returns": {
					"_0": "uint 0=success, otherwise a failure (see ErrorReporter.sol for details)"
				}
			},
			"_setReserveFactor(uint256)": {
				"details": "Admin function to accrue interest and set a new reserve factor",
				"returns": {
					"_0": "uint 0=success, otherwise a failure (see ErrorReporter.sol for details)"
				}
			},
			"accrueInterest()": {
				"details": "This calculates interest accrued from the last checkpointed block   up to the current block and writes new checkpoint to storage."
			},
			"allowance(address,address)": {
				"params": {
					"owner": "The address of the account which owns the tokens to be spent",
					"spender": "The address of the account which may transfer tokens"
				},
				"returns": {
					"_0": "The number of tokens allowed to be spent (-1 means infinite)"
				}
			},
			"approve(address,uint256)": {
				"details": "This will overwrite the approval amount for `spender`  and is subject to issues noted [here](https://eips.ethereum.org/EIPS/eip-20#approve)",
				"params": {
					"amount": "The number of tokens that are approved (uint256.max means infinite)",
					"spender": "The address of the account which may transfer tokens"
				},
				"returns": {
					"_0": "Whether or not the approval succeeded"
				}
			},
			"balanceOf(address)": {
				"params": {
					"owner": "The address of the account to query"
				},
				"returns": {
					"_0": "The number of tokens owned by `owner`"
				}
			},
			"balanceOfUnderlying(address)": {
				"details": "This also accrues interest in a transaction",
				"params": {
					"owner": "The address of the account to query"
				},
				"returns": {
					"_0": "The amount of underlying owned by `owner`"
				}
			},
			"borrow(uint256)": {
				"params": {
					"borrowAmount": "The amount of the underlying asset to borrow"
				},
				"returns": {
					"_0": "uint 0=success, otherwise a failure (see ErrorReporter.sol for details)"
				}
			},
			"borrowBalanceCurrent(address)": {
				"params": {
					"account": "The address whose balance should be calculated after updating borrowIndex"
				},
				"returns": {
					"_0": "The calculated balance"
				}
			},
			"borrowBalanceStored(address)": {
				"params": {
					"account": "The address whose balance should be calculated"
				},
				"returns": {
					"_0": "The calculated balance"
				}
			},
			"borrowRatePerBlock()": {
				"returns": {
					"_0": "The borrow interest rate per block, scaled by 1e18"
				}
			},
			"constructor": {
				"params": {
					"admin_": "Address of the administrator of this token",
					"comptroller_": "The address of the Comptroller",
					"decimals_": "ERC-20 decimal precision of this token",
					"initialExchangeRateMantissa_": "The initial exchange rate, scaled by 1e18",
					"interestRateModel_": "The address of the interest rate model",
					"name_": "ERC-20 name of this token",
					"symbol_": "ERC-20 symbol of this token",
					"underlying_": "The address of the underlying asset"
				}
			},
			"exchangeRateCurrent()": {
				"returns": {
					"_0": "Calculated exchange rate scaled by 1e18"
				}
			},
			"exchangeRateStored()": {
				"details": "This function does not accrue interest before calculating the exchange rate",
				"returns": {
					"_0": "Calculated exchange rate scaled by 1e18"
				}
			},
			"getAccountSnapshot(address)": {
				"details": "This is used by comptroller to more efficiently perform liquidity checks.",
				"params": {
					"account": "Address of the account to snapshot"
				},
				"returns": {
					"_0": "(possible error, token balance, borrow balance, exchange rate mantissa)"
				}
			},
			"getCash()": {
				"returns": {
					"_0": "The quantity of underlying asset owned by this contract"
				}
			},
			"initialize(address,address,address,uint256,string,string,uint8)": {
				"params": {
					"comptroller_": "The address of the Comptroller",
					"decimals_": "ERC-20 decimal precision of this token",
					"initialExchangeRateMantissa_": "The initial exchange rate, scaled by 1e18",
					"interestRateModel_": "The address of the interest rate model",
					"name_": "ERC-20 name of this token",
					"symbol_": "ERC-20 symbol of this token",
					"underlying_": "The address of the underlying asset"
				}
			},
			"initialize(address,address,uint256,string,string,uint8)": {
				"params": {
					"comptroller_": "The address of the Comptroller",
					"decimals_": "EIP-20 decimal precision of this token",
					"initialExchangeRateMantissa_": "The initial exchange rate, scaled by 1e18",
					"interestRateModel_": "The address of the interest rate model",
					"name_": "EIP-20 name of this token",
					"symbol_": "EIP-20 symbol of this token"
				}
			},
			"liquidateBorrow(address,uint256,address)": {
				"params": {
					"borrower": "The borrower of this cToken to be liquidated",
					"cTokenCollateral": "The market in which to seize collateral from the borrower",
					"repayAmount": "The amount of the underlying borrowed asset to repay"
				},
				"returns": {
					"_0": "uint 0=success, otherwise a failure (see ErrorReporter.sol for details)"
				}
			},
			"mint(uint256)": {
				"details": "Accrues interest whether or not the operation succeeds, unless reverted",
				"params": {
					"mintAmount": "The amount of the underlying asset to supply"
				},
				"returns": {
					"_0": "uint 0=success, otherwise a failure (see ErrorReporter.sol for details)"
				}
			},
			"redeem(uint256)": {
				"details": "Accrues interest whether or not the operation succeeds, unless reverted",
				"params": {
					"redeemTokens": "The number of cTokens to redeem into underlying"
				},
				"returns": {
					"_0": "uint 0=success, otherwise a failure (see ErrorReporter.sol for details)"
				}
			},
			"redeemUnderlying(uint256)": {
				"details": "Accrues interest whether or not the operation succeeds, unless reverted",
				"params": {
					"redeemAmount": "The amount of underlying to redeem"
				},
				"returns": {
					"_0": "uint 0=success, otherwise a failure (see ErrorReporter.sol for details)"
				}
			},
			"repayBorrow(uint256)": {
				"params": {
					"repayAmount": "The amount to repay, or -1 for the full outstanding amount"
				},
				"returns": {
					"_0": "uint 0=success, otherwise a failure (see ErrorReporter.sol for details)"
				}
			},
			"repayBorrowBehalf(address,uint256)": {
				"params": {
					"borrower": "the account with the debt being payed off",
					"repayAmount": "The amount to repay, or -1 for the full outstanding amount"
				},
				"returns": {
					"_0": "uint 0=success, otherwise a failure (see ErrorReporter.sol for details)"
				}
			},
			"seize(address,address,uint256)": {
				"details": "Will fail unless called by another cToken during the process of liquidation.  Its absolutely critical to use msg.sender as the borrowed cToken and not a parameter.",
				"params": {
					"borrower": "The account having collateral seized",
					"liquidator": "The account receiving seized collateral",
					"seizeTokens": "The number of cTokens to seize"
				},
				"returns": {
					"_0": "uint 0=success, otherwise a failure (see ErrorReporter.sol for details)"
				}
			},
			"supplyRatePerBlock()": {
				"returns": {
					"_0": "The supply interest rate per block, scaled by 1e18"
				}
			},
			"sweepToken(address)": {
				"params": {
					"token": "The address of the ERC-20 token to sweep"
				}
			},
			"totalBorrowsCurrent()": {
				"returns": {
					"_0": "The total borrows with interest"
				}
			},
			"transfer(address,uint256)": {
				"params": {
					"amount": "The number of tokens to transfer",
					"dst": "The address of the destination account"
				},
				"returns": {
					"_0": "Whether or not the transfer succeeded"
				}
			},
			"transferFrom(address,address,uint256)": {
				"params": {
					"amount": "The number of tokens to transfer",
					"dst": "The address of the destination account",
					"src": "The address of the source account"
				},
				"returns": {
					"_0": "Whether or not the transfer succeeded"
				}
			}
		},
		"title": "Compound's CErc20Immutable Contract",
		"version": 1
	},
	"userdoc": {
		"events": {
			"AccrueInterest(uint256,uint256,uint256,uint256)": {
				"notice": "Event emitted when interest is accrued"
			},
			"Approval(address,address,uint256)": {
				"notice": "EIP20 Approval event"
			},
			"Borrow(address,uint256,uint256,uint256)": {
				"notice": "Event emitted when underlying is borrowed"
			},
			"LiquidateBorrow(address,address,uint256,address,uint256)": {
				"notice": "Event emitted when a borrow is liquidated"
			},
			"Mint(address,uint256,uint256)": {
				"notice": "Event emitted when tokens are minted"
			},
			"NewAdmin(address,address)": {
				"notice": "Event emitted when pendingAdmin is accepted, which means admin is updated"
			},
			"NewComptroller(address,address)": {
				"notice": "Event emitted when comptroller is changed"
			},
			"NewMarketInterestRateModel(address,address)": {
				"notice": "Event emitted when interestRateModel is changed"
			},
			"NewPendingAdmin(address,address)": {
				"notice": "Event emitted when pendingAdmin is changed"
			},
			"NewReserveFactor(uint256,uint256)": {
				"notice": "Event emitted when the reserve factor is changed"
			},
			"Redeem(address,uint256,uint256)": {
				"notice": "Event emitted when tokens are redeemed"
			},
			"RepayBorrow(address,address,uint256,uint256,uint256)": {
				"notice": "Event emitted when a borrow is repaid"
			},
			"ReservesAdded(address,uint256,uint256)": {
				"notice": "Event emitted when the reserves are added"
			},
			"ReservesReduced(address,uint256,uint256)": {
				"notice": "Event emitted when the reserves are reduced"
			},
			"Transfer(address,address,uint256)": {
				"notice": "EIP20 Transfer event"
			}
		},
		"kind": "user",
		"methods": {
			"_acceptAdmin()": {
				"notice": "Accepts transfer of admin rights. msg.sender must be pendingAdmin"
			},
			"_addReserves(uint256)": {
				"notice": "The sender adds to reserves."
			},
			"_delegateCompLikeTo(address)": {
				"notice": "Admin call to delegate the votes of the COMP-like underlying"
			},
			"_reduceReserves(uint256)": {
				"notice": "Accrues interest and reduces reserves by transferring to admin"
			},
			"_setComptroller(address)": {
				"notice": "Sets a new comptroller for the market"
			},
			"_setInterestRateModel(address)": {
				"notice": "accrues interest and updates the interest rate model using _setInterestRateModelFresh"
			},
			"_setPendingAdmin(address)": {
				"notice": "Begins transfer of admin rights. The newPendingAdmin must call `_acceptAdmin` to finalize the transfer."
			},
			"_setReserveFactor(uint256)": {
				"notice": "accrues interest and sets a new reserve factor for the protocol using _setReserveFactorFresh"
			},
			"accrualBlockNumber()": {
				"notice": "Block number that interest was last accrued at"
			},
			"accrueInterest()": {
				"notice": "Applies accrued interest to total borrows and reserves"
			},
			"admin()": {
				"notice": "Administrator for this contract"
			},
			"allowance(address,address)": {
				"notice": "Get the current allowance from `owner` for `spender`"
			},
			"approve(address,uint256)": {
				"notice": "Approve `spender` to transfer up to `amount` from `src`"
			},
			"balanceOf(address)": {
				"notice": "Get the token balance of the `owner`"
			},
			"balanceOfUnderlying(address)": {
				"notice": "Get the underlying balance of the `owner`"
			},
			"borrow(uint256)": {
				"notice": "Sender borrows assets from the protocol to their own address"
			},
			"borrowBalanceCurrent(address)": {
				"notice": "Accrue interest to updated borrowIndex and then calculate account's borrow balance using the updated borrowIndex"
			},
			"borrowBalanceStored(address)": {
				"notice": "Return the borrow balance of account based on stored data"
			},
			"borrowIndex()": {
				"notice": "Accumulator of the total earned interest rate since the opening of the market"
			},
			"borrowRatePerBlock()": {
				"notice": "Returns the current per-block borrow interest rate for this cToken"
			},
			"comptroller()": {
				"notice": "Contract which oversees inter-cToken operations"
			},
			"constructor": {
				"notice": "Construct a new money market"
			},
			"decimals()": {
				"notice": "EIP-20 token decimals for this token"
			},
			"exchangeRateCurrent()": {
				"notice": "Accrue interest then return the up-to-date exchange rate"
			},
			"exchangeRateStored()": {
				"notice": "Calculates the exchange rate from the underlying to the CToken"
			},
			"getAccountSnapshot(address)": {
				"notice": "Get a snapshot of the account's balances, and the cached exchange rate"
			},
			"getCash()": {
				"notice": "Get cash balance of this cToken in the underlying asset"
			},
			"initialize(address,address,address,uint256,string,string,uint8)": {
				"notice": "Initialize the new money market"
			},
			"initialize(address,address,uint256,string,string,uint8)": {
				"notice": "Initialize the money market"
			},
			"interestRateModel()": {
				"notice": "Model which tells what the current interest rate should be"
			},
			"isCToken()": {
				"notice": "Indicator that this is a CToken contract (for inspection)"
			},
			"liquidateBorrow(address,uint256,address)": {
				"notice": "The sender liquidates the borrowers collateral.  The collateral seized is transferred to the liquidator."
			},
			"mint(uint256)": {
				"notice": "Sender supplies assets into the market and receives cTokens in exchange"
			},
			"name()": {
				"notice": "EIP-20 token name for this token"
			},
			"pendingAdmin()": {
				"notice": "Pending administrator for this contract"
			},
			"protocolSeizeShareMantissa()": {
				"notice": "Share of seized collateral that is added to reserves"
			},
			"redeem(uint256)": {
				"notice": "Sender redeems cTokens in exchange for the underlying asset"
			},
			"redeemUnderlying(uint256)": {
				"notice": "Sender redeems cTokens in exchange for a specified amount of underlying asset"
			},
			"repayBorrow(uint256)": {
				"notice": "Sender repays their own borrow"
			},
			"repayBorrowBehalf(address,uint256)": {
				"notice": "Sender repays a borrow belonging to borrower"
			},
			"reserveFactorMantissa()": {
				"notice": "Fraction of interest currently set aside for reserves"
			},
			"seize(address,address,uint256)": {
				"notice": "Transfers collateral tokens (this market) to the liquidator."
			},
			"supplyRatePerBlock()": {
				"notice": "Returns the current per-block supply interest rate for this cToken"
			},
			"sweepToken(address)": {
				"notice": "A public function to sweep accidental ERC-20 transfers to this contract. Tokens are sent to admin (timelock)"
			},
			"symbol()": {
				"notice": "EIP-20 token symbol for this token"
			},
			"totalBorrows()": {
				"notice": "Total amount of outstanding borrows of the underlying in this market"
			},
			"totalBorrowsCurrent()": {
				"notice": "Returns the current total borrows plus accrued interest"
			},
			"totalReserves()": {
				"notice": "Total amount of reserves of the underlying held in this market"
			},
			"totalSupply()": {
				"notice": "Total number of tokens in circulation"
			},
			"transfer(address,uint256)": {
				"notice": "Transfer `amount` tokens from `msg.sender` to `dst`"
			},
			"transferFrom(address,address,uint256)": {
				"notice": "Transfer `amount` tokens from `src` to `dst`"
			},
			"underlying()": {
				"notice": "Underlying asset for this CToken"
			}
		},
		"notice": "CTokens which wrap an EIP-20 underlying and are immutable",
		"version": 1
	},
	"Runtime Bytecode": {
		"immutableReferences": {},
		"linkReferences": {},
		"object": "608060405234801561001057600080fd5b506004361061030c5760003560e01c80637f1e06be1161019d578063bd6d894d116100e9578063f2b3abbd116100a2578063f851a4401161007c578063f851a440146106a8578063f8f9da28146106c0578063fca7820b146106c8578063fe9c44ae146106db57600080fd5b8063f2b3abbd1461066f578063f3fdb15a14610682578063f5e3c4621461069557600080fd5b8063bd6d894d146105cd578063c37f68e2146105d5578063c5ebeaec14610608578063db006a751461061b578063dd62ed3e1461062e578063e9c714f21461066757600080fd5b8063a0712d6811610156578063aa5af0fd11610130578063aa5af0fd14610596578063ae9d70b01461059f578063b2a02ff1146105a7578063b71d1a0c146105ba57600080fd5b8063a0712d6814610568578063a6afed951461057b578063a9059cbb1461058357600080fd5b80637f1e06be1461050b578063852a12e31461051e5780638f840ddd1461053157806395d89b411461053a57806395dd91931461054257806399d8c1b41461055557600080fd5b80633af9e6691161025c578063601a0bf1116102155780636c540baf116101ef5780636c540baf146104be5780636f307dc3146104c757806370a08231146104da57806373acee981461050357600080fd5b8063601a0bf1146104955780636752e702146104a857806369ab3250146104b657600080fd5b80633af9e669146104385780633b1d21a21461044b5780633e941010146104535780634576b5db1461046657806347bd3718146104795780635fe3b5671461048257600080fd5b8063182df0f5116102c957806323b872dd116102a357806323b872dd146103c85780632608f818146103db57806326782247146103ee578063313ce5671461041957600080fd5b8063182df0f5146103985780631a31d465146103a05780631be19560146103b557600080fd5b806306fdde0314610311578063095ea7b31461032f5780630e75270214610352578063173b99041461037357806317bfdfbc1461037c57806318160ddd1461038f575b600080fd5b6103196106e3565b60405161032691906134b5565b60405180910390f35b61034261033d366004613522565b610771565b6040519015158152602001610326565b61036561036036600461354e565b6107df565b604051908152602001610326565b61036560085481565b61036561038a366004613567565b6107f2565b610365600d5481565b61036561084e565b6103b36103ae36600461363d565b61085d565b005b6103b36103c3366004613567565b6108f2565b6103426103d63660046136f3565b610abe565b6103656103e9366004613522565b610b0e565b600454610401906001600160a01b031681565b6040516001600160a01b039091168152602001610326565b6003546104269060ff1681565b60405160ff9091168152602001610326565b610365610446366004613567565b610b23565b610365610b69565b61036561046136600461354e565b610b73565b610365610474366004613567565b610b84565b610365600b5481565b600554610401906001600160a01b031681565b6103656104a336600461354e565b610cd6565b610365666379da05b6000081565b610365600081565b61036560095481565b601154610401906001600160a01b031681565b6103656104e8366004613567565b6001600160a01b03166000908152600e602052604090205490565b610365610d15565b6103b3610519366004613567565b610d5f565b61036561052c36600461354e565b610e36565b610365600c5481565b610319610e41565b610365610550366004613567565b610e4e565b6103b3610563366004613734565b610e59565b61036561057636600461354e565b6110b4565b6103656110bf565b610342610591366004613522565b6112ac565b610365600a5481565b6103656112fb565b6103656105b53660046136f3565b611393565b6103656105c8366004613567565b6113e2565b61036561146f565b6105e86105e3366004613567565b6114bf565b604080519485526020850193909352918301526060820152608001610326565b61036561061636600461354e565b611500565b61036561062936600461354e565b61150b565b61036561063c3660046137d6565b6001600160a01b039182166000908152600f6020908152604080832093909416825291909152205490565b610365611516565b61036561067d366004613567565b61161d565b600654610401906001600160a01b031681565b6103656106a336600461380f565b611631565b6003546104019061010090046001600160a01b031681565b610365611648565b6103656106d636600461354e565b61169b565b610342600181565b600180546106f090613851565b80601f016020809104026020016040519081016040528092919081815260200182805461071c90613851565b80156107695780601f1061073e57610100808354040283529160200191610769565b820191906000526020600020905b81548152906001019060200180831161074c57829003601f168201915b505050505081565b336000818152600f602090815260408083206001600160a01b03871680855292528083208590555191929182907f8c5be1e5ebec7d5bd14f71427d1e84f3dd0314c0f7b2291e5b200ac8c7c3b925906107cd9087815260200190565b60405180910390a35060019392505050565b60006107ea826116da565b506000919050565b6000805460ff1661081e5760405162461bcd60e51b81526004016108159061388c565b60405180910390fd5b6000805460ff191690556108306110bf565b5061083a82610e4e565b90506000805460ff19166001179055919050565b600061085861172b565b905090565b61086b868686868686610e59565b601180546001600160a01b0319166001600160a01b038916908117909155604080516318160ddd60e01b815290516318160ddd916004808201926020929091908290030181865afa1580156108c4573d6000803e3d6000fd5b505050506040513d601f19601f820116820180604052508101906108e891906138b0565b5050505050505050565b60035461010090046001600160a01b031633146109695760405162461bcd60e51b815260206004820152602f60248201527f4345726332303a3a7377656570546f6b656e3a206f6e6c792061646d696e206360448201526e616e20737765657020746f6b656e7360881b6064820152608401610815565b6011546001600160a01b03828116911614156109e25760405162461bcd60e51b815260206004820152603260248201527f4345726332303a3a7377656570546f6b656e3a2063616e206e6f74207377656560448201527138103ab73232b9363cb4b733903a37b5b2b760711b6064820152608401610815565b6040516370a0823160e01b81523060048201526000906001600160a01b038316906370a0823190602401602060405180830381865afa158015610a29573d6000803e3d6000fd5b505050506040513d601f19601f82011682018060405250810190610a4d91906138b0565b60035460405163a9059cbb60e01b81526001600160a01b03610100909204821660048201526024810183905291925083169063a9059cbb90604401600060405180830381600087803b158015610aa257600080fd5b505af1158015610ab6573d6000803e3d6000fd5b505050505050565b6000805460ff16610ae15760405162461bcd60e51b81526004016108159061388c565b6000805460ff19168155610af733868686611795565b1490506000805460ff191660011790559392505050565b6000610b1a83836119c3565b50600092915050565b6000806040518060200160405280610b3961146f565b90526001600160a01b0384166000908152600e6020526040902054909150610b62908290611a15565b9392505050565b6000610858611a35565b6000610b7e82611aaa565b92915050565b60035460009061010090046001600160a01b03163314610bb75760405163d219dc1f60e01b815260040160405180910390fd5b60055460408051623f1ee960e11b815290516001600160a01b0392831692851691627e3dd29160048083019260209291908290030181865afa158015610c01573d6000803e3d6000fd5b505050506040513d601f19601f82011682018060405250810190610c2591906138c9565b610c715760405162461bcd60e51b815260206004820152601c60248201527f6d61726b6572206d6574686f642072657475726e65642066616c7365000000006044820152606401610815565b600580546001600160a01b0319166001600160a01b0385811691821790925560408051928416835260208301919091527f7ac369dbd14fa5ea3f473ed67cc9d598964a77501540ba6751eb0b3decf5870d91015b60405180910390a150600092915050565b6000805460ff16610cf95760405162461bcd60e51b81526004016108159061388c565b6000805460ff19169055610d0b6110bf565b5061083a82611b01565b6000805460ff16610d385760405162461bcd60e51b81526004016108159061388c565b6000805460ff19169055610d4a6110bf565b5050600b546000805460ff1916600117905590565b60035461010090046001600160a01b03163314610dd45760405162461bcd60e51b815260206004820152602d60248201527f6f6e6c79207468652061646d696e206d6179207365742074686520636f6d702d60448201526c6c696b652064656c656761746560981b6064820152608401610815565b6011546040516317066a5760e21b81526001600160a01b03838116600483015290911690635c19a95c90602401600060405180830381600087803b158015610e1b57600080fd5b505af1158015610e2f573d6000803e3d6000fd5b5050505050565b60006107ea82611c1c565b600280546106f090613851565b6000610b7e82611c6d565b60035461010090046001600160a01b03163314610ec45760405162461bcd60e51b8152602060048201526024808201527f6f6e6c792061646d696e206d617920696e697469616c697a6520746865206d616044820152631c9ad95d60e21b6064820152608401610815565b600954158015610ed45750600a54155b610f2c5760405162461bcd60e51b815260206004820152602360248201527f6d61726b6574206d6179206f6e6c7920626520696e697469616c697a6564206f6044820152626e636560e81b6064820152608401610815565b600784905583610f975760405162461bcd60e51b815260206004820152603060248201527f696e697469616c2065786368616e67652072617465206d75737420626520677260448201526f32b0ba32b9103a3430b7103d32b9379760811b6064820152608401610815565b6000610fa287610b84565b90508015610ff25760405162461bcd60e51b815260206004820152601a60248201527f73657474696e6720636f6d7074726f6c6c6572206661696c65640000000000006044820152606401610815565b42600955670de0b6b3a7640000600a5561100b86611cb7565b905080156110665760405162461bcd60e51b815260206004820152602260248201527f73657474696e6720696e7465726573742072617465206d6f64656c206661696c604482015261195960f21b6064820152608401610815565b8351611079906001906020870190613425565b50825161108d906002906020860190613425565b50506003805460ff90921660ff199283161790556000805490911660011790555050505050565b60006107ea82611e2c565b6009546000904290808214156110d85760009250505090565b60006110e2611a35565b600b54600c54600a546006546040516315f2405360e01b81526004810186905260248101859052604481018490529495509293919290916000916001600160a01b0316906315f2405390606401602060405180830381865afa15801561114c573d6000803e3d6000fd5b505050506040513d601f19601f8201168201806040525081019061117091906138b0565b9050645d21dba0008111156111c75760405162461bcd60e51b815260206004820152601c60248201527f626f72726f772072617465206973206162737572646c792068696768000000006044820152606401610815565b60006111d38789613901565b905060006111ef60405180602001604052808581525083611e6b565b905060006111fd8288611a15565b9050600061120b8883613918565b9050600061122a6040518060200160405280600854815250848a611e9c565b9050600061123985898a611e9c565b60098e9055600a819055600b849055600c839055604080518d815260208101879052908101829052606081018590529091507f4dec04e750ca11537cabcd8a9eab06494de08da3735bc8871cd41250e190bc049060800160405180910390a160009d505050505050505050505050505090565b6000805460ff166112cf5760405162461bcd60e51b81526004016108159061388c565b6000805460ff191681556112e533808686611795565b1490506000805460ff1916600117905592915050565b6006546000906001600160a01b031663b8168816611317611a35565b600b54600c546008546040516001600160e01b031960e087901b16815260048101949094526024840192909252604483015260648201526084015b602060405180830381865afa15801561136f573d6000803e3d6000fd5b505050506040513d601f19601f8201168201806040525081019061085891906138b0565b6000805460ff166113b65760405162461bcd60e51b81526004016108159061388c565b6000805460ff191690556113cc33858585611ebd565b50600080805460ff191660011790559392505050565b60035460009061010090046001600160a01b0316331461141557604051635cb56c2b60e01b815260040160405180910390fd5b600480546001600160a01b038481166001600160a01b031983168117909355604080519190921680825260208201939093527fca4f2f25d0898edd99413412fb94012f9e54ec8142f9b093e7720646a95b16a99101610cc5565b6000805460ff166114925760405162461bcd60e51b81526004016108159061388c565b6000805460ff191690556114a46110bf565b506114ad61084e565b90506000805460ff1916600117905590565b6001600160a01b0381166000908152600e602052604081205481908190819081906114e987611c6d565b6114f161172b565b93509350935093509193509193565b60006107ea82612136565b60006107ea82612175565b6004546000906001600160a01b031633141580611531575033155b1561154f57604051631ba24f2960e21b815260040160405180910390fd5b60038054600480546001600160a01b03808216610100818102610100600160a81b0319871617968790556001600160a01b031990931690935560408051948390048216808652929095041660208401529290917ff9ffabca9c8276e99321725bcb43fb076a6c66a54b7f21c4e8146d8519b417dc910160405180910390a1600454604080516001600160a01b03808516825290921660208301527fca4f2f25d0898edd99413412fb94012f9e54ec8142f9b093e7720646a95b16a9910160405180910390a160009250505090565b60006116276110bf565b50610b7e82611cb7565b600061163e8484846121b6565b5060009392505050565b6006546000906001600160a01b03166315f24053611664611a35565b600b54600c546040516001600160e01b031960e086901b168152600481019390935260248301919091526044820152606401611352565b6000805460ff166116be5760405162461bcd60e51b81526004016108159061388c565b6000805460ff191690556116d06110bf565b5061083a82612294565b60005460ff166116fc5760405162461bcd60e51b81526004016108159061388c565b6000805460ff1916905561170e6110bf565b5061171a333383612350565b50506000805460ff19166001179055565b600d546000908061173e57505060075490565b6000611748611a35565b90506000600c54600b548361175d9190613918565b6117679190613901565b905060008361177e670de0b6b3a764000084613930565b611788919061394f565b95945050505050565b5090565b6005546040516317b9b84b60e31b81523060048201526001600160a01b038581166024830152848116604483015260648201849052600092839291169063bdcdc258906084016020604051808303816000875af11580156117fa573d6000803e3d6000fd5b505050506040513d601f19601f8201168201806040525081019061181e91906138b0565b905080156118425760405163089d427760e11b815260048101829052602401610815565b836001600160a01b0316856001600160a01b0316141561187557604051638cd22d1960e01b815260040160405180910390fd5b6000856001600160a01b0316876001600160a01b0316141561189a57506000196118c2565b506001600160a01b038086166000908152600f60209081526040808320938a16835292905220545b60006118ce8583613901565b6001600160a01b0388166000908152600e6020526040812054919250906118f6908790613901565b6001600160a01b0388166000908152600e60205260408120549192509061191e908890613918565b6001600160a01b03808b166000908152600e6020526040808220869055918b1681522081905590506000198414611978576001600160a01b03808a166000908152600f60209081526040808320938e168352929052208390555b876001600160a01b0316896001600160a01b03166000805160206139db833981519152896040516119ab91815260200190565b60405180910390a35060009998505050505050505050565b60005460ff166119e55760405162461bcd60e51b81526004016108159061388c565b6000805460ff191690556119f76110bf565b50611a03338383612350565b50506000805460ff1916600117905550565b600080611a228484611e6b565b9050611a2d816124f9565b949350505050565b6011546040516370a0823160e01b81523060048201526000916001600160a01b03169081906370a0823190602401602060405180830381865afa158015611a80573d6000803e3d6000fd5b505050506040513d601f19601f82011682018060405250810190611aa491906138b0565b91505090565b6000805460ff16611acd5760405162461bcd60e51b81526004016108159061388c565b6000805460ff19169055611adf6110bf565b50611ae982612511565b5050600090506000805460ff19166001179055919050565b600354600090819061010090046001600160a01b03163314611b3657604051630f7e5e6d60e41b815260040160405180910390fd5b4260095414611b5857604051630dff50cb60e41b815260040160405180910390fd5b82611b61611a35565b1015611b8057604051633345e99960e01b815260040160405180910390fd5b600c54831115611ba3576040516378d2980560e11b815260040160405180910390fd5b82600c54611bb19190613901565b600c819055600354909150611bd49061010090046001600160a01b0316846125a5565b7f3bad0c59cf2f06e7314077049f48a93578cd16f5ef92329f1dab1420a99c177e600360019054906101000a90046001600160a01b03168483604051610cc593929190613971565b60005460ff16611c3e5760405162461bcd60e51b81526004016108159061388c565b6000805460ff19169055611c506110bf565b50611c5d3360008361268f565b506000805460ff19166001179055565b6001600160a01b03811660009081526010602052604081208054611c945750600092915050565b600a548154600091611ca591613930565b9050816001015481611a2d919061394f565b600354600090819061010090046001600160a01b03163314611cec5760405163407fded560e01b815260040160405180910390fd5b4260095414611d0e57604051630be2a5cb60e11b815260040160405180910390fd5b600660009054906101000a90046001600160a01b03169050826001600160a01b0316632191f92a6040518163ffffffff1660e01b8152600401602060405180830381865afa158015611d64573d6000803e3d6000fd5b505050506040513d601f19601f82011682018060405250810190611d8891906138c9565b611dd45760405162461bcd60e51b815260206004820152601c60248201527f6d61726b6572206d6574686f642072657475726e65642066616c7365000000006044820152606401610815565b600680546001600160a01b0319166001600160a01b0385811691821790925560408051928416835260208301919091527fedffc32e068c7c95dfd4bdfd5c4d939a084d6b11c4199eac8436ed234d72f9269101610cc5565b60005460ff16611e4e5760405162461bcd60e51b81526004016108159061388c565b6000805460ff19169055611e606110bf565b50611c5d338261296c565b6040805160208101909152600081526040518060200160405280611e93856000015185612b95565b90529392505050565b600080611ea98585611e6b565b9050611788611eb7826124f9565b84612ba1565b60055460405163d02f735160e01b81523060048201526001600160a01b0386811660248301528581166044830152848116606483015260848201849052600092169063d02f73519060a4016020604051808303816000875af1158015611f27573d6000803e3d6000fd5b505050506040513d601f19601f82011682018060405250810190611f4b91906138b0565b90508015611f6f576040516363e00e3360e11b815260048101829052602401610815565b836001600160a01b0316836001600160a01b03161415611fa257604051633a94626760e11b815260040160405180910390fd5b6000611fc3836040518060200160405280666379da05b60000815250612bad565b90506000611fd18285613901565b905060006040518060200160405280611fe861172b565b905290506000611ff88285611a15565b9050600081600c5461200a9190613918565b600c819055600d54909150612020908690613901565b600d556001600160a01b0388166000908152600e6020526040902054612047908890613901565b6001600160a01b03808a166000908152600e602052604080822093909355908b1681522054612077908590613918565b6001600160a01b03808b166000818152600e602052604090819020939093559151908a16906000805160206139db833981519152906120b99088815260200190565b60405180910390a360405185815230906001600160a01b038a16906000805160206139db8339815191529060200160405180910390a37fa91e67c5ea634cd43a12c5a482724b03de01e85ca68702a53d0c2f45cb7c1dc530838360405161212293929190613971565b60405180910390a150505050505050505050565b60005460ff166121585760405162461bcd60e51b81526004016108159061388c565b6000805460ff1916905561216a6110bf565b50611c5d3382612bd0565b60005460ff166121975760405162461bcd60e51b81526004016108159061388c565b6000805460ff191690556121a96110bf565b50611c5d3382600061268f565b60005460ff166121d85760405162461bcd60e51b81526004016108159061388c565b6000805460ff191690556121ea6110bf565b506000816001600160a01b031663a6afed956040518163ffffffff1660e01b81526004016020604051808303816000875af115801561222d573d6000803e3d6000fd5b505050506040513d601f19601f8201168201806040525081019061225191906138b0565b9050801561227557604051633eea49b760e11b815260048101829052602401610815565b61228133858585612d6f565b50506000805460ff191660011790555050565b60035460009061010090046001600160a01b031633146122c757604051631205b57b60e11b815260040160405180910390fd5b42600954146122e957604051637dfca6b760e11b815260040160405180910390fd5b670de0b6b3a76400008211156123125760405163717220f360e11b815260040160405180910390fd5b600880549083905560408051828152602081018590527faaa68312e2ea9d50e16af5068410ab56e1a1fd06037b1a35664812c30f8214609101610cc5565b600554604051631200453160e11b81523060048201526001600160a01b03858116602483015284811660448301526064820184905260009283929116906324008a62906084016020604051808303816000875af11580156123b5573d6000803e3d6000fd5b505050506040513d601f19601f820116820180604052508101906123d991906138b0565b905080156123fd57604051638c81362d60e01b815260048101829052602401610815565b426009541461241f5760405163c9021e2f60e01b815260040160405180910390fd5b600061242a85611c6d565b90506000600019851461243d578461243f565b815b9050600061244d8883613229565b9050600061245b8285613901565b9050600082600b5461246d9190613901565b6001600160a01b038a8116600081815260106020908152604091829020878155600a54600190910155600b8590558151938f168452830191909152810185905260608101849052608081018290529091507f1a2a22cb034d26d1854bdc6666a5b91fe25efbbb5dcad3b0355478d6f5c362a19060a00160405180910390a1509098975050505050505050565b8051600090610b7e90670de0b6b3a76400009061394f565b6000808080426009541461253b576040516338acf79960e01b815260048101829052602401610815565b6125453386613229565b905080600c546125559190613918565b915081600c819055507fa91e67c5ea634cd43a12c5a482724b03de01e85ca68702a53d0c2f45cb7c1dc533828460405161259193929190613971565b60405180910390a160009590945092505050565b60115460405163a9059cbb60e01b81526001600160a01b0384811660048301526024820184905290911690819063a9059cbb90604401600060405180830381600087803b1580156125f557600080fd5b505af1158015612609573d6000803e3d6000fd5b5050505060003d60008114612625576020811461262f57600080fd5b600019915061263b565b60206000803e60005191505b50806126895760405162461bcd60e51b815260206004820152601960248201527f544f4b454e5f5452414e534645525f4f55545f4641494c4544000000000000006044820152606401610815565b50505050565b81158061269a575080155b6127035760405162461bcd60e51b815260206004820152603460248201527f6f6e65206f662072656465656d546f6b656e73496e206f722072656465656d416044820152736d6f756e74496e206d757374206265207a65726f60601b6064820152608401610815565b6000604051806020016040528061271861172b565b905290506000808415612739578491506127328386611a15565b9050612749565b6127438484613400565b91508390505b60055460405163eabe7d9160e01b81526000916001600160a01b03169063eabe7d919061277e9030908b908890600401613992565b6020604051808303816000875af115801561279d573d6000803e3d6000fd5b505050506040513d601f19601f820116820180604052508101906127c191906138b0565b905080156127e55760405163480f424760e01b815260048101829052602401610815565b4260095414612807576040516397b5cfcd60e01b815260040160405180910390fd5b81612810611a35565b101561282f576040516391240a1b60e01b815260040160405180910390fd5b82600d5461283d9190613901565b600d556001600160a01b0387166000908152600e6020526040902054612864908490613901565b6001600160a01b0388166000908152600e602052604090205561288787836125a5565b60405183815230906001600160a01b038916906000805160206139db8339815191529060200160405180910390a37fe5b754fb1abb7f01b499791d0b820ae3b6af3424ac1c59768edb53f4ec31a9298783856040516128e893929190613971565b60405180910390a16005546040516351dff98960e01b81523060048201526001600160a01b0389811660248301526044820185905260648201869052909116906351dff98990608401600060405180830381600087803b15801561294b57600080fd5b505af115801561295f573d6000803e3d6000fd5b5050505050505050505050565b600554604051634ef4c3e160e01b81526000916001600160a01b031690634ef4c3e1906129a190309087908790600401613992565b6020604051808303816000875af11580156129c0573d6000803e3d6000fd5b505050506040513d601f19601f820116820180604052508101906129e491906138b0565b90508015612a08576040516349abd4fd60e01b815260048101829052602401610815565b4260095414612a2a576040516338d8859760e01b815260040160405180910390fd5b60006040518060200160405280612a3f61172b565b905290506000612a4f8585613229565b90506000612a5d8284613400565b905080600d54612a6d9190613918565b600d556001600160a01b0386166000908152600e6020526040902054612a94908290613918565b6001600160a01b0387166000908152600e60205260409081902091909155517f4c209b5fc8ad50758f13e2e1088ba56a560dff690a1c6fef26394f4c03821c4f90612ae490889085908590613971565b60405180910390a16040518181526001600160a01b0387169030906000805160206139db8339815191529060200160405180910390a36005546040516341c728b960e01b81523060048201526001600160a01b0388811660248301526044820185905260648201849052909116906341c728b990608401600060405180830381600087803b158015612b7557600080fd5b505af1158015612b89573d6000803e3d6000fd5b50505050505050505050565b6000610b628284613930565b6000610b628284613918565b6000670de0b6b3a7640000612bc6848460000151612b95565b610b62919061394f565b60055460405163368f515360e21b81526000916001600160a01b03169063da3d454c90612c0590309087908790600401613992565b6020604051808303816000875af1158015612c24573d6000803e3d6000fd5b505050506040513d601f19601f82011682018060405250810190612c4891906138b0565b90508015612c6c5760405163918db40f60e01b815260048101829052602401610815565b4260095414612c8e57604051630e8d8c6160e21b815260040160405180910390fd5b81612c97611a35565b1015612cb6576040516348c2588160e01b815260040160405180910390fd5b6000612cc184611c6d565b90506000612ccf8483613918565b9050600084600b54612ce19190613918565b6001600160a01b0387166000908152601060205260409020838155600a54600190910155600b8190559050612d1686866125a5565b604080516001600160a01b038816815260208101879052908101839052606081018290527f13ed6866d4e1ee6da46f845c46d7e54120883d75c5ea9a2dacc1c4ca8984ab809060800160405180910390a1505050505050565b600554604051632fe3f38f60e11b81523060048201526001600160a01b03838116602483015286811660448301528581166064830152608482018590526000921690635fc7e71e9060a4016020604051808303816000875af1158015612dd9573d6000803e3d6000fd5b505050506040513d601f19601f82011682018060405250810190612dfd91906138b0565b90508015612e2157604051630a14d17960e11b815260048101829052602401610815565b4260095414612e43576040516380965b1b60e01b815260040160405180910390fd5b42826001600160a01b0316636c540baf6040518163ffffffff1660e01b8152600401602060405180830381865afa158015612e82573d6000803e3d6000fd5b505050506040513d601f19601f82011682018060405250810190612ea691906138b0565b14612ec457604051631046f38d60e31b815260040160405180910390fd5b846001600160a01b0316846001600160a01b03161415612ef757604051631bd1a62160e21b815260040160405180910390fd5b82612f155760405163d29da7ef60e01b815260040160405180910390fd5b600019831415612f3857604051635982c5bb60e11b815260040160405180910390fd5b6000612f45868686612350565b60055460405163c488847b60e01b815291925060009182916001600160a01b03169063c488847b90612f7f90309089908890600401613992565b6040805180830381865afa158015612f9b573d6000803e3d6000fd5b505050506040513d601f19601f82011682018060405250810190612fbf91906139b6565b915091506000821461302f5760405162461bcd60e51b815260206004820152603360248201527f4c49515549444154455f434f4d5054524f4c4c45525f43414c43554c4154455f604482015272105353d5539517d4d152569157d19052531151606a1b6064820152608401610815565b6040516370a0823160e01b81526001600160a01b0388811660048301528291908716906370a0823190602401602060405180830381865afa158015613078573d6000803e3d6000fd5b505050506040513d601f19601f8201168201806040525081019061309c91906138b0565b10156130ea5760405162461bcd60e51b815260206004820152601860248201527f4c49515549444154455f5345495a455f544f4f5f4d55434800000000000000006044820152606401610815565b6001600160a01b03851630141561310c5761310730898984611ebd565b6131c6565b60405163b2a02ff160e01b81526000906001600160a01b0387169063b2a02ff19061313f908c908c908790600401613992565b6020604051808303816000875af115801561315e573d6000803e3d6000fd5b505050506040513d601f19601f8201168201806040525081019061318291906138b0565b146131c65760405162461bcd60e51b81526020600482015260146024820152731d1bdad95b881cd95a5e9d5c994819985a5b195960621b6044820152606401610815565b604080516001600160a01b038a811682528981166020830152818301869052871660608201526080810183905290517f298637f684da70674f26509b10f07ec2fbc77a335ab1e7d6215a4b2484d8bb529181900360a00190a15050505050505050565b6011546040516370a0823160e01b81523060048201526000916001600160a01b0316908190839082906370a0823190602401602060405180830381865afa158015613278573d6000803e3d6000fd5b505050506040513d601f19601f8201168201806040525081019061329c91906138b0565b6040516323b872dd60e01b81529091506001600160a01b038316906323b872dd906132cf90899030908a90600401613992565b600060405180830381600087803b1580156132e957600080fd5b505af11580156132fd573d6000803e3d6000fd5b5050505060003d60008114613319576020811461332357600080fd5b600019915061332f565b60206000803e60005191505b508061337d5760405162461bcd60e51b815260206004820152601860248201527f544f4b454e5f5452414e534645525f494e5f4641494c454400000000000000006044820152606401610815565b6040516370a0823160e01b81523060048201526000906001600160a01b038616906370a0823190602401602060405180830381865afa1580156133c4573d6000803e3d6000fd5b505050506040513d601f19601f820116820180604052508101906133e891906138b0565b90506133f48382613901565b98975050505050505050565b6000610b6261341784670de0b6b3a7640000612b95565b83516000610b62828461394f565b82805461343190613851565b90600052602060002090601f0160209004810192826134535760008555613499565b82601f1061346c57805160ff1916838001178555613499565b82800160010185558215613499579182015b8281111561349957825182559160200191906001019061347e565b506117919291505b8082111561179157600081556001016134a1565b600060208083528351808285015260005b818110156134e2578581018301518582016040015282016134c6565b818111156134f4576000604083870101525b50601f01601f1916929092016040019392505050565b6001600160a01b038116811461351f57600080fd5b50565b6000806040838503121561353557600080fd5b82356135408161350a565b946020939093013593505050565b60006020828403121561356057600080fd5b5035919050565b60006020828403121561357957600080fd5b8135610b628161350a565b634e487b7160e01b600052604160045260246000fd5b600082601f8301126135ab57600080fd5b813567ffffffffffffffff808211156135c6576135c6613584565b604051601f8301601f19908116603f011681019082821181831017156135ee576135ee613584565b8160405283815286602085880101111561360757600080fd5b836020870160208301376000602085830101528094505050505092915050565b803560ff8116811461363857600080fd5b919050565b600080600080600080600060e0888a03121561365857600080fd5b87356136638161350a565b965060208801356136738161350a565b955060408801356136838161350a565b945060608801359350608088013567ffffffffffffffff808211156136a757600080fd5b6136b38b838c0161359a565b945060a08a01359150808211156136c957600080fd5b506136d68a828b0161359a565b9250506136e560c08901613627565b905092959891949750929550565b60008060006060848603121561370857600080fd5b83356137138161350a565b925060208401356137238161350a565b929592945050506040919091013590565b60008060008060008060c0878903121561374d57600080fd5b86356137588161350a565b955060208701356137688161350a565b945060408701359350606087013567ffffffffffffffff8082111561378c57600080fd5b6137988a838b0161359a565b945060808901359150808211156137ae57600080fd5b506137bb89828a0161359a565b9250506137ca60a08801613627565b90509295509295509295565b600080604083850312156137e957600080fd5b82356137f48161350a565b915060208301356138048161350a565b809150509250929050565b60008060006060848603121561382457600080fd5b833561382f8161350a565b92506020840135915060408401356138468161350a565b809150509250925092565b600181811c9082168061386557607f821691505b6020821081141561388657634e487b7160e01b600052602260045260246000fd5b50919050565b6020808252600a90820152691c994b595b9d195c995960b21b604082015260600190565b6000602082840312156138c257600080fd5b5051919050565b6000602082840312156138db57600080fd5b81518015158114610b6257600080fd5b634e487b7160e01b600052601160045260246000fd5b600082821015613913576139136138eb565b500390565b6000821982111561392b5761392b6138eb565b500190565b600081600019048311821515161561394a5761394a6138eb565b500290565b60008261396c57634e487b7160e01b600052601260045260246000fd5b500490565b6001600160a01b039390931683526020830191909152604082015260600190565b6001600160a01b039384168152919092166020820152604081019190915260600190565b600080604083850312156139c957600080fd5b50508051602090910151909290915056feddf252ad1be2c89b69c2b068fc378daa952ba7f163c4a11628f55a4df523b3efa2646970667358221220ce926571c28f011f5d216445c529432078afcdb1757e138c7b79980cad0557ec64736f6c634300080a0033",
		"opcodes": "PUSH1 0x80 PUSH1 0x40 MSTORE CALLVALUE DUP1 ISZERO PUSH2 0x10 JUMPI PUSH1 0x0 DUP1 REVERT JUMPDEST POP PUSH1 0x4 CALLDATASIZE LT PUSH2 0x30C JUMPI PUSH1 0x0 CALLDATALOAD PUSH1 0xE0 SHR DUP1 PUSH4 0x7F1E06BE GT PUSH2 0x19D JUMPI DUP1 PUSH4 0xBD6D894D GT PUSH2 0xE9 JUMPI DUP1 PUSH4 0xF2B3ABBD GT PUSH2 0xA2 JUMPI DUP1 PUSH4 0xF851A440 GT PUSH2 0x7C JUMPI DUP1 PUSH4 0xF851A440 EQ PUSH2 0x6A8 JUMPI DUP1 PUSH4 0xF8F9DA28 EQ PUSH2 0x6C0 JUMPI DUP1 PUSH4 0xFCA7820B EQ PUSH2 0x6C8 JUMPI DUP1 PUSH4 0xFE9C44AE EQ PUSH2 0x6DB JUMPI PUSH1 0x0 DUP1 REVERT JUMPDEST DUP1 PUSH4 0xF2B3ABBD EQ PUSH2 0x66F JUMPI DUP1 PUSH4 0xF3FDB15A EQ PUSH2 0x682 JUMPI DUP1 PUSH4 0xF5E3C462 EQ PUSH2 0x695 JUMPI PUSH1 0x0 DUP1 REVERT JUMPDEST DUP1 PUSH4 0xBD6D894D EQ PUSH2 0x5CD JUMPI DUP1 PUSH4 0xC37F68E2 EQ PUSH2 0x5D5 JUMPI DUP1 PUSH4 0xC5EBEAEC EQ PUSH2 0x608 JUMPI DUP1 PUSH4 0xDB006A75 EQ PUSH2 0x61B JUMPI DUP1 PUSH4 0xDD62ED3E EQ PUSH2 0x62E JUMPI DUP1 PUSH4 0xE9C714F2 EQ PUSH2 0x667 JUMPI PUSH1 0x0 DUP1 REVERT JUMPDEST DUP1 PUSH4 0xA0712D68 GT PUSH2 0x156 JUMPI DUP1 PUSH4 0xAA5AF0FD GT PUSH2 0x130 JUMPI DUP1 PUSH4 0xAA5AF0FD EQ PUSH2 0x596 JUMPI DUP1 PUSH4 0xAE9D70B0 EQ PUSH2 0x59F JUMPI DUP1 PUSH4 0xB2A02FF1 EQ PUSH2 0x5A7 JUMPI DUP1 PUSH4 0xB71D1A0C EQ PUSH2 0x5BA JUMPI PUSH1 0x0 DUP1 REVERT JUMPDEST DUP1 PUSH4 0xA0712D68 EQ PUSH2 0x568 JUMPI DUP1 PUSH4 0xA6AFED95 EQ PUSH2 0x57B JUMPI DUP1 PUSH4 0xA9059CBB EQ PUSH2 0x583 JUMPI PUSH1 0x0 DUP1 REVERT JUMPDEST DUP1 PUSH4 0x7F1E06BE EQ PUSH2 0x50B JUMPI DUP1 PUSH4 0x852A12E3 EQ PUSH2 0x51E JUMPI DUP1 PUSH4 0x8F840DDD EQ PUSH2 0x531 JUMPI DUP1 PUSH4 0x95D89B41 EQ PUSH2 0x53A JUMPI DUP1 PUSH4 0x95DD9193 EQ PUSH2 0x542 JUMPI DUP1 PUSH4 0x99D8C1B4 EQ PUSH2 0x555 JUMPI PUSH1 0x0 DUP1 REVERT JUMPDEST DUP1 PUSH4 0x3AF9E669 GT PUSH2 0x25C JUMPI DUP1 PUSH4 0x601A0BF1 GT PUSH2 0x215 JUMPI DUP1 PUSH4 0x6C540BAF GT PUSH2 0x1EF JUMPI DUP1 PUSH4 0x6C540BAF EQ PUSH2 0x4BE JUMPI DUP1 PUSH4 0x6F307DC3 EQ PUSH2 0x4C7 JUMPI DUP1 PUSH4 0x70A08231 EQ PUSH2 0x4DA JUMPI DUP1 PUSH4 0x73ACEE98 EQ PUSH2 0x503 JUMPI PUSH1 0x0 DUP1 REVERT JUMPDEST DUP1 PUSH4 0x601A0BF1 EQ PUSH2 0x495 JUMPI DUP1 PUSH4 0x6752E702 EQ PUSH2 0x4A8 JUMPI DUP1 PUSH4 0x69AB3250 EQ PUSH2 0x4B6 JUMPI PUSH1 0x0 DUP1 REVERT JUMPDEST DUP1 PUSH4 0x3AF9E669 EQ PUSH2 0x438 JUMPI DUP1 PUSH4 0x3B1D21A2 EQ PUSH2 0x44B JUMPI DUP1 PUSH4 0x3E941010 EQ PUSH2 0x453 JUMPI DUP1 PUSH4 0x4576B5DB EQ PUSH2 0x466 JUMPI DUP1 PUSH4 0x47BD3718 EQ PUSH2 0x479 JUMPI DUP1 PUSH4 0x5FE3B567 EQ PUSH2 0x482 JUMPI PUSH1 0x0 DUP1 REVERT JUMPDEST DUP1 PUSH4 0x182DF0F5 GT PUSH2 0x2C9 JUMPI DUP1 PUSH4 0x23B872DD GT PUSH2 0x2A3 JUMPI DUP1 PUSH4 0x23B872DD EQ PUSH2 0x3C8 JUMPI DUP1 PUSH4 0x2608F818 EQ PUSH2 0x3DB JUMPI DUP1 PUSH4 0x26782247 EQ PUSH2 0x3EE JUMPI DUP1 PUSH4 0x313CE567 EQ PUSH2 0x419 JUMPI PUSH1 0x0 DUP1 REVERT JUMPDEST DUP1 PUSH4 0x182DF0F5 EQ PUSH2 0x398 JUMPI DUP1 PUSH4 0x1A31D465 EQ PUSH2 0x3A0 JUMPI DUP1 PUSH4 0x1BE19560 EQ PUSH2 0x3B5 JUMPI PUSH1 0x0 DUP1 REVERT JUMPDEST DUP1 PUSH4 0x6FDDE03 EQ PUSH2 0x311 JUMPI DUP1 PUSH4 0x95EA7B3 EQ PUSH2 0x32F JUMPI DUP1 PUSH4 0xE752702 EQ PUSH2 0x352 JUMPI DUP1 PUSH4 0x173B9904 EQ PUSH2 0x373 JUMPI DUP1 PUSH4 0x17BFDFBC EQ PUSH2 0x37C JUMPI DUP1 PUSH4 0x18160DDD EQ PUSH2 0x38F JUMPI JUMPDEST PUSH1 0x0 DUP1 REVERT JUMPDEST PUSH2 0x319 PUSH2 0x6E3 JUMP JUMPDEST PUSH1 0x40 MLOAD PUSH2 0x326 SWAP2 SWAP1 PUSH2 0x34B5 JUMP JUMPDEST PUSH1 0x40 MLOAD DUP1 SWAP2 SUB SWAP1 RETURN JUMPDEST PUSH2 0x342 PUSH2 0x33D CALLDATASIZE PUSH1 0x4 PUSH2 0x3522 JUMP JUMPDEST PUSH2 0x771 JUMP JUMPDEST PUSH1 0x40 MLOAD SWAP1 ISZERO ISZERO DUP2 MSTORE PUSH1 0x20 ADD PUSH2 0x326 JUMP JUMPDEST PUSH2 0x365 PUSH2 0x360 CALLDATASIZE PUSH1 0x4 PUSH2 0x354E JUMP JUMPDEST PUSH2 0x7DF JUMP JUMPDEST PUSH1 0x40 MLOAD SWAP1 DUP2 MSTORE PUSH1 0x20 ADD PUSH2 0x326 JUMP JUMPDEST PUSH2 0x365 PUSH1 0x8 SLOAD DUP2 JUMP JUMPDEST PUSH2 0x365 PUSH2 0x38A CALLDATASIZE PUSH1 0x4 PUSH2 0x3567 JUMP JUMPDEST PUSH2 0x7F2 JUMP JUMPDEST PUSH2 0x365 PUSH1 0xD SLOAD DUP2 JUMP JUMPDEST PUSH2 0x365 PUSH2 0x84E JUMP JUMPDEST PUSH2 0x3B3 PUSH2 0x3AE CALLDATASIZE PUSH1 0x4 PUSH2 0x363D JUMP JUMPDEST PUSH2 0x85D JUMP JUMPDEST STOP JUMPDEST PUSH2 0x3B3 PUSH2 0x3C3 CALLDATASIZE PUSH1 0x4 PUSH2 0x3567 JUMP JUMPDEST PUSH2 0x8F2 JUMP JUMPDEST PUSH2 0x342 PUSH2 0x3D6 CALLDATASIZE PUSH1 0x4 PUSH2 0x36F3 JUMP JUMPDEST PUSH2 0xABE JUMP JUMPDEST PUSH2 0x365 PUSH2 0x3E9 CALLDATASIZE PUSH1 0x4 PUSH2 0x3522 JUMP JUMPDEST PUSH2 0xB0E JUMP JUMPDEST PUSH1 0x4 SLOAD PUSH2 0x401 SWAP1 PUSH1 0x1 PUSH1 0x1 PUSH1 0xA0 SHL SUB AND DUP2 JUMP JUMPDEST PUSH1 0x40 MLOAD PUSH1 0x1 PUSH1 0x1 PUSH1 0xA0 SHL SUB SWAP1 SWAP2 AND DUP2 MSTORE PUSH1 0x20 ADD PUSH2 0x326 JUMP JUMPDEST PUSH1 0x3 SLOAD PUSH2 0x426 SWAP1 PUSH1 0xFF AND DUP2 JUMP JUMPDEST PUSH1 0x40 MLOAD PUSH1 0xFF SWAP1 SWAP2 AND DUP2 MSTORE PUSH1 0x20 ADD PUSH2 0x326 JUMP JUMPDEST PUSH2 0x365 PUSH2 0x446 CALLDATASIZE PUSH1 0x4 PUSH2 0x3567 JUMP JUMPDEST PUSH2 0xB23 JUMP JUMPDEST PUSH2 0x365 PUSH2 0xB69 JUMP JUMPDEST PUSH2 0x365 PUSH2 0x461 CALLDATASIZE PUSH1 0x4 PUSH2 0x354E JUMP JUMPDEST PUSH2 0xB73 JUMP JUMPDEST PUSH2 0x365 PUSH2 0x474 CALLDATASIZE PUSH1 0x4 PUSH2 0x3567 JUMP JUMPDEST PUSH2 0xB84 JUMP JUMPDEST PUSH2 0x365 PUSH1 0xB SLOAD DUP2 JUMP JUMPDEST PUSH1 0x5 SLOAD PUSH2 0x401 SWAP1 PUSH1 0x1 PUSH1 0x1 PUSH1 0xA0 SHL SUB AND DUP2 JUMP JUMPDEST PUSH2 0x365 PUSH2 0x4A3 CALLDATASIZE PUSH1 0x4 PUSH2 0x354E JUMP JUMPDEST PUSH2 0xCD6 JUMP JUMPDEST PUSH2 0x365 PUSH7 0x6379DA05B60000 DUP2 JUMP JUMPDEST PUSH2 0x365 PUSH1 0x0 DUP2 JUMP JUMPDEST PUSH2 0x365 PUSH1 0x9 SLOAD DUP2 JUMP JUMPDEST PUSH1 0x11 SLOAD PUSH2 0x401 SWAP1 PUSH1 0x1 PUSH1 0x1 PUSH1 0xA0 SHL SUB AND DUP2 JUMP JUMPDEST PUSH2 0x365 PUSH2 0x4E8 CALLDATASIZE PUSH1 0x4 PUSH2 0x3567 JUMP JUMPDEST PUSH1 0x1 PUSH1 0x1 PUSH1 0xA0 SHL SUB AND PUSH1 0x0 SWAP1 DUP2 MSTORE PUSH1 0xE PUSH1 0x20 MSTORE PUSH1 0x40 SWAP1 KECCAK256 SLOAD SWAP1 JUMP JUMPDEST PUSH2 0x365 PUSH2 0xD15 JUMP JUMPDEST PUSH2 0x3B3 PUSH2 0x519 CALLDATASIZE PUSH1 0x4 PUSH2 0x3567 JUMP JUMPDEST PUSH2 0xD5F JUMP JUMPDEST PUSH2 0x365 PUSH2 0x52C CALLDATASIZE PUSH1 0x4 PUSH2 0x354E JUMP JUMPDEST PUSH2 0xE36 JUMP JUMPDEST PUSH2 0x365 PUSH1 0xC SLOAD DUP2 JUMP JUMPDEST PUSH2 0x319 PUSH2 0xE41 JUMP JUMPDEST PUSH2 0x365 PUSH2 0x550 CALLDATASIZE PUSH1 0x4 PUSH2 0x3567 JUMP JUMPDEST PUSH2 0xE4E JUMP JUMPDEST PUSH2 0x3B3 PUSH2 0x563 CALLDATASIZE PUSH1 0x4 PUSH2 0x3734 JUMP JUMPDEST PUSH2 0xE59 JUMP JUMPDEST PUSH2 0x365 PUSH2 0x576 CALLDATASIZE PUSH1 0x4 PUSH2 0x354E JUMP JUMPDEST PUSH2 0x10B4 JUMP JUMPDEST PUSH2 0x365 PUSH2 0x10BF JUMP JUMPDEST PUSH2 0x342 PUSH2 0x591 CALLDATASIZE PUSH1 0x4 PUSH2 0x3522 JUMP JUMPDEST PUSH2 0x12AC JUMP JUMPDEST PUSH2 0x365 PUSH1 0xA SLOAD DUP2 JUMP JUMPDEST PUSH2 0x365 PUSH2 0x12FB JUMP JUMPDEST PUSH2 0x365 PUSH2 0x5B5 CALLDATASIZE PUSH1 0x4 PUSH2 0x36F3 JUMP JUMPDEST PUSH2 0x1393 JUMP JUMPDEST PUSH2 0x365 PUSH2 0x5C8 CALLDATASIZE PUSH1 0x4 PUSH2 0x3567 JUMP JUMPDEST PUSH2 0x13E2 JUMP JUMPDEST PUSH2 0x365 PUSH2 0x146F JUMP JUMPDEST PUSH2 0x5E8 PUSH2 0x5E3 CALLDATASIZE PUSH1 0x4 PUSH2 0x3567 JUMP JUMPDEST PUSH2 0x14BF JUMP JUMPDEST PUSH1 0x40 DUP1 MLOAD SWAP5 DUP6 MSTORE PUSH1 0x20 DUP6 ADD SWAP4 SWAP1 SWAP4 MSTORE SWAP2 DUP4 ADD MSTORE PUSH1 0x60 DUP3 ADD MSTORE PUSH1 0x80 ADD PUSH2 0x326 JUMP JUMPDEST PUSH2 0x365 PUSH2 0x616 CALLDATASIZE PUSH1 0x4 PUSH2 0x354E JUMP JUMPDEST PUSH2 0x1500 JUMP JUMPDEST PUSH2 0x365 PUSH2 0x629 CALLDATASIZE PUSH1 0x4 PUSH2 0x354E JUMP JUMPDEST PUSH2 0x150B JUMP JUMPDEST PUSH2 0x365 PUSH2 0x63C CALLDATASIZE PUSH1 0x4 PUSH2 0x37D6 JUMP JUMPDEST PUSH1 0x1 PUSH1 0x1 PUSH1 0xA0 SHL SUB SWAP2 DUP3 AND PUSH1 0x0 SWAP1 DUP2 MSTORE PUSH1 0xF PUSH1 0x20 SWAP1 DUP2 MSTORE PUSH1 0x40 DUP1 DUP4 KECCAK256 SWAP4 SWAP1 SWAP5 AND DUP3 MSTORE SWAP2 SWAP1 SWAP2 MSTORE KECCAK256 SLOAD SWAP1 JUMP JUMPDEST PUSH2 0x365 PUSH2 0x1516 JUMP JUMPDEST PUSH2 0x365 PUSH2 0x67D CALLDATASIZE PUSH1 0x4 PUSH2 0x3567 JUMP JUMPDEST PUSH2 0x161D JUMP JUMPDEST PUSH1 0x6 SLOAD PUSH2 0x401 SWAP1 PUSH1 0x1 PUSH1 0x1 PUSH1 0xA0 SHL SUB AND DUP2 JUMP JUMPDEST PUSH2 0x365 PUSH2 0x6A3 CALLDATASIZE PUSH1 0x4 PUSH2 0x380F JUMP JUMPDEST PUSH2 0x1631 JUMP JUMPDEST PUSH1 0x3 SLOAD PUSH2 0x401 SWAP1 PUSH2 0x100 SWAP1 DIV PUSH1 0x1 PUSH1 0x1 PUSH1 0xA0 SHL SUB AND DUP2 JUMP JUMPDEST PUSH2 0x365 PUSH2 0x1648 JUMP JUMPDEST PUSH2 0x365 PUSH2 0x6D6 CALLDATASIZE PUSH1 0x4 PUSH2 0x354E JUMP JUMPDEST PUSH2 0x169B JUMP JUMPDEST PUSH2 0x342 PUSH1 0x1 DUP2 JUMP JUMPDEST PUSH1 0x1 DUP1 SLOAD PUSH2 0x6F0 SWAP1 PUSH2 0x3851 JUMP JUMPDEST DUP1 PUSH1 0x1F ADD PUSH1 0x20 DUP1 SWAP2 DIV MUL PUSH1 0x20 ADD PUSH1 0x40 MLOAD SWAP1 DUP2 ADD PUSH1 0x40 MSTORE DUP1 SWAP3 SWAP2 SWAP1 DUP2 DUP2 MSTORE PUSH1 0x20 ADD DUP3 DUP1 SLOAD PUSH2 0x71C SWAP1 PUSH2 0x3851 JUMP JUMPDEST DUP1 ISZERO PUSH2 0x769 JUMPI DUP1 PUSH1 0x1F LT PUSH2 0x73E JUMPI PUSH2 0x100 DUP1 DUP4 SLOAD DIV MUL DUP4 MSTORE SWAP2 PUSH1 0x20 ADD SWAP2 PUSH2 0x769 JUMP JUMPDEST DUP3 ADD SWAP2 SWAP1 PUSH1 0x0 MSTORE PUSH1 0x20 PUSH1 0x0 KECCAK256 SWAP1 JUMPDEST DUP2 SLOAD DUP2 MSTORE SWAP1 PUSH1 0x1 ADD SWAP1 PUSH1 0x20 ADD DUP1 DUP4 GT PUSH2 0x74C JUMPI DUP3 SWAP1 SUB PUSH1 0x1F AND DUP3 ADD SWAP2 JUMPDEST POP POP POP POP POP DUP2 JUMP JUMPDEST CALLER PUSH1 0x0 DUP2 DUP2 MSTORE PUSH1 0xF PUSH1 0x20 SWAP1 DUP2 MSTORE PUSH1 0x40 DUP1 DUP4 KECCAK256 PUSH1 0x1 PUSH1 0x1 PUSH1 0xA0 SHL SUB DUP8 AND DUP1 DUP6 MSTORE SWAP3 MSTORE DUP1 DUP4 KECCAK256 DUP6 SWAP1 SSTORE MLOAD SWAP2 SWAP3 SWAP2 DUP3 SWAP1 PUSH32 0x8C5BE1E5EBEC7D5BD14F71427D1E84F3DD0314C0F7B2291E5B200AC8C7C3B925 SWAP1 PUSH2 0x7CD SWAP1 DUP8 DUP2 MSTORE PUSH1 0x20 ADD SWAP1 JUMP JUMPDEST PUSH1 0x40 MLOAD DUP1 SWAP2 SUB SWAP1 LOG3 POP PUSH1 0x1 SWAP4 SWAP3 POP POP POP JUMP JUMPDEST PUSH1 0x0 PUSH2 0x7EA DUP3 PUSH2 0x16DA JUMP JUMPDEST POP PUSH1 0x0 SWAP2 SWAP1 POP JUMP JUMPDEST PUSH1 0x0 DUP1 SLOAD PUSH1 0xFF AND PUSH2 0x81E JUMPI PUSH1 0x40 MLOAD PUSH3 0x461BCD PUSH1 0xE5 SHL DUP2 MSTORE PUSH1 0x4 ADD PUSH2 0x815 SWAP1 PUSH2 0x388C JUMP JUMPDEST PUSH1 0x40 MLOAD DUP1 SWAP2 SUB SWAP1 REVERT JUMPDEST PUSH1 0x0 DUP1 SLOAD PUSH1 0xFF NOT AND SWAP1 SSTORE PUSH2 0x830 PUSH2 0x10BF JUMP JUMPDEST POP PUSH2 0x83A DUP3 PUSH2 0xE4E JUMP JUMPDEST SWAP1 POP PUSH1 0x0 DUP1 SLOAD PUSH1 0xFF NOT AND PUSH1 0x1 OR SWAP1 SSTORE SWAP2 SWAP1 POP JUMP JUMPDEST PUSH1 0x0 PUSH2 0x858 PUSH2 0x172B JUMP JUMPDEST SWAP1 POP SWAP1 JUMP JUMPDEST PUSH2 0x86B DUP7 DUP7 DUP7 DUP7 DUP7 DUP7 PUSH2 0xE59 JUMP JUMPDEST PUSH1 0x11 DUP1 SLOAD PUSH1 0x1 PUSH1 0x1 PUSH1 0xA0 SHL SUB NOT AND PUSH1 0x1 PUSH1 0x1 PUSH1 0xA0 SHL SUB DUP10 AND SWAP1 DUP2 OR SWAP1 SWAP2 SSTORE PUSH1 0x40 DUP1 MLOAD PUSH4 0x18160DDD PUSH1 0xE0 SHL DUP2 MSTORE SWAP1 MLOAD PUSH4 0x18160DDD SWAP2 PUSH1 0x4 DUP1 DUP3 ADD SWAP3 PUSH1 0x20 SWAP3 SWAP1 SWAP2 SWAP1 DUP3 SWAP1 SUB ADD DUP2 DUP7 GAS STATICCALL ISZERO DUP1 ISZERO PUSH2 0x8C4 JUMPI RETURNDATASIZE PUSH1 0x0 DUP1 RETURNDATACOPY RETURNDATASIZE PUSH1 0x0 REVERT JUMPDEST POP POP POP POP PUSH1 0x40 MLOAD RETURNDATASIZE PUSH1 0x1F NOT PUSH1 0x1F DUP3 ADD AND DUP3 ADD DUP1 PUSH1 0x40 MSTORE POP DUP2 ADD SWAP1 PUSH2 0x8E8 SWAP2 SWAP1 PUSH2 0x38B0 JUMP JUMPDEST POP POP POP POP POP POP POP POP JUMP JUMPDEST PUSH1 0x3 SLOAD PUSH2 0x100 SWAP1 DIV PUSH1 0x1 PUSH1 0x1 PUSH1 0xA0 SHL SUB AND CALLER EQ PUSH2 0x969 JUMPI PUSH1 0x40 MLOAD PUSH3 0x461BCD PUSH1 0xE5 SHL DUP2 MSTORE PUSH1 0x20 PUSH1 0x4 DUP3 ADD MSTORE PUSH1 0x2F PUSH1 0x24 DUP3 ADD MSTORE PUSH32 0x4345726332303A3A7377656570546F6B656E3A206F6E6C792061646D696E2063 PUSH1 0x44 DUP3 ADD MSTORE PUSH15 0x616E20737765657020746F6B656E73 PUSH1 0x88 SHL PUSH1 0x64 DUP3 ADD MSTORE PUSH1 0x84 ADD PUSH2 0x815 JUMP JUMPDEST PUSH1 0x11 SLOAD PUSH1 0x1 PUSH1 0x1 PUSH1 0xA0 SHL SUB DUP3 DUP2 AND SWAP2 AND EQ ISZERO PUSH2 0x9E2 JUMPI PUSH1 0x40 MLOAD PUSH3 0x461BCD PUSH1 0xE5 SHL DUP2 MSTORE PUSH1 0x20 PUSH1 0x4 DUP3 ADD MSTORE PUSH1 0x32 PUSH1 0x24 DUP3 ADD MSTORE PUSH32 0x4345726332303A3A7377656570546F6B656E3A2063616E206E6F742073776565 PUSH1 0x44 DUP3 ADD MSTORE PUSH18 0x38103AB73232B9363CB4B733903A37B5B2B7 PUSH1 0x71 SHL PUSH1 0x64 DUP3 ADD MSTORE PUSH1 0x84 ADD PUSH2 0x815 JUMP JUMPDEST PUSH1 0x40 MLOAD PUSH4 0x70A08231 PUSH1 0xE0 SHL DUP2 MSTORE ADDRESS PUSH1 0x4 DUP3 ADD MSTORE PUSH1 0x0 SWAP1 PUSH1 0x1 PUSH1 0x1 PUSH1 0xA0 SHL SUB DUP4 AND SWAP1 PUSH4 0x70A08231 SWAP1 PUSH1 0x24 ADD PUSH1 0x20 PUSH1 0x40 MLOAD DUP1 DUP4 SUB DUP2 DUP7 GAS STATICCALL ISZERO DUP1 ISZERO PUSH2 0xA29 JUMPI RETURNDATASIZE PUSH1 0x0 DUP1 RETURNDATACOPY RETURNDATASIZE PUSH1 0x0 REVERT JUMPDEST POP POP POP POP PUSH1 0x40 MLOAD RETURNDATASIZE PUSH1 0x1F NOT PUSH1 0x1F DUP3 ADD AND DUP3 ADD DUP1 PUSH1 0x40 MSTORE POP DUP2 ADD SWAP1 PUSH2 0xA4D SWAP2 SWAP1 PUSH2 0x38B0 JUMP JUMPDEST PUSH1 0x3 SLOAD PUSH1 0x40 MLOAD PUSH4 0xA9059CBB PUSH1 0xE0 SHL DUP2 MSTORE PUSH1 0x1 PUSH1 0x1 PUSH1 0xA0 SHL SUB PUSH2 0x100 SWAP1 SWAP3 DIV DUP3 AND PUSH1 0x4 DUP3 ADD MSTORE PUSH1 0x24 DUP2 ADD DUP4 SWAP1 MSTORE SWAP2 SWAP3 POP DUP4 AND SWAP1 PUSH4 0xA9059CBB SWAP1 PUSH1 0x44 ADD PUSH1 0x0 PUSH1 0x40 MLOAD DUP1 DUP4 SUB DUP2 PUSH1 0x0 DUP8 DUP1 EXTCODESIZE ISZERO DUP1 ISZERO PUSH2 0xAA2 JUMPI PUSH1 0x0 DUP1 REVERT JUMPDEST POP GAS CALL ISZERO DUP1 ISZERO PUSH2 0xAB6 JUMPI RETURNDATASIZE PUSH1 0x0 DUP1 RETURNDATACOPY RETURNDATASIZE PUSH1 0x0 REVERT JUMPDEST POP POP POP POP POP POP JUMP JUMPDEST PUSH1 0x0 DUP1 SLOAD PUSH1 0xFF AND PUSH2 0xAE1 JUMPI PUSH1 0x40 MLOAD PUSH3 0x461BCD PUSH1 0xE5 SHL DUP2 MSTORE PUSH1 0x4 ADD PUSH2 0x815 SWAP1 PUSH2 0x388C JUMP JUMPDEST PUSH1 0x0 DUP1 SLOAD PUSH1 0xFF NOT AND DUP2 SSTORE PUSH2 0xAF7 CALLER DUP7 DUP7 DUP7 PUSH2 0x1795 JUMP JUMPDEST EQ SWAP1 POP PUSH1 0x0 DUP1 SLOAD PUSH1 0xFF NOT AND PUSH1 0x1 OR SWAP1 SSTORE SWAP4 SWAP3 POP POP POP JUMP JUMPDEST PUSH1 0x0 PUSH2 0xB1A DUP4 DUP4 PUSH2 0x19C3 JUMP JUMPDEST POP PUSH1 0x0 SWAP3 SWAP2 POP POP JUMP JUMPDEST PUSH1 0x0 DUP1 PUSH1 0x40 MLOAD DUP1 PUSH1 0x20 ADD PUSH1 0x40 MSTORE DUP1 PUSH2 0xB39 PUSH2 0x146F JUMP JUMPDEST SWAP1 MSTORE PUSH1 0x1 PUSH1 0x1 PUSH1 0xA0 SHL SUB DUP5 AND PUSH1 0x0 SWAP1 DUP2 MSTORE PUSH1 0xE PUSH1 0x20 MSTORE PUSH1 0x40 SWAP1 KECCAK256 SLOAD SWAP1 SWAP2 POP PUSH2 0xB62 SWAP1 DUP3 SWAP1 PUSH2 0x1A15 JUMP JUMPDEST SWAP4 SWAP3 POP POP POP JUMP JUMPDEST PUSH1 0x0 PUSH2 0x858 PUSH2 0x1A35 JUMP JUMPDEST PUSH1 0x0 PUSH2 0xB7E DUP3 PUSH2 0x1AAA JUMP JUMPDEST SWAP3 SWAP2 POP POP JUMP JUMPDEST PUSH1 0x3 SLOAD PUSH1 0x0 SWAP1 PUSH2 0x100 SWAP1 DIV PUSH1 0x1 PUSH1 0x1 PUSH1 0xA0 SHL SUB AND CALLER EQ PUSH2 0xBB7 JUMPI PUSH1 0x40 MLOAD PUSH4 0xD219DC1F PUSH1 0xE0 SHL DUP2 MSTORE PUSH1 0x4 ADD PUSH1 0x40 MLOAD DUP1 SWAP2 SUB SWAP1 REVERT JUMPDEST PUSH1 0x5 SLOAD PUSH1 0x40 DUP1 MLOAD PUSH3 0x3F1EE9 PUSH1 0xE1 SHL DUP2 MSTORE SWAP1 MLOAD PUSH1 0x1 PUSH1 0x1 PUSH1 0xA0 SHL SUB SWAP3 DUP4 AND SWAP3 DUP6 AND SWAP2 PUSH3 0x7E3DD2 SWAP2 PUSH1 0x4 DUP1 DUP4 ADD SWAP3 PUSH1 0x20 SWAP3 SWAP2 SWAP1 DUP3 SWAP1 SUB ADD DUP2 DUP7 GAS STATICCALL ISZERO DUP1 ISZERO PUSH2 0xC01 JUMPI RETURNDATASIZE PUSH1 0x0 DUP1 RETURNDATACOPY RETURNDATASIZE PUSH1 0x0 REVERT JUMPDEST POP POP POP POP PUSH1 0x40 MLOAD RETURNDATASIZE PUSH1 0x1F NOT PUSH1 0x1F DUP3 ADD AND DUP3 ADD DUP1 PUSH1 0x40 MSTORE POP DUP2 ADD SWAP1 PUSH2 0xC25 SWAP2 SWAP1 PUSH2 0x38C9 JUMP JUMPDEST PUSH2 0xC71 JUMPI PUSH1 0x40 MLOAD PUSH3 0x461BCD PUSH1 0xE5 SHL DUP2 MSTORE PUSH1 0x20 PUSH1 0x4 DUP3 ADD MSTORE PUSH1 0x1C PUSH1 0x24 DUP3 ADD MSTORE PUSH32 0x6D61726B6572206D6574686F642072657475726E65642066616C736500000000 PUSH1 0x44 DUP3 ADD MSTORE PUSH1 0x64 ADD PUSH2 0x815 JUMP JUMPDEST PUSH1 0x5 DUP1 SLOAD PUSH1 0x1 PUSH1 0x1 PUSH1 0xA0 SHL SUB NOT AND PUSH1 0x1 PUSH1 0x1 PUSH1 0xA0 SHL SUB DUP6 DUP2 AND SWAP2 DUP3 OR SWAP1 SWAP3 SSTORE PUSH1 0x40 DUP1 MLOAD SWAP3 DUP5 AND DUP4 MSTORE PUSH1 0x20 DUP4 ADD SWAP2 SWAP1 SWAP2 MSTORE PUSH32 0x7AC369DBD14FA5EA3F473ED67CC9D598964A77501540BA6751EB0B3DECF5870D SWAP2 ADD JUMPDEST PUSH1 0x40 MLOAD DUP1 SWAP2 SUB SWAP1 LOG1 POP PUSH1 0x0 SWAP3 SWAP2 POP POP JUMP JUMPDEST PUSH1 0x0 DUP1 SLOAD PUSH1 0xFF AND PUSH2 0xCF9 JUMPI PUSH1 0x40 MLOAD PUSH3 0x461BCD PUSH1 0xE5 SHL DUP2 MSTORE PUSH1 0x4 ADD PUSH2 0x815 SWAP1 PUSH2 0x388C JUMP JUMPDEST PUSH1 0x0 DUP1 SLOAD PUSH1 0xFF NOT AND SWAP1 SSTORE PUSH2 0xD0B PUSH2 0x10BF JUMP JUMPDEST POP PUSH2 0x83A DUP3 PUSH2 0x1B01 JUMP JUMPDEST PUSH1 0x0 DUP1 SLOAD PUSH1 0xFF AND PUSH2 0xD38 JUMPI PUSH1 0x40 MLOAD PUSH3 0x461BCD PUSH1 0xE5 SHL DUP2 MSTORE PUSH1 0x4 ADD PUSH2 0x815 SWAP1 PUSH2 0x388C JUMP JUMPDEST PUSH1 0x0 DUP1 SLOAD PUSH1 0xFF NOT AND SWAP1 SSTORE PUSH2 0xD4A PUSH2 0x10BF JUMP JUMPDEST POP POP PUSH1 0xB SLOAD PUSH1 0x0 DUP1 SLOAD PUSH1 0xFF NOT AND PUSH1 0x1 OR SWAP1 SSTORE SWAP1 JUMP JUMPDEST PUSH1 0x3 SLOAD PUSH2 0x100 SWAP1 DIV PUSH1 0x1 PUSH1 0x1 PUSH1 0xA0 SHL SUB AND CALLER EQ PUSH2 0xDD4 JUMPI PUSH1 0x40 MLOAD PUSH3 0x461BCD PUSH1 0xE5 SHL DUP2 MSTORE PUSH1 0x20 PUSH1 0x4 DUP3 ADD MSTORE PUSH1 0x2D PUSH1 0x24 DUP3 ADD MSTORE PUSH32 0x6F6E6C79207468652061646D696E206D6179207365742074686520636F6D702D PUSH1 0x44 DUP3 ADD MSTORE PUSH13 0x6C696B652064656C6567617465 PUSH1 0x98 SHL PUSH1 0x64 DUP3 ADD MSTORE PUSH1 0x84 ADD PUSH2 0x815 JUMP JUMPDEST PUSH1 0x11 SLOAD PUSH1 0x40 MLOAD PUSH4 0x17066A57 PUSH1 0xE2 SHL DUP2 MSTORE PUSH1 0x1 PUSH1 0x1 PUSH1 0xA0 SHL SUB DUP4 DUP2 AND PUSH1 0x4 DUP4 ADD MSTORE SWAP1 SWAP2 AND SWAP1 PUSH4 0x5C19A95C SWAP1 PUSH1 0x24 ADD PUSH1 0x0 PUSH1 0x40 MLOAD DUP1 DUP4 SUB DUP2 PUSH1 0x0 DUP8 DUP1 EXTCODESIZE ISZERO DUP1 ISZERO PUSH2 0xE1B JUMPI PUSH1 0x0 DUP1 REVERT JUMPDEST POP GAS CALL ISZERO DUP1 ISZERO PUSH2 0xE2F JUMPI RETURNDATASIZE PUSH1 0x0 DUP1 RETURNDATACOPY RETURNDATASIZE PUSH1 0x0 REVERT JUMPDEST POP POP POP POP POP JUMP JUMPDEST PUSH1 0x0 PUSH2 0x7EA DUP3 PUSH2 0x1C1C JUMP JUMPDEST PUSH1 0x2 DUP1 SLOAD PUSH2 0x6F0 SWAP1 PUSH2 0x3851 JUMP JUMPDEST PUSH1 0x0 PUSH2 0xB7E DUP3 PUSH2 0x1C6D JUMP JUMPDEST PUSH1 0x3 SLOAD PUSH2 0x100 SWAP1 DIV PUSH1 0x1 PUSH1 0x1 PUSH1 0xA0 SHL SUB AND CALLER EQ PUSH2 0xEC4 JUMPI PUSH1 0x40 MLOAD PUSH3 0x461BCD PUSH1 0xE5 SHL DUP2 MSTORE PUSH1 0x20 PUSH1 0x4 DUP3 ADD MSTORE PUSH1 0x24 DUP1 DUP3 ADD MSTORE PUSH32 0x6F6E6C792061646D696E206D617920696E697469616C697A6520746865206D61 PUSH1 0x44 DUP3 ADD MSTORE PUSH4 0x1C9AD95D PUSH1 0xE2 SHL PUSH1 0x64 DUP3 ADD MSTORE PUSH1 0x84 ADD PUSH2 0x815 JUMP JUMPDEST PUSH1 0x9 SLOAD ISZERO DUP1 ISZERO PUSH2 0xED4 JUMPI POP PUSH1 0xA SLOAD ISZERO JUMPDEST PUSH2 0xF2C JUMPI PUSH1 0x40 MLOAD PUSH3 0x461BCD PUSH1 0xE5 SHL DUP2 MSTORE PUSH1 0x20 PUSH1 0x4 DUP3 ADD MSTORE PUSH1 0x23 PUSH1 0x24 DUP3 ADD MSTORE PUSH32 0x6D61726B6574206D6179206F6E6C7920626520696E697469616C697A6564206F PUSH1 0x44 DUP3 ADD MSTORE PUSH3 0x6E6365 PUSH1 0xE8 SHL PUSH1 0x64 DUP3 ADD MSTORE PUSH1 0x84 ADD PUSH2 0x815 JUMP JUMPDEST PUSH1 0x7 DUP5 SWAP1 SSTORE DUP4 PUSH2 0xF97 JUMPI PUSH1 0x40 MLOAD PUSH3 0x461BCD PUSH1 0xE5 SHL DUP2 MSTORE PUSH1 0x20 PUSH1 0x4 DUP3 ADD MSTORE PUSH1 0x30 PUSH1 0x24 DUP3 ADD MSTORE PUSH32 0x696E697469616C2065786368616E67652072617465206D757374206265206772 PUSH1 0x44 DUP3 ADD MSTORE PUSH16 0x32B0BA32B9103A3430B7103D32B93797 PUSH1 0x81 SHL PUSH1 0x64 DUP3 ADD MSTORE PUSH1 0x84 ADD PUSH2 0x815 JUMP JUMPDEST PUSH1 0x0 PUSH2 0xFA2 DUP8 PUSH2 0xB84 JUMP JUMPDEST SWAP1 POP DUP1 ISZERO PUSH2 0xFF2 JUMPI PUSH1 0x40 MLOAD PUSH3 0x461BCD PUSH1 0xE5 SHL DUP2 MSTORE PUSH1 0x20 PUSH1 0x4 DUP3 ADD MSTORE PUSH1 0x1A PUSH1 0x24 DUP3 ADD MSTORE PUSH32 0x73657474696E6720636F6D7074726F6C6C6572206661696C6564000000000000 PUSH1 0x44 DUP3 ADD MSTORE PUSH1 0x64 ADD PUSH2 0x815 JUMP JUMPDEST TIMESTAMP PUSH1 0x9 SSTORE PUSH8 0xDE0B6B3A7640000 PUSH1 0xA SSTORE PUSH2 0x100B DUP7 PUSH2 0x1CB7 JUMP JUMPDEST SWAP1 POP DUP1 ISZERO PUSH2 0x1066 JUMPI PUSH1 0x40 MLOAD PUSH3 0x461BCD PUSH1 0xE5 SHL DUP2 MSTORE PUSH1 0x20 PUSH1 0x4 DUP3 ADD MSTORE PUSH1 0x22 PUSH1 0x24 DUP3 ADD MSTORE PUSH32 0x73657474696E6720696E7465726573742072617465206D6F64656C206661696C PUSH1 0x44 DUP3 ADD MSTORE PUSH2 0x1959 PUSH1 0xF2 SHL PUSH1 0x64 DUP3 ADD MSTORE PUSH1 0x84 ADD PUSH2 0x815 JUMP JUMPDEST DUP4 MLOAD PUSH2 0x1079 SWAP1 PUSH1 0x1 SWAP1 PUSH1 0x20 DUP8 ADD SWAP1 PUSH2 0x3425 JUMP JUMPDEST POP DUP3 MLOAD PUSH2 0x108D SWAP1 PUSH1 0x2 SWAP1 PUSH1 0x20 DUP7 ADD SWAP1 PUSH2 0x3425 JUMP JUMPDEST POP POP PUSH1 0x3 DUP1 SLOAD PUSH1 0xFF SWAP1 SWAP3 AND PUSH1 0xFF NOT SWAP3 DUP4 AND OR SWAP1 SSTORE PUSH1 0x0 DUP1 SLOAD SWAP1 SWAP2 AND PUSH1 0x1 OR SWAP1 SSTORE POP POP POP POP POP JUMP JUMPDEST PUSH1 0x0 PUSH2 0x7EA DUP3 PUSH2 0x1E2C JUMP JUMPDEST PUSH1 0x9 SLOAD PUSH1 0x0 SWAP1 TIMESTAMP SWAP1 DUP1 DUP3 EQ ISZERO PUSH2 0x10D8 JUMPI PUSH1 0x0 SWAP3 POP POP POP SWAP1 JUMP JUMPDEST PUSH1 0x0 PUSH2 0x10E2 PUSH2 0x1A35 JUMP JUMPDEST PUSH1 0xB SLOAD PUSH1 0xC SLOAD PUSH1 0xA SLOAD PUSH1 0x6 SLOAD PUSH1 0x40 MLOAD PUSH4 0x15F24053 PUSH1 0xE0 SHL DUP2 MSTORE PUSH1 0x4 DUP2 ADD DUP7 SWAP1 MSTORE PUSH1 0x24 DUP2 ADD DUP6 SWAP1 MSTORE PUSH1 0x44 DUP2 ADD DUP5 SWAP1 MSTORE SWAP5 SWAP6 POP SWAP3 SWAP4 SWAP2 SWAP3 SWAP1 SWAP2 PUSH1 0x0 SWAP2 PUSH1 0x1 PUSH1 0x1 PUSH1 0xA0 SHL SUB AND SWAP1 PUSH4 0x15F24053 SWAP1 PUSH1 0x64 ADD PUSH1 0x20 PUSH1 0x40 MLOAD DUP1 DUP4 SUB DUP2 DUP7 GAS STATICCALL ISZERO DUP1 ISZERO PUSH2 0x114C JUMPI RETURNDATASIZE PUSH1 0x0 DUP1 RETURNDATACOPY RETURNDATASIZE PUSH1 0x0 REVERT JUMPDEST POP POP POP POP PUSH1 0x40 MLOAD RETURNDATASIZE PUSH1 0x1F NOT PUSH1 0x1F DUP3 ADD AND DUP3 ADD DUP1 PUSH1 0x40 MSTORE POP DUP2 ADD SWAP1 PUSH2 0x1170 SWAP2 SWAP1 PUSH2 0x38B0 JUMP JUMPDEST SWAP1 POP PUSH5 0x5D21DBA000 DUP2 GT ISZERO PUSH2 0x11C7 JUMPI PUSH1 0x40 MLOAD PUSH3 0x461BCD PUSH1 0xE5 SHL DUP2 MSTORE PUSH1 0x20 PUSH1 0x4 DUP3 ADD MSTORE PUSH1 0x1C PUSH1 0x24 DUP3 ADD MSTORE PUSH32 0x626F72726F772072617465206973206162737572646C79206869676800000000 PUSH1 0x44 DUP3 ADD MSTORE PUSH1 0x64 ADD PUSH2 0x815 JUMP JUMPDEST PUSH1 0x0 PUSH2 0x11D3 DUP8 DUP10 PUSH2 0x3901 JUMP JUMPDEST SWAP1 POP PUSH1 0x0 PUSH2 0x11EF PUSH1 0x40 MLOAD DUP1 PUSH1 0x20 ADD PUSH1 0x40 MSTORE DUP1 DUP6 DUP2 MSTORE POP DUP4 PUSH2 0x1E6B JUMP JUMPDEST SWAP1 POP PUSH1 0x0 PUSH2 0x11FD DUP3 DUP9 PUSH2 0x1A15 JUMP JUMPDEST SWAP1 POP PUSH1 0x0 PUSH2 0x120B DUP9 DUP4 PUSH2 0x3918 JUMP JUMPDEST SWAP1 POP PUSH1 0x0 PUSH2 0x122A PUSH1 0x40 MLOAD DUP1 PUSH1 0x20 ADD PUSH1 0x40 MSTORE DUP1 PUSH1 0x8 SLOAD DUP2 MSTORE POP DUP5 DUP11 PUSH2 0x1E9C JUMP JUMPDEST SWAP1 POP PUSH1 0x0 PUSH2 0x1239 DUP6 DUP10 DUP11 PUSH2 0x1E9C JUMP JUMPDEST PUSH1 0x9 DUP15 SWAP1 SSTORE PUSH1 0xA DUP2 SWAP1 SSTORE PUSH1 0xB DUP5 SWAP1 SSTORE PUSH1 0xC DUP4 SWAP1 SSTORE PUSH1 0x40 DUP1 MLOAD DUP14 DUP2 MSTORE PUSH1 0x20 DUP2 ADD DUP8 SWAP1 MSTORE SWAP1 DUP2 ADD DUP3 SWAP1 MSTORE PUSH1 0x60 DUP2 ADD DUP6 SWAP1 MSTORE SWAP1 SWAP2 POP PUSH32 0x4DEC04E750CA11537CABCD8A9EAB06494DE08DA3735BC8871CD41250E190BC04 SWAP1 PUSH1 0x80 ADD PUSH1 0x40 MLOAD DUP1 SWAP2 SUB SWAP1 LOG1 PUSH1 0x0 SWAP14 POP POP POP POP POP POP POP POP POP POP POP POP POP POP SWAP1 JUMP JUMPDEST PUSH1 0x0 DUP1 SLOAD PUSH1 0xFF AND PUSH2 0x12CF JUMPI PUSH1 0x40 MLOAD PUSH3 0x461BCD PUSH1 0xE5 SHL DUP2 MSTORE PUSH1 0x4 ADD PUSH2 0x815 SWAP1 PUSH2 0x388C JUMP JUMPDEST PUSH1 0x0 DUP1 SLOAD PUSH1 0xFF NOT AND DUP2 SSTORE PUSH2 0x12E5 CALLER DUP1 DUP7 DUP7 PUSH2 0x1795 JUMP JUMPDEST EQ SWAP1 POP PUSH1 0x0 DUP1 SLOAD PUSH1 0xFF NOT AND PUSH1 0x1 OR SWAP1 SSTORE SWAP3 SWAP2 POP POP JUMP JUMPDEST PUSH1 0x6 SLOAD PUSH1 0x0 SWAP1 PUSH1 0x1 PUSH1 0x1 PUSH1 0xA0 SHL SUB AND PUSH4 0xB8168816 PUSH2 0x1317 PUSH2 0x1A35 JUMP JUMPDEST PUSH1 0xB SLOAD PUSH1 0xC SLOAD PUSH1 0x8 SLOAD PUSH1 0x40 MLOAD PUSH1 0x1 PUSH1 0x1 PUSH1 0xE0 SHL SUB NOT PUSH1 0xE0 DUP8 SWAP1 SHL AND DUP2 MSTORE PUSH1 0x4 DUP2 ADD SWAP5 SWAP1 SWAP5 MSTORE PUSH1 0x24 DUP5 ADD SWAP3 SWAP1 SWAP3 MSTORE PUSH1 0x44 DUP4 ADD MSTORE PUSH1 0x64 DUP3 ADD MSTORE PUSH1 0x84 ADD JUMPDEST PUSH1 0x20 PUSH1 0x40 MLOAD DUP1 DUP4 SUB DUP2 DUP7 GAS STATICCALL ISZERO DUP1 ISZERO PUSH2 0x136F JUMPI RETURNDATASIZE PUSH1 0x0 DUP1 RETURNDATACOPY RETURNDATASIZE PUSH1 0x0 REVERT JUMPDEST POP POP POP POP PUSH1 0x40 MLOAD RETURNDATASIZE PUSH1 0x1F NOT PUSH1 0x1F DUP3 ADD AND DUP3 ADD DUP1 PUSH1 0x40 MSTORE POP DUP2 ADD SWAP1 PUSH2 0x858 SWAP2 SWAP1 PUSH2 0x38B0 JUMP JUMPDEST PUSH1 0x0 DUP1 SLOAD PUSH1 0xFF AND PUSH2 0x13B6 JUMPI PUSH1 0x40 MLOAD PUSH3 0x461BCD PUSH1 0xE5 SHL DUP2 MSTORE PUSH1 0x4 ADD PUSH2 0x815 SWAP1 PUSH2 0x388C JUMP JUMPDEST PUSH1 0x0 DUP1 SLOAD PUSH1 0xFF NOT AND SWAP1 SSTORE PUSH2 0x13CC CALLER DUP6 DUP6 DUP6 PUSH2 0x1EBD JUMP JUMPDEST POP PUSH1 0x0 DUP1 DUP1 SLOAD PUSH1 0xFF NOT AND PUSH1 0x1 OR SWAP1 SSTORE SWAP4 SWAP3 POP POP POP JUMP JUMPDEST PUSH1 0x3 SLOAD PUSH1 0x0 SWAP1 PUSH2 0x100 SWAP1 DIV PUSH1 0x1 PUSH1 0x1 PUSH1 0xA0 SHL SUB AND CALLER EQ PUSH2 0x1415 JUMPI PUSH1 0x40 MLOAD PUSH4 0x5CB56C2B PUSH1 0xE0 SHL DUP2 MSTORE PUSH1 0x4 ADD PUSH1 0x40 MLOAD DUP1 SWAP2 SUB SWAP1 REVERT JUMPDEST PUSH1 0x4 DUP1 SLOAD PUSH1 0x1 PUSH1 0x1 PUSH1 0xA0 SHL SUB DUP5 DUP2 AND PUSH1 0x1 PUSH1 0x1 PUSH1 0xA0 SHL SUB NOT DUP4 AND DUP2 OR SWAP1 SWAP4 SSTORE PUSH1 0x40 DUP1 MLOAD SWAP2 SWAP1 SWAP3 AND DUP1 DUP3 MSTORE PUSH1 0x20 DUP3 ADD SWAP4 SWAP1 SWAP4 MSTORE PUSH32 0xCA4F2F25D0898EDD99413412FB94012F9E54EC8142F9B093E7720646A95B16A9 SWAP2 ADD PUSH2 0xCC5 JUMP JUMPDEST PUSH1 0x0 DUP1 SLOAD PUSH1 0xFF AND PUSH2 0x1492 JUMPI PUSH1 0x40 MLOAD PUSH3 0x461BCD PUSH1 0xE5 SHL DUP2 MSTORE PUSH1 0x4 ADD PUSH2 0x815 SWAP1 PUSH2 0x388C JUMP JUMPDEST PUSH1 0x0 DUP1 SLOAD PUSH1 0xFF NOT AND SWAP1 SSTORE PUSH2 0x14A4 PUSH2 0x10BF JUMP JUMPDEST POP PUSH2 0x14AD PUSH2 0x84E JUMP JUMPDEST SWAP1 POP PUSH1 0x0 DUP1 SLOAD PUSH1 0xFF NOT AND PUSH1 0x1 OR SWAP1 SSTORE SWAP1 JUMP JUMPDEST PUSH1 0x1 PUSH1 0x1 PUSH1 0xA0 SHL SUB DUP2 AND PUSH1 0x0 SWAP1 DUP2 MSTORE PUSH1 0xE PUSH1 0x20 MSTORE PUSH1 0x40 DUP2 KECCAK256 SLOAD DUP2 SWAP1 DUP2 SWAP1 DUP2 SWAP1 DUP2 SWAP1 PUSH2 0x14E9 DUP8 PUSH2 0x1C6D JUMP JUMPDEST PUSH2 0x14F1 PUSH2 0x172B JUMP JUMPDEST SWAP4 POP SWAP4 POP SWAP4 POP SWAP4 POP SWAP2 SWAP4 POP SWAP2 SWAP4 JUMP JUMPDEST PUSH1 0x0 PUSH2 0x7EA DUP3 PUSH2 0x2136 JUMP JUMPDEST PUSH1 0x0 PUSH2 0x7EA DUP3 PUSH2 0x2175 JUMP JUMPDEST PUSH1 0x4 SLOAD PUSH1 0x0 SWAP1 PUSH1 0x1 PUSH1 0x1 PUSH1 0xA0 SHL SUB AND CALLER EQ ISZERO DUP1 PUSH2 0x1531 JUMPI POP CALLER ISZERO JUMPDEST ISZERO PUSH2 0x154F JUMPI PUSH1 0x40 MLOAD PUSH4 0x1BA24F29 PUSH1 0xE2 SHL DUP2 MSTORE PUSH1 0x4 ADD PUSH1 0x40 MLOAD DUP1 SWAP2 SUB SWAP1 REVERT JUMPDEST PUSH1 0x3 DUP1 SLOAD PUSH1 0x4 DUP1 SLOAD PUSH1 0x1 PUSH1 0x1 PUSH1 0xA0 SHL SUB DUP1 DUP3 AND PUSH2 0x100 DUP2 DUP2 MUL PUSH2 0x100 PUSH1 0x1 PUSH1 0xA8 SHL SUB NOT DUP8 AND OR SWAP7 DUP8 SWAP1 SSTORE PUSH1 0x1 PUSH1 0x1 PUSH1 0xA0 SHL SUB NOT SWAP1 SWAP4 AND SWAP1 SWAP4 SSTORE PUSH1 0x40 DUP1 MLOAD SWAP5 DUP4 SWAP1 DIV DUP3 AND DUP1 DUP7 MSTORE SWAP3 SWAP1 SWAP6 DIV AND PUSH1 0x20 DUP5 ADD MSTORE SWAP3 SWAP1 SWAP2 PUSH32 0xF9FFABCA9C8276E99321725BCB43FB076A6C66A54B7F21C4E8146D8519B417DC SWAP2 ADD PUSH1 0x40 MLOAD DUP1 SWAP2 SUB SWAP1 LOG1 PUSH1 0x4 SLOAD PUSH1 0x40 DUP1 MLOAD PUSH1 0x1 PUSH1 0x1 PUSH1 0xA0 SHL SUB DUP1 DUP6 AND DUP3 MSTORE SWAP1 SWAP3 AND PUSH1 0x20 DUP4 ADD MSTORE PUSH32 0xCA4F2F25D0898EDD99413412FB94012F9E54EC8142F9B093E7720646A95B16A9 SWAP2 ADD PUSH1 0x40 MLOAD DUP1 SWAP2 SUB SWAP1 LOG1 PUSH1 0x0 SWAP3 POP POP POP SWAP1 JUMP JUMPDEST PUSH1 0x0 PUSH2 0x1627 PUSH2 0x10BF JUMP JUMPDEST POP PUSH2 0xB7E DUP3 PUSH2 0x1CB7 JUMP JUMPDEST PUSH1 0x0 PUSH2 0x163E DUP5 DUP5 DUP5 PUSH2 0x21B6 JUMP JUMPDEST POP PUSH1 0x0 SWAP4 SWAP3 POP POP POP JUMP JUMPDEST PUSH1 0x6 SLOAD PUSH1 0x0 SWAP1 PUSH1 0x1 PUSH1 0x1 PUSH1 0xA0 SHL SUB AND PUSH4 0x15F24053 PUSH2 0x1664 PUSH2 0x1A35 JUMP JUMPDEST PUSH1 0xB SLOAD PUSH1 0xC SLOAD PUSH1 0x40 MLOAD PUSH1 0x1 PUSH1 0x1 PUSH1 0xE0 SHL SUB NOT PUSH1 0xE0 DUP7 SWAP1 SHL AND DUP2 MSTORE PUSH1 0x4 DUP2 ADD SWAP4 SWAP1 SWAP4 MSTORE PUSH1 0x24 DUP4 ADD SWAP2 SWAP1 SWAP2 MSTORE PUSH1 0x44 DUP3 ADD MSTORE PUSH1 0x64 ADD PUSH2 0x1352 JUMP JUMPDEST PUSH1 0x0 DUP1 SLOAD PUSH1 0xFF AND PUSH2 0x16BE JUMPI PUSH1 0x40 MLOAD PUSH3 0x461BCD PUSH1 0xE5 SHL DUP2 MSTORE PUSH1 0x4 ADD PUSH2 0x815 SWAP1 PUSH2 0x388C JUMP JUMPDEST PUSH1 0x0 DUP1 SLOAD PUSH1 0xFF NOT AND SWAP1 SSTORE PUSH2 0x16D0 PUSH2 0x10BF JUMP JUMPDEST POP PUSH2 0x83A DUP3 PUSH2 0x2294 JUMP JUMPDEST PUSH1 0x0 SLOAD PUSH1 0xFF AND PUSH2 0x16FC JUMPI PUSH1 0x40 MLOAD PUSH3 0x461BCD PUSH1 0xE5 SHL DUP2 MSTORE PUSH1 0x4 ADD PUSH2 0x815 SWAP1 PUSH2 0x388C JUMP JUMPDEST PUSH1 0x0 DUP1 SLOAD PUSH1 0xFF NOT AND SWAP1 SSTORE PUSH2 0x170E PUSH2 0x10BF JUMP JUMPDEST POP PUSH2 0x171A CALLER CALLER DUP4 PUSH2 0x2350 JUMP JUMPDEST POP POP PUSH1 0x0 DUP1 SLOAD PUSH1 0xFF NOT AND PUSH1 0x1 OR SWAP1 SSTORE JUMP JUMPDEST PUSH1 0xD SLOAD PUSH1 0x0 SWAP1 DUP1 PUSH2 0x173E JUMPI POP POP PUSH1 0x7 SLOAD SWAP1 JUMP JUMPDEST PUSH1 0x0 PUSH2 0x1748 PUSH2 0x1A35 JUMP JUMPDEST SWAP1 POP PUSH1 0x0 PUSH1 0xC SLOAD PUSH1 0xB SLOAD DUP4 PUSH2 0x175D SWAP2 SWAP1 PUSH2 0x3918 JUMP JUMPDEST PUSH2 0x1767 SWAP2 SWAP1 PUSH2 0x3901 JUMP JUMPDEST SWAP1 POP PUSH1 0x0 DUP4 PUSH2 0x177E PUSH8 0xDE0B6B3A7640000 DUP5 PUSH2 0x3930 JUMP JUMPDEST PUSH2 0x1788 SWAP2 SWAP1 PUSH2 0x394F JUMP JUMPDEST SWAP6 SWAP5 POP POP POP POP POP JUMP JUMPDEST POP SWAP1 JUMP JUMPDEST PUSH1 0x5 SLOAD PUSH1 0x40 MLOAD PUSH4 0x17B9B84B PUSH1 0xE3 SHL DUP2 MSTORE ADDRESS PUSH1 0x4 DUP3 ADD MSTORE PUSH1 0x1 PUSH1 0x1 PUSH1 0xA0 SHL SUB DUP6 DUP2 AND PUSH1 0x24 DUP4 ADD MSTORE DUP5 DUP2 AND PUSH1 0x44 DUP4 ADD MSTORE PUSH1 0x64 DUP3 ADD DUP5 SWAP1 MSTORE PUSH1 0x0 SWAP3 DUP4 SWAP3 SWAP2 AND SWAP1 PUSH4 0xBDCDC258 SWAP1 PUSH1 0x84 ADD PUSH1 0x20 PUSH1 0x40 MLOAD DUP1 DUP4 SUB DUP2 PUSH1 0x0 DUP8 GAS CALL ISZERO DUP1 ISZERO PUSH2 0x17FA JUMPI RETURNDATASIZE PUSH1 0x0 DUP1 RETURNDATACOPY RETURNDATASIZE PUSH1 0x0 REVERT JUMPDEST POP POP POP POP PUSH1 0x40 MLOAD RETURNDATASIZE PUSH1 0x1F NOT PUSH1 0x1F DUP3 ADD AND DUP3 ADD DUP1 PUSH1 0x40 MSTORE POP DUP2 ADD SWAP1 PUSH2 0x181E SWAP2 SWAP1 PUSH2 0x38B0 JUMP JUMPDEST SWAP1 POP DUP1 ISZERO PUSH2 0x1842 JUMPI PUSH1 0x40 MLOAD PUSH4 0x89D4277 PUSH1 0xE1 SHL DUP2 MSTORE PUSH1 0x4 DUP2 ADD DUP3 SWAP1 MSTORE PUSH1 0x24 ADD PUSH2 0x815 JUMP JUMPDEST DUP4 PUSH1 0x1 PUSH1 0x1 PUSH1 0xA0 SHL SUB AND DUP6 PUSH1 0x1 PUSH1 0x1 PUSH1 0xA0 SHL SUB AND EQ ISZERO PUSH2 0x1875 JUMPI PUSH1 0x40 MLOAD PUSH4 0x8CD22D19 PUSH1 0xE0 SHL DUP2 MSTORE PUSH1 0x4 ADD PUSH1 0x40 MLOAD DUP1 SWAP2 SUB SWAP1 REVERT JUMPDEST PUSH1 0x0 DUP6 PUSH1 0x1 PUSH1 0x1 PUSH1 0xA0 SHL SUB AND DUP8 PUSH1 0x1 PUSH1 0x1 PUSH1 0xA0 SHL SUB AND EQ ISZERO PUSH2 0x189A JUMPI POP PUSH1 0x0 NOT PUSH2 0x18C2 JUMP JUMPDEST POP PUSH1 0x1 PUSH1 0x1 PUSH1 0xA0 SHL SUB DUP1 DUP7 AND PUSH1 0x0 SWAP1 DUP2 MSTORE PUSH1 0xF PUSH1 0x20 SWAP1 DUP2 MSTORE PUSH1 0x40 DUP1 DUP4 KECCAK256 SWAP4 DUP11 AND DUP4 MSTORE SWAP3 SWAP1 MSTORE KECCAK256 SLOAD JUMPDEST PUSH1 0x0 PUSH2 0x18CE DUP6 DUP4 PUSH2 0x3901 JUMP JUMPDEST PUSH1 0x1 PUSH1 0x1 PUSH1 0xA0 SHL SUB DUP9 AND PUSH1 0x0 SWAP1 DUP2 MSTORE PUSH1 0xE PUSH1 0x20 MSTORE PUSH1 0x40 DUP2 KECCAK256 SLOAD SWAP2 SWAP3 POP SWAP1 PUSH2 0x18F6 SWAP1 DUP8 SWAP1 PUSH2 0x3901 JUMP JUMPDEST PUSH1 0x1 PUSH1 0x1 PUSH1 0xA0 SHL SUB DUP9 AND PUSH1 0x0 SWAP1 DUP2 MSTORE PUSH1 0xE PUSH1 0x20 MSTORE PUSH1 0x40 DUP2 KECCAK256 SLOAD SWAP2 SWAP3 POP SWAP1 PUSH2 0x191E SWAP1 DUP9 SWAP1 PUSH2 0x3918 JUMP JUMPDEST PUSH1 0x1 PUSH1 0x1 PUSH1 0xA0 SHL SUB DUP1 DUP12 AND PUSH1 0x0 SWAP1 DUP2 MSTORE PUSH1 0xE PUSH1 0x20 MSTORE PUSH1 0x40 DUP1 DUP3 KECCAK256 DUP7 SWAP1 SSTORE SWAP2 DUP12 AND DUP2 MSTORE KECCAK256 DUP2 SWAP1 SSTORE SWAP1 POP PUSH1 0x0 NOT DUP5 EQ PUSH2 0x1978 JUMPI PUSH1 0x1 PUSH1 0x1 PUSH1 0xA0 SHL SUB DUP1 DUP11 AND PUSH1 0x0 SWAP1 DUP2 MSTORE PUSH1 0xF PUSH1 0x20 SWAP1 DUP2 MSTORE PUSH1 0x40 DUP1 DUP4 KECCAK256 SWAP4 DUP15 AND DUP4 MSTORE SWAP3 SWAP1 MSTORE KECCAK256 DUP4 SWAP1 SSTORE JUMPDEST DUP8 PUSH1 0x1 PUSH1 0x1 PUSH1 0xA0 SHL SUB AND DUP10 PUSH1 0x1 PUSH1 0x1 PUSH1 0xA0 SHL SUB AND PUSH1 0x0 DUP1 MLOAD PUSH1 0x20 PUSH2 0x39DB DUP4 CODECOPY DUP2 MLOAD SWAP2 MSTORE DUP10 PUSH1 0x40 MLOAD PUSH2 0x19AB SWAP2 DUP2 MSTORE PUSH1 0x20 ADD SWAP1 JUMP JUMPDEST PUSH1 0x40 MLOAD DUP1 SWAP2 SUB SWAP1 LOG3 POP PUSH1 0x0 SWAP10 SWAP9 POP POP POP POP POP POP POP POP POP JUMP JUMPDEST PUSH1 0x0 SLOAD PUSH1 0xFF AND PUSH2 0x19E5 JUMPI PUSH1 0x40 MLOAD PUSH3 0x461BCD PUSH1 0xE5 SHL DUP2 MSTORE PUSH1 0x4 ADD PUSH2 0x815 SWAP1 PUSH2 0x388C JUMP JUMPDEST PUSH1 0x0 DUP1 SLOAD PUSH1 0xFF NOT AND SWAP1 SSTORE PUSH2 0x19F7 PUSH2 0x10BF JUMP JUMPDEST POP PUSH2 0x1A03 CALLER DUP4 DUP4 PUSH2 0x2350 JUMP JUMPDEST POP POP PUSH1 0x0 DUP1 SLOAD PUSH1 0xFF NOT AND PUSH1 0x1 OR SWAP1 SSTORE POP JUMP JUMPDEST PUSH1 0x0 DUP1 PUSH2 0x1A22 DUP5 DUP5 PUSH2 0x1E6B JUMP JUMPDEST SWAP1 POP PUSH2 0x1A2D DUP2 PUSH2 0x24F9 JUMP JUMPDEST SWAP5 SWAP4 POP POP POP POP JUMP JUMPDEST PUSH1 0x11 SLOAD PUSH1 0x40 MLOAD PUSH4 0x70A08231 PUSH1 0xE0 SHL DUP2 MSTORE ADDRESS PUSH1 0x4 DUP3 ADD MSTORE PUSH1 0x0 SWAP2 PUSH1 0x1 PUSH1 0x1 PUSH1 0xA0 SHL SUB AND SWAP1 DUP2 SWAP1 PUSH4 0x70A08231 SWAP1 PUSH1 0x24 ADD PUSH1 0x20 PUSH1 0x40 MLOAD DUP1 DUP4 SUB DUP2 DUP7 GAS STATICCALL ISZERO DUP1 ISZERO PUSH2 0x1A80 JUMPI RETURNDATASIZE PUSH1 0x0 DUP1 RETURNDATACOPY RETURNDATASIZE PUSH1 0x0 REVERT JUMPDEST POP POP POP POP PUSH1 0x40 MLOAD RETURNDATASIZE PUSH1 0x1F NOT PUSH1 0x1F DUP3 ADD AND DUP3 ADD DUP1 PUSH1 0x40 MSTORE POP DUP2 ADD SWAP1 PUSH2 0x1AA4 SWAP2 SWAP1 PUSH2 0x38B0 JUMP JUMPDEST SWAP2 POP POP SWAP1 JUMP JUMPDEST PUSH1 0x0 DUP1 SLOAD PUSH1 0xFF AND PUSH2 0x1ACD JUMPI PUSH1 0x40 MLOAD PUSH3 0x461BCD PUSH1 0xE5 SHL DUP2 MSTORE PUSH1 0x4 ADD PUSH2 0x815 SWAP1 PUSH2 0x388C JUMP JUMPDEST PUSH1 0x0 DUP1 SLOAD PUSH1 0xFF NOT AND SWAP1 SSTORE PUSH2 0x1ADF PUSH2 0x10BF JUMP JUMPDEST POP PUSH2 0x1AE9 DUP3 PUSH2 0x2511 JUMP JUMPDEST POP POP PUSH1 0x0 SWAP1 POP PUSH1 0x0 DUP1 SLOAD PUSH1 0xFF NOT AND PUSH1 0x1 OR SWAP1 SSTORE SWAP2 SWAP1 POP JUMP JUMPDEST PUSH1 0x3 SLOAD PUSH1 0x0 SWAP1 DUP2 SWAP1 PUSH2 0x100 SWAP1 DIV PUSH1 0x1 PUSH1 0x1 PUSH1 0xA0 SHL SUB AND CALLER EQ PUSH2 0x1B36 JUMPI PUSH1 0x40 MLOAD PUSH4 0xF7E5E6D PUSH1 0xE4 SHL DUP2 MSTORE PUSH1 0x4 ADD PUSH1 0x40 MLOAD DUP1 SWAP2 SUB SWAP1 REVERT JUMPDEST TIMESTAMP PUSH1 0x9 SLOAD EQ PUSH2 0x1B58 JUMPI PUSH1 0x40 MLOAD PUSH4 0xDFF50CB PUSH1 0xE4 SHL DUP2 MSTORE PUSH1 0x4 ADD PUSH1 0x40 MLOAD DUP1 SWAP2 SUB SWAP1 REVERT JUMPDEST DUP3 PUSH2 0x1B61 PUSH2 0x1A35 JUMP JUMPDEST LT ISZERO PUSH2 0x1B80 JUMPI PUSH1 0x40 MLOAD PUSH4 0x3345E999 PUSH1 0xE0 SHL DUP2 MSTORE PUSH1 0x4 ADD PUSH1 0x40 MLOAD DUP1 SWAP2 SUB SWAP1 REVERT JUMPDEST PUSH1 0xC SLOAD DUP4 GT ISZERO PUSH2 0x1BA3 JUMPI PUSH1 0x40 MLOAD PUSH4 0x78D29805 PUSH1 0xE1 SHL DUP2 MSTORE PUSH1 0x4 ADD PUSH1 0x40 MLOAD DUP1 SWAP2 SUB SWAP1 REVERT JUMPDEST DUP3 PUSH1 0xC SLOAD PUSH2 0x1BB1 SWAP2 SWAP1 PUSH2 0x3901 JUMP JUMPDEST PUSH1 0xC DUP2 SWAP1 SSTORE PUSH1 0x3 SLOAD SWAP1 SWAP2 POP PUSH2 0x1BD4 SWAP1 PUSH2 0x100 SWAP1 DIV PUSH1 0x1 PUSH1 0x1 PUSH1 0xA0 SHL SUB AND DUP5 PUSH2 0x25A5 JUMP JUMPDEST PUSH32 0x3BAD0C59CF2F06E7314077049F48A93578CD16F5EF92329F1DAB1420A99C177E PUSH1 0x3 PUSH1 0x1 SWAP1 SLOAD SWAP1 PUSH2 0x100 EXP SWAP1 DIV PUSH1 0x1 PUSH1 0x1 PUSH1 0xA0 SHL SUB AND DUP5 DUP4 PUSH1 0x40 MLOAD PUSH2 0xCC5 SWAP4 SWAP3 SWAP2 SWAP1 PUSH2 0x3971 JUMP JUMPDEST PUSH1 0x0 SLOAD PUSH1 0xFF AND PUSH2 0x1C3E JUMPI PUSH1 0x40 MLOAD PUSH3 0x461BCD PUSH1 0xE5 SHL DUP2 MSTORE PUSH1 0x4 ADD PUSH2 0x815 SWAP1 PUSH2 0x388C JUMP JUMPDEST PUSH1 0x0 DUP1 SLOAD PUSH1 0xFF NOT AND SWAP1 SSTORE PUSH2 0x1C50 PUSH2 0x10BF JUMP JUMPDEST POP PUSH2 0x1C5D CALLER PUSH1 0x0 DUP4 PUSH2 0x268F JUMP JUMPDEST POP PUSH1 0x0 DUP1 SLOAD PUSH1 0xFF NOT AND PUSH1 0x1 OR SWAP1 SSTORE JUMP JUMPDEST PUSH1 0x1 PUSH1 0x1 PUSH1 0xA0 SHL SUB DUP2 AND PUSH1 0x0 SWAP1 DUP2 MSTORE PUSH1 0x10 PUSH1 0x20 MSTORE PUSH1 0x40 DUP2 KECCAK256 DUP1 SLOAD PUSH2 0x1C94 JUMPI POP PUSH1 0x0 SWAP3 SWAP2 POP POP JUMP JUMPDEST PUSH1 0xA SLOAD DUP2 SLOAD PUSH1 0x0 SWAP2 PUSH2 0x1CA5 SWAP2 PUSH2 0x3930 JUMP JUMPDEST SWAP1 POP DUP2 PUSH1 0x1 ADD SLOAD DUP2 PUSH2 0x1A2D SWAP2 SWAP1 PUSH2 0x394F JUMP JUMPDEST PUSH1 0x3 SLOAD PUSH1 0x0 SWAP1 DUP2 SWAP1 PUSH2 0x100 SWAP1 DIV PUSH1 0x1 PUSH1 0x1 PUSH1 0xA0 SHL SUB AND CALLER EQ PUSH2 0x1CEC JUMPI PUSH1 0x40 MLOAD PUSH4 0x407FDED5 PUSH1 0xE0 SHL DUP2 MSTORE PUSH1 0x4 ADD PUSH1 0x40 MLOAD DUP1 SWAP2 SUB SWAP1 REVERT JUMPDEST TIMESTAMP PUSH1 0x9 SLOAD EQ PUSH2 0x1D0E JUMPI PUSH1 0x40 MLOAD PUSH4 0xBE2A5CB PUSH1 0xE1 SHL DUP2 MSTORE PUSH1 0x4 ADD PUSH1 0x40 MLOAD DUP1 SWAP2 SUB SWAP1 REVERT JUMPDEST PUSH1 0x6 PUSH1 0x0 SWAP1 SLOAD SWAP1 PUSH2 0x100 EXP SWAP1 DIV PUSH1 0x1 PUSH1 0x1 PUSH1 0xA0 SHL SUB AND SWAP1 POP DUP3 PUSH1 0x1 PUSH1 0x1 PUSH1 0xA0 SHL SUB AND PUSH4 0x2191F92A PUSH1 0x40 MLOAD DUP2 PUSH4 0xFFFFFFFF AND PUSH1 0xE0 SHL DUP2 MSTORE PUSH1 0x4 ADD PUSH1 0x20 PUSH1 0x40 MLOAD DUP1 DUP4 SUB DUP2 DUP7 GAS STATICCALL ISZERO DUP1 ISZERO PUSH2 0x1D64 JUMPI RETURNDATASIZE PUSH1 0x0 DUP1 RETURNDATACOPY RETURNDATASIZE PUSH1 0x0 REVERT JUMPDEST POP POP POP POP PUSH1 0x40 MLOAD RETURNDATASIZE PUSH1 0x1F NOT PUSH1 0x1F DUP3 ADD AND DUP3 ADD DUP1 PUSH1 0x40 MSTORE POP DUP2 ADD SWAP1 PUSH2 0x1D88 SWAP2 SWAP1 PUSH2 0x38C9 JUMP JUMPDEST PUSH2 0x1DD4 JUMPI PUSH1 0x40 MLOAD PUSH3 0x461BCD PUSH1 0xE5 SHL DUP2 MSTORE PUSH1 0x20 PUSH1 0x4 DUP3 ADD MSTORE PUSH1 0x1C PUSH1 0x24 DUP3 ADD MSTORE PUSH32 0x6D61726B6572206D6574686F642072657475726E65642066616C736500000000 PUSH1 0x44 DUP3 ADD MSTORE PUSH1 0x64 ADD PUSH2 0x815 JUMP JUMPDEST PUSH1 0x6 DUP1 SLOAD PUSH1 0x1 PUSH1 0x1 PUSH1 0xA0 SHL SUB NOT AND PUSH1 0x1 PUSH1 0x1 PUSH1 0xA0 SHL SUB DUP6 DUP2 AND SWAP2 DUP3 OR SWAP1 SWAP3 SSTORE PUSH1 0x40 DUP1 MLOAD SWAP3 DUP5 AND DUP4 MSTORE PUSH1 0x20 DUP4 ADD SWAP2 SWAP1 SWAP2 MSTORE PUSH32 0xEDFFC32E068C7C95DFD4BDFD5C4D939A084D6B11C4199EAC8436ED234D72F926 SWAP2 ADD PUSH2 0xCC5 JUMP JUMPDEST PUSH1 0x0 SLOAD PUSH1 0xFF AND PUSH2 0x1E4E JUMPI PUSH1 0x40 MLOAD PUSH3 0x461BCD PUSH1 0xE5 SHL DUP2 MSTORE PUSH1 0x4 ADD PUSH2 0x815 SWAP1 PUSH2 0x388C JUMP JUMPDEST PUSH1 0x0 DUP1 SLOAD PUSH1 0xFF NOT AND SWAP1 SSTORE PUSH2 0x1E60 PUSH2 0x10BF JUMP JUMPDEST POP PUSH2 0x1C5D CALLER DUP3 PUSH2 0x296C JUMP JUMPDEST PUSH1 0x40 DUP1 MLOAD PUSH1 0x20 DUP2 ADD SWAP1 SWAP2 MSTORE PUSH1 0x0 DUP2 MSTORE PUSH1 0x40 MLOAD DUP1 PUSH1 0x20 ADD PUSH1 0x40 MSTORE DUP1 PUSH2 0x1E93 DUP6 PUSH1 0x0 ADD MLOAD DUP6 PUSH2 0x2B95 JUMP JUMPDEST SWAP1 MSTORE SWAP4 SWAP3 POP POP POP JUMP JUMPDEST PUSH1 0x0 DUP1 PUSH2 0x1EA9 DUP6 DUP6 PUSH2 0x1E6B JUMP JUMPDEST SWAP1 POP PUSH2 0x1788 PUSH2 0x1EB7 DUP3 PUSH2 0x24F9 JUMP JUMPDEST DUP5 PUSH2 0x2BA1 JUMP JUMPDEST PUSH1 0x5 SLOAD PUSH1 0x40 MLOAD PUSH4 0xD02F7351 PUSH1 0xE0 SHL DUP2 MSTORE ADDRESS PUSH1 0x4 DUP3 ADD MSTORE PUSH1 0x1 PUSH1 0x1 PUSH1 0xA0 SHL SUB DUP7 DUP2 AND PUSH1 0x24 DUP4 ADD MSTORE DUP6 DUP2 AND PUSH1 0x44 DUP4 ADD MSTORE DUP5 DUP2 AND PUSH1 0x64 DUP4 ADD MSTORE PUSH1 0x84 DUP3 ADD DUP5 SWAP1 MSTORE PUSH1 0x0 SWAP3 AND SWAP1 PUSH4 0xD02F7351 SWAP1 PUSH1 0xA4 ADD PUSH1 0x20 PUSH1 0x40 MLOAD DUP1 DUP4 SUB DUP2 PUSH1 0x0 DUP8 GAS CALL ISZERO DUP1 ISZERO PUSH2 0x1F27 JUMPI RETURNDATASIZE PUSH1 0x0 DUP1 RETURNDATACOPY RETURNDATASIZE PUSH1 0x0 REVERT JUMPDEST POP POP POP POP PUSH1 0x40 MLOAD RETURNDATASIZE PUSH1 0x1F NOT PUSH1 0x1F DUP3 ADD AND DUP3 ADD DUP1 PUSH1 0x40 MSTORE POP DUP2 ADD SWAP1 PUSH2 0x1F4B SWAP2 SWAP1 PUSH2 0x38B0 JUMP JUMPDEST SWAP1 POP DUP1 ISZERO PUSH2 0x1F6F JUMPI PUSH1 0x40 MLOAD PUSH4 0x63E00E33 PUSH1 0xE1 SHL DUP2 MSTORE PUSH1 0x4 DUP2 ADD DUP3 SWAP1 MSTORE PUSH1 0x24 ADD PUSH2 0x815 JUMP JUMPDEST DUP4 PUSH1 0x1 PUSH1 0x1 PUSH1 0xA0 SHL SUB AND DUP4 PUSH1 0x1 PUSH1 0x1 PUSH1 0xA0 SHL SUB AND EQ ISZERO PUSH2 0x1FA2 JUMPI PUSH1 0x40 MLOAD PUSH4 0x3A946267 PUSH1 0xE1 SHL DUP2 MSTORE PUSH1 0x4 ADD PUSH1 0x40 MLOAD DUP1 SWAP2 SUB SWAP1 REVERT JUMPDEST PUSH1 0x0 PUSH2 0x1FC3 DUP4 PUSH1 0x40 MLOAD DUP1 PUSH1 0x20 ADD PUSH1 0x40 MSTORE DUP1 PUSH7 0x6379DA05B60000 DUP2 MSTORE POP PUSH2 0x2BAD JUMP JUMPDEST SWAP1 POP PUSH1 0x0 PUSH2 0x1FD1 DUP3 DUP6 PUSH2 0x3901 JUMP JUMPDEST SWAP1 POP PUSH1 0x0 PUSH1 0x40 MLOAD DUP1 PUSH1 0x20 ADD PUSH1 0x40 MSTORE DUP1 PUSH2 0x1FE8 PUSH2 0x172B JUMP JUMPDEST SWAP1 MSTORE SWAP1 POP PUSH1 0x0 PUSH2 0x1FF8 DUP3 DUP6 PUSH2 0x1A15 JUMP JUMPDEST SWAP1 POP PUSH1 0x0 DUP2 PUSH1 0xC SLOAD PUSH2 0x200A SWAP2 SWAP1 PUSH2 0x3918 JUMP JUMPDEST PUSH1 0xC DUP2 SWAP1 SSTORE PUSH1 0xD SLOAD SWAP1 SWAP2 POP PUSH2 0x2020 SWAP1 DUP7 SWAP1 PUSH2 0x3901 JUMP JUMPDEST PUSH1 0xD SSTORE PUSH1 0x1 PUSH1 0x1 PUSH1 0xA0 SHL SUB DUP9 AND PUSH1 0x0 SWAP1 DUP2 MSTORE PUSH1 0xE PUSH1 0x20 MSTORE PUSH1 0x40 SWAP1 KECCAK256 SLOAD PUSH2 0x2047 SWAP1 DUP9 SWAP1 PUSH2 0x3901 JUMP JUMPDEST PUSH1 0x1 PUSH1 0x1 PUSH1 0xA0 SHL SUB DUP1 DUP11 AND PUSH1 0x0 SWAP1 DUP2 MSTORE PUSH1 0xE PUSH1 0x20 MSTORE PUSH1 0x40 DUP1 DUP3 KECCAK256 SWAP4 SWAP1 SWAP4 SSTORE SWAP1 DUP12 AND DUP2 MSTORE KECCAK256 SLOAD PUSH2 0x2077 SWAP1 DUP6 SWAP1 PUSH2 0x3918 JUMP JUMPDEST PUSH1 0x1 PUSH1 0x1 PUSH1 0xA0 SHL SUB DUP1 DUP12 AND PUSH1 0x0 DUP2 DUP2 MSTORE PUSH1 0xE PUSH1 0x20 MSTORE PUSH1 0x40 SWAP1 DUP2 SWAP1 KECCAK256 SWAP4 SWAP1 SWAP4 SSTORE SWAP2 MLOAD SWAP1 DUP11 AND SWAP1 PUSH1 0x0 DUP1 MLOAD PUSH1 0x20 PUSH2 0x39DB DUP4 CODECOPY DUP2 MLOAD SWAP2 MSTORE SWAP1 PUSH2 0x20B9 SWAP1 DUP9 DUP2 MSTORE PUSH1 0x20 ADD SWAP1 JUMP JUMPDEST PUSH1 0x40 MLOAD DUP1 SWAP2 SUB SWAP1 LOG3 PUSH1 0x40 MLOAD DUP6 DUP2 MSTORE ADDRESS SWAP1 PUSH1 0x1 PUSH1 0x1 PUSH1 0xA0 SHL SUB DUP11 AND SWAP1 PUSH1 0x0 DUP1 MLOAD PUSH1 0x20 PUSH2 0x39DB DUP4 CODECOPY DUP2 MLOAD SWAP2 MSTORE SWAP1 PUSH1 0x20 ADD PUSH1 0x40 MLOAD DUP1 SWAP2 SUB SWAP1 LOG3 PUSH32 0xA91E67C5EA634CD43A12C5A482724B03DE01E85CA68702A53D0C2F45CB7C1DC5 ADDRESS DUP4 DUP4 PUSH1 0x40 MLOAD PUSH2 0x2122 SWAP4 SWAP3 SWAP2 SWAP1 PUSH2 0x3971 JUMP JUMPDEST PUSH1 0x40 MLOAD DUP1 SWAP2 SUB SWAP1 LOG1 POP POP POP POP POP POP POP POP POP POP JUMP JUMPDEST PUSH1 0x0 SLOAD PUSH1 0xFF AND PUSH2 0x2158 JUMPI PUSH1 0x40 MLOAD PUSH3 0x461BCD PUSH1 0xE5 SHL DUP2 MSTORE PUSH1 0x4 ADD PUSH2 0x815 SWAP1 PUSH2 0x388C JUMP JUMPDEST PUSH1 0x0 DUP1 SLOAD PUSH1 0xFF NOT AND SWAP1 SSTORE PUSH2 0x216A PUSH2 0x10BF JUMP JUMPDEST POP PUSH2 0x1C5D CALLER DUP3 PUSH2 0x2BD0 JUMP JUMPDEST PUSH1 0x0 SLOAD PUSH1 0xFF AND PUSH2 0x2197 JUMPI PUSH1 0x40 MLOAD PUSH3 0x461BCD PUSH1 0xE5 SHL DUP2 MSTORE PUSH1 0x4 ADD PUSH2 0x815 SWAP1 PUSH2 0x388C JUMP JUMPDEST PUSH1 0x0 DUP1 SLOAD PUSH1 0xFF NOT AND SWAP1 SSTORE PUSH2 0x21A9 PUSH2 0x10BF JUMP JUMPDEST POP PUSH2 0x1C5D CALLER DUP3 PUSH1 0x0 PUSH2 0x268F JUMP JUMPDEST PUSH1 0x0 SLOAD PUSH1 0xFF AND PUSH2 0x21D8 JUMPI PUSH1 0x40 MLOAD PUSH3 0x461BCD PUSH1 0xE5 SHL DUP2 MSTORE PUSH1 0x4 ADD PUSH2 0x815 SWAP1 PUSH2 0x388C JUMP JUMPDEST PUSH1 0x0 DUP1 SLOAD PUSH1 0xFF NOT AND SWAP1 SSTORE PUSH2 0x21EA PUSH2 0x10BF JUMP JUMPDEST POP PUSH1 0x0 DUP2 PUSH1 0x1 PUSH1 0x1 PUSH1 0xA0 SHL SUB AND PUSH4 0xA6AFED95 PUSH1 0x40 MLOAD DUP2 PUSH4 0xFFFFFFFF AND PUSH1 0xE0 SHL DUP2 MSTORE PUSH1 0x4 ADD PUSH1 0x20 PUSH1 0x40 MLOAD DUP1 DUP4 SUB DUP2 PUSH1 0x0 DUP8 GAS CALL ISZERO DUP1 ISZERO PUSH2 0x222D JUMPI RETURNDATASIZE PUSH1 0x0 DUP1 RETURNDATACOPY RETURNDATASIZE PUSH1 0x0 REVERT JUMPDEST POP POP POP POP PUSH1 0x40 MLOAD RETURNDATASIZE PUSH1 0x1F NOT PUSH1 0x1F DUP3 ADD AND DUP3 ADD DUP1 PUSH1 0x40 MSTORE POP DUP2 ADD SWAP1 PUSH2 0x2251 SWAP2 SWAP1 PUSH2 0x38B0 JUMP JUMPDEST SWAP1 POP DUP1 ISZERO PUSH2 0x2275 JUMPI PUSH1 0x40 MLOAD PUSH4 0x3EEA49B7 PUSH1 0xE1 SHL DUP2 MSTORE PUSH1 0x4 DUP2 ADD DUP3 SWAP1 MSTORE PUSH1 0x24 ADD PUSH2 0x815 JUMP JUMPDEST PUSH2 0x2281 CALLER DUP6 DUP6 DUP6 PUSH2 0x2D6F JUMP JUMPDEST POP POP PUSH1 0x0 DUP1 SLOAD PUSH1 0xFF NOT AND PUSH1 0x1 OR SWAP1 SSTORE POP POP JUMP JUMPDEST PUSH1 0x3 SLOAD PUSH1 0x0 SWAP1 PUSH2 0x100 SWAP1 DIV PUSH1 0x1 PUSH1 0x1 PUSH1 0xA0 SHL SUB AND CALLER EQ PUSH2 0x22C7 JUMPI PUSH1 0x40 MLOAD PUSH4 0x1205B57B PUSH1 0xE1 SHL DUP2 MSTORE PUSH1 0x4 ADD PUSH1 0x40 MLOAD DUP1 SWAP2 SUB SWAP1 REVERT JUMPDEST TIMESTAMP PUSH1 0x9 SLOAD EQ PUSH2 0x22E9 JUMPI PUSH1 0x40 MLOAD PUSH4 0x7DFCA6B7 PUSH1 0xE1 SHL DUP2 MSTORE PUSH1 0x4 ADD PUSH1 0x40 MLOAD DUP1 SWAP2 SUB SWAP1 REVERT JUMPDEST PUSH8 0xDE0B6B3A7640000 DUP3 GT ISZERO PUSH2 0x2312 JUMPI PUSH1 0x40 MLOAD PUSH4 0x717220F3 PUSH1 0xE1 SHL DUP2 MSTORE PUSH1 0x4 ADD PUSH1 0x40 MLOAD DUP1 SWAP2 SUB SWAP1 REVERT JUMPDEST PUSH1 0x8 DUP1 SLOAD SWAP1 DUP4 SWAP1 SSTORE PUSH1 0x40 DUP1 MLOAD DUP3 DUP2 MSTORE PUSH1 0x20 DUP2 ADD DUP6 SWAP1 MSTORE PUSH32 0xAAA68312E2EA9D50E16AF5068410AB56E1A1FD06037B1A35664812C30F821460 SWAP2 ADD PUSH2 0xCC5 JUMP JUMPDEST PUSH1 0x5 SLOAD PUSH1 0x40 MLOAD PUSH4 0x12004531 PUSH1 0xE1 SHL DUP2 MSTORE ADDRESS PUSH1 0x4 DUP3 ADD MSTORE PUSH1 0x1 PUSH1 0x1 PUSH1 0xA0 SHL SUB DUP6 DUP2 AND PUSH1 0x24 DUP4 ADD MSTORE DUP5 DUP2 AND PUSH1 0x44 DUP4 ADD MSTORE PUSH1 0x64 DUP3 ADD DUP5 SWAP1 MSTORE PUSH1 0x0 SWAP3 DUP4 SWAP3 SWAP2 AND SWAP1 PUSH4 0x24008A62 SWAP1 PUSH1 0x84 ADD PUSH1 0x20 PUSH1 0x40 MLOAD DUP1 DUP4 SUB DUP2 PUSH1 0x0 DUP8 GAS CALL ISZERO DUP1 ISZERO PUSH2 0x23B5 JUMPI RETURNDATASIZE PUSH1 0x0 DUP1 RETURNDATACOPY RETURNDATASIZE PUSH1 0x0 REVERT JUMPDEST POP POP POP POP PUSH1 0x40 MLOAD RETURNDATASIZE PUSH1 0x1F NOT PUSH1 0x1F DUP3 ADD AND DUP3 ADD DUP1 PUSH1 0x40 MSTORE POP DUP2 ADD SWAP1 PUSH2 0x23D9 SWAP2 SWAP1 PUSH2 0x38B0 JUMP JUMPDEST SWAP1 POP DUP1 ISZERO PUSH2 0x23FD JUMPI PUSH1 0x40 MLOAD PUSH4 0x8C81362D PUSH1 0xE0 SHL DUP2 MSTORE PUSH1 0x4 DUP2 ADD DUP3 SWAP1 MSTORE PUSH1 0x24 ADD PUSH2 0x815 JUMP JUMPDEST TIMESTAMP PUSH1 0x9 SLOAD EQ PUSH2 0x241F JUMPI PUSH1 0x40 MLOAD PUSH4 0xC9021E2F PUSH1 0xE0 SHL DUP2 MSTORE PUSH1 0x4 ADD PUSH1 0x40 MLOAD DUP1 SWAP2 SUB SWAP1 REVERT JUMPDEST PUSH1 0x0 PUSH2 0x242A DUP6 PUSH2 0x1C6D JUMP JUMPDEST SWAP1 POP PUSH1 0x0 PUSH1 0x0 NOT DUP6 EQ PUSH2 0x243D JUMPI DUP5 PUSH2 0x243F JUMP JUMPDEST DUP2 JUMPDEST SWAP1 POP PUSH1 0x0 PUSH2 0x244D DUP9 DUP4 PUSH2 0x3229 JUMP JUMPDEST SWAP1 POP PUSH1 0x0 PUSH2 0x245B DUP3 DUP6 PUSH2 0x3901 JUMP JUMPDEST SWAP1 POP PUSH1 0x0 DUP3 PUSH1 0xB SLOAD PUSH2 0x246D SWAP2 SWAP1 PUSH2 0x3901 JUMP JUMPDEST PUSH1 0x1 PUSH1 0x1 PUSH1 0xA0 SHL SUB DUP11 DUP2 AND PUSH1 0x0 DUP2 DUP2 MSTORE PUSH1 0x10 PUSH1 0x20 SWAP1 DUP2 MSTORE PUSH1 0x40 SWAP2 DUP3 SWAP1 KECCAK256 DUP8 DUP2 SSTORE PUSH1 0xA SLOAD PUSH1 0x1 SWAP1 SWAP2 ADD SSTORE PUSH1 0xB DUP6 SWAP1 SSTORE DUP2 MLOAD SWAP4 DUP16 AND DUP5 MSTORE DUP4 ADD SWAP2 SWAP1 SWAP2 MSTORE DUP2 ADD DUP6 SWAP1 MSTORE PUSH1 0x60 DUP2 ADD DUP5 SWAP1 MSTORE PUSH1 0x80 DUP2 ADD DUP3 SWAP1 MSTORE SWAP1 SWAP2 POP PUSH32 0x1A2A22CB034D26D1854BDC6666A5B91FE25EFBBB5DCAD3B0355478D6F5C362A1 SWAP1 PUSH1 0xA0 ADD PUSH1 0x40 MLOAD DUP1 SWAP2 SUB SWAP1 LOG1 POP SWAP1 SWAP9 SWAP8 POP POP POP POP POP POP POP POP JUMP JUMPDEST DUP1 MLOAD PUSH1 0x0 SWAP1 PUSH2 0xB7E SWAP1 PUSH8 0xDE0B6B3A7640000 SWAP1 PUSH2 0x394F JUMP JUMPDEST PUSH1 0x0 DUP1 DUP1 DUP1 TIMESTAMP PUSH1 0x9 SLOAD EQ PUSH2 0x253B JUMPI PUSH1 0x40 MLOAD PUSH4 0x38ACF799 PUSH1 0xE0 SHL DUP2 MSTORE PUSH1 0x4 DUP2 ADD DUP3 SWAP1 MSTORE PUSH1 0x24 ADD PUSH2 0x815 JUMP JUMPDEST PUSH2 0x2545 CALLER DUP7 PUSH2 0x3229 JUMP JUMPDEST SWAP1 POP DUP1 PUSH1 0xC SLOAD PUSH2 0x2555 SWAP2 SWAP1 PUSH2 0x3918 JUMP JUMPDEST SWAP2 POP DUP2 PUSH1 0xC DUP2 SWAP1 SSTORE POP PUSH32 0xA91E67C5EA634CD43A12C5A482724B03DE01E85CA68702A53D0C2F45CB7C1DC5 CALLER DUP3 DUP5 PUSH1 0x40 MLOAD PUSH2 0x2591 SWAP4 SWAP3 SWAP2 SWAP1 PUSH2 0x3971 JUMP JUMPDEST PUSH1 0x40 MLOAD DUP1 SWAP2 SUB SWAP1 LOG1 PUSH1 0x0 SWAP6 SWAP1 SWAP5 POP SWAP3 POP POP POP JUMP JUMPDEST PUSH1 0x11 SLOAD PUSH1 0x40 MLOAD PUSH4 0xA9059CBB PUSH1 0xE0 SHL DUP2 MSTORE PUSH1 0x1 PUSH1 0x1 PUSH1 0xA0 SHL SUB DUP5 DUP2 AND PUSH1 0x4 DUP4 ADD MSTORE PUSH1 0x24 DUP3 ADD DUP5 SWAP1 MSTORE SWAP1 SWAP2 AND SWAP1 DUP2 SWAP1 PUSH4 0xA9059CBB SWAP1 PUSH1 0x44 ADD PUSH1 0x0 PUSH1 0x40 MLOAD DUP1 DUP4 SUB DUP2 PUSH1 0x0 DUP8 DUP1 EXTCODESIZE ISZERO DUP1 ISZERO PUSH2 0x25F5 JUMPI PUSH1 0x0 DUP1 REVERT JUMPDEST POP GAS CALL ISZERO DUP1 ISZERO PUSH2 0x2609 JUMPI RETURNDATASIZE PUSH1 0x0 DUP1 RETURNDATACOPY RETURNDATASIZE PUSH1 0x0 REVERT JUMPDEST POP POP POP POP PUSH1 0x0 RETURNDATASIZE PUSH1 0x0 DUP2 EQ PUSH2 0x2625 JUMPI PUSH1 0x20 DUP2 EQ PUSH2 0x262F JUMPI PUSH1 0x0 DUP1 REVERT JUMPDEST PUSH1 0x0 NOT SWAP2 POP PUSH2 0x263B JUMP JUMPDEST PUSH1 0x20 PUSH1 0x0 DUP1 RETURNDATACOPY PUSH1 0x0 MLOAD SWAP2 POP JUMPDEST POP DUP1 PUSH2 0x2689 JUMPI PUSH1 0x40 MLOAD PUSH3 0x461BCD PUSH1 0xE5 SHL DUP2 MSTORE PUSH1 0x20 PUSH1 0x4 DUP3 ADD MSTORE PUSH1 0x19 PUSH1 0x24 DUP3 ADD MSTORE PUSH32 0x544F4B454E5F5452414E534645525F4F55545F4641494C454400000000000000 PUSH1 0x44 DUP3 ADD MSTORE PUSH1 0x64 ADD PUSH2 0x815 JUMP JUMPDEST POP POP POP POP JUMP JUMPDEST DUP2 ISZERO DUP1 PUSH2 0x269A JUMPI POP DUP1 ISZERO JUMPDEST PUSH2 0x2703 JUMPI PUSH1 0x40 MLOAD PUSH3 0x461BCD PUSH1 0xE5 SHL DUP2 MSTORE PUSH1 0x20 PUSH1 0x4 DUP3 ADD MSTORE PUSH1 0x34 PUSH1 0x24 DUP3 ADD MSTORE PUSH32 0x6F6E65206F662072656465656D546F6B656E73496E206F722072656465656D41 PUSH1 0x44 DUP3 ADD MSTORE PUSH20 0x6D6F756E74496E206D757374206265207A65726F PUSH1 0x60 SHL PUSH1 0x64 DUP3 ADD MSTORE PUSH1 0x84 ADD PUSH2 0x815 JUMP JUMPDEST PUSH1 0x0 PUSH1 0x40 MLOAD DUP1 PUSH1 0x20 ADD PUSH1 0x40 MSTORE DUP1 PUSH2 0x2718 PUSH2 0x172B JUMP JUMPDEST SWAP1 MSTORE SWAP1 POP PUSH1 0x0 DUP1 DUP5 ISZERO PUSH2 0x2739 JUMPI DUP5 SWAP2 POP PUSH2 0x2732 DUP4 DUP7 PUSH2 0x1A15 JUMP JUMPDEST SWAP1 POP PUSH2 0x2749 JUMP JUMPDEST PUSH2 0x2743 DUP5 DUP5 PUSH2 0x3400 JUMP JUMPDEST SWAP2 POP DUP4 SWAP1 POP JUMPDEST PUSH1 0x5 SLOAD PUSH1 0x40 MLOAD PUSH4 0xEABE7D91 PUSH1 0xE0 SHL DUP2 MSTORE PUSH1 0x0 SWAP2 PUSH1 0x1 PUSH1 0x1 PUSH1 0xA0 SHL SUB AND SWAP1 PUSH4 0xEABE7D91 SWAP1 PUSH2 0x277E SWAP1 ADDRESS SWAP1 DUP12 SWAP1 DUP9 SWAP1 PUSH1 0x4 ADD PUSH2 0x3992 JUMP JUMPDEST PUSH1 0x20 PUSH1 0x40 MLOAD DUP1 DUP4 SUB DUP2 PUSH1 0x0 DUP8 GAS CALL ISZERO DUP1 ISZERO PUSH2 0x279D JUMPI RETURNDATASIZE PUSH1 0x0 DUP1 RETURNDATACOPY RETURNDATASIZE PUSH1 0x0 REVERT JUMPDEST POP POP POP POP PUSH1 0x40 MLOAD RETURNDATASIZE PUSH1 0x1F NOT PUSH1 0x1F DUP3 ADD AND DUP3 ADD DUP1 PUSH1 0x40 MSTORE POP DUP2 ADD SWAP1 PUSH2 0x27C1 SWAP2 SWAP1 PUSH2 0x38B0 JUMP JUMPDEST SWAP1 POP DUP1 ISZERO PUSH2 0x27E5 JUMPI PUSH1 0x40 MLOAD PUSH4 0x480F4247 PUSH1 0xE0 SHL DUP2 MSTORE PUSH1 0x4 DUP2 ADD DUP3 SWAP1 MSTORE PUSH1 0x24 ADD PUSH2 0x815 JUMP JUMPDEST TIMESTAMP PUSH1 0x9 SLOAD EQ PUSH2 0x2807 JUMPI PUSH1 0x40 MLOAD PUSH4 0x97B5CFCD PUSH1 0xE0 SHL DUP2 MSTORE PUSH1 0x4 ADD PUSH1 0x40 MLOAD DUP1 SWAP2 SUB SWAP1 REVERT JUMPDEST DUP2 PUSH2 0x2810 PUSH2 0x1A35 JUMP JUMPDEST LT ISZERO PUSH2 0x282F JUMPI PUSH1 0x40 MLOAD PUSH4 0x91240A1B PUSH1 0xE0 SHL DUP2 MSTORE PUSH1 0x4 ADD PUSH1 0x40 MLOAD DUP1 SWAP2 SUB SWAP1 REVERT JUMPDEST DUP3 PUSH1 0xD SLOAD PUSH2 0x283D SWAP2 SWAP1 PUSH2 0x3901 JUMP JUMPDEST PUSH1 0xD SSTORE PUSH1 0x1 PUSH1 0x1 PUSH1 0xA0 SHL SUB DUP8 AND PUSH1 0x0 SWAP1 DUP2 MSTORE PUSH1 0xE PUSH1 0x20 MSTORE PUSH1 0x40 SWAP1 KECCAK256 SLOAD PUSH2 0x2864 SWAP1 DUP5 SWAP1 PUSH2 0x3901 JUMP JUMPDEST PUSH1 0x1 PUSH1 0x1 PUSH1 0xA0 SHL SUB DUP9 AND PUSH1 0x0 SWAP1 DUP2 MSTORE PUSH1 0xE PUSH1 0x20 MSTORE PUSH1 0x40 SWAP1 KECCAK256 SSTORE PUSH2 0x2887 DUP8 DUP4 PUSH2 0x25A5 JUMP JUMPDEST PUSH1 0x40 MLOAD DUP4 DUP2 MSTORE ADDRESS SWAP1 PUSH1 0x1 PUSH1 0x1 PUSH1 0xA0 SHL SUB DUP10 AND SWAP1 PUSH1 0x0 DUP1 MLOAD PUSH1 0x20 PUSH2 0x39DB DUP4 CODECOPY DUP2 MLOAD SWAP2 MSTORE SWAP1 PUSH1 0x20 ADD PUSH1 0x40 MLOAD DUP1 SWAP2 SUB SWAP1 LOG3 PUSH32 0xE5B754FB1ABB7F01B499791D0B820AE3B6AF3424AC1C59768EDB53F4EC31A929 DUP8 DUP4 DUP6 PUSH1 0x40 MLOAD PUSH2 0x28E8 SWAP4 SWAP3 SWAP2 SWAP1 PUSH2 0x3971 JUMP JUMPDEST PUSH1 0x40 MLOAD DUP1 SWAP2 SUB SWAP1 LOG1 PUSH1 0x5 SLOAD PUSH1 0x40 MLOAD PUSH4 0x51DFF989 PUSH1 0xE0 SHL DUP2 MSTORE ADDRESS PUSH1 0x4 DUP3 ADD MSTORE PUSH1 0x1 PUSH1 0x1 PUSH1 0xA0 SHL SUB DUP10 DUP2 AND PUSH1 0x24 DUP4 ADD MSTORE PUSH1 0x44 DUP3 ADD DUP6 SWAP1 MSTORE PUSH1 0x64 DUP3 ADD DUP7 SWAP1 MSTORE SWAP1 SWAP2 AND SWAP1 PUSH4 0x51DFF989 SWAP1 PUSH1 0x84 ADD PUSH1 0x0 PUSH1 0x40 MLOAD DUP1 DUP4 SUB DUP2 PUSH1 0x0 DUP8 DUP1 EXTCODESIZE ISZERO DUP1 ISZERO PUSH2 0x294B JUMPI PUSH1 0x0 DUP1 REVERT JUMPDEST POP GAS CALL ISZERO DUP1 ISZERO PUSH2 0x295F JUMPI RETURNDATASIZE PUSH1 0x0 DUP1 RETURNDATACOPY RETURNDATASIZE PUSH1 0x0 REVERT JUMPDEST POP POP POP POP POP POP POP POP POP POP POP JUMP JUMPDEST PUSH1 0x5 SLOAD PUSH1 0x40 MLOAD PUSH4 0x4EF4C3E1 PUSH1 0xE0 SHL DUP2 MSTORE PUSH1 0x0 SWAP2 PUSH1 0x1 PUSH1 0x1 PUSH1 0xA0 SHL SUB AND SWAP1 PUSH4 0x4EF4C3E1 SWAP1 PUSH2 0x29A1 SWAP1 ADDRESS SWAP1 DUP8 SWAP1 DUP8 SWAP1 PUSH1 0x4 ADD PUSH2 0x3992 JUMP JUMPDEST PUSH1 0x20 PUSH1 0x40 MLOAD DUP1 DUP4 SUB DUP2 PUSH1 0x0 DUP8 GAS CALL ISZERO DUP1 ISZERO PUSH2 0x29C0 JUMPI RETURNDATASIZE PUSH1 0x0 DUP1 RETURNDATACOPY RETURNDATASIZE PUSH1 0x0 REVERT JUMPDEST POP POP POP POP PUSH1 0x40 MLOAD RETURNDATASIZE PUSH1 0x1F NOT PUSH1 0x1F DUP3 ADD AND DUP3 ADD DUP1 PUSH1 0x40 MSTORE POP DUP2 ADD SWAP1 PUSH2 0x29E4 SWAP2 SWAP1 PUSH2 0x38B0 JUMP JUMPDEST SWAP1 POP DUP1 ISZERO PUSH2 0x2A08 JUMPI PUSH1 0x40 MLOAD PUSH4 0x49ABD4FD PUSH1 0xE0 SHL DUP2 MSTORE PUSH1 0x4 DUP2 ADD DUP3 SWAP1 MSTORE PUSH1 0x24 ADD PUSH2 0x815 JUMP JUMPDEST TIMESTAMP PUSH1 0x9 SLOAD EQ PUSH2 0x2A2A JUMPI PUSH1 0x40 MLOAD PUSH4 0x38D88597 PUSH1 0xE0 SHL DUP2 MSTORE PUSH1 0x4 ADD PUSH1 0x40 MLOAD DUP1 SWAP2 SUB SWAP1 REVERT JUMPDEST PUSH1 0x0 PUSH1 0x40 MLOAD DUP1 PUSH1 0x20 ADD PUSH1 0x40 MSTORE DUP1 PUSH2 0x2A3F PUSH2 0x172B JUMP JUMPDEST SWAP1 MSTORE SWAP1 POP PUSH1 0x0 PUSH2 0x2A4F DUP6 DUP6 PUSH2 0x3229 JUMP JUMPDEST SWAP1 POP PUSH1 0x0 PUSH2 0x2A5D DUP3 DUP5 PUSH2 0x3400 JUMP JUMPDEST SWAP1 POP DUP1 PUSH1 0xD SLOAD PUSH2 0x2A6D SWAP2 SWAP1 PUSH2 0x3918 JUMP JUMPDEST PUSH1 0xD SSTORE PUSH1 0x1 PUSH1 0x1 PUSH1 0xA0 SHL SUB DUP7 AND PUSH1 0x0 SWAP1 DUP2 MSTORE PUSH1 0xE PUSH1 0x20 MSTORE PUSH1 0x40 SWAP1 KECCAK256 SLOAD PUSH2 0x2A94 SWAP1 DUP3 SWAP1 PUSH2 0x3918 JUMP JUMPDEST PUSH1 0x1 PUSH1 0x1 PUSH1 0xA0 SHL SUB DUP8 AND PUSH1 0x0 SWAP1 DUP2 MSTORE PUSH1 0xE PUSH1 0x20 MSTORE PUSH1 0x40 SWAP1 DUP2 SWAP1 KECCAK256 SWAP2 SWAP1 SWAP2 SSTORE MLOAD PUSH32 0x4C209B5FC8AD50758F13E2E1088BA56A560DFF690A1C6FEF26394F4C03821C4F SWAP1 PUSH2 0x2AE4 SWAP1 DUP9 SWAP1 DUP6 SWAP1 DUP6 SWAP1 PUSH2 0x3971 JUMP JUMPDEST PUSH1 0x40 MLOAD DUP1 SWAP2 SUB SWAP1 LOG1 PUSH1 0x40 MLOAD DUP2 DUP2 MSTORE PUSH1 0x1 PUSH1 0x1 PUSH1 0xA0 SHL SUB DUP8 AND SWAP1 ADDRESS SWAP1 PUSH1 0x0 DUP1 MLOAD PUSH1 0x20 PUSH2 0x39DB DUP4 CODECOPY DUP2 MLOAD SWAP2 MSTORE SWAP1 PUSH1 0x20 ADD PUSH1 0x40 MLOAD DUP1 SWAP2 SUB SWAP1 LOG3 PUSH1 0x5 SLOAD PUSH1 0x40 MLOAD PUSH4 0x41C728B9 PUSH1 0xE0 SHL DUP2 MSTORE ADDRESS PUSH1 0x4 DUP3 ADD MSTORE PUSH1 0x1 PUSH1 0x1 PUSH1 0xA0 SHL SUB DUP9 DUP2 AND PUSH1 0x24 DUP4 ADD MSTORE PUSH1 0x44 DUP3 ADD DUP6 SWAP1 MSTORE PUSH1 0x64 DUP3 ADD DUP5 SWAP1 MSTORE SWAP1 SWAP2 AND SWAP1 PUSH4 0x41C728B9 SWAP1 PUSH1 0x84 ADD PUSH1 0x0 PUSH1 0x40 MLOAD DUP1 DUP4 SUB DUP2 PUSH1 0x0 DUP8 DUP1 EXTCODESIZE ISZERO DUP1 ISZERO PUSH2 0x2B75 JUMPI PUSH1 0x0 DUP1 REVERT JUMPDEST POP GAS CALL ISZERO DUP1 ISZERO PUSH2 0x2B89 JUMPI RETURNDATASIZE PUSH1 0x0 DUP1 RETURNDATACOPY RETURNDATASIZE PUSH1 0x0 REVERT JUMPDEST POP POP POP POP POP POP POP POP POP POP JUMP JUMPDEST PUSH1 0x0 PUSH2 0xB62 DUP3 DUP5 PUSH2 0x3930 JUMP JUMPDEST PUSH1 0x0 PUSH2 0xB62 DUP3 DUP5 PUSH2 0x3918 JUMP JUMPDEST PUSH1 0x0 PUSH8 0xDE0B6B3A7640000 PUSH2 0x2BC6 DUP5 DUP5 PUSH1 0x0 ADD MLOAD PUSH2 0x2B95 JUMP JUMPDEST PUSH2 0xB62 SWAP2 SWAP1 PUSH2 0x394F JUMP JUMPDEST PUSH1 0x5 SLOAD PUSH1 0x40 MLOAD PUSH4 0x368F5153 PUSH1 0xE2 SHL DUP2 MSTORE PUSH1 0x0 SWAP2 PUSH1 0x1 PUSH1 0x1 PUSH1 0xA0 SHL SUB AND SWAP1 PUSH4 0xDA3D454C SWAP1 PUSH2 0x2C05 SWAP1 ADDRESS SWAP1 DUP8 SWAP1 DUP8 SWAP1 PUSH1 0x4 ADD PUSH2 0x3992 JUMP JUMPDEST PUSH1 0x20 PUSH1 0x40 MLOAD DUP1 DUP4 SUB DUP2 PUSH1 0x0 DUP8 GAS CALL ISZERO DUP1 ISZERO PUSH2 0x2C24 JUMPI RETURNDATASIZE PUSH1 0x0 DUP1 RETURNDATACOPY RETURNDATASIZE PUSH1 0x0 REVERT JUMPDEST POP POP POP POP PUSH1 0x40 MLOAD RETURNDATASIZE PUSH1 0x1F NOT PUSH1 0x1F DUP3 ADD AND DUP3 ADD DUP1 PUSH1 0x40 MSTORE POP DUP2 ADD SWAP1 PUSH2 0x2C48 SWAP2 SWAP1 PUSH2 0x38B0 JUMP JUMPDEST SWAP1 POP DUP1 ISZERO PUSH2 0x2C6C JUMPI PUSH1 0x40 MLOAD PUSH4 0x918DB40F PUSH1 0xE0 SHL DUP2 MSTORE PUSH1 0x4 DUP2 ADD DUP3 SWAP1 MSTORE PUSH1 0x24 ADD PUSH2 0x815 JUMP JUMPDEST TIMESTAMP PUSH1 0x9 SLOAD EQ PUSH2 0x2C8E JUMPI PUSH1 0x40 MLOAD PUSH4 0xE8D8C61 PUSH1 0xE2 SHL DUP2 MSTORE PUSH1 0x4 ADD PUSH1 0x40 MLOAD DUP1 SWAP2 SUB SWAP1 REVERT JUMPDEST DUP2 PUSH2 0x2C97 PUSH2 0x1A35 JUMP JUMPDEST LT ISZERO PUSH2 0x2CB6 JUMPI PUSH1 0x40 MLOAD PUSH4 0x48C25881 PUSH1 0xE0 SHL DUP2 MSTORE PUSH1 0x4 ADD PUSH1 0x40 MLOAD DUP1 SWAP2 SUB SWAP1 REVERT JUMPDEST PUSH1 0x0 PUSH2 0x2CC1 DUP5 PUSH2 0x1C6D JUMP JUMPDEST SWAP1 POP PUSH1 0x0 PUSH2 0x2CCF DUP5 DUP4 PUSH2 0x3918 JUMP JUMPDEST SWAP1 POP PUSH1 0x0 DUP5 PUSH1 0xB SLOAD PUSH2 0x2CE1 SWAP2 SWAP1 PUSH2 0x3918 JUMP JUMPDEST PUSH1 0x1 PUSH1 0x1 PUSH1 0xA0 SHL SUB DUP8 AND PUSH1 0x0 SWAP1 DUP2 MSTORE PUSH1 0x10 PUSH1 0x20 MSTORE PUSH1 0x40 SWAP1 KECCAK256 DUP4 DUP2 SSTORE PUSH1 0xA SLOAD PUSH1 0x1 SWAP1 SWAP2 ADD SSTORE PUSH1 0xB DUP2 SWAP1 SSTORE SWAP1 POP PUSH2 0x2D16 DUP7 DUP7 PUSH2 0x25A5 JUMP JUMPDEST PUSH1 0x40 DUP1 MLOAD PUSH1 0x1 PUSH1 0x1 PUSH1 0xA0 SHL SUB DUP9 AND DUP2 MSTORE PUSH1 0x20 DUP2 ADD DUP8 SWAP1 MSTORE SWAP1 DUP2 ADD DUP4 SWAP1 MSTORE PUSH1 0x60 DUP2 ADD DUP3 SWAP1 MSTORE PUSH32 0x13ED6866D4E1EE6DA46F845C46D7E54120883D75C5EA9A2DACC1C4CA8984AB80 SWAP1 PUSH1 0x80 ADD PUSH1 0x40 MLOAD DUP1 SWAP2 SUB SWAP1 LOG1 POP POP POP POP POP POP JUMP JUMPDEST PUSH1 0x5 SLOAD PUSH1 0x40 MLOAD PUSH4 0x2FE3F38F PUSH1 0xE1 SHL DUP2 MSTORE ADDRESS PUSH1 0x4 DUP3 ADD MSTORE PUSH1 0x1 PUSH1 0x1 PUSH1 0xA0 SHL SUB DUP4 DUP2 AND PUSH1 0x24 DUP4 ADD MSTORE DUP7 DUP2 AND PUSH1 0x44 DUP4 ADD MSTORE DUP6 DUP2 AND PUSH1 0x64 DUP4 ADD MSTORE PUSH1 0x84 DUP3 ADD DUP6 SWAP1 MSTORE PUSH1 0x0 SWAP3 AND SWAP1 PUSH4 0x5FC7E71E SWAP1 PUSH1 0xA4 ADD PUSH1 0x20 PUSH1 0x40 MLOAD DUP1 DUP4 SUB DUP2 PUSH1 0x0 DUP8 GAS CALL ISZERO DUP1 ISZERO PUSH2 0x2DD9 JUMPI RETURNDATASIZE PUSH1 0x0 DUP1 RETURNDATACOPY RETURNDATASIZE PUSH1 0x0 REVERT JUMPDEST POP POP POP POP PUSH1 0x40 MLOAD RETURNDATASIZE PUSH1 0x1F NOT PUSH1 0x1F DUP3 ADD AND DUP3 ADD DUP1 PUSH1 0x40 MSTORE POP DUP2 ADD SWAP1 PUSH2 0x2DFD SWAP2 SWAP1 PUSH2 0x38B0 JUMP JUMPDEST SWAP1 POP DUP1 ISZERO PUSH2 0x2E21 JUMPI PUSH1 0x40 MLOAD PUSH4 0xA14D179 PUSH1 0xE1 SHL DUP2 MSTORE PUSH1 0x4 DUP2 ADD DUP3 SWAP1 MSTORE PUSH1 0x24 ADD PUSH2 0x815 JUMP JUMPDEST TIMESTAMP PUSH1 0x9 SLOAD EQ PUSH2 0x2E43 JUMPI PUSH1 0x40 MLOAD PUSH4 0x80965B1B PUSH1 0xE0 SHL DUP2 MSTORE PUSH1 0x4 ADD PUSH1 0x40 MLOAD DUP1 SWAP2 SUB SWAP1 REVERT JUMPDEST TIMESTAMP DUP3 PUSH1 0x1 PUSH1 0x1 PUSH1 0xA0 SHL SUB AND PUSH4 0x6C540BAF PUSH1 0x40 MLOAD DUP2 PUSH4 0xFFFFFFFF AND PUSH1 0xE0 SHL DUP2 MSTORE PUSH1 0x4 ADD PUSH1 0x20 PUSH1 0x40 MLOAD DUP1 DUP4 SUB DUP2 DUP7 GAS STATICCALL ISZERO DUP1 ISZERO PUSH2 0x2E82 JUMPI RETURNDATASIZE PUSH1 0x0 DUP1 RETURNDATACOPY RETURNDATASIZE PUSH1 0x0 REVERT JUMPDEST POP POP POP POP PUSH1 0x40 MLOAD RETURNDATASIZE PUSH1 0x1F NOT PUSH1 0x1F DUP3 ADD AND DUP3 ADD DUP1 PUSH1 0x40 MSTORE POP DUP2 ADD SWAP1 PUSH2 0x2EA6 SWAP2 SWAP1 PUSH2 0x38B0 JUMP JUMPDEST EQ PUSH2 0x2EC4 JUMPI PUSH1 0x40 MLOAD PUSH4 0x1046F38D PUSH1 0xE3 SHL DUP2 MSTORE PUSH1 0x4 ADD PUSH1 0x40 MLOAD DUP1 SWAP2 SUB SWAP1 REVERT JUMPDEST DUP5 PUSH1 0x1 PUSH1 0x1 PUSH1 0xA0 SHL SUB AND DUP5 PUSH1 0x1 PUSH1 0x1 PUSH1 0xA0 SHL SUB AND EQ ISZERO PUSH2 0x2EF7 JUMPI PUSH1 0x40 MLOAD PUSH4 0x1BD1A621 PUSH1 0xE2 SHL DUP2 MSTORE PUSH1 0x4 ADD PUSH1 0x40 MLOAD DUP1 SWAP2 SUB SWAP1 REVERT JUMPDEST DUP3 PUSH2 0x2F15 JUMPI PUSH1 0x40 MLOAD PUSH4 0xD29DA7EF PUSH1 0xE0 SHL DUP2 MSTORE PUSH1 0x4 ADD PUSH1 0x40 MLOAD DUP1 SWAP2 SUB SWAP1 REVERT JUMPDEST PUSH1 0x0 NOT DUP4 EQ ISZERO PUSH2 0x2F38 JUMPI PUSH1 0x40 MLOAD PUSH4 0x5982C5BB PUSH1 0xE1 SHL DUP2 MSTORE PUSH1 0x4 ADD PUSH1 0x40 MLOAD DUP1 SWAP2 SUB SWAP1 REVERT JUMPDEST PUSH1 0x0 PUSH2 0x2F45 DUP7 DUP7 DUP7 PUSH2 0x2350 JUMP JUMPDEST PUSH1 0x5 SLOAD PUSH1 0x40 MLOAD PUSH4 0xC488847B PUSH1 0xE0 SHL DUP2 MSTORE SWAP2 SWAP3 POP PUSH1 0x0 SWAP2 DUP3 SWAP2 PUSH1 0x1 PUSH1 0x1 PUSH1 0xA0 SHL SUB AND SWAP1 PUSH4 0xC488847B SWAP1 PUSH2 0x2F7F SWAP1 ADDRESS SWAP1 DUP10 SWAP1 DUP9 SWAP1 PUSH1 0x4 ADD PUSH2 0x3992 JUMP JUMPDEST PUSH1 0x40 DUP1 MLOAD DUP1 DUP4 SUB DUP2 DUP7 GAS STATICCALL ISZERO DUP1 ISZERO PUSH2 0x2F9B JUMPI RETURNDATASIZE PUSH1 0x0 DUP1 RETURNDATACOPY RETURNDATASIZE PUSH1 0x0 REVERT JUMPDEST POP POP POP POP PUSH1 0x40 MLOAD RETURNDATASIZE PUSH1 0x1F NOT PUSH1 0x1F DUP3 ADD AND DUP3 ADD DUP1 PUSH1 0x40 MSTORE POP DUP2 ADD SWAP1 PUSH2 0x2FBF SWAP2 SWAP1 PUSH2 0x39B6 JUMP JUMPDEST SWAP2 POP SWAP2 POP PUSH1 0x0 DUP3 EQ PUSH2 0x302F JUMPI PUSH1 0x40 MLOAD PUSH3 0x461BCD PUSH1 0xE5 SHL DUP2 MSTORE PUSH1 0x20 PUSH1 0x4 DUP3 ADD MSTORE PUSH1 0x33 PUSH1 0x24 DUP3 ADD MSTORE PUSH32 0x4C49515549444154455F434F4D5054524F4C4C45525F43414C43554C4154455F PUSH1 0x44 DUP3 ADD MSTORE PUSH19 0x105353D5539517D4D152569157D19052531151 PUSH1 0x6A SHL PUSH1 0x64 DUP3 ADD MSTORE PUSH1 0x84 ADD PUSH2 0x815 JUMP JUMPDEST PUSH1 0x40 MLOAD PUSH4 0x70A08231 PUSH1 0xE0 SHL DUP2 MSTORE PUSH1 0x1 PUSH1 0x1 PUSH1 0xA0 SHL SUB DUP9 DUP2 AND PUSH1 0x4 DUP4 ADD MSTORE DUP3 SWAP2 SWAP1 DUP8 AND SWAP1 PUSH4 0x70A08231 SWAP1 PUSH1 0x24 ADD PUSH1 0x20 PUSH1 0x40 MLOAD DUP1 DUP4 SUB DUP2 DUP7 GAS STATICCALL ISZERO DUP1 ISZERO PUSH2 0x3078 JUMPI RETURNDATASIZE PUSH1 0x0 DUP1 RETURNDATACOPY RETURNDATASIZE PUSH1 0x0 REVERT JUMPDEST POP POP POP POP PUSH1 0x40 MLOAD RETURNDATASIZE PUSH1 0x1F NOT PUSH1 0x1F DUP3 ADD AND DUP3 ADD DUP1 PUSH1 0x40 MSTORE POP DUP2 ADD SWAP1 PUSH2 0x309C SWAP2 SWAP1 PUSH2 0x38B0 JUMP JUMPDEST LT ISZERO PUSH2 0x30EA JUMPI PUSH1 0x40 MLOAD PUSH3 0x461BCD PUSH1 0xE5 SHL DUP2 MSTORE PUSH1 0x20 PUSH1 0x4 DUP3 ADD MSTORE PUSH1 0x18 PUSH1 0x24 DUP3 ADD MSTORE PUSH32 0x4C49515549444154455F5345495A455F544F4F5F4D5543480000000000000000 PUSH1 0x44 DUP3 ADD MSTORE PUSH1 0x64 ADD PUSH2 0x815 JUMP JUMPDEST PUSH1 0x1 PUSH1 0x1 PUSH1 0xA0 SHL SUB DUP6 AND ADDRESS EQ ISZERO PUSH2 0x310C JUMPI PUSH2 0x3107 ADDRESS DUP10 DUP10 DUP5 PUSH2 0x1EBD JUMP JUMPDEST PUSH2 0x31C6 JUMP JUMPDEST PUSH1 0x40 MLOAD PUSH4 0xB2A02FF1 PUSH1 0xE0 SHL DUP2 MSTORE PUSH1 0x0 SWAP1 PUSH1 0x1 PUSH1 0x1 PUSH1 0xA0 SHL SUB DUP8 AND SWAP1 PUSH4 0xB2A02FF1 SWAP1 PUSH2 0x313F SWAP1 DUP13 SWAP1 DUP13 SWAP1 DUP8 SWAP1 PUSH1 0x4 ADD PUSH2 0x3992 JUMP JUMPDEST PUSH1 0x20 PUSH1 0x40 MLOAD DUP1 DUP4 SUB DUP2 PUSH1 0x0 DUP8 GAS CALL ISZERO DUP1 ISZERO PUSH2 0x315E JUMPI RETURNDATASIZE PUSH1 0x0 DUP1 RETURNDATACOPY RETURNDATASIZE PUSH1 0x0 REVERT JUMPDEST POP POP POP POP PUSH1 0x40 MLOAD RETURNDATASIZE PUSH1 0x1F NOT PUSH1 0x1F DUP3 ADD AND DUP3 ADD DUP1 PUSH1 0x40 MSTORE POP DUP2 ADD SWAP1 PUSH2 0x3182 SWAP2 SWAP1 PUSH2 0x38B0 JUMP JUMPDEST EQ PUSH2 0x31C6 JUMPI PUSH1 0x40 MLOAD PUSH3 0x461BCD PUSH1 0xE5 SHL DUP2 MSTORE PUSH1 0x20 PUSH1 0x4 DUP3 ADD MSTORE PUSH1 0x14 PUSH1 0x24 DUP3 ADD MSTORE PUSH20 0x1D1BDAD95B881CD95A5E9D5C994819985A5B1959 PUSH1 0x62 SHL PUSH1 0x44 DUP3 ADD MSTORE PUSH1 0x64 ADD PUSH2 0x815 JUMP JUMPDEST PUSH1 0x40 DUP1 MLOAD PUSH1 0x1 PUSH1 0x1 PUSH1 0xA0 SHL SUB DUP11 DUP2 AND DUP3 MSTORE DUP10 DUP2 AND PUSH1 0x20 DUP4 ADD MSTORE DUP2 DUP4 ADD DUP7 SWAP1 MSTORE DUP8 AND PUSH1 0x60 DUP3 ADD MSTORE PUSH1 0x80 DUP2 ADD DUP4 SWAP1 MSTORE SWAP1 MLOAD PUSH32 0x298637F684DA70674F26509B10F07EC2FBC77A335AB1E7D6215A4B2484D8BB52 SWAP2 DUP2 SWAP1 SUB PUSH1 0xA0 ADD SWAP1 LOG1 POP POP POP POP POP POP POP POP JUMP JUMPDEST PUSH1 0x11 SLOAD PUSH1 0x40 MLOAD PUSH4 0x70A08231 PUSH1 0xE0 SHL DUP2 MSTORE ADDRESS PUSH1 0x4 DUP3 ADD MSTORE PUSH1 0x0 SWAP2 PUSH1 0x1 PUSH1 0x1 PUSH1 0xA0 SHL SUB AND SWAP1 DUP2 SWAP1 DUP4 SWAP1 DUP3 SWAP1 PUSH4 0x70A08231 SWAP1 PUSH1 0x24 ADD PUSH1 0x20 PUSH1 0x40 MLOAD DUP1 DUP4 SUB DUP2 DUP7 GAS STATICCALL ISZERO DUP1 ISZERO PUSH2 0x3278 JUMPI RETURNDATASIZE PUSH1 0x0 DUP1 RETURNDATACOPY RETURNDATASIZE PUSH1 0x0 REVERT JUMPDEST POP POP POP POP PUSH1 0x40 MLOAD RETURNDATASIZE PUSH1 0x1F NOT PUSH1 0x1F DUP3 ADD AND DUP3 ADD DUP1 PUSH1 0x40 MSTORE POP DUP2 ADD SWAP1 PUSH2 0x329C SWAP2 SWAP1 PUSH2 0x38B0 JUMP JUMPDEST PUSH1 0x40 MLOAD PUSH4 0x23B872DD PUSH1 0xE0 SHL DUP2 MSTORE SWAP1 SWAP2 POP PUSH1 0x1 PUSH1 0x1 PUSH1 0xA0 SHL SUB DUP4 AND SWAP1 PUSH4 0x23B872DD SWAP1 PUSH2 0x32CF SWAP1 DUP10 SWAP1 ADDRESS SWAP1 DUP11 SWAP1 PUSH1 0x4 ADD PUSH2 0x3992 JUMP JUMPDEST PUSH1 0x0 PUSH1 0x40 MLOAD DUP1 DUP4 SUB DUP2 PUSH1 0x0 DUP8 DUP1 EXTCODESIZE ISZERO DUP1 ISZERO PUSH2 0x32E9 JUMPI PUSH1 0x0 DUP1 REVERT JUMPDEST POP GAS CALL ISZERO DUP1 ISZERO PUSH2 0x32FD JUMPI RETURNDATASIZE PUSH1 0x0 DUP1 RETURNDATACOPY RETURNDATASIZE PUSH1 0x0 REVERT JUMPDEST POP POP POP POP PUSH1 0x0 RETURNDATASIZE PUSH1 0x0 DUP2 EQ PUSH2 0x3319 JUMPI PUSH1 0x20 DUP2 EQ PUSH2 0x3323 JUMPI PUSH1 0x0 DUP1 REVERT JUMPDEST PUSH1 0x0 NOT SWAP2 POP PUSH2 0x332F JUMP JUMPDEST PUSH1 0x20 PUSH1 0x0 DUP1 RETURNDATACOPY PUSH1 0x0 MLOAD SWAP2 POP JUMPDEST POP DUP1 PUSH2 0x337D JUMPI PUSH1 0x40 MLOAD PUSH3 0x461BCD PUSH1 0xE5 SHL DUP2 MSTORE PUSH1 0x20 PUSH1 0x4 DUP3 ADD MSTORE PUSH1 0x18 PUSH1 0x24 DUP3 ADD MSTORE PUSH32 0x544F4B454E5F5452414E534645525F494E5F4641494C45440000000000000000 PUSH1 0x44 DUP3 ADD MSTORE PUSH1 0x64 ADD PUSH2 0x815 JUMP JUMPDEST PUSH1 0x40 MLOAD PUSH4 0x70A08231 PUSH1 0xE0 SHL DUP2 MSTORE ADDRESS PUSH1 0x4 DUP3 ADD MSTORE PUSH1 0x0 SWAP1 PUSH1 0x1 PUSH1 0x1 PUSH1 0xA0 SHL SUB DUP7 AND SWAP1 PUSH4 0x70A08231 SWAP1 PUSH1 0x24 ADD PUSH1 0x20 PUSH1 0x40 MLOAD DUP1 DUP4 SUB DUP2 DUP7 GAS STATICCALL ISZERO DUP1 ISZERO PUSH2 0x33C4 JUMPI RETURNDATASIZE PUSH1 0x0 DUP1 RETURNDATACOPY RETURNDATASIZE PUSH1 0x0 REVERT JUMPDEST POP POP POP POP PUSH1 0x40 MLOAD RETURNDATASIZE PUSH1 0x1F NOT PUSH1 0x1F DUP3 ADD AND DUP3 ADD DUP1 PUSH1 0x40 MSTORE POP DUP2 ADD SWAP1 PUSH2 0x33E8 SWAP2 SWAP1 PUSH2 0x38B0 JUMP JUMPDEST SWAP1 POP PUSH2 0x33F4 DUP4 DUP3 PUSH2 0x3901 JUMP JUMPDEST SWAP9 SWAP8 POP POP POP POP POP POP POP POP JUMP JUMPDEST PUSH1 0x0 PUSH2 0xB62 PUSH2 0x3417 DUP5 PUSH8 0xDE0B6B3A7640000 PUSH2 0x2B95 JUMP JUMPDEST DUP4 MLOAD PUSH1 0x0 PUSH2 0xB62 DUP3 DUP5 PUSH2 0x394F JUMP JUMPDEST DUP3 DUP1 SLOAD PUSH2 0x3431 SWAP1 PUSH2 0x3851 JUMP JUMPDEST SWAP1 PUSH1 0x0 MSTORE PUSH1 0x20 PUSH1 0x0 KECCAK256 SWAP1 PUSH1 0x1F ADD PUSH1 0x20 SWAP1 DIV DUP2 ADD SWAP3 DUP3 PUSH2 0x3453 JUMPI PUSH1 0x0 DUP6 SSTORE PUSH2 0x3499 JUMP JUMPDEST DUP3 PUSH1 0x1F LT PUSH2 0x346C JUMPI DUP1 MLOAD PUSH1 0xFF NOT AND DUP4 DUP1 ADD OR DUP6 SSTORE PUSH2 0x3499 JUMP JUMPDEST DUP3 DUP1 ADD PUSH1 0x1 ADD DUP6 SSTORE DUP3 ISZERO PUSH2 0x3499 JUMPI SWAP2 DUP3 ADD JUMPDEST DUP3 DUP2 GT ISZERO PUSH2 0x3499 JUMPI DUP3 MLOAD DUP3 SSTORE SWAP2 PUSH1 0x20 ADD SWAP2 SWAP1 PUSH1 0x1 ADD SWAP1 PUSH2 0x347E JUMP JUMPDEST POP PUSH2 0x1791 SWAP3 SWAP2 POP JUMPDEST DUP1 DUP3 GT ISZERO PUSH2 0x1791 JUMPI PUSH1 0x0 DUP2 SSTORE PUSH1 0x1 ADD PUSH2 0x34A1 JUMP JUMPDEST PUSH1 0x0 PUSH1 0x20 DUP1 DUP4 MSTORE DUP4 MLOAD DUP1 DUP3 DUP6 ADD MSTORE PUSH1 0x0 JUMPDEST DUP2 DUP2 LT ISZERO PUSH2 0x34E2 JUMPI DUP6 DUP2 ADD DUP4 ADD MLOAD DUP6 DUP3 ADD PUSH1 0x40 ADD MSTORE DUP3 ADD PUSH2 0x34C6 JUMP JUMPDEST DUP2 DUP2 GT ISZERO PUSH2 0x34F4 JUMPI PUSH1 0x0 PUSH1 0x40 DUP4 DUP8 ADD ADD MSTORE JUMPDEST POP PUSH1 0x1F ADD PUSH1 0x1F NOT AND SWAP3 SWAP1 SWAP3 ADD PUSH1 0x40 ADD SWAP4 SWAP3 POP POP POP JUMP JUMPDEST PUSH1 0x1 PUSH1 0x1 PUSH1 0xA0 SHL SUB DUP2 AND DUP2 EQ PUSH2 0x351F JUMPI PUSH1 0x0 DUP1 REVERT JUMPDEST POP JUMP JUMPDEST PUSH1 0x0 DUP1 PUSH1 0x40 DUP4 DUP6 SUB SLT ISZERO PUSH2 0x3535 JUMPI PUSH1 0x0 DUP1 REVERT JUMPDEST DUP3 CALLDATALOAD PUSH2 0x3540 DUP2 PUSH2 0x350A JUMP JUMPDEST SWAP5 PUSH1 0x20 SWAP4 SWAP1 SWAP4 ADD CALLDATALOAD SWAP4 POP POP POP JUMP JUMPDEST PUSH1 0x0 PUSH1 0x20 DUP3 DUP5 SUB SLT ISZERO PUSH2 0x3560 JUMPI PUSH1 0x0 DUP1 REVERT JUMPDEST POP CALLDATALOAD SWAP2 SWAP1 POP JUMP JUMPDEST PUSH1 0x0 PUSH1 0x20 DUP3 DUP5 SUB SLT ISZERO PUSH2 0x3579 JUMPI PUSH1 0x0 DUP1 REVERT JUMPDEST DUP2 CALLDATALOAD PUSH2 0xB62 DUP2 PUSH2 0x350A JUMP JUMPDEST PUSH4 0x4E487B71 PUSH1 0xE0 SHL PUSH1 0x0 MSTORE PUSH1 0x41 PUSH1 0x4 MSTORE PUSH1 0x24 PUSH1 0x0 REVERT JUMPDEST PUSH1 0x0 DUP3 PUSH1 0x1F DUP4 ADD SLT PUSH2 0x35AB JUMPI PUSH1 0x0 DUP1 REVERT JUMPDEST DUP2 CALLDATALOAD PUSH8 0xFFFFFFFFFFFFFFFF DUP1 DUP3 GT ISZERO PUSH2 0x35C6 JUMPI PUSH2 0x35C6 PUSH2 0x3584 JUMP JUMPDEST PUSH1 0x40 MLOAD PUSH1 0x1F DUP4 ADD PUSH1 0x1F NOT SWAP1 DUP2 AND PUSH1 0x3F ADD AND DUP2 ADD SWAP1 DUP3 DUP3 GT DUP2 DUP4 LT OR ISZERO PUSH2 0x35EE JUMPI PUSH2 0x35EE PUSH2 0x3584 JUMP JUMPDEST DUP2 PUSH1 0x40 MSTORE DUP4 DUP2 MSTORE DUP7 PUSH1 0x20 DUP6 DUP9 ADD ADD GT ISZERO PUSH2 0x3607 JUMPI PUSH1 0x0 DUP1 REVERT JUMPDEST DUP4 PUSH1 0x20 DUP8 ADD PUSH1 0x20 DUP4 ADD CALLDATACOPY PUSH1 0x0 PUSH1 0x20 DUP6 DUP4 ADD ADD MSTORE DUP1 SWAP5 POP POP POP POP POP SWAP3 SWAP2 POP POP JUMP JUMPDEST DUP1 CALLDATALOAD PUSH1 0xFF DUP2 AND DUP2 EQ PUSH2 0x3638 JUMPI PUSH1 0x0 DUP1 REVERT JUMPDEST SWAP2 SWAP1 POP JUMP JUMPDEST PUSH1 0x0 DUP1 PUSH1 0x0 DUP1 PUSH1 0x0 DUP1 PUSH1 0x0 PUSH1 0xE0 DUP9 DUP11 SUB SLT ISZERO PUSH2 0x3658 JUMPI PUSH1 0x0 DUP1 REVERT JUMPDEST DUP8 CALLDATALOAD PUSH2 0x3663 DUP2 PUSH2 0x350A JUMP JUMPDEST SWAP7 POP PUSH1 0x20 DUP9 ADD CALLDATALOAD PUSH2 0x3673 DUP2 PUSH2 0x350A JUMP JUMPDEST SWAP6 POP PUSH1 0x40 DUP9 ADD CALLDATALOAD PUSH2 0x3683 DUP2 PUSH2 0x350A JUMP JUMPDEST SWAP5 POP PUSH1 0x60 DUP9 ADD CALLDATALOAD SWAP4 POP PUSH1 0x80 DUP9 ADD CALLDATALOAD PUSH8 0xFFFFFFFFFFFFFFFF DUP1 DUP3 GT ISZERO PUSH2 0x36A7 JUMPI PUSH1 0x0 DUP1 REVERT JUMPDEST PUSH2 0x36B3 DUP12 DUP4 DUP13 ADD PUSH2 0x359A JUMP JUMPDEST SWAP5 POP PUSH1 0xA0 DUP11 ADD CALLDATALOAD SWAP2 POP DUP1 DUP3 GT ISZERO PUSH2 0x36C9 JUMPI PUSH1 0x0 DUP1 REVERT JUMPDEST POP PUSH2 0x36D6 DUP11 DUP3 DUP12 ADD PUSH2 0x359A JUMP JUMPDEST SWAP3 POP POP PUSH2 0x36E5 PUSH1 0xC0 DUP10 ADD PUSH2 0x3627 JUMP JUMPDEST SWAP1 POP SWAP3 SWAP6 SWAP9 SWAP2 SWAP5 SWAP8 POP SWAP3 SWAP6 POP JUMP JUMPDEST PUSH1 0x0 DUP1 PUSH1 0x0 PUSH1 0x60 DUP5 DUP7 SUB SLT ISZERO PUSH2 0x3708 JUMPI PUSH1 0x0 DUP1 REVERT JUMPDEST DUP4 CALLDATALOAD PUSH2 0x3713 DUP2 PUSH2 0x350A JUMP JUMPDEST SWAP3 POP PUSH1 0x20 DUP5 ADD CALLDATALOAD PUSH2 0x3723 DUP2 PUSH2 0x350A JUMP JUMPDEST SWAP3 SWAP6 SWAP3 SWAP5 POP POP POP PUSH1 0x40 SWAP2 SWAP1 SWAP2 ADD CALLDATALOAD SWAP1 JUMP JUMPDEST PUSH1 0x0 DUP1 PUSH1 0x0 DUP1 PUSH1 0x0 DUP1 PUSH1 0xC0 DUP8 DUP10 SUB SLT ISZERO PUSH2 0x374D JUMPI PUSH1 0x0 DUP1 REVERT JUMPDEST DUP7 CALLDATALOAD PUSH2 0x3758 DUP2 PUSH2 0x350A JUMP JUMPDEST SWAP6 POP PUSH1 0x20 DUP8 ADD CALLDATALOAD PUSH2 0x3768 DUP2 PUSH2 0x350A JUMP JUMPDEST SWAP5 POP PUSH1 0x40 DUP8 ADD CALLDATALOAD SWAP4 POP PUSH1 0x60 DUP8 ADD CALLDATALOAD PUSH8 0xFFFFFFFFFFFFFFFF DUP1 DUP3 GT ISZERO PUSH2 0x378C JUMPI PUSH1 0x0 DUP1 REVERT JUMPDEST PUSH2 0x3798 DUP11 DUP4 DUP12 ADD PUSH2 0x359A JUMP JUMPDEST SWAP5 POP PUSH1 0x80 DUP10 ADD CALLDATALOAD SWAP2 POP DUP1 DUP3 GT ISZERO PUSH2 0x37AE JUMPI PUSH1 0x0 DUP1 REVERT JUMPDEST POP PUSH2 0x37BB DUP10 DUP3 DUP11 ADD PUSH2 0x359A JUMP JUMPDEST SWAP3 POP POP PUSH2 0x37CA PUSH1 0xA0 DUP9 ADD PUSH2 0x3627 JUMP JUMPDEST SWAP1 POP SWAP3 SWAP6 POP SWAP3 SWAP6 POP SWAP3 SWAP6 JUMP JUMPDEST PUSH1 0x0 DUP1 PUSH1 0x40 DUP4 DUP6 SUB SLT ISZERO PUSH2 0x37E9 JUMPI PUSH1 0x0 DUP1 REVERT JUMPDEST DUP3 CALLDATALOAD PUSH2 0x37F4 DUP2 PUSH2 0x350A JUMP JUMPDEST SWAP2 POP PUSH1 0x20 DUP4 ADD CALLDATALOAD PUSH2 0x3804 DUP2 PUSH2 0x350A JUMP JUMPDEST DUP1 SWAP2 POP POP SWAP3 POP SWAP3 SWAP1 POP JUMP JUMPDEST PUSH1 0x0 DUP1 PUSH1 0x0 PUSH1 0x60 DUP5 DUP7 SUB SLT ISZERO PUSH2 0x3824 JUMPI PUSH1 0x0 DUP1 REVERT JUMPDEST DUP4 CALLDATALOAD PUSH2 0x382F DUP2 PUSH2 0x350A JUMP JUMPDEST SWAP3 POP PUSH1 0x20 DUP5 ADD CALLDATALOAD SWAP2 POP PUSH1 0x40 DUP5 ADD CALLDATALOAD PUSH2 0x3846 DUP2 PUSH2 0x350A JUMP JUMPDEST DUP1 SWAP2 POP POP SWAP3 POP SWAP3 POP SWAP3 JUMP JUMPDEST PUSH1 0x1 DUP2 DUP2 SHR SWAP1 DUP3 AND DUP1 PUSH2 0x3865 JUMPI PUSH1 0x7F DUP3 AND SWAP2 POP JUMPDEST PUSH1 0x20 DUP3 LT DUP2 EQ ISZERO PUSH2 0x3886 JUMPI PUSH4 0x4E487B71 PUSH1 0xE0 SHL PUSH1 0x0 MSTORE PUSH1 0x22 PUSH1 0x4 MSTORE PUSH1 0x24 PUSH1 0x0 REVERT JUMPDEST POP SWAP2 SWAP1 POP JUMP JUMPDEST PUSH1 0x20 DUP1 DUP3 MSTORE PUSH1 0xA SWAP1 DUP3 ADD MSTORE PUSH10 0x1C994B595B9D195C9959 PUSH1 0xB2 SHL PUSH1 0x40 DUP3 ADD MSTORE PUSH1 0x60 ADD SWAP1 JUMP JUMPDEST PUSH1 0x0 PUSH1 0x20 DUP3 DUP5 SUB SLT ISZERO PUSH2 0x38C2 JUMPI PUSH1 0x0 DUP1 REVERT JUMPDEST POP MLOAD SWAP2 SWAP1 POP JUMP JUMPDEST PUSH1 0x0 PUSH1 0x20 DUP3 DUP5 SUB SLT ISZERO PUSH2 0x38DB JUMPI PUSH1 0x0 DUP1 REVERT JUMPDEST DUP2 MLOAD DUP1 ISZERO ISZERO DUP2 EQ PUSH2 0xB62 JUMPI PUSH1 0x0 DUP1 REVERT JUMPDEST PUSH4 0x4E487B71 PUSH1 0xE0 SHL PUSH1 0x0 MSTORE PUSH1 0x11 PUSH1 0x4 MSTORE PUSH1 0x24 PUSH1 0x0 REVERT JUMPDEST PUSH1 0x0 DUP3 DUP3 LT ISZERO PUSH2 0x3913 JUMPI PUSH2 0x3913 PUSH2 0x38EB JUMP JUMPDEST POP SUB SWAP1 JUMP JUMPDEST PUSH1 0x0 DUP3 NOT DUP3 GT ISZERO PUSH2 0x392B JUMPI PUSH2 0x392B PUSH2 0x38EB JUMP JUMPDEST POP ADD SWAP1 JUMP JUMPDEST PUSH1 0x0 DUP2 PUSH1 0x0 NOT DIV DUP4 GT DUP3 ISZERO ISZERO AND ISZERO PUSH2 0x394A JUMPI PUSH2 0x394A PUSH2 0x38EB JUMP JUMPDEST POP MUL SWAP1 JUMP JUMPDEST PUSH1 0x0 DUP3 PUSH2 0x396C JUMPI PUSH4 0x4E487B71 PUSH1 0xE0 SHL PUSH1 0x0 MSTORE PUSH1 0x12 PUSH1 0x4 MSTORE PUSH1 0x24 PUSH1 0x0 REVERT JUMPDEST POP DIV SWAP1 JUMP JUMPDEST PUSH1 0x1 PUSH1 0x1 PUSH1 0xA0 SHL SUB SWAP4 SWAP1 SWAP4 AND DUP4 MSTORE PUSH1 0x20 DUP4 ADD SWAP2 SWAP1 SWAP2 MSTORE PUSH1 0x40 DUP3 ADD MSTORE PUSH1 0x60 ADD SWAP1 JUMP JUMPDEST PUSH1 0x1 PUSH1 0x1 PUSH1 0xA0 SHL SUB SWAP4 DUP5 AND DUP2 MSTORE SWAP2 SWAP1 SWAP3 AND PUSH1 0x20 DUP3 ADD MSTORE PUSH1 0x40 DUP2 ADD SWAP2 SWAP1 SWAP2 MSTORE PUSH1 0x60 ADD SWAP1 JUMP JUMPDEST PUSH1 0x0 DUP1 PUSH1 0x40 DUP4 DUP6 SUB SLT ISZERO PUSH2 0x39C9 JUMPI PUSH1 0x0 DUP1 REVERT JUMPDEST POP POP DUP1 MLOAD PUSH1 0x20 SWAP1 SWAP2 ADD MLOAD SWAP1 SWAP3 SWAP1 SWAP2 POP JUMP INVALID 0xDD CALLCODE MSTORE 0xAD SHL 0xE2 0xC8 SWAP12 PUSH10 0xC2B068FC378DAA952BA7 CALL PUSH4 0xC4A11628 CREATE2 GAS 0x4D CREATE2 0x23 0xB3 0xEF LOG2 PUSH5 0x6970667358 0x22 SLT KECCAK256 0xCE SWAP3 PUSH6 0x71C28F011F5D 0x21 PUSH5 0x45C5294320 PUSH25 0xAFCDB1757E138C7B79980CAD0557EC64736F6C634300080A00 CALLER "
	},
	"Assembly": ".code\n  PUSH 80\t\t\tcontract CErc20Immutable is CE...\n  PUSH 40\t\t\tcontract CErc20Immutable is CE...\n  MSTORE \t\t\tcontract CErc20Immutable is CE...\n  CALLVALUE \t\t\tconstructor(address underlying...\n  DUP1 \t\t\tconstructor(address underlying...\n  ISZERO \t\t\tconstructor(address underlying...\n  PUSH [tag] 1\t\t\tconstructor(address underlying...\n  JUMPI \t\t\tconstructor(address underlying...\n  PUSH 0\t\t\tconstructor(address underlying...\n  DUP1 \t\t\tconstructor(address underlying...\n  REVERT \t\t\tconstructor(address underlying...\ntag 1\t\t\tconstructor(address underlying...\n  JUMPDEST \t\t\tconstructor(address underlying...\n  POP \t\t\tconstructor(address underlying...\n  PUSH 40\t\t\tconstructor(address underlying...\n  MLOAD \t\t\tconstructor(address underlying...\n  PUSHSIZE \t\t\tconstructor(address underlying...\n  CODESIZE \t\t\tconstructor(address underlying...\n  SUB \t\t\tconstructor(address underlying...\n  DUP1 \t\t\tconstructor(address underlying...\n  PUSHSIZE \t\t\tconstructor(address underlying...\n  DUP4 \t\t\tconstructor(address underlying...\n  CODECOPY \t\t\tconstructor(address underlying...\n  DUP2 \t\t\tconstructor(address underlying...\n  ADD \t\t\tconstructor(address underlying...\n  PUSH 40\t\t\tconstructor(address underlying...\n  DUP2 \t\t\tconstructor(address underlying...\n  SWAP1 \t\t\tconstructor(address underlying...\n  MSTORE \t\t\tconstructor(address underlying...\n  PUSH [tag] 2\t\t\tconstructor(address underlying...\n  SWAP2 \t\t\tconstructor(address underlying...\n  PUSH [tag] 3\t\t\tconstructor(address underlying...\n  JUMP [in]\t\t\tconstructor(address underlying...\ntag 2\t\t\tconstructor(address underlying...\n  JUMPDEST \t\t\tconstructor(address underlying...\n  PUSH 3\t\t\tadmin\n  DUP1 \t\t\tadmin = payable(msg.sender)\n  SLOAD \t\t\tadmin = payable(msg.sender)\n  PUSH 100\t\t\t\n  PUSH 1\t\t\t\n  PUSH A8\t\t\t\n  SHL \t\t\t\n  SUB \t\t\t\n  NOT \t\t\t\n  AND \t\t\tadmin = payable(msg.sender)\n  CALLER \t\t\tmsg.sender\n  PUSH 100\t\t\tadmin = payable(msg.sender)\n  MUL \t\t\tadmin = payable(msg.sender)\n  OR \t\t\tadmin = payable(msg.sender)\n  SWAP1 \t\t\tadmin = payable(msg.sender)\n  SSTORE \t\t\tadmin = payable(msg.sender)\n  PUSH [tag] 6\t\t\tinitialize(underlying_, comptr...\n  DUP9 \t\t\tunderlying_\n  DUP9 \t\t\tcomptroller_\n  DUP9 \t\t\tinterestRateModel_\n  DUP9 \t\t\tinitialExchangeRateMantissa_\n  DUP9 \t\t\tname_\n  DUP9 \t\t\tsymbol_\n  DUP9 \t\t\tdecimals_\n  PUSH [tag] 7\t\t\tinitialize\n  JUMP [in]\t\t\tinitialize(underlying_, comptr...\ntag 6\t\t\tinitialize(underlying_, comptr...\n  JUMPDEST \t\t\tinitialize(underlying_, comptr...\n  PUSH 3\t\t\tadmin\n  DUP1 \t\t\tadmin = admin_\n  SLOAD \t\t\tadmin = admin_\n  PUSH 1\t\t\t\n  PUSH 1\t\t\t\n  PUSH A0\t\t\t\n  SHL \t\t\t\n  SUB \t\t\t\n  SWAP1 \t\t\tadmin = admin_\n  SWAP3 \t\t\tadmin = admin_\n  AND \t\t\tadmin = admin_\n  PUSH 100\t\t\tadmin = admin_\n  MUL \t\t\tadmin = admin_\n  PUSH 100\t\t\t\n  PUSH 1\t\t\t\n  PUSH A8\t\t\t\n  SHL \t\t\t\n  SUB \t\t\t\n  NOT \t\t\t\n  SWAP1 \t\t\tadmin = admin_\n  SWAP3 \t\t\tadmin = admin_\n  AND \t\t\tadmin = admin_\n  SWAP2 \t\t\tadmin = admin_\n  SWAP1 \t\t\tadmin = admin_\n  SWAP2 \t\t\tadmin = admin_\n  OR \t\t\tadmin = admin_\n  SWAP1 \t\t\tadmin = admin_\n  SSTORE \t\t\tadmin = admin_\n  POP \t\t\t\n  PUSH [tag] 80\t\t\tcontract CErc20Immutable is CE...\n  SWAP6 \t\t\tcontract CErc20Immutable is CE...\n  POP \t\t\t\n  POP \t\t\t\n  POP \t\t\t\n  POP \t\t\t\n  POP \t\t\t\n  POP \t\t\t\n  JUMP \t\t\tcontract CErc20Immutable is CE...\ntag 7\t\t\t  constructor(address underlyi...\n  JUMPDEST \t\t\t  constructor(address underlyi...\n  PUSH [tag] 10\t\t\tayable(msg.sender);\\r\\n\\r\\n   ...\n  DUP7 \t\t\t);\\r\\n\\r\\n      \n  DUP7 \t\t\t// Initialize the \n  DUP7 \t\t\trket\\r\\n        initialize(und\n  DUP7 \t\t\tlying\n  DUP7 \t\t\t comptr\n  DUP7 \t\t\tler_, int\n  PUSH [tag] 11\t\t\tayable(msg.sende\n  PUSH 20\t\t\tayable(msg.sende\n  SHL \t\t\tayable(msg.sende\n  PUSH [tag] 18446744073709551804\t\t\tayable(msg.sende\n  OR \t\t\tayable(msg.sende\n  PUSH 20\t\t\tayable(msg.sender);\\r\\n\\r\\n   ...\n  SHR \t\t\tayable(msg.sender);\\r\\n\\r\\n   ...\n  JUMP [in]\t\t\tayable(msg.sender);\\r\\n\\r\\n   ...\ntag 10\t\t\tayable(msg.sender);\\r\\n\\r\\n   ...\n  JUMPDEST \t\t\tayable(msg.sender);\\r\\n\\r\\n   ...\n  PUSH 11\t\t\t, decimals\n  DUP1 \t\t\t, decimals_);\\r\\n\\r\\n       \n  SLOAD \t\t\t, decimals_);\\r\\n\\r\\n       \n  PUSH 1\t\t\t\n  PUSH 1\t\t\t\n  PUSH A0\t\t\t\n  SHL \t\t\t\n  SUB \t\t\t\n  NOT \t\t\t\n  AND \t\t\t, decimals_);\\r\\n\\r\\n       \n  PUSH 1\t\t\t\n  PUSH 1\t\t\t\n  PUSH A0\t\t\t\n  SHL \t\t\t\n  SUB \t\t\t\n  DUP10 \t\t\t, decimals_);\\r\\n\\r\\n       \n  AND \t\t\t, decimals_);\\r\\n\\r\\n       \n  SWAP1 \t\t\t, decimals_);\\r\\n\\r\\n       \n  DUP2 \t\t\t, decimals_);\\r\\n\\r\\n       \n  OR \t\t\t, decimals_);\\r\\n\\r\\n       \n  SWAP1 \t\t\t, decimals_);\\r\\n\\r\\n       \n  SWAP2 \t\t\t, decimals_);\\r\\n\\r\\n       \n  SSTORE \t\t\t, decimals_);\\r\\n\\r\\n       \n  PUSH 40\t\t\t proper admin now that initial...\n  DUP1 \t\t\t proper admin now that initial...\n  MLOAD \t\t\t proper admin now that initial...\n  PUSH 18160DDD\t\t\t\n  PUSH E0\t\t\t\n  SHL \t\t\t\n  DUP2 \t\t\t proper admin now that initial...\n  MSTORE \t\t\t proper admin now that initial...\n  SWAP1 \t\t\t proper admin now that initial...\n  MLOAD \t\t\t proper admin now that initial...\n  PUSH 18160DDD\t\t\t proper admin now that initial...\n  SWAP2 \t\t\t proper admin now that initial...\n  PUSH 4\t\t\t proper admin now that initial...\n  DUP1 \t\t\t proper admin now that initial...\n  DUP3 \t\t\t proper admin now that initial...\n  ADD \t\t\t proper admin now that initial...\n  SWAP3 \t\t\t proper admin now that initial...\n  PUSH 20\t\t\t proper admin now that initial...\n  SWAP3 \t\t\t proper admin now that initial...\n  SWAP1 \t\t\t proper admin now that initial...\n  SWAP2 \t\t\t proper admin now that initial...\n  SWAP1 \t\t\t proper admin now that initial...\n  DUP3 \t\t\t proper admin now that initial...\n  SWAP1 \t\t\t proper admin now that initial...\n  SUB \t\t\t proper admin now that initial...\n  ADD \t\t\t proper admin now that initial...\n  DUP2 \t\t\t proper admin now that initial...\n  DUP7 \t\t\t, decimals_);\\r\\n\\r\\n       \n  GAS \t\t\t proper admin now that initial...\n  STATICCALL \t\t\t proper admin now that initial...\n  ISZERO \t\t\t proper admin now that initial...\n  DUP1 \t\t\t proper admin now that initial...\n  ISZERO \t\t\t proper admin now that initial...\n  PUSH [tag] 13\t\t\t proper admin now that initial...\n  JUMPI \t\t\t proper admin now that initial...\n  RETURNDATASIZE \t\t\t proper admin now that initial...\n  PUSH 0\t\t\t proper admin now that initial...\n  DUP1 \t\t\t proper admin now that initial...\n  RETURNDATACOPY \t\t\t proper admin now that initial...\n  RETURNDATASIZE \t\t\t proper admin now that initial...\n  PUSH 0\t\t\t proper admin now that initial...\n  REVERT \t\t\t proper admin now that initial...\ntag 13\t\t\t proper admin now that initial...\n  JUMPDEST \t\t\t proper admin now that initial...\n  POP \t\t\t proper admin now that initial...\n  POP \t\t\t proper admin now that initial...\n  POP \t\t\t proper admin now that initial...\n  POP \t\t\t proper admin now that initial...\n  PUSH 40\t\t\t proper admin now that initial...\n  MLOAD \t\t\t proper admin now that initial...\n  RETURNDATASIZE \t\t\t proper admin now that initial...\n  PUSH 1F\t\t\t proper admin now that initial...\n  NOT \t\t\t proper admin now that initial...\n  PUSH 1F\t\t\t proper admin now that initial...\n  DUP3 \t\t\t proper admin now that initial...\n  ADD \t\t\t proper admin now that initial...\n  AND \t\t\t proper admin now that initial...\n  DUP3 \t\t\t proper admin now that initial...\n  ADD \t\t\t proper admin now that initial...\n  DUP1 \t\t\t proper admin now that initial...\n  PUSH 40\t\t\t proper admin now that initial...\n  MSTORE \t\t\t proper admin now that initial...\n  POP \t\t\t proper admin now that initial...\n  DUP2 \t\t\t proper admin now that initial...\n  ADD \t\t\t proper admin now that initial...\n  SWAP1 \t\t\t proper admin now that initial...\n  PUSH [tag] 14\t\t\t proper admin now that initial...\n  SWAP2 \t\t\t proper admin now that initial...\n  SWAP1 \t\t\t proper admin now that initial...\n  PUSH [tag] 15\t\t\t proper admin now that initial...\n  JUMP [in]\t\t\t proper admin now that initial...\ntag 14\t\t\t proper admin now that initial...\n  JUMPDEST \t\t\t proper admin now that initial...\n  POP \t\t\t proper admin now that initial...\n  POP \t\t\t  constructor(address underlyi...\n  POP \t\t\t  constructor(address underlyi...\n  POP \t\t\t  constructor(address underlyi...\n  POP \t\t\t  constructor(address underlyi...\n  POP \t\t\t  constructor(address underlyi...\n  POP \t\t\t  constructor(address underlyi...\n  POP \t\t\t  constructor(address underlyi...\n  JUMP [out]\t\t\t  constructor(address underlyi...\ntag 11\t\t\toller_,\\r\\n                Int...\n  JUMPDEST \t\t\toller_,\\r\\n                Int...\n  PUSH 3\t\t\tthe c\n  SLOAD \t\t\tthe c\n  PUSH 100\t\t\tthe c\n  SWAP1 \t\t\tthe c\n  DIV \t\t\tthe c\n  PUSH 1\t\t\t\n  PUSH 1\t\t\t\n  PUSH A0\t\t\t\n  SHL \t\t\t\n  SUB \t\t\t\n  AND \t\t\tthe c\n  CALLER \t\t\t// Creator\n  EQ \t\t\t// Creator of the c\n  PUSH [tag] 17\t\t\t        // Creator of the cont...\n  JUMPI \t\t\t        // Creator of the cont...\n  PUSH 40\t\t\t        // Creator of the cont...\n  MLOAD \t\t\t        // Creator of the cont...\n  PUSH 461BCD\t\t\t\n  PUSH E5\t\t\t\n  SHL \t\t\t\n  DUP2 \t\t\t        // Creator of the cont...\n  MSTORE \t\t\t        // Creator of the cont...\n  PUSH 20\t\t\t\n  PUSH 4\t\t\t        // Creator of the cont...\n  DUP3 \t\t\t        // Creator of the cont...\n  ADD \t\t\t        // Creator of the cont...\n  MSTORE \t\t\t\n  PUSH 24\t\t\t\n  DUP1 \t\t\t\n  DUP3 \t\t\t\n  ADD \t\t\t\n  MSTORE \t\t\t\n  PUSH 6F6E6C792061646D696E206D617920696E697469616C697A6520746865206D61\t\t\t\n  PUSH 44\t\t\t\n  DUP3 \t\t\t\n  ADD \t\t\t\n  MSTORE \t\t\t\n  PUSH 1C9AD95D\t\t\t\n  PUSH E2\t\t\t\n  SHL \t\t\t\n  PUSH 64\t\t\t\n  DUP3 \t\t\t\n  ADD \t\t\t\n  MSTORE \t\t\t\n  PUSH 84\t\t\t\n  ADD \t\t\t\ntag 18\t\t\t        // Creator of the cont...\n  JUMPDEST \t\t\t        // Creator of the cont...\n  PUSH 40\t\t\t        // Creator of the cont...\n  MLOAD \t\t\t        // Creator of the cont...\n  DUP1 \t\t\t        // Creator of the cont...\n  SWAP2 \t\t\t        // Creator of the cont...\n  SUB \t\t\t        // Creator of the cont...\n  SWAP1 \t\t\t        // Creator of the cont...\n  REVERT \t\t\t        // Creator of the cont...\ntag 17\t\t\t        // Creator of the cont...\n  JUMPDEST \t\t\t        // Creator of the cont...\n  PUSH 9\t\t\t);\\r\\n\\r\\n        // I\n  SLOAD \t\t\t);\\r\\n\\r\\n        // I\n  ISZERO \t\t\t);\\r\\n\\r\\n        // Initia\n  DUP1 \t\t\t);\\r\\n\\r\\n        // Initializ...\n  ISZERO \t\t\t);\\r\\n\\r\\n        // Initializ...\n  PUSH [tag] 20\t\t\t);\\r\\n\\r\\n        // Initializ...\n  JUMPI \t\t\t);\\r\\n\\r\\n        // Initializ...\n  POP \t\t\t\n  PUSH A\t\t\t the market\n  SLOAD \t\t\t the market\n  ISZERO \t\t\t the market\\r\\n   \ntag 20\t\t\t);\\r\\n\\r\\n        // Initializ...\n  JUMPDEST \t\t\t);\\r\\n\\r\\n        // Initializ...\n  PUSH [tag] 21\t\t\tn = payable(msg.sender);\\r\\n\\r...\n  JUMPI \t\t\tn = payable(msg.sender);\\r\\n\\r...\n  PUSH 40\t\t\tn = payable(msg.sender);\\r\\n\\r...\n  MLOAD \t\t\tn = payable(msg.sender);\\r\\n\\r...\n  PUSH 461BCD\t\t\t\n  PUSH E5\t\t\t\n  SHL \t\t\t\n  DUP2 \t\t\tn = payable(msg.sender);\\r\\n\\r...\n  MSTORE \t\t\tn = payable(msg.sender);\\r\\n\\r...\n  PUSH 20\t\t\t\n  PUSH 4\t\t\tn = payable(msg.sender);\\r\\n\\r...\n  DUP3 \t\t\tn = payable(msg.sender);\\r\\n\\r...\n  ADD \t\t\tn = payable(msg.sender);\\r\\n\\r...\n  MSTORE \t\t\t\n  PUSH 23\t\t\t\n  PUSH 24\t\t\t\n  DUP3 \t\t\t\n  ADD \t\t\t\n  MSTORE \t\t\t\n  PUSH 6D61726B6574206D6179206F6E6C7920626520696E697469616C697A6564206F\t\t\t\n  PUSH 44\t\t\t\n  DUP3 \t\t\t\n  ADD \t\t\t\n  MSTORE \t\t\t\n  PUSH 6E6365\t\t\t\n  PUSH E8\t\t\t\n  SHL \t\t\t\n  PUSH 64\t\t\t\n  DUP3 \t\t\t\n  ADD \t\t\t\n  MSTORE \t\t\t\n  PUSH 84\t\t\t\n  ADD \t\t\t\n  PUSH [tag] 18\t\t\tn = payable(msg.sender);\\r\\n\\r...\n  JUMP \t\t\t\ntag 21\t\t\tn = payable(msg.sender);\\r\\n\\r...\n  JUMPDEST \t\t\tn = payable(msg.sender);\\r\\n\\r...\n  PUSH 7\t\t\tals_);\\r\\n\\r\\n        // Set t...\n  DUP5 \t\t\tals_);\\r\\n\\r\\n        // Set t...\n  SWAP1 \t\t\tals_);\\r\\n\\r\\n        // Set t...\n  SSTORE \t\t\tals_);\\r\\n\\r\\n        // Set t...\n  DUP4 \t\t\tadmin_;\\r\\n    }\\r\\n}\\r\\n\n  PUSH [tag] 24\t\t\tdone\\r\\n        admin = admin_...\n  JUMPI \t\t\tdone\\r\\n        admin = admin_...\n  PUSH 40\t\t\tdone\\r\\n        admin = admin_...\n  MLOAD \t\t\tdone\\r\\n        admin = admin_...\n  PUSH 461BCD\t\t\t\n  PUSH E5\t\t\t\n  SHL \t\t\t\n  DUP2 \t\t\tdone\\r\\n        admin = admin_...\n  MSTORE \t\t\tdone\\r\\n        admin = admin_...\n  PUSH 20\t\t\t\n  PUSH 4\t\t\tdone\\r\\n        admin = admin_...\n  DUP3 \t\t\tdone\\r\\n        admin = admin_...\n  ADD \t\t\tdone\\r\\n        admin = admin_...\n  MSTORE \t\t\t\n  PUSH 30\t\t\t\n  PUSH 24\t\t\t\n  DUP3 \t\t\t\n  ADD \t\t\t\n  MSTORE \t\t\t\n  PUSH 696E697469616C2065786368616E67652072617465206D757374206265206772\t\t\t\n  PUSH 44\t\t\t\n  DUP3 \t\t\t\n  ADD \t\t\t\n  MSTORE \t\t\t\n  PUSH 32B0BA32B9103A3430B7103D32B93797\t\t\t\n  PUSH 81\t\t\t\n  SHL \t\t\t\n  PUSH 64\t\t\t\n  DUP3 \t\t\t\n  ADD \t\t\t\n  MSTORE \t\t\t\n  PUSH 84\t\t\t\n  ADD \t\t\t\n  PUSH [tag] 18\t\t\tdone\\r\\n        admin = admin_...\n  JUMP \t\t\t\ntag 24\t\t\tdone\\r\\n        admin = admin_...\n  JUMPDEST \t\t\tdone\\r\\n        admin = admin_...\n  PUSH 0\t\t\t\n  PUSH [tag] 27\t\t\t\n  DUP8 \t\t\t\n  PUSH [tag] 28\t\t\t\n  JUMP [in]\t\t\t\ntag 27\t\t\t\n  JUMPDEST \t\t\t\n  SWAP1 \t\t\t\n  POP \t\t\t\n  DUP1 \t\t\t\n  ISZERO \t\t\t\n  PUSH [tag] 29\t\t\t\n  JUMPI \t\t\t\n  PUSH 40\t\t\t\n  MLOAD \t\t\t\n  PUSH 461BCD\t\t\t\n  PUSH E5\t\t\t\n  SHL \t\t\t\n  DUP2 \t\t\t\n  MSTORE \t\t\t\n  PUSH 20\t\t\t\n  PUSH 4\t\t\t\n  DUP3 \t\t\t\n  ADD \t\t\t\n  MSTORE \t\t\t\n  PUSH 1A\t\t\t\n  PUSH 24\t\t\t\n  DUP3 \t\t\t\n  ADD \t\t\t\n  MSTORE \t\t\t\n  PUSH 73657474696E6720636F6D7074726F6C6C6572206661696C6564000000000000\t\t\t\n  PUSH 44\t\t\t\n  DUP3 \t\t\t\n  ADD \t\t\t\n  MSTORE \t\t\t\n  PUSH 64\t\t\t\n  ADD \t\t\t\n  PUSH [tag] 18\t\t\t\n  JUMP \t\t\t\ntag 29\t\t\t\n  JUMPDEST \t\t\t\n  TIMESTAMP \t\t\t\n  PUSH 9\t\t\t\n  SSTORE \t\t\t\n  PUSH DE0B6B3A7640000\t\t\t * @\n  PUSH A\t\t\t\n  SSTORE \t\t\t\n  PUSH [tag] 34\t\t\t\n  DUP7 \t\t\t\n  PUSH [tag] 35\t\t\t\n  JUMP [in]\t\t\t\ntag 34\t\t\t\n  JUMPDEST \t\t\t\n  SWAP1 \t\t\t\n  POP \t\t\t\n  DUP1 \t\t\t\n  ISZERO \t\t\t\n  PUSH [tag] 36\t\t\t\n  JUMPI \t\t\t\n  PUSH 40\t\t\t\n  MLOAD \t\t\t\n  PUSH 461BCD\t\t\t\n  PUSH E5\t\t\t\n  SHL \t\t\t\n  DUP2 \t\t\t\n  MSTORE \t\t\t\n  PUSH 20\t\t\t\n  PUSH 4\t\t\t\n  DUP3 \t\t\t\n  ADD \t\t\t\n  MSTORE \t\t\t\n  PUSH 22\t\t\t\n  PUSH 24\t\t\t\n  DUP3 \t\t\t\n  ADD \t\t\t\n  MSTORE \t\t\t\n  PUSH 73657474696E6720696E7465726573742072617465206D6F64656C206661696C\t\t\t\n  PUSH 44\t\t\t\n  DUP3 \t\t\t\n  ADD \t\t\t\n  MSTORE \t\t\t\n  PUSH 1959\t\t\t\n  PUSH F2\t\t\t\n  SHL \t\t\t\n  PUSH 64\t\t\t\n  DUP3 \t\t\t\n  ADD \t\t\t\n  MSTORE \t\t\t\n  PUSH 84\t\t\t\n  ADD \t\t\t\n  PUSH [tag] 18\t\t\t\n  JUMP \t\t\t\ntag 36\t\t\t\n  JUMPDEST \t\t\t\n  DUP4 \t\t\t\n  MLOAD \t\t\t\n  PUSH [tag] 39\t\t\t\n  SWAP1 \t\t\t\n  PUSH 1\t\t\t\n  SWAP1 \t\t\t\n  PUSH 20\t\t\t\n  DUP8 \t\t\t\n  ADD \t\t\t\n  SWAP1 \t\t\t\n  PUSH [tag] 40\t\t\t\n  JUMP [in]\t\t\t\ntag 39\t\t\t\n  JUMPDEST \t\t\t\n  POP \t\t\t\n  DUP3 \t\t\t\n  MLOAD \t\t\t\n  PUSH [tag] 41\t\t\t\n  SWAP1 \t\t\t\n  PUSH 2\t\t\t\n  SWAP1 \t\t\t\n  PUSH 20\t\t\t\n  DUP7 \t\t\t\n  ADD \t\t\t\n  SWAP1 \t\t\t\n  PUSH [tag] 40\t\t\t\n  JUMP [in]\t\t\t\ntag 41\t\t\t\n  JUMPDEST \t\t\t\n  POP \t\t\t\n  POP \t\t\t\n  PUSH 3\t\t\t\n  DUP1 \t\t\t\n  SLOAD \t\t\t\n  PUSH FF\t\t\t\n  SWAP1 \t\t\t\n  SWAP3 \t\t\t\n  AND \t\t\t\n  PUSH FF\t\t\t\n  NOT \t\t\t\n  SWAP3 \t\t\t\n  DUP4 \t\t\t\n  AND \t\t\t\n  OR \t\t\t\n  SWAP1 \t\t\t\n  SSTORE \t\t\t\n  PUSH 0\t\t\t\n  DUP1 \t\t\t\n  SLOAD \t\t\t\n  SWAP1 \t\t\t\n  SWAP2 \t\t\t\n  AND \t\t\t\n  PUSH 1\t\t\t\n  OR \t\t\t\n  SWAP1 \t\t\t\n  SSTORE \t\t\t\n  POP \t\t\t\n  POP \t\t\t\n  POP \t\t\t\n  POP \t\t\t\n  POP \t\t\t\n  JUMP [out]\t\t\toller_,\\r\\n                Int...\ntag 28\t\t\t\n  JUMPDEST \t\t\t\n  PUSH 3\t\t\t\n  SLOAD \t\t\t\n  PUSH 0\t\t\t\n  SWAP1 \t\t\t\n  PUSH 100\t\t\t\n  SWAP1 \t\t\t\n  DIV \t\t\t\n  PUSH 1\t\t\t\n  PUSH 1\t\t\t\n  PUSH A0\t\t\t\n  SHL \t\t\t\n  SUB \t\t\t\n  AND \t\t\t\n  CALLER \t\t\t\n  EQ \t\t\t\n  PUSH [tag] 43\t\t\t\n  JUMPI \t\t\t\n  PUSH 40\t\t\t\n  MLOAD \t\t\t\n  PUSH D219DC1F\t\t\t\n  PUSH E0\t\t\t\n  SHL \t\t\t\n  DUP2 \t\t\t\n  MSTORE \t\t\t\n  PUSH 4\t\t\t\n  ADD \t\t\t\n  PUSH 40\t\t\t\n  MLOAD \t\t\t\n  DUP1 \t\t\t\n  SWAP2 \t\t\t\n  SUB \t\t\t\n  SWAP1 \t\t\t\n  REVERT \t\t\t\ntag 43\t\t\t\n  JUMPDEST \t\t\t\n  PUSH 5\t\t\t\n  SLOAD \t\t\t\n  PUSH 40\t\t\t\n  DUP1 \t\t\t\n  MLOAD \t\t\t\n  PUSH 3F1EE9\t\t\t\n  PUSH E1\t\t\t\n  SHL \t\t\t\n  DUP2 \t\t\t\n  MSTORE \t\t\t\n  SWAP1 \t\t\t\n  MLOAD \t\t\t\n  PUSH 1\t\t\t\n  PUSH 1\t\t\t\n  PUSH A0\t\t\t\n  SHL \t\t\t\n  SUB \t\t\t\n  SWAP3 \t\t\t\n  DUP4 \t\t\t\n  AND \t\t\t\n  SWAP3 \t\t\t\n  DUP6 \t\t\t\n  AND \t\t\t\n  SWAP2 \t\t\t\n  PUSH 7E3DD2\t\t\t\n  SWAP2 \t\t\t\n  PUSH 4\t\t\t\n  DUP1 \t\t\t\n  DUP4 \t\t\t\n  ADD \t\t\t\n  SWAP3 \t\t\t\n  PUSH 20\t\t\t\n  SWAP3 \t\t\t\n  SWAP2 \t\t\t\n  SWAP1 \t\t\t\n  DUP3 \t\t\t\n  SWAP1 \t\t\t\n  SUB \t\t\t\n  ADD \t\t\t\n  DUP2 \t\t\t\n  DUP7 \t\t\t\n  GAS \t\t\t\n  STATICCALL \t\t\t\n  ISZERO \t\t\t\n  DUP1 \t\t\t\n  ISZERO \t\t\t\n  PUSH [tag] 45\t\t\t\n  JUMPI \t\t\t\n  RETURNDATASIZE \t\t\t\n  PUSH 0\t\t\t\n  DUP1 \t\t\t\n  RETURNDATACOPY \t\t\t\n  RETURNDATASIZE \t\t\t\n  PUSH 0\t\t\t\n  REVERT \t\t\t\ntag 45\t\t\t\n  JUMPDEST \t\t\t\n  POP \t\t\t\n  POP \t\t\t\n  POP \t\t\t\n  POP \t\t\t\n  PUSH 40\t\t\t\n  MLOAD \t\t\t\n  RETURNDATASIZE \t\t\t\n  PUSH 1F\t\t\t\n  NOT \t\t\t\n  PUSH 1F\t\t\t\n  DUP3 \t\t\t\n  ADD \t\t\t\n  AND \t\t\t\n  DUP3 \t\t\t\n  ADD \t\t\t\n  DUP1 \t\t\t\n  PUSH 40\t\t\t\n  MSTORE \t\t\t\n  POP \t\t\t\n  DUP2 \t\t\t\n  ADD \t\t\t\n  SWAP1 \t\t\t\n  PUSH [tag] 46\t\t\t\n  SWAP2 \t\t\t\n  SWAP1 \t\t\t\n  PUSH [tag] 47\t\t\t\n  JUMP [in]\t\t\t\ntag 46\t\t\t\n  JUMPDEST \t\t\t\n  PUSH [tag] 48\t\t\t\n  JUMPI \t\t\t\n  PUSH 40\t\t\t\n  MLOAD \t\t\t\n  PUSH 461BCD\t\t\t\n  PUSH E5\t\t\t\n  SHL \t\t\t\n  DUP2 \t\t\t\n  MSTORE \t\t\t\n  PUSH 20\t\t\t\n  PUSH 4\t\t\t\n  DUP3 \t\t\t\n  ADD \t\t\t\n  MSTORE \t\t\t\n  PUSH 1C\t\t\t\n  PUSH 24\t\t\t\n  DUP3 \t\t\t\n  ADD \t\t\t\n  MSTORE \t\t\t\n  PUSH 6D61726B6572206D6574686F642072657475726E65642066616C736500000000\t\t\t\n  PUSH 44\t\t\t\n  DUP3 \t\t\t\n  ADD \t\t\t\n  MSTORE \t\t\t\n  PUSH 64\t\t\t\n  ADD \t\t\t\n  PUSH [tag] 18\t\t\t\n  JUMP \t\t\t\ntag 48\t\t\t\n  JUMPDEST \t\t\t\n  PUSH 5\t\t\t\n  DUP1 \t\t\t\n  SLOAD \t\t\t\n  PUSH 1\t\t\t\n  PUSH 1\t\t\t\n  PUSH A0\t\t\t\n  SHL \t\t\t\n  SUB \t\t\t\n  NOT \t\t\t\n  AND \t\t\t\n  PUSH 1\t\t\t\n  PUSH 1\t\t\t\n  PUSH A0\t\t\t\n  SHL \t\t\t\n  SUB \t\t\t\n  DUP6 \t\t\t\n  DUP2 \t\t\t\n  AND \t\t\t\n  SWAP2 \t\t\t\n  DUP3 \t\t\t\n  OR \t\t\t\n  SWAP1 \t\t\t\n  SWAP3 \t\t\t\n  SSTORE \t\t\t\n  PUSH 40\t\t\t\n  DUP1 \t\t\t\n  MLOAD \t\t\t\n  SWAP3 \t\t\t\n  DUP5 \t\t\t\n  AND \t\t\t\n  DUP4 \t\t\t\n  MSTORE \t\t\t\n  PUSH 20\t\t\t\n  DUP4 \t\t\t\n  ADD \t\t\t\n  SWAP2 \t\t\t\n  SWAP1 \t\t\t\n  SWAP2 \t\t\t\n  MSTORE \t\t\t\n  PUSH 7AC369DBD14FA5EA3F473ED67CC9D598964A77501540BA6751EB0B3DECF5870D\t\t\t\n  SWAP2 \t\t\t\n  ADD \t\t\t\ntag 51\t\t\t\n  JUMPDEST \t\t\t\n  PUSH 40\t\t\t\n  MLOAD \t\t\t\n  DUP1 \t\t\t\n  SWAP2 \t\t\t\n  SUB \t\t\t\n  SWAP1 \t\t\t\n  LOG1 \t\t\t\n  POP \t\t\t\n  PUSH 0\t\t\t\n  SWAP3 \t\t\t\n  SWAP2 \t\t\t\n  POP \t\t\t\n  POP \t\t\t\n  JUMP [out]\t\t\t\ntag 35\t\t\t\n  JUMPDEST \t\t\t\n  PUSH 3\t\t\t\n  SLOAD \t\t\t\n  PUSH 0\t\t\t\n  SWAP1 \t\t\t\n  DUP2 \t\t\t\n  SWAP1 \t\t\t\n  PUSH 100\t\t\t\n  SWAP1 \t\t\t\n  DIV \t\t\t\n  PUSH 1\t\t\t\n  PUSH 1\t\t\t\n  PUSH A0\t\t\t\n  SHL \t\t\t\n  SUB \t\t\t\n  AND \t\t\t\n  CALLER \t\t\t\n  EQ \t\t\t\n  PUSH [tag] 55\t\t\t\n  JUMPI \t\t\t\n  PUSH 40\t\t\t\n  MLOAD \t\t\t\n  PUSH 407FDED5\t\t\t\n  PUSH E0\t\t\t\n  SHL \t\t\t\n  DUP2 \t\t\t\n  MSTORE \t\t\t\n  PUSH 4\t\t\t\n  ADD \t\t\t\n  PUSH 40\t\t\t\n  MLOAD \t\t\t\n  DUP1 \t\t\t\n  SWAP2 \t\t\t\n  SUB \t\t\t\n  SWAP1 \t\t\t\n  REVERT \t\t\t\ntag 55\t\t\t\n  JUMPDEST \t\t\t\n  TIMESTAMP \t\t\t\n  PUSH 9\t\t\t\n  SLOAD \t\t\t\n  EQ \t\t\t\n  PUSH [tag] 57\t\t\t\n  JUMPI \t\t\t\n  PUSH 40\t\t\t\n  MLOAD \t\t\t\n  PUSH BE2A5CB\t\t\t\n  PUSH E1\t\t\t\n  SHL \t\t\t\n  DUP2 \t\t\t\n  MSTORE \t\t\t\n  PUSH 4\t\t\t\n  ADD \t\t\t\n  PUSH 40\t\t\t\n  MLOAD \t\t\t\n  DUP1 \t\t\t\n  SWAP2 \t\t\t\n  SUB \t\t\t\n  SWAP1 \t\t\t\n  REVERT \t\t\t\ntag 57\t\t\t\n  JUMPDEST \t\t\t\n  PUSH 6\t\t\t\n  PUSH 0\t\t\t\n  SWAP1 \t\t\t\n  SLOAD \t\t\t\n  SWAP1 \t\t\t\n  PUSH 100\t\t\t\n  EXP \t\t\t\n  SWAP1 \t\t\t\n  DIV \t\t\t\n  PUSH 1\t\t\t\n  PUSH 1\t\t\t\n  PUSH A0\t\t\t\n  SHL \t\t\t\n  SUB \t\t\t\n  AND \t\t\t\n  SWAP1 \t\t\t\n  POP \t\t\t\n  DUP3 \t\t\t\n  PUSH 1\t\t\t\n  PUSH 1\t\t\t\n  PUSH A0\t\t\t\n  SHL \t\t\t\n  SUB \t\t\t\n  AND \t\t\t\n  PUSH 2191F92A\t\t\t\n  PUSH 40\t\t\t\n  MLOAD \t\t\t\n  DUP2 \t\t\t\n  PUSH FFFFFFFF\t\t\t\n  AND \t\t\t\n  PUSH E0\t\t\t\n  SHL \t\t\t\n  DUP2 \t\t\t\n  MSTORE \t\t\t\n  PUSH 4\t\t\t\n  ADD \t\t\t\n  PUSH 20\t\t\t\n  PUSH 40\t\t\t\n  MLOAD \t\t\t\n  DUP1 \t\t\t\n  DUP4 \t\t\t\n  SUB \t\t\t\n  DUP2 \t\t\t\n  DUP7 \t\t\t\n  GAS \t\t\t\n  STATICCALL \t\t\t\n  ISZERO \t\t\t\n  DUP1 \t\t\t\n  ISZERO \t\t\t\n  PUSH [tag] 59\t\t\t\n  JUMPI \t\t\t\n  RETURNDATASIZE \t\t\t\n  PUSH 0\t\t\t\n  DUP1 \t\t\t\n  RETURNDATACOPY \t\t\t\n  RETURNDATASIZE \t\t\t\n  PUSH 0\t\t\t\n  REVERT \t\t\t\ntag 59\t\t\t\n  JUMPDEST \t\t\t\n  POP \t\t\t\n  POP \t\t\t\n  POP \t\t\t\n  POP \t\t\t\n  PUSH 40\t\t\t\n  MLOAD \t\t\t\n  RETURNDATASIZE \t\t\t\n  PUSH 1F\t\t\t\n  NOT \t\t\t\n  PUSH 1F\t\t\t\n  DUP3 \t\t\t\n  ADD \t\t\t\n  AND \t\t\t\n  DUP3 \t\t\t\n  ADD \t\t\t\n  DUP1 \t\t\t\n  PUSH 40\t\t\t\n  MSTORE \t\t\t\n  POP \t\t\t\n  DUP2 \t\t\t\n  ADD \t\t\t\n  SWAP1 \t\t\t\n  PUSH [tag] 60\t\t\t\n  SWAP2 \t\t\t\n  SWAP1 \t\t\t\n  PUSH [tag] 47\t\t\t\n  JUMP [in]\t\t\t\ntag 60\t\t\t\n  JUMPDEST \t\t\t\n  PUSH [tag] 61\t\t\t\n  JUMPI \t\t\t\n  PUSH 40\t\t\t\n  MLOAD \t\t\t\n  PUSH 461BCD\t\t\t\n  PUSH E5\t\t\t\n  SHL \t\t\t\n  DUP2 \t\t\t\n  MSTORE \t\t\t\n  PUSH 20\t\t\t\n  PUSH 4\t\t\t\n  DUP3 \t\t\t\n  ADD \t\t\t\n  MSTORE \t\t\t\n  PUSH 1C\t\t\t\n  PUSH 24\t\t\t\n  DUP3 \t\t\t\n  ADD \t\t\t\n  MSTORE \t\t\t\n  PUSH 6D61726B6572206D6574686F642072657475726E65642066616C736500000000\t\t\t\n  PUSH 44\t\t\t\n  DUP3 \t\t\t\n  ADD \t\t\t\n  MSTORE \t\t\t\n  PUSH 64\t\t\t\n  ADD \t\t\t\n  PUSH [tag] 18\t\t\t\n  JUMP \t\t\t\ntag 61\t\t\t\n  JUMPDEST \t\t\t\n  PUSH 6\t\t\t\n  DUP1 \t\t\t\n  SLOAD \t\t\t\n  PUSH 1\t\t\t\n  PUSH 1\t\t\t\n  PUSH A0\t\t\t\n  SHL \t\t\t\n  SUB \t\t\t\n  NOT \t\t\t\n  AND \t\t\t\n  PUSH 1\t\t\t\n  PUSH 1\t\t\t\n  PUSH A0\t\t\t\n  SHL \t\t\t\n  SUB \t\t\t\n  DUP6 \t\t\t\n  DUP2 \t\t\t\n  AND \t\t\t\n  SWAP2 \t\t\t\n  DUP3 \t\t\t\n  OR \t\t\t\n  SWAP1 \t\t\t\n  SWAP3 \t\t\t\n  SSTORE \t\t\t\n  PUSH 40\t\t\t\n  DUP1 \t\t\t\n  MLOAD \t\t\t\n  SWAP3 \t\t\t\n  DUP5 \t\t\t\n  AND \t\t\t\n  DUP4 \t\t\t\n  MSTORE \t\t\t\n  PUSH 20\t\t\t\n  DUP4 \t\t\t\n  ADD \t\t\t\n  SWAP2 \t\t\t\n  SWAP1 \t\t\t\n  SWAP2 \t\t\t\n  MSTORE \t\t\t\n  PUSH EDFFC32E068C7C95DFD4BDFD5C4D939A084D6B11C4199EAC8436ED234D72F926\t\t\t\n  SWAP2 \t\t\t\n  ADD \t\t\t\n  PUSH [tag] 51\t\t\t\n  JUMP \t\t\t\ntag 40\t\t\tcontract CErc20Immutable is CE...\n  JUMPDEST \t\t\tcontract CErc20Immutable is CE...\n  DUP3 \t\t\tcontract CErc20Immutable is CE...\n  DUP1 \t\t\tcontract CErc20Immutable is CE...\n  SLOAD \t\t\tcontract CErc20Immutable is CE...\n  PUSH [tag] 65\t\t\tcontract CErc20Immutable is CE...\n  SWAP1 \t\t\tcontract CErc20Immutable is CE...\n  PUSH [tag] 66\t\t\tcontract CErc20Immutable is CE...\n  JUMP [in]\t\t\tcontract CErc20Immutable is CE...\ntag 65\t\t\tcontract CErc20Immutable is CE...\n  JUMPDEST \t\t\tcontract CErc20Immutable is CE...\n  SWAP1 \t\t\tcontract CErc20Immutable is CE...\n  PUSH 0\t\t\tcontract CErc20Immutable is CE...\n  MSTORE \t\t\tcontract CErc20Immutable is CE...\n  PUSH 20\t\t\tcontract CErc20Immutable is CE...\n  PUSH 0\t\t\tcontract CErc20Immutable is CE...\n  KECCAK256 \t\t\tcontract CErc20Immutable is CE...\n  SWAP1 \t\t\tcontract CErc20Immutable is CE...\n  PUSH 1F\t\t\tcontract CErc20Immutable is CE...\n  ADD \t\t\tcontract CErc20Immutable is CE...\n  PUSH 20\t\t\tcontract CErc20Immutable is CE...\n  SWAP1 \t\t\tcontract CErc20Immutable is CE...\n  DIV \t\t\tcontract CErc20Immutable is CE...\n  DUP2 \t\t\tcontract CErc20Immutable is CE...\n  ADD \t\t\tcontract CErc20Immutable is CE...\n  SWAP3 \t\t\tcontract CErc20Immutable is CE...\n  DUP3 \t\t\tcontract CErc20Immutable is CE...\n  PUSH [tag] 68\t\t\tcontract CErc20Immutable is CE...\n  JUMPI \t\t\tcontract CErc20Immutable is CE...\n  PUSH 0\t\t\tcontract CErc20Immutable is CE...\n  DUP6 \t\t\tcontract CErc20Immutable is CE...\n  SSTORE \t\t\tcontract CErc20Immutable is CE...\n  PUSH [tag] 71\t\t\tcontract CErc20Immutable is CE...\n  JUMP \t\t\tcontract CErc20Immutable is CE...\ntag 68\t\t\tcontract CErc20Immutable is CE...\n  JUMPDEST \t\t\tcontract CErc20Immutable is CE...\n  DUP3 \t\t\tcontract CErc20Immutable is CE...\n  PUSH 1F\t\t\tcontract CErc20Immutable is CE...\n  LT \t\t\tcontract CErc20Immutable is CE...\n  PUSH [tag] 69\t\t\tcontract CErc20Immutable is CE...\n  JUMPI \t\t\tcontract CErc20Immutable is CE...\n  DUP1 \t\t\tcontract CErc20Immutable is CE...\n  MLOAD \t\t\tcontract CErc20Immutable is CE...\n  PUSH FF\t\t\tcontract CErc20Immutable is CE...\n  NOT \t\t\tcontract CErc20Immutable is CE...\n  AND \t\t\tcontract CErc20Immutable is CE...\n  DUP4 \t\t\tcontract CErc20Immutable is CE...\n  DUP1 \t\t\tcontract CErc20Immutable is CE...\n  ADD \t\t\tcontract CErc20Immutable is CE...\n  OR \t\t\tcontract CErc20Immutable is CE...\n  DUP6 \t\t\tcontract CErc20Immutable is CE...\n  SSTORE \t\t\tcontract CErc20Immutable is CE...\n  PUSH [tag] 71\t\t\tcontract CErc20Immutable is CE...\n  JUMP \t\t\tcontract CErc20Immutable is CE...\ntag 69\t\t\tcontract CErc20Immutable is CE...\n  JUMPDEST \t\t\tcontract CErc20Immutable is CE...\n  DUP3 \t\t\tcontract CErc20Immutable is CE...\n  DUP1 \t\t\tcontract CErc20Immutable is CE...\n  ADD \t\t\tcontract CErc20Immutable is CE...\n  PUSH 1\t\t\tcontract CErc20Immutable is CE...\n  ADD \t\t\tcontract CErc20Immutable is CE...\n  DUP6 \t\t\tcontract CErc20Immutable is CE...\n  SSTORE \t\t\tcontract CErc20Immutable is CE...\n  DUP3 \t\t\tcontract CErc20Immutable is CE...\n  ISZERO \t\t\tcontract CErc20Immutable is CE...\n  PUSH [tag] 71\t\t\tcontract CErc20Immutable is CE...\n  JUMPI \t\t\tcontract CErc20Immutable is CE...\n  SWAP2 \t\t\tcontract CErc20Immutable is CE...\n  DUP3 \t\t\tcontract CErc20Immutable is CE...\n  ADD \t\t\tcontract CErc20Immutable is CE...\ntag 70\t\t\tcontract CErc20Immutable is CE...\n  JUMPDEST \t\t\tcontract CErc20Immutable is CE...\n  DUP3 \t\t\tcontract CErc20Immutable is CE...\n  DUP2 \t\t\tcontract CErc20Immutable is CE...\n  GT \t\t\tcontract CErc20Immutable is CE...\n  ISZERO \t\t\tcontract CErc20Immutable is CE...\n  PUSH [tag] 71\t\t\tcontract CErc20Immutable is CE...\n  JUMPI \t\t\tcontract CErc20Immutable is CE...\n  DUP3 \t\t\tcontract CErc20Immutable is CE...\n  MLOAD \t\t\tcontract CErc20Immutable is CE...\n  DUP3 \t\t\tcontract CErc20Immutable is CE...\n  SSTORE \t\t\tcontract CErc20Immutable is CE...\n  SWAP2 \t\t\tcontract CErc20Immutable is CE...\n  PUSH 20\t\t\tcontract CErc20Immutable is CE...\n  ADD \t\t\tcontract CErc20Immutable is CE...\n  SWAP2 \t\t\tcontract CErc20Immutable is CE...\n  SWAP1 \t\t\tcontract CErc20Immutable is CE...\n  PUSH 1\t\t\tcontract CErc20Immutable is CE...\n  ADD \t\t\tcontract CErc20Immutable is CE...\n  SWAP1 \t\t\tcontract CErc20Immutable is CE...\n  PUSH [tag] 70\t\t\tcontract CErc20Immutable is CE...\n  JUMP \t\t\tcontract CErc20Immutable is CE...\ntag 71\t\t\tcontract CErc20Immutable is CE...\n  JUMPDEST \t\t\tcontract CErc20Immutable is CE...\n  POP \t\t\t\n  PUSH [tag] 72\t\t\tcontract CErc20Immutable is CE...\n  SWAP3 \t\t\tcontract CErc20Immutable is CE...\n  SWAP2 \t\t\tcontract CErc20Immutable is CE...\n  POP \t\t\t\n  PUSH [tag] 73\t\t\tcontract CErc20Immutable is CE...\n  JUMP [in]\t\t\tcontract CErc20Immutable is CE...\ntag 72\t\t\tcontract CErc20Immutable is CE...\n  JUMPDEST \t\t\tcontract CErc20Immutable is CE...\n  POP \t\t\tcontract CErc20Immutable is CE...\n  SWAP1 \t\t\tcontract CErc20Immutable is CE...\n  JUMP [out]\t\t\tcontract CErc20Immutable is CE...\ntag 73\t\t\tcontract CErc20Immutable is CE...\n  JUMPDEST \t\t\tcontract CErc20Immutable is CE...\ntag 74\t\t\tcontract CErc20Immutable is CE...\n  JUMPDEST \t\t\tcontract CErc20Immutable is CE...\n  DUP1 \t\t\tcontract CErc20Immutable is CE...\n  DUP3 \t\t\tcontract CErc20Immutable is CE...\n  GT \t\t\tcontract CErc20Immutable is CE...\n  ISZERO \t\t\tcontract CErc20Immutable is CE...\n  PUSH [tag] 72\t\t\tcontract CErc20Immutable is CE...\n  JUMPI \t\t\tcontract CErc20Immutable is CE...\n  PUSH 0\t\t\tcontract CErc20Immutable is CE...\n  DUP2 \t\t\tcontract CErc20Immutable is CE...\n  SSTORE \t\t\tcontract CErc20Immutable is CE...\n  PUSH 1\t\t\tcontract CErc20Immutable is CE...\n  ADD \t\t\tcontract CErc20Immutable is CE...\n  PUSH [tag] 74\t\t\tcontract CErc20Immutable is CE...\n  JUMP \t\t\tcontract CErc20Immutable is CE...\ntag 76\t\t\te-Identifier: BSD-3-Clause\\r\\n...\n  JUMPDEST \t\t\te-Identifier: BSD-3-Clause\\r\\n...\n  PUSH 1\t\t\t\n  PUSH 1\t\t\t\n  PUSH A0\t\t\t\n  SHL \t\t\t\n  SUB \t\t\t\n  DUP2 \t\t\tl\";\\r\\n\\r\\n/**\\r\\n * @title Co...\n  AND \t\t\tl\";\\r\\n\\r\\n/**\\r\\n * @title Co...\n  DUP2 \t\t\t/CErc20.sol\";\\r\\n\\r\\n/**\\r\\n *...\n  EQ \t\t\t/CErc20.sol\";\\r\\n\\r\\n/**\\r\\n *...\n  PUSH [tag] 82\t\t\t\\nimport \"./CErc20.sol\";\\r\\n\\r...\n  JUMPI \t\t\t\\nimport \"./CErc20.sol\";\\r\\n\\r...\n  PUSH 0\t\t\tl\n  DUP1 \t\t\tt\n  REVERT \t\t\tc20Immutable\ntag 82\t\t\t\\nimport \"./CErc20.sol\";\\r\\n\\r...\n  JUMPDEST \t\t\t\\nimport \"./CErc20.sol\";\\r\\n\\r...\n  POP \t\t\te-Identifier: BSD-3-Clause\\r\\n...\n  JUMP [out]\t\t\te-Identifier: BSD-3-Clause\\r\\n...\ntag 77\t\t\t @notice CTokens which wrap an...\n  JUMPDEST \t\t\t @notice CTokens which wrap an...\n  PUSH 4E487B71\t\t\ttable\\r\\n * \n  PUSH E0\t\t\t im\n  SHL \t\t\t are immutable\\r\\n * @\n  PUSH 0\t\t\ta\n  MSTORE \t\t\trlying and are immutable\\r\\n *...\n  PUSH 41\t\t\t\\r\\nco\n  PUSH 4\t\t\t \n  MSTORE \t\t\tpound\\r\\n */\\r\\ncon\n  PUSH 24\t\t\tle i\n  PUSH 0\t\t\tt\n  REVERT \t\t\tc20Immutable is\ntag 78\t\t\t    /**\\r\\n     * @notice Cons...\n  JUMPDEST \t\t\t    /**\\r\\n     * @notice Cons...\n  PUSH 0\t\t\t     \n  DUP3 \t\t\tng \n  PUSH 1F\t\t\tnder\n  DUP4 \t\t\tof the\n  ADD \t\t\tess of the underl\n  SLT \t\t\taddress of the underlying a\n  PUSH [tag] 85\t\t\tying_ The address of the under...\n  JUMPI \t\t\tying_ The address of the under...\n  PUSH 0\t\t\tp\n  DUP1 \t\t\t*\n  REVERT \t\t\t\\r\\n     * @pa\ntag 85\t\t\tying_ The address of the under...\n  JUMPDEST \t\t\tying_ The address of the under...\n  DUP2 \t\t\taddress of th\n  MLOAD \t\t\taddress of th\n  PUSH 1\t\t\t\n  PUSH 1\t\t\t\n  PUSH 40\t\t\t\n  SHL \t\t\t\n  SUB \t\t\t\n  DUP1 \t\t\the address\n  DUP3 \t\t\the address\n  GT \t\t\the address\n  ISZERO \t\t\t_ The address of the interest ...\n  PUSH [tag] 87\t\t\t_ The address of the interest ...\n  JUMPI \t\t\t_ The address of the interest ...\n  PUSH [tag] 87\t\t\t the interest rate\n  PUSH [tag] 77\t\t\t the interest rate\n  JUMP [in]\t\t\t the interest rate\ntag 87\t\t\t the interest rate\n  JUMPDEST \t\t\t the interest rate\n  PUSH 40\t\t\tit\n  MLOAD \t\t\tThe initi\n  PUSH 1F\t\t\tti\n  DUP4 \t\t\te_ ERC-20 nam\n  ADD \t\t\te_ ERC-20 nam\n  PUSH 1F\t\t\t\n  NOT \t\t\t\n  SWAP1 \t\t\t name_ ERC-20 name of \n  DUP2 \t\t\t name_ ERC-20 name of \n  AND \t\t\t name_ ERC-20 name of \n  PUSH 3F\t\t\tis\n  ADD \t\t\taram name_ ERC-20 name of this...\n  AND \t\t\t* @param name_ ERC-20 name of ...\n  DUP2 \t\t\t 1e18\\r\\n     * @param name_ E...\n  ADD \t\t\t 1e18\\r\\n     * @param name_ E...\n  SWAP1 \t\t\t 1e18\\r\\n     * @param name_ E...\n  DUP3 \t\t\tsymbol_ ERC-20 sym\n  DUP3 \t\t\tsymbol_ ERC-20 sym\n  GT \t\t\tsymbol_ ERC-20 sym\n  DUP2 \t\t\tl of this token\\r\\n     \n  DUP4 \t\t\tl of this token\\r\\n     \n  LT \t\t\tl of this token\\r\\n     \n  OR \t\t\tam symbol_ ERC-20 symbol of th...\n  ISZERO \t\t\tparam symbol_ ERC-20 symbol of...\n  PUSH [tag] 89\t\t\tparam symbol_ ERC-20 symbol of...\n  JUMPI \t\t\tparam symbol_ ERC-20 symbol of...\n  PUSH [tag] 89\t\t\taram decimals_ ERC\n  PUSH [tag] 77\t\t\taram decimals_ ERC\n  JUMP [in]\t\t\taram decimals_ ERC\ntag 89\t\t\taram decimals_ ERC\n  JUMPDEST \t\t\taram decimals_ ERC\n  DUP2 \t\t\tof this to\n  PUSH 40\t\t\tio\n  MSTORE \t\t\t precision of this tok\n  DUP4 \t\t\t A\n  DUP2 \t\t\tm admi\n  MSTORE \t\t\t* @param admin_ Ad\n  PUSH 20\t\t\tstra\n  SWAP3 \t\t\tthe administra\n  POP \t\t\tthe administra\n  DUP7 \t\t\tor(\n  DUP4 \t\t\ttr\n  DUP6 \t\t\t c\n  DUP9 \t\t\t */\\r\\n \n  ADD \t\t\t     */\\r\\n    co\n  ADD \t\t\ten\\r\\n     */\\r\\n    constru\n  GT \t\t\ttoken\\r\\n     */\\r\\n    constr...\n  ISZERO \t\t\tis token\\r\\n     */\\r\\n    con...\n  PUSH [tag] 90\t\t\tis token\\r\\n     */\\r\\n    con...\n  JUMPI \t\t\tis token\\r\\n     */\\r\\n    con...\n  PUSH 0\t\t\ty\n  DUP1 \t\t\te\n  REVERT \t\t\tess underlyi\ntag 90\t\t\tis token\\r\\n     */\\r\\n    con...\n  JUMPDEST \t\t\tis token\\r\\n     */\\r\\n    con...\n  PUSH 0\t\t\t \n  SWAP2 \t\t\t          \n  POP \t\t\t          \ntag 91\t\t\tlerInterface comptroller_,\\r\\n...\n  JUMPDEST \t\t\tlerInterface comptroller_,\\r\\n...\n  DUP4 \t\t\tom\n  DUP3 \t\t\te\n  LT \t\t\tface comp\n  ISZERO \t\t\tlerInterface comptroller_,\\r\\n...\n  PUSH [tag] 93\t\t\tlerInterface comptroller_,\\r\\n...\n  JUMPI \t\t\tlerInterface comptroller_,\\r\\n...\n  DUP6 \t\t\tt initialExcha\n  DUP3 \t\t\tt initialExcha\n  ADD \t\t\tt initialExcha\n  DUP4 \t\t\t uint initialExchangeRa\n  ADD \t\t\t uint initialExchangeRa\n  MLOAD \t\t\t       uint initialExchangeRat\n  DUP2 \t\t\tateModel_,\\r\\n  \n  DUP4 \t\t\tateModel_,\\r\\n  \n  ADD \t\t\tateModel_,\\r\\n  \n  DUP5 \t\t\testRateModel_,\\r\\n       \n  ADD \t\t\testRateModel_,\\r\\n       \n  MSTORE \t\t\tl interestRateModel_,\\r\\n     ...\n  SWAP1 \t\t\t,\\r\\n       \n  DUP3 \t\t\t,\\r\\n       \n  ADD \t\t\t,\\r\\n       \n  SWAP1 \t\t\t,\\r\\n       \n  PUSH [tag] 91\t\t\tlerInterface comptroller_,\\r\\n...\n  JUMP \t\t\tlerInterface comptroller_,\\r\\n...\ntag 93\t\t\tlerInterface comptroller_,\\r\\n...\n  JUMPDEST \t\t\tlerInterface comptroller_,\\r\\n...\n  DUP4 \t\t\tst\n  DUP3 \t\t\t \n  GT \t\t\t      str\n  ISZERO \t\t\t         string memory name_,\\...\n  PUSH [tag] 94\t\t\t         string memory name_,\\...\n  JUMPI \t\t\t         string memory name_,\\...\n  PUSH 0\t\t\t,\n  DUP4 \t\t\tmb\n  DUP6 \t\t\try\n  DUP4 \t\t\ting me\n  ADD \t\t\t string memory \n  ADD \t\t\t     string memory symbo\n  MSTORE \t\t\t            string memory symb...\ntag 94\t\t\t         string memory name_,\\...\n  JUMPDEST \t\t\t         string memory name_,\\...\n  SWAP7 \t\t\tals_,\\r\n  SWAP6 \t\t\t    /**\\r\\n     * @notice Cons...\n  POP \t\t\t\n  POP \t\t\t\n  POP \t\t\t\n  POP \t\t\t\n  POP \t\t\t\n  POP \t\t\t\n  JUMP [out]\t\t\t    /**\\r\\n     * @notice Cons...\ntag 79\t\t\t      address payable admin_) ...\n  JUMPDEST \t\t\t      address payable admin_) ...\n  DUP1 \t\t\ttialization\\r\\n\n  MLOAD \t\t\ttialization\\r\\n\n  PUSH [tag] 96\t\t\tdmin = payable(msg.sender);\\r\\...\n  DUP2 \t\t\ttialization\\r\\n\n  PUSH [tag] 76\t\t\tdmin = payable(msg.sender);\\r\\...\n  JUMP [in]\t\t\tdmin = payable(msg.sender);\\r\\...\ntag 96\t\t\tdmin = payable(msg.sender);\\r\\...\n  JUMPDEST \t\t\tdmin = payable(msg.sender);\\r\\...\n  SWAP2 \t\t\t      address payable admin_) ...\n  SWAP1 \t\t\t      address payable admin_) ...\n  POP \t\t\t      address payable admin_) ...\n  JUMP [out]\t\t\t      address payable admin_) ...\ntag 3\t\t\tInitialize the market\\r\\n     ...\n  JUMPDEST \t\t\tInitialize the market\\r\\n     ...\n  PUSH 0\t\t\t\\n     \n  DUP1 \t\t\t admin\n  PUSH 0\t\t\t admin\n  DUP1 \t\t\t\\r\\n    \n  PUSH 0\t\t\t\\n}\\r\\n\n  DUP1 \t\t\t\n  PUSH 0\t\t\t\n  DUP1 \t\t\t\n  PUSH 100\t\t\t\n  DUP10 \t\t\t\n  DUP12 \t\t\t\n  SUB \t\t\t\n  SLT \t\t\t\n  ISZERO \t\t\t\n  PUSH [tag] 98\t\t\t\n  JUMPI \t\t\t\n  PUSH 0\t\t\t\n  DUP1 \t\t\t\n  REVERT \t\t\t\ntag 98\t\t\t\n  JUMPDEST \t\t\t\n  DUP9 \t\t\t\n  MLOAD \t\t\t\n  PUSH [tag] 99\t\t\t\n  DUP2 \t\t\t\n  PUSH [tag] 76\t\t\t\n  JUMP [in]\t\t\t\ntag 99\t\t\t\n  JUMPDEST \t\t\t\n  PUSH 20\t\t\t\n  DUP11 \t\t\t\n  ADD \t\t\t\n  MLOAD \t\t\t\n  SWAP1 \t\t\t\n  SWAP9 \t\t\t\n  POP \t\t\t\n  PUSH [tag] 100\t\t\t\n  DUP2 \t\t\t\n  PUSH [tag] 76\t\t\t\n  JUMP [in]\t\t\t\ntag 100\t\t\t\n  JUMPDEST \t\t\t\n  PUSH 40\t\t\t\n  DUP11 \t\t\t\n  ADD \t\t\t\n  MLOAD \t\t\t\n  SWAP1 \t\t\t\n  SWAP8 \t\t\t\n  POP \t\t\t\n  PUSH [tag] 101\t\t\t\n  DUP2 \t\t\t\n  PUSH [tag] 76\t\t\t\n  JUMP [in]\t\t\t\ntag 101\t\t\t\n  JUMPDEST \t\t\t\n  PUSH 60\t\t\t\n  DUP11 \t\t\t\n  ADD \t\t\t\n  MLOAD \t\t\t\n  PUSH 80\t\t\t\n  DUP12 \t\t\t\n  ADD \t\t\t\n  MLOAD \t\t\t\n  SWAP2 \t\t\t\n  SWAP8 \t\t\t\n  POP \t\t\t\n  SWAP6 \t\t\t\n  POP \t\t\t\n  PUSH 1\t\t\t\n  PUSH 1\t\t\t\n  PUSH 40\t\t\t\n  SHL \t\t\t\n  SUB \t\t\t\n  DUP1 \t\t\t\n  DUP3 \t\t\t\n  GT \t\t\t\n  ISZERO \t\t\t\n  PUSH [tag] 102\t\t\t\n  JUMPI \t\t\t\n  PUSH 0\t\t\t\n  DUP1 \t\t\t\n  REVERT \t\t\t\ntag 102\t\t\t\n  JUMPDEST \t\t\t\n  PUSH [tag] 103\t\t\t\n  DUP13 \t\t\t\n  DUP4 \t\t\t\n  DUP14 \t\t\t\n  ADD \t\t\t\n  PUSH [tag] 78\t\t\t\n  JUMP [in]\t\t\t\ntag 103\t\t\t\n  JUMPDEST \t\t\t\n  SWAP6 \t\t\t\n  POP \t\t\t\n  PUSH A0\t\t\t\n  DUP12 \t\t\t\n  ADD \t\t\t\n  MLOAD \t\t\t\n  SWAP2 \t\t\t\n  POP \t\t\t\n  DUP1 \t\t\t\n  DUP3 \t\t\t\n  GT \t\t\t\n  ISZERO \t\t\t\n  PUSH [tag] 104\t\t\t\n  JUMPI \t\t\t\n  PUSH 0\t\t\t\n  DUP1 \t\t\t\n  REVERT \t\t\t\ntag 104\t\t\t\n  JUMPDEST \t\t\t\n  POP \t\t\t\n  PUSH [tag] 105\t\t\t\n  DUP12 \t\t\t\n  DUP3 \t\t\t\n  DUP13 \t\t\t\n  ADD \t\t\t\n  PUSH [tag] 78\t\t\t\n  JUMP [in]\t\t\t\ntag 105\t\t\t\n  JUMPDEST \t\t\t\n  SWAP4 \t\t\t\n  POP \t\t\t\n  POP \t\t\t\n  PUSH C0\t\t\t\n  DUP10 \t\t\t\n  ADD \t\t\t\n  MLOAD \t\t\t\n  PUSH FF\t\t\t\n  DUP2 \t\t\t\n  AND \t\t\t\n  DUP2 \t\t\t\n  EQ \t\t\t\n  PUSH [tag] 106\t\t\t\n  JUMPI \t\t\t\n  PUSH 0\t\t\t\n  DUP1 \t\t\t\n  REVERT \t\t\t\ntag 106\t\t\t\n  JUMPDEST \t\t\t\n  SWAP2 \t\t\t\n  POP \t\t\t\n  PUSH [tag] 107\t\t\t\n  PUSH E0\t\t\t\n  DUP11 \t\t\t\n  ADD \t\t\t\n  PUSH [tag] 79\t\t\t\n  JUMP [in]\t\t\t\ntag 107\t\t\t\n  JUMPDEST \t\t\t\n  SWAP1 \t\t\t\n  POP \t\t\t\n  SWAP3 \t\t\tInitialize the market\\r\\n     ...\n  SWAP6 \t\t\tInitialize the market\\r\\n     ...\n  SWAP9 \t\t\tInitialize the market\\r\\n     ...\n  POP \t\t\tInitialize the market\\r\\n     ...\n  SWAP3 \t\t\tInitialize the market\\r\\n     ...\n  SWAP6 \t\t\tInitialize the market\\r\\n     ...\n  SWAP9 \t\t\tInitialize the market\\r\\n     ...\n  SWAP1 \t\t\tInitialize the market\\r\\n     ...\n  SWAP4 \t\t\tInitialize the market\\r\\n     ...\n  SWAP7 \t\t\tInitialize the market\\r\\n     ...\n  POP \t\t\tInitialize the market\\r\\n     ...\n  JUMP [out]\t\t\tInitialize the market\\r\\n     ...\ntag 15\t\t\t\n  JUMPDEST \t\t\t\n  PUSH 0\t\t\t\n  PUSH 20\t\t\t\n  DUP3 \t\t\t\n  DUP5 \t\t\t\n  SUB \t\t\t\n  SLT \t\t\t\n  ISZERO \t\t\t\n  PUSH [tag] 109\t\t\t\n  JUMPI \t\t\t\n  PUSH 0\t\t\t\n  DUP1 \t\t\t\n  REVERT \t\t\t\ntag 109\t\t\t\n  JUMPDEST \t\t\t\n  POP \t\t\t\n  MLOAD \t\t\t\n  SWAP2 \t\t\t\n  SWAP1 \t\t\t\n  POP \t\t\t\n  JUMP [out]\t\t\t\ntag 47\t\t\t\n  JUMPDEST \t\t\t\n  PUSH 0\t\t\t\n  PUSH 20\t\t\t\n  DUP3 \t\t\t\n  DUP5 \t\t\t\n  SUB \t\t\t\n  SLT \t\t\t\n  ISZERO \t\t\t\n  PUSH [tag] 116\t\t\t\n  JUMPI \t\t\t\n  PUSH 0\t\t\t\n  DUP1 \t\t\t\n  REVERT \t\t\t\ntag 116\t\t\t\n  JUMPDEST \t\t\t\n  DUP2 \t\t\t\n  MLOAD \t\t\t\n  DUP1 \t\t\t\n  ISZERO \t\t\t\n  ISZERO \t\t\t\n  DUP2 \t\t\t\n  EQ \t\t\t\n  PUSH [tag] 117\t\t\t\n  JUMPI \t\t\t\n  PUSH 0\t\t\t\n  DUP1 \t\t\t\n  REVERT \t\t\t\ntag 117\t\t\t\n  JUMPDEST \t\t\t\n  SWAP4 \t\t\t\n  SWAP3 \t\t\t\n  POP \t\t\t\n  POP \t\t\t\n  POP \t\t\t\n  JUMP [out]\t\t\t\ntag 66\t\t\t\n  JUMPDEST \t\t\t\n  PUSH 1\t\t\t\n  DUP2 \t\t\t\n  DUP2 \t\t\t\n  SHR \t\t\t\n  SWAP1 \t\t\t\n  DUP3 \t\t\t\n  AND \t\t\t\n  DUP1 \t\t\t\n  PUSH [tag] 122\t\t\t\n  JUMPI \t\t\t\n  PUSH 7F\t\t\t\n  DUP3 \t\t\t\n  AND \t\t\t\n  SWAP2 \t\t\t\n  POP \t\t\t\ntag 122\t\t\t\n  JUMPDEST \t\t\t\n  PUSH 20\t\t\t\n  DUP3 \t\t\t\n  LT \t\t\t\n  DUP2 \t\t\t\n  EQ \t\t\t\n  ISZERO \t\t\t\n  PUSH [tag] 123\t\t\t\n  JUMPI \t\t\t\n  PUSH 4E487B71\t\t\t\n  PUSH E0\t\t\t\n  SHL \t\t\t\n  PUSH 0\t\t\t\n  MSTORE \t\t\t\n  PUSH 22\t\t\t\n  PUSH 4\t\t\t\n  MSTORE \t\t\t\n  PUSH 24\t\t\t\n  PUSH 0\t\t\t\n  REVERT \t\t\t\ntag 123\t\t\t\n  JUMPDEST \t\t\t\n  POP \t\t\t\n  SWAP2 \t\t\t\n  SWAP1 \t\t\t\n  POP \t\t\t\n  JUMP [out]\t\t\t\ntag 80\t\t\t\n  JUMPDEST \t\t\t\n  PUSH #[$] 0000000000000000000000000000000000000000000000000000000000000000\t\t\tcontract CErc20Immutable is CE...\n  DUP1 \t\t\tcontract CErc20Immutable is CE...\n  PUSH [$] 0000000000000000000000000000000000000000000000000000000000000000\t\t\tcontract CErc20Immutable is CE...\n  PUSH 0\t\t\tcontract CErc20Immutable is CE...\n  CODECOPY \t\t\tcontract CErc20Immutable is CE...\n  PUSH 0\t\t\tcontract CErc20Immutable is CE...\n  RETURN \t\t\tcontract CErc20Immutable is CE...\n.data\n  0:\n    .code\n      PUSH 80\t\t\tcontract CErc20Immutable is CE...\n      PUSH 40\t\t\tcontract CErc20Immutable is CE...\n      MSTORE \t\t\tcontract CErc20Immutable is CE...\n      CALLVALUE \t\t\tcontract CErc20Immutable is CE...\n      DUP1 \t\t\tcontract CErc20Immutable is CE...\n      ISZERO \t\t\tcontract CErc20Immutable is CE...\n      PUSH [tag] 1\t\t\tcontract CErc20Immutable is CE...\n      JUMPI \t\t\tcontract CErc20Immutable is CE...\n      PUSH 0\t\t\tcontract CErc20Immutable is CE...\n      DUP1 \t\t\tcontract CErc20Immutable is CE...\n      REVERT \t\t\tcontract CErc20Immutable is CE...\n    tag 1\t\t\tcontract CErc20Immutable is CE...\n      JUMPDEST \t\t\tcontract CErc20Immutable is CE...\n      POP \t\t\tcontract CErc20Immutable is CE...\n      PUSH 4\t\t\tcontract CErc20Immutable is CE...\n      CALLDATASIZE \t\t\tcontract CErc20Immutable is CE...\n      LT \t\t\tcontract CErc20Immutable is CE...\n      PUSH [tag] 2\t\t\tcontract CErc20Immutable is CE...\n      JUMPI \t\t\tcontract CErc20Immutable is CE...\n      PUSH 0\t\t\tcontract CErc20Immutable is CE...\n      CALLDATALOAD \t\t\tcontract CErc20Immutable is CE...\n      PUSH E0\t\t\tcontract CErc20Immutable is CE...\n      SHR \t\t\tcontract CErc20Immutable is CE...\n      DUP1 \t\t\tcontract CErc20Immutable is CE...\n      PUSH 7F1E06BE\t\t\tcontract CErc20Immutable is CE...\n      GT \t\t\tcontract CErc20Immutable is CE...\n      PUSH [tag] 55\t\t\tcontract CErc20Immutable is CE...\n      JUMPI \t\t\tcontract CErc20Immutable is CE...\n      DUP1 \t\t\tcontract CErc20Immutable is CE...\n      PUSH BD6D894D\t\t\tcontract CErc20Immutable is CE...\n      GT \t\t\tcontract CErc20Immutable is CE...\n      PUSH [tag] 56\t\t\tcontract CErc20Immutable is CE...\n      JUMPI \t\t\tcontract CErc20Immutable is CE...\n      DUP1 \t\t\tcontract CErc20Immutable is CE...\n      PUSH F2B3ABBD\t\t\tcontract CErc20Immutable is CE...\n      GT \t\t\tcontract CErc20Immutable is CE...\n      PUSH [tag] 57\t\t\tcontract CErc20Immutable is CE...\n      JUMPI \t\t\tcontract CErc20Immutable is CE...\n      DUP1 \t\t\tcontract CErc20Immutable is CE...\n      PUSH F851A440\t\t\tcontract CErc20Immutable is CE...\n      GT \t\t\tcontract CErc20Immutable is CE...\n      PUSH [tag] 58\t\t\tcontract CErc20Immutable is CE...\n      JUMPI \t\t\tcontract CErc20Immutable is CE...\n      DUP1 \t\t\tcontract CErc20Immutable is CE...\n      PUSH F851A440\t\t\tcontract CErc20Immutable is CE...\n      EQ \t\t\tcontract CErc20Immutable is CE...\n      PUSH [tag] 51\t\t\tcontract CErc20Immutable is CE...\n      JUMPI \t\t\tcontract CErc20Immutable is CE...\n      DUP1 \t\t\tcontract CErc20Immutable is CE...\n      PUSH F8F9DA28\t\t\tcontract CErc20Immutable is CE...\n      EQ \t\t\tcontract CErc20Immutable is CE...\n      PUSH [tag] 52\t\t\tcontract CErc20Immutable is CE...\n      JUMPI \t\t\tcontract CErc20Immutable is CE...\n      DUP1 \t\t\tcontract CErc20Immutable is CE...\n      PUSH FCA7820B\t\t\tcontract CErc20Immutable is CE...\n      EQ \t\t\tcontract CErc20Immutable is CE...\n      PUSH [tag] 53\t\t\tcontract CErc20Immutable is CE...\n      JUMPI \t\t\tcontract CErc20Immutable is CE...\n      DUP1 \t\t\tcontract CErc20Immutable is CE...\n      PUSH FE9C44AE\t\t\tcontract CErc20Immutable is CE...\n      EQ \t\t\tcontract CErc20Immutable is CE...\n      PUSH [tag] 54\t\t\tcontract CErc20Immutable is CE...\n      JUMPI \t\t\tcontract CErc20Immutable is CE...\n      PUSH 0\t\t\tcontract CErc20Immutable is CE...\n      DUP1 \t\t\tcontract CErc20Immutable is CE...\n      REVERT \t\t\tcontract CErc20Immutable is CE...\n    tag 58\t\t\tcontract CErc20Immutable is CE...\n      JUMPDEST \t\t\tcontract CErc20Immutable is CE...\n      DUP1 \t\t\tcontract CErc20Immutable is CE...\n      PUSH F2B3ABBD\t\t\tcontract CErc20Immutable is CE...\n      EQ \t\t\tcontract CErc20Immutable is CE...\n      PUSH [tag] 48\t\t\tcontract CErc20Immutable is CE...\n      JUMPI \t\t\tcontract CErc20Immutable is CE...\n      DUP1 \t\t\tcontract CErc20Immutable is CE...\n      PUSH F3FDB15A\t\t\tcontract CErc20Immutable is CE...\n      EQ \t\t\tcontract CErc20Immutable is CE...\n      PUSH [tag] 49\t\t\tcontract CErc20Immutable is CE...\n      JUMPI \t\t\tcontract CErc20Immutable is CE...\n      DUP1 \t\t\tcontract CErc20Immutable is CE...\n      PUSH F5E3C462\t\t\tcontract CErc20Immutable is CE...\n      EQ \t\t\tcontract CErc20Immutable is CE...\n      PUSH [tag] 50\t\t\tcontract CErc20Immutable is CE...\n      JUMPI \t\t\tcontract CErc20Immutable is CE...\n      PUSH 0\t\t\tcontract CErc20Immutable is CE...\n      DUP1 \t\t\tcontract CErc20Immutable is CE...\n      REVERT \t\t\tcontract CErc20Immutable is CE...\n    tag 57\t\t\tcontract CErc20Immutable is CE...\n      JUMPDEST \t\t\tcontract CErc20Immutable is CE...\n      DUP1 \t\t\tcontract CErc20Immutable is CE...\n      PUSH BD6D894D\t\t\tcontract CErc20Immutable is CE...\n      EQ \t\t\tcontract CErc20Immutable is CE...\n      PUSH [tag] 42\t\t\tcontract CErc20Immutable is CE...\n      JUMPI \t\t\tcontract CErc20Immutable is CE...\n      DUP1 \t\t\tcontract CErc20Immutable is CE...\n      PUSH C37F68E2\t\t\tcontract CErc20Immutable is CE...\n      EQ \t\t\tcontract CErc20Immutable is CE...\n      PUSH [tag] 43\t\t\tcontract CErc20Immutable is CE...\n      JUMPI \t\t\tcontract CErc20Immutable is CE...\n      DUP1 \t\t\tcontract CErc20Immutable is CE...\n      PUSH C5EBEAEC\t\t\tcontract CErc20Immutable is CE...\n      EQ \t\t\tcontract CErc20Immutable is CE...\n      PUSH [tag] 44\t\t\tcontract CErc20Immutable is CE...\n      JUMPI \t\t\tcontract CErc20Immutable is CE...\n      DUP1 \t\t\tcontract CErc20Immutable is CE...\n      PUSH DB006A75\t\t\tcontract CErc20Immutable is CE...\n      EQ \t\t\tcontract CErc20Immutable is CE...\n      PUSH [tag] 45\t\t\tcontract CErc20Immutable is CE...\n      JUMPI \t\t\tcontract CErc20Immutable is CE...\n      DUP1 \t\t\tcontract CErc20Immutable is CE...\n      PUSH DD62ED3E\t\t\tcontract CErc20Immutable is CE...\n      EQ \t\t\tcontract CErc20Immutable is CE...\n      PUSH [tag] 46\t\t\tcontract CErc20Immutable is CE...\n      JUMPI \t\t\tcontract CErc20Immutable is CE...\n      DUP1 \t\t\tcontract CErc20Immutable is CE...\n      PUSH E9C714F2\t\t\tcontract CErc20Immutable is CE...\n      EQ \t\t\tcontract CErc20Immutable is CE...\n      PUSH [tag] 47\t\t\tcontract CErc20Immutable is CE...\n      JUMPI \t\t\tcontract CErc20Immutable is CE...\n      PUSH 0\t\t\tcontract CErc20Immutable is CE...\n      DUP1 \t\t\tcontract CErc20Immutable is CE...\n      REVERT \t\t\tcontract CErc20Immutable is CE...\n    tag 56\t\t\tcontract CErc20Immutable is CE...\n      JUMPDEST \t\t\tcontract CErc20Immutable is CE...\n      DUP1 \t\t\tcontract CErc20Immutable is CE...\n      PUSH A0712D68\t\t\tcontract CErc20Immutable is CE...\n      GT \t\t\tcontract CErc20Immutable is CE...\n      PUSH [tag] 59\t\t\tcontract CErc20Immutable is CE...\n      JUMPI \t\t\tcontract CErc20Immutable is CE...\n      DUP1 \t\t\tcontract CErc20Immutable is CE...\n      PUSH AA5AF0FD\t\t\tcontract CErc20Immutable is CE...\n      GT \t\t\tcontract CErc20Immutable is CE...\n      PUSH [tag] 60\t\t\tcontract CErc20Immutable is CE...\n      JUMPI \t\t\tcontract CErc20Immutable is CE...\n      DUP1 \t\t\tcontract CErc20Immutable is CE...\n      PUSH AA5AF0FD\t\t\tcontract CErc20Immutable is CE...\n      EQ \t\t\tcontract CErc20Immutable is CE...\n      PUSH [tag] 38\t\t\tcontract CErc20Immutable is CE...\n      JUMPI \t\t\tcontract CErc20Immutable is CE...\n      DUP1 \t\t\tcontract CErc20Immutable is CE...\n      PUSH AE9D70B0\t\t\tcontract CErc20Immutable is CE...\n      EQ \t\t\tcontract CErc20Immutable is CE...\n      PUSH [tag] 39\t\t\tcontract CErc20Immutable is CE...\n      JUMPI \t\t\tcontract CErc20Immutable is CE...\n      DUP1 \t\t\tcontract CErc20Immutable is CE...\n      PUSH B2A02FF1\t\t\tcontract CErc20Immutable is CE...\n      EQ \t\t\tcontract CErc20Immutable is CE...\n      PUSH [tag] 40\t\t\tcontract CErc20Immutable is CE...\n      JUMPI \t\t\tcontract CErc20Immutable is CE...\n      DUP1 \t\t\tcontract CErc20Immutable is CE...\n      PUSH B71D1A0C\t\t\tcontract CErc20Immutable is CE...\n      EQ \t\t\tcontract CErc20Immutable is CE...\n      PUSH [tag] 41\t\t\tcontract CErc20Immutable is CE...\n      JUMPI \t\t\tcontract CErc20Immutable is CE...\n      PUSH 0\t\t\tcontract CErc20Immutable is CE...\n      DUP1 \t\t\tcontract CErc20Immutable is CE...\n      REVERT \t\t\tcontract CErc20Immutable is CE...\n    tag 60\t\t\tcontract CErc20Immutable is CE...\n      JUMPDEST \t\t\tcontract CErc20Immutable is CE...\n      DUP1 \t\t\tcontract CErc20Immutable is CE...\n      PUSH A0712D68\t\t\tcontract CErc20Immutable is CE...\n      EQ \t\t\tcontract CErc20Immutable is CE...\n      PUSH [tag] 35\t\t\tcontract CErc20Immutable is CE...\n      JUMPI \t\t\tcontract CErc20Immutable is CE...\n      DUP1 \t\t\tcontract CErc20Immutable is CE...\n      PUSH A6AFED95\t\t\tcontract CErc20Immutable is CE...\n      EQ \t\t\tcontract CErc20Immutable is CE...\n      PUSH [tag] 36\t\t\tcontract CErc20Immutable is CE...\n      JUMPI \t\t\tcontract CErc20Immutable is CE...\n      DUP1 \t\t\tcontract CErc20Immutable is CE...\n      PUSH A9059CBB\t\t\tcontract CErc20Immutable is CE...\n      EQ \t\t\tcontract CErc20Immutable is CE...\n      PUSH [tag] 37\t\t\tcontract CErc20Immutable is CE...\n      JUMPI \t\t\tcontract CErc20Immutable is CE...\n      PUSH 0\t\t\tcontract CErc20Immutable is CE...\n      DUP1 \t\t\tcontract CErc20Immutable is CE...\n      REVERT \t\t\tcontract CErc20Immutable is CE...\n    tag 59\t\t\tcontract CErc20Immutable is CE...\n      JUMPDEST \t\t\tcontract CErc20Immutable is CE...\n      DUP1 \t\t\tcontract CErc20Immutable is CE...\n      PUSH 7F1E06BE\t\t\tcontract CErc20Immutable is CE...\n      EQ \t\t\tcontract CErc20Immutable is CE...\n      PUSH [tag] 29\t\t\tcontract CErc20Immutable is CE...\n      JUMPI \t\t\tcontract CErc20Immutable is CE...\n      DUP1 \t\t\tcontract CErc20Immutable is CE...\n      PUSH 852A12E3\t\t\tcontract CErc20Immutable is CE...\n      EQ \t\t\tcontract CErc20Immutable is CE...\n      PUSH [tag] 30\t\t\tcontract CErc20Immutable is CE...\n      JUMPI \t\t\tcontract CErc20Immutable is CE...\n      DUP1 \t\t\tcontract CErc20Immutable is CE...\n      PUSH 8F840DDD\t\t\tcontract CErc20Immutable is CE...\n      EQ \t\t\tcontract CErc20Immutable is CE...\n      PUSH [tag] 31\t\t\tcontract CErc20Immutable is CE...\n      JUMPI \t\t\tcontract CErc20Immutable is CE...\n      DUP1 \t\t\tcontract CErc20Immutable is CE...\n      PUSH 95D89B41\t\t\tcontract CErc20Immutable is CE...\n      EQ \t\t\tcontract CErc20Immutable is CE...\n      PUSH [tag] 32\t\t\tcontract CErc20Immutable is CE...\n      JUMPI \t\t\tcontract CErc20Immutable is CE...\n      DUP1 \t\t\tcontract CErc20Immutable is CE...\n      PUSH 95DD9193\t\t\tcontract CErc20Immutable is CE...\n      EQ \t\t\tcontract CErc20Immutable is CE...\n      PUSH [tag] 33\t\t\tcontract CErc20Immutable is CE...\n      JUMPI \t\t\tcontract CErc20Immutable is CE...\n      DUP1 \t\t\tcontract CErc20Immutable is CE...\n      PUSH 99D8C1B4\t\t\tcontract CErc20Immutable is CE...\n      EQ \t\t\tcontract CErc20Immutable is CE...\n      PUSH [tag] 34\t\t\tcontract CErc20Immutable is CE...\n      JUMPI \t\t\tcontract CErc20Immutable is CE...\n      PUSH 0\t\t\tcontract CErc20Immutable is CE...\n      DUP1 \t\t\tcontract CErc20Immutable is CE...\n      REVERT \t\t\tcontract CErc20Immutable is CE...\n    tag 55\t\t\tcontract CErc20Immutable is CE...\n      JUMPDEST \t\t\tcontract CErc20Immutable is CE...\n      DUP1 \t\t\tcontract CErc20Immutable is CE...\n      PUSH 3AF9E669\t\t\tcontract CErc20Immutable is CE...\n      GT \t\t\tcontract CErc20Immutable is CE...\n      PUSH [tag] 61\t\t\tcontract CErc20Immutable is CE...\n      JUMPI \t\t\tcontract CErc20Immutable is CE...\n      DUP1 \t\t\tcontract CErc20Immutable is CE...\n      PUSH 601A0BF1\t\t\tcontract CErc20Immutable is CE...\n      GT \t\t\tcontract CErc20Immutable is CE...\n      PUSH [tag] 62\t\t\tcontract CErc20Immutable is CE...\n      JUMPI \t\t\tcontract CErc20Immutable is CE...\n      DUP1 \t\t\tcontract CErc20Immutable is CE...\n      PUSH 6C540BAF\t\t\tcontract CErc20Immutable is CE...\n      GT \t\t\tcontract CErc20Immutable is CE...\n      PUSH [tag] 63\t\t\tcontract CErc20Immutable is CE...\n      JUMPI \t\t\tcontract CErc20Immutable is CE...\n      DUP1 \t\t\tcontract CErc20Immutable is CE...\n      PUSH 6C540BAF\t\t\tcontract CErc20Immutable is CE...\n      EQ \t\t\tcontract CErc20Immutable is CE...\n      PUSH [tag] 25\t\t\tcontract CErc20Immutable is CE...\n      JUMPI \t\t\tcontract CErc20Immutable is CE...\n      DUP1 \t\t\tcontract CErc20Immutable is CE...\n      PUSH 6F307DC3\t\t\tcontract CErc20Immutable is CE...\n      EQ \t\t\tcontract CErc20Immutable is CE...\n      PUSH [tag] 26\t\t\tcontract CErc20Immutable is CE...\n      JUMPI \t\t\tcontract CErc20Immutable is CE...\n      DUP1 \t\t\tcontract CErc20Immutable is CE...\n      PUSH 70A08231\t\t\tcontract CErc20Immutable is CE...\n      EQ \t\t\tcontract CErc20Immutable is CE...\n      PUSH [tag] 27\t\t\tcontract CErc20Immutable is CE...\n      JUMPI \t\t\tcontract CErc20Immutable is CE...\n      DUP1 \t\t\tcontract CErc20Immutable is CE...\n      PUSH 73ACEE98\t\t\tcontract CErc20Immutable is CE...\n      EQ \t\t\tcontract CErc20Immutable is CE...\n      PUSH [tag] 28\t\t\tcontract CErc20Immutable is CE...\n      JUMPI \t\t\tcontract CErc20Immutable is CE...\n      PUSH 0\t\t\tcontract CErc20Immutable is CE...\n      DUP1 \t\t\tcontract CErc20Immutable is CE...\n      REVERT \t\t\tcontract CErc20Immutable is CE...\n    tag 63\t\t\tcontract CErc20Immutable is CE...\n      JUMPDEST \t\t\tcontract CErc20Immutable is CE...\n      DUP1 \t\t\tcontract CErc20Immutable is CE...\n      PUSH 601A0BF1\t\t\tcontract CErc20Immutable is CE...\n      EQ \t\t\tcontract CErc20Immutable is CE...\n      PUSH [tag] 22\t\t\tcontract CErc20Immutable is CE...\n      JUMPI \t\t\tcontract CErc20Immutable is CE...\n      DUP1 \t\t\tcontract CErc20Immutable is CE...\n      PUSH 6752E702\t\t\tcontract CErc20Immutable is CE...\n      EQ \t\t\tcontract CErc20Immutable is CE...\n      PUSH [tag] 23\t\t\tcontract CErc20Immutable is CE...\n      JUMPI \t\t\tcontract CErc20Immutable is CE...\n      DUP1 \t\t\tcontract CErc20Immutable is CE...\n      PUSH 69AB3250\t\t\tcontract CErc20Immutable is CE...\n      EQ \t\t\tcontract CErc20Immutable is CE...\n      PUSH [tag] 24\t\t\tcontract CErc20Immutable is CE...\n      JUMPI \t\t\tcontract CErc20Immutable is CE...\n      PUSH 0\t\t\tcontract CErc20Immutable is CE...\n      DUP1 \t\t\tcontract CErc20Immutable is CE...\n      REVERT \t\t\tcontract CErc20Immutable is CE...\n    tag 62\t\t\tcontract CErc20Immutable is CE...\n      JUMPDEST \t\t\tcontract CErc20Immutable is CE...\n      DUP1 \t\t\tcontract CErc20Immutable is CE...\n      PUSH 3AF9E669\t\t\tcontract CErc20Immutable is CE...\n      EQ \t\t\tcontract CErc20Immutable is CE...\n      PUSH [tag] 16\t\t\tcontract CErc20Immutable is CE...\n      JUMPI \t\t\tcontract CErc20Immutable is CE...\n      DUP1 \t\t\tcontract CErc20Immutable is CE...\n      PUSH 3B1D21A2\t\t\tcontract CErc20Immutable is CE...\n      EQ \t\t\tcontract CErc20Immutable is CE...\n      PUSH [tag] 17\t\t\tcontract CErc20Immutable is CE...\n      JUMPI \t\t\tcontract CErc20Immutable is CE...\n      DUP1 \t\t\tcontract CErc20Immutable is CE...\n      PUSH 3E941010\t\t\tcontract CErc20Immutable is CE...\n      EQ \t\t\tcontract CErc20Immutable is CE...\n      PUSH [tag] 18\t\t\tcontract CErc20Immutable is CE...\n      JUMPI \t\t\tcontract CErc20Immutable is CE...\n      DUP1 \t\t\tcontract CErc20Immutable is CE...\n      PUSH 4576B5DB\t\t\tcontract CErc20Immutable is CE...\n      EQ \t\t\tcontract CErc20Immutable is CE...\n      PUSH [tag] 19\t\t\tcontract CErc20Immutable is CE...\n      JUMPI \t\t\tcontract CErc20Immutable is CE...\n      DUP1 \t\t\tcontract CErc20Immutable is CE...\n      PUSH 47BD3718\t\t\tcontract CErc20Immutable is CE...\n      EQ \t\t\tcontract CErc20Immutable is CE...\n      PUSH [tag] 20\t\t\tcontract CErc20Immutable is CE...\n      JUMPI \t\t\tcontract CErc20Immutable is CE...\n      DUP1 \t\t\tcontract CErc20Immutable is CE...\n      PUSH 5FE3B567\t\t\tcontract CErc20Immutable is CE...\n      EQ \t\t\tcontract CErc20Immutable is CE...\n      PUSH [tag] 21\t\t\tcontract CErc20Immutable is CE...\n      JUMPI \t\t\tcontract CErc20Immutable is CE...\n      PUSH 0\t\t\tcontract CErc20Immutable is CE...\n      DUP1 \t\t\tcontract CErc20Immutable is CE...\n      REVERT \t\t\tcontract CErc20Immutable is CE...\n    tag 61\t\t\tcontract CErc20Immutable is CE...\n      JUMPDEST \t\t\tcontract CErc20Immutable is CE...\n      DUP1 \t\t\tcontract CErc20Immutable is CE...\n      PUSH 182DF0F5\t\t\tcontract CErc20Immutable is CE...\n      GT \t\t\tcontract CErc20Immutable is CE...\n      PUSH [tag] 64\t\t\tcontract CErc20Immutable is CE...\n      JUMPI \t\t\tcontract CErc20Immutable is CE...\n      DUP1 \t\t\tcontract CErc20Immutable is CE...\n      PUSH 23B872DD\t\t\tcontract CErc20Immutable is CE...\n      GT \t\t\tcontract CErc20Immutable is CE...\n      PUSH [tag] 65\t\t\tcontract CErc20Immutable is CE...\n      JUMPI \t\t\tcontract CErc20Immutable is CE...\n      DUP1 \t\t\tcontract CErc20Immutable is CE...\n      PUSH 23B872DD\t\t\tcontract CErc20Immutable is CE...\n      EQ \t\t\tcontract CErc20Immutable is CE...\n      PUSH [tag] 12\t\t\tcontract CErc20Immutable is CE...\n      JUMPI \t\t\tcontract CErc20Immutable is CE...\n      DUP1 \t\t\tcontract CErc20Immutable is CE...\n      PUSH 2608F818\t\t\tcontract CErc20Immutable is CE...\n      EQ \t\t\tcontract CErc20Immutable is CE...\n      PUSH [tag] 13\t\t\tcontract CErc20Immutable is CE...\n      JUMPI \t\t\tcontract CErc20Immutable is CE...\n      DUP1 \t\t\tcontract CErc20Immutable is CE...\n      PUSH 26782247\t\t\tcontract CErc20Immutable is CE...\n      EQ \t\t\tcontract CErc20Immutable is CE...\n      PUSH [tag] 14\t\t\tcontract CErc20Immutable is CE...\n      JUMPI \t\t\tcontract CErc20Immutable is CE...\n      DUP1 \t\t\tcontract CErc20Immutable is CE...\n      PUSH 313CE567\t\t\tcontract CErc20Immutable is CE...\n      EQ \t\t\tcontract CErc20Immutable is CE...\n      PUSH [tag] 15\t\t\tcontract CErc20Immutable is CE...\n      JUMPI \t\t\tcontract CErc20Immutable is CE...\n      PUSH 0\t\t\tcontract CErc20Immutable is CE...\n      DUP1 \t\t\tcontract CErc20Immutable is CE...\n      REVERT \t\t\tcontract CErc20Immutable is CE...\n    tag 65\t\t\tcontract CErc20Immutable is CE...\n      JUMPDEST \t\t\tcontract CErc20Immutable is CE...\n      DUP1 \t\t\tcontract CErc20Immutable is CE...\n      PUSH 182DF0F5\t\t\tcontract CErc20Immutable is CE...\n      EQ \t\t\tcontract CErc20Immutable is CE...\n      PUSH [tag] 9\t\t\tcontract CErc20Immutable is CE...\n      JUMPI \t\t\tcontract CErc20Immutable is CE...\n      DUP1 \t\t\tcontract CErc20Immutable is CE...\n      PUSH 1A31D465\t\t\tcontract CErc20Immutable is CE...\n      EQ \t\t\tcontract CErc20Immutable is CE...\n      PUSH [tag] 10\t\t\tcontract CErc20Immutable is CE...\n      JUMPI \t\t\tcontract CErc20Immutable is CE...\n      DUP1 \t\t\tcontract CErc20Immutable is CE...\n      PUSH 1BE19560\t\t\tcontract CErc20Immutable is CE...\n      EQ \t\t\tcontract CErc20Immutable is CE...\n      PUSH [tag] 11\t\t\tcontract CErc20Immutable is CE...\n      JUMPI \t\t\tcontract CErc20Immutable is CE...\n      PUSH 0\t\t\tcontract CErc20Immutable is CE...\n      DUP1 \t\t\tcontract CErc20Immutable is CE...\n      REVERT \t\t\tcontract CErc20Immutable is CE...\n    tag 64\t\t\tcontract CErc20Immutable is CE...\n      JUMPDEST \t\t\tcontract CErc20Immutable is CE...\n      DUP1 \t\t\tcontract CErc20Immutable is CE...\n      PUSH 6FDDE03\t\t\tcontract CErc20Immutable is CE...\n      EQ \t\t\tcontract CErc20Immutable is CE...\n      PUSH [tag] 3\t\t\tcontract CErc20Immutable is CE...\n      JUMPI \t\t\tcontract CErc20Immutable is CE...\n      DUP1 \t\t\tcontract CErc20Immutable is CE...\n      PUSH 95EA7B3\t\t\tcontract CErc20Immutable is CE...\n      EQ \t\t\tcontract CErc20Immutable is CE...\n      PUSH [tag] 4\t\t\tcontract CErc20Immutable is CE...\n      JUMPI \t\t\tcontract CErc20Immutable is CE...\n      DUP1 \t\t\tcontract CErc20Immutable is CE...\n      PUSH E752702\t\t\tcontract CErc20Immutable is CE...\n      EQ \t\t\tcontract CErc20Immutable is CE...\n      PUSH [tag] 5\t\t\tcontract CErc20Immutable is CE...\n      JUMPI \t\t\tcontract CErc20Immutable is CE...\n      DUP1 \t\t\tcontract CErc20Immutable is CE...\n      PUSH 173B9904\t\t\tcontract CErc20Immutable is CE...\n      EQ \t\t\tcontract CErc20Immutable is CE...\n      PUSH [tag] 6\t\t\tcontract CErc20Immutable is CE...\n      JUMPI \t\t\tcontract CErc20Immutable is CE...\n      DUP1 \t\t\tcontract CErc20Immutable is CE...\n      PUSH 17BFDFBC\t\t\tcontract CErc20Immutable is CE...\n      EQ \t\t\tcontract CErc20Immutable is CE...\n      PUSH [tag] 7\t\t\tcontract CErc20Immutable is CE...\n      JUMPI \t\t\tcontract CErc20Immutable is CE...\n      DUP1 \t\t\tcontract CErc20Immutable is CE...\n      PUSH 18160DDD\t\t\tcontract CErc20Immutable is CE...\n      EQ \t\t\tcontract CErc20Immutable is CE...\n      PUSH [tag] 8\t\t\tcontract CErc20Immutable is CE...\n      JUMPI \t\t\tcontract CErc20Immutable is CE...\n    tag 2\t\t\tcontract CErc20Immutable is CE...\n      JUMPDEST \t\t\tcontract CErc20Immutable is CE...\n      PUSH 0\t\t\tcontract CErc20Immutable is CE...\n      DUP1 \t\t\tcontract CErc20Immutable is CE...\n      REVERT \t\t\tcontract CErc20Immutable is CE...\n    tag 3\t\t\toller_ The address\n      JUMPDEST \t\t\toller_ The address\n      PUSH [tag] 66\t\t\toller_ The address\n      PUSH [tag] 67\t\t\toller_ The address\n      JUMP [in]\t\t\toller_ The address\n    tag 66\t\t\toller_ The address\n      JUMPDEST \t\t\toller_ The address\n      PUSH 40\t\t\toller_ The address\n      MLOAD \t\t\toller_ The address\n      PUSH [tag] 68\t\t\toller_ The address\n      SWAP2 \t\t\toller_ The address\n      SWAP1 \t\t\toller_ The address\n      PUSH [tag] 69\t\t\toller_ The address\n      JUMP [in]\t\t\toller_ The address\n    tag 68\t\t\toller_ The address\n      JUMPDEST \t\t\toller_ The address\n      PUSH 40\t\t\toller_ The address\n      MLOAD \t\t\toller_ The address\n      DUP1 \t\t\toller_ The address\n      SWAP2 \t\t\toller_ The address\n      SUB \t\t\toller_ The address\n      SWAP1 \t\t\toller_ The address\n      RETURN \t\t\toller_ The address\n    tag 4\t\t\t\n      JUMPDEST \t\t\t\n      PUSH [tag] 70\t\t\t\n      PUSH [tag] 71\t\t\t\n      CALLDATASIZE \t\t\t\n      PUSH 4\t\t\t\n      PUSH [tag] 72\t\t\t\n      JUMP [in]\t\t\t\n    tag 71\t\t\t\n      JUMPDEST \t\t\t\n      PUSH [tag] 73\t\t\t\n      JUMP [in]\t\t\t\n    tag 70\t\t\t\n      JUMPDEST \t\t\t\n      PUSH 40\t\t\t\n      MLOAD \t\t\t\n      SWAP1 \t\t\tct is admin du\n      ISZERO \t\t\tct is admin du\n      ISZERO \t\t\t contract is admin dur\n      DUP2 \t\t\t // Creator of the contract is...\n      MSTORE \t\t\t // Creator of the contract is...\n      PUSH 20\t\t\t) \n      ADD \t\t\t payable admin_) {\n      PUSH [tag] 68\t\t\t\n      JUMP \t\t\t memory name_,\\r\\n            ...\n    tag 5\t\t\t\n      JUMPDEST \t\t\t\n      PUSH [tag] 76\t\t\t\n      PUSH [tag] 77\t\t\t\n      CALLDATASIZE \t\t\t\n      PUSH 4\t\t\t\n      PUSH [tag] 78\t\t\t\n      JUMP [in]\t\t\t\n    tag 77\t\t\t\n      JUMPDEST \t\t\t\n      PUSH [tag] 79\t\t\t\n      JUMP [in]\t\t\t\n    tag 76\t\t\t\n      JUMPDEST \t\t\t\n      PUSH 40\t\t\t\n      MLOAD \t\t\t\n      SWAP1 \t\t\t\n      DUP2 \t\t\t\n      MSTORE \t\t\t\n      PUSH 20\t\t\t\n      ADD \t\t\t\\r\\n}\\r\\n\n      PUSH [tag] 68\t\t\t\n      JUMP \t\t\tsymbol_, decimals_);\\r\\n\\r\\n  ...\n    tag 6\t\t\t\n      JUMPDEST \t\t\t\n      PUSH [tag] 76\t\t\t\n      PUSH 8\t\t\t\n      SLOAD \t\t\t\n      DUP2 \t\t\t\n      JUMP \t\t\t\n    tag 7\t\t\t\n      JUMPDEST \t\t\t\n      PUSH [tag] 76\t\t\t\n      PUSH [tag] 86\t\t\t\n      CALLDATASIZE \t\t\t\n      PUSH 4\t\t\t\n      PUSH [tag] 87\t\t\t\n      JUMP [in]\t\t\t\n    tag 86\t\t\t\n      JUMPDEST \t\t\t\n      PUSH [tag] 88\t\t\t\n      JUMP [in]\t\t\t\n    tag 8\t\t\t\n      JUMPDEST \t\t\t\n      PUSH [tag] 76\t\t\t\n      PUSH D\t\t\t\n      SLOAD \t\t\t\n      DUP2 \t\t\t\n      JUMP \t\t\t\n    tag 9\t\t\t\n      JUMPDEST \t\t\t\n      PUSH [tag] 76\t\t\t\n      PUSH [tag] 94\t\t\t\n      JUMP [in]\t\t\t\n    tag 10\t\t\t  constructor(address underlyi...\n      JUMPDEST \t\t\t  constructor(address underlyi...\n      PUSH [tag] 96\t\t\t  constructor(address underlyi...\n      PUSH [tag] 97\t\t\t  constructor(address underlyi...\n      CALLDATASIZE \t\t\t  constructor(address underlyi...\n      PUSH 4\t\t\t  constructor(address underlyi...\n      PUSH [tag] 98\t\t\t  constructor(address underlyi...\n      JUMP [in]\t\t\t  constructor(address underlyi...\n    tag 97\t\t\t  constructor(address underlyi...\n      JUMPDEST \t\t\t  constructor(address underlyi...\n      PUSH [tag] 99\t\t\t  constructor(address underlyi...\n      JUMP [in]\t\t\t  constructor(address underlyi...\n    tag 96\t\t\t  constructor(address underlyi...\n      JUMPDEST \t\t\t  constructor(address underlyi...\n      STOP \t\t\t  constructor(address underlyi...\n    tag 11\t\t\t\n      JUMPDEST \t\t\t\n      PUSH [tag] 96\t\t\t\n      PUSH [tag] 101\t\t\t\n      CALLDATASIZE \t\t\t\n      PUSH 4\t\t\t\n      PUSH [tag] 87\t\t\t\n      JUMP [in]\t\t\t\n    tag 101\t\t\t\n      JUMPDEST \t\t\t\n      PUSH [tag] 103\t\t\t\n      JUMP [in]\t\t\t\n    tag 12\t\t\t\n      JUMPDEST \t\t\t\n      PUSH [tag] 70\t\t\t\n      PUSH [tag] 105\t\t\t\n      CALLDATASIZE \t\t\t\n      PUSH 4\t\t\t\n      PUSH [tag] 106\t\t\t\n      JUMP [in]\t\t\t\n    tag 105\t\t\t\n      JUMPDEST \t\t\t\n      PUSH [tag] 107\t\t\t\n      JUMP [in]\t\t\t\n    tag 13\t\t\t\n      JUMPDEST \t\t\t\n      PUSH [tag] 76\t\t\t\n      PUSH [tag] 110\t\t\t\n      CALLDATASIZE \t\t\t\n      PUSH 4\t\t\t\n      PUSH [tag] 72\t\t\t\n      JUMP [in]\t\t\t\n    tag 110\t\t\t\n      JUMPDEST \t\t\t\n      PUSH [tag] 111\t\t\t\n      JUMP [in]\t\t\t\n    tag 14\t\t\t          string memory symbol...\n      JUMPDEST \t\t\t          string memory symbol...\n      PUSH 4\t\t\t          string memory symbol...\n      SLOAD \t\t\t          string memory symbol...\n      PUSH [tag] 113\t\t\t          string memory symbol...\n      SWAP1 \t\t\t          string memory symbol...\n      PUSH 1\t\t\t\n      PUSH 1\t\t\t\n      PUSH A0\t\t\t\n      SHL \t\t\t\n      SUB \t\t\t\n      AND \t\t\t          string memory symbol...\n      DUP2 \t\t\t          string memory symbol...\n      JUMP \t\t\t          string memory symbol...\n    tag 113\t\t\t          string memory symbol...\n      JUMPDEST \t\t\t          string memory symbol...\n      PUSH 40\t\t\t          string memory symbol...\n      MLOAD \t\t\t          string memory symbol...\n      PUSH 1\t\t\t\n      PUSH 1\t\t\t\n      PUSH A0\t\t\t\n      SHL \t\t\t\n      SUB \t\t\t\n      SWAP1 \t\t\t\n      SWAP2 \t\t\t\n      AND \t\t\t\n      DUP2 \t\t\t\n      MSTORE \t\t\t\n      PUSH 20\t\t\t\n      ADD \t\t\t\n      PUSH [tag] 68\t\t\t          string memory symbol...\n      JUMP \t\t\t\n    tag 15\t\t\t\\r\\n     * @param name_\n      JUMPDEST \t\t\t\\r\\n     * @param name_\n      PUSH 3\t\t\t\\r\\n     * @param name_\n      SLOAD \t\t\t\\r\\n     * @param name_\n      PUSH [tag] 117\t\t\t\\r\\n     * @param name_\n      SWAP1 \t\t\t\\r\\n     * @param name_\n      PUSH FF\t\t\t\\r\\n     * @param name_\n      AND \t\t\t\\r\\n     * @param name_\n      DUP2 \t\t\t\\r\\n     * @param name_\n      JUMP \t\t\t\\r\\n     * @param name_\n    tag 117\t\t\t\\r\\n     * @param name_\n      JUMPDEST \t\t\t\\r\\n     * @param name_\n      PUSH 40\t\t\t\\r\\n     * @param name_\n      MLOAD \t\t\t\\r\\n     * @param name_\n      PUSH FF\t\t\t\n      SWAP1 \t\t\t\n      SWAP2 \t\t\t\n      AND \t\t\t\n      DUP2 \t\t\t\n      MSTORE \t\t\t\n      PUSH 20\t\t\t\n      ADD \t\t\t\n      PUSH [tag] 68\t\t\t\\r\\n     * @param name_\n      JUMP \t\t\t\n    tag 16\t\t\t\n      JUMPDEST \t\t\t\n      PUSH [tag] 76\t\t\t\n      PUSH [tag] 122\t\t\t\n      CALLDATASIZE \t\t\t\n      PUSH 4\t\t\t\n      PUSH [tag] 87\t\t\t\n      JUMP [in]\t\t\t\n    tag 122\t\t\t\n      JUMPDEST \t\t\t\n      PUSH [tag] 123\t\t\t\n      JUMP [in]\t\t\t\n    tag 17\t\t\t\n      JUMPDEST \t\t\t\n      PUSH [tag] 76\t\t\t\n      PUSH [tag] 126\t\t\t\n      JUMP [in]\t\t\t\n    tag 18\t\t\t\n      JUMPDEST \t\t\t\n      PUSH [tag] 76\t\t\t\n      PUSH [tag] 129\t\t\t\n      CALLDATASIZE \t\t\t\n      PUSH 4\t\t\t\n      PUSH [tag] 78\t\t\t\n      JUMP [in]\t\t\t\n    tag 129\t\t\t\n      JUMPDEST \t\t\t\n      PUSH [tag] 130\t\t\t\n      JUMP [in]\t\t\t\n    tag 19\t\t\t\n      JUMPDEST \t\t\t\n      PUSH [tag] 76\t\t\t\n      PUSH [tag] 133\t\t\t\n      CALLDATASIZE \t\t\t\n      PUSH 4\t\t\t\n      PUSH [tag] 87\t\t\t\n      JUMP [in]\t\t\t\n    tag 133\t\t\t\n      JUMPDEST \t\t\t\n      PUSH [tag] 135\t\t\t\n      JUMP [in]\t\t\t\n    tag 20\t\t\t\n      JUMPDEST \t\t\t\n      PUSH [tag] 76\t\t\t\n      PUSH B\t\t\t\n      SLOAD \t\t\t\n      DUP2 \t\t\t\n      JUMP \t\t\t\n    tag 21\t\t\ttor of the contract is admin d...\n      JUMPDEST \t\t\ttor of the contract is admin d...\n      PUSH 5\t\t\ttor of the contract is admin d...\n      SLOAD \t\t\ttor of the contract is admin d...\n      PUSH [tag] 113\t\t\ttor of the contract is admin d...\n      SWAP1 \t\t\ttor of the contract is admin d...\n      PUSH 1\t\t\t\n      PUSH 1\t\t\t\n      PUSH A0\t\t\t\n      SHL \t\t\t\n      SUB \t\t\t\n      AND \t\t\ttor of the contract is admin d...\n      DUP2 \t\t\ttor of the contract is admin d...\n      JUMP \t\t\ttor of the contract is admin d...\n    tag 22\t\t\t\n      JUMPDEST \t\t\t\n      PUSH [tag] 76\t\t\t\n      PUSH [tag] 145\t\t\t\n      CALLDATASIZE \t\t\t\n      PUSH 4\t\t\t\n      PUSH [tag] 78\t\t\t\n      JUMP [in]\t\t\t\n    tag 145\t\t\t\n      JUMPDEST \t\t\t\n      PUSH [tag] 146\t\t\t\n      JUMP [in]\t\t\t\n    tag 23\t\t\t\n      JUMPDEST \t\t\t\n      PUSH [tag] 76\t\t\t\n      PUSH 6379DA05B60000\t\t\t\n      DUP2 \t\t\t\n      JUMP \t\t\t\n    tag 24\t\t\t\n      JUMPDEST \t\t\t\n      PUSH [tag] 76\t\t\t\n      PUSH 0\t\t\t\n      DUP2 \t\t\t\n      JUMP \t\t\t\n    tag 25\t\t\t\n      JUMPDEST \t\t\t\n      PUSH [tag] 76\t\t\t\n      PUSH 9\t\t\t\n      SLOAD \t\t\t\n      DUP2 \t\t\t\n      JUMP \t\t\t\n    tag 26\t\t\t\n      JUMPDEST \t\t\t\n      PUSH 11\t\t\t\n      SLOAD \t\t\t\n      PUSH [tag] 113\t\t\t\n      SWAP1 \t\t\t\n      PUSH 1\t\t\t\n      PUSH 1\t\t\t\n      PUSH A0\t\t\t\n      SHL \t\t\t\n      SUB \t\t\t\n      AND \t\t\t\n      DUP2 \t\t\t\n      JUMP \t\t\t\n    tag 27\t\t\t\n      JUMPDEST \t\t\t\n      PUSH [tag] 76\t\t\t\n      PUSH [tag] 162\t\t\t\n      CALLDATASIZE \t\t\t\n      PUSH 4\t\t\t\n      PUSH [tag] 87\t\t\t\n      JUMP [in]\t\t\t\n    tag 162\t\t\t\n      JUMPDEST \t\t\t\n      PUSH 1\t\t\t\n      PUSH 1\t\t\t\n      PUSH A0\t\t\t\n      SHL \t\t\t\n      SUB \t\t\t\n      AND \t\t\t\n      PUSH 0\t\t\t\n      SWAP1 \t\t\t\n      DUP2 \t\t\t\n      MSTORE \t\t\t\n      PUSH E\t\t\t\n      PUSH 20\t\t\t\n      MSTORE \t\t\t\n      PUSH 40\t\t\t\n      SWAP1 \t\t\t\n      KECCAK256 \t\t\t\n      SLOAD \t\t\t\n      SWAP1 \t\t\t\n      JUMP \t\t\t\n    tag 28\t\t\t\n      JUMPDEST \t\t\t\n      PUSH [tag] 76\t\t\t\n      PUSH [tag] 166\t\t\t\n      JUMP [in]\t\t\t\n    tag 29\t\t\t\n      JUMPDEST \t\t\t\n      PUSH [tag] 96\t\t\t\n      PUSH [tag] 169\t\t\t\n      CALLDATASIZE \t\t\t\n      PUSH 4\t\t\t\n      PUSH [tag] 87\t\t\t\n      JUMP [in]\t\t\t\n    tag 169\t\t\t\n      JUMPDEST \t\t\t\n      PUSH [tag] 170\t\t\t\n      JUMP [in]\t\t\t\n    tag 30\t\t\t\n      JUMPDEST \t\t\t\n      PUSH [tag] 76\t\t\t\n      PUSH [tag] 172\t\t\t\n      CALLDATASIZE \t\t\t\n      PUSH 4\t\t\t\n      PUSH [tag] 78\t\t\t\n      JUMP [in]\t\t\t\n    tag 172\t\t\t\n      JUMPDEST \t\t\t\n      PUSH [tag] 173\t\t\t\n      JUMP [in]\t\t\t\n    tag 31\t\t\t\n      JUMPDEST \t\t\t\n      PUSH [tag] 76\t\t\t\n      PUSH C\t\t\t\n      SLOAD \t\t\t\n      DUP2 \t\t\t\n      JUMP \t\t\t\n    tag 32\t\t\test rate model\\r\\n    \n      JUMPDEST \t\t\test rate model\\r\\n    \n      PUSH [tag] 66\t\t\test rate model\\r\\n    \n      PUSH [tag] 179\t\t\test rate model\\r\\n    \n      JUMP [in]\t\t\test rate model\\r\\n    \n    tag 33\t\t\t\n      JUMPDEST \t\t\t\n      PUSH [tag] 76\t\t\t\n      PUSH [tag] 182\t\t\t\n      CALLDATASIZE \t\t\t\n      PUSH 4\t\t\t\n      PUSH [tag] 87\t\t\t\n      JUMP [in]\t\t\t\n    tag 182\t\t\t\n      JUMPDEST \t\t\t\n      PUSH [tag] 183\t\t\t\n      JUMP [in]\t\t\t\n    tag 34\t\t\toller_,\\r\\n                Int...\n      JUMPDEST \t\t\toller_,\\r\\n                Int...\n      PUSH [tag] 96\t\t\toller_,\\r\\n                Int...\n      PUSH [tag] 186\t\t\toller_,\\r\\n                Int...\n      CALLDATASIZE \t\t\toller_,\\r\\n                Int...\n      PUSH 4\t\t\toller_,\\r\\n                Int...\n      PUSH [tag] 187\t\t\toller_,\\r\\n                Int...\n      JUMP [in]\t\t\toller_,\\r\\n                Int...\n    tag 186\t\t\toller_,\\r\\n                Int...\n      JUMPDEST \t\t\toller_,\\r\\n                Int...\n      PUSH [tag] 188\t\t\toller_,\\r\\n                Int...\n      JUMP [in]\t\t\toller_,\\r\\n                Int...\n    tag 35\t\t\t\n      JUMPDEST \t\t\t\n      PUSH [tag] 76\t\t\t\n      PUSH [tag] 190\t\t\t\n      CALLDATASIZE \t\t\t\n      PUSH 4\t\t\t\n      PUSH [tag] 78\t\t\t\n      JUMP [in]\t\t\t\n    tag 190\t\t\t\n      JUMPDEST \t\t\t\n      PUSH [tag] 191\t\t\t\n      JUMP [in]\t\t\t\n    tag 36\t\t\t\n      JUMPDEST \t\t\t\n      PUSH [tag] 76\t\t\t\n      PUSH [tag] 194\t\t\t\n      JUMP [in]\t\t\t\n    tag 37\t\t\t\n      JUMPDEST \t\t\t\n      PUSH [tag] 70\t\t\t\n      PUSH [tag] 197\t\t\t\n      CALLDATASIZE \t\t\t\n      PUSH 4\t\t\t\n      PUSH [tag] 72\t\t\t\n      JUMP [in]\t\t\t\n    tag 197\t\t\t\n      JUMPDEST \t\t\t\n      PUSH [tag] 198\t\t\t\n      JUMP [in]\t\t\t\n    tag 38\t\t\t\n      JUMPDEST \t\t\t\n      PUSH [tag] 76\t\t\t\n      PUSH A\t\t\t\n      SLOAD \t\t\t\n      DUP2 \t\t\t\n      JUMP \t\t\t\n    tag 39\t\t\t\n      JUMPDEST \t\t\t\n      PUSH [tag] 76\t\t\t\n      PUSH [tag] 204\t\t\t\n      JUMP [in]\t\t\t\n    tag 40\t\t\t\n      JUMPDEST \t\t\t\n      PUSH [tag] 76\t\t\t\n      PUSH [tag] 207\t\t\t\n      CALLDATASIZE \t\t\t\n      PUSH 4\t\t\t\n      PUSH [tag] 106\t\t\t\n      JUMP [in]\t\t\t\n    tag 207\t\t\t\n      JUMPDEST \t\t\t\n      PUSH [tag] 208\t\t\t\n      JUMP [in]\t\t\t\n    tag 41\t\t\t\n      JUMPDEST \t\t\t\n      PUSH [tag] 76\t\t\t\n      PUSH [tag] 211\t\t\t\n      CALLDATASIZE \t\t\t\n      PUSH 4\t\t\t\n      PUSH [tag] 87\t\t\t\n      JUMP [in]\t\t\t\n    tag 211\t\t\t\n      JUMPDEST \t\t\t\n      PUSH [tag] 213\t\t\t\n      JUMP [in]\t\t\t\n    tag 42\t\t\t\n      JUMPDEST \t\t\t\n      PUSH [tag] 76\t\t\t\n      PUSH [tag] 216\t\t\t\n      JUMP [in]\t\t\t\n    tag 43\t\t\t\n      JUMPDEST \t\t\t\n      PUSH [tag] 218\t\t\t\n      PUSH [tag] 219\t\t\t\n      CALLDATASIZE \t\t\t\n      PUSH 4\t\t\t\n      PUSH [tag] 87\t\t\t\n      JUMP [in]\t\t\t\n    tag 219\t\t\t\n      JUMPDEST \t\t\t\n      PUSH [tag] 220\t\t\t\n      JUMP [in]\t\t\t\n    tag 218\t\t\t\n      JUMPDEST \t\t\t\n      PUSH 40\t\t\t\n      DUP1 \t\t\t\n      MLOAD \t\t\t\n      SWAP5 \t\t\t\n      DUP6 \t\t\t\n      MSTORE \t\t\t\n      PUSH 20\t\t\t\n      DUP6 \t\t\t\n      ADD \t\t\t\n      SWAP4 \t\t\t\n      SWAP1 \t\t\t\n      SWAP4 \t\t\t\n      MSTORE \t\t\t\n      SWAP2 \t\t\t\n      DUP4 \t\t\t\n      ADD \t\t\t\n      MSTORE \t\t\t\n      PUSH 60\t\t\t\n      DUP3 \t\t\t\n      ADD \t\t\t\n      MSTORE \t\t\t\n      PUSH 80\t\t\t\n      ADD \t\t\t\n      PUSH [tag] 68\t\t\t\n      JUMP \t\t\t\n    tag 44\t\t\t\n      JUMPDEST \t\t\t\n      PUSH [tag] 76\t\t\t\n      PUSH [tag] 224\t\t\t\n      CALLDATASIZE \t\t\t\n      PUSH 4\t\t\t\n      PUSH [tag] 78\t\t\t\n      JUMP [in]\t\t\t\n    tag 224\t\t\t\n      JUMPDEST \t\t\t\n      PUSH [tag] 225\t\t\t\n      JUMP [in]\t\t\t\n    tag 45\t\t\t\n      JUMPDEST \t\t\t\n      PUSH [tag] 76\t\t\t\n      PUSH [tag] 228\t\t\t\n      CALLDATASIZE \t\t\t\n      PUSH 4\t\t\t\n      PUSH [tag] 78\t\t\t\n      JUMP [in]\t\t\t\n    tag 228\t\t\t\n      JUMPDEST \t\t\t\n      PUSH [tag] 229\t\t\t\n      JUMP [in]\t\t\t\n    tag 46\t\t\t\n      JUMPDEST \t\t\t\n      PUSH [tag] 76\t\t\t\n      PUSH [tag] 232\t\t\t\n      CALLDATASIZE \t\t\t\n      PUSH 4\t\t\t\n      PUSH [tag] 233\t\t\t\n      JUMP [in]\t\t\t\n    tag 232\t\t\t\n      JUMPDEST \t\t\t\n      PUSH 1\t\t\t\n      PUSH 1\t\t\t\n      PUSH A0\t\t\t\n      SHL \t\t\t\n      SUB \t\t\t\n      SWAP2 \t\t\t\n      DUP3 \t\t\t\n      AND \t\t\t\n      PUSH 0\t\t\t\n      SWAP1 \t\t\t\n      DUP2 \t\t\t\n      MSTORE \t\t\t\n      PUSH F\t\t\t\n      PUSH 20\t\t\t\n      SWAP1 \t\t\t\n      DUP2 \t\t\t\n      MSTORE \t\t\t\n      PUSH 40\t\t\t\n      DUP1 \t\t\t\n      DUP4 \t\t\t\n      KECCAK256 \t\t\t\n      SWAP4 \t\t\t\n      SWAP1 \t\t\t\n      SWAP5 \t\t\t\n      AND \t\t\t\n      DUP3 \t\t\t\n      MSTORE \t\t\t\n      SWAP2 \t\t\t\n      SWAP1 \t\t\t\n      SWAP2 \t\t\t\n      MSTORE \t\t\t\n      KECCAK256 \t\t\t\n      SLOAD \t\t\t\n      SWAP1 \t\t\t\n      JUMP \t\t\t\n    tag 47\t\t\t\n      JUMPDEST \t\t\t\n      PUSH [tag] 76\t\t\t\n      PUSH [tag] 237\t\t\t\n      JUMP [in]\t\t\t\n    tag 48\t\t\t\n      JUMPDEST \t\t\t\n      PUSH [tag] 76\t\t\t\n      PUSH [tag] 240\t\t\t\n      CALLDATASIZE \t\t\t\n      PUSH 4\t\t\t\n      PUSH [tag] 87\t\t\t\n      JUMP [in]\t\t\t\n    tag 240\t\t\t\n      JUMPDEST \t\t\t\n      PUSH [tag] 242\t\t\t\n      JUMP [in]\t\t\t\n    tag 49\t\t\tize(underlying_, comptroller_,...\n      JUMPDEST \t\t\tize(underlying_, comptroller_,...\n      PUSH 6\t\t\tize(underlying_, comptroller_,...\n      SLOAD \t\t\tize(underlying_, comptroller_,...\n      PUSH [tag] 113\t\t\tize(underlying_, comptroller_,...\n      SWAP1 \t\t\tize(underlying_, comptroller_,...\n      PUSH 1\t\t\t\n      PUSH 1\t\t\t\n      PUSH A0\t\t\t\n      SHL \t\t\t\n      SUB \t\t\t\n      AND \t\t\tize(underlying_, comptroller_,...\n      DUP2 \t\t\tize(underlying_, comptroller_,...\n      JUMP \t\t\tize(underlying_, comptroller_,...\n    tag 50\t\t\t\n      JUMPDEST \t\t\t\n      PUSH [tag] 76\t\t\t\n      PUSH [tag] 249\t\t\t\n      CALLDATASIZE \t\t\t\n      PUSH 4\t\t\t\n      PUSH [tag] 250\t\t\t\n      JUMP [in]\t\t\t\n    tag 249\t\t\t\n      JUMPDEST \t\t\t\n      PUSH [tag] 251\t\t\t\n      JUMP [in]\t\t\t\n    tag 51\t\t\tstRateModel_,\\r\\n             \n      JUMPDEST \t\t\tstRateModel_,\\r\\n             \n      PUSH 3\t\t\tstRateModel_,\\r\\n             \n      SLOAD \t\t\tstRateModel_,\\r\\n             \n      PUSH [tag] 113\t\t\tstRateModel_,\\r\\n             \n      SWAP1 \t\t\tstRateModel_,\\r\\n             \n      PUSH 100\t\t\tstRateModel_,\\r\\n             \n      SWAP1 \t\t\tstRateModel_,\\r\\n             \n      DIV \t\t\tstRateModel_,\\r\\n             \n      PUSH 1\t\t\t\n      PUSH 1\t\t\t\n      PUSH A0\t\t\t\n      SHL \t\t\t\n      SUB \t\t\t\n      AND \t\t\tstRateModel_,\\r\\n             \n      DUP2 \t\t\tstRateModel_,\\r\\n             \n      JUMP \t\t\tstRateModel_,\\r\\n             \n    tag 52\t\t\t\n      JUMPDEST \t\t\t\n      PUSH [tag] 76\t\t\t\n      PUSH [tag] 257\t\t\t\n      JUMP [in]\t\t\t\n    tag 53\t\t\t\n      JUMPDEST \t\t\t\n      PUSH [tag] 76\t\t\t\n      PUSH [tag] 260\t\t\t\n      CALLDATASIZE \t\t\t\n      PUSH 4\t\t\t\n      PUSH [tag] 78\t\t\t\n      JUMP [in]\t\t\t\n    tag 260\t\t\t\n      JUMPDEST \t\t\t\n      PUSH [tag] 261\t\t\t\n      JUMP [in]\t\t\t\n    tag 54\t\t\t\n      JUMPDEST \t\t\t\n      PUSH [tag] 70\t\t\t\n      PUSH 1\t\t\t\n      DUP2 \t\t\t\n      JUMP \t\t\t\n    tag 67\t\t\toller_ The address\n      JUMPDEST \t\t\toller_ The address\n      PUSH 1\t\t\toller_ The address\n      DUP1 \t\t\toller_ The address\n      SLOAD \t\t\toller_ The address\n      PUSH [tag] 266\t\t\toller_ The address\n      SWAP1 \t\t\toller_ The address\n      PUSH [tag] 267\t\t\toller_ The address\n      JUMP [in]\t\t\toller_ The address\n    tag 266\t\t\toller_ The address\n      JUMPDEST \t\t\toller_ The address\n      DUP1 \t\t\toller_ The address\n      PUSH 1F\t\t\toller_ The address\n      ADD \t\t\toller_ The address\n      PUSH 20\t\t\toller_ The address\n      DUP1 \t\t\toller_ The address\n      SWAP2 \t\t\toller_ The address\n      DIV \t\t\toller_ The address\n      MUL \t\t\toller_ The address\n      PUSH 20\t\t\toller_ The address\n      ADD \t\t\toller_ The address\n      PUSH 40\t\t\toller_ The address\n      MLOAD \t\t\toller_ The address\n      SWAP1 \t\t\toller_ The address\n      DUP2 \t\t\toller_ The address\n      ADD \t\t\toller_ The address\n      PUSH 40\t\t\toller_ The address\n      MSTORE \t\t\toller_ The address\n      DUP1 \t\t\toller_ The address\n      SWAP3 \t\t\toller_ The address\n      SWAP2 \t\t\toller_ The address\n      SWAP1 \t\t\toller_ The address\n      DUP2 \t\t\toller_ The address\n      DUP2 \t\t\toller_ The address\n      MSTORE \t\t\toller_ The address\n      PUSH 20\t\t\toller_ The address\n      ADD \t\t\toller_ The address\n      DUP3 \t\t\toller_ The address\n      DUP1 \t\t\toller_ The address\n      SLOAD \t\t\toller_ The address\n      PUSH [tag] 268\t\t\toller_ The address\n      SWAP1 \t\t\toller_ The address\n      PUSH [tag] 267\t\t\toller_ The address\n      JUMP [in]\t\t\toller_ The address\n    tag 268\t\t\toller_ The address\n      JUMPDEST \t\t\toller_ The address\n      DUP1 \t\t\toller_ The address\n      ISZERO \t\t\toller_ The address\n      PUSH [tag] 269\t\t\toller_ The address\n      JUMPI \t\t\toller_ The address\n      DUP1 \t\t\toller_ The address\n      PUSH 1F\t\t\toller_ The address\n      LT \t\t\toller_ The address\n      PUSH [tag] 270\t\t\toller_ The address\n      JUMPI \t\t\toller_ The address\n      PUSH 100\t\t\toller_ The address\n      DUP1 \t\t\toller_ The address\n      DUP4 \t\t\toller_ The address\n      SLOAD \t\t\toller_ The address\n      DIV \t\t\toller_ The address\n      MUL \t\t\toller_ The address\n      DUP4 \t\t\toller_ The address\n      MSTORE \t\t\toller_ The address\n      SWAP2 \t\t\toller_ The address\n      PUSH 20\t\t\toller_ The address\n      ADD \t\t\toller_ The address\n      SWAP2 \t\t\toller_ The address\n      PUSH [tag] 269\t\t\toller_ The address\n      JUMP \t\t\toller_ The address\n    tag 270\t\t\toller_ The address\n      JUMPDEST \t\t\toller_ The address\n      DUP3 \t\t\toller_ The address\n      ADD \t\t\toller_ The address\n      SWAP2 \t\t\toller_ The address\n      SWAP1 \t\t\toller_ The address\n      PUSH 0\t\t\toller_ The address\n      MSTORE \t\t\toller_ The address\n      PUSH 20\t\t\toller_ The address\n      PUSH 0\t\t\toller_ The address\n      KECCAK256 \t\t\toller_ The address\n      SWAP1 \t\t\toller_ The address\n    tag 271\t\t\toller_ The address\n      JUMPDEST \t\t\toller_ The address\n      DUP2 \t\t\toller_ The address\n      SLOAD \t\t\toller_ The address\n      DUP2 \t\t\toller_ The address\n      MSTORE \t\t\toller_ The address\n      SWAP1 \t\t\toller_ The address\n      PUSH 1\t\t\toller_ The address\n      ADD \t\t\toller_ The address\n      SWAP1 \t\t\toller_ The address\n      PUSH 20\t\t\toller_ The address\n      ADD \t\t\toller_ The address\n      DUP1 \t\t\toller_ The address\n      DUP4 \t\t\toller_ The address\n      GT \t\t\toller_ The address\n      PUSH [tag] 271\t\t\toller_ The address\n      JUMPI \t\t\toller_ The address\n      DUP3 \t\t\toller_ The address\n      SWAP1 \t\t\toller_ The address\n      SUB \t\t\toller_ The address\n      PUSH 1F\t\t\toller_ The address\n      AND \t\t\toller_ The address\n      DUP3 \t\t\toller_ The address\n      ADD \t\t\toller_ The address\n      SWAP2 \t\t\toller_ The address\n    tag 269\t\t\toller_ The address\n      JUMPDEST \t\t\toller_ The address\n      POP \t\t\toller_ The address\n      POP \t\t\toller_ The address\n      POP \t\t\toller_ The address\n      POP \t\t\toller_ The address\n      POP \t\t\toller_ The address\n      DUP2 \t\t\toller_ The address\n      JUMP [out]\t\t\toller_ The address\n    tag 73\t\t\t\n      JUMPDEST \t\t\t\n      CALLER \t\t\t\n      PUSH 0\t\t\t\n      DUP2 \t\t\t\n      DUP2 \t\t\t\n      MSTORE \t\t\t\n      PUSH F\t\t\t\n      PUSH 20\t\t\t\n      SWAP1 \t\t\t\n      DUP2 \t\t\t\n      MSTORE \t\t\t\n      PUSH 40\t\t\t\n      DUP1 \t\t\t\n      DUP4 \t\t\t\n      KECCAK256 \t\t\t\n      PUSH 1\t\t\t\n      PUSH 1\t\t\t\n      PUSH A0\t\t\t\n      SHL \t\t\t\n      SUB \t\t\t\n      DUP8 \t\t\t\n      AND \t\t\t\n      DUP1 \t\t\t\n      DUP6 \t\t\t\n      MSTORE \t\t\t\n      SWAP3 \t\t\t\n      MSTORE \t\t\t\n      DUP1 \t\t\t\n      DUP4 \t\t\t\n      KECCAK256 \t\t\t\n      DUP6 \t\t\t\n      SWAP1 \t\t\t\n      SSTORE \t\t\t\n      MLOAD \t\t\t\n      SWAP2 \t\t\t\n      SWAP3 \t\t\t\n      SWAP2 \t\t\t\n      DUP3 \t\t\t\n      SWAP1 \t\t\t\n      PUSH 8C5BE1E5EBEC7D5BD14F71427D1E84F3DD0314C0F7B2291E5B200AC8C7C3B925\t\t\t\n      SWAP1 \t\t\t\n      PUSH [tag] 273\t\t\t\n      SWAP1 \t\t\t\n      DUP8 \t\t\t\n      DUP2 \t\t\t\n      MSTORE \t\t\t\n      PUSH 20\t\t\t\n      ADD \t\t\t\\r\\n}\\r\\n\n      SWAP1 \t\t\t\\r\\n}\\r\\n\n      JUMP \t\t\tsymbol_, decimals_);\\r\\n\\r\\n  ...\n    tag 273\t\t\t\n      JUMPDEST \t\t\t\n      PUSH 40\t\t\t\n      MLOAD \t\t\t\n      DUP1 \t\t\t\n      SWAP2 \t\t\t\n      SUB \t\t\t\n      SWAP1 \t\t\t\n      LOG3 \t\t\t\n      POP \t\t\t\n      PUSH 1\t\t\t\n      SWAP4 \t\t\t\n      SWAP3 \t\t\t\n      POP \t\t\t\n      POP \t\t\t\n      POP \t\t\t\n      JUMP [out]\t\t\t\n    tag 79\t\t\t\n      JUMPDEST \t\t\t\n      PUSH 0\t\t\t\n      PUSH [tag] 275\t\t\t\n      DUP3 \t\t\t\n      PUSH [tag] 276\t\t\t\n      JUMP [in]\t\t\t\n    tag 275\t\t\t\n      JUMPDEST \t\t\t\n      POP \t\t\t\n      PUSH 0\t\t\t\n      SWAP2 \t\t\t\n      SWAP1 \t\t\t\n      POP \t\t\t\n      JUMP [out]\t\t\t\n    tag 88\t\t\t\n      JUMPDEST \t\t\t\n      PUSH 0\t\t\t\n      DUP1 \t\t\t\n      SLOAD \t\t\t\n      PUSH FF\t\t\t\n      AND \t\t\t\n      PUSH [tag] 278\t\t\t\n      JUMPI \t\t\t\n      PUSH 40\t\t\t\n      MLOAD \t\t\t\n      PUSH 461BCD\t\t\t\n      PUSH E5\t\t\t\n      SHL \t\t\t\n      DUP2 \t\t\t\n      MSTORE \t\t\t\n      PUSH 4\t\t\t\n      ADD \t\t\t\n      PUSH [tag] 279\t\t\t\n      SWAP1 \t\t\t\n      PUSH [tag] 280\t\t\t\n      JUMP [in]\t\t\t\n    tag 279\t\t\t\n      JUMPDEST \t\t\t\n      PUSH 40\t\t\t\n      MLOAD \t\t\t\n      DUP1 \t\t\t\n      SWAP2 \t\t\t\n      SUB \t\t\t\n      SWAP1 \t\t\t\n      REVERT \t\t\t\n    tag 278\t\t\t\n      JUMPDEST \t\t\t\n      PUSH 0\t\t\t\n      DUP1 \t\t\t\n      SLOAD \t\t\t\n      PUSH FF\t\t\t\n      NOT \t\t\t\n      AND \t\t\t\n      SWAP1 \t\t\t\n      SSTORE \t\t\t\n      PUSH [tag] 282\t\t\t\n      PUSH [tag] 194\t\t\t\n      JUMP [in]\t\t\t\n    tag 282\t\t\t\n      JUMPDEST \t\t\t\n      POP \t\t\t\n      PUSH [tag] 283\t\t\t\n      DUP3 \t\t\t\n      PUSH [tag] 183\t\t\t\n      JUMP [in]\t\t\t\n    tag 283\t\t\t\n      JUMPDEST \t\t\t\n      SWAP1 \t\t\t\n      POP \t\t\t\n      PUSH 0\t\t\t\n      DUP1 \t\t\t\n      SLOAD \t\t\t\n      PUSH FF\t\t\t\n      NOT \t\t\t\n      AND \t\t\t\n      PUSH 1\t\t\t\n      OR \t\t\t\n      SWAP1 \t\t\t\n      SSTORE \t\t\t\n      SWAP2 \t\t\t\n      SWAP1 \t\t\t\n      POP \t\t\t\n      JUMP [out]\t\t\t\n    tag 94\t\t\t\n      JUMPDEST \t\t\t\n      PUSH 0\t\t\t\n      PUSH [tag] 285\t\t\t\n      PUSH [tag] 286\t\t\t\n      JUMP [in]\t\t\t\n    tag 285\t\t\t\n      JUMPDEST \t\t\t\n      SWAP1 \t\t\t\n      POP \t\t\t\n      SWAP1 \t\t\t\n      JUMP [out]\t\t\t\n    tag 99\t\t\t  constructor(address underlyi...\n      JUMPDEST \t\t\t  constructor(address underlyi...\n      PUSH [tag] 288\t\t\tayable(msg.sender);\\r\\n\\r\\n   ...\n      DUP7 \t\t\t);\\r\\n\\r\\n      \n      DUP7 \t\t\t// Initialize the \n      DUP7 \t\t\trket\\r\\n        initialize(und\n      DUP7 \t\t\tlying\n      DUP7 \t\t\t comptr\n      DUP7 \t\t\tler_, int\n      PUSH [tag] 188\t\t\tayable(msg.sende\n      JUMP [in]\t\t\tayable(msg.sender);\\r\\n\\r\\n   ...\n    tag 288\t\t\tayable(msg.sender);\\r\\n\\r\\n   ...\n      JUMPDEST \t\t\tayable(msg.sender);\\r\\n\\r\\n   ...\n      PUSH 11\t\t\t, decimals\n      DUP1 \t\t\t, decimals_);\\r\\n\\r\\n       \n      SLOAD \t\t\t, decimals_);\\r\\n\\r\\n       \n      PUSH 1\t\t\t\n      PUSH 1\t\t\t\n      PUSH A0\t\t\t\n      SHL \t\t\t\n      SUB \t\t\t\n      NOT \t\t\t\n      AND \t\t\t, decimals_);\\r\\n\\r\\n       \n      PUSH 1\t\t\t\n      PUSH 1\t\t\t\n      PUSH A0\t\t\t\n      SHL \t\t\t\n      SUB \t\t\t\n      DUP10 \t\t\t, decimals_);\\r\\n\\r\\n       \n      AND \t\t\t, decimals_);\\r\\n\\r\\n       \n      SWAP1 \t\t\t, decimals_);\\r\\n\\r\\n       \n      DUP2 \t\t\t, decimals_);\\r\\n\\r\\n       \n      OR \t\t\t, decimals_);\\r\\n\\r\\n       \n      SWAP1 \t\t\t, decimals_);\\r\\n\\r\\n       \n      SWAP2 \t\t\t, decimals_);\\r\\n\\r\\n       \n      SSTORE \t\t\t, decimals_);\\r\\n\\r\\n       \n      PUSH 40\t\t\t proper admin now that initial...\n      DUP1 \t\t\t proper admin now that initial...\n      MLOAD \t\t\t proper admin now that initial...\n      PUSH 18160DDD\t\t\t\n      PUSH E0\t\t\t\n      SHL \t\t\t\n      DUP2 \t\t\t proper admin now that initial...\n      MSTORE \t\t\t proper admin now that initial...\n      SWAP1 \t\t\t proper admin now that initial...\n      MLOAD \t\t\t proper admin now that initial...\n      PUSH 18160DDD\t\t\t proper admin now that initial...\n      SWAP2 \t\t\t proper admin now that initial...\n      PUSH 4\t\t\t proper admin now that initial...\n      DUP1 \t\t\t proper admin now that initial...\n      DUP3 \t\t\t proper admin now that initial...\n      ADD \t\t\t proper admin now that initial...\n      SWAP3 \t\t\t proper admin now that initial...\n      PUSH 20\t\t\t proper admin now that initial...\n      SWAP3 \t\t\t proper admin now that initial...\n      SWAP1 \t\t\t proper admin now that initial...\n      SWAP2 \t\t\t proper admin now that initial...\n      SWAP1 \t\t\t proper admin now that initial...\n      DUP3 \t\t\t proper admin now that initial...\n      SWAP1 \t\t\t proper admin now that initial...\n      SUB \t\t\t proper admin now that initial...\n      ADD \t\t\t proper admin now that initial...\n      DUP2 \t\t\t proper admin now that initial...\n      DUP7 \t\t\t, decimals_);\\r\\n\\r\\n       \n      GAS \t\t\t proper admin now that initial...\n      STATICCALL \t\t\t proper admin now that initial...\n      ISZERO \t\t\t proper admin now that initial...\n      DUP1 \t\t\t proper admin now that initial...\n      ISZERO \t\t\t proper admin now that initial...\n      PUSH [tag] 290\t\t\t proper admin now that initial...\n      JUMPI \t\t\t proper admin now that initial...\n      RETURNDATASIZE \t\t\t proper admin now that initial...\n      PUSH 0\t\t\t proper admin now that initial...\n      DUP1 \t\t\t proper admin now that initial...\n      RETURNDATACOPY \t\t\t proper admin now that initial...\n      RETURNDATASIZE \t\t\t proper admin now that initial...\n      PUSH 0\t\t\t proper admin now that initial...\n      REVERT \t\t\t proper admin now that initial...\n    tag 290\t\t\t proper admin now that initial...\n      JUMPDEST \t\t\t proper admin now that initial...\n      POP \t\t\t proper admin now that initial...\n      POP \t\t\t proper admin now that initial...\n      POP \t\t\t proper admin now that initial...\n      POP \t\t\t proper admin now that initial...\n      PUSH 40\t\t\t proper admin now that initial...\n      MLOAD \t\t\t proper admin now that initial...\n      RETURNDATASIZE \t\t\t proper admin now that initial...\n      PUSH 1F\t\t\t proper admin now that initial...\n      NOT \t\t\t proper admin now that initial...\n      PUSH 1F\t\t\t proper admin now that initial...\n      DUP3 \t\t\t proper admin now that initial...\n      ADD \t\t\t proper admin now that initial...\n      AND \t\t\t proper admin now that initial...\n      DUP3 \t\t\t proper admin now that initial...\n      ADD \t\t\t proper admin now that initial...\n      DUP1 \t\t\t proper admin now that initial...\n      PUSH 40\t\t\t proper admin now that initial...\n      MSTORE \t\t\t proper admin now that initial...\n      POP \t\t\t proper admin now that initial...\n      DUP2 \t\t\t proper admin now that initial...\n      ADD \t\t\t proper admin now that initial...\n      SWAP1 \t\t\t proper admin now that initial...\n      PUSH [tag] 291\t\t\t proper admin now that initial...\n      SWAP2 \t\t\t proper admin now that initial...\n      SWAP1 \t\t\t proper admin now that initial...\n      PUSH [tag] 292\t\t\t proper admin now that initial...\n      JUMP [in]\t\t\t proper admin now that initial...\n    tag 291\t\t\t proper admin now that initial...\n      JUMPDEST \t\t\t proper admin now that initial...\n      POP \t\t\t proper admin now that initial...\n      POP \t\t\t  constructor(address underlyi...\n      POP \t\t\t  constructor(address underlyi...\n      POP \t\t\t  constructor(address underlyi...\n      POP \t\t\t  constructor(address underlyi...\n      POP \t\t\t  constructor(address underlyi...\n      POP \t\t\t  constructor(address underlyi...\n      POP \t\t\t  constructor(address underlyi...\n      JUMP [out]\t\t\t  constructor(address underlyi...\n    tag 103\t\t\t\n      JUMPDEST \t\t\t\n      PUSH 3\t\t\t\n      SLOAD \t\t\t\n      PUSH 100\t\t\t\n      SWAP1 \t\t\t\n      DIV \t\t\t\n      PUSH 1\t\t\t\n      PUSH 1\t\t\t\n      PUSH A0\t\t\t\n      SHL \t\t\t\n      SUB \t\t\t\n      AND \t\t\t\n      CALLER \t\t\t\n      EQ \t\t\t\n      PUSH [tag] 294\t\t\t\n      JUMPI \t\t\t\n      PUSH 40\t\t\t\n      MLOAD \t\t\t\n      PUSH 461BCD\t\t\t\n      PUSH E5\t\t\t\n      SHL \t\t\t\n      DUP2 \t\t\t\n      MSTORE \t\t\t\n      PUSH 20\t\t\t\n      PUSH 4\t\t\t\n      DUP3 \t\t\t\n      ADD \t\t\t\n      MSTORE \t\t\t\n      PUSH 2F\t\t\t\n      PUSH 24\t\t\t\n      DUP3 \t\t\t\n      ADD \t\t\t\n      MSTORE \t\t\t\n      PUSH 4345726332303A3A7377656570546F6B656E3A206F6E6C792061646D696E2063\t\t\t\n      PUSH 44\t\t\t\n      DUP3 \t\t\t\n      ADD \t\t\t\n      MSTORE \t\t\t\n      PUSH 616E20737765657020746F6B656E73\t\t\t\n      PUSH 88\t\t\t\n      SHL \t\t\t\n      PUSH 64\t\t\t\n      DUP3 \t\t\t\n      ADD \t\t\t\n      MSTORE \t\t\t\n      PUSH 84\t\t\t\n      ADD \t\t\t\n      PUSH [tag] 279\t\t\t\n      JUMP \t\t\t\n    tag 294\t\t\t\n      JUMPDEST \t\t\t\n      PUSH 11\t\t\t\n      SLOAD \t\t\t\n      PUSH 1\t\t\t\n      PUSH 1\t\t\t\n      PUSH A0\t\t\t\n      SHL \t\t\t\n      SUB \t\t\t\n      DUP3 \t\t\t\n      DUP2 \t\t\t\n      AND \t\t\t\n      SWAP2 \t\t\t\n      AND \t\t\t\n      EQ \t\t\t\n      ISZERO \t\t\t\n      PUSH [tag] 297\t\t\t\n      JUMPI \t\t\t\n      PUSH 40\t\t\t\n      MLOAD \t\t\t\n      PUSH 461BCD\t\t\t\n      PUSH E5\t\t\t\n      SHL \t\t\t\n      DUP2 \t\t\t\n      MSTORE \t\t\t\n      PUSH 20\t\t\t\n      PUSH 4\t\t\t\n      DUP3 \t\t\t\n      ADD \t\t\t\n      MSTORE \t\t\t\n      PUSH 32\t\t\t\n      PUSH 24\t\t\t\n      DUP3 \t\t\t\n      ADD \t\t\t\n      MSTORE \t\t\t\n      PUSH 4345726332303A3A7377656570546F6B656E3A2063616E206E6F742073776565\t\t\t\n      PUSH 44\t\t\t\n      DUP3 \t\t\t\n      ADD \t\t\t\n      MSTORE \t\t\t\n      PUSH 38103AB73232B9363CB4B733903A37B5B2B7\t\t\t\n      PUSH 71\t\t\t\n      SHL \t\t\t\n      PUSH 64\t\t\t\n      DUP3 \t\t\t\n      ADD \t\t\t\n      MSTORE \t\t\t\n      PUSH 84\t\t\t\n      ADD \t\t\t\n      PUSH [tag] 279\t\t\t\n      JUMP \t\t\t\n    tag 297\t\t\t\n      JUMPDEST \t\t\t\n      PUSH 40\t\t\t\n      MLOAD \t\t\t\n      PUSH 70A08231\t\t\t\n      PUSH E0\t\t\t\n      SHL \t\t\t\n      DUP2 \t\t\t\n      MSTORE \t\t\t\n      ADDRESS \t\t\t\n      PUSH 4\t\t\t\n      DUP3 \t\t\t\n      ADD \t\t\t\n      MSTORE \t\t\t\n      PUSH 0\t\t\t\n      SWAP1 \t\t\t\n      PUSH 1\t\t\t\n      PUSH 1\t\t\t\n      PUSH A0\t\t\t\n      SHL \t\t\t\n      SUB \t\t\t\n      DUP4 \t\t\t\n      AND \t\t\t\n      SWAP1 \t\t\t\n      PUSH 70A08231\t\t\t\n      SWAP1 \t\t\t\n      PUSH 24\t\t\t\n      ADD \t\t\t\n      PUSH 20\t\t\t\n      PUSH 40\t\t\t\n      MLOAD \t\t\t\n      DUP1 \t\t\t\n      DUP4 \t\t\t\n      SUB \t\t\t\n      DUP2 \t\t\t\n      DUP7 \t\t\t\n      GAS \t\t\t\n      STATICCALL \t\t\t\n      ISZERO \t\t\t\n      DUP1 \t\t\t\n      ISZERO \t\t\t\n      PUSH [tag] 302\t\t\t\n      JUMPI \t\t\t\n      RETURNDATASIZE \t\t\t\n      PUSH 0\t\t\t\n      DUP1 \t\t\t\n      RETURNDATACOPY \t\t\t\n      RETURNDATASIZE \t\t\t\n      PUSH 0\t\t\t\n      REVERT \t\t\t\n    tag 302\t\t\t\n      JUMPDEST \t\t\t\n      POP \t\t\t\n      POP \t\t\t\n      POP \t\t\t\n      POP \t\t\t\n      PUSH 40\t\t\t\n      MLOAD \t\t\t\n      RETURNDATASIZE \t\t\t\n      PUSH 1F\t\t\t\n      NOT \t\t\t\n      PUSH 1F\t\t\t\n      DUP3 \t\t\t\n      ADD \t\t\t\n      AND \t\t\t\n      DUP3 \t\t\t\n      ADD \t\t\t\n      DUP1 \t\t\t\n      PUSH 40\t\t\t\n      MSTORE \t\t\t\n      POP \t\t\t\n      DUP2 \t\t\t\n      ADD \t\t\t\n      SWAP1 \t\t\t\n      PUSH [tag] 303\t\t\t\n      SWAP2 \t\t\t\n      SWAP1 \t\t\t\n      PUSH [tag] 292\t\t\t\n      JUMP [in]\t\t\t\n    tag 303\t\t\t\n      JUMPDEST \t\t\t\n      PUSH 3\t\t\t\n      SLOAD \t\t\t\n      PUSH 40\t\t\t\n      MLOAD \t\t\t\n      PUSH A9059CBB\t\t\t\n      PUSH E0\t\t\t\n      SHL \t\t\t\n      DUP2 \t\t\t\n      MSTORE \t\t\t\n      PUSH 1\t\t\t\n      PUSH 1\t\t\t\n      PUSH A0\t\t\t\n      SHL \t\t\t\n      SUB \t\t\t\n      PUSH 100\t\t\t\n      SWAP1 \t\t\t\n      SWAP3 \t\t\t\n      DIV \t\t\t\n      DUP3 \t\t\t\n      AND \t\t\t\n      PUSH 4\t\t\t\n      DUP3 \t\t\t\n      ADD \t\t\t\n      MSTORE \t\t\t\n      PUSH 24\t\t\t\n      DUP2 \t\t\t\n      ADD \t\t\t\n      DUP4 \t\t\t\n      SWAP1 \t\t\t\n      MSTORE \t\t\t\n      SWAP2 \t\t\t\n      SWAP3 \t\t\t\n      POP \t\t\t\n      DUP4 \t\t\t\n      AND \t\t\t\n      SWAP1 \t\t\t\n      PUSH A9059CBB\t\t\t\n      SWAP1 \t\t\t\n      PUSH 44\t\t\t\n      ADD \t\t\t\n      PUSH 0\t\t\t\n      PUSH 40\t\t\t\n      MLOAD \t\t\t\n      DUP1 \t\t\t\n      DUP4 \t\t\t\n      SUB \t\t\t\n      DUP2 \t\t\t\n      PUSH 0\t\t\t\n      DUP8 \t\t\t\n      DUP1 \t\t\t\n      EXTCODESIZE \t\t\t\n      ISZERO \t\t\t\n      DUP1 \t\t\t\n      ISZERO \t\t\t\n      PUSH [tag] 306\t\t\t\n      JUMPI \t\t\t\n      PUSH 0\t\t\t\n      DUP1 \t\t\t\n      REVERT \t\t\t\n    tag 306\t\t\t\n      JUMPDEST \t\t\t\n      POP \t\t\t\n      GAS \t\t\t\n      CALL \t\t\t\n      ISZERO \t\t\t\n      DUP1 \t\t\t\n      ISZERO \t\t\t\n      PUSH [tag] 308\t\t\t\n      JUMPI \t\t\t\n      RETURNDATASIZE \t\t\t\n      PUSH 0\t\t\t\n      DUP1 \t\t\t\n      RETURNDATACOPY \t\t\t\n      RETURNDATASIZE \t\t\t\n      PUSH 0\t\t\t\n      REVERT \t\t\t\n    tag 308\t\t\t\n      JUMPDEST \t\t\t\n      POP \t\t\t\n      POP \t\t\t\n      POP \t\t\t\n      POP \t\t\t\n      POP \t\t\t\n      POP \t\t\t\n      JUMP [out]\t\t\t\n    tag 107\t\t\t\n      JUMPDEST \t\t\t\n      PUSH 0\t\t\t\n      DUP1 \t\t\t\n      SLOAD \t\t\t\n      PUSH FF\t\t\t\n      AND \t\t\t\n      PUSH [tag] 310\t\t\t\n      JUMPI \t\t\t\n      PUSH 40\t\t\t\n      MLOAD \t\t\t\n      PUSH 461BCD\t\t\t\n      PUSH E5\t\t\t\n      SHL \t\t\t\n      DUP2 \t\t\t\n      MSTORE \t\t\t\n      PUSH 4\t\t\t\n      ADD \t\t\t\n      PUSH [tag] 279\t\t\t\n      SWAP1 \t\t\t\n      PUSH [tag] 280\t\t\t\n      JUMP [in]\t\t\t\n    tag 310\t\t\t\n      JUMPDEST \t\t\t\n      PUSH 0\t\t\t\n      DUP1 \t\t\t\n      SLOAD \t\t\t\n      PUSH FF\t\t\t\n      NOT \t\t\t\n      AND \t\t\t\n      DUP2 \t\t\t\n      SSTORE \t\t\t\n      PUSH [tag] 313\t\t\t\n      CALLER \t\t\t\n      DUP7 \t\t\t\n      DUP7 \t\t\t\n      DUP7 \t\t\t\n      PUSH [tag] 314\t\t\t\n      JUMP [in]\t\t\t\n    tag 313\t\t\t\n      JUMPDEST \t\t\t\n      EQ \t\t\t\n      SWAP1 \t\t\t\n      POP \t\t\t\n      PUSH 0\t\t\t\n      DUP1 \t\t\t\n      SLOAD \t\t\t\n      PUSH FF\t\t\t\n      NOT \t\t\t\n      AND \t\t\t\n      PUSH 1\t\t\t\n      OR \t\t\t\n      SWAP1 \t\t\t\n      SSTORE \t\t\t\n      SWAP4 \t\t\t\n      SWAP3 \t\t\t\n      POP \t\t\t\n      POP \t\t\t\n      POP \t\t\t\n      JUMP [out]\t\t\t\n    tag 111\t\t\t\n      JUMPDEST \t\t\t\n      PUSH 0\t\t\t\n      PUSH [tag] 316\t\t\t\n      DUP4 \t\t\t\n      DUP4 \t\t\t\n      PUSH [tag] 317\t\t\t\n      JUMP [in]\t\t\t\n    tag 316\t\t\t\n      JUMPDEST \t\t\t\n      POP \t\t\t\n      PUSH 0\t\t\t\n      SWAP3 \t\t\t\n      SWAP2 \t\t\t\n      POP \t\t\t\n      POP \t\t\t\n      JUMP [out]\t\t\t\n    tag 123\t\t\t\n      JUMPDEST \t\t\t\n      PUSH 0\t\t\t\n      DUP1 \t\t\t\n      PUSH 40\t\t\t\n      MLOAD \t\t\t\n      DUP1 \t\t\t\n      PUSH 20\t\t\t\n      ADD \t\t\t\n      PUSH 40\t\t\t\n      MSTORE \t\t\t\n      DUP1 \t\t\t\n      PUSH [tag] 319\t\t\t\n      PUSH [tag] 216\t\t\t\n      JUMP [in]\t\t\t\n    tag 319\t\t\t\n      JUMPDEST \t\t\t\n      SWAP1 \t\t\t\n      MSTORE \t\t\t\n      PUSH 1\t\t\t\n      PUSH 1\t\t\t\n      PUSH A0\t\t\t\n      SHL \t\t\t\n      SUB \t\t\t\n      DUP5 \t\t\t\n      AND \t\t\t\n      PUSH 0\t\t\t\n      SWAP1 \t\t\t\n      DUP2 \t\t\t\n      MSTORE \t\t\t\n      PUSH E\t\t\t\n      PUSH 20\t\t\t\n      MSTORE \t\t\t\n      PUSH 40\t\t\t\n      SWAP1 \t\t\t\n      KECCAK256 \t\t\t\n      SLOAD \t\t\t\n      SWAP1 \t\t\t\n      SWAP2 \t\t\t\n      POP \t\t\t\n      PUSH [tag] 320\t\t\t\n      SWAP1 \t\t\t\n      DUP3 \t\t\t\n      SWAP1 \t\t\t\n      PUSH [tag] 321\t\t\t\n      JUMP [in]\t\t\t\n    tag 320\t\t\t\n      JUMPDEST \t\t\t\n      SWAP4 \t\t\t\n      SWAP3 \t\t\t\n      POP \t\t\t\n      POP \t\t\t\n      POP \t\t\t\n      JUMP [out]\t\t\t\n    tag 126\t\t\t\n      JUMPDEST \t\t\t\n      PUSH 0\t\t\t\n      PUSH [tag] 285\t\t\t\n      PUSH [tag] 324\t\t\t\n      JUMP [in]\t\t\t\n    tag 130\t\t\t\n      JUMPDEST \t\t\t\n      PUSH 0\t\t\t\n      PUSH [tag] 326\t\t\t\n      DUP3 \t\t\t\n      PUSH [tag] 327\t\t\t\n      JUMP [in]\t\t\t\n    tag 326\t\t\t\n      JUMPDEST \t\t\t\n      SWAP3 \t\t\t\n      SWAP2 \t\t\t\n      POP \t\t\t\n      POP \t\t\t\n      JUMP [out]\t\t\t\n    tag 135\t\t\t\n      JUMPDEST \t\t\t\n      PUSH 3\t\t\t\n      SLOAD \t\t\t\n      PUSH 0\t\t\t\n      SWAP1 \t\t\t\n      PUSH 100\t\t\t\n      SWAP1 \t\t\t\n      DIV \t\t\t\n      PUSH 1\t\t\t\n      PUSH 1\t\t\t\n      PUSH A0\t\t\t\n      SHL \t\t\t\n      SUB \t\t\t\n      AND \t\t\t\n      CALLER \t\t\t\n      EQ \t\t\t\n      PUSH [tag] 329\t\t\t\n      JUMPI \t\t\t\n      PUSH 40\t\t\t\n      MLOAD \t\t\t\n      PUSH D219DC1F\t\t\t\n      PUSH E0\t\t\t\n      SHL \t\t\t\n      DUP2 \t\t\t\n      MSTORE \t\t\t\n      PUSH 4\t\t\t\n      ADD \t\t\t\n      PUSH 40\t\t\t\n      MLOAD \t\t\t\n      DUP1 \t\t\t\n      SWAP2 \t\t\t\n      SUB \t\t\t\n      SWAP1 \t\t\t\n      REVERT \t\t\t\n    tag 329\t\t\t\n      JUMPDEST \t\t\t\n      PUSH 5\t\t\t\n      SLOAD \t\t\t\n      PUSH 40\t\t\t\n      DUP1 \t\t\t\n      MLOAD \t\t\t\n      PUSH 3F1EE9\t\t\t\n      PUSH E1\t\t\t\n      SHL \t\t\t\n      DUP2 \t\t\t\n      MSTORE \t\t\t\n      SWAP1 \t\t\t\n      MLOAD \t\t\t\n      PUSH 1\t\t\t\n      PUSH 1\t\t\t\n      PUSH A0\t\t\t\n      SHL \t\t\t\n      SUB \t\t\t\n      SWAP3 \t\t\t\n      DUP4 \t\t\t\n      AND \t\t\t\n      SWAP3 \t\t\t\n      DUP6 \t\t\t\n      AND \t\t\t\n      SWAP2 \t\t\t\n      PUSH 7E3DD2\t\t\t\n      SWAP2 \t\t\t\n      PUSH 4\t\t\t\n      DUP1 \t\t\t\n      DUP4 \t\t\t\n      ADD \t\t\t\n      SWAP3 \t\t\t\n      PUSH 20\t\t\t\n      SWAP3 \t\t\t\n      SWAP2 \t\t\t\n      SWAP1 \t\t\t\n      DUP3 \t\t\t\n      SWAP1 \t\t\t\n      SUB \t\t\t\n      ADD \t\t\t\n      DUP2 \t\t\t\n      DUP7 \t\t\t\n      GAS \t\t\t\n      STATICCALL \t\t\t\n      ISZERO \t\t\t\n      DUP1 \t\t\t\n      ISZERO \t\t\t\n      PUSH [tag] 331\t\t\t\n      JUMPI \t\t\t\n      RETURNDATASIZE \t\t\t\n      PUSH 0\t\t\t\n      DUP1 \t\t\t\n      RETURNDATACOPY \t\t\t\n      RETURNDATASIZE \t\t\t\n      PUSH 0\t\t\t\n      REVERT \t\t\t\n    tag 331\t\t\t\n      JUMPDEST \t\t\t\n      POP \t\t\t\n      POP \t\t\t\n      POP \t\t\t\n      POP \t\t\t\n      PUSH 40\t\t\t\n      MLOAD \t\t\t\n      RETURNDATASIZE \t\t\t\n      PUSH 1F\t\t\t\n      NOT \t\t\t\n      PUSH 1F\t\t\t\n      DUP3 \t\t\t\n      ADD \t\t\t\n      AND \t\t\t\n      DUP3 \t\t\t\n      ADD \t\t\t\n      DUP1 \t\t\t\n      PUSH 40\t\t\t\n      MSTORE \t\t\t\n      POP \t\t\t\n      DUP2 \t\t\t\n      ADD \t\t\t\n      SWAP1 \t\t\t\n      PUSH [tag] 332\t\t\t\n      SWAP2 \t\t\t\n      SWAP1 \t\t\t\n      PUSH [tag] 333\t\t\t\n      JUMP [in]\t\t\t\n    tag 332\t\t\t\n      JUMPDEST \t\t\t\n      PUSH [tag] 334\t\t\t\n      JUMPI \t\t\t\n      PUSH 40\t\t\t\n      MLOAD \t\t\t\n      PUSH 461BCD\t\t\t\n      PUSH E5\t\t\t\n      SHL \t\t\t\n      DUP2 \t\t\t\n      MSTORE \t\t\t\n      PUSH 20\t\t\t\n      PUSH 4\t\t\t\n      DUP3 \t\t\t\n      ADD \t\t\t\n      MSTORE \t\t\t\n      PUSH 1C\t\t\t\n      PUSH 24\t\t\t\n      DUP3 \t\t\t\n      ADD \t\t\t\n      MSTORE \t\t\t\n      PUSH 6D61726B6572206D6574686F642072657475726E65642066616C736500000000\t\t\t\n      PUSH 44\t\t\t\n      DUP3 \t\t\t\n      ADD \t\t\t\n      MSTORE \t\t\t\n      PUSH 64\t\t\t\n      ADD \t\t\t\n      PUSH [tag] 279\t\t\t\n      JUMP \t\t\t\n    tag 334\t\t\t\n      JUMPDEST \t\t\t\n      PUSH 5\t\t\t\n      DUP1 \t\t\t\n      SLOAD \t\t\t\n      PUSH 1\t\t\t\n      PUSH 1\t\t\t\n      PUSH A0\t\t\t\n      SHL \t\t\t\n      SUB \t\t\t\n      NOT \t\t\t\n      AND \t\t\t\n      PUSH 1\t\t\t\n      PUSH 1\t\t\t\n      PUSH A0\t\t\t\n      SHL \t\t\t\n      SUB \t\t\t\n      DUP6 \t\t\t\n      DUP2 \t\t\t\n      AND \t\t\t\n      SWAP2 \t\t\t\n      DUP3 \t\t\t\n      OR \t\t\t\n      SWAP1 \t\t\t\n      SWAP3 \t\t\t\n      SSTORE \t\t\t\n      PUSH 40\t\t\t\n      DUP1 \t\t\t\n      MLOAD \t\t\t\n      SWAP3 \t\t\t\n      DUP5 \t\t\t\n      AND \t\t\t\n      DUP4 \t\t\t\n      MSTORE \t\t\t\n      PUSH 20\t\t\t\n      DUP4 \t\t\t\n      ADD \t\t\t\n      SWAP2 \t\t\t\n      SWAP1 \t\t\t\n      SWAP2 \t\t\t\n      MSTORE \t\t\t\n      PUSH 7AC369DBD14FA5EA3F473ED67CC9D598964A77501540BA6751EB0B3DECF5870D\t\t\t\n      SWAP2 \t\t\t\n      ADD \t\t\t\n    tag 337\t\t\t\n      JUMPDEST \t\t\t\n      PUSH 40\t\t\t\n      MLOAD \t\t\t\n      DUP1 \t\t\t\n      SWAP2 \t\t\t\n      SUB \t\t\t\n      SWAP1 \t\t\t\n      LOG1 \t\t\t\n      POP \t\t\t\n      PUSH 0\t\t\t\n      SWAP3 \t\t\t\n      SWAP2 \t\t\t\n      POP \t\t\t\n      POP \t\t\t\n      JUMP [out]\t\t\t\n    tag 146\t\t\t\n      JUMPDEST \t\t\t\n      PUSH 0\t\t\t\n      DUP1 \t\t\t\n      SLOAD \t\t\t\n      PUSH FF\t\t\t\n      AND \t\t\t\n      PUSH [tag] 340\t\t\t\n      JUMPI \t\t\t\n      PUSH 40\t\t\t\n      MLOAD \t\t\t\n      PUSH 461BCD\t\t\t\n      PUSH E5\t\t\t\n      SHL \t\t\t\n      DUP2 \t\t\t\n      MSTORE \t\t\t\n      PUSH 4\t\t\t\n      ADD \t\t\t\n      PUSH [tag] 279\t\t\t\n      SWAP1 \t\t\t\n      PUSH [tag] 280\t\t\t\n      JUMP [in]\t\t\t\n    tag 340\t\t\t\n      JUMPDEST \t\t\t\n      PUSH 0\t\t\t\n      DUP1 \t\t\t\n      SLOAD \t\t\t\n      PUSH FF\t\t\t\n      NOT \t\t\t\n      AND \t\t\t\n      SWAP1 \t\t\t\n      SSTORE \t\t\t\n      PUSH [tag] 343\t\t\t\n      PUSH [tag] 194\t\t\t\n      JUMP [in]\t\t\t\n    tag 343\t\t\t\n      JUMPDEST \t\t\t\n      POP \t\t\t\n      PUSH [tag] 283\t\t\t\n      DUP3 \t\t\t\n      PUSH [tag] 345\t\t\t\n      JUMP [in]\t\t\t\n    tag 166\t\t\t\n      JUMPDEST \t\t\t\n      PUSH 0\t\t\t\n      DUP1 \t\t\t\n      SLOAD \t\t\t\n      PUSH FF\t\t\t\n      AND \t\t\t\n      PUSH [tag] 348\t\t\t\n      JUMPI \t\t\t\n      PUSH 40\t\t\t\n      MLOAD \t\t\t\n      PUSH 461BCD\t\t\t\n      PUSH E5\t\t\t\n      SHL \t\t\t\n      DUP2 \t\t\t\n      MSTORE \t\t\t\n      PUSH 4\t\t\t\n      ADD \t\t\t\n      PUSH [tag] 279\t\t\t\n      SWAP1 \t\t\t\n      PUSH [tag] 280\t\t\t\n      JUMP [in]\t\t\t\n    tag 348\t\t\t\n      JUMPDEST \t\t\t\n      PUSH 0\t\t\t\n      DUP1 \t\t\t\n      SLOAD \t\t\t\n      PUSH FF\t\t\t\n      NOT \t\t\t\n      AND \t\t\t\n      SWAP1 \t\t\t\n      SSTORE \t\t\t\n      PUSH [tag] 351\t\t\t\n      PUSH [tag] 194\t\t\t\n      JUMP [in]\t\t\t\n    tag 351\t\t\t\n      JUMPDEST \t\t\t\n      POP \t\t\t\n      POP \t\t\t\n      PUSH B\t\t\t\n      SLOAD \t\t\t\n      PUSH 0\t\t\t\n      DUP1 \t\t\t\n      SLOAD \t\t\t\n      PUSH FF\t\t\t\n      NOT \t\t\t\n      AND \t\t\t\n      PUSH 1\t\t\t\n      OR \t\t\t\n      SWAP1 \t\t\t\n      SSTORE \t\t\t\n      SWAP1 \t\t\t\n      JUMP [out]\t\t\t\n    tag 170\t\t\t\n      JUMPDEST \t\t\t\n      PUSH 3\t\t\t\n      SLOAD \t\t\t\n      PUSH 100\t\t\t\n      SWAP1 \t\t\t\n      DIV \t\t\t\n      PUSH 1\t\t\t\n      PUSH 1\t\t\t\n      PUSH A0\t\t\t\n      SHL \t\t\t\n      SUB \t\t\t\n      AND \t\t\t\n      CALLER \t\t\t\n      EQ \t\t\t\n      PUSH [tag] 353\t\t\t\n      JUMPI \t\t\t\n      PUSH 40\t\t\t\n      MLOAD \t\t\t\n      PUSH 461BCD\t\t\t\n      PUSH E5\t\t\t\n      SHL \t\t\t\n      DUP2 \t\t\t\n      MSTORE \t\t\t\n      PUSH 20\t\t\t\n      PUSH 4\t\t\t\n      DUP3 \t\t\t\n      ADD \t\t\t\n      MSTORE \t\t\t\n      PUSH 2D\t\t\t\n      PUSH 24\t\t\t\n      DUP3 \t\t\t\n      ADD \t\t\t\n      MSTORE \t\t\t\n      PUSH 6F6E6C79207468652061646D696E206D6179207365742074686520636F6D702D\t\t\t\n      PUSH 44\t\t\t\n      DUP3 \t\t\t\n      ADD \t\t\t\n      MSTORE \t\t\t\n      PUSH 6C696B652064656C6567617465\t\t\t\n      PUSH 98\t\t\t\n      SHL \t\t\t\n      PUSH 64\t\t\t\n      DUP3 \t\t\t\n      ADD \t\t\t\n      MSTORE \t\t\t\n      PUSH 84\t\t\t\n      ADD \t\t\t\n      PUSH [tag] 279\t\t\t\n      JUMP \t\t\t\n    tag 353\t\t\t\n      JUMPDEST \t\t\t\n      PUSH 11\t\t\t\n      SLOAD \t\t\t\n      PUSH 40\t\t\t\n      MLOAD \t\t\t\n      PUSH 17066A57\t\t\t\n      PUSH E2\t\t\t\n      SHL \t\t\t\n      DUP2 \t\t\t\n      MSTORE \t\t\t\n      PUSH 1\t\t\t\n      PUSH 1\t\t\t\n      PUSH A0\t\t\t\n      SHL \t\t\t\n      SUB \t\t\t\n      DUP4 \t\t\t\n      DUP2 \t\t\t\n      AND \t\t\t\n      PUSH 4\t\t\t\n      DUP4 \t\t\t\n      ADD \t\t\t\n      MSTORE \t\t\t\n      SWAP1 \t\t\t\n      SWAP2 \t\t\t\n      AND \t\t\t\n      SWAP1 \t\t\t\n      PUSH 5C19A95C\t\t\t\n      SWAP1 \t\t\t\n      PUSH 24\t\t\t\n      ADD \t\t\t\n      PUSH 0\t\t\t\n      PUSH 40\t\t\t\n      MLOAD \t\t\t\n      DUP1 \t\t\t\n      DUP4 \t\t\t\n      SUB \t\t\t\n      DUP2 \t\t\t\n      PUSH 0\t\t\t\n      DUP8 \t\t\t\n      DUP1 \t\t\t\n      EXTCODESIZE \t\t\t\n      ISZERO \t\t\t\n      DUP1 \t\t\t\n      ISZERO \t\t\t\n      PUSH [tag] 357\t\t\t\n      JUMPI \t\t\t\n      PUSH 0\t\t\t\n      DUP1 \t\t\t\n      REVERT \t\t\t\n    tag 357\t\t\t\n      JUMPDEST \t\t\t\n      POP \t\t\t\n      GAS \t\t\t\n      CALL \t\t\t\n      ISZERO \t\t\t\n      DUP1 \t\t\t\n      ISZERO \t\t\t\n      PUSH [tag] 359\t\t\t\n      JUMPI \t\t\t\n      RETURNDATASIZE \t\t\t\n      PUSH 0\t\t\t\n      DUP1 \t\t\t\n      RETURNDATACOPY \t\t\t\n      RETURNDATASIZE \t\t\t\n      PUSH 0\t\t\t\n      REVERT \t\t\t\n    tag 359\t\t\t\n      JUMPDEST \t\t\t\n      POP \t\t\t\n      POP \t\t\t\n      POP \t\t\t\n      POP \t\t\t\n      POP \t\t\t\n      JUMP [out]\t\t\t\n    tag 173\t\t\t\n      JUMPDEST \t\t\t\n      PUSH 0\t\t\t\n      PUSH [tag] 275\t\t\t\n      DUP3 \t\t\t\n      PUSH [tag] 362\t\t\t\n      JUMP [in]\t\t\t\n    tag 179\t\t\test rate model\\r\\n    \n      JUMPDEST \t\t\test rate model\\r\\n    \n      PUSH 2\t\t\test rate model\\r\\n    \n      DUP1 \t\t\test rate model\\r\\n    \n      SLOAD \t\t\test rate model\\r\\n    \n      PUSH [tag] 266\t\t\test rate model\\r\\n    \n      SWAP1 \t\t\test rate model\\r\\n    \n      PUSH [tag] 267\t\t\test rate model\\r\\n    \n      JUMP [in]\t\t\test rate model\\r\\n    \n    tag 183\t\t\t\n      JUMPDEST \t\t\t\n      PUSH 0\t\t\t\n      PUSH [tag] 326\t\t\t\n      DUP3 \t\t\t\n      PUSH [tag] 370\t\t\t\n      JUMP [in]\t\t\t\n    tag 188\t\t\toller_,\\r\\n                Int...\n      JUMPDEST \t\t\toller_,\\r\\n                Int...\n      PUSH 3\t\t\tthe c\n      SLOAD \t\t\tthe c\n      PUSH 100\t\t\tthe c\n      SWAP1 \t\t\tthe c\n      DIV \t\t\tthe c\n      PUSH 1\t\t\t\n      PUSH 1\t\t\t\n      PUSH A0\t\t\t\n      SHL \t\t\t\n      SUB \t\t\t\n      AND \t\t\tthe c\n      CALLER \t\t\t// Creator\n      EQ \t\t\t// Creator of the c\n      PUSH [tag] 372\t\t\t        // Creator of the cont...\n      JUMPI \t\t\t        // Creator of the cont...\n      PUSH 40\t\t\t        // Creator of the cont...\n      MLOAD \t\t\t        // Creator of the cont...\n      PUSH 461BCD\t\t\t\n      PUSH E5\t\t\t\n      SHL \t\t\t\n      DUP2 \t\t\t        // Creator of the cont...\n      MSTORE \t\t\t        // Creator of the cont...\n      PUSH 20\t\t\t\n      PUSH 4\t\t\t        // Creator of the cont...\n      DUP3 \t\t\t        // Creator of the cont...\n      ADD \t\t\t        // Creator of the cont...\n      MSTORE \t\t\t\n      PUSH 24\t\t\t\n      DUP1 \t\t\t\n      DUP3 \t\t\t\n      ADD \t\t\t\n      MSTORE \t\t\t\n      PUSH 6F6E6C792061646D696E206D617920696E697469616C697A6520746865206D61\t\t\t\n      PUSH 44\t\t\t\n      DUP3 \t\t\t\n      ADD \t\t\t\n      MSTORE \t\t\t\n      PUSH 1C9AD95D\t\t\t\n      PUSH E2\t\t\t\n      SHL \t\t\t\n      PUSH 64\t\t\t\n      DUP3 \t\t\t\n      ADD \t\t\t\n      MSTORE \t\t\t\n      PUSH 84\t\t\t\n      ADD \t\t\t\n      PUSH [tag] 279\t\t\t        // Creator of the cont...\n      JUMP \t\t\t\n    tag 372\t\t\t        // Creator of the cont...\n      JUMPDEST \t\t\t        // Creator of the cont...\n      PUSH 9\t\t\t);\\r\\n\\r\\n        // I\n      SLOAD \t\t\t);\\r\\n\\r\\n        // I\n      ISZERO \t\t\t);\\r\\n\\r\\n        // Initia\n      DUP1 \t\t\t);\\r\\n\\r\\n        // Initializ...\n      ISZERO \t\t\t);\\r\\n\\r\\n        // Initializ...\n      PUSH [tag] 375\t\t\t);\\r\\n\\r\\n        // Initializ...\n      JUMPI \t\t\t);\\r\\n\\r\\n        // Initializ...\n      POP \t\t\t\n      PUSH A\t\t\t the market\n      SLOAD \t\t\t the market\n      ISZERO \t\t\t the market\\r\\n   \n    tag 375\t\t\t);\\r\\n\\r\\n        // Initializ...\n      JUMPDEST \t\t\t);\\r\\n\\r\\n        // Initializ...\n      PUSH [tag] 376\t\t\tn = payable(msg.sender);\\r\\n\\r...\n      JUMPI \t\t\tn = payable(msg.sender);\\r\\n\\r...\n      PUSH 40\t\t\tn = payable(msg.sender);\\r\\n\\r...\n      MLOAD \t\t\tn = payable(msg.sender);\\r\\n\\r...\n      PUSH 461BCD\t\t\t\n      PUSH E5\t\t\t\n      SHL \t\t\t\n      DUP2 \t\t\tn = payable(msg.sender);\\r\\n\\r...\n      MSTORE \t\t\tn = payable(msg.sender);\\r\\n\\r...\n      PUSH 20\t\t\t\n      PUSH 4\t\t\tn = payable(msg.sender);\\r\\n\\r...\n      DUP3 \t\t\tn = payable(msg.sender);\\r\\n\\r...\n      ADD \t\t\tn = payable(msg.sender);\\r\\n\\r...\n      MSTORE \t\t\t\n      PUSH 23\t\t\t\n      PUSH 24\t\t\t\n      DUP3 \t\t\t\n      ADD \t\t\t\n      MSTORE \t\t\t\n      PUSH 6D61726B6574206D6179206F6E6C7920626520696E697469616C697A6564206F\t\t\t\n      PUSH 44\t\t\t\n      DUP3 \t\t\t\n      ADD \t\t\t\n      MSTORE \t\t\t\n      PUSH 6E6365\t\t\t\n      PUSH E8\t\t\t\n      SHL \t\t\t\n      PUSH 64\t\t\t\n      DUP3 \t\t\t\n      ADD \t\t\t\n      MSTORE \t\t\t\n      PUSH 84\t\t\t\n      ADD \t\t\t\n      PUSH [tag] 279\t\t\tn = payable(msg.sender);\\r\\n\\r...\n      JUMP \t\t\t\n    tag 376\t\t\tn = payable(msg.sender);\\r\\n\\r...\n      JUMPDEST \t\t\tn = payable(msg.sender);\\r\\n\\r...\n      PUSH 7\t\t\tals_);\\r\\n\\r\\n        // Set t...\n      DUP5 \t\t\tals_);\\r\\n\\r\\n        // Set t...\n      SWAP1 \t\t\tals_);\\r\\n\\r\\n        // Set t...\n      SSTORE \t\t\tals_);\\r\\n\\r\\n        // Set t...\n      DUP4 \t\t\tadmin_;\\r\\n    }\\r\\n}\\r\\n\n      PUSH [tag] 379\t\t\tdone\\r\\n        admin = admin_...\n      JUMPI \t\t\tdone\\r\\n        admin = admin_...\n      PUSH 40\t\t\tdone\\r\\n        admin = admin_...\n      MLOAD \t\t\tdone\\r\\n        admin = admin_...\n      PUSH 461BCD\t\t\t\n      PUSH E5\t\t\t\n      SHL \t\t\t\n      DUP2 \t\t\tdone\\r\\n        admin = admin_...\n      MSTORE \t\t\tdone\\r\\n        admin = admin_...\n      PUSH 20\t\t\t\n      PUSH 4\t\t\tdone\\r\\n        admin = admin_...\n      DUP3 \t\t\tdone\\r\\n        admin = admin_...\n      ADD \t\t\tdone\\r\\n        admin = admin_...\n      MSTORE \t\t\t\n      PUSH 30\t\t\t\n      PUSH 24\t\t\t\n      DUP3 \t\t\t\n      ADD \t\t\t\n      MSTORE \t\t\t\n      PUSH 696E697469616C2065786368616E67652072617465206D757374206265206772\t\t\t\n      PUSH 44\t\t\t\n      DUP3 \t\t\t\n      ADD \t\t\t\n      MSTORE \t\t\t\n      PUSH 32B0BA32B9103A3430B7103D32B93797\t\t\t\n      PUSH 81\t\t\t\n      SHL \t\t\t\n      PUSH 64\t\t\t\n      DUP3 \t\t\t\n      ADD \t\t\t\n      MSTORE \t\t\t\n      PUSH 84\t\t\t\n      ADD \t\t\t\n      PUSH [tag] 279\t\t\tdone\\r\\n        admin = admin_...\n      JUMP \t\t\t\n    tag 379\t\t\tdone\\r\\n        admin = admin_...\n      JUMPDEST \t\t\tdone\\r\\n        admin = admin_...\n      PUSH 0\t\t\t\n      PUSH [tag] 382\t\t\t\n      DUP8 \t\t\t\n      PUSH [tag] 135\t\t\t\n      JUMP [in]\t\t\t\n    tag 382\t\t\t\n      JUMPDEST \t\t\t\n      SWAP1 \t\t\t\n      POP \t\t\t\n      DUP1 \t\t\t\n      ISZERO \t\t\t\n      PUSH [tag] 383\t\t\t\n      JUMPI \t\t\t\n      PUSH 40\t\t\t\n      MLOAD \t\t\t\n      PUSH 461BCD\t\t\t\n      PUSH E5\t\t\t\n      SHL \t\t\t\n      DUP2 \t\t\t\n      MSTORE \t\t\t\n      PUSH 20\t\t\t\n      PUSH 4\t\t\t\n      DUP3 \t\t\t\n      ADD \t\t\t\n      MSTORE \t\t\t\n      PUSH 1A\t\t\t\n      PUSH 24\t\t\t\n      DUP3 \t\t\t\n      ADD \t\t\t\n      MSTORE \t\t\t\n      PUSH 73657474696E6720636F6D7074726F6C6C6572206661696C6564000000000000\t\t\t\n      PUSH 44\t\t\t\n      DUP3 \t\t\t\n      ADD \t\t\t\n      MSTORE \t\t\t\n      PUSH 64\t\t\t\n      ADD \t\t\t\n      PUSH [tag] 279\t\t\t\n      JUMP \t\t\t\n    tag 383\t\t\t\n      JUMPDEST \t\t\t\n      TIMESTAMP \t\t\t\n      PUSH 9\t\t\t\n      SSTORE \t\t\t\n      PUSH DE0B6B3A7640000\t\t\t * @\n      PUSH A\t\t\t\n      SSTORE \t\t\t\n      PUSH [tag] 388\t\t\t\n      DUP7 \t\t\t\n      PUSH [tag] 389\t\t\t\n      JUMP [in]\t\t\t\n    tag 388\t\t\t\n      JUMPDEST \t\t\t\n      SWAP1 \t\t\t\n      POP \t\t\t\n      DUP1 \t\t\t\n      ISZERO \t\t\t\n      PUSH [tag] 390\t\t\t\n      JUMPI \t\t\t\n      PUSH 40\t\t\t\n      MLOAD \t\t\t\n      PUSH 461BCD\t\t\t\n      PUSH E5\t\t\t\n      SHL \t\t\t\n      DUP2 \t\t\t\n      MSTORE \t\t\t\n      PUSH 20\t\t\t\n      PUSH 4\t\t\t\n      DUP3 \t\t\t\n      ADD \t\t\t\n      MSTORE \t\t\t\n      PUSH 22\t\t\t\n      PUSH 24\t\t\t\n      DUP3 \t\t\t\n      ADD \t\t\t\n      MSTORE \t\t\t\n      PUSH 73657474696E6720696E7465726573742072617465206D6F64656C206661696C\t\t\t\n      PUSH 44\t\t\t\n      DUP3 \t\t\t\n      ADD \t\t\t\n      MSTORE \t\t\t\n      PUSH 1959\t\t\t\n      PUSH F2\t\t\t\n      SHL \t\t\t\n      PUSH 64\t\t\t\n      DUP3 \t\t\t\n      ADD \t\t\t\n      MSTORE \t\t\t\n      PUSH 84\t\t\t\n      ADD \t\t\t\n      PUSH [tag] 279\t\t\t\n      JUMP \t\t\t\n    tag 390\t\t\t\n      JUMPDEST \t\t\t\n      DUP4 \t\t\t\n      MLOAD \t\t\t\n      PUSH [tag] 393\t\t\t\n      SWAP1 \t\t\t\n      PUSH 1\t\t\t\n      SWAP1 \t\t\t\n      PUSH 20\t\t\t\n      DUP8 \t\t\t\n      ADD \t\t\t\n      SWAP1 \t\t\t\n      PUSH [tag] 394\t\t\t\n      JUMP [in]\t\t\t\n    tag 393\t\t\t\n      JUMPDEST \t\t\t\n      POP \t\t\t\n      DUP3 \t\t\t\n      MLOAD \t\t\t\n      PUSH [tag] 395\t\t\t\n      SWAP1 \t\t\t\n      PUSH 2\t\t\t\n      SWAP1 \t\t\t\n      PUSH 20\t\t\t\n      DUP7 \t\t\t\n      ADD \t\t\t\n      SWAP1 \t\t\t\n      PUSH [tag] 394\t\t\t\n      JUMP [in]\t\t\t\n    tag 395\t\t\t\n      JUMPDEST \t\t\t\n      POP \t\t\t\n      POP \t\t\t\n      PUSH 3\t\t\t\n      DUP1 \t\t\t\n      SLOAD \t\t\t\n      PUSH FF\t\t\t\n      SWAP1 \t\t\t\n      SWAP3 \t\t\t\n      AND \t\t\t\n      PUSH FF\t\t\t\n      NOT \t\t\t\n      SWAP3 \t\t\t\n      DUP4 \t\t\t\n      AND \t\t\t\n      OR \t\t\t\n      SWAP1 \t\t\t\n      SSTORE \t\t\t\n      PUSH 0\t\t\t\n      DUP1 \t\t\t\n      SLOAD \t\t\t\n      SWAP1 \t\t\t\n      SWAP2 \t\t\t\n      AND \t\t\t\n      PUSH 1\t\t\t\n      OR \t\t\t\n      SWAP1 \t\t\t\n      SSTORE \t\t\t\n      POP \t\t\t\n      POP \t\t\t\n      POP \t\t\t\n      POP \t\t\t\n      POP \t\t\t\n      JUMP [out]\t\t\toller_,\\r\\n                Int...\n    tag 191\t\t\t\n      JUMPDEST \t\t\t\n      PUSH 0\t\t\t\n      PUSH [tag] 275\t\t\t\n      DUP3 \t\t\t\n      PUSH [tag] 398\t\t\t\n      JUMP [in]\t\t\t\n    tag 194\t\t\t\n      JUMPDEST \t\t\t\n      PUSH 9\t\t\t\n      SLOAD \t\t\t\n      PUSH 0\t\t\t\n      SWAP1 \t\t\t\n      TIMESTAMP \t\t\t\n      SWAP1 \t\t\t\n      DUP1 \t\t\t\n      DUP3 \t\t\t\n      EQ \t\t\t\n      ISZERO \t\t\t\n      PUSH [tag] 401\t\t\t\n      JUMPI \t\t\t\n      PUSH 0\t\t\t\n      SWAP3 \t\t\t\n      POP \t\t\t\n      POP \t\t\t\n      POP \t\t\t\n      SWAP1 \t\t\t\n      JUMP [out]\t\t\t\n    tag 401\t\t\t\n      JUMPDEST \t\t\t\n      PUSH 0\t\t\t\n      PUSH [tag] 402\t\t\t\n      PUSH [tag] 324\t\t\t\n      JUMP [in]\t\t\t\n    tag 402\t\t\t\n      JUMPDEST \t\t\t\n      PUSH B\t\t\t\n      SLOAD \t\t\t\n      PUSH C\t\t\t\n      SLOAD \t\t\t\n      PUSH A\t\t\t\n      SLOAD \t\t\t\n      PUSH 6\t\t\t\n      SLOAD \t\t\t\n      PUSH 40\t\t\t\n      MLOAD \t\t\t\n      PUSH 15F24053\t\t\t\n      PUSH E0\t\t\t\n      SHL \t\t\t\n      DUP2 \t\t\t\n      MSTORE \t\t\t\n      PUSH 4\t\t\t\n      DUP2 \t\t\t\n      ADD \t\t\t\n      DUP7 \t\t\t\n      SWAP1 \t\t\t\n      MSTORE \t\t\t\n      PUSH 24\t\t\t\n      DUP2 \t\t\t\n      ADD \t\t\t\n      DUP6 \t\t\t\n      SWAP1 \t\t\t\n      MSTORE \t\t\t\n      PUSH 44\t\t\t\n      DUP2 \t\t\t\n      ADD \t\t\t\n      DUP5 \t\t\t\n      SWAP1 \t\t\t\n      MSTORE \t\t\t\n      SWAP5 \t\t\t\n      SWAP6 \t\t\t\n      POP \t\t\t\n      SWAP3 \t\t\t\n      SWAP4 \t\t\t\n      SWAP2 \t\t\t\n      SWAP3 \t\t\t\n      SWAP1 \t\t\t\n      SWAP2 \t\t\t\n      PUSH 0\t\t\t\n      SWAP2 \t\t\t\n      PUSH 1\t\t\t\n      PUSH 1\t\t\t\n      PUSH A0\t\t\t\n      SHL \t\t\t\n      SUB \t\t\t\n      AND \t\t\t\n      SWAP1 \t\t\t\n      PUSH 15F24053\t\t\t\n      SWAP1 \t\t\t\n      PUSH 64\t\t\t\n      ADD \t\t\t\n      PUSH 20\t\t\t\n      PUSH 40\t\t\t\n      MLOAD \t\t\t\n      DUP1 \t\t\t\n      DUP4 \t\t\t\n      SUB \t\t\t\n      DUP2 \t\t\t\n      DUP7 \t\t\t\n      GAS \t\t\t\n      STATICCALL \t\t\t\n      ISZERO \t\t\t\n      DUP1 \t\t\t\n      ISZERO \t\t\t\n      PUSH [tag] 406\t\t\t\n      JUMPI \t\t\t\n      RETURNDATASIZE \t\t\t\n      PUSH 0\t\t\t\n      DUP1 \t\t\t\n      RETURNDATACOPY \t\t\t\n      RETURNDATASIZE \t\t\t\n      PUSH 0\t\t\t\n      REVERT \t\t\t\n    tag 406\t\t\t\n      JUMPDEST \t\t\t\n      POP \t\t\t\n      POP \t\t\t\n      POP \t\t\t\n      POP \t\t\t\n      PUSH 40\t\t\t\n      MLOAD \t\t\t\n      RETURNDATASIZE \t\t\t\n      PUSH 1F\t\t\t\n      NOT \t\t\t\n      PUSH 1F\t\t\t\n      DUP3 \t\t\t\n      ADD \t\t\t\n      AND \t\t\t\n      DUP3 \t\t\t\n      ADD \t\t\t\n      DUP1 \t\t\t\n      PUSH 40\t\t\t\n      MSTORE \t\t\t\n      POP \t\t\t\n      DUP2 \t\t\t\n      ADD \t\t\t\n      SWAP1 \t\t\t\n      PUSH [tag] 407\t\t\t\n      SWAP2 \t\t\t\n      SWAP1 \t\t\t\n      PUSH [tag] 292\t\t\t\n      JUMP [in]\t\t\t\n    tag 407\t\t\t\n      JUMPDEST \t\t\t\n      SWAP1 \t\t\t\n      POP \t\t\t\n      PUSH 5D21DBA000\t\t\t of this t\n      DUP2 \t\t\t\n      GT \t\t\t\n      ISZERO \t\t\t\n      PUSH [tag] 408\t\t\t\n      JUMPI \t\t\t\n      PUSH 40\t\t\t\n      MLOAD \t\t\t\n      PUSH 461BCD\t\t\t\n      PUSH E5\t\t\t\n      SHL \t\t\t\n      DUP2 \t\t\t\n      MSTORE \t\t\t\n      PUSH 20\t\t\t\n      PUSH 4\t\t\t\n      DUP3 \t\t\t\n      ADD \t\t\t\n      MSTORE \t\t\t\n      PUSH 1C\t\t\t\n      PUSH 24\t\t\t\n      DUP3 \t\t\t\n      ADD \t\t\t\n      MSTORE \t\t\t\n      PUSH 626F72726F772072617465206973206162737572646C79206869676800000000\t\t\t\n      PUSH 44\t\t\t\n      DUP3 \t\t\t\n      ADD \t\t\t\n      MSTORE \t\t\t\n      PUSH 64\t\t\t\n      ADD \t\t\t\n      PUSH [tag] 279\t\t\t\n      JUMP \t\t\t\n    tag 408\t\t\t\n      JUMPDEST \t\t\t\n      PUSH 0\t\t\t\n      PUSH [tag] 411\t\t\t\n      DUP8 \t\t\t\n      DUP10 \t\t\t\n      PUSH [tag] 412\t\t\t\n      JUMP [in]\t\t\t\n    tag 411\t\t\t\n      JUMPDEST \t\t\t\n      SWAP1 \t\t\t\n      POP \t\t\t\n      PUSH 0\t\t\t\n      PUSH [tag] 413\t\t\t\n      PUSH 40\t\t\t\n      MLOAD \t\t\t\n      DUP1 \t\t\t\n      PUSH 20\t\t\t\n      ADD \t\t\t\n      PUSH 40\t\t\t\n      MSTORE \t\t\t\n      DUP1 \t\t\t\n      DUP6 \t\t\t\n      DUP2 \t\t\t\n      MSTORE \t\t\t\n      POP \t\t\t\n      DUP4 \t\t\t\n      PUSH [tag] 414\t\t\t\n      JUMP [in]\t\t\t\n    tag 413\t\t\t\n      JUMPDEST \t\t\t\n      SWAP1 \t\t\t\n      POP \t\t\t\n      PUSH 0\t\t\t\n      PUSH [tag] 415\t\t\t\n      DUP3 \t\t\t\n      DUP9 \t\t\t\n      PUSH [tag] 321\t\t\t\n      JUMP [in]\t\t\t\n    tag 415\t\t\t\n      JUMPDEST \t\t\t\n      SWAP1 \t\t\t\n      POP \t\t\t\n      PUSH 0\t\t\t\n      PUSH [tag] 416\t\t\t\n      DUP9 \t\t\t\n      DUP4 \t\t\t\n      PUSH [tag] 417\t\t\t\n      JUMP [in]\t\t\t\n    tag 416\t\t\t\n      JUMPDEST \t\t\t\n      SWAP1 \t\t\t\n      POP \t\t\t\n      PUSH 0\t\t\t\n      PUSH [tag] 418\t\t\t\n      PUSH 40\t\t\t\n      MLOAD \t\t\t\n      DUP1 \t\t\t\n      PUSH 20\t\t\t\n      ADD \t\t\t\n      PUSH 40\t\t\t\n      MSTORE \t\t\t\n      DUP1 \t\t\t\n      PUSH 8\t\t\t\n      SLOAD \t\t\t\n      DUP2 \t\t\t\n      MSTORE \t\t\t\n      POP \t\t\t\n      DUP5 \t\t\t\n      DUP11 \t\t\t\n      PUSH [tag] 419\t\t\t\n      JUMP [in]\t\t\t\n    tag 418\t\t\t\n      JUMPDEST \t\t\t\n      SWAP1 \t\t\t\n      POP \t\t\t\n      PUSH 0\t\t\t\n      PUSH [tag] 420\t\t\t\n      DUP6 \t\t\t\n      DUP10 \t\t\t\n      DUP11 \t\t\t\n      PUSH [tag] 419\t\t\t\n      JUMP [in]\t\t\t\n    tag 420\t\t\t\n      JUMPDEST \t\t\t\n      PUSH 9\t\t\t\n      DUP15 \t\t\t\n      SWAP1 \t\t\t\n      SSTORE \t\t\t\n      PUSH A\t\t\t\n      DUP2 \t\t\t\n      SWAP1 \t\t\t\n      SSTORE \t\t\t\n      PUSH B\t\t\t\n      DUP5 \t\t\t\n      SWAP1 \t\t\t\n      SSTORE \t\t\t\n      PUSH C\t\t\t\n      DUP4 \t\t\t\n      SWAP1 \t\t\t\n      SSTORE \t\t\t\n      PUSH 40\t\t\t\n      DUP1 \t\t\t\n      MLOAD \t\t\t\n      DUP14 \t\t\t\n      DUP2 \t\t\t\n      MSTORE \t\t\t\n      PUSH 20\t\t\t\n      DUP2 \t\t\t\n      ADD \t\t\t\n      DUP8 \t\t\t\n      SWAP1 \t\t\t\n      MSTORE \t\t\t\n      SWAP1 \t\t\t\n      DUP2 \t\t\t\n      ADD \t\t\t\n      DUP3 \t\t\t\n      SWAP1 \t\t\t\n      MSTORE \t\t\t\n      PUSH 60\t\t\t\n      DUP2 \t\t\t\n      ADD \t\t\t\n      DUP6 \t\t\t\n      SWAP1 \t\t\t\n      MSTORE \t\t\t\n      SWAP1 \t\t\t\n      SWAP2 \t\t\t\n      POP \t\t\t\n      PUSH 4DEC04E750CA11537CABCD8A9EAB06494DE08DA3735BC8871CD41250E190BC04\t\t\t\n      SWAP1 \t\t\t\n      PUSH 80\t\t\t\n      ADD \t\t\t\n      PUSH 40\t\t\t\n      MLOAD \t\t\t\n      DUP1 \t\t\t\n      SWAP2 \t\t\t\n      SUB \t\t\t\n      SWAP1 \t\t\t\n      LOG1 \t\t\t\n      PUSH 0\t\t\t\n      SWAP14 \t\t\t\n      POP \t\t\t\n      POP \t\t\t\n      POP \t\t\t\n      POP \t\t\t\n      POP \t\t\t\n      POP \t\t\t\n      POP \t\t\t\n      POP \t\t\t\n      POP \t\t\t\n      POP \t\t\t\n      POP \t\t\t\n      POP \t\t\t\n      POP \t\t\t\n      POP \t\t\t\n      SWAP1 \t\t\t\n      JUMP [out]\t\t\t\n    tag 198\t\t\t\n      JUMPDEST \t\t\t\n      PUSH 0\t\t\t\n      DUP1 \t\t\t\n      SLOAD \t\t\t\n      PUSH FF\t\t\t\n      AND \t\t\t\n      PUSH [tag] 423\t\t\t\n      JUMPI \t\t\t\n      PUSH 40\t\t\t\n      MLOAD \t\t\t\n      PUSH 461BCD\t\t\t\n      PUSH E5\t\t\t\n      SHL \t\t\t\n      DUP2 \t\t\t\n      MSTORE \t\t\t\n      PUSH 4\t\t\t\n      ADD \t\t\t\n      PUSH [tag] 279\t\t\t\n      SWAP1 \t\t\t\n      PUSH [tag] 280\t\t\t\n      JUMP [in]\t\t\t\n    tag 423\t\t\t\n      JUMPDEST \t\t\t\n      PUSH 0\t\t\t\n      DUP1 \t\t\t\n      SLOAD \t\t\t\n      PUSH FF\t\t\t\n      NOT \t\t\t\n      AND \t\t\t\n      DUP2 \t\t\t\n      SSTORE \t\t\t\n      PUSH [tag] 426\t\t\t\n      CALLER \t\t\t\n      DUP1 \t\t\t\n      DUP7 \t\t\t\n      DUP7 \t\t\t\n      PUSH [tag] 314\t\t\t\n      JUMP [in]\t\t\t\n    tag 426\t\t\t\n      JUMPDEST \t\t\t\n      EQ \t\t\t\n      SWAP1 \t\t\t\n      POP \t\t\t\n      PUSH 0\t\t\t\n      DUP1 \t\t\t\n      SLOAD \t\t\t\n      PUSH FF\t\t\t\n      NOT \t\t\t\n      AND \t\t\t\n      PUSH 1\t\t\t\n      OR \t\t\t\n      SWAP1 \t\t\t\n      SSTORE \t\t\t\n      SWAP3 \t\t\t\n      SWAP2 \t\t\t\n      POP \t\t\t\n      POP \t\t\t\n      JUMP [out]\t\t\t\n    tag 204\t\t\t\n      JUMPDEST \t\t\t\n      PUSH 6\t\t\t\n      SLOAD \t\t\t\n      PUSH 0\t\t\t\n      SWAP1 \t\t\t\n      PUSH 1\t\t\t\n      PUSH 1\t\t\t\n      PUSH A0\t\t\t\n      SHL \t\t\t\n      SUB \t\t\t\n      AND \t\t\t\n      PUSH B8168816\t\t\t\n      PUSH [tag] 428\t\t\t\n      PUSH [tag] 324\t\t\t\n      JUMP [in]\t\t\t\n    tag 428\t\t\t\n      JUMPDEST \t\t\t\n      PUSH B\t\t\t\n      SLOAD \t\t\t\n      PUSH C\t\t\t\n      SLOAD \t\t\t\n      PUSH 8\t\t\t\n      SLOAD \t\t\t\n      PUSH 40\t\t\t\n      MLOAD \t\t\t\n      PUSH 1\t\t\t\n      PUSH 1\t\t\t\n      PUSH E0\t\t\t\n      SHL \t\t\t\n      SUB \t\t\t\n      NOT \t\t\t\n      PUSH E0\t\t\t\n      DUP8 \t\t\t\n      SWAP1 \t\t\t\n      SHL \t\t\t\n      AND \t\t\t\n      DUP2 \t\t\t\n      MSTORE \t\t\t\n      PUSH 4\t\t\t\n      DUP2 \t\t\t\n      ADD \t\t\t\n      SWAP5 \t\t\t\n      SWAP1 \t\t\t\n      SWAP5 \t\t\t\n      MSTORE \t\t\t\n      PUSH 24\t\t\t\n      DUP5 \t\t\t\n      ADD \t\t\t\n      SWAP3 \t\t\t\n      SWAP1 \t\t\t\n      SWAP3 \t\t\t\n      MSTORE \t\t\t\n      PUSH 44\t\t\t\n      DUP4 \t\t\t\n      ADD \t\t\t\n      MSTORE \t\t\t\n      PUSH 64\t\t\t\n      DUP3 \t\t\t\n      ADD \t\t\t\n      MSTORE \t\t\t\n      PUSH 84\t\t\t\n      ADD \t\t\t\n    tag 429\t\t\t\n      JUMPDEST \t\t\t\n      PUSH 20\t\t\t\n      PUSH 40\t\t\t\n      MLOAD \t\t\t\n      DUP1 \t\t\t\n      DUP4 \t\t\t\n      SUB \t\t\t\n      DUP2 \t\t\t\n      DUP7 \t\t\t\n      GAS \t\t\t\n      STATICCALL \t\t\t\n      ISZERO \t\t\t\n      DUP1 \t\t\t\n      ISZERO \t\t\t\n      PUSH [tag] 431\t\t\t\n      JUMPI \t\t\t\n      RETURNDATASIZE \t\t\t\n      PUSH 0\t\t\t\n      DUP1 \t\t\t\n      RETURNDATACOPY \t\t\t\n      RETURNDATASIZE \t\t\t\n      PUSH 0\t\t\t\n      REVERT \t\t\t\n    tag 431\t\t\t\n      JUMPDEST \t\t\t\n      POP \t\t\t\n      POP \t\t\t\n      POP \t\t\t\n      POP \t\t\t\n      PUSH 40\t\t\t\n      MLOAD \t\t\t\n      RETURNDATASIZE \t\t\t\n      PUSH 1F\t\t\t\n      NOT \t\t\t\n      PUSH 1F\t\t\t\n      DUP3 \t\t\t\n      ADD \t\t\t\n      AND \t\t\t\n      DUP3 \t\t\t\n      ADD \t\t\t\n      DUP1 \t\t\t\n      PUSH 40\t\t\t\n      MSTORE \t\t\t\n      POP \t\t\t\n      DUP2 \t\t\t\n      ADD \t\t\t\n      SWAP1 \t\t\t\n      PUSH [tag] 285\t\t\t\n      SWAP2 \t\t\t\n      SWAP1 \t\t\t\n      PUSH [tag] 292\t\t\t\n      JUMP [in]\t\t\t\n    tag 208\t\t\t\n      JUMPDEST \t\t\t\n      PUSH 0\t\t\t\n      DUP1 \t\t\t\n      SLOAD \t\t\t\n      PUSH FF\t\t\t\n      AND \t\t\t\n      PUSH [tag] 434\t\t\t\n      JUMPI \t\t\t\n      PUSH 40\t\t\t\n      MLOAD \t\t\t\n      PUSH 461BCD\t\t\t\n      PUSH E5\t\t\t\n      SHL \t\t\t\n      DUP2 \t\t\t\n      MSTORE \t\t\t\n      PUSH 4\t\t\t\n      ADD \t\t\t\n      PUSH [tag] 279\t\t\t\n      SWAP1 \t\t\t\n      PUSH [tag] 280\t\t\t\n      JUMP [in]\t\t\t\n    tag 434\t\t\t\n      JUMPDEST \t\t\t\n      PUSH 0\t\t\t\n      DUP1 \t\t\t\n      SLOAD \t\t\t\n      PUSH FF\t\t\t\n      NOT \t\t\t\n      AND \t\t\t\n      SWAP1 \t\t\t\n      SSTORE \t\t\t\n      PUSH [tag] 437\t\t\t\n      CALLER \t\t\t\n      DUP6 \t\t\t\n      DUP6 \t\t\t\n      DUP6 \t\t\t\n      PUSH [tag] 438\t\t\t\n      JUMP [in]\t\t\t\n    tag 437\t\t\t\n      JUMPDEST \t\t\t\n      POP \t\t\t\n      PUSH 0\t\t\t\n      DUP1 \t\t\t\n      DUP1 \t\t\t\n      SLOAD \t\t\t\n      PUSH FF\t\t\t\n      NOT \t\t\t\n      AND \t\t\t\n      PUSH 1\t\t\t\n      OR \t\t\t\n      SWAP1 \t\t\t\n      SSTORE \t\t\t\n      SWAP4 \t\t\t\n      SWAP3 \t\t\t\n      POP \t\t\t\n      POP \t\t\t\n      POP \t\t\t\n      JUMP [out]\t\t\t\n    tag 213\t\t\t\n      JUMPDEST \t\t\t\n      PUSH 3\t\t\t\n      SLOAD \t\t\t\n      PUSH 0\t\t\t\n      SWAP1 \t\t\t\n      PUSH 100\t\t\t\n      SWAP1 \t\t\t\n      DIV \t\t\t\n      PUSH 1\t\t\t\n      PUSH 1\t\t\t\n      PUSH A0\t\t\t\n      SHL \t\t\t\n      SUB \t\t\t\n      AND \t\t\t\n      CALLER \t\t\t\n      EQ \t\t\t\n      PUSH [tag] 440\t\t\t\n      JUMPI \t\t\t\n      PUSH 40\t\t\t\n      MLOAD \t\t\t\n      PUSH 5CB56C2B\t\t\t\n      PUSH E0\t\t\t\n      SHL \t\t\t\n      DUP2 \t\t\t\n      MSTORE \t\t\t\n      PUSH 4\t\t\t\n      ADD \t\t\t\n      PUSH 40\t\t\t\n      MLOAD \t\t\t\n      DUP1 \t\t\t\n      SWAP2 \t\t\t\n      SUB \t\t\t\n      SWAP1 \t\t\t\n      REVERT \t\t\t\n    tag 440\t\t\t\n      JUMPDEST \t\t\t\n      PUSH 4\t\t\t\n      DUP1 \t\t\t\n      SLOAD \t\t\t\n      PUSH 1\t\t\t\n      PUSH 1\t\t\t\n      PUSH A0\t\t\t\n      SHL \t\t\t\n      SUB \t\t\t\n      DUP5 \t\t\t\n      DUP2 \t\t\t\n      AND \t\t\t\n      PUSH 1\t\t\t\n      PUSH 1\t\t\t\n      PUSH A0\t\t\t\n      SHL \t\t\t\n      SUB \t\t\t\n      NOT \t\t\t\n      DUP4 \t\t\t\n      AND \t\t\t\n      DUP2 \t\t\t\n      OR \t\t\t\n      SWAP1 \t\t\t\n      SWAP4 \t\t\t\n      SSTORE \t\t\t\n      PUSH 40\t\t\t\n      DUP1 \t\t\t\n      MLOAD \t\t\t\n      SWAP2 \t\t\t\n      SWAP1 \t\t\t\n      SWAP3 \t\t\t\n      AND \t\t\t\n      DUP1 \t\t\t\n      DUP3 \t\t\t\n      MSTORE \t\t\t\n      PUSH 20\t\t\t\n      DUP3 \t\t\t\n      ADD \t\t\t\n      SWAP4 \t\t\t\n      SWAP1 \t\t\t\n      SWAP4 \t\t\t\n      MSTORE \t\t\t\n      PUSH CA4F2F25D0898EDD99413412FB94012F9E54EC8142F9B093E7720646A95B16A9\t\t\t\n      SWAP2 \t\t\t\n      ADD \t\t\t\n      PUSH [tag] 337\t\t\t\n      JUMP \t\t\t\n    tag 216\t\t\t\n      JUMPDEST \t\t\t\n      PUSH 0\t\t\t\n      DUP1 \t\t\t\n      SLOAD \t\t\t\n      PUSH FF\t\t\t\n      AND \t\t\t\n      PUSH [tag] 444\t\t\t\n      JUMPI \t\t\t\n      PUSH 40\t\t\t\n      MLOAD \t\t\t\n      PUSH 461BCD\t\t\t\n      PUSH E5\t\t\t\n      SHL \t\t\t\n      DUP2 \t\t\t\n      MSTORE \t\t\t\n      PUSH 4\t\t\t\n      ADD \t\t\t\n      PUSH [tag] 279\t\t\t\n      SWAP1 \t\t\t\n      PUSH [tag] 280\t\t\t\n      JUMP [in]\t\t\t\n    tag 444\t\t\t\n      JUMPDEST \t\t\t\n      PUSH 0\t\t\t\n      DUP1 \t\t\t\n      SLOAD \t\t\t\n      PUSH FF\t\t\t\n      NOT \t\t\t\n      AND \t\t\t\n      SWAP1 \t\t\t\n      SSTORE \t\t\t\n      PUSH [tag] 447\t\t\t\n      PUSH [tag] 194\t\t\t\n      JUMP [in]\t\t\t\n    tag 447\t\t\t\n      JUMPDEST \t\t\t\n      POP \t\t\t\n      PUSH [tag] 448\t\t\t\n      PUSH [tag] 94\t\t\t\n      JUMP [in]\t\t\t\n    tag 448\t\t\t\n      JUMPDEST \t\t\t\n      SWAP1 \t\t\t\n      POP \t\t\t\n      PUSH 0\t\t\t\n      DUP1 \t\t\t\n      SLOAD \t\t\t\n      PUSH FF\t\t\t\n      NOT \t\t\t\n      AND \t\t\t\n      PUSH 1\t\t\t\n      OR \t\t\t\n      SWAP1 \t\t\t\n      SSTORE \t\t\t\n      SWAP1 \t\t\t\n      JUMP [out]\t\t\t\n    tag 220\t\t\t\n      JUMPDEST \t\t\t\n      PUSH 1\t\t\t\n      PUSH 1\t\t\t\n      PUSH A0\t\t\t\n      SHL \t\t\t\n      SUB \t\t\t\n      DUP2 \t\t\t\n      AND \t\t\t\n      PUSH 0\t\t\t\n      SWAP1 \t\t\t\n      DUP2 \t\t\t\n      MSTORE \t\t\t\n      PUSH E\t\t\t\n      PUSH 20\t\t\t\n      MSTORE \t\t\t\n      PUSH 40\t\t\t\n      DUP2 \t\t\t\n      KECCAK256 \t\t\t\n      SLOAD \t\t\t\n      DUP2 \t\t\t\n      SWAP1 \t\t\t\n      DUP2 \t\t\t\n      SWAP1 \t\t\t\n      DUP2 \t\t\t\n      SWAP1 \t\t\t\n      DUP2 \t\t\t\n      SWAP1 \t\t\t\n      PUSH [tag] 450\t\t\t\n      DUP8 \t\t\t\n      PUSH [tag] 370\t\t\t\n      JUMP [in]\t\t\t\n    tag 450\t\t\t\n      JUMPDEST \t\t\t\n      PUSH [tag] 451\t\t\t\n      PUSH [tag] 286\t\t\t\n      JUMP [in]\t\t\t\n    tag 451\t\t\t\n      JUMPDEST \t\t\t\n      SWAP4 \t\t\t\n      POP \t\t\t\n      SWAP4 \t\t\t\n      POP \t\t\t\n      SWAP4 \t\t\t\n      POP \t\t\t\n      SWAP4 \t\t\t\n      POP \t\t\t\n      SWAP2 \t\t\t\n      SWAP4 \t\t\t\n      POP \t\t\t\n      SWAP2 \t\t\t\n      SWAP4 \t\t\t\n      JUMP [out]\t\t\t\n    tag 225\t\t\t\n      JUMPDEST \t\t\t\n      PUSH 0\t\t\t\n      PUSH [tag] 275\t\t\t\n      DUP3 \t\t\t\n      PUSH [tag] 454\t\t\t\n      JUMP [in]\t\t\t\n    tag 229\t\t\t\n      JUMPDEST \t\t\t\n      PUSH 0\t\t\t\n      PUSH [tag] 275\t\t\t\n      DUP3 \t\t\t\n      PUSH [tag] 457\t\t\t\n      JUMP [in]\t\t\t\n    tag 237\t\t\t\n      JUMPDEST \t\t\t\n      PUSH 4\t\t\t\n      SLOAD \t\t\t\n      PUSH 0\t\t\t\n      SWAP1 \t\t\t\n      PUSH 1\t\t\t\n      PUSH 1\t\t\t\n      PUSH A0\t\t\t\n      SHL \t\t\t\n      SUB \t\t\t\n      AND \t\t\t\n      CALLER \t\t\t\n      EQ \t\t\t\n      ISZERO \t\t\t\n      DUP1 \t\t\t\n      PUSH [tag] 460\t\t\t\n      JUMPI \t\t\t\n      POP \t\t\t\n      CALLER \t\t\t\n      ISZERO \t\t\t\n    tag 460\t\t\t\n      JUMPDEST \t\t\t\n      ISZERO \t\t\t\n      PUSH [tag] 461\t\t\t\n      JUMPI \t\t\t\n      PUSH 40\t\t\t\n      MLOAD \t\t\t\n      PUSH 1BA24F29\t\t\t\n      PUSH E2\t\t\t\n      SHL \t\t\t\n      DUP2 \t\t\t\n      MSTORE \t\t\t\n      PUSH 4\t\t\t\n      ADD \t\t\t\n      PUSH 40\t\t\t\n      MLOAD \t\t\t\n      DUP1 \t\t\t\n      SWAP2 \t\t\t\n      SUB \t\t\t\n      SWAP1 \t\t\t\n      REVERT \t\t\t\n    tag 461\t\t\t\n      JUMPDEST \t\t\t\n      PUSH 3\t\t\t\n      DUP1 \t\t\t\n      SLOAD \t\t\t\n      PUSH 4\t\t\t\n      DUP1 \t\t\t\n      SLOAD \t\t\t\n      PUSH 1\t\t\t\n      PUSH 1\t\t\t\n      PUSH A0\t\t\t\n      SHL \t\t\t\n      SUB \t\t\t\n      DUP1 \t\t\t\n      DUP3 \t\t\t\n      AND \t\t\t\n      PUSH 100\t\t\t\n      DUP2 \t\t\t\n      DUP2 \t\t\t\n      MUL \t\t\t\n      PUSH 100\t\t\t\n      PUSH 1\t\t\t\n      PUSH A8\t\t\t\n      SHL \t\t\t\n      SUB \t\t\t\n      NOT \t\t\t\n      DUP8 \t\t\t\n      AND \t\t\t\n      OR \t\t\t\n      SWAP7 \t\t\t\n      DUP8 \t\t\t\n      SWAP1 \t\t\t\n      SSTORE \t\t\t\n      PUSH 1\t\t\t\n      PUSH 1\t\t\t\n      PUSH A0\t\t\t\n      SHL \t\t\t\n      SUB \t\t\t\n      NOT \t\t\t\n      SWAP1 \t\t\t\n      SWAP4 \t\t\t\n      AND \t\t\t\n      SWAP1 \t\t\t\n      SWAP4 \t\t\t\n      SSTORE \t\t\t\n      PUSH 40\t\t\t\n      DUP1 \t\t\t\n      MLOAD \t\t\t\n      SWAP5 \t\t\t\n      DUP4 \t\t\t\n      SWAP1 \t\t\t\n      DIV \t\t\t\n      DUP3 \t\t\t\n      AND \t\t\t\n      DUP1 \t\t\t\n      DUP7 \t\t\t\n      MSTORE \t\t\t\n      SWAP3 \t\t\t\n      SWAP1 \t\t\t\n      SWAP6 \t\t\t\n      DIV \t\t\t\n      AND \t\t\t\n      PUSH 20\t\t\t\n      DUP5 \t\t\t\n      ADD \t\t\t\n      MSTORE \t\t\t\n      SWAP3 \t\t\t\n      SWAP1 \t\t\t\n      SWAP2 \t\t\t\n      PUSH F9FFABCA9C8276E99321725BCB43FB076A6C66A54B7F21C4E8146D8519B417DC\t\t\t\n      SWAP2 \t\t\t\n      ADD \t\t\t\n      PUSH 40\t\t\t\n      MLOAD \t\t\t\n      DUP1 \t\t\t\n      SWAP2 \t\t\t\n      SUB \t\t\t\n      SWAP1 \t\t\t\n      LOG1 \t\t\t\n      PUSH 4\t\t\t\n      SLOAD \t\t\t\n      PUSH 40\t\t\t\n      DUP1 \t\t\t\n      MLOAD \t\t\t\n      PUSH 1\t\t\t\n      PUSH 1\t\t\t\n      PUSH A0\t\t\t\n      SHL \t\t\t\n      SUB \t\t\t\n      DUP1 \t\t\t\n      DUP6 \t\t\t\n      AND \t\t\t\n      DUP3 \t\t\t\n      MSTORE \t\t\t\n      SWAP1 \t\t\t\n      SWAP3 \t\t\t\n      AND \t\t\t\n      PUSH 20\t\t\t\n      DUP4 \t\t\t\n      ADD \t\t\t\n      MSTORE \t\t\t\n      PUSH CA4F2F25D0898EDD99413412FB94012F9E54EC8142F9B093E7720646A95B16A9\t\t\t\n      SWAP2 \t\t\t\n      ADD \t\t\t\n      PUSH 40\t\t\t\n      MLOAD \t\t\t\n      DUP1 \t\t\t\n      SWAP2 \t\t\t\n      SUB \t\t\t\n      SWAP1 \t\t\t\n      LOG1 \t\t\t\n      PUSH 0\t\t\t\n      SWAP3 \t\t\t\n      POP \t\t\t\n      POP \t\t\t\n      POP \t\t\t\n      SWAP1 \t\t\t\n      JUMP [out]\t\t\t\n    tag 242\t\t\t\n      JUMPDEST \t\t\t\n      PUSH 0\t\t\t\n      PUSH [tag] 465\t\t\t\n      PUSH [tag] 194\t\t\t\n      JUMP [in]\t\t\t\n    tag 465\t\t\t\n      JUMPDEST \t\t\t\n      POP \t\t\t\n      PUSH [tag] 326\t\t\t\n      DUP3 \t\t\t\n      PUSH [tag] 389\t\t\t\n      JUMP [in]\t\t\t\n    tag 251\t\t\t\n      JUMPDEST \t\t\t\n      PUSH 0\t\t\t\n      PUSH [tag] 468\t\t\t\n      DUP5 \t\t\t\n      DUP5 \t\t\t\n      DUP5 \t\t\t\n      PUSH [tag] 469\t\t\t\n      JUMP [in]\t\t\t\n    tag 468\t\t\t\n      JUMPDEST \t\t\t\n      POP \t\t\t\n      PUSH 0\t\t\t\n      SWAP4 \t\t\t\n      SWAP3 \t\t\t\n      POP \t\t\t\n      POP \t\t\t\n      POP \t\t\t\n      JUMP [out]\t\t\t\n    tag 257\t\t\t\n      JUMPDEST \t\t\t\n      PUSH 6\t\t\t\n      SLOAD \t\t\t\n      PUSH 0\t\t\t\n      SWAP1 \t\t\t\n      PUSH 1\t\t\t\n      PUSH 1\t\t\t\n      PUSH A0\t\t\t\n      SHL \t\t\t\n      SUB \t\t\t\n      AND \t\t\t\n      PUSH 15F24053\t\t\t\n      PUSH [tag] 471\t\t\t\n      PUSH [tag] 324\t\t\t\n      JUMP [in]\t\t\t\n    tag 471\t\t\t\n      JUMPDEST \t\t\t\n      PUSH B\t\t\t\n      SLOAD \t\t\t\n      PUSH C\t\t\t\n      SLOAD \t\t\t\n      PUSH 40\t\t\t\n      MLOAD \t\t\t\n      PUSH 1\t\t\t\n      PUSH 1\t\t\t\n      PUSH E0\t\t\t\n      SHL \t\t\t\n      SUB \t\t\t\n      NOT \t\t\t\n      PUSH E0\t\t\t\n      DUP7 \t\t\t\n      SWAP1 \t\t\t\n      SHL \t\t\t\n      AND \t\t\t\n      DUP2 \t\t\t\n      MSTORE \t\t\t\n      PUSH 4\t\t\t\n      DUP2 \t\t\t\n      ADD \t\t\t\n      SWAP4 \t\t\t\n      SWAP1 \t\t\t\n      SWAP4 \t\t\t\n      MSTORE \t\t\t\n      PUSH 24\t\t\t\n      DUP4 \t\t\t\n      ADD \t\t\t\n      SWAP2 \t\t\t\n      SWAP1 \t\t\t\n      SWAP2 \t\t\t\n      MSTORE \t\t\t\n      PUSH 44\t\t\t\n      DUP3 \t\t\t\n      ADD \t\t\t\n      MSTORE \t\t\t\n      PUSH 64\t\t\t\n      ADD \t\t\t\n      PUSH [tag] 429\t\t\t\n      JUMP \t\t\t\n    tag 261\t\t\t\n      JUMPDEST \t\t\t\n      PUSH 0\t\t\t\n      DUP1 \t\t\t\n      SLOAD \t\t\t\n      PUSH FF\t\t\t\n      AND \t\t\t\n      PUSH [tag] 477\t\t\t\n      JUMPI \t\t\t\n      PUSH 40\t\t\t\n      MLOAD \t\t\t\n      PUSH 461BCD\t\t\t\n      PUSH E5\t\t\t\n      SHL \t\t\t\n      DUP2 \t\t\t\n      MSTORE \t\t\t\n      PUSH 4\t\t\t\n      ADD \t\t\t\n      PUSH [tag] 279\t\t\t\n      SWAP1 \t\t\t\n      PUSH [tag] 280\t\t\t\n      JUMP [in]\t\t\t\n    tag 477\t\t\t\n      JUMPDEST \t\t\t\n      PUSH 0\t\t\t\n      DUP1 \t\t\t\n      SLOAD \t\t\t\n      PUSH FF\t\t\t\n      NOT \t\t\t\n      AND \t\t\t\n      SWAP1 \t\t\t\n      SSTORE \t\t\t\n      PUSH [tag] 480\t\t\t\n      PUSH [tag] 194\t\t\t\n      JUMP [in]\t\t\t\n    tag 480\t\t\t\n      JUMPDEST \t\t\t\n      POP \t\t\t\n      PUSH [tag] 283\t\t\t\n      DUP3 \t\t\t\n      PUSH [tag] 482\t\t\t\n      JUMP [in]\t\t\t\n    tag 276\t\t\t\n      JUMPDEST \t\t\t\n      PUSH 0\t\t\t\n      SLOAD \t\t\t\n      PUSH FF\t\t\t\n      AND \t\t\t\n      PUSH [tag] 484\t\t\t\n      JUMPI \t\t\t\n      PUSH 40\t\t\t\n      MLOAD \t\t\t\n      PUSH 461BCD\t\t\t\n      PUSH E5\t\t\t\n      SHL \t\t\t\n      DUP2 \t\t\t\n      MSTORE \t\t\t\n      PUSH 4\t\t\t\n      ADD \t\t\t\n      PUSH [tag] 279\t\t\t\n      SWAP1 \t\t\t\n      PUSH [tag] 280\t\t\t\n      JUMP [in]\t\t\t\n    tag 484\t\t\t\n      JUMPDEST \t\t\t\n      PUSH 0\t\t\t\n      DUP1 \t\t\t\n      SLOAD \t\t\t\n      PUSH FF\t\t\t\n      NOT \t\t\t\n      AND \t\t\t\n      SWAP1 \t\t\t\n      SSTORE \t\t\t\n      PUSH [tag] 487\t\t\t\n      PUSH [tag] 194\t\t\t\n      JUMP [in]\t\t\t\n    tag 487\t\t\t\n      JUMPDEST \t\t\t\n      POP \t\t\t\n      PUSH [tag] 488\t\t\t\n      CALLER \t\t\t\n      CALLER \t\t\t\n      DUP4 \t\t\t\n      PUSH [tag] 489\t\t\t\n      JUMP [in]\t\t\t\n    tag 488\t\t\t\n      JUMPDEST \t\t\t\n      POP \t\t\t\n      POP \t\t\t\n      PUSH 0\t\t\t\n      DUP1 \t\t\t\n      SLOAD \t\t\t\n      PUSH FF\t\t\t\n      NOT \t\t\t\n      AND \t\t\t\n      PUSH 1\t\t\t\n      OR \t\t\t\n      SWAP1 \t\t\t\n      SSTORE \t\t\t\n      JUMP [out]\t\t\t\n    tag 286\t\t\t\n      JUMPDEST \t\t\t\n      PUSH D\t\t\t\n      SLOAD \t\t\t\n      PUSH 0\t\t\t\n      SWAP1 \t\t\t\n      DUP1 \t\t\t\n      PUSH [tag] 491\t\t\t\n      JUMPI \t\t\t\n      POP \t\t\t\n      POP \t\t\t\n      PUSH 7\t\t\t\n      SLOAD \t\t\t\n      SWAP1 \t\t\t\n      JUMP [out]\t\t\t\n    tag 491\t\t\t\n      JUMPDEST \t\t\t\n      PUSH 0\t\t\t\n      PUSH [tag] 493\t\t\t\n      PUSH [tag] 324\t\t\t\n      JUMP [in]\t\t\t\n    tag 493\t\t\t\n      JUMPDEST \t\t\t\n      SWAP1 \t\t\t\n      POP \t\t\t\n      PUSH 0\t\t\t\n      PUSH C\t\t\t\n      SLOAD \t\t\t\n      PUSH B\t\t\t\n      SLOAD \t\t\t\n      DUP4 \t\t\t\n      PUSH [tag] 494\t\t\t\n      SWAP2 \t\t\t\n      SWAP1 \t\t\t\n      PUSH [tag] 417\t\t\t\n      JUMP [in]\t\t\t\n    tag 494\t\t\t\n      JUMPDEST \t\t\t\n      PUSH [tag] 495\t\t\t\n      SWAP2 \t\t\t\n      SWAP1 \t\t\t\n      PUSH [tag] 412\t\t\t\n      JUMP [in]\t\t\t\n    tag 495\t\t\t\n      JUMPDEST \t\t\t\n      SWAP1 \t\t\t\n      POP \t\t\t\n      PUSH 0\t\t\t\n      DUP4 \t\t\t\n      PUSH [tag] 496\t\t\t\n      PUSH DE0B6B3A7640000\t\t\t * @\n      DUP5 \t\t\t\n      PUSH [tag] 497\t\t\t\n      JUMP [in]\t\t\t\n    tag 496\t\t\t\n      JUMPDEST \t\t\t\n      PUSH [tag] 498\t\t\t\n      SWAP2 \t\t\t\n      SWAP1 \t\t\t\n      PUSH [tag] 499\t\t\t\n      JUMP [in]\t\t\t\n    tag 498\t\t\t\n      JUMPDEST \t\t\t\n      SWAP6 \t\t\t\n      SWAP5 \t\t\t\n      POP \t\t\t\n      POP \t\t\t\n      POP \t\t\t\n      POP \t\t\t\n      POP \t\t\t\n      JUMP [out]\t\t\t\n    tag 492\t\t\t\n      JUMPDEST \t\t\t\n      POP \t\t\t\n      SWAP1 \t\t\t\n      JUMP [out]\t\t\t\n    tag 314\t\t\t\n      JUMPDEST \t\t\t\n      PUSH 5\t\t\t\n      SLOAD \t\t\t\n      PUSH 40\t\t\t\n      MLOAD \t\t\t\n      PUSH 17B9B84B\t\t\t\n      PUSH E3\t\t\t\n      SHL \t\t\t\n      DUP2 \t\t\t\n      MSTORE \t\t\t\n      ADDRESS \t\t\t\n      PUSH 4\t\t\t\n      DUP3 \t\t\t\n      ADD \t\t\t\n      MSTORE \t\t\t\n      PUSH 1\t\t\t\n      PUSH 1\t\t\t\n      PUSH A0\t\t\t\n      SHL \t\t\t\n      SUB \t\t\t\n      DUP6 \t\t\t\n      DUP2 \t\t\t\n      AND \t\t\t\n      PUSH 24\t\t\t\n      DUP4 \t\t\t\n      ADD \t\t\t\n      MSTORE \t\t\t\n      DUP5 \t\t\t\n      DUP2 \t\t\t\n      AND \t\t\t\n      PUSH 44\t\t\t\n      DUP4 \t\t\t\n      ADD \t\t\t\n      MSTORE \t\t\t\n      PUSH 64\t\t\t\n      DUP3 \t\t\t\n      ADD \t\t\t\n      DUP5 \t\t\t\n      SWAP1 \t\t\t\n      MSTORE \t\t\t\n      PUSH 0\t\t\t\n      SWAP3 \t\t\t\n      DUP4 \t\t\t\n      SWAP3 \t\t\t\n      SWAP2 \t\t\t\n      AND \t\t\t\n      SWAP1 \t\t\t\n      PUSH BDCDC258\t\t\t\n      SWAP1 \t\t\t\n      PUSH 84\t\t\t\n      ADD \t\t\t\n      PUSH 20\t\t\t\n      PUSH 40\t\t\t\n      MLOAD \t\t\t\n      DUP1 \t\t\t\n      DUP4 \t\t\t\n      SUB \t\t\t\n      DUP2 \t\t\t\n      PUSH 0\t\t\t\n      DUP8 \t\t\t\n      GAS \t\t\t\n      CALL \t\t\t\n      ISZERO \t\t\t\n      DUP1 \t\t\t\n      ISZERO \t\t\t\n      PUSH [tag] 504\t\t\t\n      JUMPI \t\t\t\n      RETURNDATASIZE \t\t\t\n      PUSH 0\t\t\t\n      DUP1 \t\t\t\n      RETURNDATACOPY \t\t\t\n      RETURNDATASIZE \t\t\t\n      PUSH 0\t\t\t\n      REVERT \t\t\t\n    tag 504\t\t\t\n      JUMPDEST \t\t\t\n      POP \t\t\t\n      POP \t\t\t\n      POP \t\t\t\n      POP \t\t\t\n      PUSH 40\t\t\t\n      MLOAD \t\t\t\n      RETURNDATASIZE \t\t\t\n      PUSH 1F\t\t\t\n      NOT \t\t\t\n      PUSH 1F\t\t\t\n      DUP3 \t\t\t\n      ADD \t\t\t\n      AND \t\t\t\n      DUP3 \t\t\t\n      ADD \t\t\t\n      DUP1 \t\t\t\n      PUSH 40\t\t\t\n      MSTORE \t\t\t\n      POP \t\t\t\n      DUP2 \t\t\t\n      ADD \t\t\t\n      SWAP1 \t\t\t\n      PUSH [tag] 505\t\t\t\n      SWAP2 \t\t\t\n      SWAP1 \t\t\t\n      PUSH [tag] 292\t\t\t\n      JUMP [in]\t\t\t\n    tag 505\t\t\t\n      JUMPDEST \t\t\t\n      SWAP1 \t\t\t\n      POP \t\t\t\n      DUP1 \t\t\t\n      ISZERO \t\t\t\n      PUSH [tag] 506\t\t\t\n      JUMPI \t\t\t\n      PUSH 40\t\t\t\n      MLOAD \t\t\t\n      PUSH 89D4277\t\t\t\n      PUSH E1\t\t\t\n      SHL \t\t\t\n      DUP2 \t\t\t\n      MSTORE \t\t\t\n      PUSH 4\t\t\t\n      DUP2 \t\t\t\n      ADD \t\t\t\n      DUP3 \t\t\t\n      SWAP1 \t\t\t\n      MSTORE \t\t\t\n      PUSH 24\t\t\t\\r\\n}\\r\\n\n      ADD \t\t\t\\r\\n}\\r\\n\n      PUSH [tag] 279\t\t\t\n      JUMP \t\t\tsymbol_, decimals_);\\r\\n\\r\\n  ...\n    tag 506\t\t\t\n      JUMPDEST \t\t\t\n      DUP4 \t\t\t\n      PUSH 1\t\t\t\n      PUSH 1\t\t\t\n      PUSH A0\t\t\t\n      SHL \t\t\t\n      SUB \t\t\t\n      AND \t\t\t\n      DUP6 \t\t\t\n      PUSH 1\t\t\t\n      PUSH 1\t\t\t\n      PUSH A0\t\t\t\n      SHL \t\t\t\n      SUB \t\t\t\n      AND \t\t\t\n      EQ \t\t\t\n      ISZERO \t\t\t\n      PUSH [tag] 508\t\t\t\n      JUMPI \t\t\t\n      PUSH 40\t\t\t\n      MLOAD \t\t\t\n      PUSH 8CD22D19\t\t\t\n      PUSH E0\t\t\t\n      SHL \t\t\t\n      DUP2 \t\t\t\n      MSTORE \t\t\t\n      PUSH 4\t\t\t\n      ADD \t\t\t\n      PUSH 40\t\t\t\n      MLOAD \t\t\t\n      DUP1 \t\t\t\n      SWAP2 \t\t\t\n      SUB \t\t\t\n      SWAP1 \t\t\t\n      REVERT \t\t\t\n    tag 508\t\t\t\n      JUMPDEST \t\t\t\n      PUSH 0\t\t\t\n      DUP6 \t\t\t\n      PUSH 1\t\t\t\n      PUSH 1\t\t\t\n      PUSH A0\t\t\t\n      SHL \t\t\t\n      SUB \t\t\t\n      AND \t\t\t\n      DUP8 \t\t\t\n      PUSH 1\t\t\t\n      PUSH 1\t\t\t\n      PUSH A0\t\t\t\n      SHL \t\t\t\n      SUB \t\t\t\n      AND \t\t\t\n      EQ \t\t\t\n      ISZERO \t\t\t\n      PUSH [tag] 509\t\t\t\n      JUMPI \t\t\t\n      POP \t\t\t\n      PUSH 0\t\t\t\n      NOT \t\t\t\n      PUSH [tag] 510\t\t\t\n      JUMP \t\t\t\n    tag 509\t\t\t\n      JUMPDEST \t\t\t\n      POP \t\t\t\n      PUSH 1\t\t\t\n      PUSH 1\t\t\t\n      PUSH A0\t\t\t\n      SHL \t\t\t\n      SUB \t\t\t\n      DUP1 \t\t\t\n      DUP7 \t\t\t\n      AND \t\t\t\n      PUSH 0\t\t\t\n      SWAP1 \t\t\t\n      DUP2 \t\t\t\n      MSTORE \t\t\t\n      PUSH F\t\t\t\n      PUSH 20\t\t\t\n      SWAP1 \t\t\t\n      DUP2 \t\t\t\n      MSTORE \t\t\t\n      PUSH 40\t\t\t\n      DUP1 \t\t\t\n      DUP4 \t\t\t\n      KECCAK256 \t\t\t\n      SWAP4 \t\t\t\n      DUP11 \t\t\t\n      AND \t\t\t\n      DUP4 \t\t\t\n      MSTORE \t\t\t\n      SWAP3 \t\t\t\n      SWAP1 \t\t\t\n      MSTORE \t\t\t\n      KECCAK256 \t\t\t\n      SLOAD \t\t\t\n    tag 510\t\t\t\n      JUMPDEST \t\t\t\n      PUSH 0\t\t\t\n      PUSH [tag] 511\t\t\t\n      DUP6 \t\t\t\n      DUP4 \t\t\t\n      PUSH [tag] 412\t\t\t\n      JUMP [in]\t\t\t\n    tag 511\t\t\t\n      JUMPDEST \t\t\t\n      PUSH 1\t\t\t\n      PUSH 1\t\t\t\n      PUSH A0\t\t\t\n      SHL \t\t\t\n      SUB \t\t\t\n      DUP9 \t\t\t\n      AND \t\t\t\n      PUSH 0\t\t\t\n      SWAP1 \t\t\t\n      DUP2 \t\t\t\n      MSTORE \t\t\t\n      PUSH E\t\t\t\n      PUSH 20\t\t\t\n      MSTORE \t\t\t\n      PUSH 40\t\t\t\n      DUP2 \t\t\t\n      KECCAK256 \t\t\t\n      SLOAD \t\t\t\n      SWAP2 \t\t\t\n      SWAP3 \t\t\t\n      POP \t\t\t\n      SWAP1 \t\t\t\n      PUSH [tag] 512\t\t\t\n      SWAP1 \t\t\t\n      DUP8 \t\t\t\n      SWAP1 \t\t\t\n      PUSH [tag] 412\t\t\t\n      JUMP [in]\t\t\t\n    tag 512\t\t\t\n      JUMPDEST \t\t\t\n      PUSH 1\t\t\t\n      PUSH 1\t\t\t\n      PUSH A0\t\t\t\n      SHL \t\t\t\n      SUB \t\t\t\n      DUP9 \t\t\t\n      AND \t\t\t\n      PUSH 0\t\t\t\n      SWAP1 \t\t\t\n      DUP2 \t\t\t\n      MSTORE \t\t\t\n      PUSH E\t\t\t\n      PUSH 20\t\t\t\n      MSTORE \t\t\t\n      PUSH 40\t\t\t\n      DUP2 \t\t\t\n      KECCAK256 \t\t\t\n      SLOAD \t\t\t\n      SWAP2 \t\t\t\n      SWAP3 \t\t\t\n      POP \t\t\t\n      SWAP1 \t\t\t\n      PUSH [tag] 513\t\t\t\n      SWAP1 \t\t\t\n      DUP9 \t\t\t\n      SWAP1 \t\t\t\n      PUSH [tag] 417\t\t\t\n      JUMP [in]\t\t\t\n    tag 513\t\t\t\n      JUMPDEST \t\t\t\n      PUSH 1\t\t\t\n      PUSH 1\t\t\t\n      PUSH A0\t\t\t\n      SHL \t\t\t\n      SUB \t\t\t\n      DUP1 \t\t\t\n      DUP12 \t\t\t\n      AND \t\t\t\n      PUSH 0\t\t\t\n      SWAP1 \t\t\t\n      DUP2 \t\t\t\n      MSTORE \t\t\t\n      PUSH E\t\t\t\n      PUSH 20\t\t\t\n      MSTORE \t\t\t\n      PUSH 40\t\t\t\n      DUP1 \t\t\t\n      DUP3 \t\t\t\n      KECCAK256 \t\t\t\n      DUP7 \t\t\t\n      SWAP1 \t\t\t\n      SSTORE \t\t\t\n      SWAP2 \t\t\t\n      DUP12 \t\t\t\n      AND \t\t\t\n      DUP2 \t\t\t\n      MSTORE \t\t\t\n      KECCAK256 \t\t\t\n      DUP2 \t\t\t\n      SWAP1 \t\t\t\n      SSTORE \t\t\t\n      SWAP1 \t\t\t\n      POP \t\t\t\n      PUSH 0\t\t\t\n      NOT \t\t\t\n      DUP5 \t\t\t\n      EQ \t\t\t\n      PUSH [tag] 514\t\t\t\n      JUMPI \t\t\t\n      PUSH 1\t\t\t\n      PUSH 1\t\t\t\n      PUSH A0\t\t\t\n      SHL \t\t\t\n      SUB \t\t\t\n      DUP1 \t\t\t\n      DUP11 \t\t\t\n      AND \t\t\t\n      PUSH 0\t\t\t\n      SWAP1 \t\t\t\n      DUP2 \t\t\t\n      MSTORE \t\t\t\n      PUSH F\t\t\t\n      PUSH 20\t\t\t\n      SWAP1 \t\t\t\n      DUP2 \t\t\t\n      MSTORE \t\t\t\n      PUSH 40\t\t\t\n      DUP1 \t\t\t\n      DUP4 \t\t\t\n      KECCAK256 \t\t\t\n      SWAP4 \t\t\t\n      DUP15 \t\t\t\n      AND \t\t\t\n      DUP4 \t\t\t\n      MSTORE \t\t\t\n      SWAP3 \t\t\t\n      SWAP1 \t\t\t\n      MSTORE \t\t\t\n      KECCAK256 \t\t\t\n      DUP4 \t\t\t\n      SWAP1 \t\t\t\n      SSTORE \t\t\t\n    tag 514\t\t\t\n      JUMPDEST \t\t\t\n      DUP8 \t\t\t\n      PUSH 1\t\t\t\n      PUSH 1\t\t\t\n      PUSH A0\t\t\t\n      SHL \t\t\t\n      SUB \t\t\t\n      AND \t\t\t\n      DUP10 \t\t\t\n      PUSH 1\t\t\t\n      PUSH 1\t\t\t\n      PUSH A0\t\t\t\n      SHL \t\t\t\n      SUB \t\t\t\n      AND \t\t\t\n      PUSH 0\t\t\t\n      DUP1 \t\t\t\n      MLOAD \t\t\t\n      PUSH 20\t\t\t\n      PUSH data ADA389E1FC24A8587C776340EFB91B36E675792AB631816100D55DF0B5CF3CBC\t\t\t\n      DUP4 \t\t\t\n      CODECOPY \t\t\t\n      DUP2 \t\t\t\n      MLOAD \t\t\t\n      SWAP2 \t\t\t\n      MSTORE \t\t\t\n      DUP10 \t\t\t\n      PUSH 40\t\t\t\n      MLOAD \t\t\t\n      PUSH [tag] 515\t\t\t\n      SWAP2 \t\t\t\n      DUP2 \t\t\t\n      MSTORE \t\t\t\n      PUSH 20\t\t\t\n      ADD \t\t\t\\r\\n}\\r\\n\n      SWAP1 \t\t\t\\r\\n}\\r\\n\n      JUMP \t\t\tsymbol_, decimals_);\\r\\n\\r\\n  ...\n    tag 515\t\t\t\n      JUMPDEST \t\t\t\n      PUSH 40\t\t\t\n      MLOAD \t\t\t\n      DUP1 \t\t\t\n      SWAP2 \t\t\t\n      SUB \t\t\t\n      SWAP1 \t\t\t\n      LOG3 \t\t\t\n      POP \t\t\t\n      PUSH 0\t\t\t\n      SWAP10 \t\t\t\n      SWAP9 \t\t\t\n      POP \t\t\t\n      POP \t\t\t\n      POP \t\t\t\n      POP \t\t\t\n      POP \t\t\t\n      POP \t\t\t\n      POP \t\t\t\n      POP \t\t\t\n      POP \t\t\t\n      JUMP [out]\t\t\t\n    tag 317\t\t\t\n      JUMPDEST \t\t\t\n      PUSH 0\t\t\t\n      SLOAD \t\t\t\n      PUSH FF\t\t\t\n      AND \t\t\t\n      PUSH [tag] 517\t\t\t\n      JUMPI \t\t\t\n      PUSH 40\t\t\t\n      MLOAD \t\t\t\n      PUSH 461BCD\t\t\t\n      PUSH E5\t\t\t\n      SHL \t\t\t\n      DUP2 \t\t\t\n      MSTORE \t\t\t\n      PUSH 4\t\t\t\n      ADD \t\t\t\n      PUSH [tag] 279\t\t\t\n      SWAP1 \t\t\t\n      PUSH [tag] 280\t\t\t\n      JUMP [in]\t\t\t\n    tag 517\t\t\t\n      JUMPDEST \t\t\t\n      PUSH 0\t\t\t\n      DUP1 \t\t\t\n      SLOAD \t\t\t\n      PUSH FF\t\t\t\n      NOT \t\t\t\n      AND \t\t\t\n      SWAP1 \t\t\t\n      SSTORE \t\t\t\n      PUSH [tag] 520\t\t\t\n      PUSH [tag] 194\t\t\t\n      JUMP [in]\t\t\t\n    tag 520\t\t\t\n      JUMPDEST \t\t\t\n      POP \t\t\t\n      PUSH [tag] 521\t\t\t\n      CALLER \t\t\t\n      DUP4 \t\t\t\n      DUP4 \t\t\t\n      PUSH [tag] 489\t\t\t\n      JUMP [in]\t\t\t\n    tag 521\t\t\t\n      JUMPDEST \t\t\t\n      POP \t\t\t\n      POP \t\t\t\n      PUSH 0\t\t\t\n      DUP1 \t\t\t\n      SLOAD \t\t\t\n      PUSH FF\t\t\t\n      NOT \t\t\t\n      AND \t\t\t\n      PUSH 1\t\t\t\n      OR \t\t\t\n      SWAP1 \t\t\t\n      SSTORE \t\t\t\n      POP \t\t\t\n      JUMP [out]\t\t\t\n    tag 321\t\t\ts payable admin_) {\\r\\n       ...\n      JUMPDEST \t\t\ts payable admin_) {\\r\\n       ...\n      PUSH 0\t\t\tliza\n      DUP1 \t\t\t admin = payable(m\n      PUSH [tag] 523\t\t\tsender);\\r\\n\\r\\n   \n      DUP5 \t\t\tr\n      DUP5 \t\t\t\\r\\n\\r\\n  \n      PUSH [tag] 414\t\t\tsend\n      JUMP [in]\t\t\tsender);\\r\\n\\r\\n   \n    tag 523\t\t\tsender);\\r\\n\\r\\n   \n      JUMPDEST \t\t\tsender);\\r\\n\\r\\n   \n      SWAP1 \t\t\t admin = payable(msg.sender);\\...\n      POP \t\t\t admin = payable(msg.sender);\\...\n      PUSH [tag] 524\t\t\t the market\\r\\n    \n      DUP2 \t\t\tet\\r\\n   \n      PUSH [tag] 525\t\t\t the mar\n      JUMP [in]\t\t\t the market\\r\\n    \n    tag 524\t\t\t the market\\r\\n    \n      JUMPDEST \t\t\t the market\\r\\n    \n      SWAP5 \t\t\ttialize the market\\r\\n    \n      SWAP4 \t\t\ts payable admin_) {\\r\\n       ...\n      POP \t\t\t\n      POP \t\t\t\n      POP \t\t\t\n      POP \t\t\t\n      JUMP [out]\t\t\ts payable admin_) {\\r\\n       ...\n    tag 324\t\t\t\n      JUMPDEST \t\t\t\n      PUSH 11\t\t\t\n      SLOAD \t\t\t\n      PUSH 40\t\t\t\n      MLOAD \t\t\t\n      PUSH 70A08231\t\t\t\n      PUSH E0\t\t\t\n      SHL \t\t\t\n      DUP2 \t\t\t\n      MSTORE \t\t\t\n      ADDRESS \t\t\t\n      PUSH 4\t\t\t\n      DUP3 \t\t\t\n      ADD \t\t\t\n      MSTORE \t\t\t\n      PUSH 0\t\t\t\n      SWAP2 \t\t\t\n      PUSH 1\t\t\t\n      PUSH 1\t\t\t\n      PUSH A0\t\t\t\n      SHL \t\t\t\n      SUB \t\t\t\n      AND \t\t\t\n      SWAP1 \t\t\t\n      DUP2 \t\t\t\n      SWAP1 \t\t\t\n      PUSH 70A08231\t\t\t\n      SWAP1 \t\t\t\n      PUSH 24\t\t\t\n      ADD \t\t\t\n      PUSH 20\t\t\t\n      PUSH 40\t\t\t\n      MLOAD \t\t\t\n      DUP1 \t\t\t\n      DUP4 \t\t\t\n      SUB \t\t\t\n      DUP2 \t\t\t\n      DUP7 \t\t\t\n      GAS \t\t\t\n      STATICCALL \t\t\t\n      ISZERO \t\t\t\n      DUP1 \t\t\t\n      ISZERO \t\t\t\n      PUSH [tag] 529\t\t\t\n      JUMPI \t\t\t\n      RETURNDATASIZE \t\t\t\n      PUSH 0\t\t\t\n      DUP1 \t\t\t\n      RETURNDATACOPY \t\t\t\n      RETURNDATASIZE \t\t\t\n      PUSH 0\t\t\t\n      REVERT \t\t\t\n    tag 529\t\t\t\n      JUMPDEST \t\t\t\n      POP \t\t\t\n      POP \t\t\t\n      POP \t\t\t\n      POP \t\t\t\n      PUSH 40\t\t\t\n      MLOAD \t\t\t\n      RETURNDATASIZE \t\t\t\n      PUSH 1F\t\t\t\n      NOT \t\t\t\n      PUSH 1F\t\t\t\n      DUP3 \t\t\t\n      ADD \t\t\t\n      AND \t\t\t\n      DUP3 \t\t\t\n      ADD \t\t\t\n      DUP1 \t\t\t\n      PUSH 40\t\t\t\n      MSTORE \t\t\t\n      POP \t\t\t\n      DUP2 \t\t\t\n      ADD \t\t\t\n      SWAP1 \t\t\t\n      PUSH [tag] 530\t\t\t\n      SWAP2 \t\t\t\n      SWAP1 \t\t\t\n      PUSH [tag] 292\t\t\t\n      JUMP [in]\t\t\t\n    tag 530\t\t\t\n      JUMPDEST \t\t\t\n      SWAP2 \t\t\t\n      POP \t\t\t\n      POP \t\t\t\n      SWAP1 \t\t\t\n      JUMP [out]\t\t\t\n    tag 327\t\t\t\n      JUMPDEST \t\t\t\n      PUSH 0\t\t\t\n      DUP1 \t\t\t\n      SLOAD \t\t\t\n      PUSH FF\t\t\t\n      AND \t\t\t\n      PUSH [tag] 532\t\t\t\n      JUMPI \t\t\t\n      PUSH 40\t\t\t\n      MLOAD \t\t\t\n      PUSH 461BCD\t\t\t\n      PUSH E5\t\t\t\n      SHL \t\t\t\n      DUP2 \t\t\t\n      MSTORE \t\t\t\n      PUSH 4\t\t\t\n      ADD \t\t\t\n      PUSH [tag] 279\t\t\t\n      SWAP1 \t\t\t\n      PUSH [tag] 280\t\t\t\n      JUMP [in]\t\t\t\n    tag 532\t\t\t\n      JUMPDEST \t\t\t\n      PUSH 0\t\t\t\n      DUP1 \t\t\t\n      SLOAD \t\t\t\n      PUSH FF\t\t\t\n      NOT \t\t\t\n      AND \t\t\t\n      SWAP1 \t\t\t\n      SSTORE \t\t\t\n      PUSH [tag] 535\t\t\t\n      PUSH [tag] 194\t\t\t\n      JUMP [in]\t\t\t\n    tag 535\t\t\t\n      JUMPDEST \t\t\t\n      POP \t\t\t\n      PUSH [tag] 536\t\t\t\n      DUP3 \t\t\t\n      PUSH [tag] 537\t\t\t\n      JUMP [in]\t\t\t\n    tag 536\t\t\t\n      JUMPDEST \t\t\t\n      POP \t\t\t\n      POP \t\t\t\n      PUSH 0\t\t\t\n      SWAP1 \t\t\t\n      POP \t\t\t\n      PUSH 0\t\t\t\n      DUP1 \t\t\t\n      SLOAD \t\t\t\n      PUSH FF\t\t\t\n      NOT \t\t\t\n      AND \t\t\t\n      PUSH 1\t\t\t\n      OR \t\t\t\n      SWAP1 \t\t\t\n      SSTORE \t\t\t\n      SWAP2 \t\t\t\n      SWAP1 \t\t\t\n      POP \t\t\t\n      JUMP [out]\t\t\t\n    tag 345\t\t\t\n      JUMPDEST \t\t\t\n      PUSH 3\t\t\t\n      SLOAD \t\t\t\n      PUSH 0\t\t\t\n      SWAP1 \t\t\t\n      DUP2 \t\t\t\n      SWAP1 \t\t\t\n      PUSH 100\t\t\t\n      SWAP1 \t\t\t\n      DIV \t\t\t\n      PUSH 1\t\t\t\n      PUSH 1\t\t\t\n      PUSH A0\t\t\t\n      SHL \t\t\t\n      SUB \t\t\t\n      AND \t\t\t\n      CALLER \t\t\t\n      EQ \t\t\t\n      PUSH [tag] 539\t\t\t\n      JUMPI \t\t\t\n      PUSH 40\t\t\t\n      MLOAD \t\t\t\n      PUSH F7E5E6D\t\t\t\n      PUSH E4\t\t\t\n      SHL \t\t\t\n      DUP2 \t\t\t\n      MSTORE \t\t\t\n      PUSH 4\t\t\t\n      ADD \t\t\t\n      PUSH 40\t\t\t\n      MLOAD \t\t\t\n      DUP1 \t\t\t\n      SWAP2 \t\t\t\n      SUB \t\t\t\n      SWAP1 \t\t\t\n      REVERT \t\t\t\n    tag 539\t\t\t\n      JUMPDEST \t\t\t\n      TIMESTAMP \t\t\t\n      PUSH 9\t\t\t\n      SLOAD \t\t\t\n      EQ \t\t\t\n      PUSH [tag] 541\t\t\t\n      JUMPI \t\t\t\n      PUSH 40\t\t\t\n      MLOAD \t\t\t\n      PUSH DFF50CB\t\t\t\n      PUSH E4\t\t\t\n      SHL \t\t\t\n      DUP2 \t\t\t\n      MSTORE \t\t\t\n      PUSH 4\t\t\t\n      ADD \t\t\t\n      PUSH 40\t\t\t\n      MLOAD \t\t\t\n      DUP1 \t\t\t\n      SWAP2 \t\t\t\n      SUB \t\t\t\n      SWAP1 \t\t\t\n      REVERT \t\t\t\n    tag 541\t\t\t\n      JUMPDEST \t\t\t\n      DUP3 \t\t\t\n      PUSH [tag] 542\t\t\t\n      PUSH [tag] 324\t\t\t\n      JUMP [in]\t\t\t\n    tag 542\t\t\t\n      JUMPDEST \t\t\t\n      LT \t\t\t\n      ISZERO \t\t\t\n      PUSH [tag] 543\t\t\t\n      JUMPI \t\t\t\n      PUSH 40\t\t\t\n      MLOAD \t\t\t\n      PUSH 3345E999\t\t\t\n      PUSH E0\t\t\t\n      SHL \t\t\t\n      DUP2 \t\t\t\n      MSTORE \t\t\t\n      PUSH 4\t\t\t\n      ADD \t\t\t\n      PUSH 40\t\t\t\n      MLOAD \t\t\t\n      DUP1 \t\t\t\n      SWAP2 \t\t\t\n      SUB \t\t\t\n      SWAP1 \t\t\t\n      REVERT \t\t\t\n    tag 543\t\t\t\n      JUMPDEST \t\t\t\n      PUSH C\t\t\t\n      SLOAD \t\t\t\n      DUP4 \t\t\t\n      GT \t\t\t\n      ISZERO \t\t\t\n      PUSH [tag] 544\t\t\t\n      JUMPI \t\t\t\n      PUSH 40\t\t\t\n      MLOAD \t\t\t\n      PUSH 78D29805\t\t\t\n      PUSH E1\t\t\t\n      SHL \t\t\t\n      DUP2 \t\t\t\n      MSTORE \t\t\t\n      PUSH 4\t\t\t\n      ADD \t\t\t\n      PUSH 40\t\t\t\n      MLOAD \t\t\t\n      DUP1 \t\t\t\n      SWAP2 \t\t\t\n      SUB \t\t\t\n      SWAP1 \t\t\t\n      REVERT \t\t\t\n    tag 544\t\t\t\n      JUMPDEST \t\t\t\n      DUP3 \t\t\t\n      PUSH C\t\t\t\n      SLOAD \t\t\t\n      PUSH [tag] 545\t\t\t\n      SWAP2 \t\t\t\n      SWAP1 \t\t\t\n      PUSH [tag] 412\t\t\t\n      JUMP [in]\t\t\t\n    tag 545\t\t\t\n      JUMPDEST \t\t\t\n      PUSH C\t\t\t\n      DUP2 \t\t\t\n      SWAP1 \t\t\t\n      SSTORE \t\t\t\n      PUSH 3\t\t\t\n      SLOAD \t\t\t\n      SWAP1 \t\t\t\n      SWAP2 \t\t\t\n      POP \t\t\t\n      PUSH [tag] 546\t\t\t\n      SWAP1 \t\t\t\n      PUSH 100\t\t\t\n      SWAP1 \t\t\t\n      DIV \t\t\t\n      PUSH 1\t\t\t\n      PUSH 1\t\t\t\n      PUSH A0\t\t\t\n      SHL \t\t\t\n      SUB \t\t\t\n      AND \t\t\t\n      DUP5 \t\t\t\n      PUSH [tag] 547\t\t\t\n      JUMP [in]\t\t\t\n    tag 546\t\t\t\n      JUMPDEST \t\t\t\n      PUSH 3BAD0C59CF2F06E7314077049F48A93578CD16F5EF92329F1DAB1420A99C177E\t\t\t\n      PUSH 3\t\t\t\n      PUSH 1\t\t\t\n      SWAP1 \t\t\t\n      SLOAD \t\t\t\n      SWAP1 \t\t\t\n      PUSH 100\t\t\t\n      EXP \t\t\t\n      SWAP1 \t\t\t\n      DIV \t\t\t\n      PUSH 1\t\t\t\n      PUSH 1\t\t\t\n      PUSH A0\t\t\t\n      SHL \t\t\t\n      SUB \t\t\t\n      AND \t\t\t\n      DUP5 \t\t\t\n      DUP4 \t\t\t\n      PUSH 40\t\t\t\n      MLOAD \t\t\t\n      PUSH [tag] 337\t\t\t\n      SWAP4 \t\t\t\n      SWAP3 \t\t\t\n      SWAP2 \t\t\t\n      SWAP1 \t\t\t\n      PUSH [tag] 549\t\t\t\n      JUMP [in]\t\t\t\n    tag 362\t\t\t\n      JUMPDEST \t\t\t\n      PUSH 0\t\t\t\n      SLOAD \t\t\t\n      PUSH FF\t\t\t\n      AND \t\t\t\n      PUSH [tag] 551\t\t\t\n      JUMPI \t\t\t\n      PUSH 40\t\t\t\n      MLOAD \t\t\t\n      PUSH 461BCD\t\t\t\n      PUSH E5\t\t\t\n      SHL \t\t\t\n      DUP2 \t\t\t\n      MSTORE \t\t\t\n      PUSH 4\t\t\t\n      ADD \t\t\t\n      PUSH [tag] 279\t\t\t\n      SWAP1 \t\t\t\n      PUSH [tag] 280\t\t\t\n      JUMP [in]\t\t\t\n    tag 551\t\t\t\n      JUMPDEST \t\t\t\n      PUSH 0\t\t\t\n      DUP1 \t\t\t\n      SLOAD \t\t\t\n      PUSH FF\t\t\t\n      NOT \t\t\t\n      AND \t\t\t\n      SWAP1 \t\t\t\n      SSTORE \t\t\t\n      PUSH [tag] 554\t\t\t\n      PUSH [tag] 194\t\t\t\n      JUMP [in]\t\t\t\n    tag 554\t\t\t\n      JUMPDEST \t\t\t\n      POP \t\t\t\n      PUSH [tag] 555\t\t\t\n      CALLER \t\t\t\n      PUSH 0\t\t\t\n      DUP4 \t\t\t\n      PUSH [tag] 556\t\t\t\n      JUMP [in]\t\t\t\n    tag 555\t\t\t\n      JUMPDEST \t\t\t\n      POP \t\t\t\n      PUSH 0\t\t\t\n      DUP1 \t\t\t\n      SLOAD \t\t\t\n      PUSH FF\t\t\t\n      NOT \t\t\t\n      AND \t\t\t\n      PUSH 1\t\t\t\n      OR \t\t\t\n      SWAP1 \t\t\t\n      SSTORE \t\t\t\n      JUMP [out]\t\t\t\n    tag 370\t\t\t\n      JUMPDEST \t\t\t\n      PUSH 1\t\t\t\n      PUSH 1\t\t\t\n      PUSH A0\t\t\t\n      SHL \t\t\t\n      SUB \t\t\t\n      DUP2 \t\t\t\n      AND \t\t\t\n      PUSH 0\t\t\t\n      SWAP1 \t\t\t\n      DUP2 \t\t\t\n      MSTORE \t\t\t\n      PUSH 10\t\t\t\n      PUSH 20\t\t\t\n      MSTORE \t\t\t\n      PUSH 40\t\t\t\n      DUP2 \t\t\t\n      KECCAK256 \t\t\t\n      DUP1 \t\t\t\n      SLOAD \t\t\t\n      PUSH [tag] 558\t\t\t\n      JUMPI \t\t\t\n      POP \t\t\t\n      PUSH 0\t\t\t\n      SWAP3 \t\t\t\n      SWAP2 \t\t\t\n      POP \t\t\t\n      POP \t\t\t\n      JUMP [out]\t\t\t\n    tag 558\t\t\t\n      JUMPDEST \t\t\t\n      PUSH A\t\t\t\n      SLOAD \t\t\t\n      DUP2 \t\t\t\n      SLOAD \t\t\t\n      PUSH 0\t\t\t\n      SWAP2 \t\t\t\n      PUSH [tag] 559\t\t\t\n      SWAP2 \t\t\t\n      PUSH [tag] 497\t\t\t\n      JUMP [in]\t\t\t\n    tag 559\t\t\t\n      JUMPDEST \t\t\t\n      SWAP1 \t\t\t\n      POP \t\t\t\n      DUP2 \t\t\t\n      PUSH 1\t\t\t\n      ADD \t\t\t\n      SLOAD \t\t\t\n      DUP2 \t\t\t\n      PUSH [tag] 524\t\t\t\n      SWAP2 \t\t\t\n      SWAP1 \t\t\t\n      PUSH [tag] 499\t\t\t\n      JUMP [in]\t\t\t\n    tag 389\t\t\t\n      JUMPDEST \t\t\t\n      PUSH 3\t\t\t\n      SLOAD \t\t\t\n      PUSH 0\t\t\t\n      SWAP1 \t\t\t\n      DUP2 \t\t\t\n      SWAP1 \t\t\t\n      PUSH 100\t\t\t\n      SWAP1 \t\t\t\n      DIV \t\t\t\n      PUSH 1\t\t\t\n      PUSH 1\t\t\t\n      PUSH A0\t\t\t\n      SHL \t\t\t\n      SUB \t\t\t\n      AND \t\t\t\n      CALLER \t\t\t\n      EQ \t\t\t\n      PUSH [tag] 563\t\t\t\n      JUMPI \t\t\t\n      PUSH 40\t\t\t\n      MLOAD \t\t\t\n      PUSH 407FDED5\t\t\t\n      PUSH E0\t\t\t\n      SHL \t\t\t\n      DUP2 \t\t\t\n      MSTORE \t\t\t\n      PUSH 4\t\t\t\n      ADD \t\t\t\n      PUSH 40\t\t\t\n      MLOAD \t\t\t\n      DUP1 \t\t\t\n      SWAP2 \t\t\t\n      SUB \t\t\t\n      SWAP1 \t\t\t\n      REVERT \t\t\t\n    tag 563\t\t\t\n      JUMPDEST \t\t\t\n      TIMESTAMP \t\t\t\n      PUSH 9\t\t\t\n      SLOAD \t\t\t\n      EQ \t\t\t\n      PUSH [tag] 565\t\t\t\n      JUMPI \t\t\t\n      PUSH 40\t\t\t\n      MLOAD \t\t\t\n      PUSH BE2A5CB\t\t\t\n      PUSH E1\t\t\t\n      SHL \t\t\t\n      DUP2 \t\t\t\n      MSTORE \t\t\t\n      PUSH 4\t\t\t\n      ADD \t\t\t\n      PUSH 40\t\t\t\n      MLOAD \t\t\t\n      DUP1 \t\t\t\n      SWAP2 \t\t\t\n      SUB \t\t\t\n      SWAP1 \t\t\t\n      REVERT \t\t\t\n    tag 565\t\t\t\n      JUMPDEST \t\t\t\n      PUSH 6\t\t\t\n      PUSH 0\t\t\t\n      SWAP1 \t\t\t\n      SLOAD \t\t\t\n      SWAP1 \t\t\t\n      PUSH 100\t\t\t\n      EXP \t\t\t\n      SWAP1 \t\t\t\n      DIV \t\t\t\n      PUSH 1\t\t\t\n      PUSH 1\t\t\t\n      PUSH A0\t\t\t\n      SHL \t\t\t\n      SUB \t\t\t\n      AND \t\t\t\n      SWAP1 \t\t\t\n      POP \t\t\t\n      DUP3 \t\t\t\n      PUSH 1\t\t\t\n      PUSH 1\t\t\t\n      PUSH A0\t\t\t\n      SHL \t\t\t\n      SUB \t\t\t\n      AND \t\t\t\n      PUSH 2191F92A\t\t\t\n      PUSH 40\t\t\t\n      MLOAD \t\t\t\n      DUP2 \t\t\t\n      PUSH FFFFFFFF\t\t\t\n      AND \t\t\t\n      PUSH E0\t\t\t\n      SHL \t\t\t\n      DUP2 \t\t\t\n      MSTORE \t\t\t\n      PUSH 4\t\t\t\n      ADD \t\t\t\n      PUSH 20\t\t\t\n      PUSH 40\t\t\t\n      MLOAD \t\t\t\n      DUP1 \t\t\t\n      DUP4 \t\t\t\n      SUB \t\t\t\n      DUP2 \t\t\t\n      DUP7 \t\t\t\n      GAS \t\t\t\n      STATICCALL \t\t\t\n      ISZERO \t\t\t\n      DUP1 \t\t\t\n      ISZERO \t\t\t\n      PUSH [tag] 567\t\t\t\n      JUMPI \t\t\t\n      RETURNDATASIZE \t\t\t\n      PUSH 0\t\t\t\n      DUP1 \t\t\t\n      RETURNDATACOPY \t\t\t\n      RETURNDATASIZE \t\t\t\n      PUSH 0\t\t\t\n      REVERT \t\t\t\n    tag 567\t\t\t\n      JUMPDEST \t\t\t\n      POP \t\t\t\n      POP \t\t\t\n      POP \t\t\t\n      POP \t\t\t\n      PUSH 40\t\t\t\n      MLOAD \t\t\t\n      RETURNDATASIZE \t\t\t\n      PUSH 1F\t\t\t\n      NOT \t\t\t\n      PUSH 1F\t\t\t\n      DUP3 \t\t\t\n      ADD \t\t\t\n      AND \t\t\t\n      DUP3 \t\t\t\n      ADD \t\t\t\n      DUP1 \t\t\t\n      PUSH 40\t\t\t\n      MSTORE \t\t\t\n      POP \t\t\t\n      DUP2 \t\t\t\n      ADD \t\t\t\n      SWAP1 \t\t\t\n      PUSH [tag] 568\t\t\t\n      SWAP2 \t\t\t\n      SWAP1 \t\t\t\n      PUSH [tag] 333\t\t\t\n      JUMP [in]\t\t\t\n    tag 568\t\t\t\n      JUMPDEST \t\t\t\n      PUSH [tag] 569\t\t\t\n      JUMPI \t\t\t\n      PUSH 40\t\t\t\n      MLOAD \t\t\t\n      PUSH 461BCD\t\t\t\n      PUSH E5\t\t\t\n      SHL \t\t\t\n      DUP2 \t\t\t\n      MSTORE \t\t\t\n      PUSH 20\t\t\t\n      PUSH 4\t\t\t\n      DUP3 \t\t\t\n      ADD \t\t\t\n      MSTORE \t\t\t\n      PUSH 1C\t\t\t\n      PUSH 24\t\t\t\n      DUP3 \t\t\t\n      ADD \t\t\t\n      MSTORE \t\t\t\n      PUSH 6D61726B6572206D6574686F642072657475726E65642066616C736500000000\t\t\t\n      PUSH 44\t\t\t\n      DUP3 \t\t\t\n      ADD \t\t\t\n      MSTORE \t\t\t\n      PUSH 64\t\t\t\n      ADD \t\t\t\n      PUSH [tag] 279\t\t\t\n      JUMP \t\t\t\n    tag 569\t\t\t\n      JUMPDEST \t\t\t\n      PUSH 6\t\t\t\n      DUP1 \t\t\t\n      SLOAD \t\t\t\n      PUSH 1\t\t\t\n      PUSH 1\t\t\t\n      PUSH A0\t\t\t\n      SHL \t\t\t\n      SUB \t\t\t\n      NOT \t\t\t\n      AND \t\t\t\n      PUSH 1\t\t\t\n      PUSH 1\t\t\t\n      PUSH A0\t\t\t\n      SHL \t\t\t\n      SUB \t\t\t\n      DUP6 \t\t\t\n      DUP2 \t\t\t\n      AND \t\t\t\n      SWAP2 \t\t\t\n      DUP3 \t\t\t\n      OR \t\t\t\n      SWAP1 \t\t\t\n      SWAP3 \t\t\t\n      SSTORE \t\t\t\n      PUSH 40\t\t\t\n      DUP1 \t\t\t\n      MLOAD \t\t\t\n      SWAP3 \t\t\t\n      DUP5 \t\t\t\n      AND \t\t\t\n      DUP4 \t\t\t\n      MSTORE \t\t\t\n      PUSH 20\t\t\t\n      DUP4 \t\t\t\n      ADD \t\t\t\n      SWAP2 \t\t\t\n      SWAP1 \t\t\t\n      SWAP2 \t\t\t\n      MSTORE \t\t\t\n      PUSH EDFFC32E068C7C95DFD4BDFD5C4D939A084D6B11C4199EAC8436ED234D72F926\t\t\t\n      SWAP2 \t\t\t\n      ADD \t\t\t\n      PUSH [tag] 337\t\t\t\n      JUMP \t\t\t\n    tag 398\t\t\t\n      JUMPDEST \t\t\t\n      PUSH 0\t\t\t\n      SLOAD \t\t\t\n      PUSH FF\t\t\t\n      AND \t\t\t\n      PUSH [tag] 574\t\t\t\n      JUMPI \t\t\t\n      PUSH 40\t\t\t\n      MLOAD \t\t\t\n      PUSH 461BCD\t\t\t\n      PUSH E5\t\t\t\n      SHL \t\t\t\n      DUP2 \t\t\t\n      MSTORE \t\t\t\n      PUSH 4\t\t\t\n      ADD \t\t\t\n      PUSH [tag] 279\t\t\t\n      SWAP1 \t\t\t\n      PUSH [tag] 280\t\t\t\n      JUMP [in]\t\t\t\n    tag 574\t\t\t\n      JUMPDEST \t\t\t\n      PUSH 0\t\t\t\n      DUP1 \t\t\t\n      SLOAD \t\t\t\n      PUSH FF\t\t\t\n      NOT \t\t\t\n      AND \t\t\t\n      SWAP1 \t\t\t\n      SSTORE \t\t\t\n      PUSH [tag] 577\t\t\t\n      PUSH [tag] 194\t\t\t\n      JUMP [in]\t\t\t\n    tag 577\t\t\t\n      JUMPDEST \t\t\t\n      POP \t\t\t\n      PUSH [tag] 555\t\t\t\n      CALLER \t\t\t\n      DUP3 \t\t\t\n      PUSH [tag] 579\t\t\t\n      JUMP [in]\t\t\t\n    tag 414\t\t\t\n      JUMPDEST \t\t\t\n      PUSH 40\t\t\t\n      DUP1 \t\t\t\n      MLOAD \t\t\t\n      PUSH 20\t\t\t\n      DUP2 \t\t\t\n      ADD \t\t\t\n      SWAP1 \t\t\t\n      SWAP2 \t\t\t\n      MSTORE \t\t\t\n      PUSH 0\t\t\t\n      DUP2 \t\t\t\n      MSTORE \t\t\t\n      PUSH 40\t\t\t\n      MLOAD \t\t\t\n      DUP1 \t\t\t\n      PUSH 20\t\t\t\n      ADD \t\t\t\n      PUSH 40\t\t\t\n      MSTORE \t\t\t\n      DUP1 \t\t\t\n      PUSH [tag] 583\t\t\t\n      DUP6 \t\t\t\n      PUSH 0\t\t\t\n      ADD \t\t\t\n      MLOAD \t\t\t\n      DUP6 \t\t\t\n      PUSH [tag] 584\t\t\t\n      JUMP [in]\t\t\t\n    tag 583\t\t\t\n      JUMPDEST \t\t\t\n      SWAP1 \t\t\t\n      MSTORE \t\t\t\n      SWAP4 \t\t\t\n      SWAP3 \t\t\t\n      POP \t\t\t\n      POP \t\t\t\n      POP \t\t\t\n      JUMP [out]\t\t\t\n    tag 419\t\t\tn now that initialization is d...\n      JUMPDEST \t\t\tn now that initialization is d...\n      PUSH 0\t\t\t\n      DUP1 \t\t\t\n      PUSH [tag] 586\t\t\t\n      DUP6 \t\t\t\n      DUP6 \t\t\t\n      PUSH [tag] 414\t\t\t\n      JUMP [in]\t\t\t\n    tag 586\t\t\t\n      JUMPDEST \t\t\t\n      SWAP1 \t\t\t\n      POP \t\t\t\n      PUSH [tag] 498\t\t\t\n      PUSH [tag] 588\t\t\t\n      DUP3 \t\t\t\n      PUSH [tag] 525\t\t\t\n      JUMP [in]\t\t\t\n    tag 588\t\t\t\n      JUMPDEST \t\t\t\n      DUP5 \t\t\t\n      PUSH [tag] 589\t\t\t\n      JUMP [in]\t\t\t\n    tag 438\t\t\t\n      JUMPDEST \t\t\t\n      PUSH 5\t\t\t\n      SLOAD \t\t\t\n      PUSH 40\t\t\t\n      MLOAD \t\t\t\n      PUSH D02F7351\t\t\t\n      PUSH E0\t\t\t\n      SHL \t\t\t\n      DUP2 \t\t\t\n      MSTORE \t\t\t\n      ADDRESS \t\t\t\n      PUSH 4\t\t\t\n      DUP3 \t\t\t\n      ADD \t\t\t\n      MSTORE \t\t\t\n      PUSH 1\t\t\t\n      PUSH 1\t\t\t\n      PUSH A0\t\t\t\n      SHL \t\t\t\n      SUB \t\t\t\n      DUP7 \t\t\t\n      DUP2 \t\t\t\n      AND \t\t\t\n      PUSH 24\t\t\t\n      DUP4 \t\t\t\n      ADD \t\t\t\n      MSTORE \t\t\t\n      DUP6 \t\t\t\n      DUP2 \t\t\t\n      AND \t\t\t\n      PUSH 44\t\t\t\n      DUP4 \t\t\t\n      ADD \t\t\t\n      MSTORE \t\t\t\n      DUP5 \t\t\t\n      DUP2 \t\t\t\n      AND \t\t\t\n      PUSH 64\t\t\t\n      DUP4 \t\t\t\n      ADD \t\t\t\n      MSTORE \t\t\t\n      PUSH 84\t\t\t\n      DUP3 \t\t\t\n      ADD \t\t\t\n      DUP5 \t\t\t\n      SWAP1 \t\t\t\n      MSTORE \t\t\t\n      PUSH 0\t\t\t\n      SWAP3 \t\t\t\n      AND \t\t\t\n      SWAP1 \t\t\t\n      PUSH D02F7351\t\t\t\n      SWAP1 \t\t\t\n      PUSH A4\t\t\t\n      ADD \t\t\t\n      PUSH 20\t\t\t\n      PUSH 40\t\t\t\n      MLOAD \t\t\t\n      DUP1 \t\t\t\n      DUP4 \t\t\t\n      SUB \t\t\t\n      DUP2 \t\t\t\n      PUSH 0\t\t\t\n      DUP8 \t\t\t\n      GAS \t\t\t\n      CALL \t\t\t\n      ISZERO \t\t\t\n      DUP1 \t\t\t\n      ISZERO \t\t\t\n      PUSH [tag] 594\t\t\t\n      JUMPI \t\t\t\n      RETURNDATASIZE \t\t\t\n      PUSH 0\t\t\t\n      DUP1 \t\t\t\n      RETURNDATACOPY \t\t\t\n      RETURNDATASIZE \t\t\t\n      PUSH 0\t\t\t\n      REVERT \t\t\t\n    tag 594\t\t\t\n      JUMPDEST \t\t\t\n      POP \t\t\t\n      POP \t\t\t\n      POP \t\t\t\n      POP \t\t\t\n      PUSH 40\t\t\t\n      MLOAD \t\t\t\n      RETURNDATASIZE \t\t\t\n      PUSH 1F\t\t\t\n      NOT \t\t\t\n      PUSH 1F\t\t\t\n      DUP3 \t\t\t\n      ADD \t\t\t\n      AND \t\t\t\n      DUP3 \t\t\t\n      ADD \t\t\t\n      DUP1 \t\t\t\n      PUSH 40\t\t\t\n      MSTORE \t\t\t\n      POP \t\t\t\n      DUP2 \t\t\t\n      ADD \t\t\t\n      SWAP1 \t\t\t\n      PUSH [tag] 595\t\t\t\n      SWAP2 \t\t\t\n      SWAP1 \t\t\t\n      PUSH [tag] 292\t\t\t\n      JUMP [in]\t\t\t\n    tag 595\t\t\t\n      JUMPDEST \t\t\t\n      SWAP1 \t\t\t\n      POP \t\t\t\n      DUP1 \t\t\t\n      ISZERO \t\t\t\n      PUSH [tag] 596\t\t\t\n      JUMPI \t\t\t\n      PUSH 40\t\t\t\n      MLOAD \t\t\t\n      PUSH 63E00E33\t\t\t\n      PUSH E1\t\t\t\n      SHL \t\t\t\n      DUP2 \t\t\t\n      MSTORE \t\t\t\n      PUSH 4\t\t\t\n      DUP2 \t\t\t\n      ADD \t\t\t\n      DUP3 \t\t\t\n      SWAP1 \t\t\t\n      MSTORE \t\t\t\n      PUSH 24\t\t\t\\r\\n}\\r\\n\n      ADD \t\t\t\\r\\n}\\r\\n\n      PUSH [tag] 279\t\t\t\n      JUMP \t\t\tsymbol_, decimals_);\\r\\n\\r\\n  ...\n    tag 596\t\t\t\n      JUMPDEST \t\t\t\n      DUP4 \t\t\t\n      PUSH 1\t\t\t\n      PUSH 1\t\t\t\n      PUSH A0\t\t\t\n      SHL \t\t\t\n      SUB \t\t\t\n      AND \t\t\t\n      DUP4 \t\t\t\n      PUSH 1\t\t\t\n      PUSH 1\t\t\t\n      PUSH A0\t\t\t\n      SHL \t\t\t\n      SUB \t\t\t\n      AND \t\t\t\n      EQ \t\t\t\n      ISZERO \t\t\t\n      PUSH [tag] 598\t\t\t\n      JUMPI \t\t\t\n      PUSH 40\t\t\t\n      MLOAD \t\t\t\n      PUSH 3A946267\t\t\t\n      PUSH E1\t\t\t\n      SHL \t\t\t\n      DUP2 \t\t\t\n      MSTORE \t\t\t\n      PUSH 4\t\t\t\n      ADD \t\t\t\n      PUSH 40\t\t\t\n      MLOAD \t\t\t\n      DUP1 \t\t\t\n      SWAP2 \t\t\t\n      SUB \t\t\t\n      SWAP1 \t\t\t\n      REVERT \t\t\t\n    tag 598\t\t\t\n      JUMPDEST \t\t\t\n      PUSH 0\t\t\t\n      PUSH [tag] 599\t\t\t\n      DUP4 \t\t\t\n      PUSH 40\t\t\t\n      MLOAD \t\t\t\n      DUP1 \t\t\t\n      PUSH 20\t\t\t\n      ADD \t\t\t\n      PUSH 40\t\t\t\n      MSTORE \t\t\t\n      DUP1 \t\t\t\n      PUSH 6379DA05B60000\t\t\t\n      DUP2 \t\t\t\n      MSTORE \t\t\t\n      POP \t\t\t\n      PUSH [tag] 600\t\t\t\n      JUMP [in]\t\t\t\n    tag 599\t\t\t\n      JUMPDEST \t\t\t\n      SWAP1 \t\t\t\n      POP \t\t\t\n      PUSH 0\t\t\t\n      PUSH [tag] 601\t\t\t\n      DUP3 \t\t\t\n      DUP6 \t\t\t\n      PUSH [tag] 412\t\t\t\n      JUMP [in]\t\t\t\n    tag 601\t\t\t\n      JUMPDEST \t\t\t\n      SWAP1 \t\t\t\n      POP \t\t\t\n      PUSH 0\t\t\t\n      PUSH 40\t\t\t\n      MLOAD \t\t\t\n      DUP1 \t\t\t\n      PUSH 20\t\t\t\n      ADD \t\t\t\n      PUSH 40\t\t\t\n      MSTORE \t\t\t\n      DUP1 \t\t\t\n      PUSH [tag] 602\t\t\t\n      PUSH [tag] 286\t\t\t\n      JUMP [in]\t\t\t\n    tag 602\t\t\t\n      JUMPDEST \t\t\t\n      SWAP1 \t\t\t\n      MSTORE \t\t\t\n      SWAP1 \t\t\t\n      POP \t\t\t\n      PUSH 0\t\t\t\n      PUSH [tag] 603\t\t\t\n      DUP3 \t\t\t\n      DUP6 \t\t\t\n      PUSH [tag] 321\t\t\t\n      JUMP [in]\t\t\t\n    tag 603\t\t\t\n      JUMPDEST \t\t\t\n      SWAP1 \t\t\t\n      POP \t\t\t\n      PUSH 0\t\t\t\n      DUP2 \t\t\t\n      PUSH C\t\t\t\n      SLOAD \t\t\t\n      PUSH [tag] 604\t\t\t\n      SWAP2 \t\t\t\n      SWAP1 \t\t\t\n      PUSH [tag] 417\t\t\t\n      JUMP [in]\t\t\t\n    tag 604\t\t\t\n      JUMPDEST \t\t\t\n      PUSH C\t\t\t\n      DUP2 \t\t\t\n      SWAP1 \t\t\t\n      SSTORE \t\t\t\n      PUSH D\t\t\t\n      SLOAD \t\t\t\n      SWAP1 \t\t\t\n      SWAP2 \t\t\t\n      POP \t\t\t\n      PUSH [tag] 605\t\t\t\n      SWAP1 \t\t\t\n      DUP7 \t\t\t\n      SWAP1 \t\t\t\n      PUSH [tag] 412\t\t\t\n      JUMP [in]\t\t\t\n    tag 605\t\t\t\n      JUMPDEST \t\t\t\n      PUSH D\t\t\t\n      SSTORE \t\t\t\n      PUSH 1\t\t\t\n      PUSH 1\t\t\t\n      PUSH A0\t\t\t\n      SHL \t\t\t\n      SUB \t\t\t\n      DUP9 \t\t\t\n      AND \t\t\t\n      PUSH 0\t\t\t\n      SWAP1 \t\t\t\n      DUP2 \t\t\t\n      MSTORE \t\t\t\n      PUSH E\t\t\t\n      PUSH 20\t\t\t\n      MSTORE \t\t\t\n      PUSH 40\t\t\t\n      SWAP1 \t\t\t\n      KECCAK256 \t\t\t\n      SLOAD \t\t\t\n      PUSH [tag] 606\t\t\t\n      SWAP1 \t\t\t\n      DUP9 \t\t\t\n      SWAP1 \t\t\t\n      PUSH [tag] 412\t\t\t\n      JUMP [in]\t\t\t\n    tag 606\t\t\t\n      JUMPDEST \t\t\t\n      PUSH 1\t\t\t\n      PUSH 1\t\t\t\n      PUSH A0\t\t\t\n      SHL \t\t\t\n      SUB \t\t\t\n      DUP1 \t\t\t\n      DUP11 \t\t\t\n      AND \t\t\t\n      PUSH 0\t\t\t\n      SWAP1 \t\t\t\n      DUP2 \t\t\t\n      MSTORE \t\t\t\n      PUSH E\t\t\t\n      PUSH 20\t\t\t\n      MSTORE \t\t\t\n      PUSH 40\t\t\t\n      DUP1 \t\t\t\n      DUP3 \t\t\t\n      KECCAK256 \t\t\t\n      SWAP4 \t\t\t\n      SWAP1 \t\t\t\n      SWAP4 \t\t\t\n      SSTORE \t\t\t\n      SWAP1 \t\t\t\n      DUP12 \t\t\t\n      AND \t\t\t\n      DUP2 \t\t\t\n      MSTORE \t\t\t\n      KECCAK256 \t\t\t\n      SLOAD \t\t\t\n      PUSH [tag] 607\t\t\t\n      SWAP1 \t\t\t\n      DUP6 \t\t\t\n      SWAP1 \t\t\t\n      PUSH [tag] 417\t\t\t\n      JUMP [in]\t\t\t\n    tag 607\t\t\t\n      JUMPDEST \t\t\t\n      PUSH 1\t\t\t\n      PUSH 1\t\t\t\n      PUSH A0\t\t\t\n      SHL \t\t\t\n      SUB \t\t\t\n      DUP1 \t\t\t\n      DUP12 \t\t\t\n      AND \t\t\t\n      PUSH 0\t\t\t\n      DUP2 \t\t\t\n      DUP2 \t\t\t\n      MSTORE \t\t\t\n      PUSH E\t\t\t\n      PUSH 20\t\t\t\n      MSTORE \t\t\t\n      PUSH 40\t\t\t\n      SWAP1 \t\t\t\n      DUP2 \t\t\t\n      SWAP1 \t\t\t\n      KECCAK256 \t\t\t\n      SWAP4 \t\t\t\n      SWAP1 \t\t\t\n      SWAP4 \t\t\t\n      SSTORE \t\t\t\n      SWAP2 \t\t\t\n      MLOAD \t\t\t\n      SWAP1 \t\t\t\n      DUP11 \t\t\t\n      AND \t\t\t\n      SWAP1 \t\t\t\n      PUSH 0\t\t\t\n      DUP1 \t\t\t\n      MLOAD \t\t\t\n      PUSH 20\t\t\t\n      PUSH data ADA389E1FC24A8587C776340EFB91B36E675792AB631816100D55DF0B5CF3CBC\t\t\t\n      DUP4 \t\t\t\n      CODECOPY \t\t\t\n      DUP2 \t\t\t\n      MLOAD \t\t\t\n      SWAP2 \t\t\t\n      MSTORE \t\t\t\n      SWAP1 \t\t\t\n      PUSH [tag] 608\t\t\t\n      SWAP1 \t\t\t\n      DUP9 \t\t\t\n      DUP2 \t\t\t\n      MSTORE \t\t\t\n      PUSH 20\t\t\t\n      ADD \t\t\t\\r\\n}\\r\\n\n      SWAP1 \t\t\t\\r\\n}\\r\\n\n      JUMP \t\t\tsymbol_, decimals_);\\r\\n\\r\\n  ...\n    tag 608\t\t\t\n      JUMPDEST \t\t\t\n      PUSH 40\t\t\t\n      MLOAD \t\t\t\n      DUP1 \t\t\t\n      SWAP2 \t\t\t\n      SUB \t\t\t\n      SWAP1 \t\t\t\n      LOG3 \t\t\t\n      PUSH 40\t\t\t\n      MLOAD \t\t\t\n      DUP6 \t\t\t\n      DUP2 \t\t\t\n      MSTORE \t\t\t\n      ADDRESS \t\t\t\n      SWAP1 \t\t\t\n      PUSH 1\t\t\t\n      PUSH 1\t\t\t\n      PUSH A0\t\t\t\n      SHL \t\t\t\n      SUB \t\t\t\n      DUP11 \t\t\t\n      AND \t\t\t\n      SWAP1 \t\t\t\n      PUSH 0\t\t\t\n      DUP1 \t\t\t\n      MLOAD \t\t\t\n      PUSH 20\t\t\t\n      PUSH data ADA389E1FC24A8587C776340EFB91B36E675792AB631816100D55DF0B5CF3CBC\t\t\t\n      DUP4 \t\t\t\n      CODECOPY \t\t\t\n      DUP2 \t\t\t\n      MLOAD \t\t\t\n      SWAP2 \t\t\t\n      MSTORE \t\t\t\n      SWAP1 \t\t\t\n      PUSH 20\t\t\t\n      ADD \t\t\t\\r\\n}\\r\\n\n      PUSH 40\t\t\t\n      MLOAD \t\t\t\n      DUP1 \t\t\t\n      SWAP2 \t\t\t\n      SUB \t\t\t\n      SWAP1 \t\t\t\n      LOG3 \t\t\t\n      PUSH A91E67C5EA634CD43A12C5A482724B03DE01E85CA68702A53D0C2F45CB7C1DC5\t\t\t\n      ADDRESS \t\t\t\n      DUP4 \t\t\t\n      DUP4 \t\t\t\n      PUSH 40\t\t\t\n      MLOAD \t\t\t\n      PUSH [tag] 610\t\t\t\n      SWAP4 \t\t\t\n      SWAP3 \t\t\t\n      SWAP2 \t\t\t\n      SWAP1 \t\t\t\n      PUSH [tag] 549\t\t\t\n      JUMP [in]\t\t\t\n    tag 610\t\t\t\n      JUMPDEST \t\t\t\n      PUSH 40\t\t\t\n      MLOAD \t\t\t\n      DUP1 \t\t\t\n      SWAP2 \t\t\t\n      SUB \t\t\t\n      SWAP1 \t\t\t\n      LOG1 \t\t\t\n      POP \t\t\t\n      POP \t\t\t\n      POP \t\t\t\n      POP \t\t\t\n      POP \t\t\t\n      POP \t\t\t\n      POP \t\t\t\n      POP \t\t\t\n      POP \t\t\t\n      POP \t\t\t\n      JUMP [out]\t\t\t\n    tag 454\t\t\t\n      JUMPDEST \t\t\t\n      PUSH 0\t\t\t\n      SLOAD \t\t\t\n      PUSH FF\t\t\t\n      AND \t\t\t\n      PUSH [tag] 613\t\t\t\n      JUMPI \t\t\t\n      PUSH 40\t\t\t\n      MLOAD \t\t\t\n      PUSH 461BCD\t\t\t\n      PUSH E5\t\t\t\n      SHL \t\t\t\n      DUP2 \t\t\t\n      MSTORE \t\t\t\n      PUSH 4\t\t\t\n      ADD \t\t\t\n      PUSH [tag] 279\t\t\t\n      SWAP1 \t\t\t\n      PUSH [tag] 280\t\t\t\n      JUMP [in]\t\t\t\n    tag 613\t\t\t\n      JUMPDEST \t\t\t\n      PUSH 0\t\t\t\n      DUP1 \t\t\t\n      SLOAD \t\t\t\n      PUSH FF\t\t\t\n      NOT \t\t\t\n      AND \t\t\t\n      SWAP1 \t\t\t\n      SSTORE \t\t\t\n      PUSH [tag] 616\t\t\t\n      PUSH [tag] 194\t\t\t\n      JUMP [in]\t\t\t\n    tag 616\t\t\t\n      JUMPDEST \t\t\t\n      POP \t\t\t\n      PUSH [tag] 555\t\t\t\n      CALLER \t\t\t\n      DUP3 \t\t\t\n      PUSH [tag] 618\t\t\t\n      JUMP [in]\t\t\t\n    tag 457\t\t\t\n      JUMPDEST \t\t\t\n      PUSH 0\t\t\t\n      SLOAD \t\t\t\n      PUSH FF\t\t\t\n      AND \t\t\t\n      PUSH [tag] 620\t\t\t\n      JUMPI \t\t\t\n      PUSH 40\t\t\t\n      MLOAD \t\t\t\n      PUSH 461BCD\t\t\t\n      PUSH E5\t\t\t\n      SHL \t\t\t\n      DUP2 \t\t\t\n      MSTORE \t\t\t\n      PUSH 4\t\t\t\n      ADD \t\t\t\n      PUSH [tag] 279\t\t\t\n      SWAP1 \t\t\t\n      PUSH [tag] 280\t\t\t\n      JUMP [in]\t\t\t\n    tag 620\t\t\t\n      JUMPDEST \t\t\t\n      PUSH 0\t\t\t\n      DUP1 \t\t\t\n      SLOAD \t\t\t\n      PUSH FF\t\t\t\n      NOT \t\t\t\n      AND \t\t\t\n      SWAP1 \t\t\t\n      SSTORE \t\t\t\n      PUSH [tag] 623\t\t\t\n      PUSH [tag] 194\t\t\t\n      JUMP [in]\t\t\t\n    tag 623\t\t\t\n      JUMPDEST \t\t\t\n      POP \t\t\t\n      PUSH [tag] 555\t\t\t\n      CALLER \t\t\t\n      DUP3 \t\t\t\n      PUSH 0\t\t\t\n      PUSH [tag] 556\t\t\t\n      JUMP [in]\t\t\t\n    tag 469\t\t\t\n      JUMPDEST \t\t\t\n      PUSH 0\t\t\t\n      SLOAD \t\t\t\n      PUSH FF\t\t\t\n      AND \t\t\t\n      PUSH [tag] 626\t\t\t\n      JUMPI \t\t\t\n      PUSH 40\t\t\t\n      MLOAD \t\t\t\n      PUSH 461BCD\t\t\t\n      PUSH E5\t\t\t\n      SHL \t\t\t\n      DUP2 \t\t\t\n      MSTORE \t\t\t\n      PUSH 4\t\t\t\n      ADD \t\t\t\n      PUSH [tag] 279\t\t\t\n      SWAP1 \t\t\t\n      PUSH [tag] 280\t\t\t\n      JUMP [in]\t\t\t\n    tag 626\t\t\t\n      JUMPDEST \t\t\t\n      PUSH 0\t\t\t\n      DUP1 \t\t\t\n      SLOAD \t\t\t\n      PUSH FF\t\t\t\n      NOT \t\t\t\n      AND \t\t\t\n      SWAP1 \t\t\t\n      SSTORE \t\t\t\n      PUSH [tag] 629\t\t\t\n      PUSH [tag] 194\t\t\t\n      JUMP [in]\t\t\t\n    tag 629\t\t\t\n      JUMPDEST \t\t\t\n      POP \t\t\t\n      PUSH 0\t\t\t\n      DUP2 \t\t\t\n      PUSH 1\t\t\t\n      PUSH 1\t\t\t\n      PUSH A0\t\t\t\n      SHL \t\t\t\n      SUB \t\t\t\n      AND \t\t\t\n      PUSH A6AFED95\t\t\t\n      PUSH 40\t\t\t\n      MLOAD \t\t\t\n      DUP2 \t\t\t\n      PUSH FFFFFFFF\t\t\t\n      AND \t\t\t\n      PUSH E0\t\t\t\n      SHL \t\t\t\n      DUP2 \t\t\t\n      MSTORE \t\t\t\n      PUSH 4\t\t\t\n      ADD \t\t\t\n      PUSH 20\t\t\t\n      PUSH 40\t\t\t\n      MLOAD \t\t\t\n      DUP1 \t\t\t\n      DUP4 \t\t\t\n      SUB \t\t\t\n      DUP2 \t\t\t\n      PUSH 0\t\t\t\n      DUP8 \t\t\t\n      GAS \t\t\t\n      CALL \t\t\t\n      ISZERO \t\t\t\n      DUP1 \t\t\t\n      ISZERO \t\t\t\n      PUSH [tag] 631\t\t\t\n      JUMPI \t\t\t\n      RETURNDATASIZE \t\t\t\n      PUSH 0\t\t\t\n      DUP1 \t\t\t\n      RETURNDATACOPY \t\t\t\n      RETURNDATASIZE \t\t\t\n      PUSH 0\t\t\t\n      REVERT \t\t\t\n    tag 631\t\t\t\n      JUMPDEST \t\t\t\n      POP \t\t\t\n      POP \t\t\t\n      POP \t\t\t\n      POP \t\t\t\n      PUSH 40\t\t\t\n      MLOAD \t\t\t\n      RETURNDATASIZE \t\t\t\n      PUSH 1F\t\t\t\n      NOT \t\t\t\n      PUSH 1F\t\t\t\n      DUP3 \t\t\t\n      ADD \t\t\t\n      AND \t\t\t\n      DUP3 \t\t\t\n      ADD \t\t\t\n      DUP1 \t\t\t\n      PUSH 40\t\t\t\n      MSTORE \t\t\t\n      POP \t\t\t\n      DUP2 \t\t\t\n      ADD \t\t\t\n      SWAP1 \t\t\t\n      PUSH [tag] 632\t\t\t\n      SWAP2 \t\t\t\n      SWAP1 \t\t\t\n      PUSH [tag] 292\t\t\t\n      JUMP [in]\t\t\t\n    tag 632\t\t\t\n      JUMPDEST \t\t\t\n      SWAP1 \t\t\t\n      POP \t\t\t\n      DUP1 \t\t\t\n      ISZERO \t\t\t\n      PUSH [tag] 633\t\t\t\n      JUMPI \t\t\t\n      PUSH 40\t\t\t\n      MLOAD \t\t\t\n      PUSH 3EEA49B7\t\t\t\n      PUSH E1\t\t\t\n      SHL \t\t\t\n      DUP2 \t\t\t\n      MSTORE \t\t\t\n      PUSH 4\t\t\t\n      DUP2 \t\t\t\n      ADD \t\t\t\n      DUP3 \t\t\t\n      SWAP1 \t\t\t\n      MSTORE \t\t\t\n      PUSH 24\t\t\t\\r\\n}\\r\\n\n      ADD \t\t\t\\r\\n}\\r\\n\n      PUSH [tag] 279\t\t\t\n      JUMP \t\t\tsymbol_, decimals_);\\r\\n\\r\\n  ...\n    tag 633\t\t\t\n      JUMPDEST \t\t\t\n      PUSH [tag] 635\t\t\t\n      CALLER \t\t\t\n      DUP6 \t\t\t\n      DUP6 \t\t\t\n      DUP6 \t\t\t\n      PUSH [tag] 636\t\t\t\n      JUMP [in]\t\t\t\n    tag 635\t\t\t\n      JUMPDEST \t\t\t\n      POP \t\t\t\n      POP \t\t\t\n      PUSH 0\t\t\t\n      DUP1 \t\t\t\n      SLOAD \t\t\t\n      PUSH FF\t\t\t\n      NOT \t\t\t\n      AND \t\t\t\n      PUSH 1\t\t\t\n      OR \t\t\t\n      SWAP1 \t\t\t\n      SSTORE \t\t\t\n      POP \t\t\t\n      POP \t\t\t\n      JUMP [out]\t\t\t\n    tag 482\t\t\t\n      JUMPDEST \t\t\t\n      PUSH 3\t\t\t\n      SLOAD \t\t\t\n      PUSH 0\t\t\t\n      SWAP1 \t\t\t\n      PUSH 100\t\t\t\n      SWAP1 \t\t\t\n      DIV \t\t\t\n      PUSH 1\t\t\t\n      PUSH 1\t\t\t\n      PUSH A0\t\t\t\n      SHL \t\t\t\n      SUB \t\t\t\n      AND \t\t\t\n      CALLER \t\t\t\n      EQ \t\t\t\n      PUSH [tag] 638\t\t\t\n      JUMPI \t\t\t\n      PUSH 40\t\t\t\n      MLOAD \t\t\t\n      PUSH 1205B57B\t\t\t\n      PUSH E1\t\t\t\n      SHL \t\t\t\n      DUP2 \t\t\t\n      MSTORE \t\t\t\n      PUSH 4\t\t\t\n      ADD \t\t\t\n      PUSH 40\t\t\t\n      MLOAD \t\t\t\n      DUP1 \t\t\t\n      SWAP2 \t\t\t\n      SUB \t\t\t\n      SWAP1 \t\t\t\n      REVERT \t\t\t\n    tag 638\t\t\t\n      JUMPDEST \t\t\t\n      TIMESTAMP \t\t\t\n      PUSH 9\t\t\t\n      SLOAD \t\t\t\n      EQ \t\t\t\n      PUSH [tag] 640\t\t\t\n      JUMPI \t\t\t\n      PUSH 40\t\t\t\n      MLOAD \t\t\t\n      PUSH 7DFCA6B7\t\t\t\n      PUSH E1\t\t\t\n      SHL \t\t\t\n      DUP2 \t\t\t\n      MSTORE \t\t\t\n      PUSH 4\t\t\t\n      ADD \t\t\t\n      PUSH 40\t\t\t\n      MLOAD \t\t\t\n      DUP1 \t\t\t\n      SWAP2 \t\t\t\n      SUB \t\t\t\n      SWAP1 \t\t\t\n      REVERT \t\t\t\n    tag 640\t\t\t\n      JUMPDEST \t\t\t\n      PUSH DE0B6B3A7640000\t\t\t   C\n      DUP3 \t\t\t\n      GT \t\t\t\n      ISZERO \t\t\t\n      PUSH [tag] 641\t\t\t\n      JUMPI \t\t\t\n      PUSH 40\t\t\t\n      MLOAD \t\t\t\n      PUSH 717220F3\t\t\t\n      PUSH E1\t\t\t\n      SHL \t\t\t\n      DUP2 \t\t\t\n      MSTORE \t\t\t\n      PUSH 4\t\t\t\n      ADD \t\t\t\n      PUSH 40\t\t\t\n      MLOAD \t\t\t\n      DUP1 \t\t\t\n      SWAP2 \t\t\t\n      SUB \t\t\t\n      SWAP1 \t\t\t\n      REVERT \t\t\t\n    tag 641\t\t\t\n      JUMPDEST \t\t\t\n      PUSH 8\t\t\t\n      DUP1 \t\t\t\n      SLOAD \t\t\t\n      SWAP1 \t\t\t\n      DUP4 \t\t\t\n      SWAP1 \t\t\t\n      SSTORE \t\t\t\n      PUSH 40\t\t\t\n      DUP1 \t\t\t\n      MLOAD \t\t\t\n      DUP3 \t\t\t\n      DUP2 \t\t\t\n      MSTORE \t\t\t\n      PUSH 20\t\t\t\n      DUP2 \t\t\t\n      ADD \t\t\t\n      DUP6 \t\t\t\n      SWAP1 \t\t\t\n      MSTORE \t\t\t\n      PUSH AAA68312E2EA9D50E16AF5068410AB56E1A1FD06037B1A35664812C30F821460\t\t\t\n      SWAP2 \t\t\t\n      ADD \t\t\t\n      PUSH [tag] 337\t\t\t\n      JUMP \t\t\t\n    tag 489\t\t\t\n      JUMPDEST \t\t\t\n      PUSH 5\t\t\t\n      SLOAD \t\t\t\n      PUSH 40\t\t\t\n      MLOAD \t\t\t\n      PUSH 12004531\t\t\t\n      PUSH E1\t\t\t\n      SHL \t\t\t\n      DUP2 \t\t\t\n      MSTORE \t\t\t\n      ADDRESS \t\t\t\n      PUSH 4\t\t\t\n      DUP3 \t\t\t\n      ADD \t\t\t\n      MSTORE \t\t\t\n      PUSH 1\t\t\t\n      PUSH 1\t\t\t\n      PUSH A0\t\t\t\n      SHL \t\t\t\n      SUB \t\t\t\n      DUP6 \t\t\t\n      DUP2 \t\t\t\n      AND \t\t\t\n      PUSH 24\t\t\t\n      DUP4 \t\t\t\n      ADD \t\t\t\n      MSTORE \t\t\t\n      DUP5 \t\t\t\n      DUP2 \t\t\t\n      AND \t\t\t\n      PUSH 44\t\t\t\n      DUP4 \t\t\t\n      ADD \t\t\t\n      MSTORE \t\t\t\n      PUSH 64\t\t\t\n      DUP3 \t\t\t\n      ADD \t\t\t\n      DUP5 \t\t\t\n      SWAP1 \t\t\t\n      MSTORE \t\t\t\n      PUSH 0\t\t\t\n      SWAP3 \t\t\t\n      DUP4 \t\t\t\n      SWAP3 \t\t\t\n      SWAP2 \t\t\t\n      AND \t\t\t\n      SWAP1 \t\t\t\n      PUSH 24008A62\t\t\t\n      SWAP1 \t\t\t\n      PUSH 84\t\t\t\n      ADD \t\t\t\n      PUSH 20\t\t\t\n      PUSH 40\t\t\t\n      MLOAD \t\t\t\n      DUP1 \t\t\t\n      DUP4 \t\t\t\n      SUB \t\t\t\n      DUP2 \t\t\t\n      PUSH 0\t\t\t\n      DUP8 \t\t\t\n      GAS \t\t\t\n      CALL \t\t\t\n      ISZERO \t\t\t\n      DUP1 \t\t\t\n      ISZERO \t\t\t\n      PUSH [tag] 647\t\t\t\n      JUMPI \t\t\t\n      RETURNDATASIZE \t\t\t\n      PUSH 0\t\t\t\n      DUP1 \t\t\t\n      RETURNDATACOPY \t\t\t\n      RETURNDATASIZE \t\t\t\n      PUSH 0\t\t\t\n      REVERT \t\t\t\n    tag 647\t\t\t\n      JUMPDEST \t\t\t\n      POP \t\t\t\n      POP \t\t\t\n      POP \t\t\t\n      POP \t\t\t\n      PUSH 40\t\t\t\n      MLOAD \t\t\t\n      RETURNDATASIZE \t\t\t\n      PUSH 1F\t\t\t\n      NOT \t\t\t\n      PUSH 1F\t\t\t\n      DUP3 \t\t\t\n      ADD \t\t\t\n      AND \t\t\t\n      DUP3 \t\t\t\n      ADD \t\t\t\n      DUP1 \t\t\t\n      PUSH 40\t\t\t\n      MSTORE \t\t\t\n      POP \t\t\t\n      DUP2 \t\t\t\n      ADD \t\t\t\n      SWAP1 \t\t\t\n      PUSH [tag] 648\t\t\t\n      SWAP2 \t\t\t\n      SWAP1 \t\t\t\n      PUSH [tag] 292\t\t\t\n      JUMP [in]\t\t\t\n    tag 648\t\t\t\n      JUMPDEST \t\t\t\n      SWAP1 \t\t\t\n      POP \t\t\t\n      DUP1 \t\t\t\n      ISZERO \t\t\t\n      PUSH [tag] 649\t\t\t\n      JUMPI \t\t\t\n      PUSH 40\t\t\t\n      MLOAD \t\t\t\n      PUSH 8C81362D\t\t\t\n      PUSH E0\t\t\t\n      SHL \t\t\t\n      DUP2 \t\t\t\n      MSTORE \t\t\t\n      PUSH 4\t\t\t\n      DUP2 \t\t\t\n      ADD \t\t\t\n      DUP3 \t\t\t\n      SWAP1 \t\t\t\n      MSTORE \t\t\t\n      PUSH 24\t\t\t\\r\\n}\\r\\n\n      ADD \t\t\t\\r\\n}\\r\\n\n      PUSH [tag] 279\t\t\t\n      JUMP \t\t\tsymbol_, decimals_);\\r\\n\\r\\n  ...\n    tag 649\t\t\t\n      JUMPDEST \t\t\t\n      TIMESTAMP \t\t\t\n      PUSH 9\t\t\t\n      SLOAD \t\t\t\n      EQ \t\t\t\n      PUSH [tag] 652\t\t\t\n      JUMPI \t\t\t\n      PUSH 40\t\t\t\n      MLOAD \t\t\t\n      PUSH C9021E2F\t\t\t\n      PUSH E0\t\t\t\n      SHL \t\t\t\n      DUP2 \t\t\t\n      MSTORE \t\t\t\n      PUSH 4\t\t\t\n      ADD \t\t\t\n      PUSH 40\t\t\t\n      MLOAD \t\t\t\n      DUP1 \t\t\t\n      SWAP2 \t\t\t\n      SUB \t\t\t\n      SWAP1 \t\t\t\n      REVERT \t\t\t\n    tag 652\t\t\t\n      JUMPDEST \t\t\t\n      PUSH 0\t\t\t\n      PUSH [tag] 653\t\t\t\n      DUP6 \t\t\t\n      PUSH [tag] 370\t\t\t\n      JUMP [in]\t\t\t\n    tag 653\t\t\t\n      JUMPDEST \t\t\t\n      SWAP1 \t\t\t\n      POP \t\t\t\n      PUSH 0\t\t\t\n      PUSH 0\t\t\t\n      NOT \t\t\t\n      DUP6 \t\t\t\n      EQ \t\t\t\n      PUSH [tag] 654\t\t\t\n      JUMPI \t\t\t\n      DUP5 \t\t\t\n      PUSH [tag] 655\t\t\t\n      JUMP \t\t\t\n    tag 654\t\t\t\n      JUMPDEST \t\t\t\n      DUP2 \t\t\t\n    tag 655\t\t\t\n      JUMPDEST \t\t\t\n      SWAP1 \t\t\t\n      POP \t\t\t\n      PUSH 0\t\t\t\n      PUSH [tag] 656\t\t\t\n      DUP9 \t\t\t\n      DUP4 \t\t\t\n      PUSH [tag] 657\t\t\t\n      JUMP [in]\t\t\t\n    tag 656\t\t\t\n      JUMPDEST \t\t\t\n      SWAP1 \t\t\t\n      POP \t\t\t\n      PUSH 0\t\t\t\n      PUSH [tag] 658\t\t\t\n      DUP3 \t\t\t\n      DUP6 \t\t\t\n      PUSH [tag] 412\t\t\t\n      JUMP [in]\t\t\t\n    tag 658\t\t\t\n      JUMPDEST \t\t\t\n      SWAP1 \t\t\t\n      POP \t\t\t\n      PUSH 0\t\t\t\n      DUP3 \t\t\t\n      PUSH B\t\t\t\n      SLOAD \t\t\t\n      PUSH [tag] 659\t\t\t\n      SWAP2 \t\t\t\n      SWAP1 \t\t\t\n      PUSH [tag] 412\t\t\t\n      JUMP [in]\t\t\t\n    tag 659\t\t\t\n      JUMPDEST \t\t\t\n      PUSH 1\t\t\t\n      PUSH 1\t\t\t\n      PUSH A0\t\t\t\n      SHL \t\t\t\n      SUB \t\t\t\n      DUP11 \t\t\t\n      DUP2 \t\t\t\n      AND \t\t\t\n      PUSH 0\t\t\t\n      DUP2 \t\t\t\n      DUP2 \t\t\t\n      MSTORE \t\t\t\n      PUSH 10\t\t\t\n      PUSH 20\t\t\t\n      SWAP1 \t\t\t\n      DUP2 \t\t\t\n      MSTORE \t\t\t\n      PUSH 40\t\t\t\n      SWAP2 \t\t\t\n      DUP3 \t\t\t\n      SWAP1 \t\t\t\n      KECCAK256 \t\t\t\n      DUP8 \t\t\t\n      DUP2 \t\t\t\n      SSTORE \t\t\t\n      PUSH A\t\t\t\n      SLOAD \t\t\t\n      PUSH 1\t\t\t\n      SWAP1 \t\t\t\n      SWAP2 \t\t\t\n      ADD \t\t\t\n      SSTORE \t\t\t\n      PUSH B\t\t\t\n      DUP6 \t\t\t\n      SWAP1 \t\t\t\n      SSTORE \t\t\t\n      DUP2 \t\t\t\n      MLOAD \t\t\t\n      SWAP4 \t\t\t\n      DUP16 \t\t\t\n      AND \t\t\t\n      DUP5 \t\t\t\n      MSTORE \t\t\t\n      DUP4 \t\t\t\n      ADD \t\t\t\n      SWAP2 \t\t\t\n      SWAP1 \t\t\t\n      SWAP2 \t\t\t\n      MSTORE \t\t\t\n      DUP2 \t\t\t\n      ADD \t\t\t\n      DUP6 \t\t\t\n      SWAP1 \t\t\t\n      MSTORE \t\t\t\n      PUSH 60\t\t\t\n      DUP2 \t\t\t\n      ADD \t\t\t\n      DUP5 \t\t\t\n      SWAP1 \t\t\t\n      MSTORE \t\t\t\n      PUSH 80\t\t\t\n      DUP2 \t\t\t\n      ADD \t\t\t\n      DUP3 \t\t\t\n      SWAP1 \t\t\t\n      MSTORE \t\t\t\n      SWAP1 \t\t\t\n      SWAP2 \t\t\t\n      POP \t\t\t\n      PUSH 1A2A22CB034D26D1854BDC6666A5B91FE25EFBBB5DCAD3B0355478D6F5C362A1\t\t\t\n      SWAP1 \t\t\t\n      PUSH A0\t\t\t\n      ADD \t\t\t\n      PUSH 40\t\t\t\n      MLOAD \t\t\t\n      DUP1 \t\t\t\n      SWAP2 \t\t\t\n      SUB \t\t\t\n      SWAP1 \t\t\t\n      LOG1 \t\t\t\n      POP \t\t\t\n      SWAP1 \t\t\t\n      SWAP9 \t\t\t\n      SWAP8 \t\t\t\n      POP \t\t\t\n      POP \t\t\t\n      POP \t\t\t\n      POP \t\t\t\n      POP \t\t\t\n      POP \t\t\t\n      POP \t\t\t\n      POP \t\t\t\n      JUMP [out]\t\t\t\n    tag 525\t\t\tonstructor(address underlying_...\n      JUMPDEST \t\t\tonstructor(address underlying_...\n      DUP1 \t\t\tntissa_,\\r\\n  \n      MLOAD \t\t\tntissa_,\\r\\n  \n      PUSH 0\t\t\tlerI\n      SWAP1 \t\t\tlerI\n      PUSH [tag] 326\t\t\tntissa_,\\r\\n             \n      SWAP1 \t\t\tntissa_,\\r\\n             \n      PUSH DE0B6B3A7640000\t\t\t * @\n      SWAP1 \t\t\t * @\n      PUSH [tag] 499\t\t\tntissa_,\\r\\n             \n      JUMP [in]\t\t\tntissa_,\\r\\n             \n    tag 537\t\t\t\n      JUMPDEST \t\t\t\n      PUSH 0\t\t\t\n      DUP1 \t\t\t\n      DUP1 \t\t\t\n      DUP1 \t\t\t\n      TIMESTAMP \t\t\t\n      PUSH 9\t\t\t\n      SLOAD \t\t\t\n      EQ \t\t\t\n      PUSH [tag] 666\t\t\t\n      JUMPI \t\t\t\n      PUSH 40\t\t\t\n      MLOAD \t\t\t\n      PUSH 38ACF799\t\t\t\n      PUSH E0\t\t\t\n      SHL \t\t\t\n      DUP2 \t\t\t\n      MSTORE \t\t\t\n      PUSH 4\t\t\t\n      DUP2 \t\t\t\n      ADD \t\t\t\n      DUP3 \t\t\t\n      SWAP1 \t\t\t\n      MSTORE \t\t\t\n      PUSH 24\t\t\t\\r\\n}\\r\\n\n      ADD \t\t\t\\r\\n}\\r\\n\n      PUSH [tag] 279\t\t\t\n      JUMP \t\t\tsymbol_, decimals_);\\r\\n\\r\\n  ...\n    tag 666\t\t\t\n      JUMPDEST \t\t\t\n      PUSH [tag] 668\t\t\t\n      CALLER \t\t\t\n      DUP7 \t\t\t\n      PUSH [tag] 657\t\t\t\n      JUMP [in]\t\t\t\n    tag 668\t\t\t\n      JUMPDEST \t\t\t\n      SWAP1 \t\t\t\n      POP \t\t\t\n      DUP1 \t\t\t\n      PUSH C\t\t\t\n      SLOAD \t\t\t\n      PUSH [tag] 669\t\t\t\n      SWAP2 \t\t\t\n      SWAP1 \t\t\t\n      PUSH [tag] 417\t\t\t\n      JUMP [in]\t\t\t\n    tag 669\t\t\t\n      JUMPDEST \t\t\t\n      SWAP2 \t\t\t\n      POP \t\t\t\n      DUP2 \t\t\t\n      PUSH C\t\t\t\n      DUP2 \t\t\t\n      SWAP1 \t\t\t\n      SSTORE \t\t\t\n      POP \t\t\t\n      PUSH A91E67C5EA634CD43A12C5A482724B03DE01E85CA68702A53D0C2F45CB7C1DC5\t\t\t\n      CALLER \t\t\t\n      DUP3 \t\t\t\n      DUP5 \t\t\t\n      PUSH 40\t\t\t\n      MLOAD \t\t\t\n      PUSH [tag] 670\t\t\t\n      SWAP4 \t\t\t\n      SWAP3 \t\t\t\n      SWAP2 \t\t\t\n      SWAP1 \t\t\t\n      PUSH [tag] 549\t\t\t\n      JUMP [in]\t\t\t\n    tag 670\t\t\t\n      JUMPDEST \t\t\t\n      PUSH 40\t\t\t\n      MLOAD \t\t\t\n      DUP1 \t\t\t\n      SWAP2 \t\t\t\n      SUB \t\t\t\n      SWAP1 \t\t\t\n      LOG1 \t\t\t\n      PUSH 0\t\t\t\n      SWAP6 \t\t\t\n      SWAP1 \t\t\t\n      SWAP5 \t\t\t\n      POP \t\t\t\n      SWAP3 \t\t\t\n      POP \t\t\t\n      POP \t\t\t\n      POP \t\t\t\n      JUMP [out]\t\t\t\n    tag 547\t\t\t\n      JUMPDEST \t\t\t\n      PUSH 11\t\t\t\n      SLOAD \t\t\t\n      PUSH 40\t\t\t\n      MLOAD \t\t\t\n      PUSH A9059CBB\t\t\t\n      PUSH E0\t\t\t\n      SHL \t\t\t\n      DUP2 \t\t\t\n      MSTORE \t\t\t\n      PUSH 1\t\t\t\n      PUSH 1\t\t\t\n      PUSH A0\t\t\t\n      SHL \t\t\t\n      SUB \t\t\t\n      DUP5 \t\t\t\n      DUP2 \t\t\t\n      AND \t\t\t\n      PUSH 4\t\t\t\n      DUP4 \t\t\t\n      ADD \t\t\t\n      MSTORE \t\t\t\n      PUSH 24\t\t\t\n      DUP3 \t\t\t\n      ADD \t\t\t\n      DUP5 \t\t\t\n      SWAP1 \t\t\t\n      MSTORE \t\t\t\n      SWAP1 \t\t\t\n      SWAP2 \t\t\t\n      AND \t\t\t\n      SWAP1 \t\t\t\n      DUP2 \t\t\t\n      SWAP1 \t\t\t\n      PUSH A9059CBB\t\t\t\n      SWAP1 \t\t\t\n      PUSH 44\t\t\t\n      ADD \t\t\t\n      PUSH 0\t\t\t\n      PUSH 40\t\t\t\n      MLOAD \t\t\t\n      DUP1 \t\t\t\n      DUP4 \t\t\t\n      SUB \t\t\t\n      DUP2 \t\t\t\n      PUSH 0\t\t\t\n      DUP8 \t\t\t\n      DUP1 \t\t\t\n      EXTCODESIZE \t\t\t\n      ISZERO \t\t\t\n      DUP1 \t\t\t\n      ISZERO \t\t\t\n      PUSH [tag] 673\t\t\t\n      JUMPI \t\t\t\n      PUSH 0\t\t\t\n      DUP1 \t\t\t\n      REVERT \t\t\t\n    tag 673\t\t\t\n      JUMPDEST \t\t\t\n      POP \t\t\t\n      GAS \t\t\t\n      CALL \t\t\t\n      ISZERO \t\t\t\n      DUP1 \t\t\t\n      ISZERO \t\t\t\n      PUSH [tag] 675\t\t\t\n      JUMPI \t\t\t\n      RETURNDATASIZE \t\t\t\n      PUSH 0\t\t\t\n      DUP1 \t\t\t\n      RETURNDATACOPY \t\t\t\n      RETURNDATASIZE \t\t\t\n      PUSH 0\t\t\t\n      REVERT \t\t\t\n    tag 675\t\t\t\n      JUMPDEST \t\t\t\n      POP \t\t\t\n      POP \t\t\t\n      POP \t\t\t\n      POP \t\t\t\n      PUSH 0\t\t\t\n      RETURNDATASIZE \t\t\t\n      PUSH 0\t\t\t\n      DUP2 \t\t\t\n      EQ \t\t\t\n      PUSH [tag] 677\t\t\t\n      JUMPI \t\t\t\n      PUSH 20\t\t\t\n      DUP2 \t\t\t\n      EQ \t\t\t\n      PUSH [tag] 678\t\t\t\n      JUMPI \t\t\t\n      PUSH 0\t\t\t\n      DUP1 \t\t\t\n      REVERT \t\t\t\n    tag 677\t\t\t\n      JUMPDEST \t\t\t\n      PUSH 0\t\t\t\n      NOT \t\t\t\n      SWAP2 \t\t\t\n      POP \t\t\t\n      PUSH [tag] 676\t\t\t\n      JUMP \t\t\t\n    tag 678\t\t\t\n      JUMPDEST \t\t\t\n      PUSH 20\t\t\t\n      PUSH 0\t\t\t\n      DUP1 \t\t\t\n      RETURNDATACOPY \t\t\t\n      PUSH 0\t\t\t\n      MLOAD \t\t\t\n      SWAP2 \t\t\t\n      POP \t\t\t\n    tag 676\t\t\t\n      JUMPDEST \t\t\t\n      POP \t\t\t\n      DUP1 \t\t\t\n      PUSH [tag] 679\t\t\t\n      JUMPI \t\t\t\n      PUSH 40\t\t\t\n      MLOAD \t\t\t\n      PUSH 461BCD\t\t\t\n      PUSH E5\t\t\t\n      SHL \t\t\t\n      DUP2 \t\t\t\n      MSTORE \t\t\t\n      PUSH 20\t\t\t\n      PUSH 4\t\t\t\n      DUP3 \t\t\t\n      ADD \t\t\t\n      MSTORE \t\t\t\n      PUSH 19\t\t\t\n      PUSH 24\t\t\t\n      DUP3 \t\t\t\n      ADD \t\t\t\n      MSTORE \t\t\t\n      PUSH 544F4B454E5F5452414E534645525F4F55545F4641494C454400000000000000\t\t\t\n      PUSH 44\t\t\t\n      DUP3 \t\t\t\n      ADD \t\t\t\n      MSTORE \t\t\t\n      PUSH 64\t\t\t\n      ADD \t\t\t\n      PUSH [tag] 279\t\t\t\n      JUMP \t\t\t\n    tag 679\t\t\t\n      JUMPDEST \t\t\t\n      POP \t\t\t\n      POP \t\t\t\n      POP \t\t\t\n      POP \t\t\t\n      JUMP [out]\t\t\t\n    tag 556\t\t\t\n      JUMPDEST \t\t\t\n      DUP2 \t\t\t\n      ISZERO \t\t\t\n      DUP1 \t\t\t\n      PUSH [tag] 683\t\t\t\n      JUMPI \t\t\t\n      POP \t\t\t\n      DUP1 \t\t\t\n      ISZERO \t\t\t\n    tag 683\t\t\t\n      JUMPDEST \t\t\t\n      PUSH [tag] 684\t\t\t\n      JUMPI \t\t\t\n      PUSH 40\t\t\t\n      MLOAD \t\t\t\n      PUSH 461BCD\t\t\t\n      PUSH E5\t\t\t\n      SHL \t\t\t\n      DUP2 \t\t\t\n      MSTORE \t\t\t\n      PUSH 20\t\t\t\n      PUSH 4\t\t\t\n      DUP3 \t\t\t\n      ADD \t\t\t\n      MSTORE \t\t\t\n      PUSH 34\t\t\t\n      PUSH 24\t\t\t\n      DUP3 \t\t\t\n      ADD \t\t\t\n      MSTORE \t\t\t\n      PUSH 6F6E65206F662072656465656D546F6B656E73496E206F722072656465656D41\t\t\t\n      PUSH 44\t\t\t\n      DUP3 \t\t\t\n      ADD \t\t\t\n      MSTORE \t\t\t\n      PUSH 6D6F756E74496E206D757374206265207A65726F\t\t\t\n      PUSH 60\t\t\t\n      SHL \t\t\t\n      PUSH 64\t\t\t\n      DUP3 \t\t\t\n      ADD \t\t\t\n      MSTORE \t\t\t\n      PUSH 84\t\t\t\n      ADD \t\t\t\n      PUSH [tag] 279\t\t\t\n      JUMP \t\t\t\n    tag 684\t\t\t\n      JUMPDEST \t\t\t\n      PUSH 0\t\t\t\n      PUSH 40\t\t\t\n      MLOAD \t\t\t\n      DUP1 \t\t\t\n      PUSH 20\t\t\t\n      ADD \t\t\t\n      PUSH 40\t\t\t\n      MSTORE \t\t\t\n      DUP1 \t\t\t\n      PUSH [tag] 687\t\t\t\n      PUSH [tag] 286\t\t\t\n      JUMP [in]\t\t\t\n    tag 687\t\t\t\n      JUMPDEST \t\t\t\n      SWAP1 \t\t\t\n      MSTORE \t\t\t\n      SWAP1 \t\t\t\n      POP \t\t\t\n      PUSH 0\t\t\t\n      DUP1 \t\t\t\n      DUP5 \t\t\t\n      ISZERO \t\t\t\n      PUSH [tag] 688\t\t\t\n      JUMPI \t\t\t\n      DUP5 \t\t\t\n      SWAP2 \t\t\t\n      POP \t\t\t\n      PUSH [tag] 689\t\t\t\n      DUP4 \t\t\t\n      DUP7 \t\t\t\n      PUSH [tag] 321\t\t\t\n      JUMP [in]\t\t\t\n    tag 689\t\t\t\n      JUMPDEST \t\t\t\n      SWAP1 \t\t\t\n      POP \t\t\t\n      PUSH [tag] 690\t\t\t\n      JUMP \t\t\t\n    tag 688\t\t\t\n      JUMPDEST \t\t\t\n      PUSH [tag] 691\t\t\t\n      DUP5 \t\t\t\n      DUP5 \t\t\t\n      PUSH [tag] 692\t\t\t\n      JUMP [in]\t\t\t\n    tag 691\t\t\t\n      JUMPDEST \t\t\t\n      SWAP2 \t\t\t\n      POP \t\t\t\n      DUP4 \t\t\t\n      SWAP1 \t\t\t\n      POP \t\t\t\n    tag 690\t\t\t\n      JUMPDEST \t\t\t\n      PUSH 5\t\t\t\n      SLOAD \t\t\t\n      PUSH 40\t\t\t\n      MLOAD \t\t\t\n      PUSH EABE7D91\t\t\t\n      PUSH E0\t\t\t\n      SHL \t\t\t\n      DUP2 \t\t\t\n      MSTORE \t\t\t\n      PUSH 0\t\t\t\n      SWAP2 \t\t\t\n      PUSH 1\t\t\t\n      PUSH 1\t\t\t\n      PUSH A0\t\t\t\n      SHL \t\t\t\n      SUB \t\t\t\n      AND \t\t\t\n      SWAP1 \t\t\t\n      PUSH EABE7D91\t\t\t\n      SWAP1 \t\t\t\n      PUSH [tag] 693\t\t\t\n      SWAP1 \t\t\t\n      ADDRESS \t\t\t\n      SWAP1 \t\t\t\n      DUP12 \t\t\t\n      SWAP1 \t\t\t\n      DUP9 \t\t\t\n      SWAP1 \t\t\t\n      PUSH 4\t\t\t\n      ADD \t\t\t\n      PUSH [tag] 694\t\t\t\n      JUMP [in]\t\t\t\n    tag 693\t\t\t\n      JUMPDEST \t\t\t\n      PUSH 20\t\t\t\n      PUSH 40\t\t\t\n      MLOAD \t\t\t\n      DUP1 \t\t\t\n      DUP4 \t\t\t\n      SUB \t\t\t\n      DUP2 \t\t\t\n      PUSH 0\t\t\t\n      DUP8 \t\t\t\n      GAS \t\t\t\n      CALL \t\t\t\n      ISZERO \t\t\t\n      DUP1 \t\t\t\n      ISZERO \t\t\t\n      PUSH [tag] 696\t\t\t\n      JUMPI \t\t\t\n      RETURNDATASIZE \t\t\t\n      PUSH 0\t\t\t\n      DUP1 \t\t\t\n      RETURNDATACOPY \t\t\t\n      RETURNDATASIZE \t\t\t\n      PUSH 0\t\t\t\n      REVERT \t\t\t\n    tag 696\t\t\t\n      JUMPDEST \t\t\t\n      POP \t\t\t\n      POP \t\t\t\n      POP \t\t\t\n      POP \t\t\t\n      PUSH 40\t\t\t\n      MLOAD \t\t\t\n      RETURNDATASIZE \t\t\t\n      PUSH 1F\t\t\t\n      NOT \t\t\t\n      PUSH 1F\t\t\t\n      DUP3 \t\t\t\n      ADD \t\t\t\n      AND \t\t\t\n      DUP3 \t\t\t\n      ADD \t\t\t\n      DUP1 \t\t\t\n      PUSH 40\t\t\t\n      MSTORE \t\t\t\n      POP \t\t\t\n      DUP2 \t\t\t\n      ADD \t\t\t\n      SWAP1 \t\t\t\n      PUSH [tag] 697\t\t\t\n      SWAP2 \t\t\t\n      SWAP1 \t\t\t\n      PUSH [tag] 292\t\t\t\n      JUMP [in]\t\t\t\n    tag 697\t\t\t\n      JUMPDEST \t\t\t\n      SWAP1 \t\t\t\n      POP \t\t\t\n      DUP1 \t\t\t\n      ISZERO \t\t\t\n      PUSH [tag] 698\t\t\t\n      JUMPI \t\t\t\n      PUSH 40\t\t\t\n      MLOAD \t\t\t\n      PUSH 480F4247\t\t\t\n      PUSH E0\t\t\t\n      SHL \t\t\t\n      DUP2 \t\t\t\n      MSTORE \t\t\t\n      PUSH 4\t\t\t\n      DUP2 \t\t\t\n      ADD \t\t\t\n      DUP3 \t\t\t\n      SWAP1 \t\t\t\n      MSTORE \t\t\t\n      PUSH 24\t\t\t\\r\\n}\\r\\n\n      ADD \t\t\t\\r\\n}\\r\\n\n      PUSH [tag] 279\t\t\t\n      JUMP \t\t\tsymbol_, decimals_);\\r\\n\\r\\n  ...\n    tag 698\t\t\t\n      JUMPDEST \t\t\t\n      TIMESTAMP \t\t\t\n      PUSH 9\t\t\t\n      SLOAD \t\t\t\n      EQ \t\t\t\n      PUSH [tag] 701\t\t\t\n      JUMPI \t\t\t\n      PUSH 40\t\t\t\n      MLOAD \t\t\t\n      PUSH 97B5CFCD\t\t\t\n      PUSH E0\t\t\t\n      SHL \t\t\t\n      DUP2 \t\t\t\n      MSTORE \t\t\t\n      PUSH 4\t\t\t\n      ADD \t\t\t\n      PUSH 40\t\t\t\n      MLOAD \t\t\t\n      DUP1 \t\t\t\n      SWAP2 \t\t\t\n      SUB \t\t\t\n      SWAP1 \t\t\t\n      REVERT \t\t\t\n    tag 701\t\t\t\n      JUMPDEST \t\t\t\n      DUP2 \t\t\t\n      PUSH [tag] 702\t\t\t\n      PUSH [tag] 324\t\t\t\n      JUMP [in]\t\t\t\n    tag 702\t\t\t\n      JUMPDEST \t\t\t\n      LT \t\t\t\n      ISZERO \t\t\t\n      PUSH [tag] 703\t\t\t\n      JUMPI \t\t\t\n      PUSH 40\t\t\t\n      MLOAD \t\t\t\n      PUSH 91240A1B\t\t\t\n      PUSH E0\t\t\t\n      SHL \t\t\t\n      DUP2 \t\t\t\n      MSTORE \t\t\t\n      PUSH 4\t\t\t\n      ADD \t\t\t\n      PUSH 40\t\t\t\n      MLOAD \t\t\t\n      DUP1 \t\t\t\n      SWAP2 \t\t\t\n      SUB \t\t\t\n      SWAP1 \t\t\t\n      REVERT \t\t\t\n    tag 703\t\t\t\n      JUMPDEST \t\t\t\n      DUP3 \t\t\t\n      PUSH D\t\t\t\n      SLOAD \t\t\t\n      PUSH [tag] 704\t\t\t\n      SWAP2 \t\t\t\n      SWAP1 \t\t\t\n      PUSH [tag] 412\t\t\t\n      JUMP [in]\t\t\t\n    tag 704\t\t\t\n      JUMPDEST \t\t\t\n      PUSH D\t\t\t\n      SSTORE \t\t\t\n      PUSH 1\t\t\t\n      PUSH 1\t\t\t\n      PUSH A0\t\t\t\n      SHL \t\t\t\n      SUB \t\t\t\n      DUP8 \t\t\t\n      AND \t\t\t\n      PUSH 0\t\t\t\n      SWAP1 \t\t\t\n      DUP2 \t\t\t\n      MSTORE \t\t\t\n      PUSH E\t\t\t\n      PUSH 20\t\t\t\n      MSTORE \t\t\t\n      PUSH 40\t\t\t\n      SWAP1 \t\t\t\n      KECCAK256 \t\t\t\n      SLOAD \t\t\t\n      PUSH [tag] 705\t\t\t\n      SWAP1 \t\t\t\n      DUP5 \t\t\t\n      SWAP1 \t\t\t\n      PUSH [tag] 412\t\t\t\n      JUMP [in]\t\t\t\n    tag 705\t\t\t\n      JUMPDEST \t\t\t\n      PUSH 1\t\t\t\n      PUSH 1\t\t\t\n      PUSH A0\t\t\t\n      SHL \t\t\t\n      SUB \t\t\t\n      DUP9 \t\t\t\n      AND \t\t\t\n      PUSH 0\t\t\t\n      SWAP1 \t\t\t\n      DUP2 \t\t\t\n      MSTORE \t\t\t\n      PUSH E\t\t\t\n      PUSH 20\t\t\t\n      MSTORE \t\t\t\n      PUSH 40\t\t\t\n      SWAP1 \t\t\t\n      KECCAK256 \t\t\t\n      SSTORE \t\t\t\n      PUSH [tag] 706\t\t\t\n      DUP8 \t\t\t\n      DUP4 \t\t\t\n      PUSH [tag] 547\t\t\t\n      JUMP [in]\t\t\t\n    tag 706\t\t\t\n      JUMPDEST \t\t\t\n      PUSH 40\t\t\t\n      MLOAD \t\t\t\n      DUP4 \t\t\t\n      DUP2 \t\t\t\n      MSTORE \t\t\t\n      ADDRESS \t\t\t\n      SWAP1 \t\t\t\n      PUSH 1\t\t\t\n      PUSH 1\t\t\t\n      PUSH A0\t\t\t\n      SHL \t\t\t\n      SUB \t\t\t\n      DUP10 \t\t\t\n      AND \t\t\t\n      SWAP1 \t\t\t\n      PUSH 0\t\t\t\n      DUP1 \t\t\t\n      MLOAD \t\t\t\n      PUSH 20\t\t\t\n      PUSH data ADA389E1FC24A8587C776340EFB91B36E675792AB631816100D55DF0B5CF3CBC\t\t\t\n      DUP4 \t\t\t\n      CODECOPY \t\t\t\n      DUP2 \t\t\t\n      MLOAD \t\t\t\n      SWAP2 \t\t\t\n      MSTORE \t\t\t\n      SWAP1 \t\t\t\n      PUSH 20\t\t\t\n      ADD \t\t\t\\r\\n}\\r\\n\n      PUSH 40\t\t\t\n      MLOAD \t\t\t\n      DUP1 \t\t\t\n      SWAP2 \t\t\t\n      SUB \t\t\t\n      SWAP1 \t\t\t\n      LOG3 \t\t\t\n      PUSH E5B754FB1ABB7F01B499791D0B820AE3B6AF3424AC1C59768EDB53F4EC31A929\t\t\t\n      DUP8 \t\t\t\n      DUP4 \t\t\t\n      DUP6 \t\t\t\n      PUSH 40\t\t\t\n      MLOAD \t\t\t\n      PUSH [tag] 708\t\t\t\n      SWAP4 \t\t\t\n      SWAP3 \t\t\t\n      SWAP2 \t\t\t\n      SWAP1 \t\t\t\n      PUSH [tag] 549\t\t\t\n      JUMP [in]\t\t\t\n    tag 708\t\t\t\n      JUMPDEST \t\t\t\n      PUSH 40\t\t\t\n      MLOAD \t\t\t\n      DUP1 \t\t\t\n      SWAP2 \t\t\t\n      SUB \t\t\t\n      SWAP1 \t\t\t\n      LOG1 \t\t\t\n      PUSH 5\t\t\t\n      SLOAD \t\t\t\n      PUSH 40\t\t\t\n      MLOAD \t\t\t\n      PUSH 51DFF989\t\t\t\n      PUSH E0\t\t\t\n      SHL \t\t\t\n      DUP2 \t\t\t\n      MSTORE \t\t\t\n      ADDRESS \t\t\t\n      PUSH 4\t\t\t\n      DUP3 \t\t\t\n      ADD \t\t\t\n      MSTORE \t\t\t\n      PUSH 1\t\t\t\n      PUSH 1\t\t\t\n      PUSH A0\t\t\t\n      SHL \t\t\t\n      SUB \t\t\t\n      DUP10 \t\t\t\n      DUP2 \t\t\t\n      AND \t\t\t\n      PUSH 24\t\t\t\n      DUP4 \t\t\t\n      ADD \t\t\t\n      MSTORE \t\t\t\n      PUSH 44\t\t\t\n      DUP3 \t\t\t\n      ADD \t\t\t\n      DUP6 \t\t\t\n      SWAP1 \t\t\t\n      MSTORE \t\t\t\n      PUSH 64\t\t\t\n      DUP3 \t\t\t\n      ADD \t\t\t\n      DUP7 \t\t\t\n      SWAP1 \t\t\t\n      MSTORE \t\t\t\n      SWAP1 \t\t\t\n      SWAP2 \t\t\t\n      AND \t\t\t\n      SWAP1 \t\t\t\n      PUSH 51DFF989\t\t\t\n      SWAP1 \t\t\t\n      PUSH 84\t\t\t\n      ADD \t\t\t\n      PUSH 0\t\t\t\n      PUSH 40\t\t\t\n      MLOAD \t\t\t\n      DUP1 \t\t\t\n      DUP4 \t\t\t\n      SUB \t\t\t\n      DUP2 \t\t\t\n      PUSH 0\t\t\t\n      DUP8 \t\t\t\n      DUP1 \t\t\t\n      EXTCODESIZE \t\t\t\n      ISZERO \t\t\t\n      DUP1 \t\t\t\n      ISZERO \t\t\t\n      PUSH [tag] 711\t\t\t\n      JUMPI \t\t\t\n      PUSH 0\t\t\t\n      DUP1 \t\t\t\n      REVERT \t\t\t\n    tag 711\t\t\t\n      JUMPDEST \t\t\t\n      POP \t\t\t\n      GAS \t\t\t\n      CALL \t\t\t\n      ISZERO \t\t\t\n      DUP1 \t\t\t\n      ISZERO \t\t\t\n      PUSH [tag] 713\t\t\t\n      JUMPI \t\t\t\n      RETURNDATASIZE \t\t\t\n      PUSH 0\t\t\t\n      DUP1 \t\t\t\n      RETURNDATACOPY \t\t\t\n      RETURNDATASIZE \t\t\t\n      PUSH 0\t\t\t\n      REVERT \t\t\t\n    tag 713\t\t\t\n      JUMPDEST \t\t\t\n      POP \t\t\t\n      POP \t\t\t\n      POP \t\t\t\n      POP \t\t\t\n      POP \t\t\t\n      POP \t\t\t\n      POP \t\t\t\n      POP \t\t\t\n      POP \t\t\t\n      POP \t\t\t\n      POP \t\t\t\n      JUMP [out]\t\t\t\n    tag 579\t\t\t\n      JUMPDEST \t\t\t\n      PUSH 5\t\t\t\n      SLOAD \t\t\t\n      PUSH 40\t\t\t\n      MLOAD \t\t\t\n      PUSH 4EF4C3E1\t\t\t\n      PUSH E0\t\t\t\n      SHL \t\t\t\n      DUP2 \t\t\t\n      MSTORE \t\t\t\n      PUSH 0\t\t\t\n      SWAP2 \t\t\t\n      PUSH 1\t\t\t\n      PUSH 1\t\t\t\n      PUSH A0\t\t\t\n      SHL \t\t\t\n      SUB \t\t\t\n      AND \t\t\t\n      SWAP1 \t\t\t\n      PUSH 4EF4C3E1\t\t\t\n      SWAP1 \t\t\t\n      PUSH [tag] 715\t\t\t\n      SWAP1 \t\t\t\n      ADDRESS \t\t\t\n      SWAP1 \t\t\t\n      DUP8 \t\t\t\n      SWAP1 \t\t\t\n      DUP8 \t\t\t\n      SWAP1 \t\t\t\n      PUSH 4\t\t\t\n      ADD \t\t\t\n      PUSH [tag] 694\t\t\t\n      JUMP [in]\t\t\t\n    tag 715\t\t\t\n      JUMPDEST \t\t\t\n      PUSH 20\t\t\t\n      PUSH 40\t\t\t\n      MLOAD \t\t\t\n      DUP1 \t\t\t\n      DUP4 \t\t\t\n      SUB \t\t\t\n      DUP2 \t\t\t\n      PUSH 0\t\t\t\n      DUP8 \t\t\t\n      GAS \t\t\t\n      CALL \t\t\t\n      ISZERO \t\t\t\n      DUP1 \t\t\t\n      ISZERO \t\t\t\n      PUSH [tag] 718\t\t\t\n      JUMPI \t\t\t\n      RETURNDATASIZE \t\t\t\n      PUSH 0\t\t\t\n      DUP1 \t\t\t\n      RETURNDATACOPY \t\t\t\n      RETURNDATASIZE \t\t\t\n      PUSH 0\t\t\t\n      REVERT \t\t\t\n    tag 718\t\t\t\n      JUMPDEST \t\t\t\n      POP \t\t\t\n      POP \t\t\t\n      POP \t\t\t\n      POP \t\t\t\n      PUSH 40\t\t\t\n      MLOAD \t\t\t\n      RETURNDATASIZE \t\t\t\n      PUSH 1F\t\t\t\n      NOT \t\t\t\n      PUSH 1F\t\t\t\n      DUP3 \t\t\t\n      ADD \t\t\t\n      AND \t\t\t\n      DUP3 \t\t\t\n      ADD \t\t\t\n      DUP1 \t\t\t\n      PUSH 40\t\t\t\n      MSTORE \t\t\t\n      POP \t\t\t\n      DUP2 \t\t\t\n      ADD \t\t\t\n      SWAP1 \t\t\t\n      PUSH [tag] 719\t\t\t\n      SWAP2 \t\t\t\n      SWAP1 \t\t\t\n      PUSH [tag] 292\t\t\t\n      JUMP [in]\t\t\t\n    tag 719\t\t\t\n      JUMPDEST \t\t\t\n      SWAP1 \t\t\t\n      POP \t\t\t\n      DUP1 \t\t\t\n      ISZERO \t\t\t\n      PUSH [tag] 720\t\t\t\n      JUMPI \t\t\t\n      PUSH 40\t\t\t\n      MLOAD \t\t\t\n      PUSH 49ABD4FD\t\t\t\n      PUSH E0\t\t\t\n      SHL \t\t\t\n      DUP2 \t\t\t\n      MSTORE \t\t\t\n      PUSH 4\t\t\t\n      DUP2 \t\t\t\n      ADD \t\t\t\n      DUP3 \t\t\t\n      SWAP1 \t\t\t\n      MSTORE \t\t\t\n      PUSH 24\t\t\t\\r\\n}\\r\\n\n      ADD \t\t\t\\r\\n}\\r\\n\n      PUSH [tag] 279\t\t\t\n      JUMP \t\t\tsymbol_, decimals_);\\r\\n\\r\\n  ...\n    tag 720\t\t\t\n      JUMPDEST \t\t\t\n      TIMESTAMP \t\t\t\n      PUSH 9\t\t\t\n      SLOAD \t\t\t\n      EQ \t\t\t\n      PUSH [tag] 723\t\t\t\n      JUMPI \t\t\t\n      PUSH 40\t\t\t\n      MLOAD \t\t\t\n      PUSH 38D88597\t\t\t\n      PUSH E0\t\t\t\n      SHL \t\t\t\n      DUP2 \t\t\t\n      MSTORE \t\t\t\n      PUSH 4\t\t\t\n      ADD \t\t\t\n      PUSH 40\t\t\t\n      MLOAD \t\t\t\n      DUP1 \t\t\t\n      SWAP2 \t\t\t\n      SUB \t\t\t\n      SWAP1 \t\t\t\n      REVERT \t\t\t\n    tag 723\t\t\t\n      JUMPDEST \t\t\t\n      PUSH 0\t\t\t\n      PUSH 40\t\t\t\n      MLOAD \t\t\t\n      DUP1 \t\t\t\n      PUSH 20\t\t\t\n      ADD \t\t\t\n      PUSH 40\t\t\t\n      MSTORE \t\t\t\n      DUP1 \t\t\t\n      PUSH [tag] 724\t\t\t\n      PUSH [tag] 286\t\t\t\n      JUMP [in]\t\t\t\n    tag 724\t\t\t\n      JUMPDEST \t\t\t\n      SWAP1 \t\t\t\n      MSTORE \t\t\t\n      SWAP1 \t\t\t\n      POP \t\t\t\n      PUSH 0\t\t\t\n      PUSH [tag] 725\t\t\t\n      DUP6 \t\t\t\n      DUP6 \t\t\t\n      PUSH [tag] 657\t\t\t\n      JUMP [in]\t\t\t\n    tag 725\t\t\t\n      JUMPDEST \t\t\t\n      SWAP1 \t\t\t\n      POP \t\t\t\n      PUSH 0\t\t\t\n      PUSH [tag] 726\t\t\t\n      DUP3 \t\t\t\n      DUP5 \t\t\t\n      PUSH [tag] 692\t\t\t\n      JUMP [in]\t\t\t\n    tag 726\t\t\t\n      JUMPDEST \t\t\t\n      SWAP1 \t\t\t\n      POP \t\t\t\n      DUP1 \t\t\t\n      PUSH D\t\t\t\n      SLOAD \t\t\t\n      PUSH [tag] 727\t\t\t\n      SWAP2 \t\t\t\n      SWAP1 \t\t\t\n      PUSH [tag] 417\t\t\t\n      JUMP [in]\t\t\t\n    tag 727\t\t\t\n      JUMPDEST \t\t\t\n      PUSH D\t\t\t\n      SSTORE \t\t\t\n      PUSH 1\t\t\t\n      PUSH 1\t\t\t\n      PUSH A0\t\t\t\n      SHL \t\t\t\n      SUB \t\t\t\n      DUP7 \t\t\t\n      AND \t\t\t\n      PUSH 0\t\t\t\n      SWAP1 \t\t\t\n      DUP2 \t\t\t\n      MSTORE \t\t\t\n      PUSH E\t\t\t\n      PUSH 20\t\t\t\n      MSTORE \t\t\t\n      PUSH 40\t\t\t\n      SWAP1 \t\t\t\n      KECCAK256 \t\t\t\n      SLOAD \t\t\t\n      PUSH [tag] 728\t\t\t\n      SWAP1 \t\t\t\n      DUP3 \t\t\t\n      SWAP1 \t\t\t\n      PUSH [tag] 417\t\t\t\n      JUMP [in]\t\t\t\n    tag 728\t\t\t\n      JUMPDEST \t\t\t\n      PUSH 1\t\t\t\n      PUSH 1\t\t\t\n      PUSH A0\t\t\t\n      SHL \t\t\t\n      SUB \t\t\t\n      DUP8 \t\t\t\n      AND \t\t\t\n      PUSH 0\t\t\t\n      SWAP1 \t\t\t\n      DUP2 \t\t\t\n      MSTORE \t\t\t\n      PUSH E\t\t\t\n      PUSH 20\t\t\t\n      MSTORE \t\t\t\n      PUSH 40\t\t\t\n      SWAP1 \t\t\t\n      DUP2 \t\t\t\n      SWAP1 \t\t\t\n      KECCAK256 \t\t\t\n      SWAP2 \t\t\t\n      SWAP1 \t\t\t\n      SWAP2 \t\t\t\n      SSTORE \t\t\t\n      MLOAD \t\t\t\n      PUSH 4C209B5FC8AD50758F13E2E1088BA56A560DFF690A1C6FEF26394F4C03821C4F\t\t\t\n      SWAP1 \t\t\t\n      PUSH [tag] 729\t\t\t\n      SWAP1 \t\t\t\n      DUP9 \t\t\t\n      SWAP1 \t\t\t\n      DUP6 \t\t\t\n      SWAP1 \t\t\t\n      DUP6 \t\t\t\n      SWAP1 \t\t\t\n      PUSH [tag] 549\t\t\t\n      JUMP [in]\t\t\t\n    tag 729\t\t\t\n      JUMPDEST \t\t\t\n      PUSH 40\t\t\t\n      MLOAD \t\t\t\n      DUP1 \t\t\t\n      SWAP2 \t\t\t\n      SUB \t\t\t\n      SWAP1 \t\t\t\n      LOG1 \t\t\t\n      PUSH 40\t\t\t\n      MLOAD \t\t\t\n      DUP2 \t\t\t\n      DUP2 \t\t\t\n      MSTORE \t\t\t\n      PUSH 1\t\t\t\n      PUSH 1\t\t\t\n      PUSH A0\t\t\t\n      SHL \t\t\t\n      SUB \t\t\t\n      DUP8 \t\t\t\n      AND \t\t\t\n      SWAP1 \t\t\t\n      ADDRESS \t\t\t\n      SWAP1 \t\t\t\n      PUSH 0\t\t\t\n      DUP1 \t\t\t\n      MLOAD \t\t\t\n      PUSH 20\t\t\t\n      PUSH data ADA389E1FC24A8587C776340EFB91B36E675792AB631816100D55DF0B5CF3CBC\t\t\t\n      DUP4 \t\t\t\n      CODECOPY \t\t\t\n      DUP2 \t\t\t\n      MLOAD \t\t\t\n      SWAP2 \t\t\t\n      MSTORE \t\t\t\n      SWAP1 \t\t\t\n      PUSH 20\t\t\t\n      ADD \t\t\t\\r\\n}\\r\\n\n      PUSH 40\t\t\t\n      MLOAD \t\t\t\n      DUP1 \t\t\t\n      SWAP2 \t\t\t\n      SUB \t\t\t\n      SWAP1 \t\t\t\n      LOG3 \t\t\t\n      PUSH 5\t\t\t\n      SLOAD \t\t\t\n      PUSH 40\t\t\t\n      MLOAD \t\t\t\n      PUSH 41C728B9\t\t\t\n      PUSH E0\t\t\t\n      SHL \t\t\t\n      DUP2 \t\t\t\n      MSTORE \t\t\t\n      ADDRESS \t\t\t\n      PUSH 4\t\t\t\n      DUP3 \t\t\t\n      ADD \t\t\t\n      MSTORE \t\t\t\n      PUSH 1\t\t\t\n      PUSH 1\t\t\t\n      PUSH A0\t\t\t\n      SHL \t\t\t\n      SUB \t\t\t\n      DUP9 \t\t\t\n      DUP2 \t\t\t\n      AND \t\t\t\n      PUSH 24\t\t\t\n      DUP4 \t\t\t\n      ADD \t\t\t\n      MSTORE \t\t\t\n      PUSH 44\t\t\t\n      DUP3 \t\t\t\n      ADD \t\t\t\n      DUP6 \t\t\t\n      SWAP1 \t\t\t\n      MSTORE \t\t\t\n      PUSH 64\t\t\t\n      DUP3 \t\t\t\n      ADD \t\t\t\n      DUP5 \t\t\t\n      SWAP1 \t\t\t\n      MSTORE \t\t\t\n      SWAP1 \t\t\t\n      SWAP2 \t\t\t\n      AND \t\t\t\n      SWAP1 \t\t\t\n      PUSH 41C728B9\t\t\t\n      SWAP1 \t\t\t\n      PUSH 84\t\t\t\n      ADD \t\t\t\n      PUSH 0\t\t\t\n      PUSH 40\t\t\t\n      MLOAD \t\t\t\n      DUP1 \t\t\t\n      DUP4 \t\t\t\n      SUB \t\t\t\n      DUP2 \t\t\t\n      PUSH 0\t\t\t\n      DUP8 \t\t\t\n      DUP1 \t\t\t\n      EXTCODESIZE \t\t\t\n      ISZERO \t\t\t\n      DUP1 \t\t\t\n      ISZERO \t\t\t\n      PUSH [tag] 733\t\t\t\n      JUMPI \t\t\t\n      PUSH 0\t\t\t\n      DUP1 \t\t\t\n      REVERT \t\t\t\n    tag 733\t\t\t\n      JUMPDEST \t\t\t\n      POP \t\t\t\n      GAS \t\t\t\n      CALL \t\t\t\n      ISZERO \t\t\t\n      DUP1 \t\t\t\n      ISZERO \t\t\t\n      PUSH [tag] 735\t\t\t\n      JUMPI \t\t\t\n      RETURNDATASIZE \t\t\t\n      PUSH 0\t\t\t\n      DUP1 \t\t\t\n      RETURNDATACOPY \t\t\t\n      RETURNDATASIZE \t\t\t\n      PUSH 0\t\t\t\n      REVERT \t\t\t\n    tag 735\t\t\t\n      JUMPDEST \t\t\t\n      POP \t\t\t\n      POP \t\t\t\n      POP \t\t\t\n      POP \t\t\t\n      POP \t\t\t\n      POP \t\t\t\n      POP \t\t\t\n      POP \t\t\t\n      POP \t\t\t\n      POP \t\t\t\n      JUMP [out]\t\t\t\n    tag 584\t\t\t\n      JUMPDEST \t\t\t\n      PUSH 0\t\t\t\n      PUSH [tag] 320\t\t\t\n      DUP3 \t\t\t\n      DUP5 \t\t\t\n      PUSH [tag] 497\t\t\t\n      JUMP [in]\t\t\t\n    tag 589\t\t\t\n      JUMPDEST \t\t\t\n      PUSH 0\t\t\t\n      PUSH [tag] 320\t\t\t\n      DUP3 \t\t\t\n      DUP5 \t\t\t\n      PUSH [tag] 417\t\t\t\n      JUMP [in]\t\t\t\n    tag 600\t\t\t\n      JUMPDEST \t\t\t\n      PUSH 0\t\t\t\n      PUSH DE0B6B3A7640000\t\t\t * @\n      PUSH [tag] 741\t\t\t\n      DUP5 \t\t\t\n      DUP5 \t\t\t\n      PUSH 0\t\t\t\n      ADD \t\t\t\n      MLOAD \t\t\t\n      PUSH [tag] 584\t\t\t\n      JUMP [in]\t\t\t\n    tag 741\t\t\t\n      JUMPDEST \t\t\t\n      PUSH [tag] 320\t\t\t\n      SWAP2 \t\t\t\n      SWAP1 \t\t\t\n      PUSH [tag] 499\t\t\t\n      JUMP [in]\t\t\t\n    tag 618\t\t\t\n      JUMPDEST \t\t\t\n      PUSH 5\t\t\t\n      SLOAD \t\t\t\n      PUSH 40\t\t\t\n      MLOAD \t\t\t\n      PUSH 368F5153\t\t\t\n      PUSH E2\t\t\t\n      SHL \t\t\t\n      DUP2 \t\t\t\n      MSTORE \t\t\t\n      PUSH 0\t\t\t\n      SWAP2 \t\t\t\n      PUSH 1\t\t\t\n      PUSH 1\t\t\t\n      PUSH A0\t\t\t\n      SHL \t\t\t\n      SUB \t\t\t\n      AND \t\t\t\n      SWAP1 \t\t\t\n      PUSH DA3D454C\t\t\t\n      SWAP1 \t\t\t\n      PUSH [tag] 744\t\t\t\n      SWAP1 \t\t\t\n      ADDRESS \t\t\t\n      SWAP1 \t\t\t\n      DUP8 \t\t\t\n      SWAP1 \t\t\t\n      DUP8 \t\t\t\n      SWAP1 \t\t\t\n      PUSH 4\t\t\t\n      ADD \t\t\t\n      PUSH [tag] 694\t\t\t\n      JUMP [in]\t\t\t\n    tag 744\t\t\t\n      JUMPDEST \t\t\t\n      PUSH 20\t\t\t\n      PUSH 40\t\t\t\n      MLOAD \t\t\t\n      DUP1 \t\t\t\n      DUP4 \t\t\t\n      SUB \t\t\t\n      DUP2 \t\t\t\n      PUSH 0\t\t\t\n      DUP8 \t\t\t\n      GAS \t\t\t\n      CALL \t\t\t\n      ISZERO \t\t\t\n      DUP1 \t\t\t\n      ISZERO \t\t\t\n      PUSH [tag] 746\t\t\t\n      JUMPI \t\t\t\n      RETURNDATASIZE \t\t\t\n      PUSH 0\t\t\t\n      DUP1 \t\t\t\n      RETURNDATACOPY \t\t\t\n      RETURNDATASIZE \t\t\t\n      PUSH 0\t\t\t\n      REVERT \t\t\t\n    tag 746\t\t\t\n      JUMPDEST \t\t\t\n      POP \t\t\t\n      POP \t\t\t\n      POP \t\t\t\n      POP \t\t\t\n      PUSH 40\t\t\t\n      MLOAD \t\t\t\n      RETURNDATASIZE \t\t\t\n      PUSH 1F\t\t\t\n      NOT \t\t\t\n      PUSH 1F\t\t\t\n      DUP3 \t\t\t\n      ADD \t\t\t\n      AND \t\t\t\n      DUP3 \t\t\t\n      ADD \t\t\t\n      DUP1 \t\t\t\n      PUSH 40\t\t\t\n      MSTORE \t\t\t\n      POP \t\t\t\n      DUP2 \t\t\t\n      ADD \t\t\t\n      SWAP1 \t\t\t\n      PUSH [tag] 747\t\t\t\n      SWAP2 \t\t\t\n      SWAP1 \t\t\t\n      PUSH [tag] 292\t\t\t\n      JUMP [in]\t\t\t\n    tag 747\t\t\t\n      JUMPDEST \t\t\t\n      SWAP1 \t\t\t\n      POP \t\t\t\n      DUP1 \t\t\t\n      ISZERO \t\t\t\n      PUSH [tag] 748\t\t\t\n      JUMPI \t\t\t\n      PUSH 40\t\t\t\n      MLOAD \t\t\t\n      PUSH 918DB40F\t\t\t\n      PUSH E0\t\t\t\n      SHL \t\t\t\n      DUP2 \t\t\t\n      MSTORE \t\t\t\n      PUSH 4\t\t\t\n      DUP2 \t\t\t\n      ADD \t\t\t\n      DUP3 \t\t\t\n      SWAP1 \t\t\t\n      MSTORE \t\t\t\n      PUSH 24\t\t\t\\r\\n}\\r\\n\n      ADD \t\t\t\\r\\n}\\r\\n\n      PUSH [tag] 279\t\t\t\n      JUMP \t\t\tsymbol_, decimals_);\\r\\n\\r\\n  ...\n    tag 748\t\t\t\n      JUMPDEST \t\t\t\n      TIMESTAMP \t\t\t\n      PUSH 9\t\t\t\n      SLOAD \t\t\t\n      EQ \t\t\t\n      PUSH [tag] 751\t\t\t\n      JUMPI \t\t\t\n      PUSH 40\t\t\t\n      MLOAD \t\t\t\n      PUSH E8D8C61\t\t\t\n      PUSH E2\t\t\t\n      SHL \t\t\t\n      DUP2 \t\t\t\n      MSTORE \t\t\t\n      PUSH 4\t\t\t\n      ADD \t\t\t\n      PUSH 40\t\t\t\n      MLOAD \t\t\t\n      DUP1 \t\t\t\n      SWAP2 \t\t\t\n      SUB \t\t\t\n      SWAP1 \t\t\t\n      REVERT \t\t\t\n    tag 751\t\t\t\n      JUMPDEST \t\t\t\n      DUP2 \t\t\t\n      PUSH [tag] 752\t\t\t\n      PUSH [tag] 324\t\t\t\n      JUMP [in]\t\t\t\n    tag 752\t\t\t\n      JUMPDEST \t\t\t\n      LT \t\t\t\n      ISZERO \t\t\t\n      PUSH [tag] 753\t\t\t\n      JUMPI \t\t\t\n      PUSH 40\t\t\t\n      MLOAD \t\t\t\n      PUSH 48C25881\t\t\t\n      PUSH E0\t\t\t\n      SHL \t\t\t\n      DUP2 \t\t\t\n      MSTORE \t\t\t\n      PUSH 4\t\t\t\n      ADD \t\t\t\n      PUSH 40\t\t\t\n      MLOAD \t\t\t\n      DUP1 \t\t\t\n      SWAP2 \t\t\t\n      SUB \t\t\t\n      SWAP1 \t\t\t\n      REVERT \t\t\t\n    tag 753\t\t\t\n      JUMPDEST \t\t\t\n      PUSH 0\t\t\t\n      PUSH [tag] 754\t\t\t\n      DUP5 \t\t\t\n      PUSH [tag] 370\t\t\t\n      JUMP [in]\t\t\t\n    tag 754\t\t\t\n      JUMPDEST \t\t\t\n      SWAP1 \t\t\t\n      POP \t\t\t\n      PUSH 0\t\t\t\n      PUSH [tag] 755\t\t\t\n      DUP5 \t\t\t\n      DUP4 \t\t\t\n      PUSH [tag] 417\t\t\t\n      JUMP [in]\t\t\t\n    tag 755\t\t\t\n      JUMPDEST \t\t\t\n      SWAP1 \t\t\t\n      POP \t\t\t\n      PUSH 0\t\t\t\n      DUP5 \t\t\t\n      PUSH B\t\t\t\n      SLOAD \t\t\t\n      PUSH [tag] 756\t\t\t\n      SWAP2 \t\t\t\n      SWAP1 \t\t\t\n      PUSH [tag] 417\t\t\t\n      JUMP [in]\t\t\t\n    tag 756\t\t\t\n      JUMPDEST \t\t\t\n      PUSH 1\t\t\t\n      PUSH 1\t\t\t\n      PUSH A0\t\t\t\n      SHL \t\t\t\n      SUB \t\t\t\n      DUP8 \t\t\t\n      AND \t\t\t\n      PUSH 0\t\t\t\n      SWAP1 \t\t\t\n      DUP2 \t\t\t\n      MSTORE \t\t\t\n      PUSH 10\t\t\t\n      PUSH 20\t\t\t\n      MSTORE \t\t\t\n      PUSH 40\t\t\t\n      SWAP1 \t\t\t\n      KECCAK256 \t\t\t\n      DUP4 \t\t\t\n      DUP2 \t\t\t\n      SSTORE \t\t\t\n      PUSH A\t\t\t\n      SLOAD \t\t\t\n      PUSH 1\t\t\t\n      SWAP1 \t\t\t\n      SWAP2 \t\t\t\n      ADD \t\t\t\n      SSTORE \t\t\t\n      PUSH B\t\t\t\n      DUP2 \t\t\t\n      SWAP1 \t\t\t\n      SSTORE \t\t\t\n      SWAP1 \t\t\t\n      POP \t\t\t\n      PUSH [tag] 757\t\t\t\n      DUP7 \t\t\t\n      DUP7 \t\t\t\n      PUSH [tag] 547\t\t\t\n      JUMP [in]\t\t\t\n    tag 757\t\t\t\n      JUMPDEST \t\t\t\n      PUSH 40\t\t\t\n      DUP1 \t\t\t\n      MLOAD \t\t\t\n      PUSH 1\t\t\t\n      PUSH 1\t\t\t\n      PUSH A0\t\t\t\n      SHL \t\t\t\n      SUB \t\t\t\n      DUP9 \t\t\t\n      AND \t\t\t\n      DUP2 \t\t\t\n      MSTORE \t\t\t\n      PUSH 20\t\t\t\n      DUP2 \t\t\t\n      ADD \t\t\t\n      DUP8 \t\t\t\n      SWAP1 \t\t\t\n      MSTORE \t\t\t\n      SWAP1 \t\t\t\n      DUP2 \t\t\t\n      ADD \t\t\t\n      DUP4 \t\t\t\n      SWAP1 \t\t\t\n      MSTORE \t\t\t\n      PUSH 60\t\t\t\n      DUP2 \t\t\t\n      ADD \t\t\t\n      DUP3 \t\t\t\n      SWAP1 \t\t\t\n      MSTORE \t\t\t\n      PUSH 13ED6866D4E1EE6DA46F845C46D7E54120883D75C5EA9A2DACC1C4CA8984AB80\t\t\t\n      SWAP1 \t\t\t\n      PUSH 80\t\t\t\n      ADD \t\t\t\n      PUSH 40\t\t\t\n      MLOAD \t\t\t\n      DUP1 \t\t\t\n      SWAP2 \t\t\t\n      SUB \t\t\t\n      SWAP1 \t\t\t\n      LOG1 \t\t\t\n      POP \t\t\t\n      POP \t\t\t\n      POP \t\t\t\n      POP \t\t\t\n      POP \t\t\t\n      POP \t\t\t\n      JUMP [out]\t\t\t\n    tag 636\t\t\t\n      JUMPDEST \t\t\t\n      PUSH 5\t\t\t\n      SLOAD \t\t\t\n      PUSH 40\t\t\t\n      MLOAD \t\t\t\n      PUSH 2FE3F38F\t\t\t\n      PUSH E1\t\t\t\n      SHL \t\t\t\n      DUP2 \t\t\t\n      MSTORE \t\t\t\n      ADDRESS \t\t\t\n      PUSH 4\t\t\t\n      DUP3 \t\t\t\n      ADD \t\t\t\n      MSTORE \t\t\t\n      PUSH 1\t\t\t\n      PUSH 1\t\t\t\n      PUSH A0\t\t\t\n      SHL \t\t\t\n      SUB \t\t\t\n      DUP4 \t\t\t\n      DUP2 \t\t\t\n      AND \t\t\t\n      PUSH 24\t\t\t\n      DUP4 \t\t\t\n      ADD \t\t\t\n      MSTORE \t\t\t\n      DUP7 \t\t\t\n      DUP2 \t\t\t\n      AND \t\t\t\n      PUSH 44\t\t\t\n      DUP4 \t\t\t\n      ADD \t\t\t\n      MSTORE \t\t\t\n      DUP6 \t\t\t\n      DUP2 \t\t\t\n      AND \t\t\t\n      PUSH 64\t\t\t\n      DUP4 \t\t\t\n      ADD \t\t\t\n      MSTORE \t\t\t\n      PUSH 84\t\t\t\n      DUP3 \t\t\t\n      ADD \t\t\t\n      DUP6 \t\t\t\n      SWAP1 \t\t\t\n      MSTORE \t\t\t\n      PUSH 0\t\t\t\n      SWAP3 \t\t\t\n      AND \t\t\t\n      SWAP1 \t\t\t\n      PUSH 5FC7E71E\t\t\t\n      SWAP1 \t\t\t\n      PUSH A4\t\t\t\n      ADD \t\t\t\n      PUSH 20\t\t\t\n      PUSH 40\t\t\t\n      MLOAD \t\t\t\n      DUP1 \t\t\t\n      DUP4 \t\t\t\n      SUB \t\t\t\n      DUP2 \t\t\t\n      PUSH 0\t\t\t\n      DUP8 \t\t\t\n      GAS \t\t\t\n      CALL \t\t\t\n      ISZERO \t\t\t\n      DUP1 \t\t\t\n      ISZERO \t\t\t\n      PUSH [tag] 763\t\t\t\n      JUMPI \t\t\t\n      RETURNDATASIZE \t\t\t\n      PUSH 0\t\t\t\n      DUP1 \t\t\t\n      RETURNDATACOPY \t\t\t\n      RETURNDATASIZE \t\t\t\n      PUSH 0\t\t\t\n      REVERT \t\t\t\n    tag 763\t\t\t\n      JUMPDEST \t\t\t\n      POP \t\t\t\n      POP \t\t\t\n      POP \t\t\t\n      POP \t\t\t\n      PUSH 40\t\t\t\n      MLOAD \t\t\t\n      RETURNDATASIZE \t\t\t\n      PUSH 1F\t\t\t\n      NOT \t\t\t\n      PUSH 1F\t\t\t\n      DUP3 \t\t\t\n      ADD \t\t\t\n      AND \t\t\t\n      DUP3 \t\t\t\n      ADD \t\t\t\n      DUP1 \t\t\t\n      PUSH 40\t\t\t\n      MSTORE \t\t\t\n      POP \t\t\t\n      DUP2 \t\t\t\n      ADD \t\t\t\n      SWAP1 \t\t\t\n      PUSH [tag] 764\t\t\t\n      SWAP2 \t\t\t\n      SWAP1 \t\t\t\n      PUSH [tag] 292\t\t\t\n      JUMP [in]\t\t\t\n    tag 764\t\t\t\n      JUMPDEST \t\t\t\n      SWAP1 \t\t\t\n      POP \t\t\t\n      DUP1 \t\t\t\n      ISZERO \t\t\t\n      PUSH [tag] 765\t\t\t\n      JUMPI \t\t\t\n      PUSH 40\t\t\t\n      MLOAD \t\t\t\n      PUSH A14D179\t\t\t\n      PUSH E1\t\t\t\n      SHL \t\t\t\n      DUP2 \t\t\t\n      MSTORE \t\t\t\n      PUSH 4\t\t\t\n      DUP2 \t\t\t\n      ADD \t\t\t\n      DUP3 \t\t\t\n      SWAP1 \t\t\t\n      MSTORE \t\t\t\n      PUSH 24\t\t\t\\r\\n}\\r\\n\n      ADD \t\t\t\\r\\n}\\r\\n\n      PUSH [tag] 279\t\t\t\n      JUMP \t\t\tsymbol_, decimals_);\\r\\n\\r\\n  ...\n    tag 765\t\t\t\n      JUMPDEST \t\t\t\n      TIMESTAMP \t\t\t\n      PUSH 9\t\t\t\n      SLOAD \t\t\t\n      EQ \t\t\t\n      PUSH [tag] 768\t\t\t\n      JUMPI \t\t\t\n      PUSH 40\t\t\t\n      MLOAD \t\t\t\n      PUSH 80965B1B\t\t\t\n      PUSH E0\t\t\t\n      SHL \t\t\t\n      DUP2 \t\t\t\n      MSTORE \t\t\t\n      PUSH 4\t\t\t\n      ADD \t\t\t\n      PUSH 40\t\t\t\n      MLOAD \t\t\t\n      DUP1 \t\t\t\n      SWAP2 \t\t\t\n      SUB \t\t\t\n      SWAP1 \t\t\t\n      REVERT \t\t\t\n    tag 768\t\t\t\n      JUMPDEST \t\t\t\n      TIMESTAMP \t\t\t\n      DUP3 \t\t\t\n      PUSH 1\t\t\t\n      PUSH 1\t\t\t\n      PUSH A0\t\t\t\n      SHL \t\t\t\n      SUB \t\t\t\n      AND \t\t\t\n      PUSH 6C540BAF\t\t\t\n      PUSH 40\t\t\t\n      MLOAD \t\t\t\n      DUP2 \t\t\t\n      PUSH FFFFFFFF\t\t\t\n      AND \t\t\t\n      PUSH E0\t\t\t\n      SHL \t\t\t\n      DUP2 \t\t\t\n      MSTORE \t\t\t\n      PUSH 4\t\t\t\n      ADD \t\t\t\n      PUSH 20\t\t\t\n      PUSH 40\t\t\t\n      MLOAD \t\t\t\n      DUP1 \t\t\t\n      DUP4 \t\t\t\n      SUB \t\t\t\n      DUP2 \t\t\t\n      DUP7 \t\t\t\n      GAS \t\t\t\n      STATICCALL \t\t\t\n      ISZERO \t\t\t\n      DUP1 \t\t\t\n      ISZERO \t\t\t\n      PUSH [tag] 771\t\t\t\n      JUMPI \t\t\t\n      RETURNDATASIZE \t\t\t\n      PUSH 0\t\t\t\n      DUP1 \t\t\t\n      RETURNDATACOPY \t\t\t\n      RETURNDATASIZE \t\t\t\n      PUSH 0\t\t\t\n      REVERT \t\t\t\n    tag 771\t\t\t\n      JUMPDEST \t\t\t\n      POP \t\t\t\n      POP \t\t\t\n      POP \t\t\t\n      POP \t\t\t\n      PUSH 40\t\t\t\n      MLOAD \t\t\t\n      RETURNDATASIZE \t\t\t\n      PUSH 1F\t\t\t\n      NOT \t\t\t\n      PUSH 1F\t\t\t\n      DUP3 \t\t\t\n      ADD \t\t\t\n      AND \t\t\t\n      DUP3 \t\t\t\n      ADD \t\t\t\n      DUP1 \t\t\t\n      PUSH 40\t\t\t\n      MSTORE \t\t\t\n      POP \t\t\t\n      DUP2 \t\t\t\n      ADD \t\t\t\n      SWAP1 \t\t\t\n      PUSH [tag] 772\t\t\t\n      SWAP2 \t\t\t\n      SWAP1 \t\t\t\n      PUSH [tag] 292\t\t\t\n      JUMP [in]\t\t\t\n    tag 772\t\t\t\n      JUMPDEST \t\t\t\n      EQ \t\t\t\n      PUSH [tag] 773\t\t\t\n      JUMPI \t\t\t\n      PUSH 40\t\t\t\n      MLOAD \t\t\t\n      PUSH 1046F38D\t\t\t\n      PUSH E3\t\t\t\n      SHL \t\t\t\n      DUP2 \t\t\t\n      MSTORE \t\t\t\n      PUSH 4\t\t\t\n      ADD \t\t\t\n      PUSH 40\t\t\t\n      MLOAD \t\t\t\n      DUP1 \t\t\t\n      SWAP2 \t\t\t\n      SUB \t\t\t\n      SWAP1 \t\t\t\n      REVERT \t\t\t\n    tag 773\t\t\t\n      JUMPDEST \t\t\t\n      DUP5 \t\t\t\n      PUSH 1\t\t\t\n      PUSH 1\t\t\t\n      PUSH A0\t\t\t\n      SHL \t\t\t\n      SUB \t\t\t\n      AND \t\t\t\n      DUP5 \t\t\t\n      PUSH 1\t\t\t\n      PUSH 1\t\t\t\n      PUSH A0\t\t\t\n      SHL \t\t\t\n      SUB \t\t\t\n      AND \t\t\t\n      EQ \t\t\t\n      ISZERO \t\t\t\n      PUSH [tag] 774\t\t\t\n      JUMPI \t\t\t\n      PUSH 40\t\t\t\n      MLOAD \t\t\t\n      PUSH 1BD1A621\t\t\t\n      PUSH E2\t\t\t\n      SHL \t\t\t\n      DUP2 \t\t\t\n      MSTORE \t\t\t\n      PUSH 4\t\t\t\n      ADD \t\t\t\n      PUSH 40\t\t\t\n      MLOAD \t\t\t\n      DUP1 \t\t\t\n      SWAP2 \t\t\t\n      SUB \t\t\t\n      SWAP1 \t\t\t\n      REVERT \t\t\t\n    tag 774\t\t\t\n      JUMPDEST \t\t\t\n      DUP3 \t\t\t\n      PUSH [tag] 775\t\t\t\n      JUMPI \t\t\t\n      PUSH 40\t\t\t\n      MLOAD \t\t\t\n      PUSH D29DA7EF\t\t\t\n      PUSH E0\t\t\t\n      SHL \t\t\t\n      DUP2 \t\t\t\n      MSTORE \t\t\t\n      PUSH 4\t\t\t\n      ADD \t\t\t\n      PUSH 40\t\t\t\n      MLOAD \t\t\t\n      DUP1 \t\t\t\n      SWAP2 \t\t\t\n      SUB \t\t\t\n      SWAP1 \t\t\t\n      REVERT \t\t\t\n    tag 775\t\t\t\n      JUMPDEST \t\t\t\n      PUSH 0\t\t\t\n      NOT \t\t\t\n      DUP4 \t\t\t\n      EQ \t\t\t\n      ISZERO \t\t\t\n      PUSH [tag] 776\t\t\t\n      JUMPI \t\t\t\n      PUSH 40\t\t\t\n      MLOAD \t\t\t\n      PUSH 5982C5BB\t\t\t\n      PUSH E1\t\t\t\n      SHL \t\t\t\n      DUP2 \t\t\t\n      MSTORE \t\t\t\n      PUSH 4\t\t\t\n      ADD \t\t\t\n      PUSH 40\t\t\t\n      MLOAD \t\t\t\n      DUP1 \t\t\t\n      SWAP2 \t\t\t\n      SUB \t\t\t\n      SWAP1 \t\t\t\n      REVERT \t\t\t\n    tag 776\t\t\t\n      JUMPDEST \t\t\t\n      PUSH 0\t\t\t\n      PUSH [tag] 777\t\t\t\n      DUP7 \t\t\t\n      DUP7 \t\t\t\n      DUP7 \t\t\t\n      PUSH [tag] 489\t\t\t\n      JUMP [in]\t\t\t\n    tag 777\t\t\t\n      JUMPDEST \t\t\t\n      PUSH 5\t\t\t\n      SLOAD \t\t\t\n      PUSH 40\t\t\t\n      MLOAD \t\t\t\n      PUSH C488847B\t\t\t\n      PUSH E0\t\t\t\n      SHL \t\t\t\n      DUP2 \t\t\t\n      MSTORE \t\t\t\n      SWAP2 \t\t\t\n      SWAP3 \t\t\t\n      POP \t\t\t\n      PUSH 0\t\t\t\n      SWAP2 \t\t\t\n      DUP3 \t\t\t\n      SWAP2 \t\t\t\n      PUSH 1\t\t\t\n      PUSH 1\t\t\t\n      PUSH A0\t\t\t\n      SHL \t\t\t\n      SUB \t\t\t\n      AND \t\t\t\n      SWAP1 \t\t\t\n      PUSH C488847B\t\t\t\n      SWAP1 \t\t\t\n      PUSH [tag] 778\t\t\t\n      SWAP1 \t\t\t\n      ADDRESS \t\t\t\n      SWAP1 \t\t\t\n      DUP10 \t\t\t\n      SWAP1 \t\t\t\n      DUP9 \t\t\t\n      SWAP1 \t\t\t\n      PUSH 4\t\t\t\n      ADD \t\t\t\n      PUSH [tag] 694\t\t\t\n      JUMP [in]\t\t\t\n    tag 778\t\t\t\n      JUMPDEST \t\t\t\n      PUSH 40\t\t\t\n      DUP1 \t\t\t\n      MLOAD \t\t\t\n      DUP1 \t\t\t\n      DUP4 \t\t\t\n      SUB \t\t\t\n      DUP2 \t\t\t\n      DUP7 \t\t\t\n      GAS \t\t\t\n      STATICCALL \t\t\t\n      ISZERO \t\t\t\n      DUP1 \t\t\t\n      ISZERO \t\t\t\n      PUSH [tag] 780\t\t\t\n      JUMPI \t\t\t\n      RETURNDATASIZE \t\t\t\n      PUSH 0\t\t\t\n      DUP1 \t\t\t\n      RETURNDATACOPY \t\t\t\n      RETURNDATASIZE \t\t\t\n      PUSH 0\t\t\t\n      REVERT \t\t\t\n    tag 780\t\t\t\n      JUMPDEST \t\t\t\n      POP \t\t\t\n      POP \t\t\t\n      POP \t\t\t\n      POP \t\t\t\n      PUSH 40\t\t\t\n      MLOAD \t\t\t\n      RETURNDATASIZE \t\t\t\n      PUSH 1F\t\t\t\n      NOT \t\t\t\n      PUSH 1F\t\t\t\n      DUP3 \t\t\t\n      ADD \t\t\t\n      AND \t\t\t\n      DUP3 \t\t\t\n      ADD \t\t\t\n      DUP1 \t\t\t\n      PUSH 40\t\t\t\n      MSTORE \t\t\t\n      POP \t\t\t\n      DUP2 \t\t\t\n      ADD \t\t\t\n      SWAP1 \t\t\t\n      PUSH [tag] 781\t\t\t\n      SWAP2 \t\t\t\n      SWAP1 \t\t\t\n      PUSH [tag] 782\t\t\t\n      JUMP [in]\t\t\t\n    tag 781\t\t\t\n      JUMPDEST \t\t\t\n      SWAP2 \t\t\t\n      POP \t\t\t\n      SWAP2 \t\t\t\n      POP \t\t\t\n      PUSH 0\t\t\t\n      DUP3 \t\t\t\n      EQ \t\t\t\n      PUSH [tag] 783\t\t\t\n      JUMPI \t\t\t\n      PUSH 40\t\t\t\n      MLOAD \t\t\t\n      PUSH 461BCD\t\t\t\n      PUSH E5\t\t\t\n      SHL \t\t\t\n      DUP2 \t\t\t\n      MSTORE \t\t\t\n      PUSH 20\t\t\t\n      PUSH 4\t\t\t\n      DUP3 \t\t\t\n      ADD \t\t\t\n      MSTORE \t\t\t\n      PUSH 33\t\t\t\n      PUSH 24\t\t\t\n      DUP3 \t\t\t\n      ADD \t\t\t\n      MSTORE \t\t\t\n      PUSH 4C49515549444154455F434F4D5054524F4C4C45525F43414C43554C4154455F\t\t\t\n      PUSH 44\t\t\t\n      DUP3 \t\t\t\n      ADD \t\t\t\n      MSTORE \t\t\t\n      PUSH 105353D5539517D4D152569157D19052531151\t\t\t\n      PUSH 6A\t\t\t\n      SHL \t\t\t\n      PUSH 64\t\t\t\n      DUP3 \t\t\t\n      ADD \t\t\t\n      MSTORE \t\t\t\n      PUSH 84\t\t\t\n      ADD \t\t\t\n      PUSH [tag] 279\t\t\t\n      JUMP \t\t\t\n    tag 783\t\t\t\n      JUMPDEST \t\t\t\n      PUSH 40\t\t\t\n      MLOAD \t\t\t\n      PUSH 70A08231\t\t\t\n      PUSH E0\t\t\t\n      SHL \t\t\t\n      DUP2 \t\t\t\n      MSTORE \t\t\t\n      PUSH 1\t\t\t\n      PUSH 1\t\t\t\n      PUSH A0\t\t\t\n      SHL \t\t\t\n      SUB \t\t\t\n      DUP9 \t\t\t\n      DUP2 \t\t\t\n      AND \t\t\t\n      PUSH 4\t\t\t\n      DUP4 \t\t\t\n      ADD \t\t\t\n      MSTORE \t\t\t\n      DUP3 \t\t\t\n      SWAP2 \t\t\t\n      SWAP1 \t\t\t\n      DUP8 \t\t\t\n      AND \t\t\t\n      SWAP1 \t\t\t\n      PUSH 70A08231\t\t\t\n      SWAP1 \t\t\t\n      PUSH 24\t\t\t\n      ADD \t\t\t\n      PUSH 20\t\t\t\n      PUSH 40\t\t\t\n      MLOAD \t\t\t\n      DUP1 \t\t\t\n      DUP4 \t\t\t\n      SUB \t\t\t\n      DUP2 \t\t\t\n      DUP7 \t\t\t\n      GAS \t\t\t\n      STATICCALL \t\t\t\n      ISZERO \t\t\t\n      DUP1 \t\t\t\n      ISZERO \t\t\t\n      PUSH [tag] 788\t\t\t\n      JUMPI \t\t\t\n      RETURNDATASIZE \t\t\t\n      PUSH 0\t\t\t\n      DUP1 \t\t\t\n      RETURNDATACOPY \t\t\t\n      RETURNDATASIZE \t\t\t\n      PUSH 0\t\t\t\n      REVERT \t\t\t\n    tag 788\t\t\t\n      JUMPDEST \t\t\t\n      POP \t\t\t\n      POP \t\t\t\n      POP \t\t\t\n      POP \t\t\t\n      PUSH 40\t\t\t\n      MLOAD \t\t\t\n      RETURNDATASIZE \t\t\t\n      PUSH 1F\t\t\t\n      NOT \t\t\t\n      PUSH 1F\t\t\t\n      DUP3 \t\t\t\n      ADD \t\t\t\n      AND \t\t\t\n      DUP3 \t\t\t\n      ADD \t\t\t\n      DUP1 \t\t\t\n      PUSH 40\t\t\t\n      MSTORE \t\t\t\n      POP \t\t\t\n      DUP2 \t\t\t\n      ADD \t\t\t\n      SWAP1 \t\t\t\n      PUSH [tag] 789\t\t\t\n      SWAP2 \t\t\t\n      SWAP1 \t\t\t\n      PUSH [tag] 292\t\t\t\n      JUMP [in]\t\t\t\n    tag 789\t\t\t\n      JUMPDEST \t\t\t\n      LT \t\t\t\n      ISZERO \t\t\t\n      PUSH [tag] 790\t\t\t\n      JUMPI \t\t\t\n      PUSH 40\t\t\t\n      MLOAD \t\t\t\n      PUSH 461BCD\t\t\t\n      PUSH E5\t\t\t\n      SHL \t\t\t\n      DUP2 \t\t\t\n      MSTORE \t\t\t\n      PUSH 20\t\t\t\n      PUSH 4\t\t\t\n      DUP3 \t\t\t\n      ADD \t\t\t\n      MSTORE \t\t\t\n      PUSH 18\t\t\t\n      PUSH 24\t\t\t\n      DUP3 \t\t\t\n      ADD \t\t\t\n      MSTORE \t\t\t\n      PUSH 4C49515549444154455F5345495A455F544F4F5F4D5543480000000000000000\t\t\t\n      PUSH 44\t\t\t\n      DUP3 \t\t\t\n      ADD \t\t\t\n      MSTORE \t\t\t\n      PUSH 64\t\t\t\n      ADD \t\t\t\n      PUSH [tag] 279\t\t\t\n      JUMP \t\t\t\n    tag 790\t\t\t\n      JUMPDEST \t\t\t\n      PUSH 1\t\t\t\n      PUSH 1\t\t\t\n      PUSH A0\t\t\t\n      SHL \t\t\t\n      SUB \t\t\t\n      DUP6 \t\t\t\n      AND \t\t\t\n      ADDRESS \t\t\t\n      EQ \t\t\t\n      ISZERO \t\t\t\n      PUSH [tag] 793\t\t\t\n      JUMPI \t\t\t\n      PUSH [tag] 794\t\t\t\n      ADDRESS \t\t\t\n      DUP10 \t\t\t\n      DUP10 \t\t\t\n      DUP5 \t\t\t\n      PUSH [tag] 438\t\t\t\n      JUMP [in]\t\t\t\n    tag 794\t\t\t\n      JUMPDEST \t\t\t\n      PUSH [tag] 800\t\t\t\n      JUMP \t\t\t\n    tag 793\t\t\t\n      JUMPDEST \t\t\t\n      PUSH 40\t\t\t\n      MLOAD \t\t\t\n      PUSH B2A02FF1\t\t\t\n      PUSH E0\t\t\t\n      SHL \t\t\t\n      DUP2 \t\t\t\n      MSTORE \t\t\t\n      PUSH 0\t\t\t\n      SWAP1 \t\t\t\n      PUSH 1\t\t\t\n      PUSH 1\t\t\t\n      PUSH A0\t\t\t\n      SHL \t\t\t\n      SUB \t\t\t\n      DUP8 \t\t\t\n      AND \t\t\t\n      SWAP1 \t\t\t\n      PUSH B2A02FF1\t\t\t\n      SWAP1 \t\t\t\n      PUSH [tag] 796\t\t\t\n      SWAP1 \t\t\t\n      DUP13 \t\t\t\n      SWAP1 \t\t\t\n      DUP13 \t\t\t\n      SWAP1 \t\t\t\n      DUP8 \t\t\t\n      SWAP1 \t\t\t\n      PUSH 4\t\t\t\n      ADD \t\t\t\n      PUSH [tag] 694\t\t\t\n      JUMP [in]\t\t\t\n    tag 796\t\t\t\n      JUMPDEST \t\t\t\n      PUSH 20\t\t\t\n      PUSH 40\t\t\t\n      MLOAD \t\t\t\n      DUP1 \t\t\t\n      DUP4 \t\t\t\n      SUB \t\t\t\n      DUP2 \t\t\t\n      PUSH 0\t\t\t\n      DUP8 \t\t\t\n      GAS \t\t\t\n      CALL \t\t\t\n      ISZERO \t\t\t\n      DUP1 \t\t\t\n      ISZERO \t\t\t\n      PUSH [tag] 798\t\t\t\n      JUMPI \t\t\t\n      RETURNDATASIZE \t\t\t\n      PUSH 0\t\t\t\n      DUP1 \t\t\t\n      RETURNDATACOPY \t\t\t\n      RETURNDATASIZE \t\t\t\n      PUSH 0\t\t\t\n      REVERT \t\t\t\n    tag 798\t\t\t\n      JUMPDEST \t\t\t\n      POP \t\t\t\n      POP \t\t\t\n      POP \t\t\t\n      POP \t\t\t\n      PUSH 40\t\t\t\n      MLOAD \t\t\t\n      RETURNDATASIZE \t\t\t\n      PUSH 1F\t\t\t\n      NOT \t\t\t\n      PUSH 1F\t\t\t\n      DUP3 \t\t\t\n      ADD \t\t\t\n      AND \t\t\t\n      DUP3 \t\t\t\n      ADD \t\t\t\n      DUP1 \t\t\t\n      PUSH 40\t\t\t\n      MSTORE \t\t\t\n      POP \t\t\t\n      DUP2 \t\t\t\n      ADD \t\t\t\n      SWAP1 \t\t\t\n      PUSH [tag] 799\t\t\t\n      SWAP2 \t\t\t\n      SWAP1 \t\t\t\n      PUSH [tag] 292\t\t\t\n      JUMP [in]\t\t\t\n    tag 799\t\t\t\n      JUMPDEST \t\t\t\n      EQ \t\t\t\n      PUSH [tag] 800\t\t\t\n      JUMPI \t\t\t\n      PUSH 40\t\t\t\n      MLOAD \t\t\t\n      PUSH 461BCD\t\t\t\n      PUSH E5\t\t\t\n      SHL \t\t\t\n      DUP2 \t\t\t\n      MSTORE \t\t\t\n      PUSH 20\t\t\t\n      PUSH 4\t\t\t\n      DUP3 \t\t\t\n      ADD \t\t\t\n      MSTORE \t\t\t\n      PUSH 14\t\t\t\n      PUSH 24\t\t\t\n      DUP3 \t\t\t\n      ADD \t\t\t\n      MSTORE \t\t\t\n      PUSH 1D1BDAD95B881CD95A5E9D5C994819985A5B1959\t\t\t\n      PUSH 62\t\t\t\n      SHL \t\t\t\n      PUSH 44\t\t\t\n      DUP3 \t\t\t\n      ADD \t\t\t\n      MSTORE \t\t\t\n      PUSH 64\t\t\t\n      ADD \t\t\t\n      PUSH [tag] 279\t\t\t\n      JUMP \t\t\t\n    tag 800\t\t\t\n      JUMPDEST \t\t\t\n      PUSH 40\t\t\t\n      DUP1 \t\t\t\n      MLOAD \t\t\t\n      PUSH 1\t\t\t\n      PUSH 1\t\t\t\n      PUSH A0\t\t\t\n      SHL \t\t\t\n      SUB \t\t\t\n      DUP11 \t\t\t\n      DUP2 \t\t\t\n      AND \t\t\t\n      DUP3 \t\t\t\n      MSTORE \t\t\t\n      DUP10 \t\t\t\n      DUP2 \t\t\t\n      AND \t\t\t\n      PUSH 20\t\t\t\n      DUP4 \t\t\t\n      ADD \t\t\t\n      MSTORE \t\t\t\n      DUP2 \t\t\t\n      DUP4 \t\t\t\n      ADD \t\t\t\n      DUP7 \t\t\t\n      SWAP1 \t\t\t\n      MSTORE \t\t\t\n      DUP8 \t\t\t\n      AND \t\t\t\n      PUSH 60\t\t\t\n      DUP3 \t\t\t\n      ADD \t\t\t\n      MSTORE \t\t\t\n      PUSH 80\t\t\t\n      DUP2 \t\t\t\n      ADD \t\t\t\n      DUP4 \t\t\t\n      SWAP1 \t\t\t\n      MSTORE \t\t\t\n      SWAP1 \t\t\t\n      MLOAD \t\t\t\n      PUSH 298637F684DA70674F26509B10F07EC2FBC77A335AB1E7D6215A4B2484D8BB52\t\t\t\n      SWAP2 \t\t\t\n      DUP2 \t\t\t\n      SWAP1 \t\t\t\n      SUB \t\t\t\n      PUSH A0\t\t\t\n      ADD \t\t\t\n      SWAP1 \t\t\t\n      LOG1 \t\t\t\n      POP \t\t\t\n      POP \t\t\t\n      POP \t\t\t\n      POP \t\t\t\n      POP \t\t\t\n      POP \t\t\t\n      POP \t\t\t\n      POP \t\t\t\n      JUMP [out]\t\t\t\n    tag 657\t\t\t\n      JUMPDEST \t\t\t\n      PUSH 11\t\t\t\n      SLOAD \t\t\t\n      PUSH 40\t\t\t\n      MLOAD \t\t\t\n      PUSH 70A08231\t\t\t\n      PUSH E0\t\t\t\n      SHL \t\t\t\n      DUP2 \t\t\t\n      MSTORE \t\t\t\n      ADDRESS \t\t\t\n      PUSH 4\t\t\t\n      DUP3 \t\t\t\n      ADD \t\t\t\n      MSTORE \t\t\t\n      PUSH 0\t\t\t\n      SWAP2 \t\t\t\n      PUSH 1\t\t\t\n      PUSH 1\t\t\t\n      PUSH A0\t\t\t\n      SHL \t\t\t\n      SUB \t\t\t\n      AND \t\t\t\n      SWAP1 \t\t\t\n      DUP2 \t\t\t\n      SWAP1 \t\t\t\n      DUP4 \t\t\t\n      SWAP1 \t\t\t\n      DUP3 \t\t\t\n      SWAP1 \t\t\t\n      PUSH 70A08231\t\t\t\n      SWAP1 \t\t\t\n      PUSH 24\t\t\t\n      ADD \t\t\t\n      PUSH 20\t\t\t\n      PUSH 40\t\t\t\n      MLOAD \t\t\t\n      DUP1 \t\t\t\n      DUP4 \t\t\t\n      SUB \t\t\t\n      DUP2 \t\t\t\n      DUP7 \t\t\t\n      GAS \t\t\t\n      STATICCALL \t\t\t\n      ISZERO \t\t\t\n      DUP1 \t\t\t\n      ISZERO \t\t\t\n      PUSH [tag] 808\t\t\t\n      JUMPI \t\t\t\n      RETURNDATASIZE \t\t\t\n      PUSH 0\t\t\t\n      DUP1 \t\t\t\n      RETURNDATACOPY \t\t\t\n      RETURNDATASIZE \t\t\t\n      PUSH 0\t\t\t\n      REVERT \t\t\t\n    tag 808\t\t\t\n      JUMPDEST \t\t\t\n      POP \t\t\t\n      POP \t\t\t\n      POP \t\t\t\n      POP \t\t\t\n      PUSH 40\t\t\t\n      MLOAD \t\t\t\n      RETURNDATASIZE \t\t\t\n      PUSH 1F\t\t\t\n      NOT \t\t\t\n      PUSH 1F\t\t\t\n      DUP3 \t\t\t\n      ADD \t\t\t\n      AND \t\t\t\n      DUP3 \t\t\t\n      ADD \t\t\t\n      DUP1 \t\t\t\n      PUSH 40\t\t\t\n      MSTORE \t\t\t\n      POP \t\t\t\n      DUP2 \t\t\t\n      ADD \t\t\t\n      SWAP1 \t\t\t\n      PUSH [tag] 809\t\t\t\n      SWAP2 \t\t\t\n      SWAP1 \t\t\t\n      PUSH [tag] 292\t\t\t\n      JUMP [in]\t\t\t\n    tag 809\t\t\t\n      JUMPDEST \t\t\t\n      PUSH 40\t\t\t\n      MLOAD \t\t\t\n      PUSH 23B872DD\t\t\t\n      PUSH E0\t\t\t\n      SHL \t\t\t\n      DUP2 \t\t\t\n      MSTORE \t\t\t\n      SWAP1 \t\t\t\n      SWAP2 \t\t\t\n      POP \t\t\t\n      PUSH 1\t\t\t\n      PUSH 1\t\t\t\n      PUSH A0\t\t\t\n      SHL \t\t\t\n      SUB \t\t\t\n      DUP4 \t\t\t\n      AND \t\t\t\n      SWAP1 \t\t\t\n      PUSH 23B872DD\t\t\t\n      SWAP1 \t\t\t\n      PUSH [tag] 810\t\t\t\n      SWAP1 \t\t\t\n      DUP10 \t\t\t\n      SWAP1 \t\t\t\n      ADDRESS \t\t\t\n      SWAP1 \t\t\t\n      DUP11 \t\t\t\n      SWAP1 \t\t\t\n      PUSH 4\t\t\t\n      ADD \t\t\t\n      PUSH [tag] 694\t\t\t\n      JUMP [in]\t\t\t\n    tag 810\t\t\t\n      JUMPDEST \t\t\t\n      PUSH 0\t\t\t\n      PUSH 40\t\t\t\n      MLOAD \t\t\t\n      DUP1 \t\t\t\n      DUP4 \t\t\t\n      SUB \t\t\t\n      DUP2 \t\t\t\n      PUSH 0\t\t\t\n      DUP8 \t\t\t\n      DUP1 \t\t\t\n      EXTCODESIZE \t\t\t\n      ISZERO \t\t\t\n      DUP1 \t\t\t\n      ISZERO \t\t\t\n      PUSH [tag] 811\t\t\t\n      JUMPI \t\t\t\n      PUSH 0\t\t\t\n      DUP1 \t\t\t\n      REVERT \t\t\t\n    tag 811\t\t\t\n      JUMPDEST \t\t\t\n      POP \t\t\t\n      GAS \t\t\t\n      CALL \t\t\t\n      ISZERO \t\t\t\n      DUP1 \t\t\t\n      ISZERO \t\t\t\n      PUSH [tag] 813\t\t\t\n      JUMPI \t\t\t\n      RETURNDATASIZE \t\t\t\n      PUSH 0\t\t\t\n      DUP1 \t\t\t\n      RETURNDATACOPY \t\t\t\n      RETURNDATASIZE \t\t\t\n      PUSH 0\t\t\t\n      REVERT \t\t\t\n    tag 813\t\t\t\n      JUMPDEST \t\t\t\n      POP \t\t\t\n      POP \t\t\t\n      POP \t\t\t\n      POP \t\t\t\n      PUSH 0\t\t\t\n      RETURNDATASIZE \t\t\t\n      PUSH 0\t\t\t\n      DUP2 \t\t\t\n      EQ \t\t\t\n      PUSH [tag] 815\t\t\t\n      JUMPI \t\t\t\n      PUSH 20\t\t\t\n      DUP2 \t\t\t\n      EQ \t\t\t\n      PUSH [tag] 816\t\t\t\n      JUMPI \t\t\t\n      PUSH 0\t\t\t\n      DUP1 \t\t\t\n      REVERT \t\t\t\n    tag 815\t\t\t\n      JUMPDEST \t\t\t\n      PUSH 0\t\t\t\n      NOT \t\t\t\n      SWAP2 \t\t\t\n      POP \t\t\t\n      PUSH [tag] 814\t\t\t\n      JUMP \t\t\t\n    tag 816\t\t\t\n      JUMPDEST \t\t\t\n      PUSH 20\t\t\t\n      PUSH 0\t\t\t\n      DUP1 \t\t\t\n      RETURNDATACOPY \t\t\t\n      PUSH 0\t\t\t\n      MLOAD \t\t\t\n      SWAP2 \t\t\t\n      POP \t\t\t\n    tag 814\t\t\t\n      JUMPDEST \t\t\t\n      POP \t\t\t\n      DUP1 \t\t\t\n      PUSH [tag] 817\t\t\t\n      JUMPI \t\t\t\n      PUSH 40\t\t\t\n      MLOAD \t\t\t\n      PUSH 461BCD\t\t\t\n      PUSH E5\t\t\t\n      SHL \t\t\t\n      DUP2 \t\t\t\n      MSTORE \t\t\t\n      PUSH 20\t\t\t\n      PUSH 4\t\t\t\n      DUP3 \t\t\t\n      ADD \t\t\t\n      MSTORE \t\t\t\n      PUSH 18\t\t\t\n      PUSH 24\t\t\t\n      DUP3 \t\t\t\n      ADD \t\t\t\n      MSTORE \t\t\t\n      PUSH 544F4B454E5F5452414E534645525F494E5F4641494C45440000000000000000\t\t\t\n      PUSH 44\t\t\t\n      DUP3 \t\t\t\n      ADD \t\t\t\n      MSTORE \t\t\t\n      PUSH 64\t\t\t\n      ADD \t\t\t\n      PUSH [tag] 279\t\t\t\n      JUMP \t\t\t\n    tag 817\t\t\t\n      JUMPDEST \t\t\t\n      PUSH 40\t\t\t\n      MLOAD \t\t\t\n      PUSH 70A08231\t\t\t\n      PUSH E0\t\t\t\n      SHL \t\t\t\n      DUP2 \t\t\t\n      MSTORE \t\t\t\n      ADDRESS \t\t\t\n      PUSH 4\t\t\t\n      DUP3 \t\t\t\n      ADD \t\t\t\n      MSTORE \t\t\t\n      PUSH 0\t\t\t\n      SWAP1 \t\t\t\n      PUSH 1\t\t\t\n      PUSH 1\t\t\t\n      PUSH A0\t\t\t\n      SHL \t\t\t\n      SUB \t\t\t\n      DUP7 \t\t\t\n      AND \t\t\t\n      SWAP1 \t\t\t\n      PUSH 70A08231\t\t\t\n      SWAP1 \t\t\t\n      PUSH 24\t\t\t\n      ADD \t\t\t\n      PUSH 20\t\t\t\n      PUSH 40\t\t\t\n      MLOAD \t\t\t\n      DUP1 \t\t\t\n      DUP4 \t\t\t\n      SUB \t\t\t\n      DUP2 \t\t\t\n      DUP7 \t\t\t\n      GAS \t\t\t\n      STATICCALL \t\t\t\n      ISZERO \t\t\t\n      DUP1 \t\t\t\n      ISZERO \t\t\t\n      PUSH [tag] 822\t\t\t\n      JUMPI \t\t\t\n      RETURNDATASIZE \t\t\t\n      PUSH 0\t\t\t\n      DUP1 \t\t\t\n      RETURNDATACOPY \t\t\t\n      RETURNDATASIZE \t\t\t\n      PUSH 0\t\t\t\n      REVERT \t\t\t\n    tag 822\t\t\t\n      JUMPDEST \t\t\t\n      POP \t\t\t\n      POP \t\t\t\n      POP \t\t\t\n      POP \t\t\t\n      PUSH 40\t\t\t\n      MLOAD \t\t\t\n      RETURNDATASIZE \t\t\t\n      PUSH 1F\t\t\t\n      NOT \t\t\t\n      PUSH 1F\t\t\t\n      DUP3 \t\t\t\n      ADD \t\t\t\n      AND \t\t\t\n      DUP3 \t\t\t\n      ADD \t\t\t\n      DUP1 \t\t\t\n      PUSH 40\t\t\t\n      MSTORE \t\t\t\n      POP \t\t\t\n      DUP2 \t\t\t\n      ADD \t\t\t\n      SWAP1 \t\t\t\n      PUSH [tag] 823\t\t\t\n      SWAP2 \t\t\t\n      SWAP1 \t\t\t\n      PUSH [tag] 292\t\t\t\n      JUMP [in]\t\t\t\n    tag 823\t\t\t\n      JUMPDEST \t\t\t\n      SWAP1 \t\t\t\n      POP \t\t\t\n      PUSH [tag] 824\t\t\t\n      DUP4 \t\t\t\n      DUP3 \t\t\t\n      PUSH [tag] 412\t\t\t\n      JUMP [in]\t\t\t\n    tag 824\t\t\t\n      JUMPDEST \t\t\t\n      SWAP9 \t\t\t\n      SWAP8 \t\t\t\n      POP \t\t\t\n      POP \t\t\t\n      POP \t\t\t\n      POP \t\t\t\n      POP \t\t\t\n      POP \t\t\t\n      POP \t\t\t\n      POP \t\t\t\n      JUMP [out]\t\t\t\n    tag 692\t\t\t\n      JUMPDEST \t\t\t\n      PUSH 0\t\t\t\n      PUSH [tag] 320\t\t\t\n      PUSH [tag] 827\t\t\t\n      DUP5 \t\t\t\n      PUSH DE0B6B3A7640000\t\t\t * @\n      PUSH [tag] 584\t\t\t\n      JUMP [in]\t\t\t\n    tag 827\t\t\t\n      JUMPDEST \t\t\t\n      DUP4 \t\t\t\n      MLOAD \t\t\t\n      PUSH 0\t\t\t\n      PUSH [tag] 320\t\t\t\n      DUP3 \t\t\t\n      DUP5 \t\t\t\n      PUSH [tag] 499\t\t\t\n      JUMP [in]\t\t\t\n    tag 394\t\t\t\n      JUMPDEST \t\t\t\n      DUP3 \t\t\t\n      DUP1 \t\t\t\n      SLOAD \t\t\t\n      PUSH [tag] 831\t\t\t\n      SWAP1 \t\t\t\n      PUSH [tag] 267\t\t\t\n      JUMP [in]\t\t\t\n    tag 831\t\t\t\n      JUMPDEST \t\t\t\n      SWAP1 \t\t\t\n      PUSH 0\t\t\t\n      MSTORE \t\t\t\n      PUSH 20\t\t\t\n      PUSH 0\t\t\t\n      KECCAK256 \t\t\t\n      SWAP1 \t\t\t\n      PUSH 1F\t\t\t\n      ADD \t\t\t\n      PUSH 20\t\t\t\n      SWAP1 \t\t\t\n      DIV \t\t\t\n      DUP2 \t\t\t\n      ADD \t\t\t\n      SWAP3 \t\t\t\n      DUP3 \t\t\t\n      PUSH [tag] 833\t\t\t\n      JUMPI \t\t\t\n      PUSH 0\t\t\t\n      DUP6 \t\t\t\n      SSTORE \t\t\t\n      PUSH [tag] 836\t\t\t\n      JUMP \t\t\t\n    tag 833\t\t\t\n      JUMPDEST \t\t\t\n      DUP3 \t\t\t\n      PUSH 1F\t\t\t\n      LT \t\t\t\n      PUSH [tag] 834\t\t\t\n      JUMPI \t\t\t\n      DUP1 \t\t\t\n      MLOAD \t\t\t\n      PUSH FF\t\t\t\n      NOT \t\t\t\n      AND \t\t\t\n      DUP4 \t\t\t\n      DUP1 \t\t\t\n      ADD \t\t\t\n      OR \t\t\t\n      DUP6 \t\t\t\n      SSTORE \t\t\t\n      PUSH [tag] 836\t\t\t\n      JUMP \t\t\t\n    tag 834\t\t\t\n      JUMPDEST \t\t\t\n      DUP3 \t\t\t\n      DUP1 \t\t\t\n      ADD \t\t\t\n      PUSH 1\t\t\t\n      ADD \t\t\t\n      DUP6 \t\t\t\n      SSTORE \t\t\t\n      DUP3 \t\t\t\n      ISZERO \t\t\t\n      PUSH [tag] 836\t\t\t\n      JUMPI \t\t\t\n      SWAP2 \t\t\t\n      DUP3 \t\t\t\n      ADD \t\t\t\n    tag 835\t\t\t\n      JUMPDEST \t\t\t\n      DUP3 \t\t\t\n      DUP2 \t\t\t\n      GT \t\t\t\n      ISZERO \t\t\t\n      PUSH [tag] 836\t\t\t\n      JUMPI \t\t\t\n      DUP3 \t\t\t\n      MLOAD \t\t\t\n      DUP3 \t\t\t\n      SSTORE \t\t\t\n      SWAP2 \t\t\t\n      PUSH 20\t\t\t\n      ADD \t\t\t\n      SWAP2 \t\t\t\n      SWAP1 \t\t\t\n      PUSH 1\t\t\t\n      ADD \t\t\t\n      SWAP1 \t\t\t\n      PUSH [tag] 835\t\t\t\n      JUMP \t\t\t\n    tag 836\t\t\t\n      JUMPDEST \t\t\t\n      POP \t\t\t\n      PUSH [tag] 492\t\t\t\n      SWAP3 \t\t\t\n      SWAP2 \t\t\t\n      POP \t\t\t\n    tag 839\t\t\t\n      JUMPDEST \t\t\t\n      DUP1 \t\t\t\n      DUP3 \t\t\t\n      GT \t\t\t\n      ISZERO \t\t\t\n      PUSH [tag] 492\t\t\t\n      JUMPI \t\t\t\n      PUSH 0\t\t\t\n      DUP2 \t\t\t\n      SSTORE \t\t\t\n      PUSH 1\t\t\t\n      ADD \t\t\t\n      PUSH [tag] 839\t\t\t\n      JUMP \t\t\t\n    tag 69\t\t\te-Identifier: BSD-3-Clause\\r\\n...\n      JUMPDEST \t\t\te-Identifier: BSD-3-Clause\\r\\n...\n      PUSH 0\t\t\t20Im\n      PUSH 20\t\t\tic\n      DUP1 \t\t\t-2\n      DUP4 \t\t\twrap an E\n      MSTORE \t\t\t which wrap an EIP-20\n      DUP4 \t\t\t\\r\\n * @\n      MLOAD \t\t\tutable\\r\\n * @a\n      DUP1 \t\t\tImmuta\n      DUP3 \t\t\tEr\n      DUP6 \t\t\t\\ncontract\n      ADD \t\t\t */\\r\\ncontract CErc\n      MSTORE \t\t\tpound\\r\\n */\\r\\ncontract CErc2...\n      PUSH 0\t\t\t \n    tag 848\t\t\t  * @notice Construct a new mo...\n      JUMPDEST \t\t\t  * @notice Construct a new mo...\n      DUP2 \t\t\tnstruc\n      DUP2 \t\t\t \n      LT \t\t\tice Construct\n      ISZERO \t\t\t  * @notice Construct a new mo...\n      PUSH [tag] 850\t\t\t  * @notice Construct a new mo...\n      JUMPI \t\t\t  * @notice Construct a new mo...\n      DUP6 \t\t\t * @param comp\n      DUP2 \t\t\t * @param comp\n      ADD \t\t\t * @param comp\n      DUP4 \t\t\t     * @param comptroll\n      ADD \t\t\t     * @param comptroll\n      MLOAD \t\t\tsset\\r\\n     * @param comptrol...\n      DUP6 \t\t\tress of the under\n      DUP3 \t\t\tress of the under\n      ADD \t\t\tress of the under\n      PUSH 40\t\t\tin\n      ADD \t\t\t address of the underlying\n      MSTORE \t\t\tng_ The address of the underly...\n      DUP3 \t\t\toney marke\n      ADD \t\t\toney marke\n      PUSH [tag] 848\t\t\t  * @notice Construct a new mo...\n      JUMP \t\t\t  * @notice Construct a new mo...\n    tag 850\t\t\t  * @notice Construct a new mo...\n      JUMPDEST \t\t\t  * @notice Construct a new mo...\n      DUP2 \t\t\tller\\r\\n\n      DUP2 \t\t\tt\n      GT \t\t\tomptroller\\r\\n \n      ISZERO \t\t\te Comptroller\\r\\n     * @param...\n      PUSH [tag] 851\t\t\te Comptroller\\r\\n     * @param...\n      JUMPI \t\t\te Comptroller\\r\\n     * @param...\n      PUSH 0\t\t\te\n      PUSH 40\t\t\tt \n      DUP4 \t\t\te inte\n      DUP8 \t\t\tdress of \n      ADD \t\t\te address of the inter\n      ADD \t\t\t_ The address of the interest ...\n      MSTORE \t\t\tteModel_ The address of the in...\n    tag 851\t\t\te Comptroller\\r\\n     * @param...\n      JUMPDEST \t\t\te Comptroller\\r\\n     * @param...\n      POP \t\t\t\n      PUSH 1F\t\t\tra\n      ADD \t\t\tThe initial exc\n      PUSH 1F\t\t\t\n      NOT \t\t\t\n      AND \t\t\tsa_ The initial exchange rate\n      SWAP3 \t\t\thangeRateMantissa_ The initial...\n      SWAP1 \t\t\thangeRateMantissa_ The initial...\n      SWAP3 \t\t\thangeRateMantissa_ The initial...\n      ADD \t\t\thangeRateMantissa_ The initial...\n      PUSH 40\t\t\tca\n      ADD \t\t\tlExchangeRateMantissa_ The ini...\n      SWAP4 \t\t\tlExchangeRateMantissa_ The ini...\n      SWAP3 \t\t\te-Identifier: BSD-3-Clause\\r\\n...\n      POP \t\t\t\n      POP \t\t\t\n      POP \t\t\t\n      JUMP [out]\t\t\te-Identifier: BSD-3-Clause\\r\\n...\n    tag 841\t\t\t\\n     * @param name_ ERC-20 n...\n      JUMPDEST \t\t\t\\n     * @param name_ ERC-20 n...\n      PUSH 1\t\t\t\n      PUSH 1\t\t\t\n      PUSH A0\t\t\t\n      SHL \t\t\t\n      SUB \t\t\t\n      DUP2 \t\t\t0 symbol of this token\\r\\n    ...\n      AND \t\t\t0 symbol of this token\\r\\n    ...\n      DUP2 \t\t\tbol_ ERC-20 symbol of this tok...\n      EQ \t\t\tbol_ ERC-20 symbol of this tok...\n      PUSH [tag] 853\t\t\t@param symbol_ ERC-20 symbol o...\n      JUMPI \t\t\t@param symbol_ ERC-20 symbol o...\n      PUSH 0\t\t\t_\n      DUP1 \t\t\ta\n      REVERT \t\t\tm decimals_ \n    tag 853\t\t\t@param symbol_ ERC-20 symbol o...\n      JUMPDEST \t\t\t@param symbol_ ERC-20 symbol o...\n      POP \t\t\t\\n     * @param name_ ERC-20 n...\n      JUMP [out]\t\t\t\\n     * @param name_ ERC-20 n...\n    tag 72\t\t\tl precision of this token\\r\\n ...\n      JUMPDEST \t\t\tl precision of this token\\r\\n ...\n      PUSH 0\t\t\tistrat\n      DUP1 \t\t\t of th\n      PUSH 40\t\t\trl\n      DUP4 \t\t\taddress u\n      DUP6 \t\t\tstructo\n      SUB \t\t\t constructor(address un\n      SLT \t\t\t\\n    constructor(address unde...\n      ISZERO \t\t\t*/\\r\\n    constructor(address ...\n      PUSH [tag] 855\t\t\t*/\\r\\n    constructor(address ...\n      JUMPI \t\t\t*/\\r\\n    constructor(address ...\n      PUSH 0\t\t\t \n      DUP1 \t\t\t \n      REVERT \t\t\t_,\\r\\n        \n    tag 855\t\t\t*/\\r\\n    constructor(address ...\n      JUMPDEST \t\t\t*/\\r\\n    constructor(address ...\n      DUP3 \t\t\tler_,\\r\\n  \n      CALLDATALOAD \t\t\tface comptroller_,\\r\\n   \n      PUSH [tag] 856\t\t\t    InterestRateModel interest...\n      DUP2 \t\t\terest\n      PUSH [tag] 841\t\t\t    InterestRateModel interest...\n      JUMP [in]\t\t\t    InterestRateModel interest...\n    tag 856\t\t\t    InterestRateModel interest...\n      JUMPDEST \t\t\t    InterestRateModel interest...\n      SWAP5 \t\t\t     \n      PUSH 20\t\t\t  \n      SWAP4 \t\t\tissa_,\\r\\n          \n      SWAP1 \t\t\tissa_,\\r\\n          \n      SWAP4 \t\t\tissa_,\\r\\n          \n      ADD \t\t\tissa_,\\r\\n          \n      CALLDATALOAD \t\t\thangeRateMantissa_,\\r\\n       ...\n      SWAP4 \t\t\thangeRateMantissa_,\\r\\n       ...\n      POP \t\t\t\n      POP \t\t\t\n      POP \t\t\t\n      JUMP [out]\t\t\tl precision of this token\\r\\n ...\n    tag 78\t\t\tzation\\r\\n        admin = paya...\n      JUMPDEST \t\t\tzation\\r\\n        admin = paya...\n      PUSH 0\t\t\tInitia\n      PUSH 20\t\t\t, \n      DUP3 \t\t\t(underlyi\n      DUP5 \t\t\tnitiali\n      SUB \t\t\t   initialize(underlyin\n      SLT \t\t\t       initialize(underlying_,...\n      ISZERO \t\t\t\\r\\n        initialize(underly...\n      PUSH [tag] 859\t\t\t\\r\\n        initialize(underly...\n      JUMPI \t\t\t\\r\\n        initialize(underly...\n      PUSH 0\t\t\ti\n      DUP1 \t\t\t_\n      REVERT \t\t\ttroller_, in\n    tag 859\t\t\t\\r\\n        initialize(underly...\n      JUMPDEST \t\t\t\\r\\n        initialize(underly...\n      POP \t\t\t\n      CALLDATALOAD \t\t\ttialExchangeRateMantiss\n      SWAP2 \t\t\ttialExchangeRateMantiss\n      SWAP1 \t\t\tzation\\r\\n        admin = paya...\n      POP \t\t\t\n      JUMP [out]\t\t\tzation\\r\\n        admin = paya...\n    tag 87\t\t\t\n      JUMPDEST \t\t\t\n      PUSH 0\t\t\t\n      PUSH 20\t\t\t\n      DUP3 \t\t\t\n      DUP5 \t\t\t\n      SUB \t\t\t\n      SLT \t\t\t\n      ISZERO \t\t\t\n      PUSH [tag] 862\t\t\t\n      JUMPI \t\t\t\n      PUSH 0\t\t\t\n      DUP1 \t\t\t\n      REVERT \t\t\t\n    tag 862\t\t\t\n      JUMPDEST \t\t\t\n      DUP2 \t\t\t\n      CALLDATALOAD \t\t\t\n      PUSH [tag] 320\t\t\t\n      DUP2 \t\t\t\n      PUSH [tag] 841\t\t\t\n      JUMP [in]\t\t\t\n    tag 842\t\t\t\n      JUMPDEST \t\t\t\n      PUSH 4E487B71\t\t\t\n      PUSH E0\t\t\t\n      SHL \t\t\t\n      PUSH 0\t\t\t\n      MSTORE \t\t\t\n      PUSH 41\t\t\t\n      PUSH 4\t\t\t\n      MSTORE \t\t\t\n      PUSH 24\t\t\t\n      PUSH 0\t\t\t\n      REVERT \t\t\t\n    tag 843\t\t\t\n      JUMPDEST \t\t\t\n      PUSH 0\t\t\t\n      DUP3 \t\t\t\n      PUSH 1F\t\t\t\n      DUP4 \t\t\t\n      ADD \t\t\t\n      SLT \t\t\t\n      PUSH [tag] 866\t\t\t\n      JUMPI \t\t\t\n      PUSH 0\t\t\t\n      DUP1 \t\t\t\n      REVERT \t\t\t\n    tag 866\t\t\t\n      JUMPDEST \t\t\t\n      DUP2 \t\t\t\n      CALLDATALOAD \t\t\t\n      PUSH FFFFFFFFFFFFFFFF\t\t\t\n      DUP1 \t\t\t\n      DUP3 \t\t\t\n      GT \t\t\t\n      ISZERO \t\t\t\n      PUSH [tag] 868\t\t\t\n      JUMPI \t\t\t\n      PUSH [tag] 868\t\t\t\n      PUSH [tag] 842\t\t\t\n      JUMP [in]\t\t\t\n    tag 868\t\t\t\n      JUMPDEST \t\t\t\n      PUSH 40\t\t\t\n      MLOAD \t\t\t\n      PUSH 1F\t\t\t\n      DUP4 \t\t\t\n      ADD \t\t\t\n      PUSH 1F\t\t\t\n      NOT \t\t\t\n      SWAP1 \t\t\t\n      DUP2 \t\t\t\n      AND \t\t\t\n      PUSH 3F\t\t\t\n      ADD \t\t\t\n      AND \t\t\t\n      DUP2 \t\t\t\n      ADD \t\t\t\n      SWAP1 \t\t\t\n      DUP3 \t\t\t\n      DUP3 \t\t\t\n      GT \t\t\t\n      DUP2 \t\t\t\n      DUP4 \t\t\t\n      LT \t\t\t\n      OR \t\t\t\n      ISZERO \t\t\t\n      PUSH [tag] 870\t\t\t\n      JUMPI \t\t\t\n      PUSH [tag] 870\t\t\t\n      PUSH [tag] 842\t\t\t\n      JUMP [in]\t\t\t\n    tag 870\t\t\t\n      JUMPDEST \t\t\t\n      DUP2 \t\t\t\n      PUSH 40\t\t\t\n      MSTORE \t\t\t\n      DUP4 \t\t\t\n      DUP2 \t\t\t\n      MSTORE \t\t\t\n      DUP7 \t\t\t\n      PUSH 20\t\t\t\n      DUP6 \t\t\t\n      DUP9 \t\t\t\n      ADD \t\t\t\n      ADD \t\t\t\n      GT \t\t\t\n      ISZERO \t\t\t\n      PUSH [tag] 871\t\t\t\n      JUMPI \t\t\t\n      PUSH 0\t\t\t\n      DUP1 \t\t\t\n      REVERT \t\t\t\n    tag 871\t\t\t\n      JUMPDEST \t\t\t\n      DUP4 \t\t\t\n      PUSH 20\t\t\t\n      DUP8 \t\t\t\n      ADD \t\t\t\n      PUSH 20\t\t\t\n      DUP4 \t\t\t\n      ADD \t\t\t\n      CALLDATACOPY \t\t\t\n      PUSH 0\t\t\t\n      PUSH 20\t\t\t\n      DUP6 \t\t\t\n      DUP4 \t\t\t\n      ADD \t\t\t\n      ADD \t\t\t\n      MSTORE \t\t\t\n      DUP1 \t\t\t\n      SWAP5 \t\t\t\n      POP \t\t\t\n      POP \t\t\t\n      POP \t\t\t\n      POP \t\t\t\n      POP \t\t\t\n      SWAP3 \t\t\t\n      SWAP2 \t\t\t\n      POP \t\t\t\n      POP \t\t\t\n      JUMP [out]\t\t\t\n    tag 844\t\t\t\n      JUMPDEST \t\t\t\n      DUP1 \t\t\t\n      CALLDATALOAD \t\t\t\n      PUSH FF\t\t\t\n      DUP2 \t\t\t\n      AND \t\t\t\n      DUP2 \t\t\t\n      EQ \t\t\t\n      PUSH [tag] 873\t\t\t\n      JUMPI \t\t\t\n      PUSH 0\t\t\t\n      DUP1 \t\t\t\n      REVERT \t\t\t\n    tag 873\t\t\t\n      JUMPDEST \t\t\t\n      SWAP2 \t\t\t\n      SWAP1 \t\t\t\n      POP \t\t\t\n      JUMP [out]\t\t\t\n    tag 98\t\t\t\n      JUMPDEST \t\t\t\n      PUSH 0\t\t\t\n      DUP1 \t\t\t\n      PUSH 0\t\t\t\n      DUP1 \t\t\t\n      PUSH 0\t\t\t\n      DUP1 \t\t\t\n      PUSH 0\t\t\t\n      PUSH E0\t\t\t\n      DUP9 \t\t\t\n      DUP11 \t\t\t\n      SUB \t\t\t\n      SLT \t\t\t\n      ISZERO \t\t\t\n      PUSH [tag] 875\t\t\t\n      JUMPI \t\t\t\n      PUSH 0\t\t\t\n      DUP1 \t\t\t\n      REVERT \t\t\t\n    tag 875\t\t\t\n      JUMPDEST \t\t\t\n      DUP8 \t\t\t\n      CALLDATALOAD \t\t\t\n      PUSH [tag] 876\t\t\t\n      DUP2 \t\t\t\n      PUSH [tag] 841\t\t\t\n      JUMP [in]\t\t\t\n    tag 876\t\t\t\n      JUMPDEST \t\t\t\n      SWAP7 \t\t\t\n      POP \t\t\t\n      PUSH 20\t\t\t\n      DUP9 \t\t\t\n      ADD \t\t\t\n      CALLDATALOAD \t\t\t\n      PUSH [tag] 877\t\t\t\n      DUP2 \t\t\t\n      PUSH [tag] 841\t\t\t\n      JUMP [in]\t\t\t\n    tag 877\t\t\t\n      JUMPDEST \t\t\t\n      SWAP6 \t\t\t\n      POP \t\t\t\n      PUSH 40\t\t\t\n      DUP9 \t\t\t\n      ADD \t\t\t\n      CALLDATALOAD \t\t\t\n      PUSH [tag] 878\t\t\t\n      DUP2 \t\t\t\n      PUSH [tag] 841\t\t\t\n      JUMP [in]\t\t\t\n    tag 878\t\t\t\n      JUMPDEST \t\t\t\n      SWAP5 \t\t\t\n      POP \t\t\t\n      PUSH 60\t\t\t\n      DUP9 \t\t\t\n      ADD \t\t\t\n      CALLDATALOAD \t\t\t\n      SWAP4 \t\t\t\n      POP \t\t\t\n      PUSH 80\t\t\t\n      DUP9 \t\t\t\n      ADD \t\t\t\n      CALLDATALOAD \t\t\t\n      PUSH FFFFFFFFFFFFFFFF\t\t\t\n      DUP1 \t\t\t\n      DUP3 \t\t\t\n      GT \t\t\t\n      ISZERO \t\t\t\n      PUSH [tag] 879\t\t\t\n      JUMPI \t\t\t\n      PUSH 0\t\t\t\n      DUP1 \t\t\t\n      REVERT \t\t\t\n    tag 879\t\t\t\n      JUMPDEST \t\t\t\n      PUSH [tag] 880\t\t\t\n      DUP12 \t\t\t\n      DUP4 \t\t\t\n      DUP13 \t\t\t\n      ADD \t\t\t\n      PUSH [tag] 843\t\t\t\n      JUMP [in]\t\t\t\n    tag 880\t\t\t\n      JUMPDEST \t\t\t\n      SWAP5 \t\t\t\n      POP \t\t\t\n      PUSH A0\t\t\t\n      DUP11 \t\t\t\n      ADD \t\t\t\n      CALLDATALOAD \t\t\t\n      SWAP2 \t\t\t\n      POP \t\t\t\n      DUP1 \t\t\t\n      DUP3 \t\t\t\n      GT \t\t\t\n      ISZERO \t\t\t\n      PUSH [tag] 881\t\t\t\n      JUMPI \t\t\t\n      PUSH 0\t\t\t\n      DUP1 \t\t\t\n      REVERT \t\t\t\n    tag 881\t\t\t\n      JUMPDEST \t\t\t\n      POP \t\t\t\n      PUSH [tag] 882\t\t\t\n      DUP11 \t\t\t\n      DUP3 \t\t\t\n      DUP12 \t\t\t\n      ADD \t\t\t\n      PUSH [tag] 843\t\t\t\n      JUMP [in]\t\t\t\n    tag 882\t\t\t\n      JUMPDEST \t\t\t\n      SWAP3 \t\t\t\n      POP \t\t\t\n      POP \t\t\t\n      PUSH [tag] 883\t\t\t\n      PUSH C0\t\t\t\n      DUP10 \t\t\t\n      ADD \t\t\t\n      PUSH [tag] 844\t\t\t\n      JUMP [in]\t\t\t\n    tag 883\t\t\t\n      JUMPDEST \t\t\t\n      SWAP1 \t\t\t\n      POP \t\t\t\n      SWAP3 \t\t\t\n      SWAP6 \t\t\t\n      SWAP9 \t\t\t\n      SWAP2 \t\t\t\n      SWAP5 \t\t\t\n      SWAP8 \t\t\t\n      POP \t\t\t\n      SWAP3 \t\t\t\n      SWAP6 \t\t\t\n      POP \t\t\t\n      JUMP [out]\t\t\t\n    tag 106\t\t\t\n      JUMPDEST \t\t\t\n      PUSH 0\t\t\t\n      DUP1 \t\t\t\n      PUSH 0\t\t\t\n      PUSH 60\t\t\t\n      DUP5 \t\t\t\n      DUP7 \t\t\t\n      SUB \t\t\t\n      SLT \t\t\t\n      ISZERO \t\t\t\n      PUSH [tag] 888\t\t\t\n      JUMPI \t\t\t\n      PUSH 0\t\t\t\n      DUP1 \t\t\t\n      REVERT \t\t\t\n    tag 888\t\t\t\n      JUMPDEST \t\t\t\n      DUP4 \t\t\t\n      CALLDATALOAD \t\t\t\n      PUSH [tag] 889\t\t\t\n      DUP2 \t\t\t\n      PUSH [tag] 841\t\t\t\n      JUMP [in]\t\t\t\n    tag 889\t\t\t\n      JUMPDEST \t\t\t\n      SWAP3 \t\t\t\n      POP \t\t\t\n      PUSH 20\t\t\t\n      DUP5 \t\t\t\n      ADD \t\t\t\n      CALLDATALOAD \t\t\t\n      PUSH [tag] 890\t\t\t\n      DUP2 \t\t\t\n      PUSH [tag] 841\t\t\t\n      JUMP [in]\t\t\t\n    tag 890\t\t\t\n      JUMPDEST \t\t\t\n      SWAP3 \t\t\t\n      SWAP6 \t\t\t\n      SWAP3 \t\t\t\n      SWAP5 \t\t\t\n      POP \t\t\t\n      POP \t\t\t\n      POP \t\t\t\n      PUSH 40\t\t\t\n      SWAP2 \t\t\t\n      SWAP1 \t\t\t\n      SWAP2 \t\t\t\n      ADD \t\t\t\n      CALLDATALOAD \t\t\t\n      SWAP1 \t\t\t\n      JUMP [out]\t\t\t\n    tag 187\t\t\t\n      JUMPDEST \t\t\t\n      PUSH 0\t\t\t\n      DUP1 \t\t\t\n      PUSH 0\t\t\t\n      DUP1 \t\t\t\n      PUSH 0\t\t\t\n      DUP1 \t\t\t\n      PUSH C0\t\t\t\n      DUP8 \t\t\t\n      DUP10 \t\t\t\n      SUB \t\t\t\n      SLT \t\t\t\n      ISZERO \t\t\t\n      PUSH [tag] 899\t\t\t\n      JUMPI \t\t\t\n      PUSH 0\t\t\t\n      DUP1 \t\t\t\n      REVERT \t\t\t\n    tag 899\t\t\t\n      JUMPDEST \t\t\t\n      DUP7 \t\t\t\n      CALLDATALOAD \t\t\t\n      PUSH [tag] 900\t\t\t\n      DUP2 \t\t\t\n      PUSH [tag] 841\t\t\t\n      JUMP [in]\t\t\t\n    tag 900\t\t\t\n      JUMPDEST \t\t\t\n      SWAP6 \t\t\t\n      POP \t\t\t\n      PUSH 20\t\t\t\n      DUP8 \t\t\t\n      ADD \t\t\t\n      CALLDATALOAD \t\t\t\n      PUSH [tag] 901\t\t\t\n      DUP2 \t\t\t\n      PUSH [tag] 841\t\t\t\n      JUMP [in]\t\t\t\n    tag 901\t\t\t\n      JUMPDEST \t\t\t\n      SWAP5 \t\t\t\n      POP \t\t\t\n      PUSH 40\t\t\t\n      DUP8 \t\t\t\n      ADD \t\t\t\n      CALLDATALOAD \t\t\t\n      SWAP4 \t\t\t\n      POP \t\t\t\n      PUSH 60\t\t\t\n      DUP8 \t\t\t\n      ADD \t\t\t\n      CALLDATALOAD \t\t\t\n      PUSH FFFFFFFFFFFFFFFF\t\t\t\n      DUP1 \t\t\t\n      DUP3 \t\t\t\n      GT \t\t\t\n      ISZERO \t\t\t\n      PUSH [tag] 902\t\t\t\n      JUMPI \t\t\t\n      PUSH 0\t\t\t\n      DUP1 \t\t\t\n      REVERT \t\t\t\n    tag 902\t\t\t\n      JUMPDEST \t\t\t\n      PUSH [tag] 903\t\t\t\n      DUP11 \t\t\t\n      DUP4 \t\t\t\n      DUP12 \t\t\t\n      ADD \t\t\t\n      PUSH [tag] 843\t\t\t\n      JUMP [in]\t\t\t\n    tag 903\t\t\t\n      JUMPDEST \t\t\t\n      SWAP5 \t\t\t\n      POP \t\t\t\n      PUSH 80\t\t\t\n      DUP10 \t\t\t\n      ADD \t\t\t\n      CALLDATALOAD \t\t\t\n      SWAP2 \t\t\t\n      POP \t\t\t\n      DUP1 \t\t\t\n      DUP3 \t\t\t\n      GT \t\t\t\n      ISZERO \t\t\t\n      PUSH [tag] 904\t\t\t\n      JUMPI \t\t\t\n      PUSH 0\t\t\t\n      DUP1 \t\t\t\n      REVERT \t\t\t\n    tag 904\t\t\t\n      JUMPDEST \t\t\t\n      POP \t\t\t\n      PUSH [tag] 905\t\t\t\n      DUP10 \t\t\t\n      DUP3 \t\t\t\n      DUP11 \t\t\t\n      ADD \t\t\t\n      PUSH [tag] 843\t\t\t\n      JUMP [in]\t\t\t\n    tag 905\t\t\t\n      JUMPDEST \t\t\t\n      SWAP3 \t\t\t\n      POP \t\t\t\n      POP \t\t\t\n      PUSH [tag] 906\t\t\t\n      PUSH A0\t\t\t\n      DUP9 \t\t\t\n      ADD \t\t\t\n      PUSH [tag] 844\t\t\t\n      JUMP [in]\t\t\t\n    tag 906\t\t\t\n      JUMPDEST \t\t\t\n      SWAP1 \t\t\t\n      POP \t\t\t\n      SWAP3 \t\t\t\n      SWAP6 \t\t\t\n      POP \t\t\t\n      SWAP3 \t\t\t\n      SWAP6 \t\t\t\n      POP \t\t\t\n      SWAP3 \t\t\t\n      SWAP6 \t\t\t\n      JUMP [out]\t\t\t\n    tag 233\t\t\t\n      JUMPDEST \t\t\t\n      PUSH 0\t\t\t\n      DUP1 \t\t\t\n      PUSH 40\t\t\t\n      DUP4 \t\t\t\n      DUP6 \t\t\t\n      SUB \t\t\t\n      SLT \t\t\t\n      ISZERO \t\t\t\n      PUSH [tag] 912\t\t\t\n      JUMPI \t\t\t\n      PUSH 0\t\t\t\n      DUP1 \t\t\t\n      REVERT \t\t\t\n    tag 912\t\t\t\n      JUMPDEST \t\t\t\n      DUP3 \t\t\t\n      CALLDATALOAD \t\t\t\n      PUSH [tag] 913\t\t\t\n      DUP2 \t\t\t\n      PUSH [tag] 841\t\t\t\n      JUMP [in]\t\t\t\n    tag 913\t\t\t\n      JUMPDEST \t\t\t\n      SWAP2 \t\t\t\n      POP \t\t\t\n      PUSH 20\t\t\t\n      DUP4 \t\t\t\n      ADD \t\t\t\n      CALLDATALOAD \t\t\t\n      PUSH [tag] 914\t\t\t\n      DUP2 \t\t\t\n      PUSH [tag] 841\t\t\t\n      JUMP [in]\t\t\t\n    tag 914\t\t\t\n      JUMPDEST \t\t\t\n      DUP1 \t\t\t\n      SWAP2 \t\t\t\n      POP \t\t\t\n      POP \t\t\t\n      SWAP3 \t\t\t\n      POP \t\t\t\n      SWAP3 \t\t\t\n      SWAP1 \t\t\t\n      POP \t\t\t\n      JUMP [out]\t\t\t\n    tag 250\t\t\t\n      JUMPDEST \t\t\t\n      PUSH 0\t\t\t\n      DUP1 \t\t\t\n      PUSH 0\t\t\t\n      PUSH 60\t\t\t\n      DUP5 \t\t\t\n      DUP7 \t\t\t\n      SUB \t\t\t\n      SLT \t\t\t\n      ISZERO \t\t\t\n      PUSH [tag] 920\t\t\t\n      JUMPI \t\t\t\n      PUSH 0\t\t\t\n      DUP1 \t\t\t\n      REVERT \t\t\t\n    tag 920\t\t\t\n      JUMPDEST \t\t\t\n      DUP4 \t\t\t\n      CALLDATALOAD \t\t\t\n      PUSH [tag] 921\t\t\t\n      DUP2 \t\t\t\n      PUSH [tag] 841\t\t\t\n      JUMP [in]\t\t\t\n    tag 921\t\t\t\n      JUMPDEST \t\t\t\n      SWAP3 \t\t\t\n      POP \t\t\t\n      PUSH 20\t\t\t\n      DUP5 \t\t\t\n      ADD \t\t\t\n      CALLDATALOAD \t\t\t\n      SWAP2 \t\t\t\n      POP \t\t\t\n      PUSH 40\t\t\t\n      DUP5 \t\t\t\n      ADD \t\t\t\n      CALLDATALOAD \t\t\t\n      PUSH [tag] 922\t\t\t\n      DUP2 \t\t\t\n      PUSH [tag] 841\t\t\t\n      JUMP [in]\t\t\t\n    tag 922\t\t\t\n      JUMPDEST \t\t\t\n      DUP1 \t\t\t\n      SWAP2 \t\t\t\n      POP \t\t\t\n      POP \t\t\t\n      SWAP3 \t\t\t\n      POP \t\t\t\n      SWAP3 \t\t\t\n      POP \t\t\t\n      SWAP3 \t\t\t\n      JUMP [out]\t\t\t\n    tag 267\t\t\t\n      JUMPDEST \t\t\t\n      PUSH 1\t\t\t\n      DUP2 \t\t\t\n      DUP2 \t\t\t\n      SHR \t\t\t\n      SWAP1 \t\t\t\n      DUP3 \t\t\t\n      AND \t\t\t\n      DUP1 \t\t\t\n      PUSH [tag] 924\t\t\t\n      JUMPI \t\t\t\n      PUSH 7F\t\t\t\n      DUP3 \t\t\t\n      AND \t\t\t\n      SWAP2 \t\t\t\n      POP \t\t\t\n    tag 924\t\t\t\n      JUMPDEST \t\t\t\n      PUSH 20\t\t\t\n      DUP3 \t\t\t\n      LT \t\t\t\n      DUP2 \t\t\t\n      EQ \t\t\t\n      ISZERO \t\t\t\n      PUSH [tag] 925\t\t\t\n      JUMPI \t\t\t\n      PUSH 4E487B71\t\t\t\n      PUSH E0\t\t\t\n      SHL \t\t\t\n      PUSH 0\t\t\t\n      MSTORE \t\t\t\n      PUSH 22\t\t\t\n      PUSH 4\t\t\t\n      MSTORE \t\t\t\n      PUSH 24\t\t\t\n      PUSH 0\t\t\t\n      REVERT \t\t\t\n    tag 925\t\t\t\n      JUMPDEST \t\t\t\n      POP \t\t\t\n      SWAP2 \t\t\t\n      SWAP1 \t\t\t\n      POP \t\t\t\n      JUMP [out]\t\t\t\n    tag 280\t\t\t\n      JUMPDEST \t\t\t\n      PUSH 20\t\t\t\n      DUP1 \t\t\t\n      DUP3 \t\t\t\n      MSTORE \t\t\t\n      PUSH A\t\t\t\n      SWAP1 \t\t\t\n      DUP3 \t\t\t\n      ADD \t\t\t\n      MSTORE \t\t\t\n      PUSH 1C994B595B9D195C9959\t\t\t\n      PUSH B2\t\t\t\n      SHL \t\t\t\n      PUSH 40\t\t\t\n      DUP3 \t\t\t\n      ADD \t\t\t\n      MSTORE \t\t\t\n      PUSH 60\t\t\t\n      ADD \t\t\t\n      SWAP1 \t\t\t\n      JUMP [out]\t\t\t\n    tag 292\t\t\t\n      JUMPDEST \t\t\t\n      PUSH 0\t\t\t\n      PUSH 20\t\t\t\n      DUP3 \t\t\t\n      DUP5 \t\t\t\n      SUB \t\t\t\n      SLT \t\t\t\n      ISZERO \t\t\t\n      PUSH [tag] 928\t\t\t\n      JUMPI \t\t\t\n      PUSH 0\t\t\t\n      DUP1 \t\t\t\n      REVERT \t\t\t\n    tag 928\t\t\t\n      JUMPDEST \t\t\t\n      POP \t\t\t\n      MLOAD \t\t\t\n      SWAP2 \t\t\t\n      SWAP1 \t\t\t\n      POP \t\t\t\n      JUMP [out]\t\t\t\n    tag 333\t\t\t\n      JUMPDEST \t\t\t\n      PUSH 0\t\t\t\n      PUSH 20\t\t\t\n      DUP3 \t\t\t\n      DUP5 \t\t\t\n      SUB \t\t\t\n      SLT \t\t\t\n      ISZERO \t\t\t\n      PUSH [tag] 933\t\t\t\n      JUMPI \t\t\t\n      PUSH 0\t\t\t\n      DUP1 \t\t\t\n      REVERT \t\t\t\n    tag 933\t\t\t\n      JUMPDEST \t\t\t\n      DUP2 \t\t\t\n      MLOAD \t\t\t\n      DUP1 \t\t\t\n      ISZERO \t\t\t\n      ISZERO \t\t\t\n      DUP2 \t\t\t\n      EQ \t\t\t\n      PUSH [tag] 320\t\t\t\n      JUMPI \t\t\t\n      PUSH 0\t\t\t\n      DUP1 \t\t\t\n      REVERT \t\t\t\n    tag 845\t\t\t\n      JUMPDEST \t\t\t\n      PUSH 4E487B71\t\t\t\n      PUSH E0\t\t\t\n      SHL \t\t\t\n      PUSH 0\t\t\t\n      MSTORE \t\t\t\n      PUSH 11\t\t\t\n      PUSH 4\t\t\t\n      MSTORE \t\t\t\n      PUSH 24\t\t\t\n      PUSH 0\t\t\t\n      REVERT \t\t\t\n    tag 412\t\t\t\n      JUMPDEST \t\t\t\n      PUSH 0\t\t\t\n      DUP3 \t\t\t\n      DUP3 \t\t\t\n      LT \t\t\t\n      ISZERO \t\t\t\n      PUSH [tag] 948\t\t\t\n      JUMPI \t\t\t\n      PUSH [tag] 948\t\t\t\n      PUSH [tag] 845\t\t\t\n      JUMP [in]\t\t\t\n    tag 948\t\t\t\n      JUMPDEST \t\t\t\n      POP \t\t\t\n      SUB \t\t\t\n      SWAP1 \t\t\t\n      JUMP [out]\t\t\t\n    tag 417\t\t\t\n      JUMPDEST \t\t\t\n      PUSH 0\t\t\t\n      DUP3 \t\t\t\n      NOT \t\t\t\n      DUP3 \t\t\t\n      GT \t\t\t\n      ISZERO \t\t\t\n      PUSH [tag] 951\t\t\t\n      JUMPI \t\t\t\n      PUSH [tag] 951\t\t\t\n      PUSH [tag] 845\t\t\t\n      JUMP [in]\t\t\t\n    tag 951\t\t\t\n      JUMPDEST \t\t\t\n      POP \t\t\t\n      ADD \t\t\t\n      SWAP1 \t\t\t\n      JUMP [out]\t\t\t\n    tag 497\t\t\t\n      JUMPDEST \t\t\t\n      PUSH 0\t\t\t\n      DUP2 \t\t\t\n      PUSH 0\t\t\t\n      NOT \t\t\t\n      DIV \t\t\t\n      DUP4 \t\t\t\n      GT \t\t\t\n      DUP3 \t\t\t\n      ISZERO \t\t\t\n      ISZERO \t\t\t\n      AND \t\t\t\n      ISZERO \t\t\t\n      PUSH [tag] 955\t\t\t\n      JUMPI \t\t\t\n      PUSH [tag] 955\t\t\t\n      PUSH [tag] 845\t\t\t\n      JUMP [in]\t\t\t\n    tag 955\t\t\t\n      JUMPDEST \t\t\t\n      POP \t\t\t\n      MUL \t\t\t\n      SWAP1 \t\t\t\n      JUMP [out]\t\t\t\n    tag 499\t\t\t\n      JUMPDEST \t\t\t\n      PUSH 0\t\t\t\n      DUP3 \t\t\t\n      PUSH [tag] 957\t\t\t\n      JUMPI \t\t\t\n      PUSH 4E487B71\t\t\t\n      PUSH E0\t\t\t\n      SHL \t\t\t\n      PUSH 0\t\t\t\n      MSTORE \t\t\t\n      PUSH 12\t\t\t\n      PUSH 4\t\t\t\n      MSTORE \t\t\t\n      PUSH 24\t\t\t\n      PUSH 0\t\t\t\n      REVERT \t\t\t\n    tag 957\t\t\t\n      JUMPDEST \t\t\t\n      POP \t\t\t\n      DIV \t\t\t\n      SWAP1 \t\t\t\n      JUMP [out]\t\t\t\n    tag 549\t\t\t\n      JUMPDEST \t\t\t\n      PUSH 1\t\t\t\n      PUSH 1\t\t\t\n      PUSH A0\t\t\t\n      SHL \t\t\t\n      SUB \t\t\t\n      SWAP4 \t\t\t\n      SWAP1 \t\t\t\n      SWAP4 \t\t\t\n      AND \t\t\t\n      DUP4 \t\t\t\n      MSTORE \t\t\t\n      PUSH 20\t\t\t\n      DUP4 \t\t\t\n      ADD \t\t\t\n      SWAP2 \t\t\t\n      SWAP1 \t\t\t\n      SWAP2 \t\t\t\n      MSTORE \t\t\t\n      PUSH 40\t\t\t\n      DUP3 \t\t\t\n      ADD \t\t\t\n      MSTORE \t\t\t\n      PUSH 60\t\t\t\n      ADD \t\t\t\n      SWAP1 \t\t\t\n      JUMP [out]\t\t\t\n    tag 694\t\t\t\n      JUMPDEST \t\t\t\n      PUSH 1\t\t\t\n      PUSH 1\t\t\t\n      PUSH A0\t\t\t\n      SHL \t\t\t\n      SUB \t\t\t\n      SWAP4 \t\t\t\n      DUP5 \t\t\t\n      AND \t\t\t\n      DUP2 \t\t\t\n      MSTORE \t\t\t\n      SWAP2 \t\t\t\n      SWAP1 \t\t\t\n      SWAP3 \t\t\t\n      AND \t\t\t\n      PUSH 20\t\t\t\n      DUP3 \t\t\t\n      ADD \t\t\t\n      MSTORE \t\t\t\n      PUSH 40\t\t\t\n      DUP2 \t\t\t\n      ADD \t\t\t\n      SWAP2 \t\t\t\n      SWAP1 \t\t\t\n      SWAP2 \t\t\t\n      MSTORE \t\t\t\n      PUSH 60\t\t\t\n      ADD \t\t\t\n      SWAP1 \t\t\t\n      JUMP [out]\t\t\t\n    tag 782\t\t\t\n      JUMPDEST \t\t\t\n      PUSH 0\t\t\t\n      DUP1 \t\t\t\n      PUSH 40\t\t\t\n      DUP4 \t\t\t\n      DUP6 \t\t\t\n      SUB \t\t\t\n      SLT \t\t\t\n      ISZERO \t\t\t\n      PUSH [tag] 973\t\t\t\n      JUMPI \t\t\t\n      PUSH 0\t\t\t\n      DUP1 \t\t\t\n      REVERT \t\t\t\n    tag 973\t\t\t\n      JUMPDEST \t\t\t\n      POP \t\t\t\n      POP \t\t\t\n      DUP1 \t\t\t\n      MLOAD \t\t\t\n      PUSH 20\t\t\t\n      SWAP1 \t\t\t\n      SWAP2 \t\t\t\n      ADD \t\t\t\n      MLOAD \t\t\t\n      SWAP1 \t\t\t\n      SWAP3 \t\t\t\n      SWAP1 \t\t\t\n      SWAP2 \t\t\t\n      POP \t\t\t\n      JUMP [out]\t\t\t\n    .data\n      ADA389E1FC24A8587C776340EFB91B36E675792AB631816100D55DF0B5CF3CBC:\n        ddf252ad1be2c89b69c2b068fc378daa952ba7f163c4a11628f55a4df523b3ef\n"
}