{
	"compilerInput": "{\"language\":\"Solidity\",\"sources\":{\"NYKE/contracts/nETC.sol\":{\"content\":\"// SPDX-License-Identifier: MIT\\r\\npragma solidity >=0.4.22;\\r\\n\\r\\nimport \\\"./Ownable.sol\\\";\\r\\n\\r\\ncontract nETC is Ownable {\\r\\n    string public name     = \\\"nEthereum Classic\\\";\\r\\n    string public symbol   = \\\"nETC\\\";\\r\\n    uint8  public decimals = 18;\\r\\n\\r\\n    event  Approval(address indexed src, address indexed guy, uint wad);\\r\\n    event  Transfer(address indexed src, address indexed dst, uint wad);\\r\\n    event  Deposit(address indexed dst, uint wad);\\r\\n    event  Withdrawal(address indexed src, uint wad);\\r\\n    event  TransferFrom(address indexed src, address indexed dst, uint wad);\\r\\n\\r\\n    mapping (address => uint)                       public  balanceOf;\\r\\n    mapping (address => mapping (address => uint))  public  allowance;\\r\\n\\r\\n    function deposit() public payable {\\r\\n        balanceOf[msg.sender] += msg.value;\\r\\n        emit Deposit(msg.sender, msg.value);\\r\\n    }\\r\\n    \\r\\n    function withdraw(uint wad) public payable {\\r\\n        require(balanceOf[msg.sender] >= wad);\\r\\n        balanceOf[msg.sender] -= wad;\\r\\n        msg.sender.transfer(wad);\\r\\n        emit Withdrawal(msg.sender, wad);\\r\\n    }\\r\\n\\r\\n    function totalSupply() public view returns (uint) {\\r\\n        return address(this).balance;\\r\\n    }\\r\\n\\r\\n    function approve(address guy, uint wad) public returns (bool) {\\r\\n        allowance[msg.sender][guy] = wad;\\r\\n        emit Approval(msg.sender, guy, wad);\\r\\n        return true;\\r\\n    }\\r\\n\\r\\n    function transfer(address dst, uint wad) public returns (bool) {\\r\\n        return transferFrom(msg.sender, dst, wad);\\r\\n    }\\r\\n\\r\\n    function transferFrom(address src, address dst, uint wad)\\r\\n        public\\r\\n        returns (bool)\\r\\n    {\\r\\n        require(balanceOf[src] >= wad);\\r\\n\\r\\n        if (src != msg.sender && allowance[src][msg.sender] != uint(-1)) {\\r\\n            require(allowance[src][msg.sender] >= wad);\\r\\n            allowance[src][msg.sender] -= wad;\\r\\n        }\\r\\n\\r\\n        balanceOf[src] -= wad;\\r\\n        balanceOf[dst] += wad;\\r\\n\\r\\n        emit Transfer(src, dst, wad);\\r\\n\\r\\n        return true;\\r\\n    }\\r\\n}\\r\\n\"},\"NYKE/contracts/Ownable.sol\":{\"content\":\"/*\\r\\n\\r\\n ██████  ██████   ██████  ██   ██ ██████   ██████   ██████  ██   ██    ██████  ███████ ██    ██\\r\\n██      ██    ██ ██    ██ ██  ██  ██   ██ ██    ██ ██    ██ ██  ██     ██   ██ ██      ██    ██\\r\\n██      ██    ██ ██    ██ █████   ██████  ██    ██ ██    ██ █████      ██   ██ █████   ██    ██\\r\\n██      ██    ██ ██    ██ ██  ██  ██   ██ ██    ██ ██    ██ ██  ██     ██   ██ ██       ██  ██\\r\\n ██████  ██████   ██████  ██   ██ ██████   ██████   ██████  ██   ██ ██ ██████  ███████   ████\\r\\n\\r\\nFind any smart contract, and build your project faster: https://www.cookbook.dev/?utm=code\\r\\nTwitter: https://twitter.com/cookbook_dev\\r\\nDiscord: https://discord.gg/cookbookdev\\r\\n\\r\\nFind this contract on Cookbook: https://www.cookbook.dev/contracts/mintable-token?utm=code\\r\\n*/\\r\\n\\r\\n// SPDX-License-Identifier: MIT\\r\\n// OpenZeppelin Contracts (last updated v4.7.0) (access/Ownable.sol)\\r\\n\\r\\npragma solidity 0.6.12;\\r\\nimport \\\"./Context.sol\\\";\\r\\n\\r\\n/**\\r\\n * @dev Contract module which provides a basic access control mechanism, where\\r\\n * there is an account (an owner) that can be granted exclusive access to\\r\\n * specific functions.\\r\\n *\\r\\n * By default, the owner account will be the one that deploys the contract. This\\r\\n * can later be changed with {transferOwnership}.\\r\\n *\\r\\n * This module is used through inheritance. It will make available the modifier\\r\\n * `onlyOwner`, which can be applied to your functions to restrict their use to\\r\\n * the owner.\\r\\n */\\r\\ncontract Ownable is Context {\\r\\n    address private _owner;\\r\\n\\r\\n    event OwnershipTransferred(address indexed previousOwner, address indexed newOwner);\\r\\n\\r\\n    /**\\r\\n     * @dev Initializes the contract setting the deployer as the initial owner.\\r\\n     */\\r\\n    constructor() public{\\r\\n        _transferOwnership(_msgSender());\\r\\n    }\\r\\n\\r\\n    /**\\r\\n     * @dev Throws if called by any account other than the owner.\\r\\n     */\\r\\n    modifier onlyOwner() {\\r\\n        _checkOwner();\\r\\n        _;\\r\\n    }\\r\\n\\r\\n    /**\\r\\n     * @dev Returns the address of the current owner.\\r\\n     */\\r\\n    function owner() public view virtual returns (address) {\\r\\n        return _owner;\\r\\n    }\\r\\n\\r\\n    /**\\r\\n     * @dev Throws if the sender is not the owner.\\r\\n     */\\r\\n    function _checkOwner() internal view virtual {\\r\\n        require(owner() == _msgSender(), \\\"Ownable: caller is not the owner\\\");\\r\\n    }\\r\\n\\r\\n    /**\\r\\n     * @dev Leaves the contract without owner. It will not be possible to call\\r\\n     * `onlyOwner` functions anymore. Can only be called by the current owner.\\r\\n     *\\r\\n     * NOTE: Renouncing ownership will leave the contract without an owner,\\r\\n     * thereby removing any functionality that is only available to the owner.\\r\\n     */\\r\\n    function renounceOwnership() public virtual onlyOwner {\\r\\n        _transferOwnership(address(0));\\r\\n    }\\r\\n\\r\\n    /**\\r\\n     * @dev Transfers ownership of the contract to a new account (`newOwner`).\\r\\n     * Can only be called by the current owner.\\r\\n     */\\r\\n    function transferOwnership(address newOwner) public virtual onlyOwner {\\r\\n        require(newOwner != address(0), \\\"Ownable: new owner is the zero address\\\");\\r\\n        _transferOwnership(newOwner);\\r\\n    }\\r\\n\\r\\n    /**\\r\\n     * @dev Transfers ownership of the contract to a new account (`newOwner`).\\r\\n     * Internal function without access restriction.\\r\\n     */\\r\\n    function _transferOwnership(address newOwner) internal virtual {\\r\\n        address oldOwner = _owner;\\r\\n        _owner = newOwner;\\r\\n        emit OwnershipTransferred(oldOwner, newOwner);\\r\\n    }\\r\\n}\\r\\n\"},\"NYKE/contracts/Context.sol\":{\"content\":\"// SPDX-License-Identifier: MIT\\r\\npragma solidity 0.6.12;\\r\\n\\r\\n/*\\r\\n * @dev Provides information about the current execution context, including the\\r\\n * sender of the transaction and its data. While these are generally available\\r\\n * via msg.sender and msg.data, they should not be accessed in such a direct\\r\\n * manner, since when dealing with GSN meta-transactions the account sending and\\r\\n * paying for execution may not be the actual sender (as far as an application\\r\\n * is concerned).\\r\\n *\\r\\n * This contract is only required for intermediate, library-like contracts.\\r\\n */\\r\\nabstract contract Context {\\r\\n  function _msgSender() internal view virtual returns (address payable) {\\r\\n    return msg.sender;\\r\\n  }\\r\\n\\r\\n  function _msgData() internal view virtual returns (bytes memory) {\\r\\n    this; // silence state mutability warning without generating bytecode - see https://github.com/ethereum/solidity/issues/2691\\r\\n    return msg.data;\\r\\n  }\\r\\n}\"}},\"settings\":{\"optimizer\":{\"enabled\":true,\"runs\":200},\"outputSelection\":{\"*\":{\"\":[\"ast\"],\"*\":[\"abi\",\"metadata\",\"devdoc\",\"userdoc\",\"storageLayout\",\"evm.legacyAssembly\",\"evm.bytecode\",\"evm.deployedBytecode\",\"evm.methodIdentifiers\",\"evm.gasEstimates\",\"evm.assembly\"]}},\"remappings\":[]}}",
	"name": "nETC",
	"bytecode": {
		"linkReferences": {},
		"object": "60c060405260116080819052706e457468657265756d20436c617373696360781b60a090815261003291600191906100e2565b50604080518082019091526004808252636e45544360e01b602090920191825261005e916002916100e2565b506003805460ff1916601217905534801561007857600080fd5b5061008961008461008e565b610092565b610175565b3390565b600080546001600160a01b038381166001600160a01b0319831681178455604051919092169283917f8be0079c531659141344cd1fd0a4f28419497f9722a3daafe3b4186f6b6457e09190a35050565b828054600181600116156101000203166002900490600052602060002090601f016020900481019282601f1061012357805160ff1916838001178555610150565b82800160010185558215610150579182015b82811115610150578251825591602001919060010190610135565b5061015c929150610160565b5090565b5b8082111561015c5760008155600101610161565b6108fd806101846000396000f3fe6080604052600436106100dd5760003560e01c8063715018a61161007f578063a9059cbb11610059578063a9059cbb146102fb578063d0e30db014610334578063dd62ed3e1461033c578063f2fde38b14610377576100dd565b8063715018a6146102a05780638da5cb5b146102b557806395d89b41146102e6576100dd565b806323b872dd116100bb57806323b872dd146101e05780632e1a7d4d14610223578063313ce5671461024257806370a082311461026d576100dd565b806306fdde03146100e2578063095ea7b31461016c57806318160ddd146101b9575b600080fd5b3480156100ee57600080fd5b506100f76103aa565b6040805160208082528351818301528351919283929083019185019080838360005b83811015610131578181015183820152602001610119565b50505050905090810190601f16801561015e5780820380516001836020036101000a031916815260200191505b509250505060405180910390f35b34801561017857600080fd5b506101a56004803603604081101561018f57600080fd5b506001600160a01b038135169060200135610437565b604080519115158252519081900360200190f35b3480156101c557600080fd5b506101ce61049d565b60408051918252519081900360200190f35b3480156101ec57600080fd5b506101a56004803603606081101561020357600080fd5b506001600160a01b038135811691602081013590911690604001356104a1565b6102406004803603602081101561023957600080fd5b50356105d5565b005b34801561024e57600080fd5b5061025761066a565b6040805160ff9092168252519081900360200190f35b34801561027957600080fd5b506101ce6004803603602081101561029057600080fd5b50356001600160a01b0316610673565b3480156102ac57600080fd5b50610240610685565b3480156102c157600080fd5b506102ca610699565b604080516001600160a01b039092168252519081900360200190f35b3480156102f257600080fd5b506100f76106a8565b34801561030757600080fd5b506101a56004803603604081101561031e57600080fd5b506001600160a01b038135169060200135610700565b610240610714565b34801561034857600080fd5b506101ce6004803603604081101561035f57600080fd5b506001600160a01b0381358116916020013516610763565b34801561038357600080fd5b506102406004803603602081101561039a57600080fd5b50356001600160a01b0316610780565b60018054604080516020600284861615610100026000190190941693909304601f8101849004840282018401909252818152929183018282801561042f5780601f106104045761010080835404028352916020019161042f565b820191906000526020600020905b81548152906001019060200180831161041257829003601f168201915b505050505081565b3360008181526005602090815260408083206001600160a01b038716808552908352818420869055815186815291519394909390927f8c5be1e5ebec7d5bd14f71427d1e84f3dd0314c0f7b2291e5b200ac8c7c3b925928290030190a350600192915050565b4790565b6001600160a01b0383166000908152600460205260408120548211156104c657600080fd5b6001600160a01b038416331480159061050457506001600160a01b038416600090815260056020908152604080832033845290915290205460001914155b15610564576001600160a01b038416600090815260056020908152604080832033845290915290205482111561053957600080fd5b6001600160a01b03841660009081526005602090815260408083203384529091529020805483900390555b6001600160a01b03808516600081815260046020908152604080832080548890039055938716808352918490208054870190558351868152935191937fddf252ad1be2c89b69c2b068fc378daa952ba7f163c4a11628f55a4df523b3ef929081900390910190a35060019392505050565b336000908152600460205260409020548111156105f157600080fd5b33600081815260046020526040808220805485900390555183156108fc0291849190818181858888f19350505050158015610630573d6000803e3d6000fd5b5060408051828152905133917f7fcf532c15f0a6db0bd6d0e038bea71d30d808c7d98cb3bf7268a95bf5081b65919081900360200190a250565b60035460ff1681565b60046020526000908152604090205481565b61068d6107d9565b610697600061084d565b565b6000546001600160a01b031690565b6002805460408051602060018416156101000260001901909316849004601f8101849004840282018401909252818152929183018282801561042f5780601f106104045761010080835404028352916020019161042f565b600061070d3384846104a1565b9392505050565b33600081815260046020908152604091829020805434908101909155825190815291517fe1fffcc4923d04b559f4d29a8bfc6cda04eb5b0d3c460751c2402c5c5cc9109c9281900390910190a2565b600560209081526000928352604080842090915290825290205481565b6107886107d9565b6001600160a01b0381166107cd5760405162461bcd60e51b81526004018080602001828103825260268152602001806108a26026913960400191505060405180910390fd5b6107d68161084d565b50565b6107e161089d565b6001600160a01b03166107f2610699565b6001600160a01b031614610697576040805162461bcd60e51b815260206004820181905260248201527f4f776e61626c653a2063616c6c6572206973206e6f7420746865206f776e6572604482015290519081900360640190fd5b600080546001600160a01b038381166001600160a01b0319831681178455604051919092169283917f8be0079c531659141344cd1fd0a4f28419497f9722a3daafe3b4186f6b6457e09190a35050565b339056fe4f776e61626c653a206e6577206f776e657220697320746865207a65726f2061646472657373a264697066735822122016b76f7bafa7a4f317e864208fa13ffc5a495b38d3f514e9adc6d7f83267dbb764736f6c634300060c0033",
		"opcodes": "PUSH1 0xC0 PUSH1 0x40 MSTORE PUSH1 0x11 PUSH1 0x80 DUP2 SWAP1 MSTORE PUSH17 0x6E457468657265756D20436C6173736963 PUSH1 0x78 SHL PUSH1 0xA0 SWAP1 DUP2 MSTORE PUSH2 0x32 SWAP2 PUSH1 0x1 SWAP2 SWAP1 PUSH2 0xE2 JUMP JUMPDEST POP PUSH1 0x40 DUP1 MLOAD DUP1 DUP3 ADD SWAP1 SWAP2 MSTORE PUSH1 0x4 DUP1 DUP3 MSTORE PUSH4 0x6E455443 PUSH1 0xE0 SHL PUSH1 0x20 SWAP1 SWAP3 ADD SWAP2 DUP3 MSTORE PUSH2 0x5E SWAP2 PUSH1 0x2 SWAP2 PUSH2 0xE2 JUMP JUMPDEST POP PUSH1 0x3 DUP1 SLOAD PUSH1 0xFF NOT AND PUSH1 0x12 OR SWAP1 SSTORE CALLVALUE DUP1 ISZERO PUSH2 0x78 JUMPI PUSH1 0x0 DUP1 REVERT JUMPDEST POP PUSH2 0x89 PUSH2 0x84 PUSH2 0x8E JUMP JUMPDEST PUSH2 0x92 JUMP JUMPDEST PUSH2 0x175 JUMP JUMPDEST CALLER SWAP1 JUMP JUMPDEST PUSH1 0x0 DUP1 SLOAD PUSH1 0x1 PUSH1 0x1 PUSH1 0xA0 SHL SUB DUP4 DUP2 AND PUSH1 0x1 PUSH1 0x1 PUSH1 0xA0 SHL SUB NOT DUP4 AND DUP2 OR DUP5 SSTORE PUSH1 0x40 MLOAD SWAP2 SWAP1 SWAP3 AND SWAP3 DUP4 SWAP2 PUSH32 0x8BE0079C531659141344CD1FD0A4F28419497F9722A3DAAFE3B4186F6B6457E0 SWAP2 SWAP1 LOG3 POP POP JUMP JUMPDEST DUP3 DUP1 SLOAD PUSH1 0x1 DUP2 PUSH1 0x1 AND ISZERO PUSH2 0x100 MUL SUB AND PUSH1 0x2 SWAP1 DIV SWAP1 PUSH1 0x0 MSTORE PUSH1 0x20 PUSH1 0x0 KECCAK256 SWAP1 PUSH1 0x1F ADD PUSH1 0x20 SWAP1 DIV DUP2 ADD SWAP3 DUP3 PUSH1 0x1F LT PUSH2 0x123 JUMPI DUP1 MLOAD PUSH1 0xFF NOT AND DUP4 DUP1 ADD OR DUP6 SSTORE PUSH2 0x150 JUMP JUMPDEST DUP3 DUP1 ADD PUSH1 0x1 ADD DUP6 SSTORE DUP3 ISZERO PUSH2 0x150 JUMPI SWAP2 DUP3 ADD JUMPDEST DUP3 DUP2 GT ISZERO PUSH2 0x150 JUMPI DUP3 MLOAD DUP3 SSTORE SWAP2 PUSH1 0x20 ADD SWAP2 SWAP1 PUSH1 0x1 ADD SWAP1 PUSH2 0x135 JUMP JUMPDEST POP PUSH2 0x15C SWAP3 SWAP2 POP PUSH2 0x160 JUMP JUMPDEST POP SWAP1 JUMP JUMPDEST JUMPDEST DUP1 DUP3 GT ISZERO PUSH2 0x15C JUMPI PUSH1 0x0 DUP2 SSTORE PUSH1 0x1 ADD PUSH2 0x161 JUMP JUMPDEST PUSH2 0x8FD DUP1 PUSH2 0x184 PUSH1 0x0 CODECOPY PUSH1 0x0 RETURN INVALID PUSH1 0x80 PUSH1 0x40 MSTORE PUSH1 0x4 CALLDATASIZE LT PUSH2 0xDD JUMPI PUSH1 0x0 CALLDATALOAD PUSH1 0xE0 SHR DUP1 PUSH4 0x715018A6 GT PUSH2 0x7F JUMPI DUP1 PUSH4 0xA9059CBB GT PUSH2 0x59 JUMPI DUP1 PUSH4 0xA9059CBB EQ PUSH2 0x2FB JUMPI DUP1 PUSH4 0xD0E30DB0 EQ PUSH2 0x334 JUMPI DUP1 PUSH4 0xDD62ED3E EQ PUSH2 0x33C JUMPI DUP1 PUSH4 0xF2FDE38B EQ PUSH2 0x377 JUMPI PUSH2 0xDD JUMP JUMPDEST DUP1 PUSH4 0x715018A6 EQ PUSH2 0x2A0 JUMPI DUP1 PUSH4 0x8DA5CB5B EQ PUSH2 0x2B5 JUMPI DUP1 PUSH4 0x95D89B41 EQ PUSH2 0x2E6 JUMPI PUSH2 0xDD JUMP JUMPDEST DUP1 PUSH4 0x23B872DD GT PUSH2 0xBB JUMPI DUP1 PUSH4 0x23B872DD EQ PUSH2 0x1E0 JUMPI DUP1 PUSH4 0x2E1A7D4D EQ PUSH2 0x223 JUMPI DUP1 PUSH4 0x313CE567 EQ PUSH2 0x242 JUMPI DUP1 PUSH4 0x70A08231 EQ PUSH2 0x26D JUMPI PUSH2 0xDD JUMP JUMPDEST DUP1 PUSH4 0x6FDDE03 EQ PUSH2 0xE2 JUMPI DUP1 PUSH4 0x95EA7B3 EQ PUSH2 0x16C JUMPI DUP1 PUSH4 0x18160DDD EQ PUSH2 0x1B9 JUMPI JUMPDEST PUSH1 0x0 DUP1 REVERT JUMPDEST CALLVALUE DUP1 ISZERO PUSH2 0xEE JUMPI PUSH1 0x0 DUP1 REVERT JUMPDEST POP PUSH2 0xF7 PUSH2 0x3AA JUMP JUMPDEST PUSH1 0x40 DUP1 MLOAD PUSH1 0x20 DUP1 DUP3 MSTORE DUP4 MLOAD DUP2 DUP4 ADD MSTORE DUP4 MLOAD SWAP2 SWAP3 DUP4 SWAP3 SWAP1 DUP4 ADD SWAP2 DUP6 ADD SWAP1 DUP1 DUP4 DUP4 PUSH1 0x0 JUMPDEST DUP4 DUP2 LT ISZERO PUSH2 0x131 JUMPI DUP2 DUP2 ADD MLOAD DUP4 DUP3 ADD MSTORE PUSH1 0x20 ADD PUSH2 0x119 JUMP JUMPDEST POP POP POP POP SWAP1 POP SWAP1 DUP2 ADD SWAP1 PUSH1 0x1F AND DUP1 ISZERO PUSH2 0x15E JUMPI DUP1 DUP3 SUB DUP1 MLOAD PUSH1 0x1 DUP4 PUSH1 0x20 SUB PUSH2 0x100 EXP SUB NOT AND DUP2 MSTORE PUSH1 0x20 ADD SWAP2 POP JUMPDEST POP SWAP3 POP POP POP PUSH1 0x40 MLOAD DUP1 SWAP2 SUB SWAP1 RETURN JUMPDEST CALLVALUE DUP1 ISZERO PUSH2 0x178 JUMPI PUSH1 0x0 DUP1 REVERT JUMPDEST POP PUSH2 0x1A5 PUSH1 0x4 DUP1 CALLDATASIZE SUB PUSH1 0x40 DUP2 LT ISZERO PUSH2 0x18F JUMPI PUSH1 0x0 DUP1 REVERT JUMPDEST POP PUSH1 0x1 PUSH1 0x1 PUSH1 0xA0 SHL SUB DUP2 CALLDATALOAD AND SWAP1 PUSH1 0x20 ADD CALLDATALOAD PUSH2 0x437 JUMP JUMPDEST PUSH1 0x40 DUP1 MLOAD SWAP2 ISZERO ISZERO DUP3 MSTORE MLOAD SWAP1 DUP2 SWAP1 SUB PUSH1 0x20 ADD SWAP1 RETURN JUMPDEST CALLVALUE DUP1 ISZERO PUSH2 0x1C5 JUMPI PUSH1 0x0 DUP1 REVERT JUMPDEST POP PUSH2 0x1CE PUSH2 0x49D JUMP JUMPDEST PUSH1 0x40 DUP1 MLOAD SWAP2 DUP3 MSTORE MLOAD SWAP1 DUP2 SWAP1 SUB PUSH1 0x20 ADD SWAP1 RETURN JUMPDEST CALLVALUE DUP1 ISZERO PUSH2 0x1EC JUMPI PUSH1 0x0 DUP1 REVERT JUMPDEST POP PUSH2 0x1A5 PUSH1 0x4 DUP1 CALLDATASIZE SUB PUSH1 0x60 DUP2 LT ISZERO PUSH2 0x203 JUMPI PUSH1 0x0 DUP1 REVERT JUMPDEST POP PUSH1 0x1 PUSH1 0x1 PUSH1 0xA0 SHL SUB DUP2 CALLDATALOAD DUP2 AND SWAP2 PUSH1 0x20 DUP2 ADD CALLDATALOAD SWAP1 SWAP2 AND SWAP1 PUSH1 0x40 ADD CALLDATALOAD PUSH2 0x4A1 JUMP JUMPDEST PUSH2 0x240 PUSH1 0x4 DUP1 CALLDATASIZE SUB PUSH1 0x20 DUP2 LT ISZERO PUSH2 0x239 JUMPI PUSH1 0x0 DUP1 REVERT JUMPDEST POP CALLDATALOAD PUSH2 0x5D5 JUMP JUMPDEST STOP JUMPDEST CALLVALUE DUP1 ISZERO PUSH2 0x24E JUMPI PUSH1 0x0 DUP1 REVERT JUMPDEST POP PUSH2 0x257 PUSH2 0x66A JUMP JUMPDEST PUSH1 0x40 DUP1 MLOAD PUSH1 0xFF SWAP1 SWAP3 AND DUP3 MSTORE MLOAD SWAP1 DUP2 SWAP1 SUB PUSH1 0x20 ADD SWAP1 RETURN JUMPDEST CALLVALUE DUP1 ISZERO PUSH2 0x279 JUMPI PUSH1 0x0 DUP1 REVERT JUMPDEST POP PUSH2 0x1CE PUSH1 0x4 DUP1 CALLDATASIZE SUB PUSH1 0x20 DUP2 LT ISZERO PUSH2 0x290 JUMPI PUSH1 0x0 DUP1 REVERT JUMPDEST POP CALLDATALOAD PUSH1 0x1 PUSH1 0x1 PUSH1 0xA0 SHL SUB AND PUSH2 0x673 JUMP JUMPDEST CALLVALUE DUP1 ISZERO PUSH2 0x2AC JUMPI PUSH1 0x0 DUP1 REVERT JUMPDEST POP PUSH2 0x240 PUSH2 0x685 JUMP JUMPDEST CALLVALUE DUP1 ISZERO PUSH2 0x2C1 JUMPI PUSH1 0x0 DUP1 REVERT JUMPDEST POP PUSH2 0x2CA PUSH2 0x699 JUMP JUMPDEST PUSH1 0x40 DUP1 MLOAD PUSH1 0x1 PUSH1 0x1 PUSH1 0xA0 SHL SUB SWAP1 SWAP3 AND DUP3 MSTORE MLOAD SWAP1 DUP2 SWAP1 SUB PUSH1 0x20 ADD SWAP1 RETURN JUMPDEST CALLVALUE DUP1 ISZERO PUSH2 0x2F2 JUMPI PUSH1 0x0 DUP1 REVERT JUMPDEST POP PUSH2 0xF7 PUSH2 0x6A8 JUMP JUMPDEST CALLVALUE DUP1 ISZERO PUSH2 0x307 JUMPI PUSH1 0x0 DUP1 REVERT JUMPDEST POP PUSH2 0x1A5 PUSH1 0x4 DUP1 CALLDATASIZE SUB PUSH1 0x40 DUP2 LT ISZERO PUSH2 0x31E JUMPI PUSH1 0x0 DUP1 REVERT JUMPDEST POP PUSH1 0x1 PUSH1 0x1 PUSH1 0xA0 SHL SUB DUP2 CALLDATALOAD AND SWAP1 PUSH1 0x20 ADD CALLDATALOAD PUSH2 0x700 JUMP JUMPDEST PUSH2 0x240 PUSH2 0x714 JUMP JUMPDEST CALLVALUE DUP1 ISZERO PUSH2 0x348 JUMPI PUSH1 0x0 DUP1 REVERT JUMPDEST POP PUSH2 0x1CE PUSH1 0x4 DUP1 CALLDATASIZE SUB PUSH1 0x40 DUP2 LT ISZERO PUSH2 0x35F JUMPI PUSH1 0x0 DUP1 REVERT JUMPDEST POP PUSH1 0x1 PUSH1 0x1 PUSH1 0xA0 SHL SUB DUP2 CALLDATALOAD DUP2 AND SWAP2 PUSH1 0x20 ADD CALLDATALOAD AND PUSH2 0x763 JUMP JUMPDEST CALLVALUE DUP1 ISZERO PUSH2 0x383 JUMPI PUSH1 0x0 DUP1 REVERT JUMPDEST POP PUSH2 0x240 PUSH1 0x4 DUP1 CALLDATASIZE SUB PUSH1 0x20 DUP2 LT ISZERO PUSH2 0x39A JUMPI PUSH1 0x0 DUP1 REVERT JUMPDEST POP CALLDATALOAD PUSH1 0x1 PUSH1 0x1 PUSH1 0xA0 SHL SUB AND PUSH2 0x780 JUMP JUMPDEST PUSH1 0x1 DUP1 SLOAD PUSH1 0x40 DUP1 MLOAD PUSH1 0x20 PUSH1 0x2 DUP5 DUP7 AND ISZERO PUSH2 0x100 MUL PUSH1 0x0 NOT ADD SWAP1 SWAP5 AND SWAP4 SWAP1 SWAP4 DIV PUSH1 0x1F DUP2 ADD DUP5 SWAP1 DIV DUP5 MUL DUP3 ADD DUP5 ADD SWAP1 SWAP3 MSTORE DUP2 DUP2 MSTORE SWAP3 SWAP2 DUP4 ADD DUP3 DUP3 DUP1 ISZERO PUSH2 0x42F JUMPI DUP1 PUSH1 0x1F LT PUSH2 0x404 JUMPI PUSH2 0x100 DUP1 DUP4 SLOAD DIV MUL DUP4 MSTORE SWAP2 PUSH1 0x20 ADD SWAP2 PUSH2 0x42F JUMP JUMPDEST DUP3 ADD SWAP2 SWAP1 PUSH1 0x0 MSTORE PUSH1 0x20 PUSH1 0x0 KECCAK256 SWAP1 JUMPDEST DUP2 SLOAD DUP2 MSTORE SWAP1 PUSH1 0x1 ADD SWAP1 PUSH1 0x20 ADD DUP1 DUP4 GT PUSH2 0x412 JUMPI DUP3 SWAP1 SUB PUSH1 0x1F AND DUP3 ADD SWAP2 JUMPDEST POP POP POP POP POP DUP2 JUMP JUMPDEST CALLER PUSH1 0x0 DUP2 DUP2 MSTORE PUSH1 0x5 PUSH1 0x20 SWAP1 DUP2 MSTORE PUSH1 0x40 DUP1 DUP4 KECCAK256 PUSH1 0x1 PUSH1 0x1 PUSH1 0xA0 SHL SUB DUP8 AND DUP1 DUP6 MSTORE SWAP1 DUP4 MSTORE DUP2 DUP5 KECCAK256 DUP7 SWAP1 SSTORE DUP2 MLOAD DUP7 DUP2 MSTORE SWAP2 MLOAD SWAP4 SWAP5 SWAP1 SWAP4 SWAP1 SWAP3 PUSH32 0x8C5BE1E5EBEC7D5BD14F71427D1E84F3DD0314C0F7B2291E5B200AC8C7C3B925 SWAP3 DUP3 SWAP1 SUB ADD SWAP1 LOG3 POP PUSH1 0x1 SWAP3 SWAP2 POP POP JUMP JUMPDEST SELFBALANCE SWAP1 JUMP JUMPDEST PUSH1 0x1 PUSH1 0x1 PUSH1 0xA0 SHL SUB DUP4 AND PUSH1 0x0 SWAP1 DUP2 MSTORE PUSH1 0x4 PUSH1 0x20 MSTORE PUSH1 0x40 DUP2 KECCAK256 SLOAD DUP3 GT ISZERO PUSH2 0x4C6 JUMPI PUSH1 0x0 DUP1 REVERT JUMPDEST PUSH1 0x1 PUSH1 0x1 PUSH1 0xA0 SHL SUB DUP5 AND CALLER EQ DUP1 ISZERO SWAP1 PUSH2 0x504 JUMPI POP PUSH1 0x1 PUSH1 0x1 PUSH1 0xA0 SHL SUB DUP5 AND PUSH1 0x0 SWAP1 DUP2 MSTORE PUSH1 0x5 PUSH1 0x20 SWAP1 DUP2 MSTORE PUSH1 0x40 DUP1 DUP4 KECCAK256 CALLER DUP5 MSTORE SWAP1 SWAP2 MSTORE SWAP1 KECCAK256 SLOAD PUSH1 0x0 NOT EQ ISZERO JUMPDEST ISZERO PUSH2 0x564 JUMPI PUSH1 0x1 PUSH1 0x1 PUSH1 0xA0 SHL SUB DUP5 AND PUSH1 0x0 SWAP1 DUP2 MSTORE PUSH1 0x5 PUSH1 0x20 SWAP1 DUP2 MSTORE PUSH1 0x40 DUP1 DUP4 KECCAK256 CALLER DUP5 MSTORE SWAP1 SWAP2 MSTORE SWAP1 KECCAK256 SLOAD DUP3 GT ISZERO PUSH2 0x539 JUMPI PUSH1 0x0 DUP1 REVERT JUMPDEST PUSH1 0x1 PUSH1 0x1 PUSH1 0xA0 SHL SUB DUP5 AND PUSH1 0x0 SWAP1 DUP2 MSTORE PUSH1 0x5 PUSH1 0x20 SWAP1 DUP2 MSTORE PUSH1 0x40 DUP1 DUP4 KECCAK256 CALLER DUP5 MSTORE SWAP1 SWAP2 MSTORE SWAP1 KECCAK256 DUP1 SLOAD DUP4 SWAP1 SUB SWAP1 SSTORE JUMPDEST PUSH1 0x1 PUSH1 0x1 PUSH1 0xA0 SHL SUB DUP1 DUP6 AND PUSH1 0x0 DUP2 DUP2 MSTORE PUSH1 0x4 PUSH1 0x20 SWAP1 DUP2 MSTORE PUSH1 0x40 DUP1 DUP4 KECCAK256 DUP1 SLOAD DUP9 SWAP1 SUB SWAP1 SSTORE SWAP4 DUP8 AND DUP1 DUP4 MSTORE SWAP2 DUP5 SWAP1 KECCAK256 DUP1 SLOAD DUP8 ADD SWAP1 SSTORE DUP4 MLOAD DUP7 DUP2 MSTORE SWAP4 MLOAD SWAP2 SWAP4 PUSH32 0xDDF252AD1BE2C89B69C2B068FC378DAA952BA7F163C4A11628F55A4DF523B3EF SWAP3 SWAP1 DUP2 SWAP1 SUB SWAP1 SWAP2 ADD SWAP1 LOG3 POP PUSH1 0x1 SWAP4 SWAP3 POP POP POP JUMP JUMPDEST CALLER PUSH1 0x0 SWAP1 DUP2 MSTORE PUSH1 0x4 PUSH1 0x20 MSTORE PUSH1 0x40 SWAP1 KECCAK256 SLOAD DUP2 GT ISZERO PUSH2 0x5F1 JUMPI PUSH1 0x0 DUP1 REVERT JUMPDEST CALLER PUSH1 0x0 DUP2 DUP2 MSTORE PUSH1 0x4 PUSH1 0x20 MSTORE PUSH1 0x40 DUP1 DUP3 KECCAK256 DUP1 SLOAD DUP6 SWAP1 SUB SWAP1 SSTORE MLOAD DUP4 ISZERO PUSH2 0x8FC MUL SWAP2 DUP5 SWAP2 SWAP1 DUP2 DUP2 DUP2 DUP6 DUP9 DUP9 CALL SWAP4 POP POP POP POP ISZERO DUP1 ISZERO PUSH2 0x630 JUMPI RETURNDATASIZE PUSH1 0x0 DUP1 RETURNDATACOPY RETURNDATASIZE PUSH1 0x0 REVERT JUMPDEST POP PUSH1 0x40 DUP1 MLOAD DUP3 DUP2 MSTORE SWAP1 MLOAD CALLER SWAP2 PUSH32 0x7FCF532C15F0A6DB0BD6D0E038BEA71D30D808C7D98CB3BF7268A95BF5081B65 SWAP2 SWAP1 DUP2 SWAP1 SUB PUSH1 0x20 ADD SWAP1 LOG2 POP JUMP JUMPDEST PUSH1 0x3 SLOAD PUSH1 0xFF AND DUP2 JUMP JUMPDEST PUSH1 0x4 PUSH1 0x20 MSTORE PUSH1 0x0 SWAP1 DUP2 MSTORE PUSH1 0x40 SWAP1 KECCAK256 SLOAD DUP2 JUMP JUMPDEST PUSH2 0x68D PUSH2 0x7D9 JUMP JUMPDEST PUSH2 0x697 PUSH1 0x0 PUSH2 0x84D JUMP JUMPDEST JUMP JUMPDEST PUSH1 0x0 SLOAD PUSH1 0x1 PUSH1 0x1 PUSH1 0xA0 SHL SUB AND SWAP1 JUMP JUMPDEST PUSH1 0x2 DUP1 SLOAD PUSH1 0x40 DUP1 MLOAD PUSH1 0x20 PUSH1 0x1 DUP5 AND ISZERO PUSH2 0x100 MUL PUSH1 0x0 NOT ADD SWAP1 SWAP4 AND DUP5 SWAP1 DIV PUSH1 0x1F DUP2 ADD DUP5 SWAP1 DIV DUP5 MUL DUP3 ADD DUP5 ADD SWAP1 SWAP3 MSTORE DUP2 DUP2 MSTORE SWAP3 SWAP2 DUP4 ADD DUP3 DUP3 DUP1 ISZERO PUSH2 0x42F JUMPI DUP1 PUSH1 0x1F LT PUSH2 0x404 JUMPI PUSH2 0x100 DUP1 DUP4 SLOAD DIV MUL DUP4 MSTORE SWAP2 PUSH1 0x20 ADD SWAP2 PUSH2 0x42F JUMP JUMPDEST PUSH1 0x0 PUSH2 0x70D CALLER DUP5 DUP5 PUSH2 0x4A1 JUMP JUMPDEST SWAP4 SWAP3 POP POP POP JUMP JUMPDEST CALLER PUSH1 0x0 DUP2 DUP2 MSTORE PUSH1 0x4 PUSH1 0x20 SWAP1 DUP2 MSTORE PUSH1 0x40 SWAP2 DUP3 SWAP1 KECCAK256 DUP1 SLOAD CALLVALUE SWAP1 DUP2 ADD SWAP1 SWAP2 SSTORE DUP3 MLOAD SWAP1 DUP2 MSTORE SWAP2 MLOAD PUSH32 0xE1FFFCC4923D04B559F4D29A8BFC6CDA04EB5B0D3C460751C2402C5C5CC9109C SWAP3 DUP2 SWAP1 SUB SWAP1 SWAP2 ADD SWAP1 LOG2 JUMP JUMPDEST PUSH1 0x5 PUSH1 0x20 SWAP1 DUP2 MSTORE PUSH1 0x0 SWAP3 DUP4 MSTORE PUSH1 0x40 DUP1 DUP5 KECCAK256 SWAP1 SWAP2 MSTORE SWAP1 DUP3 MSTORE SWAP1 KECCAK256 SLOAD DUP2 JUMP JUMPDEST PUSH2 0x788 PUSH2 0x7D9 JUMP JUMPDEST PUSH1 0x1 PUSH1 0x1 PUSH1 0xA0 SHL SUB DUP2 AND PUSH2 0x7CD JUMPI PUSH1 0x40 MLOAD PUSH3 0x461BCD PUSH1 0xE5 SHL DUP2 MSTORE PUSH1 0x4 ADD DUP1 DUP1 PUSH1 0x20 ADD DUP3 DUP2 SUB DUP3 MSTORE PUSH1 0x26 DUP2 MSTORE PUSH1 0x20 ADD DUP1 PUSH2 0x8A2 PUSH1 0x26 SWAP2 CODECOPY PUSH1 0x40 ADD SWAP2 POP POP PUSH1 0x40 MLOAD DUP1 SWAP2 SUB SWAP1 REVERT JUMPDEST PUSH2 0x7D6 DUP2 PUSH2 0x84D JUMP JUMPDEST POP JUMP JUMPDEST PUSH2 0x7E1 PUSH2 0x89D JUMP JUMPDEST PUSH1 0x1 PUSH1 0x1 PUSH1 0xA0 SHL SUB AND PUSH2 0x7F2 PUSH2 0x699 JUMP JUMPDEST PUSH1 0x1 PUSH1 0x1 PUSH1 0xA0 SHL SUB AND EQ PUSH2 0x697 JUMPI PUSH1 0x40 DUP1 MLOAD PUSH3 0x461BCD PUSH1 0xE5 SHL DUP2 MSTORE PUSH1 0x20 PUSH1 0x4 DUP3 ADD DUP2 SWAP1 MSTORE PUSH1 0x24 DUP3 ADD MSTORE PUSH32 0x4F776E61626C653A2063616C6C6572206973206E6F7420746865206F776E6572 PUSH1 0x44 DUP3 ADD MSTORE SWAP1 MLOAD SWAP1 DUP2 SWAP1 SUB PUSH1 0x64 ADD SWAP1 REVERT JUMPDEST PUSH1 0x0 DUP1 SLOAD PUSH1 0x1 PUSH1 0x1 PUSH1 0xA0 SHL SUB DUP4 DUP2 AND PUSH1 0x1 PUSH1 0x1 PUSH1 0xA0 SHL SUB NOT DUP4 AND DUP2 OR DUP5 SSTORE PUSH1 0x40 MLOAD SWAP2 SWAP1 SWAP3 AND SWAP3 DUP4 SWAP2 PUSH32 0x8BE0079C531659141344CD1FD0A4F28419497F9722A3DAAFE3B4186F6B6457E0 SWAP2 SWAP1 LOG3 POP POP JUMP JUMPDEST CALLER SWAP1 JUMP INVALID 0x4F PUSH24 0x6E61626C653A206E6577206F776E65722069732074686520 PUSH27 0x65726F2061646472657373A264697066735822122016B76F7BAFA7 LOG4 RETURN OR 0xE8 PUSH5 0x208FA13FFC GAS 0x49 JUMPDEST CODESIZE 0xD3 CREATE2 EQ 0xE9 0xAD 0xC6 0xD7 0xF8 ORIGIN PUSH8 0xDBB764736F6C6343 STOP MOD 0xC STOP CALLER "
	},
	"abi": [
		{
			"anonymous": false,
			"inputs": [
				{
					"indexed": true,
					"internalType": "address",
					"name": "src",
					"type": "address"
				},
				{
					"indexed": true,
					"internalType": "address",
					"name": "guy",
					"type": "address"
				},
				{
					"indexed": false,
					"internalType": "uint256",
					"name": "wad",
					"type": "uint256"
				}
			],
			"name": "Approval",
			"type": "event"
		},
		{
			"anonymous": false,
			"inputs": [
				{
					"indexed": true,
					"internalType": "address",
					"name": "dst",
					"type": "address"
				},
				{
					"indexed": false,
					"internalType": "uint256",
					"name": "wad",
					"type": "uint256"
				}
			],
			"name": "Deposit",
			"type": "event"
		},
		{
			"anonymous": false,
			"inputs": [
				{
					"indexed": true,
					"internalType": "address",
					"name": "previousOwner",
					"type": "address"
				},
				{
					"indexed": true,
					"internalType": "address",
					"name": "newOwner",
					"type": "address"
				}
			],
			"name": "OwnershipTransferred",
			"type": "event"
		},
		{
			"anonymous": false,
			"inputs": [
				{
					"indexed": true,
					"internalType": "address",
					"name": "src",
					"type": "address"
				},
				{
					"indexed": true,
					"internalType": "address",
					"name": "dst",
					"type": "address"
				},
				{
					"indexed": false,
					"internalType": "uint256",
					"name": "wad",
					"type": "uint256"
				}
			],
			"name": "Transfer",
			"type": "event"
		},
		{
			"anonymous": false,
			"inputs": [
				{
					"indexed": true,
					"internalType": "address",
					"name": "src",
					"type": "address"
				},
				{
					"indexed": true,
					"internalType": "address",
					"name": "dst",
					"type": "address"
				},
				{
					"indexed": false,
					"internalType": "uint256",
					"name": "wad",
					"type": "uint256"
				}
			],
			"name": "TransferFrom",
			"type": "event"
		},
		{
			"anonymous": false,
			"inputs": [
				{
					"indexed": true,
					"internalType": "address",
					"name": "src",
					"type": "address"
				},
				{
					"indexed": false,
					"internalType": "uint256",
					"name": "wad",
					"type": "uint256"
				}
			],
			"name": "Withdrawal",
			"type": "event"
		},
		{
			"inputs": [
				{
					"internalType": "address",
					"name": "",
					"type": "address"
				},
				{
					"internalType": "address",
					"name": "",
					"type": "address"
				}
			],
			"name": "allowance",
			"outputs": [
				{
					"internalType": "uint256",
					"name": "",
					"type": "uint256"
				}
			],
			"stateMutability": "view",
			"type": "function"
		},
		{
			"inputs": [
				{
					"internalType": "address",
					"name": "guy",
					"type": "address"
				},
				{
					"internalType": "uint256",
					"name": "wad",
					"type": "uint256"
				}
			],
			"name": "approve",
			"outputs": [
				{
					"internalType": "bool",
					"name": "",
					"type": "bool"
				}
			],
			"stateMutability": "nonpayable",
			"type": "function"
		},
		{
			"inputs": [
				{
					"internalType": "address",
					"name": "",
					"type": "address"
				}
			],
			"name": "balanceOf",
			"outputs": [
				{
					"internalType": "uint256",
					"name": "",
					"type": "uint256"
				}
			],
			"stateMutability": "view",
			"type": "function"
		},
		{
			"inputs": [],
			"name": "decimals",
			"outputs": [
				{
					"internalType": "uint8",
					"name": "",
					"type": "uint8"
				}
			],
			"stateMutability": "view",
			"type": "function"
		},
		{
			"inputs": [],
			"name": "deposit",
			"outputs": [],
			"stateMutability": "payable",
			"type": "function"
		},
		{
			"inputs": [],
			"name": "name",
			"outputs": [
				{
					"internalType": "string",
					"name": "",
					"type": "string"
				}
			],
			"stateMutability": "view",
			"type": "function"
		},
		{
			"inputs": [],
			"name": "owner",
			"outputs": [
				{
					"internalType": "address",
					"name": "",
					"type": "address"
				}
			],
			"stateMutability": "view",
			"type": "function"
		},
		{
			"inputs": [],
			"name": "renounceOwnership",
			"outputs": [],
			"stateMutability": "nonpayable",
			"type": "function"
		},
		{
			"inputs": [],
			"name": "symbol",
			"outputs": [
				{
					"internalType": "string",
					"name": "",
					"type": "string"
				}
			],
			"stateMutability": "view",
			"type": "function"
		},
		{
			"inputs": [],
			"name": "totalSupply",
			"outputs": [
				{
					"internalType": "uint256",
					"name": "",
					"type": "uint256"
				}
			],
			"stateMutability": "view",
			"type": "function"
		},
		{
			"inputs": [
				{
					"internalType": "address",
					"name": "dst",
					"type": "address"
				},
				{
					"internalType": "uint256",
					"name": "wad",
					"type": "uint256"
				}
			],
			"name": "transfer",
			"outputs": [
				{
					"internalType": "bool",
					"name": "",
					"type": "bool"
				}
			],
			"stateMutability": "nonpayable",
			"type": "function"
		},
		{
			"inputs": [
				{
					"internalType": "address",
					"name": "src",
					"type": "address"
				},
				{
					"internalType": "address",
					"name": "dst",
					"type": "address"
				},
				{
					"internalType": "uint256",
					"name": "wad",
					"type": "uint256"
				}
			],
			"name": "transferFrom",
			"outputs": [
				{
					"internalType": "bool",
					"name": "",
					"type": "bool"
				}
			],
			"stateMutability": "nonpayable",
			"type": "function"
		},
		{
			"inputs": [
				{
					"internalType": "address",
					"name": "newOwner",
					"type": "address"
				}
			],
			"name": "transferOwnership",
			"outputs": [],
			"stateMutability": "nonpayable",
			"type": "function"
		},
		{
			"inputs": [
				{
					"internalType": "uint256",
					"name": "wad",
					"type": "uint256"
				}
			],
			"name": "withdraw",
			"outputs": [],
			"stateMutability": "payable",
			"type": "function"
		}
	],
	"storageLayout": {
		"storage": [
			{
				"astId": 30,
				"contract": "NYKE/contracts/nETC.sol:nETC",
				"label": "_owner",
				"offset": 0,
				"slot": "0",
				"type": "t_address"
			},
			{
				"astId": 143,
				"contract": "NYKE/contracts/nETC.sol:nETC",
				"label": "name",
				"offset": 0,
				"slot": "1",
				"type": "t_string_storage"
			},
			{
				"astId": 146,
				"contract": "NYKE/contracts/nETC.sol:nETC",
				"label": "symbol",
				"offset": 0,
				"slot": "2",
				"type": "t_string_storage"
			},
			{
				"astId": 149,
				"contract": "NYKE/contracts/nETC.sol:nETC",
				"label": "decimals",
				"offset": 0,
				"slot": "3",
				"type": "t_uint8"
			},
			{
				"astId": 189,
				"contract": "NYKE/contracts/nETC.sol:nETC",
				"label": "balanceOf",
				"offset": 0,
				"slot": "4",
				"type": "t_mapping(t_address,t_uint256)"
			},
			{
				"astId": 195,
				"contract": "NYKE/contracts/nETC.sol:nETC",
				"label": "allowance",
				"offset": 0,
				"slot": "5",
				"type": "t_mapping(t_address,t_mapping(t_address,t_uint256))"
			}
		],
		"types": {
			"t_address": {
				"encoding": "inplace",
				"label": "address",
				"numberOfBytes": "20"
			},
			"t_mapping(t_address,t_mapping(t_address,t_uint256))": {
				"encoding": "mapping",
				"key": "t_address",
				"label": "mapping(address => mapping(address => uint256))",
				"numberOfBytes": "32",
				"value": "t_mapping(t_address,t_uint256)"
			},
			"t_mapping(t_address,t_uint256)": {
				"encoding": "mapping",
				"key": "t_address",
				"label": "mapping(address => uint256)",
				"numberOfBytes": "32",
				"value": "t_uint256"
			},
			"t_string_storage": {
				"encoding": "bytes",
				"label": "string",
				"numberOfBytes": "32"
			},
			"t_uint256": {
				"encoding": "inplace",
				"label": "uint256",
				"numberOfBytes": "32"
			},
			"t_uint8": {
				"encoding": "inplace",
				"label": "uint8",
				"numberOfBytes": "1"
			}
		}
	},
	"web3Deploy": "var netcContract = new web3.eth.Contract([{\"anonymous\":false,\"inputs\":[{\"indexed\":true,\"internalType\":\"address\",\"name\":\"src\",\"type\":\"address\"},{\"indexed\":true,\"internalType\":\"address\",\"name\":\"guy\",\"type\":\"address\"},{\"indexed\":false,\"internalType\":\"uint256\",\"name\":\"wad\",\"type\":\"uint256\"}],\"name\":\"Approval\",\"type\":\"event\"},{\"anonymous\":false,\"inputs\":[{\"indexed\":true,\"internalType\":\"address\",\"name\":\"dst\",\"type\":\"address\"},{\"indexed\":false,\"internalType\":\"uint256\",\"name\":\"wad\",\"type\":\"uint256\"}],\"name\":\"Deposit\",\"type\":\"event\"},{\"anonymous\":false,\"inputs\":[{\"indexed\":true,\"internalType\":\"address\",\"name\":\"previousOwner\",\"type\":\"address\"},{\"indexed\":true,\"internalType\":\"address\",\"name\":\"newOwner\",\"type\":\"address\"}],\"name\":\"OwnershipTransferred\",\"type\":\"event\"},{\"anonymous\":false,\"inputs\":[{\"indexed\":true,\"internalType\":\"address\",\"name\":\"src\",\"type\":\"address\"},{\"indexed\":true,\"internalType\":\"address\",\"name\":\"dst\",\"type\":\"address\"},{\"indexed\":false,\"internalType\":\"uint256\",\"name\":\"wad\",\"type\":\"uint256\"}],\"name\":\"Transfer\",\"type\":\"event\"},{\"anonymous\":false,\"inputs\":[{\"indexed\":true,\"internalType\":\"address\",\"name\":\"src\",\"type\":\"address\"},{\"indexed\":true,\"internalType\":\"address\",\"name\":\"dst\",\"type\":\"address\"},{\"indexed\":false,\"internalType\":\"uint256\",\"name\":\"wad\",\"type\":\"uint256\"}],\"name\":\"TransferFrom\",\"type\":\"event\"},{\"anonymous\":false,\"inputs\":[{\"indexed\":true,\"internalType\":\"address\",\"name\":\"src\",\"type\":\"address\"},{\"indexed\":false,\"internalType\":\"uint256\",\"name\":\"wad\",\"type\":\"uint256\"}],\"name\":\"Withdrawal\",\"type\":\"event\"},{\"inputs\":[{\"internalType\":\"address\",\"name\":\"\",\"type\":\"address\"},{\"internalType\":\"address\",\"name\":\"\",\"type\":\"address\"}],\"name\":\"allowance\",\"outputs\":[{\"internalType\":\"uint256\",\"name\":\"\",\"type\":\"uint256\"}],\"stateMutability\":\"view\",\"type\":\"function\"},{\"inputs\":[{\"internalType\":\"address\",\"name\":\"guy\",\"type\":\"address\"},{\"internalType\":\"uint256\",\"name\":\"wad\",\"type\":\"uint256\"}],\"name\":\"approve\",\"outputs\":[{\"internalType\":\"bool\",\"name\":\"\",\"type\":\"bool\"}],\"stateMutability\":\"nonpayable\",\"type\":\"function\"},{\"inputs\":[{\"internalType\":\"address\",\"name\":\"\",\"type\":\"address\"}],\"name\":\"balanceOf\",\"outputs\":[{\"internalType\":\"uint256\",\"name\":\"\",\"type\":\"uint256\"}],\"stateMutability\":\"view\",\"type\":\"function\"},{\"inputs\":[],\"name\":\"decimals\",\"outputs\":[{\"internalType\":\"uint8\",\"name\":\"\",\"type\":\"uint8\"}],\"stateMutability\":\"view\",\"type\":\"function\"},{\"inputs\":[],\"name\":\"deposit\",\"outputs\":[],\"stateMutability\":\"payable\",\"type\":\"function\"},{\"inputs\":[],\"name\":\"name\",\"outputs\":[{\"internalType\":\"string\",\"name\":\"\",\"type\":\"string\"}],\"stateMutability\":\"view\",\"type\":\"function\"},{\"inputs\":[],\"name\":\"owner\",\"outputs\":[{\"internalType\":\"address\",\"name\":\"\",\"type\":\"address\"}],\"stateMutability\":\"view\",\"type\":\"function\"},{\"inputs\":[],\"name\":\"renounceOwnership\",\"outputs\":[],\"stateMutability\":\"nonpayable\",\"type\":\"function\"},{\"inputs\":[],\"name\":\"symbol\",\"outputs\":[{\"internalType\":\"string\",\"name\":\"\",\"type\":\"string\"}],\"stateMutability\":\"view\",\"type\":\"function\"},{\"inputs\":[],\"name\":\"totalSupply\",\"outputs\":[{\"internalType\":\"uint256\",\"name\":\"\",\"type\":\"uint256\"}],\"stateMutability\":\"view\",\"type\":\"function\"},{\"inputs\":[{\"internalType\":\"address\",\"name\":\"dst\",\"type\":\"address\"},{\"internalType\":\"uint256\",\"name\":\"wad\",\"type\":\"uint256\"}],\"name\":\"transfer\",\"outputs\":[{\"internalType\":\"bool\",\"name\":\"\",\"type\":\"bool\"}],\"stateMutability\":\"nonpayable\",\"type\":\"function\"},{\"inputs\":[{\"internalType\":\"address\",\"name\":\"src\",\"type\":\"address\"},{\"internalType\":\"address\",\"name\":\"dst\",\"type\":\"address\"},{\"internalType\":\"uint256\",\"name\":\"wad\",\"type\":\"uint256\"}],\"name\":\"transferFrom\",\"outputs\":[{\"internalType\":\"bool\",\"name\":\"\",\"type\":\"bool\"}],\"stateMutability\":\"nonpayable\",\"type\":\"function\"},{\"inputs\":[{\"internalType\":\"address\",\"name\":\"newOwner\",\"type\":\"address\"}],\"name\":\"transferOwnership\",\"outputs\":[],\"stateMutability\":\"nonpayable\",\"type\":\"function\"},{\"inputs\":[{\"internalType\":\"uint256\",\"name\":\"wad\",\"type\":\"uint256\"}],\"name\":\"withdraw\",\"outputs\":[],\"stateMutability\":\"payable\",\"type\":\"function\"}]);\nvar netc = netcContract.deploy({\n     data: '0x60c060405260116080819052706e457468657265756d20436c617373696360781b60a090815261003291600191906100e2565b50604080518082019091526004808252636e45544360e01b602090920191825261005e916002916100e2565b506003805460ff1916601217905534801561007857600080fd5b5061008961008461008e565b610092565b610175565b3390565b600080546001600160a01b038381166001600160a01b0319831681178455604051919092169283917f8be0079c531659141344cd1fd0a4f28419497f9722a3daafe3b4186f6b6457e09190a35050565b828054600181600116156101000203166002900490600052602060002090601f016020900481019282601f1061012357805160ff1916838001178555610150565b82800160010185558215610150579182015b82811115610150578251825591602001919060010190610135565b5061015c929150610160565b5090565b5b8082111561015c5760008155600101610161565b6108fd806101846000396000f3fe6080604052600436106100dd5760003560e01c8063715018a61161007f578063a9059cbb11610059578063a9059cbb146102fb578063d0e30db014610334578063dd62ed3e1461033c578063f2fde38b14610377576100dd565b8063715018a6146102a05780638da5cb5b146102b557806395d89b41146102e6576100dd565b806323b872dd116100bb57806323b872dd146101e05780632e1a7d4d14610223578063313ce5671461024257806370a082311461026d576100dd565b806306fdde03146100e2578063095ea7b31461016c57806318160ddd146101b9575b600080fd5b3480156100ee57600080fd5b506100f76103aa565b6040805160208082528351818301528351919283929083019185019080838360005b83811015610131578181015183820152602001610119565b50505050905090810190601f16801561015e5780820380516001836020036101000a031916815260200191505b509250505060405180910390f35b34801561017857600080fd5b506101a56004803603604081101561018f57600080fd5b506001600160a01b038135169060200135610437565b604080519115158252519081900360200190f35b3480156101c557600080fd5b506101ce61049d565b60408051918252519081900360200190f35b3480156101ec57600080fd5b506101a56004803603606081101561020357600080fd5b506001600160a01b038135811691602081013590911690604001356104a1565b6102406004803603602081101561023957600080fd5b50356105d5565b005b34801561024e57600080fd5b5061025761066a565b6040805160ff9092168252519081900360200190f35b34801561027957600080fd5b506101ce6004803603602081101561029057600080fd5b50356001600160a01b0316610673565b3480156102ac57600080fd5b50610240610685565b3480156102c157600080fd5b506102ca610699565b604080516001600160a01b039092168252519081900360200190f35b3480156102f257600080fd5b506100f76106a8565b34801561030757600080fd5b506101a56004803603604081101561031e57600080fd5b506001600160a01b038135169060200135610700565b610240610714565b34801561034857600080fd5b506101ce6004803603604081101561035f57600080fd5b506001600160a01b0381358116916020013516610763565b34801561038357600080fd5b506102406004803603602081101561039a57600080fd5b50356001600160a01b0316610780565b60018054604080516020600284861615610100026000190190941693909304601f8101849004840282018401909252818152929183018282801561042f5780601f106104045761010080835404028352916020019161042f565b820191906000526020600020905b81548152906001019060200180831161041257829003601f168201915b505050505081565b3360008181526005602090815260408083206001600160a01b038716808552908352818420869055815186815291519394909390927f8c5be1e5ebec7d5bd14f71427d1e84f3dd0314c0f7b2291e5b200ac8c7c3b925928290030190a350600192915050565b4790565b6001600160a01b0383166000908152600460205260408120548211156104c657600080fd5b6001600160a01b038416331480159061050457506001600160a01b038416600090815260056020908152604080832033845290915290205460001914155b15610564576001600160a01b038416600090815260056020908152604080832033845290915290205482111561053957600080fd5b6001600160a01b03841660009081526005602090815260408083203384529091529020805483900390555b6001600160a01b03808516600081815260046020908152604080832080548890039055938716808352918490208054870190558351868152935191937fddf252ad1be2c89b69c2b068fc378daa952ba7f163c4a11628f55a4df523b3ef929081900390910190a35060019392505050565b336000908152600460205260409020548111156105f157600080fd5b33600081815260046020526040808220805485900390555183156108fc0291849190818181858888f19350505050158015610630573d6000803e3d6000fd5b5060408051828152905133917f7fcf532c15f0a6db0bd6d0e038bea71d30d808c7d98cb3bf7268a95bf5081b65919081900360200190a250565b60035460ff1681565b60046020526000908152604090205481565b61068d6107d9565b610697600061084d565b565b6000546001600160a01b031690565b6002805460408051602060018416156101000260001901909316849004601f8101849004840282018401909252818152929183018282801561042f5780601f106104045761010080835404028352916020019161042f565b600061070d3384846104a1565b9392505050565b33600081815260046020908152604091829020805434908101909155825190815291517fe1fffcc4923d04b559f4d29a8bfc6cda04eb5b0d3c460751c2402c5c5cc9109c9281900390910190a2565b600560209081526000928352604080842090915290825290205481565b6107886107d9565b6001600160a01b0381166107cd5760405162461bcd60e51b81526004018080602001828103825260268152602001806108a26026913960400191505060405180910390fd5b6107d68161084d565b50565b6107e161089d565b6001600160a01b03166107f2610699565b6001600160a01b031614610697576040805162461bcd60e51b815260206004820181905260248201527f4f776e61626c653a2063616c6c6572206973206e6f7420746865206f776e6572604482015290519081900360640190fd5b600080546001600160a01b038381166001600160a01b0319831681178455604051919092169283917f8be0079c531659141344cd1fd0a4f28419497f9722a3daafe3b4186f6b6457e09190a35050565b339056fe4f776e61626c653a206e6577206f776e657220697320746865207a65726f2061646472657373a264697066735822122016b76f7bafa7a4f317e864208fa13ffc5a495b38d3f514e9adc6d7f83267dbb764736f6c634300060c0033', \n     arguments: [\n     ]\n}).send({\n     from: web3.eth.accounts[0], \n     gas: '4700000'\n   }, function (e, contract){\n    console.log(e, contract);\n    if (typeof contract.address !== 'undefined') {\n         console.log('Contract mined! address: ' + contract.address + ' transactionHash: ' + contract.transactionHash);\n    }\n })",
	"functionHashes": {
		"dd62ed3e": "allowance(address,address)",
		"095ea7b3": "approve(address,uint256)",
		"70a08231": "balanceOf(address)",
		"313ce567": "decimals()",
		"d0e30db0": "deposit()",
		"06fdde03": "name()",
		"8da5cb5b": "owner()",
		"715018a6": "renounceOwnership()",
		"95d89b41": "symbol()",
		"18160ddd": "totalSupply()",
		"a9059cbb": "transfer(address,uint256)",
		"23b872dd": "transferFrom(address,address,uint256)",
		"f2fde38b": "transferOwnership(address)",
		"2e1a7d4d": "withdraw(uint256)"
	},
	"gasEstimates": {
		"Creation": {
			"codeDepositCost": "460200",
			"executionCost": "infinite",
			"totalCost": "infinite"
		},
		"External": {
			"allowance(address,address)": "1283",
			"approve(address,uint256)": "22323",
			"balanceOf(address)": "1213",
			"decimals()": "1080",
			"deposit()": "22502",
			"name()": "infinite",
			"owner()": "1082",
			"renounceOwnership()": "infinite",
			"symbol()": "infinite",
			"totalSupply()": "268",
			"transfer(address,uint256)": "44949",
			"transferFrom(address,address,uint256)": "67865",
			"transferOwnership(address)": "infinite",
			"withdraw(uint256)": "infinite"
		}
	},
	"devdoc": {
		"kind": "dev",
		"methods": {
			"owner()": {
				"details": "Returns the address of the current owner."
			},
			"renounceOwnership()": {
				"details": "Leaves the contract without owner. It will not be possible to call `onlyOwner` functions anymore. Can only be called by the current owner. NOTE: Renouncing ownership will leave the contract without an owner, thereby removing any functionality that is only available to the owner."
			},
			"transferOwnership(address)": {
				"details": "Transfers ownership of the contract to a new account (`newOwner`). Can only be called by the current owner."
			}
		},
		"version": 1
	},
	"userdoc": {
		"kind": "user",
		"methods": {},
		"version": 1
	},
	"Runtime Bytecode": {
		"immutableReferences": {},
		"linkReferences": {},
		"object": "6080604052600436106100dd5760003560e01c8063715018a61161007f578063a9059cbb11610059578063a9059cbb146102fb578063d0e30db014610334578063dd62ed3e1461033c578063f2fde38b14610377576100dd565b8063715018a6146102a05780638da5cb5b146102b557806395d89b41146102e6576100dd565b806323b872dd116100bb57806323b872dd146101e05780632e1a7d4d14610223578063313ce5671461024257806370a082311461026d576100dd565b806306fdde03146100e2578063095ea7b31461016c57806318160ddd146101b9575b600080fd5b3480156100ee57600080fd5b506100f76103aa565b6040805160208082528351818301528351919283929083019185019080838360005b83811015610131578181015183820152602001610119565b50505050905090810190601f16801561015e5780820380516001836020036101000a031916815260200191505b509250505060405180910390f35b34801561017857600080fd5b506101a56004803603604081101561018f57600080fd5b506001600160a01b038135169060200135610437565b604080519115158252519081900360200190f35b3480156101c557600080fd5b506101ce61049d565b60408051918252519081900360200190f35b3480156101ec57600080fd5b506101a56004803603606081101561020357600080fd5b506001600160a01b038135811691602081013590911690604001356104a1565b6102406004803603602081101561023957600080fd5b50356105d5565b005b34801561024e57600080fd5b5061025761066a565b6040805160ff9092168252519081900360200190f35b34801561027957600080fd5b506101ce6004803603602081101561029057600080fd5b50356001600160a01b0316610673565b3480156102ac57600080fd5b50610240610685565b3480156102c157600080fd5b506102ca610699565b604080516001600160a01b039092168252519081900360200190f35b3480156102f257600080fd5b506100f76106a8565b34801561030757600080fd5b506101a56004803603604081101561031e57600080fd5b506001600160a01b038135169060200135610700565b610240610714565b34801561034857600080fd5b506101ce6004803603604081101561035f57600080fd5b506001600160a01b0381358116916020013516610763565b34801561038357600080fd5b506102406004803603602081101561039a57600080fd5b50356001600160a01b0316610780565b60018054604080516020600284861615610100026000190190941693909304601f8101849004840282018401909252818152929183018282801561042f5780601f106104045761010080835404028352916020019161042f565b820191906000526020600020905b81548152906001019060200180831161041257829003601f168201915b505050505081565b3360008181526005602090815260408083206001600160a01b038716808552908352818420869055815186815291519394909390927f8c5be1e5ebec7d5bd14f71427d1e84f3dd0314c0f7b2291e5b200ac8c7c3b925928290030190a350600192915050565b4790565b6001600160a01b0383166000908152600460205260408120548211156104c657600080fd5b6001600160a01b038416331480159061050457506001600160a01b038416600090815260056020908152604080832033845290915290205460001914155b15610564576001600160a01b038416600090815260056020908152604080832033845290915290205482111561053957600080fd5b6001600160a01b03841660009081526005602090815260408083203384529091529020805483900390555b6001600160a01b03808516600081815260046020908152604080832080548890039055938716808352918490208054870190558351868152935191937fddf252ad1be2c89b69c2b068fc378daa952ba7f163c4a11628f55a4df523b3ef929081900390910190a35060019392505050565b336000908152600460205260409020548111156105f157600080fd5b33600081815260046020526040808220805485900390555183156108fc0291849190818181858888f19350505050158015610630573d6000803e3d6000fd5b5060408051828152905133917f7fcf532c15f0a6db0bd6d0e038bea71d30d808c7d98cb3bf7268a95bf5081b65919081900360200190a250565b60035460ff1681565b60046020526000908152604090205481565b61068d6107d9565b610697600061084d565b565b6000546001600160a01b031690565b6002805460408051602060018416156101000260001901909316849004601f8101849004840282018401909252818152929183018282801561042f5780601f106104045761010080835404028352916020019161042f565b600061070d3384846104a1565b9392505050565b33600081815260046020908152604091829020805434908101909155825190815291517fe1fffcc4923d04b559f4d29a8bfc6cda04eb5b0d3c460751c2402c5c5cc9109c9281900390910190a2565b600560209081526000928352604080842090915290825290205481565b6107886107d9565b6001600160a01b0381166107cd5760405162461bcd60e51b81526004018080602001828103825260268152602001806108a26026913960400191505060405180910390fd5b6107d68161084d565b50565b6107e161089d565b6001600160a01b03166107f2610699565b6001600160a01b031614610697576040805162461bcd60e51b815260206004820181905260248201527f4f776e61626c653a2063616c6c6572206973206e6f7420746865206f776e6572604482015290519081900360640190fd5b600080546001600160a01b038381166001600160a01b0319831681178455604051919092169283917f8be0079c531659141344cd1fd0a4f28419497f9722a3daafe3b4186f6b6457e09190a35050565b339056fe4f776e61626c653a206e6577206f776e657220697320746865207a65726f2061646472657373a264697066735822122016b76f7bafa7a4f317e864208fa13ffc5a495b38d3f514e9adc6d7f83267dbb764736f6c634300060c0033",
		"opcodes": "PUSH1 0x80 PUSH1 0x40 MSTORE PUSH1 0x4 CALLDATASIZE LT PUSH2 0xDD JUMPI PUSH1 0x0 CALLDATALOAD PUSH1 0xE0 SHR DUP1 PUSH4 0x715018A6 GT PUSH2 0x7F JUMPI DUP1 PUSH4 0xA9059CBB GT PUSH2 0x59 JUMPI DUP1 PUSH4 0xA9059CBB EQ PUSH2 0x2FB JUMPI DUP1 PUSH4 0xD0E30DB0 EQ PUSH2 0x334 JUMPI DUP1 PUSH4 0xDD62ED3E EQ PUSH2 0x33C JUMPI DUP1 PUSH4 0xF2FDE38B EQ PUSH2 0x377 JUMPI PUSH2 0xDD JUMP JUMPDEST DUP1 PUSH4 0x715018A6 EQ PUSH2 0x2A0 JUMPI DUP1 PUSH4 0x8DA5CB5B EQ PUSH2 0x2B5 JUMPI DUP1 PUSH4 0x95D89B41 EQ PUSH2 0x2E6 JUMPI PUSH2 0xDD JUMP JUMPDEST DUP1 PUSH4 0x23B872DD GT PUSH2 0xBB JUMPI DUP1 PUSH4 0x23B872DD EQ PUSH2 0x1E0 JUMPI DUP1 PUSH4 0x2E1A7D4D EQ PUSH2 0x223 JUMPI DUP1 PUSH4 0x313CE567 EQ PUSH2 0x242 JUMPI DUP1 PUSH4 0x70A08231 EQ PUSH2 0x26D JUMPI PUSH2 0xDD JUMP JUMPDEST DUP1 PUSH4 0x6FDDE03 EQ PUSH2 0xE2 JUMPI DUP1 PUSH4 0x95EA7B3 EQ PUSH2 0x16C JUMPI DUP1 PUSH4 0x18160DDD EQ PUSH2 0x1B9 JUMPI JUMPDEST PUSH1 0x0 DUP1 REVERT JUMPDEST CALLVALUE DUP1 ISZERO PUSH2 0xEE JUMPI PUSH1 0x0 DUP1 REVERT JUMPDEST POP PUSH2 0xF7 PUSH2 0x3AA JUMP JUMPDEST PUSH1 0x40 DUP1 MLOAD PUSH1 0x20 DUP1 DUP3 MSTORE DUP4 MLOAD DUP2 DUP4 ADD MSTORE DUP4 MLOAD SWAP2 SWAP3 DUP4 SWAP3 SWAP1 DUP4 ADD SWAP2 DUP6 ADD SWAP1 DUP1 DUP4 DUP4 PUSH1 0x0 JUMPDEST DUP4 DUP2 LT ISZERO PUSH2 0x131 JUMPI DUP2 DUP2 ADD MLOAD DUP4 DUP3 ADD MSTORE PUSH1 0x20 ADD PUSH2 0x119 JUMP JUMPDEST POP POP POP POP SWAP1 POP SWAP1 DUP2 ADD SWAP1 PUSH1 0x1F AND DUP1 ISZERO PUSH2 0x15E JUMPI DUP1 DUP3 SUB DUP1 MLOAD PUSH1 0x1 DUP4 PUSH1 0x20 SUB PUSH2 0x100 EXP SUB NOT AND DUP2 MSTORE PUSH1 0x20 ADD SWAP2 POP JUMPDEST POP SWAP3 POP POP POP PUSH1 0x40 MLOAD DUP1 SWAP2 SUB SWAP1 RETURN JUMPDEST CALLVALUE DUP1 ISZERO PUSH2 0x178 JUMPI PUSH1 0x0 DUP1 REVERT JUMPDEST POP PUSH2 0x1A5 PUSH1 0x4 DUP1 CALLDATASIZE SUB PUSH1 0x40 DUP2 LT ISZERO PUSH2 0x18F JUMPI PUSH1 0x0 DUP1 REVERT JUMPDEST POP PUSH1 0x1 PUSH1 0x1 PUSH1 0xA0 SHL SUB DUP2 CALLDATALOAD AND SWAP1 PUSH1 0x20 ADD CALLDATALOAD PUSH2 0x437 JUMP JUMPDEST PUSH1 0x40 DUP1 MLOAD SWAP2 ISZERO ISZERO DUP3 MSTORE MLOAD SWAP1 DUP2 SWAP1 SUB PUSH1 0x20 ADD SWAP1 RETURN JUMPDEST CALLVALUE DUP1 ISZERO PUSH2 0x1C5 JUMPI PUSH1 0x0 DUP1 REVERT JUMPDEST POP PUSH2 0x1CE PUSH2 0x49D JUMP JUMPDEST PUSH1 0x40 DUP1 MLOAD SWAP2 DUP3 MSTORE MLOAD SWAP1 DUP2 SWAP1 SUB PUSH1 0x20 ADD SWAP1 RETURN JUMPDEST CALLVALUE DUP1 ISZERO PUSH2 0x1EC JUMPI PUSH1 0x0 DUP1 REVERT JUMPDEST POP PUSH2 0x1A5 PUSH1 0x4 DUP1 CALLDATASIZE SUB PUSH1 0x60 DUP2 LT ISZERO PUSH2 0x203 JUMPI PUSH1 0x0 DUP1 REVERT JUMPDEST POP PUSH1 0x1 PUSH1 0x1 PUSH1 0xA0 SHL SUB DUP2 CALLDATALOAD DUP2 AND SWAP2 PUSH1 0x20 DUP2 ADD CALLDATALOAD SWAP1 SWAP2 AND SWAP1 PUSH1 0x40 ADD CALLDATALOAD PUSH2 0x4A1 JUMP JUMPDEST PUSH2 0x240 PUSH1 0x4 DUP1 CALLDATASIZE SUB PUSH1 0x20 DUP2 LT ISZERO PUSH2 0x239 JUMPI PUSH1 0x0 DUP1 REVERT JUMPDEST POP CALLDATALOAD PUSH2 0x5D5 JUMP JUMPDEST STOP JUMPDEST CALLVALUE DUP1 ISZERO PUSH2 0x24E JUMPI PUSH1 0x0 DUP1 REVERT JUMPDEST POP PUSH2 0x257 PUSH2 0x66A JUMP JUMPDEST PUSH1 0x40 DUP1 MLOAD PUSH1 0xFF SWAP1 SWAP3 AND DUP3 MSTORE MLOAD SWAP1 DUP2 SWAP1 SUB PUSH1 0x20 ADD SWAP1 RETURN JUMPDEST CALLVALUE DUP1 ISZERO PUSH2 0x279 JUMPI PUSH1 0x0 DUP1 REVERT JUMPDEST POP PUSH2 0x1CE PUSH1 0x4 DUP1 CALLDATASIZE SUB PUSH1 0x20 DUP2 LT ISZERO PUSH2 0x290 JUMPI PUSH1 0x0 DUP1 REVERT JUMPDEST POP CALLDATALOAD PUSH1 0x1 PUSH1 0x1 PUSH1 0xA0 SHL SUB AND PUSH2 0x673 JUMP JUMPDEST CALLVALUE DUP1 ISZERO PUSH2 0x2AC JUMPI PUSH1 0x0 DUP1 REVERT JUMPDEST POP PUSH2 0x240 PUSH2 0x685 JUMP JUMPDEST CALLVALUE DUP1 ISZERO PUSH2 0x2C1 JUMPI PUSH1 0x0 DUP1 REVERT JUMPDEST POP PUSH2 0x2CA PUSH2 0x699 JUMP JUMPDEST PUSH1 0x40 DUP1 MLOAD PUSH1 0x1 PUSH1 0x1 PUSH1 0xA0 SHL SUB SWAP1 SWAP3 AND DUP3 MSTORE MLOAD SWAP1 DUP2 SWAP1 SUB PUSH1 0x20 ADD SWAP1 RETURN JUMPDEST CALLVALUE DUP1 ISZERO PUSH2 0x2F2 JUMPI PUSH1 0x0 DUP1 REVERT JUMPDEST POP PUSH2 0xF7 PUSH2 0x6A8 JUMP JUMPDEST CALLVALUE DUP1 ISZERO PUSH2 0x307 JUMPI PUSH1 0x0 DUP1 REVERT JUMPDEST POP PUSH2 0x1A5 PUSH1 0x4 DUP1 CALLDATASIZE SUB PUSH1 0x40 DUP2 LT ISZERO PUSH2 0x31E JUMPI PUSH1 0x0 DUP1 REVERT JUMPDEST POP PUSH1 0x1 PUSH1 0x1 PUSH1 0xA0 SHL SUB DUP2 CALLDATALOAD AND SWAP1 PUSH1 0x20 ADD CALLDATALOAD PUSH2 0x700 JUMP JUMPDEST PUSH2 0x240 PUSH2 0x714 JUMP JUMPDEST CALLVALUE DUP1 ISZERO PUSH2 0x348 JUMPI PUSH1 0x0 DUP1 REVERT JUMPDEST POP PUSH2 0x1CE PUSH1 0x4 DUP1 CALLDATASIZE SUB PUSH1 0x40 DUP2 LT ISZERO PUSH2 0x35F JUMPI PUSH1 0x0 DUP1 REVERT JUMPDEST POP PUSH1 0x1 PUSH1 0x1 PUSH1 0xA0 SHL SUB DUP2 CALLDATALOAD DUP2 AND SWAP2 PUSH1 0x20 ADD CALLDATALOAD AND PUSH2 0x763 JUMP JUMPDEST CALLVALUE DUP1 ISZERO PUSH2 0x383 JUMPI PUSH1 0x0 DUP1 REVERT JUMPDEST POP PUSH2 0x240 PUSH1 0x4 DUP1 CALLDATASIZE SUB PUSH1 0x20 DUP2 LT ISZERO PUSH2 0x39A JUMPI PUSH1 0x0 DUP1 REVERT JUMPDEST POP CALLDATALOAD PUSH1 0x1 PUSH1 0x1 PUSH1 0xA0 SHL SUB AND PUSH2 0x780 JUMP JUMPDEST PUSH1 0x1 DUP1 SLOAD PUSH1 0x40 DUP1 MLOAD PUSH1 0x20 PUSH1 0x2 DUP5 DUP7 AND ISZERO PUSH2 0x100 MUL PUSH1 0x0 NOT ADD SWAP1 SWAP5 AND SWAP4 SWAP1 SWAP4 DIV PUSH1 0x1F DUP2 ADD DUP5 SWAP1 DIV DUP5 MUL DUP3 ADD DUP5 ADD SWAP1 SWAP3 MSTORE DUP2 DUP2 MSTORE SWAP3 SWAP2 DUP4 ADD DUP3 DUP3 DUP1 ISZERO PUSH2 0x42F JUMPI DUP1 PUSH1 0x1F LT PUSH2 0x404 JUMPI PUSH2 0x100 DUP1 DUP4 SLOAD DIV MUL DUP4 MSTORE SWAP2 PUSH1 0x20 ADD SWAP2 PUSH2 0x42F JUMP JUMPDEST DUP3 ADD SWAP2 SWAP1 PUSH1 0x0 MSTORE PUSH1 0x20 PUSH1 0x0 KECCAK256 SWAP1 JUMPDEST DUP2 SLOAD DUP2 MSTORE SWAP1 PUSH1 0x1 ADD SWAP1 PUSH1 0x20 ADD DUP1 DUP4 GT PUSH2 0x412 JUMPI DUP3 SWAP1 SUB PUSH1 0x1F AND DUP3 ADD SWAP2 JUMPDEST POP POP POP POP POP DUP2 JUMP JUMPDEST CALLER PUSH1 0x0 DUP2 DUP2 MSTORE PUSH1 0x5 PUSH1 0x20 SWAP1 DUP2 MSTORE PUSH1 0x40 DUP1 DUP4 KECCAK256 PUSH1 0x1 PUSH1 0x1 PUSH1 0xA0 SHL SUB DUP8 AND DUP1 DUP6 MSTORE SWAP1 DUP4 MSTORE DUP2 DUP5 KECCAK256 DUP7 SWAP1 SSTORE DUP2 MLOAD DUP7 DUP2 MSTORE SWAP2 MLOAD SWAP4 SWAP5 SWAP1 SWAP4 SWAP1 SWAP3 PUSH32 0x8C5BE1E5EBEC7D5BD14F71427D1E84F3DD0314C0F7B2291E5B200AC8C7C3B925 SWAP3 DUP3 SWAP1 SUB ADD SWAP1 LOG3 POP PUSH1 0x1 SWAP3 SWAP2 POP POP JUMP JUMPDEST SELFBALANCE SWAP1 JUMP JUMPDEST PUSH1 0x1 PUSH1 0x1 PUSH1 0xA0 SHL SUB DUP4 AND PUSH1 0x0 SWAP1 DUP2 MSTORE PUSH1 0x4 PUSH1 0x20 MSTORE PUSH1 0x40 DUP2 KECCAK256 SLOAD DUP3 GT ISZERO PUSH2 0x4C6 JUMPI PUSH1 0x0 DUP1 REVERT JUMPDEST PUSH1 0x1 PUSH1 0x1 PUSH1 0xA0 SHL SUB DUP5 AND CALLER EQ DUP1 ISZERO SWAP1 PUSH2 0x504 JUMPI POP PUSH1 0x1 PUSH1 0x1 PUSH1 0xA0 SHL SUB DUP5 AND PUSH1 0x0 SWAP1 DUP2 MSTORE PUSH1 0x5 PUSH1 0x20 SWAP1 DUP2 MSTORE PUSH1 0x40 DUP1 DUP4 KECCAK256 CALLER DUP5 MSTORE SWAP1 SWAP2 MSTORE SWAP1 KECCAK256 SLOAD PUSH1 0x0 NOT EQ ISZERO JUMPDEST ISZERO PUSH2 0x564 JUMPI PUSH1 0x1 PUSH1 0x1 PUSH1 0xA0 SHL SUB DUP5 AND PUSH1 0x0 SWAP1 DUP2 MSTORE PUSH1 0x5 PUSH1 0x20 SWAP1 DUP2 MSTORE PUSH1 0x40 DUP1 DUP4 KECCAK256 CALLER DUP5 MSTORE SWAP1 SWAP2 MSTORE SWAP1 KECCAK256 SLOAD DUP3 GT ISZERO PUSH2 0x539 JUMPI PUSH1 0x0 DUP1 REVERT JUMPDEST PUSH1 0x1 PUSH1 0x1 PUSH1 0xA0 SHL SUB DUP5 AND PUSH1 0x0 SWAP1 DUP2 MSTORE PUSH1 0x5 PUSH1 0x20 SWAP1 DUP2 MSTORE PUSH1 0x40 DUP1 DUP4 KECCAK256 CALLER DUP5 MSTORE SWAP1 SWAP2 MSTORE SWAP1 KECCAK256 DUP1 SLOAD DUP4 SWAP1 SUB SWAP1 SSTORE JUMPDEST PUSH1 0x1 PUSH1 0x1 PUSH1 0xA0 SHL SUB DUP1 DUP6 AND PUSH1 0x0 DUP2 DUP2 MSTORE PUSH1 0x4 PUSH1 0x20 SWAP1 DUP2 MSTORE PUSH1 0x40 DUP1 DUP4 KECCAK256 DUP1 SLOAD DUP9 SWAP1 SUB SWAP1 SSTORE SWAP4 DUP8 AND DUP1 DUP4 MSTORE SWAP2 DUP5 SWAP1 KECCAK256 DUP1 SLOAD DUP8 ADD SWAP1 SSTORE DUP4 MLOAD DUP7 DUP2 MSTORE SWAP4 MLOAD SWAP2 SWAP4 PUSH32 0xDDF252AD1BE2C89B69C2B068FC378DAA952BA7F163C4A11628F55A4DF523B3EF SWAP3 SWAP1 DUP2 SWAP1 SUB SWAP1 SWAP2 ADD SWAP1 LOG3 POP PUSH1 0x1 SWAP4 SWAP3 POP POP POP JUMP JUMPDEST CALLER PUSH1 0x0 SWAP1 DUP2 MSTORE PUSH1 0x4 PUSH1 0x20 MSTORE PUSH1 0x40 SWAP1 KECCAK256 SLOAD DUP2 GT ISZERO PUSH2 0x5F1 JUMPI PUSH1 0x0 DUP1 REVERT JUMPDEST CALLER PUSH1 0x0 DUP2 DUP2 MSTORE PUSH1 0x4 PUSH1 0x20 MSTORE PUSH1 0x40 DUP1 DUP3 KECCAK256 DUP1 SLOAD DUP6 SWAP1 SUB SWAP1 SSTORE MLOAD DUP4 ISZERO PUSH2 0x8FC MUL SWAP2 DUP5 SWAP2 SWAP1 DUP2 DUP2 DUP2 DUP6 DUP9 DUP9 CALL SWAP4 POP POP POP POP ISZERO DUP1 ISZERO PUSH2 0x630 JUMPI RETURNDATASIZE PUSH1 0x0 DUP1 RETURNDATACOPY RETURNDATASIZE PUSH1 0x0 REVERT JUMPDEST POP PUSH1 0x40 DUP1 MLOAD DUP3 DUP2 MSTORE SWAP1 MLOAD CALLER SWAP2 PUSH32 0x7FCF532C15F0A6DB0BD6D0E038BEA71D30D808C7D98CB3BF7268A95BF5081B65 SWAP2 SWAP1 DUP2 SWAP1 SUB PUSH1 0x20 ADD SWAP1 LOG2 POP JUMP JUMPDEST PUSH1 0x3 SLOAD PUSH1 0xFF AND DUP2 JUMP JUMPDEST PUSH1 0x4 PUSH1 0x20 MSTORE PUSH1 0x0 SWAP1 DUP2 MSTORE PUSH1 0x40 SWAP1 KECCAK256 SLOAD DUP2 JUMP JUMPDEST PUSH2 0x68D PUSH2 0x7D9 JUMP JUMPDEST PUSH2 0x697 PUSH1 0x0 PUSH2 0x84D JUMP JUMPDEST JUMP JUMPDEST PUSH1 0x0 SLOAD PUSH1 0x1 PUSH1 0x1 PUSH1 0xA0 SHL SUB AND SWAP1 JUMP JUMPDEST PUSH1 0x2 DUP1 SLOAD PUSH1 0x40 DUP1 MLOAD PUSH1 0x20 PUSH1 0x1 DUP5 AND ISZERO PUSH2 0x100 MUL PUSH1 0x0 NOT ADD SWAP1 SWAP4 AND DUP5 SWAP1 DIV PUSH1 0x1F DUP2 ADD DUP5 SWAP1 DIV DUP5 MUL DUP3 ADD DUP5 ADD SWAP1 SWAP3 MSTORE DUP2 DUP2 MSTORE SWAP3 SWAP2 DUP4 ADD DUP3 DUP3 DUP1 ISZERO PUSH2 0x42F JUMPI DUP1 PUSH1 0x1F LT PUSH2 0x404 JUMPI PUSH2 0x100 DUP1 DUP4 SLOAD DIV MUL DUP4 MSTORE SWAP2 PUSH1 0x20 ADD SWAP2 PUSH2 0x42F JUMP JUMPDEST PUSH1 0x0 PUSH2 0x70D CALLER DUP5 DUP5 PUSH2 0x4A1 JUMP JUMPDEST SWAP4 SWAP3 POP POP POP JUMP JUMPDEST CALLER PUSH1 0x0 DUP2 DUP2 MSTORE PUSH1 0x4 PUSH1 0x20 SWAP1 DUP2 MSTORE PUSH1 0x40 SWAP2 DUP3 SWAP1 KECCAK256 DUP1 SLOAD CALLVALUE SWAP1 DUP2 ADD SWAP1 SWAP2 SSTORE DUP3 MLOAD SWAP1 DUP2 MSTORE SWAP2 MLOAD PUSH32 0xE1FFFCC4923D04B559F4D29A8BFC6CDA04EB5B0D3C460751C2402C5C5CC9109C SWAP3 DUP2 SWAP1 SUB SWAP1 SWAP2 ADD SWAP1 LOG2 JUMP JUMPDEST PUSH1 0x5 PUSH1 0x20 SWAP1 DUP2 MSTORE PUSH1 0x0 SWAP3 DUP4 MSTORE PUSH1 0x40 DUP1 DUP5 KECCAK256 SWAP1 SWAP2 MSTORE SWAP1 DUP3 MSTORE SWAP1 KECCAK256 SLOAD DUP2 JUMP JUMPDEST PUSH2 0x788 PUSH2 0x7D9 JUMP JUMPDEST PUSH1 0x1 PUSH1 0x1 PUSH1 0xA0 SHL SUB DUP2 AND PUSH2 0x7CD JUMPI PUSH1 0x40 MLOAD PUSH3 0x461BCD PUSH1 0xE5 SHL DUP2 MSTORE PUSH1 0x4 ADD DUP1 DUP1 PUSH1 0x20 ADD DUP3 DUP2 SUB DUP3 MSTORE PUSH1 0x26 DUP2 MSTORE PUSH1 0x20 ADD DUP1 PUSH2 0x8A2 PUSH1 0x26 SWAP2 CODECOPY PUSH1 0x40 ADD SWAP2 POP POP PUSH1 0x40 MLOAD DUP1 SWAP2 SUB SWAP1 REVERT JUMPDEST PUSH2 0x7D6 DUP2 PUSH2 0x84D JUMP JUMPDEST POP JUMP JUMPDEST PUSH2 0x7E1 PUSH2 0x89D JUMP JUMPDEST PUSH1 0x1 PUSH1 0x1 PUSH1 0xA0 SHL SUB AND PUSH2 0x7F2 PUSH2 0x699 JUMP JUMPDEST PUSH1 0x1 PUSH1 0x1 PUSH1 0xA0 SHL SUB AND EQ PUSH2 0x697 JUMPI PUSH1 0x40 DUP1 MLOAD PUSH3 0x461BCD PUSH1 0xE5 SHL DUP2 MSTORE PUSH1 0x20 PUSH1 0x4 DUP3 ADD DUP2 SWAP1 MSTORE PUSH1 0x24 DUP3 ADD MSTORE PUSH32 0x4F776E61626C653A2063616C6C6572206973206E6F7420746865206F776E6572 PUSH1 0x44 DUP3 ADD MSTORE SWAP1 MLOAD SWAP1 DUP2 SWAP1 SUB PUSH1 0x64 ADD SWAP1 REVERT JUMPDEST PUSH1 0x0 DUP1 SLOAD PUSH1 0x1 PUSH1 0x1 PUSH1 0xA0 SHL SUB DUP4 DUP2 AND PUSH1 0x1 PUSH1 0x1 PUSH1 0xA0 SHL SUB NOT DUP4 AND DUP2 OR DUP5 SSTORE PUSH1 0x40 MLOAD SWAP2 SWAP1 SWAP3 AND SWAP3 DUP4 SWAP2 PUSH32 0x8BE0079C531659141344CD1FD0A4F28419497F9722A3DAAFE3B4186F6B6457E0 SWAP2 SWAP1 LOG3 POP POP JUMP JUMPDEST CALLER SWAP1 JUMP INVALID 0x4F PUSH24 0x6E61626C653A206E6577206F776E65722069732074686520 PUSH27 0x65726F2061646472657373A264697066735822122016B76F7BAFA7 LOG4 RETURN OR 0xE8 PUSH5 0x208FA13FFC GAS 0x49 JUMPDEST CODESIZE 0xD3 CREATE2 EQ 0xE9 0xAD 0xC6 0xD7 0xF8 ORIGIN PUSH8 0xDBB764736F6C6343 STOP MOD 0xC STOP CALLER "
	},
	"Assembly": ".code\n  PUSH C0\t\t\tstring public name     = \"nEth...\n  PUSH 40\t\t\tcontract nETC is Ownable {\\r\\n...\n  MSTORE \t\t\tstring public name     = \"nEth...\n  PUSH 11\t\t\tstring public name     = \"nEth...\n  PUSH 80\t\t\tcontract nETC is Ownable {\\r\\n...\n  DUP2 \t\t\tstring public name     = \"nEth...\n  SWAP1 \t\t\tstring public name     = \"nEth...\n  MSTORE \t\t\tstring public name     = \"nEth...\n  PUSH 6E457468657265756D20436C6173736963\t\t\t\n  PUSH 78\t\t\t\n  SHL \t\t\t\n  PUSH A0\t\t\tstring public name     = \"nEth...\n  SWAP1 \t\t\tstring public name     = \"nEth...\n  DUP2 \t\t\tstring public name     = \"nEth...\n  MSTORE \t\t\tstring public name     = \"nEth...\n  PUSH [tag] 1\t\t\tstring public name     = \"nEth...\n  SWAP2 \t\t\tstring public name     = \"nEth...\n  PUSH 1\t\t\tstring public name     = \"nEth...\n  SWAP2 \t\t\tstring public name     = \"nEth...\n  SWAP1 \t\t\tstring public name     = \"nEth...\n  PUSH [tag] 2\t\t\tstring public name     = \"nEth...\n  JUMP [in]\t\t\tstring public name     = \"nEth...\ntag 1\t\t\tstring public name     = \"nEth...\n  JUMPDEST \t\t\tstring public name     = \"nEth...\n  POP \t\t\t\n  PUSH 40\t\t\tstring public symbol   = \"nETC...\n  DUP1 \t\t\tstring public symbol   = \"nETC...\n  MLOAD \t\t\tstring public symbol   = \"nETC...\n  DUP1 \t\t\tstring public symbol   = \"nETC...\n  DUP3 \t\t\tstring public symbol   = \"nETC...\n  ADD \t\t\tstring public symbol   = \"nETC...\n  SWAP1 \t\t\tstring public symbol   = \"nETC...\n  SWAP2 \t\t\tstring public symbol   = \"nETC...\n  MSTORE \t\t\tstring public symbol   = \"nETC...\n  PUSH 4\t\t\tstring public symbol   = \"nETC...\n  DUP1 \t\t\tstring public symbol   = \"nETC...\n  DUP3 \t\t\tstring public symbol   = \"nETC...\n  MSTORE \t\t\tstring public symbol   = \"nETC...\n  PUSH 6E455443\t\t\t\n  PUSH E0\t\t\t\n  SHL \t\t\t\n  PUSH 20\t\t\tstring public symbol   = \"nETC...\n  SWAP1 \t\t\tstring public symbol   = \"nETC...\n  SWAP3 \t\t\tstring public symbol   = \"nETC...\n  ADD \t\t\tstring public symbol   = \"nETC...\n  SWAP2 \t\t\tstring public symbol   = \"nETC...\n  DUP3 \t\t\tstring public symbol   = \"nETC...\n  MSTORE \t\t\tstring public symbol   = \"nETC...\n  PUSH [tag] 3\t\t\tstring public symbol   = \"nETC...\n  SWAP2 \t\t\tstring public symbol   = \"nETC...\n  PUSH 2\t\t\tstring public symbol   = \"nETC...\n  SWAP2 \t\t\tstring public symbol   = \"nETC...\n  PUSH [tag] 2\t\t\tstring public symbol   = \"nETC...\n  JUMP [in]\t\t\tstring public symbol   = \"nETC...\ntag 3\t\t\tstring public symbol   = \"nETC...\n  JUMPDEST \t\t\tstring public symbol   = \"nETC...\n  POP \t\t\t\n  PUSH 3\t\t\tuint8  public decimals = 18\n  DUP1 \t\t\tuint8  public decimals = 18\n  SLOAD \t\t\tuint8  public decimals = 18\n  PUSH FF\t\t\t\n  NOT \t\t\t\n  AND \t\t\tuint8  public decimals = 18\n  PUSH 12\t\t\t18\n  OR \t\t\tuint8  public decimals = 18\n  SWAP1 \t\t\tuint8  public decimals = 18\n  SSTORE \t\t\tuint8  public decimals = 18\n  CALLVALUE \t\t\tcontract nETC is Ownable {\\r\\n...\n  DUP1 \t\t\tcontract nETC is Ownable {\\r\\n...\n  ISZERO \t\t\tcontract nETC is Ownable {\\r\\n...\n  PUSH [tag] 4\t\t\tcontract nETC is Ownable {\\r\\n...\n  JUMPI \t\t\tcontract nETC is Ownable {\\r\\n...\n  PUSH 0\t\t\tcontract nETC is Ownable {\\r\\n...\n  DUP1 \t\t\tcontract nETC is Ownable {\\r\\n...\n  REVERT \t\t\tcontract nETC is Ownable {\\r\\n...\ntag 4\t\t\tcontract nETC is Ownable {\\r\\n...\n  JUMPDEST \t\t\tcontract nETC is Ownable {\\r\\n...\n  POP \t\t\t\n  PUSH [tag] 7\t\t\t\n  PUSH [tag] 8\t\t\t\n  PUSH [tag] 9\t\t\t\n  JUMP [in]\t\t\t\ntag 8\t\t\t\n  JUMPDEST \t\t\t\n  PUSH [tag] 10\t\t\t\n  JUMP [in]\t\t\t\ntag 7\t\t\t\n  JUMPDEST \t\t\t\n  PUSH [tag] 11\t\t\tcontract nETC is Ownable {\\r\\n...\n  JUMP \t\t\tcontract nETC is Ownable {\\r\\n...\ntag 9\t\t\tuint)                       pu...\n  JUMPDEST \t\t\tuint)                       pu...\n  CALLER \t\t\tress => ui\n  SWAP1 \t\t\tuint)                       pu...\n  JUMP [out]\t\t\tuint)                       pu...\ntag 10\t\t\t\n  JUMPDEST \t\t\t\n  PUSH 0\t\t\t\n  DUP1 \t\t\t\n  SLOAD \t\t\t\n  PUSH 1\t\t\t\n  PUSH 1\t\t\t\n  PUSH A0\t\t\t\n  SHL \t\t\t\n  SUB \t\t\t\n  DUP4 \t\t\t\n  DUP2 \t\t\t\n  AND \t\t\t\n  PUSH 1\t\t\t\n  PUSH 1\t\t\t\n  PUSH A0\t\t\t\n  SHL \t\t\t\n  SUB \t\t\t\n  NOT \t\t\t\n  DUP4 \t\t\t\n  AND \t\t\t\n  DUP2 \t\t\t\n  OR \t\t\t\n  DUP5 \t\t\t\n  SSTORE \t\t\t\n  PUSH 40\t\t\t\n  MLOAD \t\t\t\n  SWAP2 \t\t\t\n  SWAP1 \t\t\t\n  SWAP3 \t\t\t\n  AND \t\t\t\n  SWAP3 \t\t\t\n  DUP4 \t\t\t\n  SWAP2 \t\t\t\n  PUSH 8BE0079C531659141344CD1FD0A4F28419497F9722A3DAAFE3B4186F6B6457E0\t\t\t\n  SWAP2 \t\t\t\n  SWAP1 \t\t\t\n  LOG3 \t\t\t\n  POP \t\t\t\n  POP \t\t\t\n  JUMP [out]\t\t\t\ntag 2\t\t\tcontract nETC is Ownable {\\r\\n...\n  JUMPDEST \t\t\tcontract nETC is Ownable {\\r\\n...\n  DUP3 \t\t\tcontract nETC is Ownable {\\r\\n...\n  DUP1 \t\t\tcontract nETC is Ownable {\\r\\n...\n  SLOAD \t\t\tcontract nETC is Ownable {\\r\\n...\n  PUSH 1\t\t\tcontract nETC is Ownable {\\r\\n...\n  DUP2 \t\t\tcontract nETC is Ownable {\\r\\n...\n  PUSH 1\t\t\tcontract nETC is Ownable {\\r\\n...\n  AND \t\t\tcontract nETC is Ownable {\\r\\n...\n  ISZERO \t\t\tcontract nETC is Ownable {\\r\\n...\n  PUSH 100\t\t\tcontract nETC is Ownable {\\r\\n...\n  MUL \t\t\tcontract nETC is Ownable {\\r\\n...\n  SUB \t\t\tcontract nETC is Ownable {\\r\\n...\n  AND \t\t\tcontract nETC is Ownable {\\r\\n...\n  PUSH 2\t\t\tcontract nETC is Ownable {\\r\\n...\n  SWAP1 \t\t\tcontract nETC is Ownable {\\r\\n...\n  DIV \t\t\tcontract nETC is Ownable {\\r\\n...\n  SWAP1 \t\t\tcontract nETC is Ownable {\\r\\n...\n  PUSH 0\t\t\tcontract nETC is Ownable {\\r\\n...\n  MSTORE \t\t\tcontract nETC is Ownable {\\r\\n...\n  PUSH 20\t\t\tcontract nETC is Ownable {\\r\\n...\n  PUSH 0\t\t\tcontract nETC is Ownable {\\r\\n...\n  KECCAK256 \t\t\tcontract nETC is Ownable {\\r\\n...\n  SWAP1 \t\t\tcontract nETC is Ownable {\\r\\n...\n  PUSH 1F\t\t\tcontract nETC is Ownable {\\r\\n...\n  ADD \t\t\tcontract nETC is Ownable {\\r\\n...\n  PUSH 20\t\t\tcontract nETC is Ownable {\\r\\n...\n  SWAP1 \t\t\tcontract nETC is Ownable {\\r\\n...\n  DIV \t\t\tcontract nETC is Ownable {\\r\\n...\n  DUP2 \t\t\tcontract nETC is Ownable {\\r\\n...\n  ADD \t\t\tcontract nETC is Ownable {\\r\\n...\n  SWAP3 \t\t\tcontract nETC is Ownable {\\r\\n...\n  DUP3 \t\t\tcontract nETC is Ownable {\\r\\n...\n  PUSH 1F\t\t\tcontract nETC is Ownable {\\r\\n...\n  LT \t\t\tcontract nETC is Ownable {\\r\\n...\n  PUSH [tag] 15\t\t\tcontract nETC is Ownable {\\r\\n...\n  JUMPI \t\t\tcontract nETC is Ownable {\\r\\n...\n  DUP1 \t\t\tcontract nETC is Ownable {\\r\\n...\n  MLOAD \t\t\tcontract nETC is Ownable {\\r\\n...\n  PUSH FF\t\t\tcontract nETC is Ownable {\\r\\n...\n  NOT \t\t\tcontract nETC is Ownable {\\r\\n...\n  AND \t\t\tcontract nETC is Ownable {\\r\\n...\n  DUP4 \t\t\tcontract nETC is Ownable {\\r\\n...\n  DUP1 \t\t\tcontract nETC is Ownable {\\r\\n...\n  ADD \t\t\tcontract nETC is Ownable {\\r\\n...\n  OR \t\t\tcontract nETC is Ownable {\\r\\n...\n  DUP6 \t\t\tcontract nETC is Ownable {\\r\\n...\n  SSTORE \t\t\tcontract nETC is Ownable {\\r\\n...\n  PUSH [tag] 17\t\t\tcontract nETC is Ownable {\\r\\n...\n  JUMP \t\t\tcontract nETC is Ownable {\\r\\n...\ntag 15\t\t\tcontract nETC is Ownable {\\r\\n...\n  JUMPDEST \t\t\tcontract nETC is Ownable {\\r\\n...\n  DUP3 \t\t\tcontract nETC is Ownable {\\r\\n...\n  DUP1 \t\t\tcontract nETC is Ownable {\\r\\n...\n  ADD \t\t\tcontract nETC is Ownable {\\r\\n...\n  PUSH 1\t\t\tcontract nETC is Ownable {\\r\\n...\n  ADD \t\t\tcontract nETC is Ownable {\\r\\n...\n  DUP6 \t\t\tcontract nETC is Ownable {\\r\\n...\n  SSTORE \t\t\tcontract nETC is Ownable {\\r\\n...\n  DUP3 \t\t\tcontract nETC is Ownable {\\r\\n...\n  ISZERO \t\t\tcontract nETC is Ownable {\\r\\n...\n  PUSH [tag] 17\t\t\tcontract nETC is Ownable {\\r\\n...\n  JUMPI \t\t\tcontract nETC is Ownable {\\r\\n...\n  SWAP2 \t\t\tcontract nETC is Ownable {\\r\\n...\n  DUP3 \t\t\tcontract nETC is Ownable {\\r\\n...\n  ADD \t\t\tcontract nETC is Ownable {\\r\\n...\ntag 16\t\t\tcontract nETC is Ownable {\\r\\n...\n  JUMPDEST \t\t\tcontract nETC is Ownable {\\r\\n...\n  DUP3 \t\t\tcontract nETC is Ownable {\\r\\n...\n  DUP2 \t\t\tcontract nETC is Ownable {\\r\\n...\n  GT \t\t\tcontract nETC is Ownable {\\r\\n...\n  ISZERO \t\t\tcontract nETC is Ownable {\\r\\n...\n  PUSH [tag] 17\t\t\tcontract nETC is Ownable {\\r\\n...\n  JUMPI \t\t\tcontract nETC is Ownable {\\r\\n...\n  DUP3 \t\t\tcontract nETC is Ownable {\\r\\n...\n  MLOAD \t\t\tcontract nETC is Ownable {\\r\\n...\n  DUP3 \t\t\tcontract nETC is Ownable {\\r\\n...\n  SSTORE \t\t\tcontract nETC is Ownable {\\r\\n...\n  SWAP2 \t\t\tcontract nETC is Ownable {\\r\\n...\n  PUSH 20\t\t\tcontract nETC is Ownable {\\r\\n...\n  ADD \t\t\tcontract nETC is Ownable {\\r\\n...\n  SWAP2 \t\t\tcontract nETC is Ownable {\\r\\n...\n  SWAP1 \t\t\tcontract nETC is Ownable {\\r\\n...\n  PUSH 1\t\t\tcontract nETC is Ownable {\\r\\n...\n  ADD \t\t\tcontract nETC is Ownable {\\r\\n...\n  SWAP1 \t\t\tcontract nETC is Ownable {\\r\\n...\n  PUSH [tag] 16\t\t\tcontract nETC is Ownable {\\r\\n...\n  JUMP \t\t\tcontract nETC is Ownable {\\r\\n...\ntag 17\t\t\tcontract nETC is Ownable {\\r\\n...\n  JUMPDEST \t\t\tcontract nETC is Ownable {\\r\\n...\n  POP \t\t\t\n  PUSH [tag] 18\t\t\tcontract nETC is Ownable {\\r\\n...\n  SWAP3 \t\t\tcontract nETC is Ownable {\\r\\n...\n  SWAP2 \t\t\tcontract nETC is Ownable {\\r\\n...\n  POP \t\t\t\n  PUSH [tag] 19\t\t\tcontract nETC is Ownable {\\r\\n...\n  JUMP [in]\t\t\tcontract nETC is Ownable {\\r\\n...\ntag 18\t\t\tcontract nETC is Ownable {\\r\\n...\n  JUMPDEST \t\t\tcontract nETC is Ownable {\\r\\n...\n  POP \t\t\tcontract nETC is Ownable {\\r\\n...\n  SWAP1 \t\t\tcontract nETC is Ownable {\\r\\n...\n  JUMP [out]\t\t\tcontract nETC is Ownable {\\r\\n...\ntag 19\t\t\tcontract nETC is Ownable {\\r\\n...\n  JUMPDEST \t\t\tcontract nETC is Ownable {\\r\\n...\ntag 20\t\t\tcontract nETC is Ownable {\\r\\n...\n  JUMPDEST \t\t\tcontract nETC is Ownable {\\r\\n...\n  DUP1 \t\t\tcontract nETC is Ownable {\\r\\n...\n  DUP3 \t\t\tcontract nETC is Ownable {\\r\\n...\n  GT \t\t\tcontract nETC is Ownable {\\r\\n...\n  ISZERO \t\t\tcontract nETC is Ownable {\\r\\n...\n  PUSH [tag] 18\t\t\tcontract nETC is Ownable {\\r\\n...\n  JUMPI \t\t\tcontract nETC is Ownable {\\r\\n...\n  PUSH 0\t\t\tcontract nETC is Ownable {\\r\\n...\n  DUP2 \t\t\tcontract nETC is Ownable {\\r\\n...\n  SSTORE \t\t\tcontract nETC is Ownable {\\r\\n...\n  PUSH 1\t\t\tcontract nETC is Ownable {\\r\\n...\n  ADD \t\t\tcontract nETC is Ownable {\\r\\n...\n  PUSH [tag] 20\t\t\tcontract nETC is Ownable {\\r\\n...\n  JUMP \t\t\tcontract nETC is Ownable {\\r\\n...\ntag 11\t\t\tcontract nETC is Ownable {\\r\\n...\n  JUMPDEST \t\t\tcontract nETC is Ownable {\\r\\n...\n  PUSH #[$] 0000000000000000000000000000000000000000000000000000000000000000\t\t\tcontract nETC is Ownable {\\r\\n...\n  DUP1 \t\t\tcontract nETC is Ownable {\\r\\n...\n  PUSH [$] 0000000000000000000000000000000000000000000000000000000000000000\t\t\tcontract nETC is Ownable {\\r\\n...\n  PUSH 0\t\t\tcontract nETC is Ownable {\\r\\n...\n  CODECOPY \t\t\tcontract nETC is Ownable {\\r\\n...\n  PUSH 0\t\t\tcontract nETC is Ownable {\\r\\n...\n  RETURN \t\t\tcontract nETC is Ownable {\\r\\n...\n.data\n  0:\n    .code\n      PUSH 80\t\t\tcontract nETC is Ownable {\\r\\n...\n      PUSH 40\t\t\tcontract nETC is Ownable {\\r\\n...\n      MSTORE \t\t\tcontract nETC is Ownable {\\r\\n...\n      PUSH 4\t\t\tcontract nETC is Ownable {\\r\\n...\n      CALLDATASIZE \t\t\tcontract nETC is Ownable {\\r\\n...\n      LT \t\t\tcontract nETC is Ownable {\\r\\n...\n      PUSH [tag] 1\t\t\tcontract nETC is Ownable {\\r\\n...\n      JUMPI \t\t\tcontract nETC is Ownable {\\r\\n...\n      PUSH 0\t\t\tcontract nETC is Ownable {\\r\\n...\n      CALLDATALOAD \t\t\tcontract nETC is Ownable {\\r\\n...\n      PUSH E0\t\t\tcontract nETC is Ownable {\\r\\n...\n      SHR \t\t\tcontract nETC is Ownable {\\r\\n...\n      DUP1 \t\t\tcontract nETC is Ownable {\\r\\n...\n      PUSH 715018A6\t\t\tcontract nETC is Ownable {\\r\\n...\n      GT \t\t\tcontract nETC is Ownable {\\r\\n...\n      PUSH [tag] 16\t\t\tcontract nETC is Ownable {\\r\\n...\n      JUMPI \t\t\tcontract nETC is Ownable {\\r\\n...\n      DUP1 \t\t\tcontract nETC is Ownable {\\r\\n...\n      PUSH A9059CBB\t\t\tcontract nETC is Ownable {\\r\\n...\n      GT \t\t\tcontract nETC is Ownable {\\r\\n...\n      PUSH [tag] 17\t\t\tcontract nETC is Ownable {\\r\\n...\n      JUMPI \t\t\tcontract nETC is Ownable {\\r\\n...\n      DUP1 \t\t\tcontract nETC is Ownable {\\r\\n...\n      PUSH A9059CBB\t\t\tcontract nETC is Ownable {\\r\\n...\n      EQ \t\t\tcontract nETC is Ownable {\\r\\n...\n      PUSH [tag] 12\t\t\tcontract nETC is Ownable {\\r\\n...\n      JUMPI \t\t\tcontract nETC is Ownable {\\r\\n...\n      DUP1 \t\t\tcontract nETC is Ownable {\\r\\n...\n      PUSH D0E30DB0\t\t\tcontract nETC is Ownable {\\r\\n...\n      EQ \t\t\tcontract nETC is Ownable {\\r\\n...\n      PUSH [tag] 13\t\t\tcontract nETC is Ownable {\\r\\n...\n      JUMPI \t\t\tcontract nETC is Ownable {\\r\\n...\n      DUP1 \t\t\tcontract nETC is Ownable {\\r\\n...\n      PUSH DD62ED3E\t\t\tcontract nETC is Ownable {\\r\\n...\n      EQ \t\t\tcontract nETC is Ownable {\\r\\n...\n      PUSH [tag] 14\t\t\tcontract nETC is Ownable {\\r\\n...\n      JUMPI \t\t\tcontract nETC is Ownable {\\r\\n...\n      DUP1 \t\t\tcontract nETC is Ownable {\\r\\n...\n      PUSH F2FDE38B\t\t\tcontract nETC is Ownable {\\r\\n...\n      EQ \t\t\tcontract nETC is Ownable {\\r\\n...\n      PUSH [tag] 15\t\t\tcontract nETC is Ownable {\\r\\n...\n      JUMPI \t\t\tcontract nETC is Ownable {\\r\\n...\n      PUSH [tag] 1\t\t\tcontract nETC is Ownable {\\r\\n...\n      JUMP \t\t\tcontract nETC is Ownable {\\r\\n...\n    tag 17\t\t\tcontract nETC is Ownable {\\r\\n...\n      JUMPDEST \t\t\tcontract nETC is Ownable {\\r\\n...\n      DUP1 \t\t\tcontract nETC is Ownable {\\r\\n...\n      PUSH 715018A6\t\t\tcontract nETC is Ownable {\\r\\n...\n      EQ \t\t\tcontract nETC is Ownable {\\r\\n...\n      PUSH [tag] 9\t\t\tcontract nETC is Ownable {\\r\\n...\n      JUMPI \t\t\tcontract nETC is Ownable {\\r\\n...\n      DUP1 \t\t\tcontract nETC is Ownable {\\r\\n...\n      PUSH 8DA5CB5B\t\t\tcontract nETC is Ownable {\\r\\n...\n      EQ \t\t\tcontract nETC is Ownable {\\r\\n...\n      PUSH [tag] 10\t\t\tcontract nETC is Ownable {\\r\\n...\n      JUMPI \t\t\tcontract nETC is Ownable {\\r\\n...\n      DUP1 \t\t\tcontract nETC is Ownable {\\r\\n...\n      PUSH 95D89B41\t\t\tcontract nETC is Ownable {\\r\\n...\n      EQ \t\t\tcontract nETC is Ownable {\\r\\n...\n      PUSH [tag] 11\t\t\tcontract nETC is Ownable {\\r\\n...\n      JUMPI \t\t\tcontract nETC is Ownable {\\r\\n...\n      PUSH [tag] 1\t\t\tcontract nETC is Ownable {\\r\\n...\n      JUMP \t\t\tcontract nETC is Ownable {\\r\\n...\n    tag 16\t\t\tcontract nETC is Ownable {\\r\\n...\n      JUMPDEST \t\t\tcontract nETC is Ownable {\\r\\n...\n      DUP1 \t\t\tcontract nETC is Ownable {\\r\\n...\n      PUSH 23B872DD\t\t\tcontract nETC is Ownable {\\r\\n...\n      GT \t\t\tcontract nETC is Ownable {\\r\\n...\n      PUSH [tag] 18\t\t\tcontract nETC is Ownable {\\r\\n...\n      JUMPI \t\t\tcontract nETC is Ownable {\\r\\n...\n      DUP1 \t\t\tcontract nETC is Ownable {\\r\\n...\n      PUSH 23B872DD\t\t\tcontract nETC is Ownable {\\r\\n...\n      EQ \t\t\tcontract nETC is Ownable {\\r\\n...\n      PUSH [tag] 5\t\t\tcontract nETC is Ownable {\\r\\n...\n      JUMPI \t\t\tcontract nETC is Ownable {\\r\\n...\n      DUP1 \t\t\tcontract nETC is Ownable {\\r\\n...\n      PUSH 2E1A7D4D\t\t\tcontract nETC is Ownable {\\r\\n...\n      EQ \t\t\tcontract nETC is Ownable {\\r\\n...\n      PUSH [tag] 6\t\t\tcontract nETC is Ownable {\\r\\n...\n      JUMPI \t\t\tcontract nETC is Ownable {\\r\\n...\n      DUP1 \t\t\tcontract nETC is Ownable {\\r\\n...\n      PUSH 313CE567\t\t\tcontract nETC is Ownable {\\r\\n...\n      EQ \t\t\tcontract nETC is Ownable {\\r\\n...\n      PUSH [tag] 7\t\t\tcontract nETC is Ownable {\\r\\n...\n      JUMPI \t\t\tcontract nETC is Ownable {\\r\\n...\n      DUP1 \t\t\tcontract nETC is Ownable {\\r\\n...\n      PUSH 70A08231\t\t\tcontract nETC is Ownable {\\r\\n...\n      EQ \t\t\tcontract nETC is Ownable {\\r\\n...\n      PUSH [tag] 8\t\t\tcontract nETC is Ownable {\\r\\n...\n      JUMPI \t\t\tcontract nETC is Ownable {\\r\\n...\n      PUSH [tag] 1\t\t\tcontract nETC is Ownable {\\r\\n...\n      JUMP \t\t\tcontract nETC is Ownable {\\r\\n...\n    tag 18\t\t\tcontract nETC is Ownable {\\r\\n...\n      JUMPDEST \t\t\tcontract nETC is Ownable {\\r\\n...\n      DUP1 \t\t\tcontract nETC is Ownable {\\r\\n...\n      PUSH 6FDDE03\t\t\tcontract nETC is Ownable {\\r\\n...\n      EQ \t\t\tcontract nETC is Ownable {\\r\\n...\n      PUSH [tag] 2\t\t\tcontract nETC is Ownable {\\r\\n...\n      JUMPI \t\t\tcontract nETC is Ownable {\\r\\n...\n      DUP1 \t\t\tcontract nETC is Ownable {\\r\\n...\n      PUSH 95EA7B3\t\t\tcontract nETC is Ownable {\\r\\n...\n      EQ \t\t\tcontract nETC is Ownable {\\r\\n...\n      PUSH [tag] 3\t\t\tcontract nETC is Ownable {\\r\\n...\n      JUMPI \t\t\tcontract nETC is Ownable {\\r\\n...\n      DUP1 \t\t\tcontract nETC is Ownable {\\r\\n...\n      PUSH 18160DDD\t\t\tcontract nETC is Ownable {\\r\\n...\n      EQ \t\t\tcontract nETC is Ownable {\\r\\n...\n      PUSH [tag] 4\t\t\tcontract nETC is Ownable {\\r\\n...\n      JUMPI \t\t\tcontract nETC is Ownable {\\r\\n...\n    tag 1\t\t\tcontract nETC is Ownable {\\r\\n...\n      JUMPDEST \t\t\tcontract nETC is Ownable {\\r\\n...\n      PUSH 0\t\t\tcontract nETC is Ownable {\\r\\n...\n      DUP1 \t\t\tcontract nETC is Ownable {\\r\\n...\n      REVERT \t\t\tcontract nETC is Ownable {\\r\\n...\n    tag 2\t\t\tstring public name     = \"nEth...\n      JUMPDEST \t\t\tstring public name     = \"nEth...\n      CALLVALUE \t\t\tstring public name     = \"nEth...\n      DUP1 \t\t\tstring public name     = \"nEth...\n      ISZERO \t\t\tstring public name     = \"nEth...\n      PUSH [tag] 19\t\t\tstring public name     = \"nEth...\n      JUMPI \t\t\tstring public name     = \"nEth...\n      PUSH 0\t\t\tstring public name     = \"nEth...\n      DUP1 \t\t\tstring public name     = \"nEth...\n      REVERT \t\t\tstring public name     = \"nEth...\n    tag 19\t\t\tstring public name     = \"nEth...\n      JUMPDEST \t\t\tstring public name     = \"nEth...\n      POP \t\t\tstring public name     = \"nEth...\n      PUSH [tag] 20\t\t\tstring public name     = \"nEth...\n      PUSH [tag] 21\t\t\tstring public name     = \"nEth...\n      JUMP [in]\t\t\tstring public name     = \"nEth...\n    tag 20\t\t\tstring public name     = \"nEth...\n      JUMPDEST \t\t\tstring public name     = \"nEth...\n      PUSH 40\t\t\tstring public name     = \"nEth...\n      DUP1 \t\t\tstring public name     = \"nEth...\n      MLOAD \t\t\tstring public name     = \"nEth...\n      PUSH 20\t\t\tstring public name     = \"nEth...\n      DUP1 \t\t\tstring public name     = \"nEth...\n      DUP3 \t\t\tstring public name     = \"nEth...\n      MSTORE \t\t\tstring public name     = \"nEth...\n      DUP4 \t\t\tstring public name     = \"nEth...\n      MLOAD \t\t\tstring public name     = \"nEth...\n      DUP2 \t\t\tstring public name     = \"nEth...\n      DUP4 \t\t\tstring public name     = \"nEth...\n      ADD \t\t\tstring public name     = \"nEth...\n      MSTORE \t\t\tstring public name     = \"nEth...\n      DUP4 \t\t\tstring public name     = \"nEth...\n      MLOAD \t\t\tstring public name     = \"nEth...\n      SWAP2 \t\t\tstring public name     = \"nEth...\n      SWAP3 \t\t\tstring public name     = \"nEth...\n      DUP4 \t\t\tstring public name     = \"nEth...\n      SWAP3 \t\t\tstring public name     = \"nEth...\n      SWAP1 \t\t\tstring public name     = \"nEth...\n      DUP4 \t\t\tstring public name     = \"nEth...\n      ADD \t\t\tstring public name     = \"nEth...\n      SWAP2 \t\t\tstring public name     = \"nEth...\n      DUP6 \t\t\tstring public name     = \"nEth...\n      ADD \t\t\tstring public name     = \"nEth...\n      SWAP1 \t\t\tstring public name     = \"nEth...\n      DUP1 \t\t\tstring public name     = \"nEth...\n      DUP4 \t\t\tstring public name     = \"nEth...\n      DUP4 \t\t\tstring public name     = \"nEth...\n      PUSH 0\t\t\tstring public name     = \"nEth...\n    tag 22\t\t\tstring public name     = \"nEth...\n      JUMPDEST \t\t\tstring public name     = \"nEth...\n      DUP4 \t\t\tstring public name     = \"nEth...\n      DUP2 \t\t\tstring public name     = \"nEth...\n      LT \t\t\tstring public name     = \"nEth...\n      ISZERO \t\t\tstring public name     = \"nEth...\n      PUSH [tag] 24\t\t\tstring public name     = \"nEth...\n      JUMPI \t\t\tstring public name     = \"nEth...\n      DUP2 \t\t\tstring public name     = \"nEth...\n      DUP2 \t\t\tstring public name     = \"nEth...\n      ADD \t\t\tstring public name     = \"nEth...\n      MLOAD \t\t\tstring public name     = \"nEth...\n      DUP4 \t\t\tstring public name     = \"nEth...\n      DUP3 \t\t\tstring public name     = \"nEth...\n      ADD \t\t\tstring public name     = \"nEth...\n      MSTORE \t\t\tstring public name     = \"nEth...\n      PUSH 20\t\t\tstring public name     = \"nEth...\n      ADD \t\t\tstring public name     = \"nEth...\n      PUSH [tag] 22\t\t\tstring public name     = \"nEth...\n      JUMP \t\t\tstring public name     = \"nEth...\n    tag 24\t\t\tstring public name     = \"nEth...\n      JUMPDEST \t\t\tstring public name     = \"nEth...\n      POP \t\t\tstring public name     = \"nEth...\n      POP \t\t\tstring public name     = \"nEth...\n      POP \t\t\tstring public name     = \"nEth...\n      POP \t\t\tstring public name     = \"nEth...\n      SWAP1 \t\t\tstring public name     = \"nEth...\n      POP \t\t\tstring public name     = \"nEth...\n      SWAP1 \t\t\tstring public name     = \"nEth...\n      DUP2 \t\t\tstring public name     = \"nEth...\n      ADD \t\t\tstring public name     = \"nEth...\n      SWAP1 \t\t\tstring public name     = \"nEth...\n      PUSH 1F\t\t\tstring public name     = \"nEth...\n      AND \t\t\tstring public name     = \"nEth...\n      DUP1 \t\t\tstring public name     = \"nEth...\n      ISZERO \t\t\tstring public name     = \"nEth...\n      PUSH [tag] 25\t\t\tstring public name     = \"nEth...\n      JUMPI \t\t\tstring public name     = \"nEth...\n      DUP1 \t\t\tstring public name     = \"nEth...\n      DUP3 \t\t\tstring public name     = \"nEth...\n      SUB \t\t\tstring public name     = \"nEth...\n      DUP1 \t\t\tstring public name     = \"nEth...\n      MLOAD \t\t\tstring public name     = \"nEth...\n      PUSH 1\t\t\tstring public name     = \"nEth...\n      DUP4 \t\t\tstring public name     = \"nEth...\n      PUSH 20\t\t\tstring public name     = \"nEth...\n      SUB \t\t\tstring public name     = \"nEth...\n      PUSH 100\t\t\tstring public name     = \"nEth...\n      EXP \t\t\tstring public name     = \"nEth...\n      SUB \t\t\tstring public name     = \"nEth...\n      NOT \t\t\tstring public name     = \"nEth...\n      AND \t\t\tstring public name     = \"nEth...\n      DUP2 \t\t\tstring public name     = \"nEth...\n      MSTORE \t\t\tstring public name     = \"nEth...\n      PUSH 20\t\t\tstring public name     = \"nEth...\n      ADD \t\t\tstring public name     = \"nEth...\n      SWAP2 \t\t\tstring public name     = \"nEth...\n      POP \t\t\tstring public name     = \"nEth...\n    tag 25\t\t\tstring public name     = \"nEth...\n      JUMPDEST \t\t\tstring public name     = \"nEth...\n      POP \t\t\tstring public name     = \"nEth...\n      SWAP3 \t\t\tstring public name     = \"nEth...\n      POP \t\t\tstring public name     = \"nEth...\n      POP \t\t\tstring public name     = \"nEth...\n      POP \t\t\tstring public name     = \"nEth...\n      PUSH 40\t\t\tstring public name     = \"nEth...\n      MLOAD \t\t\tstring public name     = \"nEth...\n      DUP1 \t\t\tstring public name     = \"nEth...\n      SWAP2 \t\t\tstring public name     = \"nEth...\n      SUB \t\t\tstring public name     = \"nEth...\n      SWAP1 \t\t\tstring public name     = \"nEth...\n      RETURN \t\t\tstring public name     = \"nEth...\n    tag 3\t\t\tfunction approve(address guy, ...\n      JUMPDEST \t\t\tfunction approve(address guy, ...\n      CALLVALUE \t\t\tfunction approve(address guy, ...\n      DUP1 \t\t\tfunction approve(address guy, ...\n      ISZERO \t\t\tfunction approve(address guy, ...\n      PUSH [tag] 26\t\t\tfunction approve(address guy, ...\n      JUMPI \t\t\tfunction approve(address guy, ...\n      PUSH 0\t\t\tfunction approve(address guy, ...\n      DUP1 \t\t\tfunction approve(address guy, ...\n      REVERT \t\t\tfunction approve(address guy, ...\n    tag 26\t\t\tfunction approve(address guy, ...\n      JUMPDEST \t\t\tfunction approve(address guy, ...\n      POP \t\t\tfunction approve(address guy, ...\n      PUSH [tag] 27\t\t\tfunction approve(address guy, ...\n      PUSH 4\t\t\tfunction approve(address guy, ...\n      DUP1 \t\t\tfunction approve(address guy, ...\n      CALLDATASIZE \t\t\tfunction approve(address guy, ...\n      SUB \t\t\tfunction approve(address guy, ...\n      PUSH 40\t\t\tfunction approve(address guy, ...\n      DUP2 \t\t\tfunction approve(address guy, ...\n      LT \t\t\tfunction approve(address guy, ...\n      ISZERO \t\t\tfunction approve(address guy, ...\n      PUSH [tag] 28\t\t\tfunction approve(address guy, ...\n      JUMPI \t\t\tfunction approve(address guy, ...\n      PUSH 0\t\t\tfunction approve(address guy, ...\n      DUP1 \t\t\tfunction approve(address guy, ...\n      REVERT \t\t\tfunction approve(address guy, ...\n    tag 28\t\t\tfunction approve(address guy, ...\n      JUMPDEST \t\t\tfunction approve(address guy, ...\n      POP \t\t\t\n      PUSH 1\t\t\t\n      PUSH 1\t\t\t\n      PUSH A0\t\t\t\n      SHL \t\t\t\n      SUB \t\t\t\n      DUP2 \t\t\tfunction approve(address guy, ...\n      CALLDATALOAD \t\t\tfunction approve(address guy, ...\n      AND \t\t\tfunction approve(address guy, ...\n      SWAP1 \t\t\tfunction approve(address guy, ...\n      PUSH 20\t\t\tfunction approve(address guy, ...\n      ADD \t\t\tfunction approve(address guy, ...\n      CALLDATALOAD \t\t\tfunction approve(address guy, ...\n      PUSH [tag] 29\t\t\tfunction approve(address guy, ...\n      JUMP [in]\t\t\tfunction approve(address guy, ...\n    tag 27\t\t\tfunction approve(address guy, ...\n      JUMPDEST \t\t\tfunction approve(address guy, ...\n      PUSH 40\t\t\tfunction approve(address guy, ...\n      DUP1 \t\t\tfunction approve(address guy, ...\n      MLOAD \t\t\tfunction approve(address guy, ...\n      SWAP2 \t\t\tfunction approve(address guy, ...\n      ISZERO \t\t\tfunction approve(address guy, ...\n      ISZERO \t\t\tfunction approve(address guy, ...\n      DUP3 \t\t\tfunction approve(address guy, ...\n      MSTORE \t\t\tfunction approve(address guy, ...\n      MLOAD \t\t\tfunction approve(address guy, ...\n      SWAP1 \t\t\tfunction approve(address guy, ...\n      DUP2 \t\t\tfunction approve(address guy, ...\n      SWAP1 \t\t\tfunction approve(address guy, ...\n      SUB \t\t\tfunction approve(address guy, ...\n      PUSH 20\t\t\tfunction approve(address guy, ...\n      ADD \t\t\tfunction approve(address guy, ...\n      SWAP1 \t\t\tfunction approve(address guy, ...\n      RETURN \t\t\tfunction approve(address guy, ...\n    tag 4\t\t\tfunction totalSupply() public ...\n      JUMPDEST \t\t\tfunction totalSupply() public ...\n      CALLVALUE \t\t\tfunction totalSupply() public ...\n      DUP1 \t\t\tfunction totalSupply() public ...\n      ISZERO \t\t\tfunction totalSupply() public ...\n      PUSH [tag] 30\t\t\tfunction totalSupply() public ...\n      JUMPI \t\t\tfunction totalSupply() public ...\n      PUSH 0\t\t\tfunction totalSupply() public ...\n      DUP1 \t\t\tfunction totalSupply() public ...\n      REVERT \t\t\tfunction totalSupply() public ...\n    tag 30\t\t\tfunction totalSupply() public ...\n      JUMPDEST \t\t\tfunction totalSupply() public ...\n      POP \t\t\tfunction totalSupply() public ...\n      PUSH [tag] 31\t\t\tfunction totalSupply() public ...\n      PUSH [tag] 32\t\t\tfunction totalSupply() public ...\n      JUMP [in]\t\t\tfunction totalSupply() public ...\n    tag 31\t\t\tfunction totalSupply() public ...\n      JUMPDEST \t\t\tfunction totalSupply() public ...\n      PUSH 40\t\t\tfunction totalSupply() public ...\n      DUP1 \t\t\tfunction totalSupply() public ...\n      MLOAD \t\t\tfunction totalSupply() public ...\n      SWAP2 \t\t\tfunction totalSupply() public ...\n      DUP3 \t\t\tfunction totalSupply() public ...\n      MSTORE \t\t\tfunction totalSupply() public ...\n      MLOAD \t\t\tfunction totalSupply() public ...\n      SWAP1 \t\t\tfunction totalSupply() public ...\n      DUP2 \t\t\tfunction totalSupply() public ...\n      SWAP1 \t\t\tfunction totalSupply() public ...\n      SUB \t\t\tfunction totalSupply() public ...\n      PUSH 20\t\t\tfunction totalSupply() public ...\n      ADD \t\t\tfunction totalSupply() public ...\n      SWAP1 \t\t\tfunction totalSupply() public ...\n      RETURN \t\t\tfunction totalSupply() public ...\n    tag 5\t\t\tfunction transferFrom(address ...\n      JUMPDEST \t\t\tfunction transferFrom(address ...\n      CALLVALUE \t\t\tfunction transferFrom(address ...\n      DUP1 \t\t\tfunction transferFrom(address ...\n      ISZERO \t\t\tfunction transferFrom(address ...\n      PUSH [tag] 33\t\t\tfunction transferFrom(address ...\n      JUMPI \t\t\tfunction transferFrom(address ...\n      PUSH 0\t\t\tfunction transferFrom(address ...\n      DUP1 \t\t\tfunction transferFrom(address ...\n      REVERT \t\t\tfunction transferFrom(address ...\n    tag 33\t\t\tfunction transferFrom(address ...\n      JUMPDEST \t\t\tfunction transferFrom(address ...\n      POP \t\t\tfunction transferFrom(address ...\n      PUSH [tag] 27\t\t\tfunction transferFrom(address ...\n      PUSH 4\t\t\tfunction transferFrom(address ...\n      DUP1 \t\t\tfunction transferFrom(address ...\n      CALLDATASIZE \t\t\tfunction transferFrom(address ...\n      SUB \t\t\tfunction transferFrom(address ...\n      PUSH 60\t\t\tfunction transferFrom(address ...\n      DUP2 \t\t\tfunction transferFrom(address ...\n      LT \t\t\tfunction transferFrom(address ...\n      ISZERO \t\t\tfunction transferFrom(address ...\n      PUSH [tag] 35\t\t\tfunction transferFrom(address ...\n      JUMPI \t\t\tfunction transferFrom(address ...\n      PUSH 0\t\t\tfunction transferFrom(address ...\n      DUP1 \t\t\tfunction transferFrom(address ...\n      REVERT \t\t\tfunction transferFrom(address ...\n    tag 35\t\t\tfunction transferFrom(address ...\n      JUMPDEST \t\t\tfunction transferFrom(address ...\n      POP \t\t\t\n      PUSH 1\t\t\t\n      PUSH 1\t\t\t\n      PUSH A0\t\t\t\n      SHL \t\t\t\n      SUB \t\t\t\n      DUP2 \t\t\tfunction transferFrom(address ...\n      CALLDATALOAD \t\t\tfunction transferFrom(address ...\n      DUP2 \t\t\tfunction transferFrom(address ...\n      AND \t\t\tfunction transferFrom(address ...\n      SWAP2 \t\t\tfunction transferFrom(address ...\n      PUSH 20\t\t\tfunction transferFrom(address ...\n      DUP2 \t\t\tfunction transferFrom(address ...\n      ADD \t\t\tfunction transferFrom(address ...\n      CALLDATALOAD \t\t\tfunction transferFrom(address ...\n      SWAP1 \t\t\tfunction transferFrom(address ...\n      SWAP2 \t\t\tfunction transferFrom(address ...\n      AND \t\t\tfunction transferFrom(address ...\n      SWAP1 \t\t\tfunction transferFrom(address ...\n      PUSH 40\t\t\tfunction transferFrom(address ...\n      ADD \t\t\tfunction transferFrom(address ...\n      CALLDATALOAD \t\t\tfunction transferFrom(address ...\n      PUSH [tag] 36\t\t\tfunction transferFrom(address ...\n      JUMP [in]\t\t\tfunction transferFrom(address ...\n    tag 6\t\t\tfunction withdraw(uint wad) pu...\n      JUMPDEST \t\t\tfunction withdraw(uint wad) pu...\n      PUSH [tag] 37\t\t\tfunction withdraw(uint wad) pu...\n      PUSH 4\t\t\tfunction withdraw(uint wad) pu...\n      DUP1 \t\t\tfunction withdraw(uint wad) pu...\n      CALLDATASIZE \t\t\tfunction withdraw(uint wad) pu...\n      SUB \t\t\tfunction withdraw(uint wad) pu...\n      PUSH 20\t\t\tfunction withdraw(uint wad) pu...\n      DUP2 \t\t\tfunction withdraw(uint wad) pu...\n      LT \t\t\tfunction withdraw(uint wad) pu...\n      ISZERO \t\t\tfunction withdraw(uint wad) pu...\n      PUSH [tag] 38\t\t\tfunction withdraw(uint wad) pu...\n      JUMPI \t\t\tfunction withdraw(uint wad) pu...\n      PUSH 0\t\t\tfunction withdraw(uint wad) pu...\n      DUP1 \t\t\tfunction withdraw(uint wad) pu...\n      REVERT \t\t\tfunction withdraw(uint wad) pu...\n    tag 38\t\t\tfunction withdraw(uint wad) pu...\n      JUMPDEST \t\t\tfunction withdraw(uint wad) pu...\n      POP \t\t\t\n      CALLDATALOAD \t\t\tfunction withdraw(uint wad) pu...\n      PUSH [tag] 39\t\t\tfunction withdraw(uint wad) pu...\n      JUMP [in]\t\t\tfunction withdraw(uint wad) pu...\n    tag 37\t\t\tfunction withdraw(uint wad) pu...\n      JUMPDEST \t\t\tfunction withdraw(uint wad) pu...\n      STOP \t\t\tfunction withdraw(uint wad) pu...\n    tag 7\t\t\tuint8  public decimals = 18\n      JUMPDEST \t\t\tuint8  public decimals = 18\n      CALLVALUE \t\t\tuint8  public decimals = 18\n      DUP1 \t\t\tuint8  public decimals = 18\n      ISZERO \t\t\tuint8  public decimals = 18\n      PUSH [tag] 40\t\t\tuint8  public decimals = 18\n      JUMPI \t\t\tuint8  public decimals = 18\n      PUSH 0\t\t\tuint8  public decimals = 18\n      DUP1 \t\t\tuint8  public decimals = 18\n      REVERT \t\t\tuint8  public decimals = 18\n    tag 40\t\t\tuint8  public decimals = 18\n      JUMPDEST \t\t\tuint8  public decimals = 18\n      POP \t\t\tuint8  public decimals = 18\n      PUSH [tag] 41\t\t\tuint8  public decimals = 18\n      PUSH [tag] 42\t\t\tuint8  public decimals = 18\n      JUMP [in]\t\t\tuint8  public decimals = 18\n    tag 41\t\t\tuint8  public decimals = 18\n      JUMPDEST \t\t\tuint8  public decimals = 18\n      PUSH 40\t\t\tuint8  public decimals = 18\n      DUP1 \t\t\tuint8  public decimals = 18\n      MLOAD \t\t\tuint8  public decimals = 18\n      PUSH FF\t\t\tuint8  public decimals = 18\n      SWAP1 \t\t\tuint8  public decimals = 18\n      SWAP3 \t\t\tuint8  public decimals = 18\n      AND \t\t\tuint8  public decimals = 18\n      DUP3 \t\t\tuint8  public decimals = 18\n      MSTORE \t\t\tuint8  public decimals = 18\n      MLOAD \t\t\tuint8  public decimals = 18\n      SWAP1 \t\t\tuint8  public decimals = 18\n      DUP2 \t\t\tuint8  public decimals = 18\n      SWAP1 \t\t\tuint8  public decimals = 18\n      SUB \t\t\tuint8  public decimals = 18\n      PUSH 20\t\t\tuint8  public decimals = 18\n      ADD \t\t\tuint8  public decimals = 18\n      SWAP1 \t\t\tuint8  public decimals = 18\n      RETURN \t\t\tuint8  public decimals = 18\n    tag 8\t\t\tmapping (address => uint)     ...\n      JUMPDEST \t\t\tmapping (address => uint)     ...\n      CALLVALUE \t\t\tmapping (address => uint)     ...\n      DUP1 \t\t\tmapping (address => uint)     ...\n      ISZERO \t\t\tmapping (address => uint)     ...\n      PUSH [tag] 43\t\t\tmapping (address => uint)     ...\n      JUMPI \t\t\tmapping (address => uint)     ...\n      PUSH 0\t\t\tmapping (address => uint)     ...\n      DUP1 \t\t\tmapping (address => uint)     ...\n      REVERT \t\t\tmapping (address => uint)     ...\n    tag 43\t\t\tmapping (address => uint)     ...\n      JUMPDEST \t\t\tmapping (address => uint)     ...\n      POP \t\t\tmapping (address => uint)     ...\n      PUSH [tag] 31\t\t\tmapping (address => uint)     ...\n      PUSH 4\t\t\tmapping (address => uint)     ...\n      DUP1 \t\t\tmapping (address => uint)     ...\n      CALLDATASIZE \t\t\tmapping (address => uint)     ...\n      SUB \t\t\tmapping (address => uint)     ...\n      PUSH 20\t\t\tmapping (address => uint)     ...\n      DUP2 \t\t\tmapping (address => uint)     ...\n      LT \t\t\tmapping (address => uint)     ...\n      ISZERO \t\t\tmapping (address => uint)     ...\n      PUSH [tag] 45\t\t\tmapping (address => uint)     ...\n      JUMPI \t\t\tmapping (address => uint)     ...\n      PUSH 0\t\t\tmapping (address => uint)     ...\n      DUP1 \t\t\tmapping (address => uint)     ...\n      REVERT \t\t\tmapping (address => uint)     ...\n    tag 45\t\t\tmapping (address => uint)     ...\n      JUMPDEST \t\t\tmapping (address => uint)     ...\n      POP \t\t\t\n      CALLDATALOAD \t\t\tmapping (address => uint)     ...\n      PUSH 1\t\t\t\n      PUSH 1\t\t\t\n      PUSH A0\t\t\t\n      SHL \t\t\t\n      SUB \t\t\t\n      AND \t\t\tmapping (address => uint)     ...\n      PUSH [tag] 46\t\t\tmapping (address => uint)     ...\n      JUMP [in]\t\t\tmapping (address => uint)     ...\n    tag 9\t\t\t\n      JUMPDEST \t\t\t\n      CALLVALUE \t\t\t\n      DUP1 \t\t\t\n      ISZERO \t\t\t\n      PUSH [tag] 47\t\t\t\n      JUMPI \t\t\t\n      PUSH 0\t\t\t\n      DUP1 \t\t\t\n      REVERT \t\t\t\n    tag 47\t\t\t\n      JUMPDEST \t\t\t\n      POP \t\t\t\n      PUSH [tag] 37\t\t\t\n      PUSH [tag] 49\t\t\t\n      JUMP [in]\t\t\t\n    tag 10\t\t\t\n      JUMPDEST \t\t\t\n      CALLVALUE \t\t\t\n      DUP1 \t\t\t\n      ISZERO \t\t\t\n      PUSH [tag] 50\t\t\t\n      JUMPI \t\t\t\n      PUSH 0\t\t\t\n      DUP1 \t\t\t\n      REVERT \t\t\t\n    tag 50\t\t\t\n      JUMPDEST \t\t\t\n      POP \t\t\t\n      PUSH [tag] 51\t\t\t\n      PUSH [tag] 52\t\t\t\n      JUMP [in]\t\t\t\n    tag 51\t\t\t\n      JUMPDEST \t\t\t\n      PUSH 40\t\t\t\n      DUP1 \t\t\t\n      MLOAD \t\t\t\n      PUSH 1\t\t\t\n      PUSH 1\t\t\t\n      PUSH A0\t\t\t\n      SHL \t\t\t\n      SUB \t\t\t\n      SWAP1 \t\t\t\n      SWAP3 \t\t\t\n      AND \t\t\t\n      DUP3 \t\t\t\n      MSTORE \t\t\t\n      MLOAD \t\t\t\n      SWAP1 \t\t\t\n      DUP2 \t\t\t\n      SWAP1 \t\t\t\n      SUB \t\t\t\n      PUSH 20\t\t\t\n      ADD \t\t\t\n      SWAP1 \t\t\t\n      RETURN \t\t\t\n    tag 11\t\t\tstring public symbol   = \"nETC...\n      JUMPDEST \t\t\tstring public symbol   = \"nETC...\n      CALLVALUE \t\t\tstring public symbol   = \"nETC...\n      DUP1 \t\t\tstring public symbol   = \"nETC...\n      ISZERO \t\t\tstring public symbol   = \"nETC...\n      PUSH [tag] 53\t\t\tstring public symbol   = \"nETC...\n      JUMPI \t\t\tstring public symbol   = \"nETC...\n      PUSH 0\t\t\tstring public symbol   = \"nETC...\n      DUP1 \t\t\tstring public symbol   = \"nETC...\n      REVERT \t\t\tstring public symbol   = \"nETC...\n    tag 53\t\t\tstring public symbol   = \"nETC...\n      JUMPDEST \t\t\tstring public symbol   = \"nETC...\n      POP \t\t\tstring public symbol   = \"nETC...\n      PUSH [tag] 20\t\t\tstring public symbol   = \"nETC...\n      PUSH [tag] 55\t\t\tstring public symbol   = \"nETC...\n      JUMP [in]\t\t\tstring public symbol   = \"nETC...\n    tag 12\t\t\tfunction transfer(address dst,...\n      JUMPDEST \t\t\tfunction transfer(address dst,...\n      CALLVALUE \t\t\tfunction transfer(address dst,...\n      DUP1 \t\t\tfunction transfer(address dst,...\n      ISZERO \t\t\tfunction transfer(address dst,...\n      PUSH [tag] 60\t\t\tfunction transfer(address dst,...\n      JUMPI \t\t\tfunction transfer(address dst,...\n      PUSH 0\t\t\tfunction transfer(address dst,...\n      DUP1 \t\t\tfunction transfer(address dst,...\n      REVERT \t\t\tfunction transfer(address dst,...\n    tag 60\t\t\tfunction transfer(address dst,...\n      JUMPDEST \t\t\tfunction transfer(address dst,...\n      POP \t\t\tfunction transfer(address dst,...\n      PUSH [tag] 27\t\t\tfunction transfer(address dst,...\n      PUSH 4\t\t\tfunction transfer(address dst,...\n      DUP1 \t\t\tfunction transfer(address dst,...\n      CALLDATASIZE \t\t\tfunction transfer(address dst,...\n      SUB \t\t\tfunction transfer(address dst,...\n      PUSH 40\t\t\tfunction transfer(address dst,...\n      DUP2 \t\t\tfunction transfer(address dst,...\n      LT \t\t\tfunction transfer(address dst,...\n      ISZERO \t\t\tfunction transfer(address dst,...\n      PUSH [tag] 62\t\t\tfunction transfer(address dst,...\n      JUMPI \t\t\tfunction transfer(address dst,...\n      PUSH 0\t\t\tfunction transfer(address dst,...\n      DUP1 \t\t\tfunction transfer(address dst,...\n      REVERT \t\t\tfunction transfer(address dst,...\n    tag 62\t\t\tfunction transfer(address dst,...\n      JUMPDEST \t\t\tfunction transfer(address dst,...\n      POP \t\t\t\n      PUSH 1\t\t\t\n      PUSH 1\t\t\t\n      PUSH A0\t\t\t\n      SHL \t\t\t\n      SUB \t\t\t\n      DUP2 \t\t\tfunction transfer(address dst,...\n      CALLDATALOAD \t\t\tfunction transfer(address dst,...\n      AND \t\t\tfunction transfer(address dst,...\n      SWAP1 \t\t\tfunction transfer(address dst,...\n      PUSH 20\t\t\tfunction transfer(address dst,...\n      ADD \t\t\tfunction transfer(address dst,...\n      CALLDATALOAD \t\t\tfunction transfer(address dst,...\n      PUSH [tag] 63\t\t\tfunction transfer(address dst,...\n      JUMP [in]\t\t\tfunction transfer(address dst,...\n    tag 13\t\t\tfunction deposit() public paya...\n      JUMPDEST \t\t\tfunction deposit() public paya...\n      PUSH [tag] 37\t\t\tfunction deposit() public paya...\n      PUSH [tag] 65\t\t\tfunction deposit() public paya...\n      JUMP [in]\t\t\tfunction deposit() public paya...\n    tag 14\t\t\tmapping (address => mapping (a...\n      JUMPDEST \t\t\tmapping (address => mapping (a...\n      CALLVALUE \t\t\tmapping (address => mapping (a...\n      DUP1 \t\t\tmapping (address => mapping (a...\n      ISZERO \t\t\tmapping (address => mapping (a...\n      PUSH [tag] 66\t\t\tmapping (address => mapping (a...\n      JUMPI \t\t\tmapping (address => mapping (a...\n      PUSH 0\t\t\tmapping (address => mapping (a...\n      DUP1 \t\t\tmapping (address => mapping (a...\n      REVERT \t\t\tmapping (address => mapping (a...\n    tag 66\t\t\tmapping (address => mapping (a...\n      JUMPDEST \t\t\tmapping (address => mapping (a...\n      POP \t\t\tmapping (address => mapping (a...\n      PUSH [tag] 31\t\t\tmapping (address => mapping (a...\n      PUSH 4\t\t\tmapping (address => mapping (a...\n      DUP1 \t\t\tmapping (address => mapping (a...\n      CALLDATASIZE \t\t\tmapping (address => mapping (a...\n      SUB \t\t\tmapping (address => mapping (a...\n      PUSH 40\t\t\tmapping (address => mapping (a...\n      DUP2 \t\t\tmapping (address => mapping (a...\n      LT \t\t\tmapping (address => mapping (a...\n      ISZERO \t\t\tmapping (address => mapping (a...\n      PUSH [tag] 68\t\t\tmapping (address => mapping (a...\n      JUMPI \t\t\tmapping (address => mapping (a...\n      PUSH 0\t\t\tmapping (address => mapping (a...\n      DUP1 \t\t\tmapping (address => mapping (a...\n      REVERT \t\t\tmapping (address => mapping (a...\n    tag 68\t\t\tmapping (address => mapping (a...\n      JUMPDEST \t\t\tmapping (address => mapping (a...\n      POP \t\t\t\n      PUSH 1\t\t\t\n      PUSH 1\t\t\t\n      PUSH A0\t\t\t\n      SHL \t\t\t\n      SUB \t\t\t\n      DUP2 \t\t\tmapping (address => mapping (a...\n      CALLDATALOAD \t\t\tmapping (address => mapping (a...\n      DUP2 \t\t\tmapping (address => mapping (a...\n      AND \t\t\tmapping (address => mapping (a...\n      SWAP2 \t\t\tmapping (address => mapping (a...\n      PUSH 20\t\t\tmapping (address => mapping (a...\n      ADD \t\t\tmapping (address => mapping (a...\n      CALLDATALOAD \t\t\tmapping (address => mapping (a...\n      AND \t\t\tmapping (address => mapping (a...\n      PUSH [tag] 69\t\t\tmapping (address => mapping (a...\n      JUMP [in]\t\t\tmapping (address => mapping (a...\n    tag 15\t\t\t\n      JUMPDEST \t\t\t\n      CALLVALUE \t\t\t\n      DUP1 \t\t\t\n      ISZERO \t\t\t\n      PUSH [tag] 70\t\t\t\n      JUMPI \t\t\t\n      PUSH 0\t\t\t\n      DUP1 \t\t\t\n      REVERT \t\t\t\n    tag 70\t\t\t\n      JUMPDEST \t\t\t\n      POP \t\t\t\n      PUSH [tag] 37\t\t\t\n      PUSH 4\t\t\t\n      DUP1 \t\t\t\n      CALLDATASIZE \t\t\t\n      SUB \t\t\t\n      PUSH 20\t\t\t\n      DUP2 \t\t\t\n      LT \t\t\t\n      ISZERO \t\t\t\n      PUSH [tag] 72\t\t\t\n      JUMPI \t\t\t\n      PUSH 0\t\t\t\n      DUP1 \t\t\t\n      REVERT \t\t\t\n    tag 72\t\t\t\n      JUMPDEST \t\t\t\n      POP \t\t\t\n      CALLDATALOAD \t\t\t\n      PUSH 1\t\t\t\n      PUSH 1\t\t\t\n      PUSH A0\t\t\t\n      SHL \t\t\t\n      SUB \t\t\t\n      AND \t\t\t\n      PUSH [tag] 73\t\t\t\n      JUMP [in]\t\t\t\n    tag 21\t\t\tstring public name     = \"nEth...\n      JUMPDEST \t\t\tstring public name     = \"nEth...\n      PUSH 1\t\t\tstring public name     = \"nEth...\n      DUP1 \t\t\tstring public name     = \"nEth...\n      SLOAD \t\t\tstring public name     = \"nEth...\n      PUSH 40\t\t\tstring public name     = \"nEth...\n      DUP1 \t\t\tstring public name     = \"nEth...\n      MLOAD \t\t\tstring public name     = \"nEth...\n      PUSH 20\t\t\tstring public name     = \"nEth...\n      PUSH 2\t\t\tstring public name     = \"nEth...\n      DUP5 \t\t\tstring public name     = \"nEth...\n      DUP7 \t\t\tstring public name     = \"nEth...\n      AND \t\t\tstring public name     = \"nEth...\n      ISZERO \t\t\tstring public name     = \"nEth...\n      PUSH 100\t\t\tstring public name     = \"nEth...\n      MUL \t\t\tstring public name     = \"nEth...\n      PUSH 0\t\t\t\n      NOT \t\t\t\n      ADD \t\t\tstring public name     = \"nEth...\n      SWAP1 \t\t\tstring public name     = \"nEth...\n      SWAP5 \t\t\tstring public name     = \"nEth...\n      AND \t\t\tstring public name     = \"nEth...\n      SWAP4 \t\t\tstring public name     = \"nEth...\n      SWAP1 \t\t\tstring public name     = \"nEth...\n      SWAP4 \t\t\tstring public name     = \"nEth...\n      DIV \t\t\tstring public name     = \"nEth...\n      PUSH 1F\t\t\tstring public name     = \"nEth...\n      DUP2 \t\t\tstring public name     = \"nEth...\n      ADD \t\t\tstring public name     = \"nEth...\n      DUP5 \t\t\tstring public name     = \"nEth...\n      SWAP1 \t\t\tstring public name     = \"nEth...\n      DIV \t\t\tstring public name     = \"nEth...\n      DUP5 \t\t\tstring public name     = \"nEth...\n      MUL \t\t\tstring public name     = \"nEth...\n      DUP3 \t\t\tstring public name     = \"nEth...\n      ADD \t\t\tstring public name     = \"nEth...\n      DUP5 \t\t\tstring public name     = \"nEth...\n      ADD \t\t\tstring public name     = \"nEth...\n      SWAP1 \t\t\tstring public name     = \"nEth...\n      SWAP3 \t\t\tstring public name     = \"nEth...\n      MSTORE \t\t\tstring public name     = \"nEth...\n      DUP2 \t\t\tstring public name     = \"nEth...\n      DUP2 \t\t\tstring public name     = \"nEth...\n      MSTORE \t\t\tstring public name     = \"nEth...\n      SWAP3 \t\t\tstring public name     = \"nEth...\n      SWAP2 \t\t\tstring public name     = \"nEth...\n      DUP4 \t\t\tstring public name     = \"nEth...\n      ADD \t\t\tstring public name     = \"nEth...\n      DUP3 \t\t\tstring public name     = \"nEth...\n      DUP3 \t\t\tstring public name     = \"nEth...\n      DUP1 \t\t\tstring public name     = \"nEth...\n      ISZERO \t\t\tstring public name     = \"nEth...\n      PUSH [tag] 74\t\t\tstring public name     = \"nEth...\n      JUMPI \t\t\tstring public name     = \"nEth...\n      DUP1 \t\t\tstring public name     = \"nEth...\n      PUSH 1F\t\t\tstring public name     = \"nEth...\n      LT \t\t\tstring public name     = \"nEth...\n      PUSH [tag] 75\t\t\tstring public name     = \"nEth...\n      JUMPI \t\t\tstring public name     = \"nEth...\n      PUSH 100\t\t\tstring public name     = \"nEth...\n      DUP1 \t\t\tstring public name     = \"nEth...\n      DUP4 \t\t\tstring public name     = \"nEth...\n      SLOAD \t\t\tstring public name     = \"nEth...\n      DIV \t\t\tstring public name     = \"nEth...\n      MUL \t\t\tstring public name     = \"nEth...\n      DUP4 \t\t\tstring public name     = \"nEth...\n      MSTORE \t\t\tstring public name     = \"nEth...\n      SWAP2 \t\t\tstring public name     = \"nEth...\n      PUSH 20\t\t\tstring public name     = \"nEth...\n      ADD \t\t\tstring public name     = \"nEth...\n      SWAP2 \t\t\tstring public name     = \"nEth...\n      PUSH [tag] 74\t\t\tstring public name     = \"nEth...\n      JUMP \t\t\tstring public name     = \"nEth...\n    tag 75\t\t\tstring public name     = \"nEth...\n      JUMPDEST \t\t\tstring public name     = \"nEth...\n      DUP3 \t\t\tstring public name     = \"nEth...\n      ADD \t\t\tstring public name     = \"nEth...\n      SWAP2 \t\t\tstring public name     = \"nEth...\n      SWAP1 \t\t\tstring public name     = \"nEth...\n      PUSH 0\t\t\tstring public name     = \"nEth...\n      MSTORE \t\t\tstring public name     = \"nEth...\n      PUSH 20\t\t\tstring public name     = \"nEth...\n      PUSH 0\t\t\tstring public name     = \"nEth...\n      KECCAK256 \t\t\tstring public name     = \"nEth...\n      SWAP1 \t\t\tstring public name     = \"nEth...\n    tag 76\t\t\tstring public name     = \"nEth...\n      JUMPDEST \t\t\tstring public name     = \"nEth...\n      DUP2 \t\t\tstring public name     = \"nEth...\n      SLOAD \t\t\tstring public name     = \"nEth...\n      DUP2 \t\t\tstring public name     = \"nEth...\n      MSTORE \t\t\tstring public name     = \"nEth...\n      SWAP1 \t\t\tstring public name     = \"nEth...\n      PUSH 1\t\t\tstring public name     = \"nEth...\n      ADD \t\t\tstring public name     = \"nEth...\n      SWAP1 \t\t\tstring public name     = \"nEth...\n      PUSH 20\t\t\tstring public name     = \"nEth...\n      ADD \t\t\tstring public name     = \"nEth...\n      DUP1 \t\t\tstring public name     = \"nEth...\n      DUP4 \t\t\tstring public name     = \"nEth...\n      GT \t\t\tstring public name     = \"nEth...\n      PUSH [tag] 76\t\t\tstring public name     = \"nEth...\n      JUMPI \t\t\tstring public name     = \"nEth...\n      DUP3 \t\t\tstring public name     = \"nEth...\n      SWAP1 \t\t\tstring public name     = \"nEth...\n      SUB \t\t\tstring public name     = \"nEth...\n      PUSH 1F\t\t\tstring public name     = \"nEth...\n      AND \t\t\tstring public name     = \"nEth...\n      DUP3 \t\t\tstring public name     = \"nEth...\n      ADD \t\t\tstring public name     = \"nEth...\n      SWAP2 \t\t\tstring public name     = \"nEth...\n    tag 74\t\t\tstring public name     = \"nEth...\n      JUMPDEST \t\t\tstring public name     = \"nEth...\n      POP \t\t\tstring public name     = \"nEth...\n      POP \t\t\tstring public name     = \"nEth...\n      POP \t\t\tstring public name     = \"nEth...\n      POP \t\t\tstring public name     = \"nEth...\n      POP \t\t\tstring public name     = \"nEth...\n      DUP2 \t\t\tstring public name     = \"nEth...\n      JUMP [out]\t\t\tstring public name     = \"nEth...\n    tag 29\t\t\tfunction approve(address guy, ...\n      JUMPDEST \t\t\tfunction approve(address guy, ...\n      CALLER \t\t\tmsg.sender\n      PUSH 0\t\t\tbool\n      DUP2 \t\t\tallowance[msg.sender]\n      DUP2 \t\t\tallowance[msg.sender]\n      MSTORE \t\t\tallowance[msg.sender]\n      PUSH 5\t\t\tallowance\n      PUSH 20\t\t\tallowance[msg.sender]\n      SWAP1 \t\t\tallowance[msg.sender]\n      DUP2 \t\t\tallowance[msg.sender]\n      MSTORE \t\t\tallowance[msg.sender]\n      PUSH 40\t\t\tallowance[msg.sender]\n      DUP1 \t\t\tallowance[msg.sender]\n      DUP4 \t\t\tallowance[msg.sender]\n      KECCAK256 \t\t\tallowance[msg.sender]\n      PUSH 1\t\t\t\n      PUSH 1\t\t\t\n      PUSH A0\t\t\t\n      SHL \t\t\t\n      SUB \t\t\t\n      DUP8 \t\t\tallowance[msg.sender][guy]\n      AND \t\t\tallowance[msg.sender][guy]\n      DUP1 \t\t\tallowance[msg.sender][guy]\n      DUP6 \t\t\tallowance[msg.sender][guy]\n      MSTORE \t\t\tallowance[msg.sender][guy]\n      SWAP1 \t\t\tallowance[msg.sender][guy]\n      DUP4 \t\t\tallowance[msg.sender][guy]\n      MSTORE \t\t\tallowance[msg.sender][guy]\n      DUP2 \t\t\tallowance[msg.sender][guy]\n      DUP5 \t\t\tallowance[msg.sender][guy]\n      KECCAK256 \t\t\tallowance[msg.sender][guy]\n      DUP7 \t\t\tallowance[msg.sender][guy] = w...\n      SWAP1 \t\t\tallowance[msg.sender][guy] = w...\n      SSTORE \t\t\tallowance[msg.sender][guy] = w...\n      DUP2 \t\t\tApproval(msg.sender, guy, wad)\n      MLOAD \t\t\tApproval(msg.sender, guy, wad)\n      DUP7 \t\t\tApproval(msg.sender, guy, wad)\n      DUP2 \t\t\tApproval(msg.sender, guy, wad)\n      MSTORE \t\t\tApproval(msg.sender, guy, wad)\n      SWAP2 \t\t\tApproval(msg.sender, guy, wad)\n      MLOAD \t\t\tApproval(msg.sender, guy, wad)\n      SWAP4 \t\t\tbool\n      SWAP5 \t\t\tbool\n      SWAP1 \t\t\tallowance[msg.sender][guy]\n      SWAP4 \t\t\tallowance[msg.sender][guy]\n      SWAP1 \t\t\tmsg.sender\n      SWAP3 \t\t\tmsg.sender\n      PUSH 8C5BE1E5EBEC7D5BD14F71427D1E84F3DD0314C0F7B2291E5B200AC8C7C3B925\t\t\tApproval(msg.sender, guy, wad)\n      SWAP3 \t\t\tApproval(msg.sender, guy, wad)\n      DUP3 \t\t\tApproval(msg.sender, guy, wad)\n      SWAP1 \t\t\tApproval(msg.sender, guy, wad)\n      SUB \t\t\tApproval(msg.sender, guy, wad)\n      ADD \t\t\tApproval(msg.sender, guy, wad)\n      SWAP1 \t\t\tApproval(msg.sender, guy, wad)\n      LOG3 \t\t\tApproval(msg.sender, guy, wad)\n      POP \t\t\t\n      PUSH 1\t\t\ttrue\n      SWAP3 \t\t\tfunction approve(address guy, ...\n      SWAP2 \t\t\tfunction approve(address guy, ...\n      POP \t\t\tfunction approve(address guy, ...\n      POP \t\t\tfunction approve(address guy, ...\n      JUMP [out]\t\t\tfunction approve(address guy, ...\n    tag 32\t\t\tfunction totalSupply() public ...\n      JUMPDEST \t\t\tfunction totalSupply() public ...\n      SELFBALANCE \t\t\taddress(this).balance\n      SWAP1 \t\t\tfunction totalSupply() public ...\n      JUMP [out]\t\t\tfunction totalSupply() public ...\n    tag 36\t\t\tfunction transferFrom(address ...\n      JUMPDEST \t\t\tfunction transferFrom(address ...\n      PUSH 1\t\t\t\n      PUSH 1\t\t\t\n      PUSH A0\t\t\t\n      SHL \t\t\t\n      SUB \t\t\t\n      DUP4 \t\t\tbalanceOf[src]\n      AND \t\t\tbalanceOf[src]\n      PUSH 0\t\t\tbool\n      SWAP1 \t\t\tbalanceOf[src]\n      DUP2 \t\t\tbalanceOf[src]\n      MSTORE \t\t\tbalanceOf[src]\n      PUSH 4\t\t\tbalanceOf\n      PUSH 20\t\t\tbalanceOf[src]\n      MSTORE \t\t\tbalanceOf[src]\n      PUSH 40\t\t\tbalanceOf[src]\n      DUP2 \t\t\tbalanceOf[src]\n      KECCAK256 \t\t\tbalanceOf[src]\n      SLOAD \t\t\tbalanceOf[src]\n      DUP3 \t\t\tbalanceOf[src] >= wad\n      GT \t\t\t\n      ISZERO \t\t\tbalanceOf[src] >= wad\n      PUSH [tag] 80\t\t\trequire(balanceOf[src] >= wad)\n      JUMPI \t\t\trequire(balanceOf[src] >= wad)\n      PUSH 0\t\t\trequire(balanceOf[src] >= wad)\n      DUP1 \t\t\trequire(balanceOf[src] >= wad)\n      REVERT \t\t\trequire(balanceOf[src] >= wad)\n    tag 80\t\t\trequire(balanceOf[src] >= wad)\n      JUMPDEST \t\t\trequire(balanceOf[src] >= wad)\n      PUSH 1\t\t\t\n      PUSH 1\t\t\t\n      PUSH A0\t\t\t\n      SHL \t\t\t\n      SUB \t\t\t\n      DUP5 \t\t\tsrc != msg.sender\n      AND \t\t\tsrc != msg.sender\n      CALLER \t\t\tmsg.sender\n      EQ \t\t\tsrc != msg.sender\n      DUP1 \t\t\tsrc != msg.sender\n      ISZERO \t\t\tsrc != msg.sender\n      SWAP1 \t\t\tsrc != msg.sender\n      PUSH [tag] 81\t\t\tsrc != msg.sender && allowance...\n      JUMPI \t\t\tsrc != msg.sender && allowance...\n      POP \t\t\t\n      PUSH 1\t\t\t\n      PUSH 1\t\t\t\n      PUSH A0\t\t\t\n      SHL \t\t\t\n      SUB \t\t\t\n      DUP5 \t\t\tallowance[src]\n      AND \t\t\tallowance[src]\n      PUSH 0\t\t\tallowance[src]\n      SWAP1 \t\t\tallowance[src]\n      DUP2 \t\t\tallowance[src]\n      MSTORE \t\t\tallowance[src]\n      PUSH 5\t\t\tallowance\n      PUSH 20\t\t\tallowance[src]\n      SWAP1 \t\t\tallowance[src]\n      DUP2 \t\t\tallowance[src]\n      MSTORE \t\t\tallowance[src]\n      PUSH 40\t\t\tallowance[src]\n      DUP1 \t\t\tallowance[src]\n      DUP4 \t\t\tallowance[src]\n      KECCAK256 \t\t\tallowance[src]\n      CALLER \t\t\tmsg.sender\n      DUP5 \t\t\tallowance[src][msg.sender]\n      MSTORE \t\t\tallowance[src][msg.sender]\n      SWAP1 \t\t\tallowance[src][msg.sender]\n      SWAP2 \t\t\tallowance[src][msg.sender]\n      MSTORE \t\t\tallowance[src][msg.sender]\n      SWAP1 \t\t\tallowance[src][msg.sender]\n      KECCAK256 \t\t\tallowance[src][msg.sender]\n      SLOAD \t\t\tallowance[src][msg.sender]\n      PUSH 0\t\t\t\n      NOT \t\t\t\n      EQ \t\t\tallowance[src][msg.sender] != ...\n      ISZERO \t\t\tallowance[src][msg.sender] != ...\n    tag 81\t\t\tsrc != msg.sender && allowance...\n      JUMPDEST \t\t\tsrc != msg.sender && allowance...\n      ISZERO \t\t\tif (src != msg.sender && allow...\n      PUSH [tag] 82\t\t\tif (src != msg.sender && allow...\n      JUMPI \t\t\tif (src != msg.sender && allow...\n      PUSH 1\t\t\t\n      PUSH 1\t\t\t\n      PUSH A0\t\t\t\n      SHL \t\t\t\n      SUB \t\t\t\n      DUP5 \t\t\tallowance[src]\n      AND \t\t\tallowance[src]\n      PUSH 0\t\t\tallowance[src]\n      SWAP1 \t\t\tallowance[src]\n      DUP2 \t\t\tallowance[src]\n      MSTORE \t\t\tallowance[src]\n      PUSH 5\t\t\tallowance\n      PUSH 20\t\t\tallowance[src]\n      SWAP1 \t\t\tallowance[src]\n      DUP2 \t\t\tallowance[src]\n      MSTORE \t\t\tallowance[src]\n      PUSH 40\t\t\tallowance[src]\n      DUP1 \t\t\tallowance[src]\n      DUP4 \t\t\tallowance[src]\n      KECCAK256 \t\t\tallowance[src]\n      CALLER \t\t\tmsg.sender\n      DUP5 \t\t\tallowance[src][msg.sender]\n      MSTORE \t\t\tallowance[src][msg.sender]\n      SWAP1 \t\t\tallowance[src][msg.sender]\n      SWAP2 \t\t\tallowance[src][msg.sender]\n      MSTORE \t\t\tallowance[src][msg.sender]\n      SWAP1 \t\t\tallowance[src][msg.sender]\n      KECCAK256 \t\t\tallowance[src][msg.sender]\n      SLOAD \t\t\tallowance[src][msg.sender]\n      DUP3 \t\t\tallowance[src][msg.sender] >= ...\n      GT \t\t\t\n      ISZERO \t\t\tallowance[src][msg.sender] >= ...\n      PUSH [tag] 83\t\t\trequire(allowance[src][msg.sen...\n      JUMPI \t\t\trequire(allowance[src][msg.sen...\n      PUSH 0\t\t\trequire(allowance[src][msg.sen...\n      DUP1 \t\t\trequire(allowance[src][msg.sen...\n      REVERT \t\t\trequire(allowance[src][msg.sen...\n    tag 83\t\t\trequire(allowance[src][msg.sen...\n      JUMPDEST \t\t\trequire(allowance[src][msg.sen...\n      PUSH 1\t\t\t\n      PUSH 1\t\t\t\n      PUSH A0\t\t\t\n      SHL \t\t\t\n      SUB \t\t\t\n      DUP5 \t\t\tallowance[src]\n      AND \t\t\tallowance[src]\n      PUSH 0\t\t\tallowance[src]\n      SWAP1 \t\t\tallowance[src]\n      DUP2 \t\t\tallowance[src]\n      MSTORE \t\t\tallowance[src]\n      PUSH 5\t\t\tallowance\n      PUSH 20\t\t\tallowance[src]\n      SWAP1 \t\t\tallowance[src]\n      DUP2 \t\t\tallowance[src]\n      MSTORE \t\t\tallowance[src]\n      PUSH 40\t\t\tallowance[src]\n      DUP1 \t\t\tallowance[src]\n      DUP4 \t\t\tallowance[src]\n      KECCAK256 \t\t\tallowance[src]\n      CALLER \t\t\tmsg.sender\n      DUP5 \t\t\tallowance[src][msg.sender]\n      MSTORE \t\t\tallowance[src][msg.sender]\n      SWAP1 \t\t\tallowance[src][msg.sender]\n      SWAP2 \t\t\tallowance[src][msg.sender]\n      MSTORE \t\t\tallowance[src][msg.sender]\n      SWAP1 \t\t\tallowance[src][msg.sender]\n      KECCAK256 \t\t\tallowance[src][msg.sender]\n      DUP1 \t\t\tallowance[src][msg.sender] -= ...\n      SLOAD \t\t\tallowance[src][msg.sender] -= ...\n      DUP4 \t\t\tallowance[src][msg.sender] -= ...\n      SWAP1 \t\t\tallowance[src][msg.sender] -= ...\n      SUB \t\t\tallowance[src][msg.sender] -= ...\n      SWAP1 \t\t\tallowance[src][msg.sender] -= ...\n      SSTORE \t\t\tallowance[src][msg.sender] -= ...\n    tag 82\t\t\tif (src != msg.sender && allow...\n      JUMPDEST \t\t\tif (src != msg.sender && allow...\n      PUSH 1\t\t\t\n      PUSH 1\t\t\t\n      PUSH A0\t\t\t\n      SHL \t\t\t\n      SUB \t\t\t\n      DUP1 \t\t\tbalanceOf[src]\n      DUP6 \t\t\tbalanceOf[src]\n      AND \t\t\tbalanceOf[src]\n      PUSH 0\t\t\tbalanceOf[src]\n      DUP2 \t\t\tbalanceOf[src]\n      DUP2 \t\t\tbalanceOf[src]\n      MSTORE \t\t\tbalanceOf[src]\n      PUSH 4\t\t\tbalanceOf\n      PUSH 20\t\t\tbalanceOf[src]\n      SWAP1 \t\t\tbalanceOf[src]\n      DUP2 \t\t\tbalanceOf[src]\n      MSTORE \t\t\tbalanceOf[src]\n      PUSH 40\t\t\tbalanceOf[src]\n      DUP1 \t\t\tbalanceOf[src]\n      DUP4 \t\t\tbalanceOf[src]\n      KECCAK256 \t\t\tbalanceOf[src]\n      DUP1 \t\t\tbalanceOf[src] -= wad\n      SLOAD \t\t\tbalanceOf[src] -= wad\n      DUP9 \t\t\tbalanceOf[src] -= wad\n      SWAP1 \t\t\tbalanceOf[src] -= wad\n      SUB \t\t\tbalanceOf[src] -= wad\n      SWAP1 \t\t\tbalanceOf[src] -= wad\n      SSTORE \t\t\tbalanceOf[src] -= wad\n      SWAP4 \t\t\tbalanceOf[dst]\n      DUP8 \t\t\tbalanceOf[dst]\n      AND \t\t\tbalanceOf[dst]\n      DUP1 \t\t\tbalanceOf[dst]\n      DUP4 \t\t\tbalanceOf[dst]\n      MSTORE \t\t\tbalanceOf[dst]\n      SWAP2 \t\t\tbalanceOf[dst]\n      DUP5 \t\t\tbalanceOf[dst]\n      SWAP1 \t\t\tbalanceOf[dst]\n      KECCAK256 \t\t\tbalanceOf[dst]\n      DUP1 \t\t\tbalanceOf[dst] += wad\n      SLOAD \t\t\tbalanceOf[dst] += wad\n      DUP8 \t\t\tbalanceOf[dst] += wad\n      ADD \t\t\tbalanceOf[dst] += wad\n      SWAP1 \t\t\tbalanceOf[dst] += wad\n      SSTORE \t\t\tbalanceOf[dst] += wad\n      DUP4 \t\t\tTransfer(src, dst, wad)\n      MLOAD \t\t\tTransfer(src, dst, wad)\n      DUP7 \t\t\tTransfer(src, dst, wad)\n      DUP2 \t\t\tTransfer(src, dst, wad)\n      MSTORE \t\t\tTransfer(src, dst, wad)\n      SWAP4 \t\t\tTransfer(src, dst, wad)\n      MLOAD \t\t\tTransfer(src, dst, wad)\n      SWAP2 \t\t\tbalanceOf[dst]\n      SWAP4 \t\t\tbalanceOf[dst]\n      PUSH DDF252AD1BE2C89B69C2B068FC378DAA952BA7F163C4A11628F55A4DF523B3EF\t\t\tTransfer(src, dst, wad)\n      SWAP3 \t\t\tTransfer(src, dst, wad)\n      SWAP1 \t\t\tTransfer(src, dst, wad)\n      DUP2 \t\t\tTransfer(src, dst, wad)\n      SWAP1 \t\t\tTransfer(src, dst, wad)\n      SUB \t\t\tTransfer(src, dst, wad)\n      SWAP1 \t\t\tTransfer(src, dst, wad)\n      SWAP2 \t\t\tTransfer(src, dst, wad)\n      ADD \t\t\tTransfer(src, dst, wad)\n      SWAP1 \t\t\tTransfer(src, dst, wad)\n      LOG3 \t\t\tTransfer(src, dst, wad)\n      POP \t\t\t\n      PUSH 1\t\t\ttrue\n      SWAP4 \t\t\tfunction transferFrom(address ...\n      SWAP3 \t\t\tfunction transferFrom(address ...\n      POP \t\t\tfunction transferFrom(address ...\n      POP \t\t\tfunction transferFrom(address ...\n      POP \t\t\tfunction transferFrom(address ...\n      JUMP [out]\t\t\tfunction transferFrom(address ...\n    tag 39\t\t\tfunction withdraw(uint wad) pu...\n      JUMPDEST \t\t\tfunction withdraw(uint wad) pu...\n      CALLER \t\t\tmsg.sender\n      PUSH 0\t\t\tbalanceOf[msg.sender]\n      SWAP1 \t\t\tbalanceOf[msg.sender]\n      DUP2 \t\t\tbalanceOf[msg.sender]\n      MSTORE \t\t\tbalanceOf[msg.sender]\n      PUSH 4\t\t\tbalanceOf\n      PUSH 20\t\t\tbalanceOf[msg.sender]\n      MSTORE \t\t\tbalanceOf[msg.sender]\n      PUSH 40\t\t\tbalanceOf[msg.sender]\n      SWAP1 \t\t\tbalanceOf[msg.sender]\n      KECCAK256 \t\t\tbalanceOf[msg.sender]\n      SLOAD \t\t\tbalanceOf[msg.sender]\n      DUP2 \t\t\tbalanceOf[msg.sender] >= wad\n      GT \t\t\t\n      ISZERO \t\t\tbalanceOf[msg.sender] >= wad\n      PUSH [tag] 85\t\t\trequire(balanceOf[msg.sender] ...\n      JUMPI \t\t\trequire(balanceOf[msg.sender] ...\n      PUSH 0\t\t\trequire(balanceOf[msg.sender] ...\n      DUP1 \t\t\trequire(balanceOf[msg.sender] ...\n      REVERT \t\t\trequire(balanceOf[msg.sender] ...\n    tag 85\t\t\trequire(balanceOf[msg.sender] ...\n      JUMPDEST \t\t\trequire(balanceOf[msg.sender] ...\n      CALLER \t\t\tmsg.sender\n      PUSH 0\t\t\tbalanceOf[msg.sender]\n      DUP2 \t\t\tbalanceOf[msg.sender]\n      DUP2 \t\t\tbalanceOf[msg.sender]\n      MSTORE \t\t\tbalanceOf[msg.sender]\n      PUSH 4\t\t\tbalanceOf\n      PUSH 20\t\t\tbalanceOf[msg.sender]\n      MSTORE \t\t\tbalanceOf[msg.sender]\n      PUSH 40\t\t\tbalanceOf[msg.sender]\n      DUP1 \t\t\tbalanceOf[msg.sender]\n      DUP3 \t\t\tbalanceOf[msg.sender]\n      KECCAK256 \t\t\tbalanceOf[msg.sender]\n      DUP1 \t\t\tbalanceOf[msg.sender] -= wad\n      SLOAD \t\t\tbalanceOf[msg.sender] -= wad\n      DUP6 \t\t\tbalanceOf[msg.sender] -= wad\n      SWAP1 \t\t\tbalanceOf[msg.sender] -= wad\n      SUB \t\t\tbalanceOf[msg.sender] -= wad\n      SWAP1 \t\t\tbalanceOf[msg.sender] -= wad\n      SSTORE \t\t\tbalanceOf[msg.sender] -= wad\n      MLOAD \t\t\tmsg.sender.transfer(wad)\n      DUP4 \t\t\tmsg.sender.transfer(wad)\n      ISZERO \t\t\tmsg.sender.transfer(wad)\n      PUSH 8FC\t\t\tmsg.sender.transfer(wad)\n      MUL \t\t\tmsg.sender.transfer(wad)\n      SWAP2 \t\t\tmsg.sender.transfer(wad)\n      DUP5 \t\t\twad\n      SWAP2 \t\t\twad\n      SWAP1 \t\t\tmsg.sender.transfer(wad)\n      DUP2 \t\t\tmsg.sender.transfer(wad)\n      DUP2 \t\t\tbalanceOf[msg.sender]\n      DUP2 \t\t\tmsg.sender.transfer(wad)\n      DUP6 \t\t\twad\n      DUP9 \t\t\tmsg.sender\n      DUP9 \t\t\tmsg.sender.transfer(wad)\n      CALL \t\t\tmsg.sender.transfer(wad)\n      SWAP4 \t\t\tmsg.sender.transfer(wad)\n      POP \t\t\tmsg.sender.transfer(wad)\n      POP \t\t\tmsg.sender.transfer(wad)\n      POP \t\t\tmsg.sender.transfer(wad)\n      POP \t\t\tmsg.sender.transfer(wad)\n      ISZERO \t\t\tmsg.sender.transfer(wad)\n      DUP1 \t\t\tmsg.sender.transfer(wad)\n      ISZERO \t\t\tmsg.sender.transfer(wad)\n      PUSH [tag] 87\t\t\tmsg.sender.transfer(wad)\n      JUMPI \t\t\tmsg.sender.transfer(wad)\n      RETURNDATASIZE \t\t\tmsg.sender.transfer(wad)\n      PUSH 0\t\t\tmsg.sender.transfer(wad)\n      DUP1 \t\t\tmsg.sender.transfer(wad)\n      RETURNDATACOPY \t\t\tmsg.sender.transfer(wad)\n      RETURNDATASIZE \t\t\tmsg.sender.transfer(wad)\n      PUSH 0\t\t\tmsg.sender.transfer(wad)\n      REVERT \t\t\tmsg.sender.transfer(wad)\n    tag 87\t\t\tmsg.sender.transfer(wad)\n      JUMPDEST \t\t\tmsg.sender.transfer(wad)\n      POP \t\t\t\n      PUSH 40\t\t\tWithdrawal(msg.sender, wad)\n      DUP1 \t\t\tWithdrawal(msg.sender, wad)\n      MLOAD \t\t\tWithdrawal(msg.sender, wad)\n      DUP3 \t\t\tWithdrawal(msg.sender, wad)\n      DUP2 \t\t\tWithdrawal(msg.sender, wad)\n      MSTORE \t\t\tWithdrawal(msg.sender, wad)\n      SWAP1 \t\t\tWithdrawal(msg.sender, wad)\n      MLOAD \t\t\tWithdrawal(msg.sender, wad)\n      CALLER \t\t\tmsg.sender\n      SWAP2 \t\t\tmsg.sender\n      PUSH 7FCF532C15F0A6DB0BD6D0E038BEA71D30D808C7D98CB3BF7268A95BF5081B65\t\t\tWithdrawal(msg.sender, wad)\n      SWAP2 \t\t\tWithdrawal(msg.sender, wad)\n      SWAP1 \t\t\tWithdrawal(msg.sender, wad)\n      DUP2 \t\t\tWithdrawal(msg.sender, wad)\n      SWAP1 \t\t\tWithdrawal(msg.sender, wad)\n      SUB \t\t\tWithdrawal(msg.sender, wad)\n      PUSH 20\t\t\tWithdrawal(msg.sender, wad)\n      ADD \t\t\tWithdrawal(msg.sender, wad)\n      SWAP1 \t\t\tWithdrawal(msg.sender, wad)\n      LOG2 \t\t\tWithdrawal(msg.sender, wad)\n      POP \t\t\tfunction withdraw(uint wad) pu...\n      JUMP [out]\t\t\tfunction withdraw(uint wad) pu...\n    tag 42\t\t\tuint8  public decimals = 18\n      JUMPDEST \t\t\tuint8  public decimals = 18\n      PUSH 3\t\t\tuint8  public decimals = 18\n      SLOAD \t\t\tuint8  public decimals = 18\n      PUSH FF\t\t\tuint8  public decimals = 18\n      AND \t\t\tuint8  public decimals = 18\n      DUP2 \t\t\tuint8  public decimals = 18\n      JUMP [out]\t\t\tuint8  public decimals = 18\n    tag 46\t\t\tmapping (address => uint)     ...\n      JUMPDEST \t\t\tmapping (address => uint)     ...\n      PUSH 4\t\t\tmapping (address => uint)     ...\n      PUSH 20\t\t\tmapping (address => uint)     ...\n      MSTORE \t\t\tmapping (address => uint)     ...\n      PUSH 0\t\t\tmapping (address => uint)     ...\n      SWAP1 \t\t\tmapping (address => uint)     ...\n      DUP2 \t\t\tmapping (address => uint)     ...\n      MSTORE \t\t\tmapping (address => uint)     ...\n      PUSH 40\t\t\tmapping (address => uint)     ...\n      SWAP1 \t\t\tmapping (address => uint)     ...\n      KECCAK256 \t\t\tmapping (address => uint)     ...\n      SLOAD \t\t\tmapping (address => uint)     ...\n      DUP2 \t\t\tmapping (address => uint)     ...\n      JUMP [out]\t\t\tmapping (address => uint)     ...\n    tag 49\t\t\t\n      JUMPDEST \t\t\t\n      PUSH [tag] 89\t\t\t\n      PUSH [tag] 90\t\t\t\n      JUMP [in]\t\t\t\n    tag 89\t\t\t\n      JUMPDEST \t\t\t\n      PUSH [tag] 92\t\t\t\n      PUSH 0\t\t\t\n      PUSH [tag] 93\t\t\t\n      JUMP [in]\t\t\t\n    tag 92\t\t\t\n      JUMPDEST \t\t\t\n      JUMP [out]\t\t\t\n    tag 52\t\t\t\n      JUMPDEST \t\t\t\n      PUSH 0\t\t\t\n      SLOAD \t\t\t\n      PUSH 1\t\t\t\n      PUSH 1\t\t\t\n      PUSH A0\t\t\t\n      SHL \t\t\t\n      SUB \t\t\t\n      AND \t\t\t\n      SWAP1 \t\t\t\n      JUMP [out]\t\t\t\n    tag 55\t\t\tstring public symbol   = \"nETC...\n      JUMPDEST \t\t\tstring public symbol   = \"nETC...\n      PUSH 2\t\t\tstring public symbol   = \"nETC...\n      DUP1 \t\t\tstring public symbol   = \"nETC...\n      SLOAD \t\t\tstring public symbol   = \"nETC...\n      PUSH 40\t\t\tstring public symbol   = \"nETC...\n      DUP1 \t\t\tstring public symbol   = \"nETC...\n      MLOAD \t\t\tstring public symbol   = \"nETC...\n      PUSH 20\t\t\tstring public symbol   = \"nETC...\n      PUSH 1\t\t\tstring public symbol   = \"nETC...\n      DUP5 \t\t\tstring public symbol   = \"nETC...\n      AND \t\t\tstring public symbol   = \"nETC...\n      ISZERO \t\t\tstring public symbol   = \"nETC...\n      PUSH 100\t\t\tstring public symbol   = \"nETC...\n      MUL \t\t\tstring public symbol   = \"nETC...\n      PUSH 0\t\t\t\n      NOT \t\t\t\n      ADD \t\t\tstring public symbol   = \"nETC...\n      SWAP1 \t\t\tstring public symbol   = \"nETC...\n      SWAP4 \t\t\tstring public symbol   = \"nETC...\n      AND \t\t\tstring public symbol   = \"nETC...\n      DUP5 \t\t\tstring public symbol   = \"nETC...\n      SWAP1 \t\t\tstring public symbol   = \"nETC...\n      DIV \t\t\tstring public symbol   = \"nETC...\n      PUSH 1F\t\t\tstring public symbol   = \"nETC...\n      DUP2 \t\t\tstring public symbol   = \"nETC...\n      ADD \t\t\tstring public symbol   = \"nETC...\n      DUP5 \t\t\tstring public symbol   = \"nETC...\n      SWAP1 \t\t\tstring public symbol   = \"nETC...\n      DIV \t\t\tstring public symbol   = \"nETC...\n      DUP5 \t\t\tstring public symbol   = \"nETC...\n      MUL \t\t\tstring public symbol   = \"nETC...\n      DUP3 \t\t\tstring public symbol   = \"nETC...\n      ADD \t\t\tstring public symbol   = \"nETC...\n      DUP5 \t\t\tstring public symbol   = \"nETC...\n      ADD \t\t\tstring public symbol   = \"nETC...\n      SWAP1 \t\t\tstring public symbol   = \"nETC...\n      SWAP3 \t\t\tstring public symbol   = \"nETC...\n      MSTORE \t\t\tstring public symbol   = \"nETC...\n      DUP2 \t\t\tstring public symbol   = \"nETC...\n      DUP2 \t\t\tstring public symbol   = \"nETC...\n      MSTORE \t\t\tstring public symbol   = \"nETC...\n      SWAP3 \t\t\tstring public symbol   = \"nETC...\n      SWAP2 \t\t\tstring public symbol   = \"nETC...\n      DUP4 \t\t\tstring public symbol   = \"nETC...\n      ADD \t\t\tstring public symbol   = \"nETC...\n      DUP3 \t\t\tstring public symbol   = \"nETC...\n      DUP3 \t\t\tstring public symbol   = \"nETC...\n      DUP1 \t\t\tstring public symbol   = \"nETC...\n      ISZERO \t\t\tstring public symbol   = \"nETC...\n      PUSH [tag] 74\t\t\tstring public symbol   = \"nETC...\n      JUMPI \t\t\tstring public symbol   = \"nETC...\n      DUP1 \t\t\tstring public symbol   = \"nETC...\n      PUSH 1F\t\t\tstring public symbol   = \"nETC...\n      LT \t\t\tstring public symbol   = \"nETC...\n      PUSH [tag] 75\t\t\tstring public symbol   = \"nETC...\n      JUMPI \t\t\tstring public symbol   = \"nETC...\n      PUSH 100\t\t\tstring public symbol   = \"nETC...\n      DUP1 \t\t\tstring public symbol   = \"nETC...\n      DUP4 \t\t\tstring public symbol   = \"nETC...\n      SLOAD \t\t\tstring public symbol   = \"nETC...\n      DIV \t\t\tstring public symbol   = \"nETC...\n      MUL \t\t\tstring public symbol   = \"nETC...\n      DUP4 \t\t\tstring public symbol   = \"nETC...\n      MSTORE \t\t\tstring public symbol   = \"nETC...\n      SWAP2 \t\t\tstring public symbol   = \"nETC...\n      PUSH 20\t\t\tstring public symbol   = \"nETC...\n      ADD \t\t\tstring public symbol   = \"nETC...\n      SWAP2 \t\t\tstring public symbol   = \"nETC...\n      PUSH [tag] 74\t\t\tstring public symbol   = \"nETC...\n      JUMP \t\t\tstring public symbol   = \"nETC...\n    tag 63\t\t\tfunction transfer(address dst,...\n      JUMPDEST \t\t\tfunction transfer(address dst,...\n      PUSH 0\t\t\tbool\n      PUSH [tag] 99\t\t\ttransferFrom(msg.sender, dst, ...\n      CALLER \t\t\tmsg.sender\n      DUP5 \t\t\tdst\n      DUP5 \t\t\twad\n      PUSH [tag] 36\t\t\ttransferFrom\n      JUMP [in]\t\t\ttransferFrom(msg.sender, dst, ...\n    tag 99\t\t\ttransferFrom(msg.sender, dst, ...\n      JUMPDEST \t\t\ttransferFrom(msg.sender, dst, ...\n      SWAP4 \t\t\treturn transferFrom(msg.sender...\n      SWAP3 \t\t\tfunction transfer(address dst,...\n      POP \t\t\t\n      POP \t\t\t\n      POP \t\t\t\n      JUMP [out]\t\t\tfunction transfer(address dst,...\n    tag 65\t\t\tfunction deposit() public paya...\n      JUMPDEST \t\t\tfunction deposit() public paya...\n      CALLER \t\t\tmsg.sender\n      PUSH 0\t\t\tbalanceOf[msg.sender]\n      DUP2 \t\t\tbalanceOf[msg.sender]\n      DUP2 \t\t\tbalanceOf[msg.sender]\n      MSTORE \t\t\tbalanceOf[msg.sender]\n      PUSH 4\t\t\tbalanceOf\n      PUSH 20\t\t\tbalanceOf[msg.sender]\n      SWAP1 \t\t\tbalanceOf[msg.sender]\n      DUP2 \t\t\tbalanceOf[msg.sender]\n      MSTORE \t\t\tbalanceOf[msg.sender]\n      PUSH 40\t\t\tbalanceOf[msg.sender]\n      SWAP2 \t\t\tbalanceOf[msg.sender]\n      DUP3 \t\t\tbalanceOf[msg.sender]\n      SWAP1 \t\t\tbalanceOf[msg.sender]\n      KECCAK256 \t\t\tbalanceOf[msg.sender]\n      DUP1 \t\t\tbalanceOf[msg.sender] += msg.v...\n      SLOAD \t\t\tbalanceOf[msg.sender] += msg.v...\n      CALLVALUE \t\t\tmsg.value\n      SWAP1 \t\t\tbalanceOf[msg.sender] += msg.v...\n      DUP2 \t\t\tbalanceOf[msg.sender] += msg.v...\n      ADD \t\t\tbalanceOf[msg.sender] += msg.v...\n      SWAP1 \t\t\tbalanceOf[msg.sender] += msg.v...\n      SWAP2 \t\t\tbalanceOf[msg.sender] += msg.v...\n      SSTORE \t\t\tbalanceOf[msg.sender] += msg.v...\n      DUP3 \t\t\tDeposit(msg.sender, msg.value)\n      MLOAD \t\t\tDeposit(msg.sender, msg.value)\n      SWAP1 \t\t\tDeposit(msg.sender, msg.value)\n      DUP2 \t\t\tDeposit(msg.sender, msg.value)\n      MSTORE \t\t\tDeposit(msg.sender, msg.value)\n      SWAP2 \t\t\tDeposit(msg.sender, msg.value)\n      MLOAD \t\t\tDeposit(msg.sender, msg.value)\n      PUSH E1FFFCC4923D04B559F4D29A8BFC6CDA04EB5B0D3C460751C2402C5C5CC9109C\t\t\tDeposit(msg.sender, msg.value)\n      SWAP3 \t\t\tDeposit(msg.sender, msg.value)\n      DUP2 \t\t\tDeposit(msg.sender, msg.value)\n      SWAP1 \t\t\tDeposit(msg.sender, msg.value)\n      SUB \t\t\tDeposit(msg.sender, msg.value)\n      SWAP1 \t\t\tDeposit(msg.sender, msg.value)\n      SWAP2 \t\t\tDeposit(msg.sender, msg.value)\n      ADD \t\t\tDeposit(msg.sender, msg.value)\n      SWAP1 \t\t\tDeposit(msg.sender, msg.value)\n      LOG2 \t\t\tDeposit(msg.sender, msg.value)\n      JUMP [out]\t\t\tfunction deposit() public paya...\n    tag 69\t\t\tmapping (address => mapping (a...\n      JUMPDEST \t\t\tmapping (address => mapping (a...\n      PUSH 5\t\t\tmapping (address => mapping (a...\n      PUSH 20\t\t\tmapping (address => mapping (a...\n      SWAP1 \t\t\tmapping (address => mapping (a...\n      DUP2 \t\t\tmapping (address => mapping (a...\n      MSTORE \t\t\tmapping (address => mapping (a...\n      PUSH 0\t\t\tmapping (address => mapping (a...\n      SWAP3 \t\t\tmapping (address => mapping (a...\n      DUP4 \t\t\tmapping (address => mapping (a...\n      MSTORE \t\t\tmapping (address => mapping (a...\n      PUSH 40\t\t\tmapping (address => mapping (a...\n      DUP1 \t\t\tmapping (address => mapping (a...\n      DUP5 \t\t\tmapping (address => mapping (a...\n      KECCAK256 \t\t\tmapping (address => mapping (a...\n      SWAP1 \t\t\tmapping (address => mapping (a...\n      SWAP2 \t\t\tmapping (address => mapping (a...\n      MSTORE \t\t\tmapping (address => mapping (a...\n      SWAP1 \t\t\tmapping (address => mapping (a...\n      DUP3 \t\t\tmapping (address => mapping (a...\n      MSTORE \t\t\tmapping (address => mapping (a...\n      SWAP1 \t\t\tmapping (address => mapping (a...\n      KECCAK256 \t\t\tmapping (address => mapping (a...\n      SLOAD \t\t\tmapping (address => mapping (a...\n      DUP2 \t\t\tmapping (address => mapping (a...\n      JUMP [out]\t\t\tmapping (address => mapping (a...\n    tag 73\t\t\t\n      JUMPDEST \t\t\t\n      PUSH [tag] 102\t\t\t\n      PUSH [tag] 90\t\t\t\n      JUMP [in]\t\t\t\n    tag 102\t\t\t\n      JUMPDEST \t\t\t\n      PUSH 1\t\t\t\n      PUSH 1\t\t\t\n      PUSH A0\t\t\t\n      SHL \t\t\t\n      SUB \t\t\t\n      DUP2 \t\t\t\n      AND \t\t\t\n      PUSH [tag] 104\t\t\t\n      JUMPI \t\t\t\n      PUSH 40\t\t\t\n      MLOAD \t\t\t\n      PUSH 461BCD\t\t\t\n      PUSH E5\t\t\t\n      SHL \t\t\t\n      DUP2 \t\t\t\n      MSTORE \t\t\t\n      PUSH 4\t\t\t\n      ADD \t\t\t\n      DUP1 \t\t\t\n      DUP1 \t\t\t\n      PUSH 20\t\t\t\n      ADD \t\t\t\n      DUP3 \t\t\t\n      DUP2 \t\t\t\n      SUB \t\t\t\n      DUP3 \t\t\t\n      MSTORE \t\t\t\n      PUSH 26\t\t\t\n      DUP2 \t\t\t\n      MSTORE \t\t\t\n      PUSH 20\t\t\t\n      ADD \t\t\t\n      DUP1 \t\t\t\n      PUSH data 245F15FF17F551913A7A18385165551503906A406F905AC1C2437281A7CD0CFE\t\t\t\n      PUSH 26\t\t\t\n      SWAP2 \t\t\t\n      CODECOPY \t\t\t\n      PUSH 40\t\t\t\n      ADD \t\t\t\n      SWAP2 \t\t\t\n      POP \t\t\t\n      POP \t\t\t\n      PUSH 40\t\t\t\n      MLOAD \t\t\t\n      DUP1 \t\t\t\n      SWAP2 \t\t\t\n      SUB \t\t\t\n      SWAP1 \t\t\t\n      REVERT \t\t\t\n    tag 104\t\t\t\n      JUMPDEST \t\t\t\n      PUSH [tag] 105\t\t\t\n      DUP2 \t\t\t\n      PUSH [tag] 93\t\t\t\n      JUMP [in]\t\t\t\n    tag 105\t\t\t\n      JUMPDEST \t\t\t\n      POP \t\t\t\n      JUMP [out]\t\t\t\n    tag 90\t\t\t\n      JUMPDEST \t\t\t\n      PUSH [tag] 107\t\t\t\n      PUSH [tag] 108\t\t\t\n      JUMP [in]\t\t\t\n    tag 107\t\t\t\n      JUMPDEST \t\t\t\n      PUSH 1\t\t\t\n      PUSH 1\t\t\t\n      PUSH A0\t\t\t\n      SHL \t\t\t\n      SUB \t\t\t\n      AND \t\t\t\n      PUSH [tag] 109\t\t\t\n      PUSH [tag] 52\t\t\t\n      JUMP [in]\t\t\t\n    tag 109\t\t\t\n      JUMPDEST \t\t\t\n      PUSH 1\t\t\t\n      PUSH 1\t\t\t\n      PUSH A0\t\t\t\n      SHL \t\t\t\n      SUB \t\t\t\n      AND \t\t\t\n      EQ \t\t\t\n      PUSH [tag] 92\t\t\t\n      JUMPI \t\t\t\n      PUSH 40\t\t\t\n      DUP1 \t\t\t\n      MLOAD \t\t\t\n      PUSH 461BCD\t\t\t\n      PUSH E5\t\t\t\n      SHL \t\t\t\n      DUP2 \t\t\t\n      MSTORE \t\t\t\n      PUSH 20\t\t\t\n      PUSH 4\t\t\t\n      DUP3 \t\t\t\n      ADD \t\t\t\n      DUP2 \t\t\t\n      SWAP1 \t\t\t\n      MSTORE \t\t\t\n      PUSH 24\t\t\t\n      DUP3 \t\t\t\n      ADD \t\t\t\n      MSTORE \t\t\t\n      PUSH 4F776E61626C653A2063616C6C6572206973206E6F7420746865206F776E6572\t\t\t\n      PUSH 44\t\t\t\n      DUP3 \t\t\t\n      ADD \t\t\t\n      MSTORE \t\t\t\n      SWAP1 \t\t\t\n      MLOAD \t\t\t\n      SWAP1 \t\t\t\n      DUP2 \t\t\t\n      SWAP1 \t\t\t\n      SUB \t\t\t\n      PUSH 64\t\t\t\n      ADD \t\t\t\n      SWAP1 \t\t\t\n      REVERT \t\t\t\n    tag 93\t\t\t\n      JUMPDEST \t\t\t\n      PUSH 0\t\t\t\n      DUP1 \t\t\t\n      SLOAD \t\t\t\n      PUSH 1\t\t\t\n      PUSH 1\t\t\t\n      PUSH A0\t\t\t\n      SHL \t\t\t\n      SUB \t\t\t\n      DUP4 \t\t\t\n      DUP2 \t\t\t\n      AND \t\t\t\n      PUSH 1\t\t\t\n      PUSH 1\t\t\t\n      PUSH A0\t\t\t\n      SHL \t\t\t\n      SUB \t\t\t\n      NOT \t\t\t\n      DUP4 \t\t\t\n      AND \t\t\t\n      DUP2 \t\t\t\n      OR \t\t\t\n      DUP5 \t\t\t\n      SSTORE \t\t\t\n      PUSH 40\t\t\t\n      MLOAD \t\t\t\n      SWAP2 \t\t\t\n      SWAP1 \t\t\t\n      SWAP3 \t\t\t\n      AND \t\t\t\n      SWAP3 \t\t\t\n      DUP4 \t\t\t\n      SWAP2 \t\t\t\n      PUSH 8BE0079C531659141344CD1FD0A4F28419497F9722A3DAAFE3B4186F6B6457E0\t\t\t\n      SWAP2 \t\t\t\n      SWAP1 \t\t\t\n      LOG3 \t\t\t\n      POP \t\t\t\n      POP \t\t\t\n      JUMP [out]\t\t\t\n    tag 108\t\t\tuint)                       pu...\n      JUMPDEST \t\t\tuint)                       pu...\n      CALLER \t\t\tress => ui\n      SWAP1 \t\t\tuint)                       pu...\n      JUMP [out]\t\t\tuint)                       pu...\n    .data\n      245F15FF17F551913A7A18385165551503906A406F905AC1C2437281A7CD0CFE:\n        4f776e61626c653a206e6577206f776e657220697320746865207a65726f2061646472657373\n"
}